:100000000C943B040C94D33B0C94043C0C94353C72
:100010000C94663C0C94973C0C94C83C0C94F93CB2
:100020000C942A3D0C946C040C946C040C946C0499
:100030000C946C040C946C040C946C040C94D731E8
:100040000C946C040C946C040C946C040C946C0470
:100050000C946C040C946C040C946C040C946D3D26
:100060000C946C040C944C360C9482360C946C04F6
:100070000C946C040C946C040C946C040C946C0440
:100080000C946C040C946C040C946C040C946C0430
:100090000C94F9360C942F370C946C040C946C046B
:1000A0000C946C040C946C040C946C040C946C0410
:1000B0000C946C040C946C040C945A330C94C93258
:1000C0000C94BC330C946C040C946C040C94A63704
:1000D0000C94DC370C946C040C9453380C948938D1
:1000E0000C946C04AD3B773B7F3B8B3B983BB93B1F
:1000F000C63BAE3EB13EA03EA43EAA3EE83EB53E63
:10010000B93EBF3EC33EC73ECD3ED13ED53EE83EA2
:10011000DB3EDF3EE33E084AD73B3BCE016E84BC6C
:10012000BFFDC12F3D6C74319ABD56833DDA3D0051
:10013000C77F11BED9E4BB4C3E916BAAAABE00009A
:1001400000803F05A84CCDB2D44EB93836A9020C78
:1001500050B9918688083CA6AAAA2ABE0000008051
:100160003F000C94BD380C94C73E0C943D160C9483
:10017000112A0C94CD3E0C9474040C9491340C947C
:100180006E040C94AA3E0C9400390C940B120C943F
:10019000EE110C94BF3E0C944C2A0C94B6360C9481
:1001A00084090C94CD290C94D4290C947F3B0C9495
:1001B00031320C94773B0C94B21B0C94C33E0C94DC
:1001C000A5150C9464210C9476350C94D53E0C94B2
:1001D000AD3B0C947D340C94DB3E0C948B3B0C9427
:1001E000B4050C9422320C940C320C94E1150C944E
:1001F000D4160C94AC1B0C9406380C9407160C9473
:1002000070090C94422A0C94B93E0C94E51A0C9493
:10021000B3380C94472A0C94E33E0C9463370C9447
:1002200007120C94AE3E0C94B13E0C9411350C9414
:1002300062340C94983B0C945A170C94B53E0C9471
:10024000B93B0C94E83E0C94AE050C94D13E0C9452
:10025000BB1B0C9454170C94DF3E0C94AC360C94DE
:1002600059370C94A03E0C94A43E0C94B41B0C94EF
:10027000EF340C946F340C9440170C94C63B0C94E0
:10028000A4210C941038496E6974206175746F70E4
:10029000696C6F7420636F6D706C65746500496E76
:1002A0006974206175746F70696C6F742E2E73653C
:1002B00074206C696D6974732E2E00496E69742008
:1002C0006175746F70696C6F742E2E7374617274C3
:1002D000205049442E2E00496E6974206175746F58
:1002E00070696C6F742E2E002C002C4C4C333A002D
:1002F0002C4C55333A002C4C4C323A002C4C553295
:100300003A002C4C4C313A002C4C55313A002C53CD
:10031000544B3A002C5342333A002C5342323A00A9
:100320002C5342313A002C5342303A002C47505360
:100330003A002C575A4A3A005549443A4D454741EC
:100340002C4150583A0021215645523A312E392C31
:10035000002C002C57534B3A002C5753583A002C82
:100360004141443A002C4141453A002C41414E3A2A
:10037000002C4141523A002C4141583A002C415046
:10038000523A002C4150433A002C4150543A002C30
:100390004150533A005549443A4D4547412C41504C
:1003A000583A0021215645523A312E392C005365D6
:1003B00074757020636F6D706C6574652E2E0053BC
:1003C000746172742074696D65722E2E00537461AD
:1003D00072742077696E642E2E00537461727420DB
:1003E0006E6D6561205478202D206F6E2070696ECF
:1003F000732034362054782C2034382052782061F1
:100400007420005374617274206E6D65612054789D
:100410002E2E005374617274206E6D6561205278C7
:10042000202D2073657269616C3420617420004353
:10043000535F50494E204F5554505554203D20484D
:100440004947480043535F50494E207365742074F8
:100450006F204F555450555400537461727420539B
:1004600050492075617274732E2E0053746172743A
:10047000206E6D6561205278202D20736572696150
:100480006C3320617420005374617274206E6D654A
:1004900061205278202D2073657269616C32206171
:1004A00074200053746172742073656174616C6BA5
:1004B000202D2073657269616C322061742034389C
:1004C00030300053746172742047505320527820AA
:1004D0002D2073657269616C312061742000496E52
:1004E000697469616C697A696E672E2E0024504DBB
:1004F000544B3235312C0024504D544B3331342C75
:10050000302C312C302C312C312C312C302C302C07
:10051000302C302C302C302C302C302C302C302CFB
:10052000302C302C302A32380024504D544B32328B
:10053000302C313030302A31460053657474696E86
:10054000672047505320746F204D54454B5F333321
:100550003239002C382C312C302A0024505352468A
:100560003130302C312C0024505352463130352C50
:10057000302A33460024505352463130332C303425
:100580002C30302C30312C30312A32310024505371
:1005900052463130332C30332C30302C32302C302A
:1005A000312A32350024505352463130332C303208
:1005B0002C30302C30352C30312A3233002450533B
:1005C00052463130332C30302C30302C30352C30FA
:1005D000312A32310024505352463130332C3031DD
:1005E0002C30302C30302C30312A3235002450530E
:1005F00052463130332C30352C30302C30302C30CA
:10060000312A32310024505352463130352C312AB0
:1006100033450053657474696E67204750532074E6
:100620006F20454D5F343036410053657474696EF8
:10063000672047505320746F2047454E4552494329
:100640000053657474696E672047505320636F6E62
:100650006669672E2E2E0020202064656661756C09
:100660007420746F20343830302E2E004641494CAF
:100670004544004F4B206174200020202074727983
:10068000206175746F62617564202E2E2000202019
:1006900064657465637465642070756C736520723D
:1006A000617465203D20002C542A002448434844AE
:1006B000542C002C4E2C412A002E302C522C00247D
:1006C00057494D57562C0053504920696E69742084
:1006D000636F6D706C6574650053504920554152CD
:1006E00054207265736574005350492073746172AD
:1006F000746564004D756C746953657269616C3A18
:100700003A626567696E0000000A0B02090C0D0E63
:1007100008070304010000000000000000000000C2
:1007200000000000000000000000000000000000C9
:100730000000001211100000000000000000000086
:100740000000000000000000000000000001021096
:1007500020200808102040102040800201020108DB
:10076000040201010204081020408080402010088B
:1007700004020180040201804020100804020108E4
:100780000402010102040810204080010204081044
:100790002040800505050507050808080802020233
:1007A000020A0A080804040404010101010101010C
:1007B000010303030303030303040707070C0C0CE3
:1007C0000C0C0C0C0C0202020206060606060606BB
:1007D000060B0B0B0B0B0B0B0B0000200023002652
:1007E0000029002C002F0032000001000003010648
:1007F00001090100002200250028002B002E0031F5
:1008000000340002010000050108010B0100002175
:1008100000240027002A002D0030003300010100D1
:1008200000040107010A014E414E494E49545949FD
:100830004E46CDCCCC3D0AD7233C17B7D13877CC28
:100840002B329595E6241FB14F0A0000204100008D
:10085000C84200401C4620BCBE4CCA1B0E5AAEC546
:100860009D747009D416E51A6421B63663371038C2
:10087000BD388409401711241FBECFEFD1E2DEBF7F
:10088000CDBF00E00CBF14E0A0E0B2E0E4E8FFE878
:1008900000E00BBF02C007900D92A43CB107D9F74E
:1008A0002FE0A4ECB4E001C01D92A339B207E1F738
:1008B00018E0C2E7D8E000E006C022970109FE0177
:1008C0000BBF0E94FF43C236D10780E00807A9F79B
:1008D0000E945C3D0C94B0470C9400002DE032E087
:1008E000FC013183208308952DE032E0FC01318347
:1008F00020830C946B3DFC01CB012DE032E0318371
:10090000208373836283148240E050E0BA010E9426
:10091000F70F61E088E10E94E93E61E08AE10E9410
:10092000E93E61E08CE10E94E93E61E08EE10E94D7
:10093000E93E60E082E40C94E93ECF92DF92EF92D0
:10094000FF92CF93DF93EC018A819B810E943E113D
:10095000882389F08A819B810E94BB0D6B017C01F9
:100960000E94B73D21E0C616D706E806F90608F052
:1009700020E0822F01C080E0DF91CF91FF90EF90C7
:10098000DF90CF900895CF92DF92EF92FF92CF93B6
:10099000DF93EC010E949D048823A9F10E94B73DDA
:1009A0006B017C018A819B810E94B50DC61AD70A12
:1009B000E80AF90A89EEC81683E0D806E104F104D2
:1009C000C0F16C8188E10E94223F6C818AE10E9423
:1009D000223F6C818CE10E94223F6C818EE10E945B
:1009E000223F8C8191E089278C830E94B73DAB0127
:1009F000BC018A819B81DF91CF91FF90EF90DF90C6
:100A0000CF900C94F70F60E088E10E94223F60E0F5
:100A10008AE10E94223F60E08CE10E94223F60E078
:100A20008EE1DF91CF91FF90EF90DF90CF900C940B
:100A3000223FDF91CF91FF90EF90DF90CF9008950C
:100A4000CF92DF92EF92FF92CF93DF93EC018A81F6
:100A50009B810E94F20F882311F18A819B810E9461
:100A6000C60F18161906DCF48A819B810E94D20FEA
:100A70006B017C018A819B810E94C60FBC01882783
:100A800077FD8095982F0E9447419B01AC01C701DB
:100A9000B6010E94A842181614F461E001C060E09B
:100AA0008A819B81DF91CF91FF90EF90DF90CF9073
:100AB0000C947B110F931F93CF93DF93EC0180E491
:100AC0000E94703E8C018A819B810E94960F0817BC
:100AD00019074CF08A819B810E948A0F8017910729
:100AE00014F060E001C061E08A819B810E94E41003
:100AF00081E40E94703E8C018A819B810E94A80F34
:100B0000081719073CF08A819B810E949C0F80176F
:100B1000910714F461E001C060E08A819B810E942A
:100B2000F31082E40E94703E8C018A819B810E94B6
:100B3000BA0F081719073CF08A819B810E94AE0FFB
:100B40008017910714F461E001C060E08A819B8105
:100B5000DF91CF911F910F910C94021125E132E0AA
:100B6000FC0131832083089525E132E0FC013183CB
:100B700020830C946B3D2F923F924F925F926F9225
:100B80007F928F929F92AF92BF92CF92DF92EF921D
:100B9000FF920F931F93CF93DF93CDB7DEB72897C4
:100BA0000FB6F894DEBF0FBECDBF1C016A017B01FA
:100BB00009831A832B833C83FC01828193810E94E9
:100BC000F10D9B01AC01C701B6010E94DF3F2B0173
:100BD0003C01F101828193810E94F10D9B01AC01E6
:100BE000C701B6010E94DE3F4B015C01F101828129
:100BF00093810E94F10D9B01AC0169817A818B8107
:100C00009C810E94DF3F6B017C01F1018281938115
:100C10000E94F10D9B01AC0169817A818B819C81DD
:100C20000E94DE3F69837A838B839C83F1018281FA
:100C300093810E94F70D6D837E838F83988724E8CC
:100C40003AEB4CE358E3C301B2010E94DE3F2D8131
:100C50003E814F8158850E94A84218166CF4F1011C
:100C6000828193810E94E30D9B01AC01C301B2011B
:100C70000E94A54087FD8CC0F101828193810E9472
:100C8000E30D2B013C0124E83AEB4CE358E3C501AA
:100C9000B4010E94DF3FA30192010E94A54087FF9B
:100CA0000EC0F101828193810E94F70D9B01AC017E
:100CB000C501B4010E94A84218160CF471C0F101DC
:100CC000828193810E94FD0D4B015C0124E83AEB87
:100CD0004CE358E3C701B6010E94DE3FA501940131
:100CE0000E94A84218166CF4F101828193810E943F
:100CF000C70D9B01AC01C701B6010E94A54087FD4D
:100D000057C0F101828193810E94C70D6B017C0164
:100D100024E83AEB4CE358E369817A818B819C812A
:100D20000E94DF3FA70196010E94A54087FF48C0AF
:100D3000F101828193810E94FD0D9B01AC016981CB
:100D40007A818B819C810E94A8421816CCF549813A
:100D50005A816B817C81F1018281938128960FB643
:100D6000F894DEBF0FBECDBFDF91CF911F910F91E1
:100D7000FF90EF90DF90CF90BF90AF909F908F90BB
:100D80007F906F905F904F903F902F900C94471002
:100D9000B301A201F101828193810E942D106CCFD9
:100DA000B501A401F101828193810E94411087CF96
:100DB000B701A601F101828193810E941110A1CF98
:100DC00028960FB6F894DEBF0FBECDBFDF91CF914E
:100DD0001F910F91FF90EF90DF90CF90BF90AF9059
:100DE0009F908F907F906F905F904F903F902F904B
:100DF00008958F929F92AF92BF92CF92DF92EF921F
:100E0000FF920F931F93CF93DF93EC016A017B0155
:100E10004801590140E050E064EB72E48A819B8113
:100E20000E942D1040E050E064EB72EC8A819B81BF
:100E30000E94411040E050E064E373E48A819B81AA
:100E40000E94111040E050E064E373EC8A819B81C2
:100E50000E9447108A819B810E94E90D2DE93BEF9A
:100E600046E157E30E94B342AB01BC018A819B81FA
:100E70000E943B1095018401B701A601CE010E949A
:100E8000BB05DF91CF911F910F91FF90EF90DF9005
:100E9000CF90BF90AF909F908F900895CF92DF92A8
:100EA000EF92FF920F931F93CF93DF93EC018B018F
:100EB00085E192E0998388837B836A83CB010E94DA
:100EC000D50D6B017C01C8010E94CD0DAB01BC01A9
:100ED00097018601CE010E94F906DF91CF911F9103
:100EE0000F91FF90EF90DF90CF9008954F925F9217
:100EF0006F927F928F929F92AF92BF92CF92DF922A
:100F0000EF92FF920F931F93CF93DF9300D01F9226
:100F1000CDB7DEB74C01FC01828193810E94E80FBE
:100F2000882309F4D2C00E94B73D2B013C01F40193
:100F3000828193810E94590F461A570A680A790ADA
:100F4000F1EE4F16F3E95F06F4E06F06710438F036
:100F5000F401828193810E94E80F81118DC0F40118
:100F6000828193810E94790F882309F4AEC0F40135
:100F7000828193810E94690F5B016C01F40182817F
:100F800093810E94610F2B013C01F40182819381C6
:100F90000E94D50D9B01AC01F401828193812983CC
:100FA0003A834B835C830E94CD0D830172012981BA
:100FB0003A814B815C810E946018AB01BC01F40155
:100FC000828193810E940B10F401828193810E949F
:100FD000C10D2B013C01F401828193810E94DD0D42
:100FE0009B01AC01C301B2010E94A842181664F42F
:100FF000F401828193810E94C10DAB01BC01F40117
:10100000828193810E942710F401828193810E9442
:10101000690F2B013C01F401828193810E94610FD1
:10102000AB01BC0193018201C4010E94BB05F40124
:10103000828193810E94E80F882369F1F401828103
:1010400093810E94C10D2B013C01F40182819381A7
:101050000E94E90D9B01AC01C301B2010E94A842AC
:101060001816CCF440E050E0BA01F401828193817B
:101070000E94FD0F61E010C040E050E0BA01F401B1
:10108000828193810E94FD0F61E0F401828193814E
:101090000E94081064CF60E0F401828193810F9078
:1010A0000F900F900F90DF91CF911F910F91FF90B4
:1010B000EF90DF90CF90BF90AF909F908F907F90F8
:1010C0006F905F904F900C9408100F900F900F90BE
:1010D0000F90DF91CF911F910F91FF90EF90DF90D4
:1010E000CF90BF90AF909F908F907F906F905F90C8
:1010F0004F900895CF93DF93EC018A819B810E94EA
:10110000610FAB01BC018A819B810E9417108A810B
:101110009B810E94690FAB01BC018A819B810E9467
:101120001F1040E050E0BA018A819B81DF91CF918E
:101130000C9427100F931F93CF93DF93EC018B0137
:1011400081960E94CB2118A30F8FDF91CF911F9121
:101150000F9108958F929F92AF92BF92CF92DF929C
:10116000EF92FF920F931F93CF93DF93CDB7DEB72C
:10117000E7970FB6F894DEBF0FBECDBF4C01FC0160
:10118000168E158E148E138E67ED72E080E09DE052
:101190000E948039F401878D90A10E94DC11AB017F
:1011A000BC018DE095E00E94FA2A64E670E080E0E0
:1011B00090E00E94E63DF401878D90A10E94090E07
:1011C00020E030E044E354E40E94DF3F6B017C0107
:1011D000F4016083718382839383878D90A10E9441
:1011E000040F9B01AC01C701B6010E94DF3FF4016F
:1011F0006483758386839783878D90A10E94030EF5
:10120000F401608771878287938711E0108B6BEB05
:1012100072E080E09DE00E948039A401485F5F4F4A
:10122000B4016C5F7F4F1F921F938FE38F9385E014
:101230008F938EE18F9388EB8F938AE0A82E87EDB2
:10124000B82E83EAC82E8DE3D82E16E6E12EFE2CAA
:1012500006EE1EE39401CE0101960E94012587E36C
:10126000FE013196D401919601900D928A95E1F795
:101270006EE972E080E09DE00E948039F1E28F0E1D
:10128000911C00E010E024E832E440E050E0BA01B4
:10129000C4010E94E92364E670E0C4010E94A12316
:1012A00066E872E080E09DE00E9480390F900F9028
:1012B0000F900F900F900F90E7960FB6F894DEBF47
:1012C0000FBECDBFDF91CF911F910F91FF90EF9097
:1012D000DF90CF90BF90AF909F908F90089508952A
:1012E00040E063E48DE095E00E9488296DE075E0C0
:1012F00088EE94E00E94D52F20E841E368EE74E088
:1013000086EC94E00C94512B86EC94E00C94912B99
:101310000F931F93CF93DF93EC018C010F5E1F4F50
:101320008DE095E00E94472A892B21F18DE095E020
:101330000E94422A2D8D3E8DFE01E20FF31F818B0C
:101340002F5F3F4F3E8F2D8F8A3029F08D3019F05F
:10135000213331052CF3FE01E20FF31F118AB8018E
:1013600080E09DE00E9492391E8E1D8EF801118250
:101370001082D6CFDF91CF911F910F9108954F9298
:101380005F926F927F92AF92BF92CF92DF92EF9275
:10139000FF920F931F93CF93DF9300D000D0CDB770
:1013A000DEB75C01FC01878D90A10E94651185016B
:1013B0000F5D1F4F882309F4DEC0C5010E94880914
:1013C00061E070E0C8010E94AF24F501878D90A113
:1013D0000E94090E20E030E044E354E40E94DF3F25
:1013E0006B017C01F5016083718382839383878D18
:1013F00090A10E94040F9B01AC01C701B6010E949D
:10140000DF3FF5016483758386839783C8010E945B
:10141000CC21F50124853585468557856085718504
:10142000828593850E94DE3F6B017C0120E030E0E5
:10143000A9010E94A842181624F0F7FAF094F7F8D0
:10144000F094F501878D90A10E94450FBC0188277B
:1014500077FD8095982F0E9447419B01AC01C70101
:10146000B6010E94A84218160CF09EC0F5018089B2
:10147000078D10A1C084D184E284F3844484558410
:1014800066847784A3019201882309F1C701B6011C
:101490000E94A84218160CF1A3019201C701B601DF
:1014A0000E94A54087FF3FC0F501108AC8010E9435
:1014B0004B0FBC01882777FD8095982F0E944741EC
:1014C0009B01AC01C701B6010E94DE3F27C0C701E6
:1014D000B6010E94A54087FF06C0F501C486D586E7
:1014E000E686F78620C0A3019201C701B6010E94DB
:1014F000A8421816C4F481E0F501808BC8010E944F
:101500004B0FBC01882777FD8095982F0E9447419B
:101510009B01AC01C701B6010E94DF3FF501648762
:10152000758786879787F501448555856685778514
:10153000878D90A10E947C10F501878D90A10E945B
:10154000510F2B013C0120E030E048EC52E4F50162
:1015500064857585868597850E94B3420E941441F3
:10156000AB01BC01E12CF12C9301820186EC94E0EB
:101570000E94102E19C060E070E0C80126960FB6D8
:10158000F894DEBF0FBECDBFDF91CF911F910F91B9
:10159000FF90EF90DF90CF90BF90AF907F906F90D3
:1015A0005F904F900C94AF2426960FB6F894DEBF50
:1015B0000FBECDBFDF91CF911F910F91FF90EF90A4
:1015C000DF90CF90BF90AF907F906F905F904F90E3
:1015D0000895FC01108211821282138214821582F6
:1015E00016821782108A118A128A138A148A158A1F
:1015F000168A178A108E118E128E138E148E40E06A
:1016000050E064EB72E4458F568F678F70A340E023
:1016100050E064EB72EC41A352A363A374A340E0D7
:1016200050E064E373E445A356A367A370A740E0CA
:1016300050E064E373EC41A752A763A774A715A613
:1016400083E482AB13AA14AA15AA16AA40E050E0BC
:1016500064E072E447AB50AF61AF72AF13AE40E0ED
:1016600050E068EC72E444AF55AF66AF77AFDF018E
:10167000A05CBF4F40E050E060E271E44D935D93A9
:101680006D937C93139714964D935D936D937C9318
:101690001397149640E850E060E070E04D935D933E
:1016A0006D937C9313971086118612861386148689
:1016B00015861686178614961C9211961D921D92F9
:1016C0001D921C92139714961D921D921D921C92AE
:1016D0001397149686E58C9311961D921D921D9278
:1016E0001C92139714961D921D921D921C92139793
:1016F00014961D921D921D921C92139714961D9282
:101700001D921D921C92139714961C9211961C9276
:1017100011961C9211961C92A55ABF4F21E034E0FD
:1017200011963C932E9312968FEF9FEF11969C93F8
:101730008E93AC55B1091C92A25ABF4F11963C939F
:101740002E93129611969C938E93AF55B1091C92CD
:10175000AF59BF4F11963C932E93129611969C93BE
:101760008E93A256B1091D921D921D921C92139741
:1017700014961D921D921D921C9213971496119609
:101780001C921E92129611961C921E9212961196FF
:101790001C921E9212961C9211961D921D921D92E1
:1017A0001C92139714961D921D921D921C921397D2
:1017B000149640E050E060E272E44D935D936D93C7
:1017C0007C93139714961C9211961C921196119665
:1017D0001C921E92129611961C921E92169640E032
:1017E00050E060E87FE34D935D936D937C93139796
:1017F00014961C92119640EE53E964E070E04D930C
:101800005D936D937C93139714961C9211961C9282
:10181000119683E690E011969C938E9312961C92FB
:10182000119640E050E46CE176E44D935D936D9346
:101830007C931397149611961C921E9212961196F1
:101840001C921E92129640E056E960E070E04D93C3
:101850005D936D937C931397149640EC52E160E096
:1018600070E04D935D936D937C931397149640E8CD
:1018700055E260E070E04D935D936D937C93139718
:1018800014964D935D936D937C93139714964D939B
:101890005D936D937C93139718964D935D936D9321
:1018A0007C93139714961C92E053FF4F8DE090E0C9
:1018B0009183808308950F931F93CF93DF938C01BF
:1018C000EB0166E473E0CE010E943E3968E373E009
:1018D000CE010E943E3962E373E0CE010E943E39A0
:1018E000F801ED55FF4F608171814AE050E0CE0173
:1018F0000E94473A6CE273E0CE010E943E39F80143
:10190000EB55FF4F608171814AE050E0CE010E94AB
:10191000473A66E273E0CE010E943E39F801E9558C
:10192000FF4F40815181628173812AE030E0CE0116
:101930000E94FD3960E273E0CE010E943E39F80159
:10194000E555FF4F40815181628173812AE030E08B
:10195000CE010E94FD396AE173E0CE010E943E395A
:10196000F801E155FF4F40815181628173812AE086
:1019700030E0CE010E94FD3964E173E0CE010E94A7
:101980003E39F801ED54FF4F4081518162817381EE
:101990002AE030E0CE010E94FD396EE073E0CE0116
:1019A0000E943E39F801ED53FF4F608170E04AE03C
:1019B00050E0CE010E94473A68E073E0CE010E94F9
:1019C0003E39F801EC53FF4F608171814AE050E0ED
:1019D000CE010E94473A62E073E0CE010E943E3998
:1019E000F801EA53FF4F608171814AE050E0CE0177
:1019F0000E94473A6CEF72E0CE010E943E39F80136
:101A0000E853FF4F608171814AE050E0CE010E94AF
:101A1000473A66EF72E0CE010E943E39F801E65384
:101A2000FF4F608171814AE050E0CE010E94473A49
:101A300060EF72E0CE010E943E39F801E453FF4F9F
:101A4000608171814AE050E0CE010E94473A6AEE1F
:101A500072E0CE010E943E39F801E253FF4F6081EF
:101A600071814AE050E0CE010E94473A68EE72E090
:101A7000CE010E94803980E090E0DF91CF911F91EC
:101A80000F9108950F931F93CF93DF93EC01FC0107
:101A9000E053FF4F408160E070E08EE39CE00E94E5
:101AA0000832FE01EF52FF4F408161E070E08EE3AB
:101AB0009CE00E940832C558DF4F64E070E0499115
:101AC0008B010F5F1F4F8EE39CE00E9408320935A7
:101AD000110511F0B801F3CFDF91CF911F910F9154
:101AE0000895EF92FF920F931F93CF93DF931F926E
:101AF0001F92CDB7DEB78C0160E070E08EE39CE012
:101B00000E940532898361E070E08EE39CE00E94D0
:101B100005328A83F801E053FF4F29813A818081A1
:101B200091812817390719F0C8010E94420D055804
:101B30001F4F64E070E07B018FEFE81AF80A8EE334
:101B40009CE00E940532F80181938F01F9E5EF16C0
:101B5000F10411F0B701EFCF0F900F90DF91CF910B
:101B60001F910F91FF90EF900895FC0160817181AA
:101B7000828193810895FC016481758186819781BA
:101B80000895FC0164897589868997890895FC0107
:101B900065A176A187A190A5089585589F4FFC0166
:101BA0006081718182819381089581589F4FFC01EA
:101BB00060817181828193810895FC01608D718DB6
:101BC000828D938D0895FC01658D768D878D90A112
:101BD00008958D579F4FFC016081718182819381AF
:101BE0000895FC0160897189828993890895FC01B7
:101BF00061A172A183A194A10895FC0161A572A5C0
:101C000083A594A50895FC0167A970AD81AD92AD3F
:101C10000895FC0163A974A985A996A90895FC01FA
:101C200022A9273559F4EA58FF4F6081718188272E
:101C300077FD8095982F0E9447410895FC016085AB
:101C40007185828593850895EF92FF920F931F937C
:101C5000CF93DF938C01EB0163EA73E0CE010E9426
:101C60003E3965E973E0CE010E943E39F80165A571
:101C700070E04AE050E0CE010E94473A6FE873E01E
:101C8000CE010E943E39F80162A9CE010E94653959
:101C9000F80185A58823A9F169E873E0CE010E94C7
:101CA0003E39F80143A954A965A976A922E030E09C
:101CB000CE010E94603B63E873E0CE010E943E3992
:101CC000C8010E940F0EAB01BC0122E030E0CE0142
:101CD0000E94603B6DE773E0CE010E943E3920E038
:101CE00030E044E052E4F80167A970AD81AD92ADF7
:101CF0000E94DE3FAB01BC0122E030E0CE010E9439
:101D0000603B67E773E0CE010E943E397801F7E857
:101D1000EF0EF11CF701608170E04AE050E0CE0167
:101D20000E94473A61E773E0CE010E943E39F80114
:101D3000ED57FF4F408151816281738122E030E095
:101D4000CE010E94603BF7018081882389F16BE618
:101D500073E0CE010E943E39F801E558FF4F408103
:101D600051816281738122E030E0CE010E94603BAC
:101D700065E673E0CE010E943E39F801E158FF4F5D
:101D8000408151816281738122E030E0CE010E9466
:101D9000603B6FE573E0CE010E943E39F801448953
:101DA00055896689778922E030E0CE010E94603B48
:101DB00069E573E0CE010E943E39F801E256FF4F1B
:101DC000608170E04AE050E0CE010E94473A63E54E
:101DD00073E0CE010E943E39F801E456FF4F608166
:101DE00071814AE050E0CE010E94473A61E573E01C
:101DF000CE010E94803980E090E0DF91CF911F9169
:101E00000F91FF90EF900895CF92DF92EF92FF92A3
:101E1000CF93DF93EC010E940F0E9B01AC016BA9E5
:101E20007CA98DA99EA90E94DE3F6B017C0120E068
:101E300030E044E353E40E94A84218167CF020E00E
:101E400030E044E353ECC701B6010E94A54087FF90
:101E50000AC020E030E044EB53E408C020E030E06A
:101E600044EB53EC03C020E030E0A901C701B60108
:101E70000E94DF3F6EA77FA788AB99ABDF91CF9120
:101E8000FF90EF90DF90CF90089587579F4FFC0110
:101E900080819181089585579F4FFC0180819181B8
:101EA000089583579F4FFC016081718182819381E6
:101EB0000895835B9F4FFC016081718182819381D2
:101EC00008958A5A9F4FFC016081718182819381BC
:101ED0000895865A9F4FFC016081718182819381B0
:101EE00008958F569F4FFC0160817181828193819B
:101EF00008958B5A9F4FFC0180810895FC016085F5
:101F00007185828593850895FC0164857585868534
:101F1000978508958C539F4FFC018081918108958E
:101F20008C539F4FFC017183608308958A539F4FA8
:101F3000FC0180819181089588539F4FFC0180812D
:101F40009181089588539F4FFC01718360830895A8
:101F500086539F4FFC0180819181089584539F4F48
:101F6000FC0180819181089584539F4FFC0171830E
:101F70006083089582539F4FFC0180819181089571
:101F80008D559F4FFC0180819181089584569F4F0C
:101F9000FC018081918108958A589F4FFC018081C6
:101FA0009181089580599F4FFC01608171818281E8
:101FB0009381089581569F4FFC01608171818281D8
:101FC000938108958C589F4FFC01808191810895E1
:101FD00089579F4FFC0180810895845B9F4FFC01CE
:101FE0008081089582569F4FFC0180810895FC01F5
:101FF00040835183628373830895FC014483558336
:1020000066837783089589579F4FFC016083089505
:10201000FC01648F0895FC01448B558B668B778B94
:102020000895FC0145A356A367A370A7089585589A
:102030009F4FFC01408351836283738308958158CD
:102040009F4FFC0140835183628373830895FC0199
:10205000408F518F628F738F0895FC01458F568F8B
:10206000678F70A308958D579F4FFC014083518364
:10207000628373830895FC01408B518B628B738B59
:102080000895FC0141A352A363A374A30895FC0126
:1020900041A752A763A774A70895CF93DF93EC01DC
:1020A000673511F0633429F56AAB673581F4FE01B9
:1020B000EA58FF4F60817181882777FD8095982FBE
:1020C0000E9447416BAB7CAB8DAB9EAB0AC06334C7
:1020D00041F4488559856A857B854BAB5CAB6DAB1C
:1020E0007EAB40E050E064E072E44FAB58AF69AFC4
:1020F0007AAFDF91CF910895FC0147AB50AF61AF4C
:1021000072AF0895CF93DF93EC01CB01BA010E9427
:102110001441CB0188599E4F68E671E00E949943B3
:10212000BC01882777FD8095982F0E9447416BABB3
:102130007CAB8DAB9EABDF91CF9108958E599F4FB5
:10214000FC0140835183628373830895845B9F4FB6
:10215000FC0160830895835B9F4FFC0140835183A2
:102160006283738308958A5A9F4FFC014083518391
:10217000628373830895865A9F4FFC014083518385
:10218000628373830895825A9F4FFC014083518379
:102190006283738308958B5A9F4FFC016083089577
:1021A0008F5A9F4FFC01408351836283738308954C
:1021B000FC0140875187628773870895FC0144873B
:1021C0005587668777870895CF93DF931F92CDB7A2
:1021D000DEB76983298187599F4FFC0120830F90C7
:1021E000DF91CF910895CF93DF931F92CDB7DEB7E4
:1021F0006983298186599F4FFC0120830F90DF91CD
:10220000CF910895CF93DF931F92CDB7DEB7698347
:10221000298185599F4FFC0120830F90DF91CF9139
:1022200008958D559F4FFC017183608308958256F8
:102230009F4FFC016083089584569F4FFC0171837A
:10224000608308958A589F4FFC01718360830895CD
:1022500088589F4FFC0171836083089580599F4F78
:10226000FC014083518362837383089584599F4F97
:10227000FC0140835183628373830895FC01E65817
:10228000FF4F20812223F9F0739720812223D9F078
:10229000319720812223B9F0FC01248D222399F06B
:1022A00023AD222381F0E859FF4F2081222359F0EA
:1022B00031962081222339F031962081222319F092
:1022C00031968081089580E00895FC0185A50895E8
:1022D0001F93CF93DF93EC01162F6AA90E944D1034
:1022E0001DA7DF91CF911F9108958C589F4FFC013E
:1022F00071836083089586589F4FFC016083089521
:102300008B559F4FFC018081918108958B559F4F84
:10231000FC0171836083089589559F4FFC016081A2
:10232000718182819381089589559F4FFC0140837B
:10233000518362837383089585559F4FFC016081AB
:10234000718182819381089585559F4FFC0140835F
:10235000518362837383089581559F4FFC0160818F
:10236000718182819381089581559F4FFC01408343
:1023700051836283738308958D549F4FFC01608164
:1023800071818281938108958D549F4FFC01408318
:10239000518362837383089589549F4FFC01608148
:1023A000718182819381089585549F4FFC016081E2
:1023B000718182819381089581549F4FFC016081D6
:1023C00071818281938108958D539F4FFC0180819B
:1023D00008958D539F4FFC016083089581E08093A1
:1023E000C40B8091C20B9091C30B01969093C30BC9
:1023F0008093C20B8091C20B9091C30B64E170E09B
:102400000E9499439093C30B8093C20B08958FE071
:1024100096E00C944C1E8FE096E00C94881E80EFA2
:102420009AE00E94710D80EF9AE00E948C11AB013E
:10243000BC0126E080E09DE00E94CE356EED74E0A8
:1024400080E09DE00E94803989E096E00E94FF1ABA
:1024500063EC74E080E09DE00E943E3980EF9AE0FA
:102460000E949C11AB01BC012AE030E080E09DE0BD
:102470000E944F3A80EF9AE00E94E411882361F0B5
:1024800063EA74E080E09DE00E94803927E040EC40
:1024900052E160E070E019C067E874E080E09DE020
:1024A0000E943E3980EF9AE00E94AC11AB01BC0162
:1024B0002AE030E080E09DE00E944F3A80EF9AE011
:1024C0000E94AC11AB01BC0126E08AE39EE00E94B1
:1024D000CE356BE674E080E09DE00E943E3980EFEF
:1024E0009AE00E94BC11AB01BC012AE030E080E020
:1024F0009DE00E944F3A80EF9AE00E94BC11AB0130
:10250000BC0126E087ED9EE00E94CE3569E574E0CF
:1025100080E09DE00E94803968EE73E080E090E00A
:102520000E94E63D61E083E40E94E93E64E474E0D9
:1025300080E09DE00E94803964E670E080E090E0F9
:102540000E94E63D61E083E40E94223F6FE274E076
:1025500080E09DE00E94803963E174E080E09DE0CE
:102560000E943E3980EF9AE00E94CC11AB01BC0181
:102570002AE030E080E09DE00E944F3A80EF9AE050
:102580000E94CC11AB01BC018BEF95E00E94FA2AAE
:1025900064E670E080E090E00E94E63D63E074E075
:1025A00080E09DE00E94803960E080E30E94E93E87
:1025B00061E08EE20E94E93E6AED73E080E09DE01A
:1025C0000E943E3980EF9AE00E94D411AB01BC0119
:1025D0002AE030E080E09DE00E944F3A80EF9AE0F0
:1025E0000E94D411AB01BC018FEA9AE00E94C91B82
:1025F00083EA95E00E94AA086DEC73E080E09DE01C
:102600000E94803960E083E00E94E93E43E050E0B0
:1026100067E072E181E00E94623B60E082E00E943C
:10262000E93E43E050E06BE072E180E00E94623BF3
:102630006FEB73E080E09DE00E9480394EEE51E147
:1026400064E670E080E090E00E946A310E9476319A
:102650006EEA73E080E09DE00C9480396F927F9287
:102660008F929F92AF92BF92CF92DF92EF92FF92A2
:102670000F931F93CF93DF9300D01F921F92CDB77C
:10268000DEB7ADB6BEB66FE774E00E9496457C013A
:10269000009709F428C2FC0101900020E9F78F019E
:1026A00001501109081B190B0430110508F41BC255
:1026B000F701808198012450310969018DB69EB6D9
:1026C000833209F0ADC144E050E0B701CE0101967C
:1026D0000E94B3451D82380135E0631A71088DB739
:1026E0009EB78C199D090FB6F8949EBF0FBE8DBF83
:1026F0000DB71EB70F5F1F4FB7016B5F7F4FA30171
:10270000C8010E949A45F801E60DF71D108269E1A3
:1027100072E0CE0101960E94A345892BB1F4C80155
:102720000E94514561E0892B09F460E080EF9AE056
:102730000E940310C8010E945145019709F0CEC1C3
:102740008FE995E00E947A08C9C16EE172E0CE017E
:1027500001960E94A345892BB1F480EF9AE00E9474
:10276000E90D6B017C01C8010E944D459B01AC0144
:10277000C701B6010E94DF3FAB01BC0180EF9AE0C8
:102780000E943310ABC163E272E0CE0101960E9459
:10279000A345892B51F4C8010E944D45AB01BC01F2
:1027A00080EF9AE00E94171099C168E272E0CE01B2
:1027B00001960E94A345892B51F4C8010E944D4502
:1027C000AB01BC0180EF9AE00E941F1087C16DE24F
:1027D00072E0CE0101960E94A345892B61F4C801E5
:1027E0000E94514561E0892B09F460E080EF9AE096
:1027F0000E94681169C162E372E0CE0101960E94F5
:10280000A345892BC1F480EF9AE00E94090E6B0169
:102810007C01C8010E946F450E9447419B01AC01A9
:10282000C701B6010E94DF3FAB01BC0180EF9AE017
:102830000E94821049C167E372E0CE0101960E94B6
:10284000A345892B39F4F801608180EF9AE00E945A
:102850004D103AC16CE372E0CE0101960E94A3458F
:10286000892B61F4C8010E94514561E0892B09F46C
:1028700060E080EF9AE00E94171130C161E472E0DD
:10288000CE0101960E94A345892B49F4C8010E94FC
:102890005145BC0180EF9AE00E941C111FC166E403
:1028A00072E0CE0101960E94A345892B49F4C8012C
:1028B0000E945145BC0180EF9AE00E9411110EC1A7
:1028C0006BE472E0CE0101960E94A345892B49F486
:1028D000C8010E945145BC0180EF9AE00E94900F10
:1028E000FDC060E572E0CE0101960E94A345892BF0
:1028F00049F4C8010E945145BC0180EF9AE00E9452
:10290000A20FECC065E572E0CE0101960E94A345DE
:10291000892B49F4C8010E945145BC0180EF9AE01F
:102920000E94B40FDBC06AE572E0CE0101960E94FE
:10293000A345892B39F460E07DE080EF9AE00E94A6
:102940005B0CC2C06FE572E0CE0101960E94A34508
:10295000892B49F4C8010E945145BC0180EF9AE0DF
:102960000E948611BBC064E672E0CE0101960E940F
:10297000A345892B51F4C8010E946F45AB01BC01EE
:1029800080EF9AE00E949411A9C069E672E0CE013E
:1029900001960E94A345892B51F4C8010E946F45FE
:1029A000AB01BC0180EF9AE00E94A41197C06EE6D3
:1029B00072E0CE0101960E94A345892B51F4C80113
:1029C0000E946F45AB01BC0180EF9AE00E94B411F8
:1029D00085C063E772E0CE0101960E94A345892B72
:1029E00051F4C8010E946F45AB01BC0180EF9AE031
:1029F0000E94C41173C068E772E0CE0101960E9484
:102A0000A345892B09F060C0C8010E94514561E0CF
:102A1000892B09F460E080EF9AE00E94E9115EC022
:102A200043E050E0B701CE0101960E94B3451C82FD
:102A3000035011092DB73EB7201B310B0FB6F89488
:102A40003EBF0FBE2DBF0DB71EB70F5F1F4FB701A3
:102A50006C5F7F4FA601C8010E949A45F801EC0DFA
:102A6000FD1D10826DE772E0CE0101960E94A34524
:102A7000892B49F4C8010E944D45AB01BC0180EF90
:102A80009AE00E94D81061E872E0CE0101960E949F
:102A9000A345892B49F4C8010E944D45AB01BC01F7
:102AA00080EF9AE00E94DE1065E872E0CE010196A8
:102AB0000E94A345892B41F4C8010E945145BC01E5
:102AC00080EF9AE00E9428110FB6F8949EBE0FBEC8
:102AD0008DBE6FE774E080E090E0D7CD80EF9AE0A4
:102AE0000E94420DF1CF0FB6F894BEBE0FBEADBE30
:102AF0000F900F900F900F900F90DF91CF911F913B
:102B00000F91FF90EF90DF90CF90BF90AF909F908C
:102B10008F907F906F900895CF93DF93DC01FC013D
:102B200001900020E9F7E81BF90B3297EC012196A0
:102B300080E09E012A1B3B0B2E173F0718F499914A
:102B40008927F7CFDF91CF9108951F93CF93DF931C
:102B5000C1E2D5E014E680E09DE00E946234892B5A
:102B600061F180E09DE00E947D3420911F0530914D
:102B70002005F901EF5DFA4F80832F5F3F4F3093BF
:102B8000200520931F058A3029F08D3019F0233657
:102B900031050CF3F901EF5DFA4F10826CE281E22E
:102BA00095E00E942E131092200510921F05FE0141
:102BB000812F11928A95E9F7CECFDF91CF911F91A6
:102BC00008958DE99DE00E946234892BF9F08DE92A
:102BD0009DE00E947D34682F89E096E00E944719AD
:102BE00080931E05882369F386E499E00E940626F7
:102BF000BC018FEA9AE00E94DA1B86E499E00E9409
:102C00000626BC0180E09DE00C94923908958AE389
:102C10009EE00E946234892B79F180EF9AE00E9455
:102C2000E411882351F08AE39EE00E947D34682FEE
:102C300085E895E00E94FB1CEACF8AE39EE00E94B3
:102C40007D34682F8EEA97E00E94401B80931D051B
:102C50008823E9F28EEA97E00E94A91BBC018FEA63
:102C60009AE00E94DA1B8EEA97E00E94A91BBC0141
:102C700080E09DE00C949239089587ED9EE00E94DB
:102C80006234892BF9F087ED9EE00E947D34682F35
:102C900082EE96E00E94401B80931C05882369F316
:102CA00082EE96E00E94A91BBC018FEA9AE00E9486
:102CB000DA1B82EE96E00E94A91BBC0180E09DE039
:102CC0000C94923908958BEF95E00E94472A892B46
:102CD000F9F08BEF95E00E94422A682F86E196E09A
:102CE0000E94401B80931B05882369F386E196E0D0
:102CF0000E94A91BBC018FEA9AE00E94DA1B86E1C0
:102D000096E00E94A91BBC0180E09DE00C949239E2
:102D100008958091C40B882309F444C083EA95E0A8
:102D20000E94BF098091C20B9091C30B8091C20B8E
:102D30009091C30B65E070E00E949943892B71F478
:102D40008FE096E00E94E51E81E196E00E94C304B8
:102D500060E07DE080EF9AE00E94240E8091C20B3B
:102D60009091C30B6AE070E00E949943892BC1F4F3
:102D70008FE096E00E94EA1F8FEA9AE00E94DC1B37
:102D80008FE995E00E94760781E196E00E94200598
:102D900081E196E00E945A058FEA9AE00E94521C57
:102DA0001092C40B0C94631680EF9AE00E94E90A1B
:102DB0001092B20A1092B10A88EE93E0A0E0B0E05F
:102DC0008093B30A9093B40AA093B50AB093B60A5D
:102DD00087E992E09093B00A8093AF0A80EF9AE07F
:102DE0009093BC0A8093BB0A60E070E086E499E0AF
:102DF0000E947C2560E070E08AE798E00E94371B23
:102E000060E070E08EEA97E00E94371B60E070E0BF
:102E100082EE96E00E94371B60E070E086E196E06B
:102E20000E94371B60EF7AE081E196E00E947B040C
:102E300060EF7AE08FE096E00E940C1D40EF5AE0D0
:102E400066E479E089E096E00E94611741E063E47E
:102E50008BEF95E00E94882960EF7AE083EA95E0A5
:102E60000E949A0860EF7AE08FE995E00E944E0791
:102E700040EF5AE06AE37EE085E895E00C94F31CAD
:102E80008FE995E00E94AE0583EA95E00E946F0904
:102E900089E096E00E94541781E196E00E946E045A
:102EA0008FEA9AE00C94B41B2FE832E0FC013183E6
:102EB000208308952FE832E0FC01318320830C94B5
:102EC0006B3DFC018FE892E09183808355834483BE
:102ED000738362830895CF92DF92EF92FF921F93E4
:102EE000CF93DF93162F60E0812F0E94E93E61E0CF
:102EF000812F0E94223FC0E0D4E080E1C82E87E20B
:102F0000D82EE12CF12C28E438EE41E050E060E0CE
:102F1000812F0E94583F16161706180619063CF412
:102F20006C157D058E059F0514F46B017C012197BE
:102F300051F76EE876E080E09DE00E943E392AE09D
:102F400030E0B701A60180E09DE00E944F3A8CE09E
:102F5000C816D104E104F104F4F184E1C816D104E7
:102F6000E104F104ECF18EE1C816D104E104F104AE
:102F7000E4F188E2C816D104E104F104DCF18CE349
:102F8000C816D104E104F104D4F180E5C816D104D7
:102F9000E104F104CCF186E9C816D104E104F1049E
:102FA000C4F18CE2C81681E0D806E104F104B4F162
:102FB00088E5C81682E0D806E104F104A4F180EBAC
:102FC000C81684E0D806E104F10494F560EB74E0DF
:102FD00080E090E030C060E072EC81E090E02BC0D7
:102FE00060E071EE80E090E026C060E076E980E08D
:102FF00090E021C060E870E780E090E01CC060E0F5
:103000007BE480E090E017C060E478E380E090E04B
:1030100012C060E875E280E090E00DC060EC72E103
:1030200080E090E008C060E679E080E090E003C0D6
:1030300060E070E0CB01DF91CF911F91FF90EF90A6
:10304000DF90CF900895CF92DF92EF92FF927C01B4
:103050006AE776E080E09DE00E943E3963E170E03F
:10306000C7010E946B176B017C0116161706180624
:1030700019068CF463E776E080E09DE00E943E391B
:103080002AE030E0B701A60180E09DE00E944F3ABF
:10309000B601C70110C06CE676E080E09DE00E94BA
:1030A0003E3967E576E080E09DE00E94803960EC83
:1030B00072E180E090E0FF90EF90DF90CF90089574
:1030C0004F925F926F927F928F929F92AF92BF9238
:1030D000CF92DF92EF92FF920F931F93CF93DF93E4
:1030E000CDB7DEB760970FB6F894DEBF0FBECDBF89
:1030F00069837A838B839C83CA01B90127013801D4
:10310000A60195010E94DE3F25E33AEF4EE85CE31D
:103110000E94B3426B017C010E9416436D877E873B
:103120008F87988BC701B6010E94A9406D837E836B
:103130008F83988725E33AEF4EE85CE369817A81D3
:103140008B819C810E94B3426B017C0125E33AEFA5
:103150004EE85CE3C301B2010E94B3422B013C0183
:10316000C701B6010E9416434B015C01C701B601BD
:103170000E94A94069837A838B839C83C301B20137
:103180000E94164369877A878B879C87C301B201A7
:103190000E94A9406B017C0129853A854B855C859D
:1031A00069817A818B819C810E94B3422B013C0111
:1031B000A7019601C501B4010E94B3422D813E8151
:1031C0004F8158850E94B3429B01AC01C301B201FB
:1031D0000E94DE3F9B01AC010E94B3422B013C01E7
:1031E0002D853E854F855889C701B6010E94B3429F
:1031F0009B01AC010E94B3429B01AC01C301B2012F
:103200000E94DF3F0E9420432B013C0129853A8523
:103210004B855C85C501B4010E94B3424B015C0142
:10322000A701960169817A818B819C810E94B342BA
:103230002D813E814F8158850E94B3429B01AC0194
:10324000C501B4010E94DF3F9B01AC01C301B20183
:103250000E94524026E73BE742EC5AE40E94B34208
:1032600060960FB6F894DEBF0FBECDBFDF91CF9151
:103270001F910F91FF90EF90DF90CF90BF90AF9094
:103280009F908F907F906F905F904F900895CF9315
:10329000DF93EC018A819B810E94A52661E0892B46
:1032A00009F460E08C819D810E94A6108C819D8133
:1032B0000E94ED0F882369F18A819B810E94DD25A0
:1032C000682F8C819D810E94CB108A819B810E94F6
:1032D000DD258134F1F460E070E08A819B810E94F9
:1032E0000826FC0182818235A1F060E070E08A81CD
:1032F0009B810E940826FC0183818D3451F060E09F
:1033000070E08A819B810E940826FC0184818334BD
:1033100031F48C819D81DF91CF910C94ED0F0E944F
:10332000B73DAB01BC018C819D810E94AB108A81AD
:103330009B810E940026AB01BC018C819D810E9473
:103340009E108A819B810E94E025AB01BC018C818B
:103350009D810E94B3108A819B810E94E625AB016A
:10336000BC018C819D810E94BB108C819D810E943B
:10337000710FAB01BC018A819B810E94EC25AB01DE
:10338000BC018C819D810E94C3108A819B810E9417
:10339000D725AB01BC018C819D810E94D010B9CF93
:1033A000DF92EF92FF920F931F93CF93DF93CDB7EE
:1033B000DEB7A8970FB6F894DEBF0FBECDBF8C0165
:1033C00061E476E080E09DE00E948039F80184812C
:1033D00095810E948011892B31F46AE276E080E0C9
:1033E0009DE00E948039F801848195810E948011BE
:1033F000019709F07FC063E176E080E09DE00E94E4
:10340000803965E076E08DE99DE00E9480396DEEBF
:1034100075E08DE99DE00E94803965ED75E08DE9EC
:103420009DE00E9480396DEB75E08DE99DE00E9482
:10343000803965EA75E08DE99DE00E9480396DE88C
:1034400075E08DE99DE00E94803965E775E08DE9C2
:103450009DE00E94803967E675E08DE99DE00E945D
:1034600080391AA219A285E794E098A38F8FCE0124
:1034700001967C019CA38BA38EE190E098A78FA37B
:10348000CE014F960E94C0216BE575E0CE014F96AC
:103490000E943E39F801848195810E949C11AB0104
:1034A000BC012AE030E0CE014F960E94FD3963E571
:1034B00075E0CE014F960E943E39C7010E948C15DF
:1034C000D82EFFE0F81728F060E3CE014F960E9457
:1034D000653940E150E06D2DCE014F960E946E3A65
:1034E000B7018DE99DE00E949239B70180E09DE02F
:1034F0000E949239F801848195810E94801102977F
:1035000009F055C06AE375E080E09DE00E948039D3
:1035100069E275E08DE99DE00E94803967EF74E013
:103520008DE99DE00E9480391AA219A285E794E0F6
:1035300098A38F8FCE0101967C019CA38BA38EE173
:1035400090E098A78FA3CE014F960E94C0216DEE08
:1035500074E0CE014F960E943E39F8018481958136
:103560000E949C11AB01BC012AE030E0CE014F96D5
:103570000E94FD3969E872E0CE014F960E946339DE
:10358000C7010E948C15182F803128F460E3CE010A
:103590004F960E94653940E150E0612FCE014F9671
:1035A0000E946E3AB7018DE99DE00E949239A8967B
:1035B0000FB6F894DEBF0FBECDBFDF91CF911F9144
:1035C0000F91FF90EF90DF9008951092C80B10922A
:1035D000C70B85E794E09093C60B8093C50B8FECE7
:1035E0009BE09093CA0B8093C90B88E290E0909384
:1035F000CE0B8093CD0B85EC9BE00C94C021CF9239
:10360000DF92EF92FF92CF93DF93EC010E94231899
:103610006B017C01AB01BC018C819D810E94A411D6
:103620008C819D810E94420D26E0B701A6018DE9A3
:103630009DE00E94CE35CE010E94D0198DE99DE01B
:103640000E94EF348DE99DE00E9430368C819D818F
:103650000E949C11AB01BC0126E08DE99DE0DF9149
:10366000CF91FF90EF90DF90CF900C94CE35FC017E
:10367000E853FF4F11821082329611821082089512
:10368000CF93DF93DC01A853BF4F4D915C9111970D
:10369000FC01E653FF4F4236510514F011821082AF
:1036A0006A3011F06D3011F411821082643261F4CD
:1036B00024E6EC0119922A95E9F7EC01688381E090
:1036C00090E08D939C933AC0208131812130310567
:1036D000E1F024F421153105C1F133C02230310568
:1036E00011F12330310569F5FC01E40FF51F60830A
:1036F0004E5F5F4F4D935C931182BC018C599F4F7D
:103700000E94AC4521E030E020C09A012F5F3F4F7E
:10371000EC01C40FD51F2D933C9368836A3299F452
:1037200082E090E00BC09A012F5F3F4F2D933C93B6
:10373000DC01A40FB51F6C9383E090E0918380833C
:1037400002C01182108220E030E0C901DF91CF91E8
:1037500008958C599F4F0895862F0E94923281E0E0
:1037600090E008950C94553327E934E0FC0131834F
:1037700020830C944E34CF93DF93EC0187E994E0DF
:10378000998388830E944E34CE01DF91CF910C94AF
:103790006B3D9A01AB01CA01B90196958795779562
:1037A00067957C5D8B409F4F0E94AD43CA01B90174
:1037B0000C9440320C949239EF92FF920F931F9326
:1037C000CF93DF93CDB7DEB72A970FB6F894DEBF5D
:1037D0000FBECDBF8C017C018EE0E80EF11C1C8277
:1037E0001B8285E794E09A838983FE82ED828EE1D5
:1037F00090E09A878987CE0101960E94C0216FEBE5
:1038000076E0CE0101960E943E39F80184859585C7
:103810000E94CC0F4AE050E0BC01CE0101960E940C
:10382000473A69EB76E0CE0101960E943E39F801F5
:10383000848595850E94D20FAB01BC0122E030E067
:10384000CE0101960E94603B63EB76E0CE010196CB
:103850000E943E39C7010E948C15005C1F4FF80181
:103860008083803128F460E3CE0101960E9465399F
:1038700040E150E0F8016081CE0101960E946E3A6D
:10388000B70180E09DE00E9492392A960FB6F89425
:10389000DEBF0FBECDBFDF91CF911F910F91FF9083
:1038A000EF900895AF92BF92CF92DF92EF92FF9286
:1038B0000F931F93CF93DF93CDB7DEB72A970FB641
:1038C000F894DEBF0FBECDBF8C01FC0184859585C9
:1038D0000E94840F20E030E0A9010E94A5408823C7
:1038E00009F470C05801FCE2AF0EB11C1C821B82AF
:1038F00085E794E09A838983BE82AD8284E190E07B
:103900009A878987CE0101960E94C0216BEA76E0F2
:10391000CE0101960E943E39F801848595850E946A
:103920007E0F6B017C01F801848595850E94840FD0
:103930009B01AC01C701B6010E94DE3FAB01BC0197
:1039400022E030E0CE0101960E94603B67EA76E01B
:10395000CE0101960E943E397801F0E4EF0EF11C91
:10396000F701108281E090E0F50101900020E9F775
:10397000EA19FB0932978E179F0750F4F801E80FF8
:10398000F91F24A5F7013081232720830196ECCF6E
:10399000F7018081803128F460E3CE0101960E9416
:1039A000653940E150E0F7016081CE0101960E9447
:1039B0006E3AB50180E09DE00E949239B501C801E0
:1039C0000E9492392A960FB6F894DEBF0FBECDBF83
:1039D000DF91CF911F910F91FF90EF90DF90CF90EB
:1039E000BF90AF900895FC01578B468B718F608F0D
:1039F000118210820895FC01A081B181A80FB91F26
:103A000012966C938081918143972CF480819181EF
:103A10000196918380830895CF93DF93EB01FC019E
:103A2000718360830E94C33D6093250C7093260CC4
:103A30008093270C9093280C4091250C5091260CD4
:103A40006091270C7091280C4093210C5093220C0C
:103A50006093230C7093240C10920D0C10920E0C9A
:103A600010920F0C1092100C81E08093080C1092B1
:103A7000FA0B1092FB0B8091F70B9091F80B20E062
:103A80003091F90B231760F4FC0134E0239FE00D23
:103A9000F11D112410821182128213822F5FF0CF48
:103AA000CE010E94C60F843691053CF063E670E0BB
:103AB000CE01DF91CF910C941C11DF91CF9108952D
:103AC000CF92DF92EF92FF920F931F93CF93CB0190
:103AD000BA0197FF09C090958095709561957F4FC9
:103AE0008F4F9F4FC0E001C0C1E0683621E07207F0
:103AF0008105910534F028E631E040E050E00E9475
:103B0000CF43653B71058105910534F0645B710914
:103B10008109910921E0C2276B3571058105910565
:103B200064F004EB10E020E030E068017901C61A8F
:103B3000D70AE80AF90AC701B601660F771FFB0129
:103B4000E554FC4F60817181CC2319F080E090E056
:103B50000CC0CB01A0E0B0E09C01AD016627772747
:103B6000CB01621B730B840B950BCF911F910F91AF
:103B7000FF90EF90DF90CF900895465A5F4F6F4FC0
:103B80007F4F0C94601D4F925F926F927F928F9245
:103B90009F92AF92BF92CF92DF92EF92FF920F93DC
:103BA0001F93CF93DF938C016090FA0BC091F70BBA
:103BB000D091F80B712CC12CD12C7601812C912C39
:103BC00054017614C1F0488159816A817B81C80112
:103BD0000E94BD1D860E971EA81EB91E49915991BF
:103BE00069917991C8010E94601DC60ED71EE81E1A
:103BF000F91E7394E6CF81149104A104B10429F451
:103C0000C114D104E104F104A1F1662D70E080E05B
:103C100090E00E9447412B013C01C501B4010E9484
:103C2000474120E830E040E857E30E94B342A30157
:103C300092010E94AC404B015C01C701B6010E9499
:103C4000474120E830E040E857E30E94B342A30137
:103C500092010E94AC40A50194010E94524021EEC5
:103C60003EE245E652E40E94B3420E941441CB0179
:103C700002C080E090E0DF91CF911F910F91FF9003
:103C8000EF90DF90CF90BF90AF909F908F907F90FC
:103C90006F905F904F9008950F931F930E94B73DD0
:103CA00000912D0C10912E0C20912F0C3091300C86
:103CB000601B710B820B930B6531710581059105BA
:103CC00020F18091250C9091260CA091270CB091A9
:103CD000280C8093210C9093220CA093230CB0937A
:103CE000240C0E94C33D6093250C7093260C809396
:103CF000270C9093280C0E94B73D60932D0C709375
:103D00002E0C80932F0C9093300C1F910F910895DF
:103D10000F931F930E94B73D0091290C10912A0C1C
:103D200020912B0C30912C0C601B710B820B930B90
:103D3000653171058105910508F444C08091150C29
:103D40009091160CA091170CB091180C8093110C47
:103D50009093120CA093130CB093140C0E94C33DCB
:103D60006093150C7093160C8093170C9093180C9D
:103D70008091210C9091220CA091230CB091240CE5
:103D800080931D0C90931E0CA0931F0CB093200CDD
:103D90008091250C9091260CA091270CB091280CB5
:103DA0008093190C90931A0CA0931B0CB0931C0CCD
:103DB0000E94B73D6093290C70932A0C80932B0CC2
:103DC00090932C0C1F910F9108954F925F926F92D8
:103DD0007F928F929F92AF92BF92CF92DF92EF929B
:103DE000FF920F931F93F89480901D0C90901E0CDF
:103DF000A0901F0CB090200C8091190C90911A0C7F
:103E0000A0911B0CB0911C0C4091110C5091120C04
:103E10006091130C7091140C0091150C1091160CFC
:103E20002091170C3091180C789488169906AA06E0
:103E3000BB0668F46C017D01C818D908EA08FB08C4
:103E4000E0E2CE16EEE4DE06E104F10418F467EADF
:103E500072E034C0401751076207730768F4280105
:103E60003901441A550A660A770AE0E24E16EEE472
:103E70005E066104710418F463EF72E01FC001155F
:103E8000110521053105C1F0411551056105710587
:103E900099F00097A105B10579F081149104A1046E
:103EA000B10451F084169506A606B70628F4081743
:103EB00019072A073B0738F46FE373E080E09DE0C1
:103EC0000E94923978C0C40CD51CE61CF71CF694ED
:103ED000E794D794C794C0920D0CD0920E0CE09248
:103EE0000F0CF092100C28013901440E551E661E6D
:103EF000771EA3019201281939094A095B09281B79
:103F0000390B4A0B5B0B56954795379527952093B0
:103F1000090C30930A0C40930B0C50930C0C211598
:103F200031054105510509F446C02C153D054E05E6
:103F30005F0508F040C0A8E6B1E00E94F443A70185
:103F400096010E94AD43283681E0380741055105AE
:103F500090F58091FB0B8F5F8093FB0B9091FA0B98
:103F60006091F90BE091F70BF091F80B9617B0F414
:103F700081E0890F8093FA0B84E0989FE00DF11D9A
:103F8000112420833183428353838091FB0B609102
:103F9000FA0B0E948D439093FB0B0DC00E948D4342
:103FA0009093FB0B84E0989FE00DF11D112420837A
:103FB0003183428353831F910F91FF90EF90DF90E5
:103FC000CF90BF90AF909F908F907F906F905F90B9
:103FD0004F9008954F925F926F927F928F929F922F
:103FE000AF92BF92CF92DF92EF92FF92CF93DF9387
:103FF000EC010E94B73DC0902D0CD0902E0CE090AB
:104000002F0CF090300C6C157D058E059F0550F43B
:104010000E94B73D60932D0C70932E0C80932F0C53
:104020009093300C0E94B73DC090290CD0902A0C80
:10403000E0902B0CF0902C0C6C157D058E059F05E7
:1040400050F40E94B73D6093290C70932A0C809322
:104050002B0C90932C0C0E94B73DAB01BC018881C6
:1040600099810E9436110E94B73DC0902D0CD090CE
:104070002E0CE0902F0CF090300C6C197D098E09FD
:104080009F09A880B980693B7B4081059105A0F01C
:1040900040E050E0BA01C501DF91CF91FF90EF9071
:1040A000DF90CF90BF90AF909F908F907F906F9058
:1040B0005F904F900C942E1120910D0C30910E0CAE
:1040C00040910F0C5091100C2115310541055105FF
:1040D00009F4B4C060E071EE85EF95E00E94AD4355
:1040E00069017A01233481E0380741055105F4F56F
:1040F000AAE0B0E00E94F4432B013C01C5010E94FC
:10410000DA0F4B015C01A3019201C301B2010E94CD
:104110007D4327E93FEF4FEF5FEF0E94CF43290137
:104120003A01A701960168E273EE83E090E00E94F5
:104130007D4324E630E040E050E00E94CF43420E51
:10414000531E641E751E24EE421A2FE2520A6108A5
:104150007108C301B2010E944741A50194010E9468
:10416000AC4020E030E040E251E460C02C3385E117
:1041700038074105510554F5C5010E94DA0F2B019E
:104180003C01A7019601C701B6010E947D432EEABA
:1041900038E040E050E00E94CF4349015A01ABE9CA
:1041A000BAE4A70196010E94F44324E630E040E01F
:1041B00050E00E94CF43820E931EA41EB51E26EA35
:1041C000820E25E2921EA11CB11C2AC0C5010E94CC
:1041D000DA0F2B013C01A7019601C701B6010E942D
:1041E0007D4322E134E040E050E00E94CF43A4E66A
:1041F000B0E00E94F4434B015C01A701960164EB1F
:1042000070E281E89FEF0E947D43860E971EA81EF4
:10421000B91E84E4880E8DEB981E8BE2A81EB11C9B
:10422000C501B4010E944741A30192010E94AC4024
:10423000AB01BC01888199810E942E1188819981EE
:104240000E94D20F6B017C01888199810E94E20F4C
:10425000BC01882777FD8095982F0E9447419B01DC
:10426000AC01C701B6010E94A842181654F4888117
:1042700099810E94D20F0E941441888199810E94E5
:104280007511CE010E94C31D8A5591097C01888158
:1042900099810E94C00FB701680F791F77FF02C094
:1042A00068597E4F88819981DF91CF91FF90EF907F
:1042B000DF90CF90BF90AF909F908F907F906F9046
:1042C0005F904F900C9422118CEF9BE09093F80B31
:1042D0008093F70B83E08093F90B1092FA0B109206
:1042E000FB0B089561E085E30E94223F61E085E3D6
:1042F0000E94E93E8CB580618CBD8CB580648CBD1C
:1043000061E084E30E94E93E61E083E30C94E93ECE
:10431000811103C08CB5806202C08CB58F7D8CBDCD
:1043200008959CB5937F982B9CBD08952CB5982F2C
:1043300093702C7F922B9CBD9DB582FB882780F9C2
:104340009E7F982B9DBD0895FC01A681B7819D019C
:104350002F5F3F4F8481958140855185840F951F44
:104360002817390750F4378326836C930680F7812A
:10437000E02D108281E090E0089580E090E00895C3
:10438000FC01A481B581B783A68380859185892BA3
:1043900009F01C92089508952F923F924F925F92D8
:1043A0006F927F928F929F92AF92BF92CF92DF9245
:1043B000EF92FF920F931F93CF93DF93CDB7DEB7AA
:1043C0002A970FB6F894DEBF0FBECDBF9A878987B4
:1043D000DC01D6968C91882309F4E5C00E94B73D94
:1043E00069837A838B839C83E985FA8580A191A177
:1043F00029813A81281B390B84A595A528173907EF
:104400000CF4D1C0028CF38DE02D80809180A280CD
:10441000B380A985BA855E96ED91FC915F97A50161
:10442000940160817181828193810E94DE3F2B0122
:104430003C01E985FA8520893189428953890E94A6
:10444000B342A985BA8594962D913D914D915C9189
:1044500097970E94DF3F6B017C01E985FA8564A391
:1044600075A386A397A312A903A934A825A8212F71
:10447000302F432D522D0E94A84218162CF4812F64
:10448000902FA32DB22D18C0A985BA859E968D9127
:104490009D910D90BC91A02D8D839E83AF83B88795
:1044A0009C01AD01C701B6010E94A54087FF0AC06B
:1044B0008D819E81AF81B885E985FA8584A395A316
:1044C000A6A3B7A3A985BA851C962D913D914D91C0
:1044D0005C911F97C301B2010E94B342E985FA853E
:1044E00024A135A146A157A10E94DF3F6B017C01A9
:1044F000A985BA8598962D913D914D915C919B9798
:10450000C501B4010E94DE3FE985FA852489358919
:10451000468957890E94B3429B01AC01C701B6018D
:104520000E94DE3F6B017C01212F302F432D522D45
:104530000E94A8421816DCF0A985BA859E961C91A7
:104540009E979F960C919F97D0963C90D097D1962E
:104550002C90212F302F432D522DB601C7010E94E0
:10456000A54087FD04C01C2D0D2D3E2C2F2CA985A8
:10457000BA855C96ED91FC915D97812F902FA32DCC
:10458000B22D80839183A283B383E985FA8580A6C7
:1045900091A6A2A6B3A689819A81AB81BC8180A392
:1045A00091A3A2A3B3A32A960FB6F894DEBF0FBEC1
:1045B000CDBFDF91CF911F910F91FF90EF90DF90D2
:1045C000CF90BF90AF909F908F907F906F905F90B3
:1045D0004F903F902F9008952F923F924F925F926D
:1045E0006F927F928F929F92AF92BF92CF92DF9203
:1045F000EF92FF920F931F93CF93DF9300D01F9200
:10460000CDB7DEB71C012A013B014801590120E06A
:1046100030E0A901C301B2010E94A54087FD7AC024
:1046200020E030E0A901C501B4010E94A54087FD4A
:1046300071C020E030E0A901C701B6010E94A54089
:1046400087FD68C0F1014082518262827382848258
:104650009582A682B782C086D186E286F38664A55B
:1046600075A5882777FD8095982F0E94474120E007
:1046700030E04AE754E40E94AC4069837A838B833C
:104680009C83F10144865586668677869B01AC0142
:10469000C501B4010E94B3424B015C01F101608B82
:1046A000718B828B938B29813A814B815C81C7010D
:1046B000B6010E94AC406B017C01F101648B758BEB
:1046C000868B978B808D918D019721F5A3019201A7
:1046D00060E070E0CB010E94DE3FF10164877587E6
:1046E00086879787A501940160E070E0CB010E9466
:1046F000DE3FF101608B718B828B938BA70196015A
:1047000060E070E0CB010E94DE3FF101648B758BAD
:10471000868B978B0F900F900F900F90DF91CF911A
:104720001F910F91FF90EF90DF90CF90BF90AF90CF
:104730009F908F907F906F905F904F903F902F90C1
:104740000895CF92DF92EF92FF920F931F93CF9332
:10475000DF93EC018B011616170694F5882777FD79
:104760008095982F0E9447416B017C016CA57DA527
:10477000882777FD8095982F0E9447419B01AC01C7
:10478000C701B6010E94AC406B017C019B01AC01EA
:10479000688979898A899B890E94B342688B798B61
:1047A0008A8B9B8BA70196016C897D898E899F8955
:1047B0000E94AC406C8B7D8B8E8B9F8B1DA70CA7B2
:1047C000DF91CF911F910F91FF90EF90DF90CF90ED
:1047D00008952F923F924F925F926F927F928F92A5
:1047E0009F92AF92BF92CF92DF92EF92FF920F9380
:1047F0001F93CF93DF93EC016A017B0148015901BC
:10480000A9019801C701B6010E94A84287FF4EC0C6
:10481000CEA6DFA6E8AAF9AA8AAA9BAAACAABDAA34
:104820008EA9882309F442C02C8C3D8CF101408074
:10483000518062807380A5019401C301B2010E947E
:10484000A842181634F4F10180829182A282B382C8
:104850000DC0A7019601C301B2010E94A54087FFC8
:1048600005C0F101C082D182E282F3828CA09DA0BA
:10487000AEA0BFA0CAA8DBA8ECA8FDA8A70196011E
:10488000C501B4010E94A842181664F0CEA4DFA4AA
:10489000E8A8F9A8A7019601C501B4010E94A540A6
:1048A00087FF04C0CCA2DDA2EEA2FFA2DF91CF91D0
:1048B0001F910F91FF90EF90DF90CF90BF90AF903E
:1048C0009F908F907F906F905F904F903F902F9030
:1048D00008958F929F92AF92BF92CF92DF92EF9204
:1048E000FF92CF93DF93EC01EC8DFD8DC080D180E2
:1048F000E280F380CCA2DDA2EEA2FFA2EA8DFB8DC6
:1049000080819181A281B38188A799A7AAA7BBA71B
:104910008AA89BA8ACA8BDA8A5019401C701B601AF
:104920000E94A842181664F08EA49FA4A8A8B9A853
:10493000A5019401C701B6010E94A54087FF04C0EC
:104940008CA29DA2AEA2BFA2DF91CF91FF90EF906B
:10495000DF90CF90BF90AF909F908F9008951F935E
:10496000CF93DF93EC0111E06130710509F010E0A5
:104970008EA991E08927181303C0CE010E946924F3
:104980001EABDF91CF911F9108950F931F93CF938B
:10499000DF93EC018B018EA9882361F1888D998DBD
:1049A0006817790739F12C853D854E855F8560E074
:1049B00070E0CB010E94DE3F6C877D878E879F87EA
:1049C000288939894A895B8960E070E0CB010E94BF
:1049D000DE3F688B798B8A8B9B8B2C893D894E8936
:1049E0005F8960E070E0CB010E94DE3F6C8B7D8BC5
:1049F0008E8B9F8B198F088FDF91CF911F910F9115
:104A000008952F923F924F925F926F927F928F9272
:104A10009F92AF92BF92CF92DF92EF92FF920F934D
:104A20001F93CF93DF93CDB7DEB728970FB6F894D7
:104A3000DEBF0FBECDBF4C017A8369831A013C8370
:104A40002B8327013801AD82BE82CF82D88600E059
:104A500010E02FE733E440E050E0BA010E94E92380
:104A600084E690E0F40195A784A76AA17BA1C40124
:104A70000E94C524CE8CDF8CE8A0F9A00D811E8198
:104A80002F813885B301A201C4010E94EC220E944B
:104A9000B73DF40144A455A4662457FC6094762CD9
:104AA000641975098609970960A371A382A393A36A
:104AB00016AA358E248E89819A81938F828F8B815D
:104AC0009C81978F868F28960FB6F894DEBF0FBE15
:104AD000CDBFDF91CF911F910F91FF90EF90DF90AD
:104AE000CF90BF90AF909F908F907F906F905F908E
:104AF0004F903F902F9008950F931F93CF93DF9384
:104B0000FC0171836083128213821482158286E510
:104B10008683178210861186128613861486158660
:104B200016861786108A118A128A138A148A158AA1
:104B3000168ADF01A754BF4F11961C921E92AE55E4
:104B4000BF4F11961C921E92149611961C921E92A3
:104B5000129611961C921E92129611961C921E92FB
:104B6000178AAC5AB1091D921C92EF0104E110E0C2
:104B70008FE090E00E942644FE01E15EFE4F9183AB
:104B800080838FE090E00E942644FE01E558FF4FAD
:104B900091838083FC011082015011092296011536
:104BA000110531F7DF91CF911F910F910895FC010D
:104BB00062817381848195810895FC0186810895C5
:104BC000FC0167817085818592850895FC0163856C
:104BD0007485858596850895CF92DF92EF92FF9236
:104BE0006A017B01FC012785308941895289C7010F
:104BF000B6010E94B342FF90EF90DF90CF900895EE
:104C0000FC0163897489858996890895479608957A
:104C1000660F771F680F791FFB01E558FF4F8081F2
:104C2000918108954F925F926F927F928F929F929F
:104C3000AF92BF92CF92DF92EF92FF920F931F93AA
:104C4000CF93DF93FB0110811D3241F031E020E072
:104C50001B3209F030E0832F922F02C081E090E0F8
:104C6000EB01C80FD91F00E03DEC432E3CEC532E66
:104C7000652C3DE3732E812C912C5401C12CD12C39
:104C80007601E991EE23E9F1EE32C9F1FF27E7FD64
:104C9000F095011113C0AAE0B0E0A70196010E94AF
:104CA000F4436B017C01CF01C097AA2797FDA09523
:104CB000BA2FC80ED91EEA1EFB1EE3CFBF016053F8
:104CC0007109882777FD8095982F0E9447419B01A5
:104CD000AC01C301B2010E94B3429B01AC01C5010A
:104CE000B4010E94DF3F4B015C0120E030E040E274
:104CF00051E4C301B2010E94AC402B013C0101E030
:104D0000C0CFC701B6010E9447419B01AC01C5015C
:104D1000B4010E94DF3F1D3239F49B01AC0160E019
:104D200070E0CB010E94DE3FDF91CF911F910F9188
:104D3000FF90EF90DF90CF90BF90AF909F908F90BB
:104D40007F906F905F904F9008958F929F92AF9257
:104D5000BF92CF92DF92EF92FF920F931F93CF9368
:104D6000DF93EC01AC01455A5E4FDA012D913C9185
:104D70001197FC01E15AFE4F243631056CF4A25A1A
:104D8000B1098D919C911197449734F4A655BF4F6A
:104D90008D919C910F9714F0118210826A3011F05E
:104DA0006D3011F4118210826432E1F4DE01A35AF5
:104DB000BE4F11961C921E92149611961C921E9232
:104DC000A85AB10911961C921E92A655BF4F1D926A
:104DD0001C92C554DF4F688381E090E0DA018D9327
:104DE0009C93E4C0808191818130910569F024F425
:104DF000009709F47AC272C28230910509F492C018
:104E0000039709F4D6C06AC2273031057CF4D90172
:104E1000A758BB4F8C91681309C0DE01A35ABE4F3F
:104E20008D919C91119701968D939C93C901019648
:104E3000DA018D939C932C0F3D1FD901A554BF4FD0
:104E40006C93CE0187549F4F8E010D591E4F6A32CD
:104E500049F1DE01AF59BE4FFC016C3209F040C090
:104E600020813181A9014F5F5F4F51834083C90188
:104E7000880F991F8C0F9D1FEC01C15EDE4F0990BA
:104E8000D881C02DF80180819181C80FD91F188267
:104E9000118210828D919C911197FCE28F278D9346
:104EA0009C931EC2DC012D913C911197A9014F5F8B
:104EB0005F4F4D935C93C901880F991F8C0F9D1F05
:104EC000EC01C15EDE4F0990D881C02DD8018D91D3
:104ED0009C911197C80FD91F18821D921C9263C014
:104EE00080819181880F991F8C0F9D1FEC01C15EFD
:104EF000DE4F0990D881C02DF801808191819C01FD
:104F00002F5F3F4F31832083C80FD91F68837727D6
:104F100067FD70958D919C911197682779276D9306
:104F20007C93DEC1C9010196DA018D939C932C0F0D
:104F30003D1FD901A554BF4F6C93DE01A754BF4F4D
:104F40008D919C91880F991F8C0F9D1FDC01A15E94
:104F5000BE4F0D911C919E012D593E4FD9018D914F
:104F60009C911197AC014F5F5F4F4D935C93080F7D
:104F7000191FD8016C93CF59DE4F48815981862F74
:104F8000992787FD9095613414F0C79701C0C097A9
:104F90009C01B4E0220F331FBA95E1F7CA01821BCE
:104FA000930B99838883808191810196918380837B
:104FB00097C1CE01820F931FDC01A554BF4F6C93A4
:104FC0002E5F3F4FDA012D933C93DC01A454BF4F79
:104FD0001C929E0127543F4FD9018D919C91880FBF
:104FE000991F8C0F9D1FDC01A15EBE4F8D919C917E
:104FF0006E01BDE9CB1ABEEFDB0AD6010D911C9103
:105000007801BFEFEB1AFB0AD601ED92FC92800FFC
:10501000911FDC016C93D9018D919C9111978C01AA
:105020000F5F1F4F0D931C93880F991F8C0F9D1FAF
:10503000815E9E4FDC018D919C91D6010D911C915A
:10504000800F911FDC011C9211821082FE01EF592A
:10505000FE4F80819181062F112707FD1095613445
:1050600024F0B8016753710903C0B8016053710996
:10507000861B970B91838083009709F031C168816B
:105080007981672B29F4FA0160817181CB010AC013
:10509000FE01E35AFE4F608171816630710509F0AF
:1050A00024C1F1CF019797FD0AC0FE01E80FF91F57
:1050B0008F0105541F4FD8011C91178BF3CFFB01B3
:1050C0003197CB0177FF02C080E090E0BF01681B01
:1050D000790BDA016D937C93FE01E954FF4F118245
:1050E000108240815181D9018D919C9148175907B7
:1050F00084F5D6011D921C9280819181D6014D913B
:105100005C91880F991F8C0F9D1FBC01615E7E4FC3
:10511000DB016D917C91640F751FDB016C918558EB
:105120009F4FDC018D919C91840F951FDC016623BC
:1051300049F06C93D6018D919C91119701968D93B6
:105140009C93DACF1C928081918101969183808318
:10515000C8CFFE01E35AFE4F80819181069709F086
:10516000C2C0FC9760817181CE010E9412266A83C1
:105170007B838C839D83FE01ED5DFE4F0190F0816A
:10518000E02D80818E83FE01EB5DFE4F6081718199
:10519000CE010E94122620E030E048EC52E40E944A
:1051A000AC404B015C010E9482416B017C018E018D
:1051B0000B591E4FF80160837183828393839B0197
:1051C000AC01C501B4010E94DE3F20E030E048ECB4
:1051D00052E40E94B34220E030E040E752E40E94F3
:1051E000AC40A70196010E94DF3F9B01AC016F8399
:1051F000788789879A87FE01E95DFE4F0190F081EB
:10520000E02D8081833549F460E070E0CB010E949D
:10521000DE3F6F83788789879A87FE01E75DFE4FBF
:1052200060817181CE010E94122620E030E048ECBE
:1052300052E40E94AC404B015C010E9482416B0130
:105240007C01D8016D937D938D939C9313979B0163
:10525000AC01C501B4010E94DE3F20E030E048EC23
:1052600052E40E94B34220E030E040E752E40E9462
:10527000AC40A70196010E94DF3F9B01AC016B8708
:105280007C878D879E87FE01E55DFE4F0190F08152
:10529000E02D8081873549F460E070E0CB010E9409
:1052A000DE3F6B877C878D879E87FE01E35DFE4F27
:1052B00060817181CE010E9412266F87788B898B65
:1052C0009A8BFE01E15DFE4F60817181CE010E94EB
:1052D00012266B8B7C8B8D8B9E8B05C0118210826E
:1052E00080E090E002C081E090E0DF91CF911F91DB
:1052F0000F91FF90EF90DF90CF90BF90AF909F9075
:105300008F9008958EBD0DB407FEFDCF8EB5089524
:105310000F931F93FC011382128208EE13E020E02A
:1053200030E0048315832683378385E894E09183F6
:105330008083648745871F910F910895EF92FF92B4
:105340001F93CF93DF931F92CDB7DEB77C01162F4B
:1053500060E0FC01848549830E94223FF8E01F9FA2
:10536000B0011124F7018585880F862B0E948229C0
:105370004981842F0E94822962E070E080E090E001
:105380000E94E63D61E0F70184850F90DF91CF91A7
:105390001F91FF90EF900C94223F462F60E00E94F7
:1053A0009E2981E090E0089546E062E00C949E29F9
:1053B000CF92DF92EF92FF920F931F93CF93DF93E1
:1053C0001F921F92CDB7DEB78C01F22E60E0FC0178
:1053D000848549835A830E94223F4981E42EC42E4A
:1053E0005A81D52E8C2D8E198F1530F4F6018191AE
:1053F0006F010E948229F6CF62E070E080E090E0C9
:105400000E94E63D61E0F80184850F900F90DF91E6
:10541000CF911F910F91FF90EF90DF90CF900C9460
:10542000223F242FAB0160E00C94D8291F93CF9327
:10543000DF93EC01162F60E08C850E94223F62E032
:1054400070E080E090E00E94E63D88E0189FB001A7
:1054500011248D85880F862B80680E94822980E028
:105460000E948229182F62E070E080E090E00E94A4
:10547000E63D61E08C850E94223F812FDF91CF9134
:105480001F91089560E00E94162A90E0089569E057
:105490000E94162A90E0089569E00E94162A8FEF74
:1054A0009FEF08951F93CF93DF93EC01162F63E0D6
:1054B0000E94162A482F4C7F6BEF610F6370462BBA
:1054C00063E0CE01DF91CF911F910C949E298F92C2
:1054D0009F92AF92BF92CF92DF92EF92FF920F9383
:1054E0001F93CF93DF93EC016A017B0148015901BF
:1054F00064EF76E080E09DE00E9480390E94722196
:105500006AE070E080E090E00E94E63D81E00E9469
:10551000882181E00E94962180E00E94912168EE1E
:1055200076E080E09DE00E948039809106029091B3
:105530000702019779F448E06EE0CE010E949E29AF
:10554000109207021092060269ED76E080E09DE07D
:105550000E94803964E670E080E090E00E94E63DC1
:1055600040E863E0CE010E949E29C701B60123E016
:10557000660F771F881F991F2A95D1F7680D791D2F
:105580008A1D9B1DA7019601E4E0220F331F441FD3
:10559000551FEA95D1F70E94AD4369017A01422F68
:1055A00060E0CE010E949E294D2D552761E0CE017D
:1055B0000E949E2940E063E0CE010E949E2968E09F
:1055C000CE010E94522A47E062E0CE010E949E294D
:1055D00067EC76E080E09DE0DF91CF911F910F9125
:1055E000FF90EF90DF90CF90BF90AF909F908F9003
:1055F0000C9480390F931F9300E010E820E730E00F
:105600000E94672A1F910F910895FC016F77808196
:10561000918186279183808347E020813181C90170
:105620009695879520FF04C020EF822722E29227DB
:1056300091838083415089F70895EF92FF920F93F1
:105640001F93CF93DF937C018A01EB01060F171F95
:10565000C017D10729F06991C7010E94052BF8CF27
:10566000DF91CF911F910F91FF90EF900895CF930D
:10567000DF931F921F92CDB7DEB7AB012FEF3FE351
:105680003A832983BC01CE0101960E941D2B89819A
:105690009A8180952FE392270F900F90DF91CF9101
:1056A00008950F931F93CF93DF931F92CDB7DEB76B
:1056B0008C01FC017183608312822383148615861A
:1056C00016861786108A459649830E940B30F8018A
:1056D000178E10A249818FE9840F8A3108F4405255
:1056E0008FEB840F8A3120F080ED840F8A3010F424
:1056F000F801428344E650E060E070E0F801448342
:105700005583668377834FEF5FEFBA0140875187F8
:105710006287738711A20F90DF91CF911F910F9134
:10572000089508959F92AF92BF92CF92DF92EF9229
:10573000FF920F931F93CF93DF93CDB7DEB7A79759
:105740000FB6F894DEBF0FBECDBF6C017B01942E67
:105750005901DB0114964D915D916D917C911797E4
:10576000CE0180960E940431CE0180960E94DA30EC
:105770006894A4F8C8010E94B230882321F0C601C1
:105780000E940D306CC0CE0180960E94B2308823FA
:10579000A9F1CE0180960E94F830F70184858F5FD1
:1057A00087FD81E0D7011C968C93CE0101960E9463
:1057B0003A2EF7016281CE0101960E943E2E6A2D9B
:1057C000CE0101960E943E2ED7011C966C91CE010F
:1057D00001960E943E2E692DCE0101960E943E2E1A
:1057E000D701ED91FC91119763A174A123E230E000
:1057F00013964C91CE0101960E94162FF7018081DD
:1058000091810E94E42F882309F4B4CFD701ED9150
:10581000FC911197938113968C919813ABCF84814F
:10582000833409F0A7CF4081518145505109BF0110
:105830006A5F7F4FCE0101960E9483308981882361
:1058400009F498CF9C81F7018485981393CF8AE05F
:10585000FE013196D60101900D928A95E1F7C601BD
:10586000A7960FB6F894DEBF0FBECDBFDF91CF91E4
:105870001F910F91FF90EF90DF90CF90BF90AF906E
:105880009F9008959F92AF92BF92CF92DF92EF9236
:10589000FF920F931F93CF93DF93CDB7DEB76F9730
:1058A0000FB6F894DEBF0FBECDBF8C015B017A014D
:1058B000922EDC01ED91FC91C3A0D4A0CE01019603
:1058C0000E943A2EF8016281CE0101960E943E2E7E
:1058D000692DCE0101960E943E2E96FE07C0D8018A
:1058E0005F966C91CE0101960E943E2EF701428197
:1058F0005381B7016C5F7F4FCE0101960E944A2E03
:105900009501D80113964C91B601CE0101960E94E3
:10591000162F6F960FB6F894DEBF0FBECDBFDF9186
:10592000CF911F910F91FF90EF90DF90CF90BF909C
:10593000AF909F900895CF92DF92EF92FF920F93D6
:105940001F93CF93DF93CDB7DEB72A970FB6F894A6
:10595000DEBF0FBECDBF7C016A01FC0180A18111B9
:1059600023C08B0120E430E041E050E0B701CE01DC
:1059700001960E94922B8AE0FE013196D601019099
:105980000D928A95E1F7F601828180FF04C086813D
:10599000978197FD07C0F6018481F701878F81E029
:1059A00080A302C081E001C080E02A960FB6F8947F
:1059B000DEBF0FBECDBFDF91CF911F910F91FF9042
:1059C000EF90DF90CF900895DF92EF92FF920F93C8
:1059D0001F93CF93DF93CDB7DEB72A970FB6F89416
:1059E000DEBF0FBECDBF7C01D42EFC0123893489DC
:1059F000418952898B01BC01CE0101960E94922BF4
:105A00008AE0FE013196D701559601900D928A9554
:105A1000E1F7F701878980FF04C0838D948D97FD9E
:105A20000BC0F701818D978D891731F0811106C068
:105A300081E0D11004C002C081E001C080E02A965C
:105A40000FB6F894DEBF0FBECDBFDF91CF911F918F
:105A50000F91FF90EF90DF9008958F929F92AF92F9
:105A6000BF92CF92DF92EF92FF920F931F93CF934B
:105A7000DF93CDB7DEB72E970FB6F894DEBF0FBE1B
:105A8000CDBF7C016B015A014901FC01258536859A
:105A9000478550892F5F3F4F4F4F5F4F2587368790
:105AA0004787508BBC01CE0109960E94262FF70133
:105AB00081A1882339F09401A501B601C7010E9494
:105AC000422C30C0F7014085518562857385CE0137
:105AD00001960E940431A7014B5E5F4FBE016F5FCC
