:100000000C9469030C94923A0C94C33A0C94F43A0D
:100010000C94253B0C94563B0C94873B0C94B83BBA
:100020000C94E93B0C949A030C949A030C949A0355
:100030000C949A030C949A030C949A030C949630A3
:100040000C949A030C949A030C949A030C949A03BC
:100050000C949A030C949A030C949A030C942C3CE1
:100060000C949A030C940B350C9441350C949A0320
:100070000C949A030C949A030C949A030C949A038C
:100080000C949A030C949A030C949A030C949A037C
:100090000C94B8350C94EE350C949A030C949A0396
:1000A0000C949A030C949A030C949A030C949A035C
:1000B0000C949A030C949A030C9419320C94883182
:1000C0000C947B320C949A030C949A030C9465362E
:1000D0000C949B360C949A030C9412370C9448376A
:1000E0000C949A036C3A363A3E3A4A3A573A783A7E
:1000F000853A6D3D703D5F3D633D693DA73D743D73
:10010000783D7E3D823D863D8C3D903D943DA73DB2
:100110009A3D9E3DA23D084AD73B3BCE016E84BC32
:10012000BFFDC12F3D6C74319ABD56833DDA3D0051
:10013000C77F11BED9E4BB4C3E916BAAAABE00009A
:1001400000803F05A84CCDB2D44EB93836A9020C78
:1001500050B9918688083CA6AAAA2ABE0000008051
:100160003F000C9435340C9421160C946D3D0C9486
:1001700021330C946A1A0C940B290C94E1300C94E2
:1001800006290C9452140C94AE330C94A2030C94D4
:10019000783A0C947C370C949C030C9472370C9432
:1001A0007E3D0C948E140C9499080C9427160C9494
:1001B000BF370C94633D0C9426110C94BA140C9424
:1001C0003C330C94D0330C942A110C9475350C9458
:1001D0008C3D0C944A3A0C949A3D0C94E2040C9495
:1001E000743D0C94A1150C94641A0C9493280C94EF
:1001F000C5360C9485080C94823D0C945F3D0C949C
:10020000703D0C94943D0C94573A0C949D190C94A9
:1002100063200C94731A0C94F0300C9450330C94AB
:100220006C1A0C9422360C94693D0C94CF360C94C5
:10023000F0140C94CB300C94DC040C94783D0C94AA
:100240000D160C9401290C94A73D0C943E3A0C9485
:100250008C280C94903D0C940D110C949E3D0C94A4
:10026000363A0C94A23D0C942E330C94D0280C9466
:1002700018360C94853A0C946C3A0C94863D0C9488
:1002800023200C946B352C002C4C4C333A002C4C16
:1002900055333A002C4C4C323A002C4C55323A0033
:1002A0002C4C4C313A002C4C55313A002C53544BC9
:1002B0003A002C5342333A002C5342323A002C532A
:1002C00042313A002C5342303A002C4750533A0006
:1002D0002C575A4A3A005549443A4D4547412C411A
:1002E00050583A0021215645523A312E392C002CD3
:1002F000002C57534B3A002C5753583A002C41418D
:10030000443A002C4141453A002C41414E3A002CE0
:100310004141523A002C4141583A002C4150523A46
:10032000002C4150433A002C4150543A002C41508B
:10033000533A005549443A4D4547412C4150583AAB
:100340000021215645523A312E392C0043535F503B
:10035000494E204F5554505554203D204849474858
:100360000043535F50494E2073657420746F204FD3
:1003700055545055540024504D544B3235312C00B7
:1003800024504D544B3331342C302C312C302C3103
:100390002C312C312C302C302C302C302C302C307B
:1003A0002C302C302C302C302C302C302C302A326D
:1003B000380024504D544B3232302C313030302AFA
:1003C00031460053657474696E672047505320743A
:1003D0006F204D54454B5F33333239002C382C316C
:1003E0002C302A0024505352463130302C312C000E
:1003F00024505352463130352C302A334600245095
:100400005352463130332C30342C30302C30312C98
:1004100030312A32310024505352463130332C309F
:10042000332C30302C32302C30312A3235002450ED
:100430005352463130332C30322C30302C30352C66
:1004400030312A32330024505352463130332C306D
:10045000302C30302C30352C30312A3231002450C1
:100460005352463130332C30312C30302C30302C3C
:1004700030312A32350024505352463130332C303B
:10048000352C30302C30302C30312A323100245091
:100490005352463130352C312A334500536574743C
:1004A000696E672047505320746F20454D5F34308C
:1004B00036410053657474696E6720475053207449
:1004C0006F2047454E455249430053657474696E29
:1004D000672047505320636F6E6669672E2E2E008B
:1004E0004641494C4544004F4B2061742000202078
:1004F00020747279206175746F62617564202E2E8C
:1005000020002C542A002448434844542C002C4EEC
:100510002C412A002E302C522C002457494D57567E
:100520002C0053504920696E697420636F6D706CA4
:1005300065746500535049205541525420726573CB
:100540006574005350492073746172746564004D82
:10055000756C746953657269616C3A3A6265676972
:100560006E0000000A0B02090C0D0E0807030401BF
:10057000000000000000000000000000000000007B
:100580000000000000000000000000000000121148
:10059000100000000000000000000000000000004B
:1005A00000000000000000000102102020080810D8
:1005B00020401020408002010201080402010102D3
:1005C00004081020408080402010080402018004AC
:1005D0000201804020100804020108040201010207
:1005E0000408102040800102040810204080050506
:1005F0000505070508080808020202020A0A080899
:1006000004040404010101010101010103030303C6
:1006100003030303040707070C0C0C0C0C0C0C0C55
:100620000202020206060606060606060B0B0B0B66
:100630000B0B0B0B000020002300260029002C00D0
:100640002F00320000010000030106010901000033
:100650002200250028002B002E003100340002016A
:100660000000050108010B01000021002400270003
:100670002A002D00300033000101000004010701B1
:100680000A014E414E494E495459494E46CDCCCCB3
:100690003D0AD7233C17B7D13877CC2B329595E656
:1006A000241FB14F0A000020410000C84200401C36
:1006B0004620BCBE4CCA1B0E5AAEC59D74008508B0
:1006C000A1159D19232075352236CF367C37990820
:1006D0000D1611241FBECFEFD1E2DEBFCDBF00E06B
:1006E0000CBF13E0A0E0B2E0E4E5FDE800E00BBFE2
:1006F00002C007900D92A23BB107D9F72EE0A2EB02
:10070000B3E001C01D92A138B207E1F716E0CEECCC
:10071000D6E000E006C022970109FE010BBF0E944F
:10072000E742CE3BD10780E00807A9F70E941B3CB7
:100730000C9498460C9400002FE032E0FC013183C9
:10074000208308952FE032E0FC01318320830C9454
:100750002A3CFC01CB012FE032E0318320837383FC
:100760006283148240E050E0BA010E94160F61E0FB
:1007700088E10E94A83D61E08AE10E94A83D61E015
:100780008CE10E94A83D61E08EE10E94A83D60E0FE
:1007900082E40C94A83DCF92DF92EF92FF92CF9328
:1007A000DF93EC018A819B810E945D10882389F090
:1007B0008A819B810E94DA0C6B017C010E94763C4D
:1007C00021E0C616D706E806F90608F020E0822FD9
:1007D00001C080E0DF91CF91FF90EF90DF90CF904C
:1007E0000895CF92DF92EF92FF92CF93DF93EC01C7
:1007F0000E94CB038823A9F10E94763C6B017C0107
:100800008A819B810E94D40CC61AD70AE80AF90A89
:1008100089EEC81683E0D806E104F104C0F16C81CA
:1008200088E10E94E13D6C818AE10E94E13D6C819A
:100830008CE10E94E13D6C818EE10E94E13D8C8162
:1008400091E089278C830E94763CAB01BC018A81B0
:100850009B81DF91CF91FF90EF90DF90CF900C9430
:10086000160F60E088E10E94E13D60E08AE10E94AD
:10087000E13D60E08CE10E94E13D60E08EE1DF91CE
:10088000CF91FF90EF90DF90CF900C94E13DDF91FE
:10089000CF91FF90EF90DF90CF900895CF92DF92AD
:1008A000EF92FF92CF93DF93EC018A819B810E94AC
:1008B000110F882311F18A819B810E94E50E181681
:1008C0001906DCF48A819B810E94F10E6B017C0188
:1008D0008A819B810E94E50EBC01882777FD809567
:1008E000982F0E942F409B01AC01C701B6010E94C6
:1008F0009041181614F461E001C060E08A819B8188
:10090000DF91CF91FF90EF90DF90CF900C949A10F1
:100910000F931F93CF93DF93EC0180E40E942F3D50
:100920008C018A819B810E94B50E081719074CF033
:100930008A819B810E94A90E8017910714F060E0C4
:1009400001C061E08A819B810E94031081E40E94C2
:100950002F3D8C018A819B810E94C70E08171907C1
:100960003CF08A819B810E94BB0E8017910714F492
:1009700061E001C060E08A819B810E94121082E4E4
:100980000E942F3D8C018A819B810E94D90E0817FD
:1009900019073CF08A819B810E94CD0E8017910738
:1009A00014F461E001C060E08A819B81DF91CF9106
:1009B0001F910F910C94211027E132E0FC0131834B
:1009C0002083089527E132E0FC01318320830C94D9
:1009D0002A3C2F923F924F925F926F927F928F921A
:1009E0009F92AF92BF92CF92DF92EF92FF920F93BE
:1009F0001F93CF93DF93CDB7DEB728970FB6F89448
:100A0000DEBF0FBECDBF1C016A017B0109831A83C3
:100A10002B833C83FC01828193810E94100D9B01FA
:100A2000AC01C701B6010E94C73E2B013C01F10198
:100A3000828193810E94100D9B01AC01C701B60118
:100A40000E94C63E4B015C01F101828193810E94AC
:100A5000100D9B01AC0169817A818B819C810E9480
:100A6000C73E6B017C01F101828193810E94100DD0
:100A70009B01AC0169817A818B819C810E94C63E79
:100A800069837A838B839C83F101828193810E94A5
:100A9000160D6D837E838F83988724E83AEB4CE3B1
:100AA00058E3C301B2010E94C63E2D813E814F81B1
:100AB00058850E94904118166CF4F101828193814F
:100AC0000E94020D9B01AC01C301B2010E948D3F47
:100AD00087FD8CC0F101828193810E94020D2B0160
:100AE0003C0124E83AEB4CE358E3C501B4010E9411
:100AF000C73EA30192010E948D3F87FF0EC0F10106
:100B0000828193810E94160D9B01AC01C501B40145
:100B10000E94904118160CF471C0F10182819381FA
:100B20000E941C0D4B015C0124E83AEB4CE358E3B6
:100B3000C701B6010E94C63EA50194010E949041E2
:100B400018166CF4F101828193810E94E60C9B01DE
:100B5000AC01C701B6010E948D3F87FD57C0F1016E
:100B6000828193810E94E60C6B017C0124E83AEBC0
:100B70004CE358E369817A818B819C810E94C73E56
:100B8000A70196010E948D3F87FF48C0F101828135
:100B900093810E941C0D9B01AC0169817A818B813C
:100BA0009C810E9490411816CCF549815A816B8135
:100BB0007C81F1018281938128960FB6F894DEBF83
:100BC0000FBECDBFDF91CF911F910F91FF90EF909E
:100BD000DF90CF90BF90AF909F908F907F906F905D
:100BE0005F904F903F902F900C94660FB301A2013D
:100BF000F101828193810E944C0F6CCFB501A40159
:100C0000F101828193810E94600F87CFB701A60115
:100C1000F101828193810E94300FA1CF28960FB6F7
:100C2000F894DEBF0FBECDBFDF91CF911F910F9122
:100C3000FF90EF90DF90CF90BF90AF909F908F90FC
:100C40007F906F905F904F903F902F9008958F927C
:100C50009F92AF92BF92CF92DF92EF92FF920F934B
:100C60001F93CF93DF93EC016A017B014801590187
:100C700040E050E064EB72E48A819B810E944C0F5B
:100C800040E050E064EB72EC8A819B810E94600F2F
:100C900040E050E064E373E48A819B810E94300F5E
:100CA00040E050E064E373EC8A819B810E94660F10
:100CB0008A819B810E94080D2DE93BEF46E157E3B5
:100CC0000E949B41AB01BC018A819B810E945A0F0B
:100CD00095018401B701A601CE010E94E904DF91CC
:100CE000CF911F910F91FF90EF90DF90CF90BF9029
:100CF000AF909F908F900895CF92DF92EF92FF92E6
:100D00000F931F93CF93DF93EC018B0187E192E068
:100D1000998388837B836A83CB010E94F40C6B01E7
:100D20007C01C8010E94EC0CAB01BC01970186015B
:100D3000CE010E942706DF91CF911F910F91FF9066
:100D4000EF90DF90CF9008954F925F926F927F92D5
:100D50008F929F92AF92BF92CF92DF92EF92FF92CB
:100D60000F931F93CF93DF9300D01F92CDB7DEB7C1
:100D70004C01FC01828193810E94070F882309F4B2
:100D8000D2C00E94763C2B013C01F4018281938108
:100D90000E94780E461A570A680A790AF1EE4F1631
:100DA000F3E95F06F4E06F06710438F0F401828124
:100DB00093810E94070F81118DC0F401828193817C
:100DC0000E94980E882309F4AEC0F40182819381B9
:100DD0000E94880E5B016C01F401828193810E9464
:100DE000800E2B013C01F401828193810E94F40C5E
:100DF0009B01AC01F4018281938129833A834B8367
:100E00005C830E94EC0C8301720129813A814B8141
:100E10005C810E941817AB01BC01F40182819381AF
:100E20000E942A0FF401828193810E94E00C2B0121
:100E30003C01F401828193810E94FC0C9B01AC0176
:100E4000C301B2010E949041181664F4F40182813A
:100E500093810E94E00CAB01BC01F401828193817B
:100E60000E94460FF401828193810E94880E2B011B
:100E70003C01F401828193810E94800EAB01BC0190
:100E800093018201C4010E94E904F40182819381EB
:100E90000E94070F882369F1F401828193810E94E7
:100EA000E00C2B013C01F401828193810E94080D2A
:100EB0009B01AC01C301B2010E9490411816CCF411
:100EC00040E050E0BA01F401828193810E941C0F3E
:100ED00061E010C040E050E0BA01F40182819381EA
:100EE0000E941C0F61E0F401828193810E94270F10
:100EF00064CF60E0F401828193810F900F900F9096
:100F00000F90DF91CF911F910F91FF90EF90DF90A5
:100F1000CF90BF90AF909F908F907F906F905F9099
:100F20004F900C94270F0F900F900F900F90DF9120
:100F3000CF911F910F91FF90EF90DF90CF90BF90D6
:100F4000AF909F908F907F906F905F904F9008959B
:100F5000CF93DF93EC018A819B810E94800EAB01CD
:100F6000BC018A819B810E94360F8A819B810E94ED
:100F7000880EAB01BC018A819B810E943E0F40E03C
:100F800050E0BA018A819B81DF91CF910C94460F8A
:100F90000F931F93CF93DF93EC018B0181960E94F7
:100FA0008A2018A30F8FDF91CF911F910F91089581
:100FB0008F929F92AF92BF92CF92DF92EF92FF9269
:100FC0000F931F93CF93DF93CDB7DEB7E7970FB69D
:100FD000F894DEBF0FBECDBF4C01FC01168E158EFE
:100FE000148E138E878D90A10E94FB10AB01BC0163
:100FF0008BEF93E00E94B92964E670E080E090E016
:101000000E94A53CF401878D90A10E94280D20E04C
:1010100030E044E354E40E94C73E6B017C01F401DC
:101020006083718382839383878D90A10E94230EB6
:101030009B01AC01C701B6010E94C73EF401648365
:10104000758386839783878D90A10E94220DF4017A
:10105000608771878287938781E0808BA401485FD6
:101060005F4FB4016C5F7F4F1F928F938FE38F931D
:1010700085E08F938EE18F9388EB8F938AE0A82E83
:1010800087EDB82E83EAC82E8DE3D82E16E6E12E22
:10109000FE2C06EE1EE39401CE0101960E94C023B1
:1010A00087E3FE013196D401919601900D928A95C5
:1010B000E1F7F1E28F0E911C00E010E024E832E449
:1010C00040E050E0BA01C4010E94A82264E670E04A
:1010D000C4010E9460220F900F900F900F900F900C
:1010E0000F90E7960FB6F894DEBF0FBECDBFDF912D
:1010F000CF911F910F91FF90EF90DF90CF90BF9015
:10110000AF909F908F900895089540E063E48BEF37
:1011100093E00E9447286BEF73E086ED93E00E9416
:10112000942E20E841E366ED73E084EB93E00C94A9
:10113000102A84EB93E00C94502A0F931F93CF93C3
:10114000DF93EC018C010F5E1F4F8BEF93E00E9449
:101150000629892B21F18BEF93E00E9401292D8D27
:101160003E8DFE01E20FF31F818B2F5F3F4F3E8FBD
:101170002D8F8A3029F08D3019F0213331052CF371
:10118000FE01E20FF31F118AB8018EEE9BE00E9470
:1011900051381E8E1D8EF80111821082D6CFDF913C
:1011A000CF911F910F9108954F925F926F927F920E
:1011B000AF92BF92CF92DF92EF92FF920F931F9365
:1011C000CF93DF9300D000D0CDB7DEB75C01FC0138
:1011D000878D90A10E94841085010F5D1F4F882389
:1011E00009F4DEC0C5010E949D0861E070E0C801FD
:1011F0000E946E23F501878D90A10E94280D20E0AA
:1012000030E044E354E40E94C73E6B017C01F501E9
:101210006083718382839383878D90A10E94230EC4
:101220009B01AC01C701B6010E94C73EF501648372
:10123000758386839783C8010E948B20F5012485DE
:1012400035854685578560857185828593850E94A1
:10125000C63E6B017C0120E030E0A9010E94904174
:10126000181624F0F7FAF094F7F8F094F501878D4A
:1012700090A10E94640EBC01882777FD8095982F6D
:101280000E942F409B01AC01C701B6010E94904112
:1012900018160CF09EC0F5018089078D10A1C0843E
:1012A000D184E284F3844484558466847784A301E2
:1012B0009201882309F1C701B6010E9490411816D6
:1012C0000CF1A3019201C701B6010E948D3F87FF77
:1012D0003FC0F501108AC8010E946A0EBC01882730
:1012E00077FD8095982F0E942F409B01AC01C7018C
:1012F000B6010E94C63E27C0C701B6010E948D3FBD
:1013000087FF06C0F501C486D586E686F78620C02D
:10131000A3019201C701B6010E9490411816C4F4BE
:1013200081E0F501808BC8010E946A0EBC0188270C
:1013300077FD8095982F0E942F409B01AC01C7013B
:10134000B6010E94C73EF501648775878687978737
:10135000F5014485558566857785878D90A10E9426
:101360009B0FF501878D90A10E94700E2B013C010F
:1013700020E030E048EC52E4F5016485758586850F
:1013800097850E949B410E94FC3FAB01BC01E12C70
:10139000F12C9301820184EB93E00E94CF2C19C0C1
:1013A00060E070E0C80126960FB6F894DEBF0FBE6D
:1013B000CDBFDF91CF911F910F91FF90EF90DF9004
:1013C000CF90BF90AF907F906F905F904F900C94B4
:1013D0006E2326960FB6F894DEBF0FBECDBFDF9109
:1013E000CF911F910F91FF90EF90DF90CF90BF9022
:1013F000AF907F906F905F904F9008950F931F93E1
:10140000FC011082118212821382148215821682CC
:101410001782108A118A128A138A148A158A168AE8
:10142000178A108E118E128E138E148E40E050E0AB
:1014300064EB72E4458F568F678F70A340E050E0F5
:1014400064EB72EC41A352A363A374A340E050E0A9
:1014500064E373E445A356A367A370A740E050E09C
:1014600064E373EC41A752A763A774A715A683E4AE
:1014700082AB13AA14AA15AA16AA40E050E064E0B1
:1014800072E447AB50AF61AF72AF13AE40E050E0D3
:1014900068EC72E444AF55AF66AF77AFDF01A05C94
:1014A000BF4F40E050E060E271E44D935D936D9377
:1014B0007C93139714964D935D936D937C93139740
:1014C000149640E850E060E070E04D935D936D93BA
:1014D0007C931397108611861286138614861586C0
:1014E0001686178614961C9211961D921D921D92B7
:1014F0001C92139714961D921D921D921C92139785
:10150000149686E58C9311961D921D921D921C9245
:10151000139714961D921D921D921C921397149668
:101520001D921D921D921C92139714961D921D924E
:101530001D921C92139714961C9211961C92119650
:101540001C9211961C92A55ABF4F21E034E01196CF
:101550003C932E9312968FEF9FEF11969C938E9350
:10156000AC55B1091C92A25ABF4F11963C932E93D1
:10157000129611969C938E93AF55B1091C92AF5958
:10158000BF4F11963C932E93129611969C938E9377
:10159000A256B1091D921D921D921C92139714968A
:1015A0001D921D921D921C921397149611961C92D7
:1015B0001E92129611961C921E92129611961C92D1
:1015C0001E9212961C9211961D921D921D921C92B3
:1015D000139714961D921D921D921C9213971496A8
:1015E00040E050E060E272E44D935D936D937C9334
:1015F000139714961C9211961C92119611961C9298
:101600001E92129611961C921E92169640E050E081
:1016100060E87FE34D935D936D937C9313971496ED
:101620001C92119640EE53E964E070E04D935D9397
:101630006D937C93139714961C9211961C9211969D
:1016400083E690E011969C938E9312961C921196CD
:1016500040E050E46CE176E44D935D936D937C93B0
:101660001397149611961C921E92129611961C9224
:101670001E92129640E056E960E070E04D935D9353
:101680006D937C931397149600EC12E120E030E008
:101690000D931D932D933C931397149640E855E2B8
:1016A00060E070E04D935D936D937C931397149677
:1016B0004D935D936D937C93139714964D935D9327
:1016C0006D937C93139714960D931D932D933C93D8
:1016D000139714964D935D936D937C931397149683
:1016E0001C92E053FF4F8DE090E0918380831F9127
:1016F0000F9108950F931F93CF93DF938C01EB010C
:1017000064EE72E0CE010E94FD3766ED72E0CE011C
:101710000E94FD3760ED72E0CE010E94FD37F801B6
:10172000ED55FF4F608171814AE050E0CE010E948B
:1017300006396AEC72E0CE010E94FD37F801EB55E4
:10174000FF4F608171814AE050E0CE010E9406396E
:1017500064EC72E0CE010E94FD37F801E955FF4FBD
:1017600040815181628173812AE030E0CE010E9484
:10177000BC386EEB72E0CE010E94FD37F801E555F2
:10178000FF4F40815181628173812AE030E0CE01B8
:101790000E94BC3868EB72E0CE010E94FD37F80170
:1017A000E155FF4F40815181628173812AE030E031
:1017B000CE010E94BC3862EB72E0CE010E94FD3780
:1017C000F801ED54FF4F40815181628173812AE01D
:1017D00030E0CE010E94BC386CEA72E0CE010E947B
:1017E000FD37F801ED53FF4F608170E04AE050E0B3
:1017F000CE010E94063966EA72E0CE010E94FD37F2
:10180000F801EC53FF4F608171814AE050E0CE0156
:101810000E94063960EA72E0CE010E94FD37F801AD
:10182000EA53FF4F608171814AE050E0CE010E948F
:1018300006396AE972E0CE010E94FD37F801E853EB
:10184000FF4F608171814AE050E0CE010E9406396D
:1018500064E972E0CE010E94FD37F801E653FF4FC4
:10186000608171814AE050E0CE010E9406396EE845
:1018700072E0CE010E94FD37F801E453FF4F608112
:1018800071814AE050E0CE010E94063968E872E0BA
:10189000CE010E94FD37F801E253FF4F6081718154
:1018A0004AE050E0CE010E94063966E872E0CE01BF
:1018B0000E943F3880E090E0DF91CF911F910F911F
:1018C00008950F931F93CF93DF93EC01FC01E05336
:1018D000FF4F408160E070E08CE29BE00E94C730E7
:1018E000FE01EF52FF4F408161E070E08CE29BE02F
:1018F0000E94C730C558DF4F64E070E049918B010A
:101900000F5F1F4F8CE29BE00E94C7300935110525
:1019100011F0B801F3CFDF91CF911F910F9108958E
:10192000EF92FF920F931F93CF93DF931F921F921B
:10193000CDB7DEB78C0160E070E08CE29BE00E94E6
:10194000C430898361E070E08CE29BE00E94C43087
:101950008A83F801E053FF4F29813A818081918188
:101960002817390719F0C8010E94610C05581F4F4C
:1019700064E070E07B018FEFE81AF80A8CE29BE0EC
:101980000E94C430F80181938F01F9E5EF16F1044C
:1019900011F0B701EFCF0F900F90DF91CF911F9112
:1019A0000F91FF90EF900895FC0160817181828119
:1019B00093810895FC0164817581868197810895E2
:1019C000FC0164897589868997890895FC0165A160
:1019D00076A187A190A5089585589F4FFC0160814D
:1019E000718182819381089581589F4FFC016081AC
:1019F0007181828193810895FC01608D718D828D4A
:101A0000938D0895FC01658D768D878D90A1089545
:101A10008D579F4FFC016081718182819381089570
:101A2000FC0160897189828993890895FC0161A113
:101A300072A183A194A10895FC0161A572A583A55B
:101A400094A50895FC0167A970AD81AD92AD08958C
:101A5000FC0163A974A985A996A90895FC0122A98E
:101A6000273559F4EA58FF4F60817181882777FD47
:101A70008095982F0E942F400895FC016085718504
:101A8000828593850895EF92FF920F931F93CF93D2
:101A9000DF938C01EB0161E473E0CE010E94FD371E
:101AA00063E373E0CE010E94FD37F80165A570E0A5
:101AB0004AE050E0CE010E9406396DE273E0CE01AB
:101AC0000E94FD37F80162A9CE010E942438F80176
:101AD00085A58823A9F167E273E0CE010E94FD3756
:101AE000F80143A954A965A976A922E030E0CE0106
:101AF0000E941F3A61E273E0CE010E94FD37C801E7
:101B00000E942E0DAB01BC0122E030E0CE010E940C
:101B10001F3A6BE173E0CE010E94FD3720E030E018
:101B200044E052E4F80167A970AD81AD92AD0E9426
:101B3000C63EAB01BC0122E030E0CE010E941F3A5C
:101B400065E173E0CE010E94FD377801F7E8EF0E02
:101B5000F11CF701608170E04AE050E0CE010E9484
:101B600006396FE073E0CE010E94FD37F801ED57B2
:101B7000FF4F408151816281738122E030E0CE01CC
:101B80000E941F3AF7018081882389F169E073E0A0
:101B9000CE010E94FD37F801E558FF4F4081518189
:101BA0006281738122E030E0CE010E941F3A63E03F
:101BB00073E0CE010E94FD37F801E158FF4F4081EC
:101BC00051816281738122E030E0CE010E941F3A90
:101BD0006DEF72E0CE010E94FD37F801448955890E
:101BE0006689778922E030E0CE010E941F3A67EFD4
:101BF00072E0CE010E94FD37F801E256FF4F60818E
:101C000070E04AE050E0CE010E94063961EF72E0D8
:101C1000CE010E94FD37F801E456FF4F60817181CB
:101C20004AE050E0CE010E9406396FEE72E0CE012C
:101C30000E943F3880E090E0DF91CF911F910F919B
:101C4000FF90EF900895CF92DF92EF92FF92CF93A3
:101C5000DF93EC010E942E0D9B01AC016BA97CA9C6
:101C60008DA99EA90E94C63E6B017C0120E030E058
:101C700044E353E40E94904118167CF020E030E0E9
:101C800044E353ECC701B6010E948D3F87FF0AC0B1
:101C900020E030E044EB53E408C020E030E044EBC7
:101CA00053EC03C020E030E0A901C701B6010E9457
:101CB000C73E6EA77FA788AB99ABDF91CF91FF900E
:101CC000EF90DF90CF90089587579F4FFC01808160
:101CD0009181089585579F4FFC01808191810895DE
:101CE00083579F4FFC0160817181828193810895A8
:101CF000835B9F4FFC016081718182819381089594
:101D00008A5A9F4FFC01608171818281938108957D
:101D1000865A9F4FFC016081718182819381089571
:101D20008F569F4FFC01608171818281938108955C
:101D30008B5A9F4FFC0180810895FC01608571855D
:101D4000828593850895FC016485758586859785D0
:101D500008958C539F4FFC018081918108958C538D
:101D60009F4FFC017183608308958A539F4FFC014C
:101D700080819181089588539F4FFC0180819181DA
:101D8000089588539F4FFC017183608308958653A3
:101D90009F4FFC0180819181089584539F4FFC01E6
:101DA00080819181089584539F4FFC0171836083EA
:101DB000089582539F4FFC018081918108958D5534
:101DC0009F4FFC0180819181089584569F4FFC01B3
:101DD0008081918108958A589F4FFC018081918173
:101DE000089580599F4FFC016081718182819381A8
:101DF000089581569F4FFC0160817181828193819A
:101E000008958C589F4FFC018081918108958957D6
:101E10009F4FFC0180810895845B9F4FFC0180816E
:101E2000089582569F4FFC0180810895FC014083F4
:101E30005183628373830895FC01448355836683D1
:101E40007783089589579F4FFC0160830895FC01B3
:101E5000648F0895FC01448B558B668B778B0895B6
:101E6000FC0145A356A367A370A7089585589F4F0B
:101E7000FC014083518362837383089581589F4F8F
:101E8000FC0140835183628373830895FC01408F7A
:101E9000518F628F738F0895FC01458F568F678F26
:101EA00070A308958D579F4FFC0140835183628337
:101EB00073830895FC01408B518B628B738B089563
:101EC000FC0141A352A363A374A30895FC0141A79D
:101ED00052A763A774A70895CF93DF93EC016735EA
:101EE00011F0633429F56AAB673581F4FE01EA58D5
:101EF000FF4F60817181882777FD8095982F0E9420
:101F00002F406BAB7CAB8DAB9EAB0AC0633441F40E
:101F1000488559856A857B854BAB5CAB6DAB7EABE9
:101F200040E050E064E072E44FAB58AF69AF7AAF85
:101F3000DF91CF910895FC0147AB50AF61AF72AF15
:101F40000895CF93DF93EC01CB01BA010E94FC3FCF
:101F5000CB0188599E4F68E671E00E948142BC0126
:101F6000882777FD8095982F0E942F406BAB7CAB24
:101F70008DAB9EABDF91CF9108958E599F4FFC01A1
:101F800040835183628373830895845B9F4FFC0178
:101F900060830895835B9F4FFC014083518362837C
:101FA000738308958A5A9F4FFC0140835183628353
:101FB00073830895865A9F4FFC0140835183628347
:101FC00073830895825A9F4FFC014083518362833B
:101FD000738308958B5A9F4FFC01608308958F5A35
:101FE0009F4FFC0140835183628373830895FC01FA
:101FF00040875187628773870895FC01448755871E
:10200000668777870895CF93DF931F92CDB7DEB7AA
:102010006983298187599F4FFC0120830F90DF91AD
:10202000CF910895CF93DF931F92CDB7DEB7698329
:10203000298186599F4FFC0120830F90DF91CF911A
:102040000895CF93DF931F92CDB7DEB769832981BF
:1020500085599F4FFC0120830F90DF91CF91089508
:102060008D559F4FFC0171836083089582569F4F69
:10207000FC016083089584569F4FFC017183608347
:1020800008958A589F4FFC01718360830895885892
:102090009F4FFC0171836083089580599F4FFC011D
:1020A0004083518362837383089584599F4FFC0159
:1020B00040835183628373830895FC01E658FF4F88
:1020C00020812223F9F0739720812223D9F03197C0
:1020D00020812223B9F0FC01248D222399F023AD25
:1020E000222381F0E859FF4F2081222359F03196B5
:1020F0002081222339F031962081222319F0319654
:102100008081089580E00895FC0185A508951F93BE
:10211000CF93DF93EC01162F6AA90E946C0F1DA7C5
:10212000DF91CF911F9108958C589F4FFC017183CF
:102130006083089586589F4FFC01608308958B55F6
:102140009F4FFC018081918108958B559F4FFC0129
:1021500071836083089589559F4FFC01608171816F
:1021600082819381089589559F4FFC01408351835B
:1021700062837383089585559F4FFC01608171814F
:1021800082819381089585559F4FFC01408351833F
:1021900062837383089581559F4FFC016081718133
:1021A00082819381089581559F4FFC014083518323
:1021B0006283738308958D549F4FFC016081718108
:1021C0008281938108958D549F4FFC0140835183F8
:1021D00062837383089589549F4FFC0160817181EC
:1021E00082819381089585549F4FFC0160817181A4
:1021F00082819381089581549F4FFC016081718198
:102200008281938108958D539F4FFC0180810895B1
:102210008D539F4FFC016083089581E08093B20A43
:102220008091B00A9091B10A01969093B10A80937F
:10223000B00A8091B00A9091B10A64E170E00E9406
:1022400081429093B10A8093B00A08958DEF94E093
:102250000C940E1D8DEF94E00C944A1D62E086E014
:102260000E94A83D61E087E00E94A83D60E087E011
:102270000E94E13D8EED99E00E94900C8EED99E078
:102280000E94AB10AB01BC0126E08EEE9BE00E94E9
:102290008D3486E00E94173E8130910521F49093A1
:1022A0000702809306028EED99E00E9403118823B5
:1022B00031F027E040EC52E160E070E007C08EEDC5
:1022C00099E00E94CB10AB01BC0126E088E29DE0C2
:1022D0000E948D348EED99E00E94DB10AB01BC01B1
:1022E00026E085EC9DE00E948D3468EE73E080E08E
:1022F00090E00E94A53C61E083E40E94A83D61E675
:1023000073E08EEE9BE00E943F3864E670E080E070
:1023100090E00E94A53C61E083E40E94E13D6CE412
:1023200073E08EEE9BE00E943F388EED99E00E94B4
:10233000EB10AB01BC0189EE94E00E94B92964E680
:1023400070E080E090E00E94A53C60E080E30E94A5
:10235000A83D61E08EE20E94A83D8EED99E00E94CA
:10236000F310AB01BC018DE999E00E94811A81E96B
:1023700094E00E94D80760E083E00E94A83D43E01B
:1023800050E066E271E181E00E94213A60E082E083
:102390000E94A83D43E050E06AE271E180E00E94C3
:1023A000213A4DE051E164E670E080E090E00E9467
:1023B00029300C9435306F927F928F929F92AF921A
:1023C000BF92CF92DF92EF92FF920F931F93CF9322
:1023D000DF9300D01F921F92CDB7DEB7ADB6BEB669
:1023E0006DE673E00E947E447C01009709F428C2E8
:1023F000FC0101900020E9F78F0101501109081B31
:10240000190B0430110508F41BC2F70180819801F3
:102410002450310969018DB69EB6833209F0ADC1F1
:1024200044E050E0B701CE0101960E949B441D821A
:10243000380135E0631A71088DB79EB78C199D0974
:102440000FB6F8949EBF0FBE8DBF0DB71EB70F5FBE
:102450001F4FB7016B5F7F4FA301C8010E948244E9
:10246000F801E60DF71D10826BE172E0CE010196D6
:102470000E948B44892BB1F4C8010E94394461E069
:10248000892B09F460E08EED99E00E94220FC801CB
:102490000E943944019709F0CEC18DE894E00E9472
:1024A000A807C9C160E272E0CE0101960E948B4488
:1024B000892BB1F48EED99E00E94080D6B017C012F
:1024C000C8010E9435449B01AC01C701B6010E94BE
:1024D000C73EAB01BC018EED99E00E94520FABC12B
:1024E00065E272E0CE0101960E948B44892B51F483
:1024F000C8010E943544AB01BC018EED99E00E94F9
:10250000360F99C16AE272E0CE0101960E948B44B7
:10251000892B51F4C8010E943544AB01BC018EEDFA
:1025200099E00E943E0F87C16FE272E0CE010196F2
:102530000E948B44892B61F4C8010E94394461E0F8
:10254000892B09F460E08EED99E00E94871069C143
:1025500064E372E0CE0101960E948B44892BC1F4A2
:102560008EED99E00E94280D6B017C01C8010E944C
:1025700057440E942F409B01AC01C701B6010E9445
:10258000C73EAB01BC018EED99E00E94A10F49C18D
:1025900069E372E0CE0101960E948B44892B39F4E5
:1025A000F80160818EED99E00E946C0F3AC16EE3F4
:1025B00072E0CE0101960E948B44892B61F4C80120
:1025C0000E94394461E0892B09F460E08EED99E0C6
:1025D0000E94361030C163E472E0CE0101960E9481
:1025E0008B44892B49F4C8010E943944BC018EED0B
:1025F00099E00E943B101FC168E472E0CE01019691
:102600000E948B44892B49F4C8010E943944BC01C3
:102610008EED99E00E9430100EC16DE472E0CE01A3
:1026200001960E948B44892B49F4C8010E943944C9
:10263000BC018EED99E00E94AF0EFDC062E572E034
:10264000CE0101960E948B44892B49F4C8010E9457
:102650003944BC018EED99E00E94C10EECC067E5E3
:1026600072E0CE0101960E948B44892B49F4C80187
:102670000E943944BC018EED99E00E94D30EDBC06C
:102680006CE572E0CE0101960E948B44892B39F4EF
:102690006EEE7BE08EED99E00E947A0BC2C061E69F
:1026A00072E0CE0101960E948B44892B49F4C80147
:1026B0000E943944BC018EED99E00E94A510BBC078
:1026C00066E672E0CE0101960E948B44892B51F49C
:1026D000C8010E945744AB01BC018EED99E00E94F5
:1026E000B310A9C06BE672E0CE0101960E948B4444
:1026F000892B51F4C8010E945744AB01BC018EEDF7
:1027000099E00E94C31097C060E772E0CE01019685
:102710000E948B44892B51F4C8010E945744AB019D
:10272000BC018EED99E00E94D31085C065E772E090
:10273000CE0101960E948B44892B51F4C8010E945E
:102740005744AB01BC018EED99E00E94E31073C0C9
:102750006AE772E0CE0101960E948B44892B09F052
:1027600060C0C8010E94394461E0892B09F460E02F
:102770008EED99E00E9408115EC043E050E0B70181
:10278000CE0101960E949B441C82035011092DB773
:102790003EB7201B310B0FB6F8943EBF0FBE2DBFC6
:1027A0000DB71EB70F5F1F4FB7016C5F7F4FA601BC
:1027B000C8010E948244F801EC0DFD1D10826FE7F4
:1027C00072E0CE0101960E948B44892B49F4C80126
:1027D0000E943544AB01BC018EED99E00E94F70FD9
:1027E00063E872E0CE0101960E948B44892B49F484
:1027F000C8010E943544AB01BC018EED99E00E94F6
:10280000FD0F67E872E0CE0101960E948B44892B90
:1028100041F4C8010E943944BC018EED99E00E9448
:1028200047100FB6F8949EBE0FBE8DBE6DE673E0E6
:1028300080E090E0D7CD8EED99E00E94610CF1CF61
:102840000FB6F894BEBE0FBEADBE0F900F900F90A6
:102850000F900F90DF91CF911F910F91FF90EF900C
:10286000DF90CF90BF90AF909F908F907F906F90B0
:102870000895CF93DF93DC01FC0101900020E9F77C
:10288000E81BF90B3297EC01219680E09E012A1B90
:102890003B0B2E173F0718F499918927F7CFDF914B
:1028A000CF9108951F93CF93DF93CFE0D4E014E648
:1028B0008EEE9BE00E942133892B61F18EEE9BE02E
:1028C0000E943C3320910D0430910E04F901E15F28
:1028D000FB4F80832F5F3F4F30930E0420930D04F6
:1028E0008A3029F08D3019F0233631050CF3F901C7
:1028F000E15FFB4F10826CE28FE094E00E94DB11FD
:1029000010920E0410920D04FE01812F11928A95EF
:10291000E9F7CECFDF91CF911F9108958091060204
:1029200090910702892B29F58BE89CE00E942133C6
:10293000892BF9F08BE89CE00E943C33682F87EFED
:1029400094E00E94FF1780930C04882339F384E3FA
:1029500098E00E94C524BC018DE999E00E94921A7A
:1029600084E398E00E94C524BC018EEE9BE00C94A9
:102970005138089588E29DE00E942133892B79F136
:102980008EED99E00E940311882351F088E29DE0CA
:102990000E943C33682F83E794E00E94BD1BEACF7E
:1029A00088E29DE00E943C33682F8CE996E00E940B
:1029B000F81980930B048823E9F28CE996E00E94D1
:1029C000611ABC018DE999E00E94921A8CE996E0A7
:1029D0000E94611ABC018EEE9BE00C945138089560
:1029E00085EC9DE00E942133892BF9F085EC9DE078
:1029F0000E943C33682F80ED95E00E94F819809387
:102A00000A04882369F380ED95E00E94611ABC01F5
:102A10008DE999E00E94921A80ED95E00E94611A7A
:102A2000BC018EEE9BE00C945138089589EE94E041
:102A30000E940629892BF9F089EE94E00E94012971
:102A4000682F84E095E00E94F81980930904882398
:102A500069F384E095E00E94611ABC018DE999E078
:102A60000E94921A84E095E00E94611ABC018EEEE9
:102A70009BE00C94513808958091B20A882309F4A0
:102A800055C081E994E00E94D4088091B00A9091E9
:102A9000B10A8091B00A9091B10A65E070E00E949D
:102AA0008142892B71F48DEF94E00E94A71D8FEF76
:102AB00094E00E94F1036EEE7BE08EED99E00E94BF
:102AC000430D8091B00A9091B10A6AE070E00E94D3
:102AD0008142892B49F58DEF94E00E94A91E8DE972
:102AE00099E00E94941A8DE894E00E94A4068FEF6A
:102AF00094E00E944E048FEF94E00E9488048DE9D8
:102B000099E00E94141B80910602909107020197A0
:102B100059F463E170E087EF94E00E9438161616CE
:102B200017061806190624F01092B20A0C9416150E
:102B3000109207021092060287EF94E00E94B719E4
:102B4000F3CF8EED99E00E94FE091092A009109239
:102B50009F0988EE93E0A0E0B0E08093A1099093F4
:102B6000A209A093A309B093A40989E992E09093E4
:102B70009E0980939D098EED99E09093AA09809318
:102B8000A90960E070E084E398E00E943B2460E0E3
:102B900070E088E697E00E94EF1960E070E08CE951
:102BA00096E00E94EF1960E070E080ED95E00E94F1
:102BB000EF1960E070E084E095E00E94EF196EED9F
:102BC00079E08FEF94E00E94A9036EED79E08DEF3C
:102BD00094E00E94CE1B4EED59E064E378E087EF6D
:102BE00094E00E942E1641E063E489EE94E00E9496
:102BF00047286EED79E081E994E00E94C8076EED08
:102C000079E08DE894E00E947C064EED59E068E2A0
:102C10007DE083E794E00C94B51B8DE894E00E947E
:102C2000DC0481E994E00E94840887EF94E00E942C
:102C300021168FEF94E00E949C038DE999E00C949B
:102C40006C1A21E932E0FC0131832083089521E9E7
:102C500032E0FC01318320830C942A3CFC0181E9A1
:102C600092E09183808355834483738362830895C4
:102C7000CF92DF92EF92FF921F93CF93DF93162FA5
:102C800060E0812F0E94A83D61E0812F0E94E13D1C
:102C9000C5E0D0E080E1C82E87E2D82EE12CF12CEF
:102CA00028E438EE41E050E060E0812F0E94403E91
:102CB00016161706180619063CF46C157D058E05C8
:102CC0009F0514F46B017C01219751F7C701B601F0
:102CD000DF91CF911F91FF90EF90DF90CF900895FB
:102CE000CF92DF92EF92FF920F931F93CF93DF93D8
:102CF000EC016EEE74E08EEE9BE00E94FD3763E126
:102D000070E0CE010E9438166B017C0163E170E037
:102D1000CE010E943816C60ED71EE81EF91E63E1CA
:102D200070E0CE010E9438166C0D7D1D8E1D9F1D1A
:102D300023E030E040E050E00E94B7422C30310503
:102D40004105510594F124313105410551058CF1BE
:102D50002E313105410551057CF1283231054105FF
:102D600051056CF12C333105410551055CF12035DD
:102D70003105410551054CF1263931054105510513
:102D80003CF12C3281E038074105510524F128350A
:102D900082E03807410551050CF1203B34404105E4
:102DA00051059CF500EB14E01BC000E012ECD1E0F3
:102DB00018C000E011EE14C000E016E911C000E8F0
:102DC00010E70EC000E01BE40BC000E418E308C0ED
:102DD00000E815E205C000EC12E102C000E619E0CF
:102DE000D0E0C0E067EE74E08EEE9BE00E94FD371D
:102DF0002AE030E0A8016D2F7C2F8EEE9BE00E9430
:102E00000E39B8018D2F9C2F0AC060EE74E08EEE53
:102E10009BE00E94FD3760EC72E180E090E0DF9182
:102E2000CF911F910F91FF90EF90DF90CF90089579
:102E30004F925F926F927F928F929F92AF92BF92CA
:102E4000CF92DF92EF92FF920F931F93CF93DF9376
:102E5000CDB7DEB760970FB6F894DEBF0FBECDBF1B
:102E600069837A838B839C83CA01B9012701380166
:102E7000A60195010E94C63E25E33AEF4EE85CE3C9
:102E80000E949B416B017C010E94FE416D877E8701
:102E90008F87988BC701B6010E94913F6D837E8317
:102EA0008F83988725E33AEF4EE85CE369817A8166
:102EB0008B819C810E949B416B017C0125E33AEF51
:102EC0004EE85CE3C301B2010E949B412B013C012F
:102ED000C701B6010E94FE414B015C01C701B6016A
:102EE0000E94913F69837A838B839C83C301B201E3
:102EF0000E94FE4169877A878B879C87C301B20154
:102F00000E94913F6B017C0129853A854B855C8548
:102F100069817A818B819C810E949B412B013C01BC
:102F2000A7019601C501B4010E949B412D813E81FC
:102F30004F8158850E949B419B01AC01C301B201A6
:102F40000E94C63E9B01AC010E949B412B013C01AB
:102F50002D853E854F855889C701B6010E949B414A
:102F60009B01AC010E949B419B01AC01C301B201DA
:102F70000E94C73E0E9408422B013C0129853A85E8
:102F80004B855C85C501B4010E949B414B015C01EE
:102F9000A701960169817A818B819C810E949B4166
:102FA0002D813E814F8158850E949B419B01AC0140
:102FB000C501B4010E94C73E9B01AC01C301B2012F
:102FC0000E943A3F26E73BE742EC5AE40E949B41CD
:102FD00060960FB6F894DEBF0FBECDBFDF91CF91E4
:102FE0001F910F91FF90EF90DF90CF90BF90AF9027
:102FF0009F908F907F906F905F904F900895CF93A8
:10300000DF93EC018A819B810E94642561E0892B1A
:1030100009F460E08C819D810E94C50F8C819D81A7
:103020000E940C0F882369F18A819B810E949C2455
:10303000682F8C819D810E94EA0F8A819B810E946A
:103040009C248134F1F460E070E08A819B810E94CD
:10305000C724FC0182818235A1F060E070E08A81A2
:103060009B810E94C724FC0183818D3451F060E074
:1030700070E08A819B810E94C724FC018481833493
:1030800031F48C819D81DF91CF910C940C0F0E94C3
:10309000763CAB01BC018C819D810E94CA0F8A8164
:1030A0009B810E94BF24AB01BC018C819D810E9449
:1030B000BD0F8A819B810E949F24AB01BC018C8142
:1030C0009D810E94D20F8A819B810E94A524AB0121
:1030D000BC018C819D810E94DA0F8C819D810E94B0
:1030E000900EAB01BC018A819B810E94AB24AB0195
:1030F000BC018C819D810E94E20F8A819B810E948C
:103100009624AB01BC018C819D810E94EF0FB9CF49
:10311000DF92EF92FF920F931F93CF93DF93CDB780
:10312000DEB7A8970FB6F894DEBF0FBECDBF8C01F7
:103130006AEC74E08EEE9BE00E943F38F8018481D7
:1031400095810E949F10892B31F463EB74E08EEE21
:103150009BE00E943F38F801848195810E949F1076
:10316000019709F07FC06CE974E08EEE9BE00E944D
:103170003F386EE874E08BE89CE00E943F3866E7D9
:1031800074E08BE89CE00E943F386EE574E08BE8C9
:103190009CE00E943F3866E474E08BE89CE00E946B
:1031A0003F386EE274E08BE89CE00E943F3866E1B5
:1031B00074E08BE89CE00E943F386EEF73E08BE890
:1031C0009CE00E943F3860EF73E08BE89CE00E9437
:1031D0003F381AA219A283E693E098A38F8FCE01FD
:1031E00001967C019CA38BA38EE190E098A78FA30E
:1031F000CE014F960E947F2064EE73E0CE014F9681
:103200000E94FD37F801848195810E94BB10AB01BB
:10321000BC012AE030E0CE014F960E94BC386CED34
:1032200073E0CE014F960E94FD37C7010E9439140A
:10323000D82EFFE0F81728F060E3CE014F960E94E9
:10324000243840E150E06D2DCE014F960E942D397B
:10325000B7018BE89CE00E945138B7018EEE9BE0ED
:103260000E945138F801848195810E949F10029735
:1032700009F055C063EC73E08EEE9BE00E943F388E
:1032800062EB73E08BE89CE00E943F3860E873E0FB
:103290008BE89CE00E943F381AA219A283E693E0D3
:1032A00098A38F8FCE0101967C019CA38BA38EE106
:1032B00090E098A78FA3CE014F960E947F2066E7EB
:1032C00073E0CE014F960E94FD37F801848195810D
:1032D0000E94BB10AB01BC012AE030E0CE014F964A
:1032E0000E94BC386BE872E0CE014F960E942238F3
:1032F000C7010E943914182F803128F460E3CE01F1
:103300004F960E94243840E150E0612FCE014F9645
:103310000E942D39B7018BE89CE00E945138A89695
:103320000FB6F894DEBF0FBECDBFDF91CF911F91D6
:103330000F91FF90EF90DF9008951092B60A1092CF
:10334000B50A83E693E09093B40A8093B30A8DEBB9
:103350009AE09093B80A8093B70A88E290E090933D
:10336000BC0A8093BB0A83EB9AE00C947F20CF9237
:10337000DF92EF92FF92CF93DF93EC010E947016E1
:103380006B017C01AB01BC018C819D810E94C3104B
:103390008C819D810E94610C26E0B701A6018BE81B
:1033A0009CE00E948D34CE010E9488188BE89CE03E
:1033B0000E94AE338BE89CE00E94EF348C819D81AB
:1033C0000E94BB10AB01BC0126E08BE89CE0DF91C2
:1033D000CF91FF90EF90DF90CF900C948D34FC0153
:1033E000E853FF4F118210823296118210820895A5
:1033F000CF93DF93DC01A853BF4F4D915C911197A0
:10340000FC01E653FF4F4236510514F01182108241
:103410006A3011F06D3011F411821082643261F45F
:1034200024E6EC0119922A95E9F7EC01688381E022
:1034300090E08D939C933AC02081318121303105F9
:10344000E1F024F421153105C1F133C022303105FA
:1034500011F12330310569F5FC01E40FF51F60839C
:103460004E5F5F4F4D935C931182BC018C599F4F0F
:103470000E94944421E030E020C09A012F5F3F4F2A
:10348000EC01C40FD51F2D933C9368836A3299F4E5
:1034900082E090E00BC09A012F5F3F4F2D933C9349
:1034A000DC01A40FB51F6C9383E090E091838083CF
:1034B00002C01182108220E030E0C901DF91CF917B
:1034C00008958C599F4F0895862F0E94513181E0B5
:1034D00090E008950C94143225E833E0FC01318328
:1034E00020830C940D33CF93DF93EC0185E893E0B8
:1034F000998388830E940D33CE01DF91CF910C9484
:103500002A3C9A01AB01CA01B90196958795779536
:1035100067957C5D8B409F4F0E949542CA01B9011F
:103520000C94FF300C945138CF92DF92EF92FF92BF
:103530000F931F93CF93DF93CDB7DEB72A970FB6C4
:10354000F894DEBF0FBECDBF8C017C018EE0E80E8B
:10355000F11C1C821B8283E693E09A838983FE829E
:10356000ED828EE190E09A878987CE0101960E94D4
:103570007F206AE175E0CE0101960E94FD37F801D7
:10358000848595850E94EB0E4AE050E0BC01CE0197
:1035900001960E94063964E175E0CE0101960E9411
:1035A000FD37F801848595850E94F10EAB01BC01C1
:1035B00022E030E0CE0101960E941F3A6EE075E0F5
:1035C000CE0101960E94FD37C7010E94391468019F
:1035D000F0E4CF0ED11CF6018083803128F460E343
:1035E000CE0101960E94243840E150E0F60160814E
:1035F000CE0101960E942D39B7018EEE9BE00E940C
:103600005138B701C8010E9451382A960FB6F89474
:10361000DEBF0FBECDBFDF91CF911F910F91FF9005
:10362000EF90DF90CF900895AF92BF92CF92DF924C
:10363000EF92FF920F931F93CF93DF93CDB7DEB737
:103640002A970FB6F894DEBF0FBECDBF8C01FC01E8
:10365000848595850E94A30E20E030E0A9010E9498
:103660008D3F882309F470C05801FCE2AF0EB11CF5
:103670001C821B8283E693E09A838983BE82AD829B
:1036800084E190E09A878987CE0101960E947F208D
:1036900066E075E0CE0101960E94FD37F801848551
:1036A00095850E949D0E6B017C01F80184859585AE
:1036B0000E94A30E9B01AC01C701B6010E94C63E49
:1036C000AB01BC0122E030E0CE0101960E941F3A1E
:1036D00062E075E0CE0101960E94FD377801F0E4CA
:1036E000EF0EF11CF701108281E090E0F5010190EE
:1036F0000020E9F7EA19FB0932978E179F0750F46B
:10370000F801E80FF91F24A5F70130812327208352
:103710000196ECCFF7018081803128F460E3CE017F
:1037200001960E94243840E150E0F7016081CE010B
:1037300001960E942D39B5018EEE9BE00E94513812
:10374000B501C8010E9451382A960FB6F894DEBF21
:103750000FBECDBFDF91CF911F910F91FF90EF90E2
:10376000DF90CF90BF90AF900895FC01578B468BB0
:10377000718F608F118210820895FC01A081B18148
:10378000A80FB91F12966C938081918143972CF4F6
:10379000808191810196918380830895CF93DF93F7
:1037A000EB01FC01718360830E94823C6093130BE8
:1037B0007093140B8093150B9093160B4091130B81
:1037C0005091140B6091150B7091160B40930F0BD9
:1037D0005093100B6093110B7093120B1092FB0A15
:1037E0001092FC0A1092FD0A1092FE0A81E080936A
:1037F000F60A1092E80A1092E90A8091E50A90917F
:10380000E60A20E03091E70A231760F4FC0134E077
:10381000239FE00DF11D1124108211821282138268
:103820002F5FF0CFCE010E94E50E843691053CF06B
:1038300063E670E0CE01DF91CF910C943B10DF91F5
:10384000CF910895CF92DF92EF92FF920F931F9343
:10385000CF93CB01BA0197FF09C0909580957095E1
:1038600061957F4F8F4F9F4FC0E001C0C1E0683628
:1038700021E072078105910534F028E631E040E04F
:1038800050E00E94B742653B71058105910534F017
:10389000645B71098109910921E0C2276B357105CB
:1038A0008105910564F004EB10E020E030E0680150
:1038B0007901C61AD70AE80AF90AC701B601660FE4
:1038C000771FFB01E755FD4F60817181CC2319F013
:1038D00080E090E00CC0CB01A0E0B0E09C01AD0125
:1038E00066277727CB01621B730B840B950BCF9157
:1038F0001F910F91FF90EF90DF90CF900895465A5F
:103900005F4F6F4F7F4F0C94221C4F925F926F92CC
:103910007F928F929F92AF92BF92CF92DF92EF925F
:10392000FF920F931F93CF93DF938C016090E80A6F
:10393000C091E50AD091E60A712CC12CD12C7601F8
:10394000812C912C54017614C1F0488159816A81EF
:103950007B81C8010E947F1C860E971EA81EB91E7F
:103960004991599169917991C8010E94221CC60E12
:10397000D71EE81EF91E7394E6CF81149104A104AA
:10398000B10429F4C114D104E104F104A1F1662DBC
:1039900070E080E090E00E942F402B013C01C501C7
:1039A000B4010E942F4020E830E040E857E30E9435
:1039B0009B41A30192010E94943F4B015C01C7010E
:1039C000B6010E942F4020E830E040E857E30E9413
:1039D0009B41A30192010E94943FA50194010E9482
:1039E0003A3F21EE3EE245E652E40E949B410E94AE
:1039F000FC3FCB0102C080E090E0DF91CF911F91AE
:103A00000F91FF90EF90DF90CF90BF90AF909F907D
:103A10008F907F906F905F904F9008950F931F93BA
:103A20000E94763C00911B0B10911C0B20911D0BEA
:103A300030911E0B601B710B820B930B653171056E
:103A40008105910520F18091130B9091140BA091A9
:103A5000150BB091160B80930F0B9093100BA09346
:103A6000110BB093120B0E94823C6093130B709366
:103A7000140B8093150B9093160B0E94763C609369
:103A80001B0B70931C0B80931D0B90931E0B1F91AF
:103A90000F9108950F931F930E94763C0091170B8E
:103AA0001091180B2091190B30911A0B601B710BA0
:103AB000820B930B653171058105910508F444C0B3
:103AC0008091030B9091040BA091050BB091060B14
:103AD0008093FF0A9093000BA093010BB093020B0D
:103AE0000E94823C6093030B7093040B8093050B40
:103AF0009093060B80910F0B9091100BA091110BDE
:103B0000B091120B80930B0B90930C0BA0930D0BA9
:103B1000B0930E0B8091130B9091140BA091150B89
:103B2000B091160B8093070B9093080BA093090B91
:103B3000B0930A0B0E94763C6093170B7093180B9E
:103B40008093190B90931A0B1F910F9108954F9228
:103B50005F926F927F928F929F92AF92BF92CF921D
:103B6000DF92EF92FF920F931F93F89480900B0BCC
:103B700090900C0BA0900D0BB0900E0B8091070B4A
:103B80009091080BA091090BB0910A0B4091FF0A8C
:103B90005091000B6091010B7091020B0091030B8F
:103BA0001091040B2091050B3091060B7894881628
:103BB0009906AA06BB0608F0BDC06C017D01C818B5
:103BC000D908EA08FB08E0E2CE16EEE4DE06E104DE
:103BD000F10408F4AFC0401751076207730708F0FB
:103BE000A9C028013901441A550A660A770AE0E299
:103BF0004E16EEE45E066104710408F49BC00115E4
:103C000011052105310509F495C0411551056105DE
:103C1000710509F48FC00097A105B10509F48AC0A8
:103C200081149104A104B10409F484C0841695069A
:103C3000A606B70608F07EC0081719072A073B0733
:103C400008F478C0C40CD51CE61CF71CF694E79465
:103C5000D794C794C092FB0AD092FC0AE092FD0A66
:103C6000F092FE0A28013901440E551E661E771E89
:103C7000A3019201281939094A095B09281B390B4C
:103C80004A0B5B0B56954795379527952093F70A76
:103C90003093F80A4093F90A5093FA0A2115310536
:103CA0004105510509F446C02C153D054E055F053B
:103CB00008F040C0A8E6B1E00E94DC42A7019601EE
:103CC0000E949542283681E038074105510590F55C
:103CD0008091E90A8F5F8093E90A9091E80A6091E8
:103CE000E70AE091E50AF091E60A9617B0F481E060
:103CF000890F8093E80A84E0989FE00DF11D11245C
:103D000020833183428353838091E90A6091E80ADA
:103D10000E9475429093E90A0DC00E9475429093EB
:103D2000E90A84E0989FE00DF11D1124208331837E
:103D3000428353831F910F91FF90EF90DF90CF90BC
:103D4000BF90AF909F908F907F906F905F904F90BB
:103D500008954F925F926F927F928F929F92AF924F
:103D6000BF92CF92DF92EF92FF92CF93DF93EC015D
:103D70000E94763CC0901B0BD0901C0BE0901D0B5A
:103D8000F0901E0B6C157D058E059F0550F40E946A
:103D9000763C60931B0B70931C0B80931D0B9093D0
:103DA0001E0B0E94763CC090170BD090180BE09031
:103DB000190BF0901A0B6C157D058E059F0550F4BC
:103DC0000E94763C6093170B7093180B8093190B2D
:103DD00090931A0B0E94763CAB01BC0188819981BB
:103DE0000E9455100E94763CC0901B0BD0901C0B7B
:103DF000E0901D0BF0901E0B6C197D098E099F0938
:103E0000A880B980693B7B4081059105A0F040E026
:103E100050E0BA01C501DF91CF91FF90EF90DF90A4
:103E2000CF90BF90AF909F908F907F906F905F905A
:103E30004F900C944D102091FB0A3091FC0A409158
:103E4000FD0A5091FE0A211531054105510509F47D
:103E5000B4C060E071EE85EF95E00E949542690183
:103E60007A01233481E0380741055105F4F5AAE0D1
:103E7000B0E00E94DC422B013C01C5010E94F90E1A
:103E80004B015C01A3019201C301B2010E94654292
:103E900027E93FEF4FEF5FEF0E94B74229013A0158
:103EA000A701960168E273EE83E090E00E9465420C
:103EB00024E630E040E050E00E94B742420E531E3C
:103EC000641E751E24EE421A2FE2520A6108710820
:103ED000C301B2010E942F40A50194010E94943FAA
:103EE00020E030E040E251E460C02C3385E1380747
:103EF0004105510554F5C5010E94F90E2B013C0105
:103F0000A7019601C701B6010E9465422EEA38E07A
:103F100040E050E00E94B74249015A01ABE9BAE4DF
:103F2000A70196010E94DC4224E630E040E050E028
:103F30000E94B742820E931EA41EB51E26EA820E70
:103F400025E2921EA11CB11C2AC0C5010E94F90ED7
:103F50002B013C01A7019601C701B6010E946542F1
:103F600022E134E040E050E00E94B742A4E6B0E035
:103F70000E94DC424B015C01A701960164EB70E2F8
:103F800081E89FEF0E946542860E971EA81EB91E0B
:103F900084E4880E8DEB981E8BE2A81EB11CC5012F
:103FA000B4010E942F40A30192010E94943FAB01F3
:103FB000BC01888199810E944D10888199810E945D
:103FC000F10E6B017C01888199810E94010FBC0177
:103FD000882777FD8095982F0E942F409B01AC0188
:103FE000C701B6010E949041181654F48881998146
:103FF0000E94F10E0E94FC3F888199810E949410DA
:10400000CE010E94851C8A5591097C018881998185
:104010000E94DF0EB701680F791F77FF02C0685951
:104020007E4F88819981DF91CF91FF90EF90DF9053
:10403000CF90BF90AF909F908F907F906F905F9048
:104040004F900C9441108AEE9AE09093E60A809388
:10405000E50A83E08093E70A1092E80A1092E90AE1
:10406000089561E085E30E94E13D61E085E30E94FF
:10407000A83D8CB580618CBD8CB580648CBD61E041
:1040800084E30E94A83D61E083E30C94A83D811184
:1040900003C08CB5806202C08CB58F7D8CBD089545
:1040A0009CB5937F982B9CBD08952CB5982F937049
:1040B0002C7F922B9CBD9DB582FB882780F99E7F2B
:1040C000982B9DBD0895FC01A681B7819D012F5FAE
:1040D0003F4F8481958140855185840F951F281716
:1040E000390750F4378326836C930680F781E02DDF
:1040F000108281E090E0089580E090E00895FC0156
:10410000A481B581B783A68380859185892B09F029
:104110001C92089508952F923F924F925F926F9252
:104120007F928F929F92AF92BF92CF92DF92EF9247
:10413000FF920F931F93CF93DF93CDB7DEB72A97EC
:104140000FB6F894DEBF0FBECDBF9A878987DC011A
:10415000D6968C91882309F4E5C00E94763C698349
:104160007A838B839C83E985FA8580A191A129813B
:104170003A81281B390B84A595A5281739070CF41B
:10418000D1C0028CF38DE02D80809180A280B3801D
:10419000A985BA855E96ED91FC915F97A501940182
:1041A00060817181828193810E94C63E2B013C0116
:1041B000E985FA8520893189428953890E949B418A
:1041C000A985BA8594962D913D914D915C919797D3
:1041D0000E94C73E6B017C01E985FA8564A375A343
:1041E00086A397A312A903A934A825A8212F302FAD
:1041F000432D522D0E94904118162CF4812F902FA0
:10420000A32DB22D18C0A985BA859E968D919D913A
:104210000D90BC91A02D8D839E83AF83B8879C01A8
:10422000AD01C701B6010E948D3F87FF0AC08D8195
:104230009E81AF81B885E985FA8584A395A3A6A35D
:10424000B7A3A985BA851C962D913D914D915C919E
:104250001F97C301B2010E949B41E985FA8524A101
:1042600035A146A157A10E94C73E6B017C01A985DB
:10427000BA8598962D913D914D915C919B97C50182
:10428000B4010E94C63EE985FA85248935894689AC
:1042900057890E949B419B01AC01C701B6010E9456
:1042A000C63E6B017C01212F302F432D522D0E94E1
:1042B00090411816DCF0A985BA859E961C919E97B0
:1042C0009F960C919F97D0963C90D097D1962C902A
:1042D000212F302F432D522DB601C7010E948D3F53
:1042E00087FD04C01C2D0D2D3E2C2F2CA985BA85D1
:1042F0005C96ED91FC915D97812F902FA32DB22DAF
:1043000080839183A283B383E985FA8580A691A6F1
:10431000A2A6B3A689819A81AB81BC8180A391A317
:10432000A2A3B3A32A960FB6F894DEBF0FBECDBFEB
:10433000DF91CF911F910F91FF90EF90DF90CF9081
:10434000BF90AF909F908F907F906F905F904F90B5
:104350003F902F9008952F923F924F925F926F92CD
:104360007F928F929F92AF92BF92CF92DF92EF9205
:10437000FF920F931F93CF93DF9300D01F92CDB77F
:10438000DEB71C012A013B014801590120E030E061
:10439000A901C301B2010E948D3F87FD7AC020E0D0
:1043A00030E0A901C501B4010E948D3F87FD71C0B5
:1043B00020E030E0A901C701B6010E948D3F87FDD2
:1043C00068C0F10140825182628273828482958248
:1043D000A682B782C086D186E286F38664A575A5DB
:1043E000882777FD8095982F0E942F4020E030E0AD
:1043F0004AE754E40E94943F69837A838B839C83C9
:10440000F10144865586668677869B01AC01C5011D
:10441000B4010E949B414B015C01F101608B718BE7
:10442000828B938B29813A814B815C81C701B601D4
:104430000E94943F6B017C01F101648B758B868B2C
:10444000978B808D918D019721F5A301920160E0FA
:1044500070E0CB010E94C63EF101648775878687B4
:104460009787A501940160E070E0CB010E94C63EF1
:10447000F101608B718B828B938BA701960160E0B9
:1044800070E0CB010E94C63EF101648B758B868B78
:10449000978B0F900F900F900F90DF91CF911F91FE
:1044A0000F91FF90EF90DF90CF90BF90AF909F90D3
:1044B0008F907F906F905F904F903F902F900895D6
:1044C000CF92DF92EF92FF920F931F93CF93DF93E0
:1044D000EC018B011616170694F5882777FD809559
:1044E000982F0E942F406B017C016CA57DA5882729
:1044F00077FD8095982F0E942F409B01AC01C7014A
:10450000B6010E94943F6B017C019B01AC0168895C
:1045100079898A899B890E949B41688B798B8A8BD8
:104520009B8BA70196016C897D898E899F890E944A
:10453000943F6C8B7D8B8E8B9F8B1DA70CA7DF917F
:10454000CF911F910F91FF90EF90DF90CF90089542
:104550002F923F924F925F926F927F928F929F9293
:10456000AF92BF92CF92DF92EF92FF920F931F9381
:10457000CF93DF93EC016A017B0148015901A90146
:104580009801C701B6010E94904187FF4EC0CEA698
:10459000DFA6E8AAF9AA8AAA9BAAACAABDAA8EA9F4
:1045A000882309F442C02C8C3D8CF101408051805D
:1045B00062807380A5019401C301B2010E94904101
:1045C000181634F4F10180829182A282B3820DC068
:1045D000A7019601C301B2010E948D3F87FF05C06C
:1045E000F101C082D182E282F3828CA09DA0AEA0B4
:1045F000BFA0CAA8DBA8ECA8FDA8A7019601C50129
:10460000B4010E949041181664F0CEA4DFA4E8A87B
:10461000F9A8A7019601C501B4010E948D3F87FF4B
:1046200004C0CCA2DDA2EEA2FFA2DF91CF911F9128
:104630000F91FF90EF90DF90CF90BF90AF909F9041
:104640008F907F906F905F904F903F902F90089544
:104650008F929F92AF92BF92CF92DF92EF92FF9292
:10466000CF93DF93EC01EC8DFD8DC080D180E28093
:10467000F380CCA2DDA2EEA2FFA2EA8DFB8D8081A9
:104680009181A281B38188A799A7AAA7BBA78AA86D
:104690009BA8ACA8BDA8A5019401C701B6010E94C2
:1046A0009041181664F08EA49FA4A8A8B9A8A501EB
:1046B0009401C701B6010E948D3F87FF04C08CA200
:1046C0009DA2AEA2BFA2DF91CF91FF90EF90DF90AD
:1046D000CF90BF90AF909F908F9008951F93CF93EE
:1046E000DF93EC0111E06130710509F010E08EA953
:1046F00091E08927181303C0CE010E9428231EAB26
:10470000DF91CF911F9108950F931F93CF93DF9364
:10471000EC018B018EA9882361F1888D998D681732
:10472000790739F12C853D854E855F8560E070E025
:10473000CB010E94C63E6C877D878E879F87288924
:1047400039894A895B8960E070E0CB010E94C63EEE
:10475000688B798B8A8B9B8B2C893D894E895F89ED
:1047600060E070E0CB010E94C63E6C8B7D8B8E8B2F
:104770009F8B198F088FDF91CF911F910F91089513
:104780002F923F924F925F926F927F928F929F9261
:10479000AF92BF92CF92DF92EF92FF920F931F934F
:1047A000CF93DF93CDB7DEB728970FB6F894DEBF6F
:1047B0000FBECDBF4C017A8369831A013C832B83E2
:1047C00027013801AD82BE82CF82D88600E010E09A
:1047D0002FE733E440E050E0BA010E94A82284E6CB
:1047E00090E0F40195A784A76AA17BA1C4010E946F
:1047F0008423CE8CDF8CE8A0F9A00D811E812F814F
:104800003885B301A201C4010E94AB210E94763C0D
:10481000F40144A455A4662457FC6094762C6419D2
:1048200075098609970960A371A382A393A316AAA9
:10483000358E248E89819A81938F828F8B819C8182
:10484000978F868F28960FB6F894DEBF0FBECDBF28
:10485000DF91CF911F910F91FF90EF90DF90CF905C
:10486000BF90AF909F908F907F906F905F904F9090
:104870003F902F9008950F931F93CF93DF93FC01E8
:1048800071836083128213821482158286E5868387
:104890001782108611861286138614861586168650
:1048A0001786108A118A128A138A148A158A168A20
:1048B000DF01A754BF4F11961C921E92AE55BF4FF9
:1048C00011961C921E92149611961C921E9212968C
:1048D00011961C921E92129611961C921E92178A85
:1048E000AC5AB1091D921C92EF0104E110E08FE077
:1048F00090E00E940E43FE01E15EFE4F91838083B3
:104900008FE090E00E940E43FE01E558FF4F918337
:104910008083FC01108201501109229601151105B6
:1049200031F7DF91CF911F910F910895FC016281C2
:104930007381848195810895FC0186810895FC012D
:1049400067817085818592850895FC0163857485F2
:10495000858596850895CF92DF92EF92FF926A0146
:104960007B01FC012785308941895289C701B60145
:104970000E949B41FF90EF90DF90CF900895FC0143
:104980006389748985899689089547960895660F85
:10499000771F680F791FFB01E558FF4F80819181D8
:1049A00008954F925F926F927F928F929F92AF92F3
:1049B000BF92CF92DF92EF92FF920F931F93CF930C
:1049C000DF93FB0110811D3241F031E020E01B320A
:1049D00009F030E0832F922F02C081E090E0EB01DC
:1049E000C80FD91F00E03DEC432E3CEC532E652C44
:1049F0003DE3732E812C912C5401C12CD12C7601D6
:104A0000E991EE23E9F1EE32C9F1FF27E7FDF095D8
:104A1000011113C0AAE0B0E0A70196010E94DC4298
:104A20006B017C01CF01C097AA2797FDA095BA2FF3
:104A3000C80ED91EEA1EFB1EE3CFBF0160537109E9
:104A4000882777FD8095982F0E942F409B01AC010D
:104A5000C301B2010E949B419B01AC01C501B4019D
:104A60000E94C73E4B015C0120E030E040E251E48F
:104A7000C301B2010E94943F2B013C0101E0C0CF71
:104A8000C701B6010E942F409B01AC01C501B401D2
:104A90000E94C73E1D3239F49B01AC0160E070E01A
:104AA000CB010E94C63EDF91CF911F910F91FF90E5
:104AB000EF90DF90CF90BF90AF909F908F907F90BE
:104AC0006F905F904F9008958F929F92AF92BF9298
:104AD000CF92DF92EF92FF920F931F93CF93DF93CA
:104AE000EC01AC01455A5E4FDA012D913C911197D2
:104AF000FC01E15AFE4F243631056CF4A25AB1098B
:104B00008D919C911197449734F4A655BF4F8D9188
:104B10009C910F9714F0118210826A3011F06D3061
:104B200011F4118210826432E1F4DE01A35ABE4F07
:104B300011961C921E92149611961C921E92A85ABF
:104B4000B10911961C921E92A655BF4F1D921C9240
:104B5000C554DF4F688381E090E0DA018D939C9328
:104B6000E4C0808191818130910569F024F400973F
:104B700009F47AC272C28230910509F492C0039797
:104B800009F4D6C06AC2273031057CF4D901A9598D
:104B9000BC4F8C91681309C0DE01A35ABE4F8D91A2
:104BA0009C91119701968D939C93C9010196DA010E
:104BB0008D939C932C0F3D1FD901A554BF4F6C932F
:104BC000CE0187549F4F8E010D591E4F6A3249F115
:104BD000DE01AF59BE4FFC016C3209F040C02081AC
:104BE0003181A9014F5F5F4F51834083C901880F15
:104BF000991F8C0F9D1FEC01C15EDE4F0990D8817B
:104C0000C02DF80180819181C80FD91F18821182AF
:104C100010828D919C911197FCE28F278D939C932C
:104C20001EC2DC012D913C911197A9014F5F5F4F8E
:104C30004D935C93C901880F991F8C0F9D1FEC0148
:104C4000C15EDE4F0990D881C02DD8018D919C9115
:104C50001197C80FD91F18821D921C9263C08081C2
:104C60009181880F991F8C0F9D1FEC01C15EDE4F53
:104C70000990D881C02DF801808191819C012F5F1E
:104C80003F4F31832083C80FD91F6883772767FD83
:104C900070958D919C911197682779276D937C93DE
:104CA000DEC1C9010196DA018D939C932C0F3D1F43
:104CB000D901A554BF4F6C93DE01A754BF4F8D910E
:104CC0009C91880F991F8C0F9D1FDC01A15EBE4F28
:104CD0000D911C919E012D593E4FD9018D919C91B2
:104CE0001197AC014F5F5F4F4D935C93080F191FF5
:104CF000D8016C93CF59DE4F48815981862F99276F
:104D000087FD9095613414F0C79701C0C0979C014E
:104D1000B4E0220F331FBA95E1F7CA01821B930B4F
:104D2000998388838081918101969183808397C143
:104D3000CE01820F931FDC01A554BF4F6C932E5FF1
:104D40003F4FDA012D933C93DC01A454BF4F1C92DA
:104D50009E0127543F4FD9018D919C91880F991F37
:104D60008C0F9D1FDC01A15EBE4F8D919C916E0149
:104D7000BDE9CB1ABEEFDB0AD6010D911C9178017B
:104D8000BFEFEB1AFB0AD601ED92FC92800F911F48
:104D9000DC016C93D9018D919C9111978C010F5F6F
:104DA0001F4F0D931C93880F991F8C0F9D1F815EC1
:104DB0009E4FDC018D919C91D6010D911C91800F2D
:104DC000911FDC011C9211821082FE01EF59FE4FEF
:104DD00080819181062F112707FD1095613424F001
:104DE000B8016753710903C0B80160537109861B8C
:104DF000970B91838083009709F031C16881798195
:104E0000672B29F4FA0160817181CB010AC0FE0190
:104E1000E35AFE4F608171816630710509F024C14B
:104E2000F1CF019797FD0AC0FE01E80FF91F8F012E
:104E300005541F4FD8011C91178BF3CFFB013197FD
:104E4000CB0177FF02C080E090E0BF01681B790BC7
:104E5000DA016D937C93FE01E954FF4F11821082B9
:104E600040815181D9018D919C914817590784F552
:104E7000D6011D921C9280819181D6014D915C9149
:104E8000880F991F8C0F9D1FBC01615E7E4FDB0157
:104E90006D917C91640F751FDB016C9185589F4F5C
:104EA000DC018D919C91840F951FDC01662349F0F4
:104EB0006C93D6018D919C91119701968D939C9343
:104EC000DACF1C9280819181019691838083C8CF33
:104ED000FE01E35AFE4F80819181069709F0C2C01E
:104EE000FC9760817181CE010E94D1246A837B830B
:104EF0008C839D83FE01ED5DFE4F0190F081E02DDE
:104F000080818E83FE01EB5DFE4F60817181CE0159
:104F10000E94D12420E030E048EC52E40E94943F0B
:104F20004B015C010E946A406B017C018E010B59B0
:104F30001E4FF80160837183828393839B01AC01D0
:104F4000C501B4010E94C63E20E030E048EC52E4C6
:104F50000E949B4120E030E040E752E40E94943FF1
:104F6000A70196010E94C73E9B01AC016F83788721
:104F700089879A87FE01E95DFE4F0190F081E02D5F
:104F80008081833549F460E070E0CB010E94C63E29
:104F90006F83788789879A87FE01E75DFE4F60817E
:104FA0007181CE010E94D12420E030E048EC52E42F
:104FB0000E94943F4B015C010E946A406B017C019E
:104FC000D8016D937D938D939C9313979B01AC01B6
:104FD000C501B4010E94C63E20E030E048EC52E436
:104FE0000E949B4120E030E040E752E40E94943F61
:104FF000A70196010E94C73E9B01AC016B877C878D
:105000008D879E87FE01E55DFE4F0190F081E02DCA
:105010008081873549F460E070E0CB010E94C63E94
:105020006B877C878D879E87FE01E35DFE4F6081E5
:105030007181CE010E94D1246F87788B898B9A8BE6
:10504000FE01E15DFE4F60817181CE010E94D1249D
:105050006B8B7C8B8D8B9E8B05C01182108280E0C8
:1050600090E002C081E090E0DF91CF911F910F911D
:10507000FF90EF90DF90CF90BF90AF909F908F9078
:1050800008958EBD0DB407FEFDCF8EB508950F9324
:105090001F93FC011382128208EE13E020E030E03F
:1050A000048315832683378383E793E0918380838A
:1050B000648745871F910F910895EF92FF921F9388
:1050C000CF93DF931F92CDB7DEB77C01162F60E040
:1050D000FC01848549830E94E13DF8E01F9FB001F7
:1050E0001124F7018585880F862B0E94412849816C
:1050F000842F0E94412862E070E080E090E00E94EE
:10510000A53C61E0F70184850F90DF91CF911F915D
:10511000FF90EF900C94E13D462F60E00E945D28E7
:1051200081E090E0089546E062E00C945D28CF9223
:10513000DF92EF92FF920F931F93CF93DF931F9213
:105140001F92CDB7DEB78C01F22E60E0FC018485A2
:1051500049835A830E94E13D4981E42EC42E5A813D
:10516000D52E8C2D8E198F1530F4F60181916F019B
:105170000E944128F6CF62E070E080E090E00E945B
:10518000A53C61E0F80184850F900F90DF91CF91ED
:105190001F910F91FF90EF90DF90CF900C94E13D25
:1051A000242FAB0160E00C9497281F93CF93DF93DB
:1051B000EC01162F60E08C850E94E13D62E070E01A
:1051C00080E090E00E94A53C88E0189FB001112487
:1051D0008D85880F862B80680E94412880E00E9480
:1051E0004128182F62E070E080E090E00E94A53C2A
:1051F00061E08C850E94E13D812FDF91CF911F916D
:10520000089560E00E94D52890E0089569E00E942A
:10521000D52890E0089569E00E94D5288FEF9FEF90
:1052200008951F93CF93DF93EC01162F63E00E9444
:10523000D528482F4C7F6BEF610F6370462B63E0DE
:10524000CE01DF91CF911F910C945D288F929F9298
:10525000AF92BF92CF92DF92EF92FF920F931F9384
:10526000CF93DF93EC016A017B01480159016FE4A0
:1052700075E08EEE9BE00E943F380E9431206AE08C
:1052800070E080E090E00E94A53C81E00E94472011
:1052900081E00E94552080E00E94502063E475E088
:1052A0008EEE9BE00E943F388091080290910902A7
:1052B000019779F448E06EE0CE010E945D281092DB
:1052C00009021092080264E375E08EEE9BE00E94F2
:1052D0003F3864E670E080E090E00E94A53C40E842
:1052E00063E0CE010E945D28C701B60123E0660F8E
:1052F000771F881F991F2A95D1F7680D791D8A1D80
:105300009B1DA7019601E4E0220F331F441F551F88
:10531000EA95D1F70E94954269017A01422F60E037
:10532000CE010E945D284D2D552761E0CE010E94DF
:105330005D2840E063E0CE010E945D2868E0CE0178
:105340000E94112947E062E0CE010E945D2862E2DE
:1053500075E08EEE9BE0DF91CF911F910F91FF9052
:10536000EF90DF90CF90BF90AF909F908F900C9474
:105370003F380F931F9300E010E820E730E00E94D1
:1053800026291F910F910895FC016F7780819181EB
:1053900086279183808347E020813181C9019695DA
:1053A000879520FF04C020EF822722E29227918375
:1053B0008083415089F70895EF92FF920F931F93D6
:1053C000CF93DF937C018A01EB01060F171FC017F3
:1053D000D10729F06991C7010E94C429F8CFDF9154
:1053E000CF911F910F91FF90EF900895CF93DF938E
:1053F0001F921F92CDB7DEB7AB012FEF3FE33A8389
:105400002983BC01CE0101960E94DC2989819A8101
:1054100080952FE392270F900F90DF91CF91089501
:105420000F931F93CF93DF931F92CDB7DEB78C01FD
:10543000FC0171836083128223831486158616868D
:105440001786108A459649830E94CA2EF801178E46
:1054500010A249818FE9840F8A3108F440528FEB02
:10546000840F8A3120F080ED840F8A3010F4F80127
:10547000428344E650E060E070E0F80144835583E5
:10548000668377834FEF5FEFBA014087518762876A
:10549000738711A20F90DF91CF911F910F91089503
:1054A00008959F92AF92BF92CF92DF92EF92FF92B8
:1054B0000F931F93CF93DF93CDB7DEB7A7970FB6A8
:1054C000F894DEBF0FBECDBF6C017B01942E590155
:1054D000DB0114964D915D916D917C911797CE01F2
:1054E00080960E94C32FCE0180960E94992F6894C7
:1054F000A4F8C8010E94712F882321F0C6010E94E0
:10550000CC2E6CC0CE0180960E94712F8823A9F109
:10551000CE0180960E94B72FF70184858F5F87FDAB
:1055200081E0D7011C968C93CE0101960E94F92C44
:10553000F7016281CE0101960E94FD2C6A2DCE01F9
:1055400001960E94FD2CD7011C966C91CE0101960C
:105550000E94FD2C692DCE0101960E94FD2CD701E1
:10556000ED91FC91119763A174A123E230E01396B1
:105570004C91CE0101960E94D52DF7018081918139
:105580000E94A32E882309F4B4CFD701ED91FC919A
:105590001197938113968C919813ABCF84818334A8
:1055A00009F0A7CF4081518145505109BF016A5F81
:1055B0007F4FCE0101960E94422F8981882309F4F2
:1055C00098CF9C81F7018485981393CF8AE0FE01E0
:1055D0003196D60101900D928A95E1F7C601A79602
:1055E0000FB6F894DEBF0FBECDBFDF91CF911F91F4
:1055F0000F91FF90EF90DF90CF90BF90AF909F9072
:1056000008959F92AF92BF92CF92DF92EF92FF9256
:105610000F931F93CF93DF93CDB7DEB76F970FB67E
:10562000F894DEBF0FBECDBF8C015B017A01922ED4
:10563000DC01ED91FC91C3A0D4A0CE0101960E94A3
:10564000F92CF8016281CE0101960E94FD2C692D92
:10565000CE0101960E94FD2C96FE07C0D8015F96F0
:105660006C91CE0101960E94FD2CF701428153817D
:10567000B7016C5F7F4FCE0101960E94092D950105
:10568000D80113964C91B601CE0101960E94D52DFA
:105690006F960FB6F894DEBF0FBECDBFDF91CF91EE
:1056A0001F910F91FF90EF90DF90CF90BF90AF9040
:1056B0009F900895CF92DF92EF92FF920F931F93E6
:1056C000CF93DF93CDB7DEB72A970FB6F894DEBF3E
:1056D0000FBECDBF7C016A01FC0180A1811123C0F6
:1056E0008B0120E430E041E050E0B701CE010196AB
:1056F0000E94512A8AE0FE013196D60101900D9256
:105700008A95E1F7F601828180FF04C08681978146
:1057100097FD07C0F6018481F701878F81E080A3A0
:1057200002C081E001C080E02A960FB6F894DEBF87
:105730000FBECDBFDF91CF911F910F91FF90EF90E2
:10574000DF90CF900895DF92EF92FF920F931F9317
:10575000CF93DF93CDB7DEB72A970FB6F894DEBFAD
:105760000FBECDBF7C01D42EFC0123893489418931
:1057700052898B01BC01CE0101960E94512A8AE018
:10578000FE013196D701559601900D928A95E1F769
:10579000F701878980FF04C0838D948D97FD0BC02E
:1057A000F701818D978D891731F0811106C081E055
:1057B000D11004C002C081E001C080E02A960FB67B
:1057C000F894DEBF0FBECDBFDF91CF911F910F9137
:1057D000FF90EF90DF9008958F929F92AF92BF92CB
:1057E000CF92DF92EF92FF920F931F93CF93DF93AD
:1057F000CDB7DEB72E970FB6F894DEBF0FBECDBF84
:105800007C016B015A014901FC01258536854785DC
:1058100050892F5F3F4F4F4F5F4F25873687478710
:10582000508BBC01CE0109960E94E52DF70181A1A4
:10583000882339F09401A501B601C7010E94012B0C
:1058400030C0F7014085518562857385CE01019690
:105850000E94C32FA7014B5E5F4FBE016F5F7F4F5A
:10586000C7010E945A2B81111CC0689486F8F70169
:10587000128B018B948A838A878D8F5F87FD81E0ED
:10588000F701878F9401A501B601C7010E94012B82
:1058900040E0BE016F5F7F4FC7010E94A32B8823AA
:1058A00089F386E0FE013996DE01119601900D9292
:1058B0008A95E1F729813A814B815C816D817E81F6
:1058C00080E090E02E960FB6F894DEBF0FBECDBFFD
:1058D000DF91CF911F910F91FF90EF90DF90CF90CC
:1058E000BF90AF909F908F9008958F929F92AF92AC
:1058F000BF92CF92DF92EF92FF920F931F93CF93BD
:10590000DF93CDB7DEB7AA970FB6F894DEBF0FBE10
:10591000CDBF4C01CE0101962FA338A749A75AA7A6
:105920006EA30E94F92C6EA1CE0101960E94FD2C5F
:105930002FA138A549A55AA5BA01A901CE01019602
:105940000E94212DF7FC0BC0602FCE0101960E9412
:10595000FD2CB701A601CE0101960E94212D01E088
:1059600010E09501AE014F5F5F4F64E270E0C4014B
:105970000E94EC2B80E090E0AA960FB6F894DEBF70
:105980000FBECDBFDF91CF911F910F91FF90EF9090
:10599000DF90CF90BF90AF909F908F900895AF927F
:1059A000BF92CF92DF92EF92FF920F931F93CF930C
:1059B000DF9300D000D0CDB7DEB757016801790181
:1059C00002E09A01AB0161E00E94752C80E090E05A
:1059D00026960FB6F894DEBF0FBECDBFDF91CF91F4
:1059E0001F910F91FF90EF90DF90CF90BF90AF90FD
:1059F0000895FC01138212820895FC0122813381F3
:105A0000A9014F5F5F4F53834283E20FF31F64830B
:105A10000895CF93DF93FB01460F571FE417F50757
:105A200069F0A191EC012A813B81B9016F5F7F4F41
:105A30007B836A83C20FD31FAC83F0CFDF91CF91FA
:105A400008950F931F9341305105610520EE7207B1
:105A50007CF08A019B0101151105210540E2340704
:105A600024F00FEF1FEF2FEF3FE137FF12C004C00C
:105A700001E010E020E030EE309520951095019582
:105A80001F4F2F4F3F4F000F111F221F331F016069
:105A900004C0000F111F221F331FFC0142815381DC
:105AA000702F7F73003411052105310510F060E47B
:105AB00001C060E04F5F5F4FFC01E40FF51F672BF3
:105AC000638366E036952795179507956A95D1F714
:105AD000011511052105310519F7FC015383428396
