:100000000C940D040C94093B0C943A3B0C946B3B00
:100010000C949C3B0C94CD3B0C94FE3B0C942F3CDD
:100020000C94603C0C943E040C943E040C943E04EE
:100030000C943E040C943E040C943E040C940D313C
:100040000C943E040C943E040C943E040C943E0428
:100050000C943E040C943E040C943E040C94A33C7B
:100060000C943E040C9482350C94B8350C943E04E8
:100070000C943E040C943E040C943E040C943E04F8
:100080000C943E040C943E040C943E040C943E04E8
:100090000C942F360C9465360C943E040C943E045C
:1000A0000C943E040C943E040C943E040C943E04C8
:1000B0000C943E040C943E040C9490320C94FF314A
:1000C0000C94F2320C943E040C943E040C94DC36F6
:1000D0000C9412370C943E040C9489370C94BF375F
:1000E0000C943E04E33AAD3AB53AC13ACE3AEF3A0F
:1000F000FC3AE43DE73DD63DDA3DE03D1E3EEB3DBA
:10010000EF3DF53DF93DFD3D033E073E0B3E1E3EF6
:10011000113E153E193E084AD73B3BCE016E84BCCA
:10012000BFFDC12F3D6C74319ABD56833DDA3D0051
:10013000C77F11BED9E4BB4C3E916BAAAABE00009A
:1001400000803F05A84CCDB2D44EB93836A9020C78
:1001500050B9918688083CA6AAAA2ABE0000008051
:100160003F000C94E9370C9485120C94C7330C941F
:100170000A290C94881A0C9447290C9446040C9470
:10018000B3330C9440040C94ED160C94F3370C9498
:10019000D63D0C94AC340C94DE100C94551B0C948E
:1001A000E2350C9456090C94113E0C94F53D0C94D8
:1001B000FD3D0C9458310C9436380C94E43D0C946D
:1001C0009A200C941E3E0C94F7100C9447340C9417
:1001D000EC350C94E33A0C94EF3D0C94073E0C94F0
:1001E000A5330C944D1B0C9486050C9442310C9451
:1001F00029120C94A8150C94B53A0C944F120C9437
:1002000042090C947D290C94FC3A0C945C1B0C94D0
:10021000AD3A0C94C13A0C9482290C9478290C9430
:100220008F360C94E7160C9403290C94D3160C9477
:1002300025340C9446370C94F93D0C9467160C94B5
:10024000EB3D0C94E73D0C94DA3D0C94CE3A0C94C3
:10025000FB100C9480050C94E03D0C940B3E0C9428
:1002600067310C94DA200C94EF3A0C9499360C9484
:10027000531B0C94033E0C94153E0C9498330C9431
:10028000193E0C943C37496E6974206175746F7027
:10029000696C6F7420636F6D706C65746500496E76
:1002A0006974206175746F70696C6F742E2E73653C
:1002B00074206C696D6974732E2E00496E69742008
:1002C0006175746F70696C6F742E2E7374617274C3
:1002D000205049442E2E00496E6974206175746F58
:1002E00070696C6F742E2E002C002C4C4C333A002D
:1002F0002C4C55333A002C4C4C323A002C4C553295
:100300003A002C4C4C313A002C4C55313A002C53CD
:10031000544B3A002C5342333A002C5342323A00A9
:100320002C5342313A002C5342303A002C47505360
:100330003A002C575A4A3A005549443A4D454741EC
:100340002C4150583A0021215645523A312E392C31
:1003500000536574757020636F6D706C6574652EE5
:100360002E0053746172742074696D65722E2E00B4
:1003700053746172742077696E642E2E0053746119
:100380007274206E6D6561205478202D206F6E2070
:1003900070696E732034362054782C203438205203
:1003A0007820617420005374617274206E6D6561F1
:1003B0002054782E2E005374617274206E6D656126
:1003C000205278202D2073657269616C342061742D
:1003D000200043535F50494E204F555450555420F0
:1003E0003D20484947480043535F50494E207365BC
:1003F0007420746F204F55545055540053746172DB
:1004000074205350492075617274732E2E005374FA
:10041000617274206E6D6561205278202D207365A5
:100420007269616C332061742000537461727420AE
:100430006E6D6561205278202D2073657269616C44
:10044000322061742000537461727420736561748A
:10045000616C6B202D2073657269616C3220617450
:100460002034383030005374617274204750532068
:100470005278202D2073657269616C31206174207F
:1004800000496E697469616C697A696E672E2E0025
:1004900024504D544B3235312C0024504D544B33A5
:1004A00031342C302C312C302C312C312C312C305F
:1004B0002C302C302C302C302C302C302C302C305C
:1004C0002C302C302C302C302A32380024504D5413
:1004D0004B3232302C313030302A31460053657483
:1004E00074696E672047505320746F204D54454BFC
:1004F0005F33333239002C382C312C302A00245011
:100500005352463130302C312C0024505352463156
:1005100030352C302A334600245053524631303384
:100520002C30342C30302C30312C30312A32310008
:1005300024505352463130332C30332C30302C324F
:10054000302C30312A32350024505352463130336A
:100550002C30322C30302C30352C30312A323300D4
:1005600024505352463130332C30302C30302C3024
:10057000352C30312A323100245053524631303339
:100580002C30312C30302C30302C30312A323500A8
:1005900024505352463130332C30352C30302C30EF
:1005A000302C30312A32310024505352463130350C
:1005B0002C312A33450053657474696E67204750A7
:1005C0005320746F20454D5F3430364100536574BD
:1005D00074696E672047505320746F2047454E451D
:1005E0005249430053657474696E67204750532025
:1005F000636F6E6669672E2E2E002020206465666C
:1006000061756C7420746F20343830302E2E0046A3
:1006100041494C4544004F4B20617420002020206C
:10062000747279206175746F62617564202E2E205A
:1006300000202064657465637465642070756C7354
:10064000652072617465203D20002C542A002448E6
:10065000434844542C002C4E2C412A002E302C525E
:100660002C002457494D57562C0053504920696E91
:10067000697420636F6D706C657465005350492018
:10068000554152542072657365740053504920736C
:10069000746172746564004D756C74695365726938
:1006A000616C3A3A626567696E0000000A0B0209E4
:1006B0000C0D0E08070304010000000000000000FC
:1006C000000000000000000000000000000000002A
:1006D00000000000000012111000000000000000E7
:1006E000000000000000000000000000000000000A
:1006F0000102102020080810204010204080020134
:100700000201080402010102040810204080804018
:100710002010080402018004020180402010080417
:1007200002010804020101020408102040800102B5
:10073000040810204080050505050705080808087D
:10074000020202020A0A0808040404040101010169
:100750000101010103030303030303030407070764
:100760000C0C0C0C0C0C0C0C020202020606060609
:10077000060606060B0B0B0B0B0B0B0B00002000E9
:100780002300260029002C002F0032000001000069
:1007900003010601090100002200250028002B00AA
:1007A0002E003100340002010000050108010B0198
:1007B00000002100240027002A002D003000330013
:1007C00001010000040107010A014E414E494E4952
:1007D0005459494E46CDCCCC3D0AD7233C17B7D10E
:1007E0003877CC2B329595E6241FB14F0A000020B4
:1007F000410000C84200401C4620BCBE4CCA1B0E33
:100800005AAEC59D740042096716881A9A20EC35C5
:1008100099364637F3375609D31611241FBECFEF4A
:10082000D1E2DEBFCDBF00E00CBF13E0A0E0B2E03C
:10083000E0EFFDE800E00BBF02C007900D92A03B87
:10084000B107D9F72EE0A0EBB3E001C01D92A338A9
:10085000B207E1F718E0C6E1D8E000E006C0229751
:100860000109FE010BBF0E943543C630D10780E06D
:100870000807A9F70E94923C0C94E6460C940000ED
:100880002DE032E0FC013183208308952DE032E039
:10089000FC01318320830C94A13CFC01CB012DE0B1
:1008A00032E03183208373836283148240E050E01E
:1008B000BA010E94E70E61E088E10E941F3E61E0FC
:1008C0008AE10E941F3E61E08CE10E941F3E61E0D0
:1008D0008EE10E941F3E60E082E40C941F3ECF92A6
:1008E000DF92EF92FF92CF93DF93EC018A819B819D
:1008F0000E942E10882389F08A819B810E948B0D93
:100900006B017C010E94ED3C21E0C616D706E8068B
:10091000F90608F020E0822F01C080E0DF91CF913E
:10092000FF90EF90DF90CF900895CF92DF92EF92FB
:10093000FF92CF93DF93EC010E946F048823A9F10B
:100940000E94ED3C6B017C018A819B810E94850D98
:10095000C61AD70AE80AF90A89EEC81683E0D8064B
:10096000E104F104C0F16C8188E10E94583E6C8181
:100970008AE10E94583E6C818CE10E94583E6C8155
:100980008EE10E94583E8C8191E089278C830E94E1
:10099000ED3CAB01BC018A819B81DF91CF91FF903F
:1009A000EF90DF90CF900C94E70E60E088E10E941A
:1009B000583E60E08AE10E94583E60E08CE10E946F
:1009C000583E60E08EE1DF91CF91FF90EF90DF9095
:1009D000CF900C94583EDF91CF91FF90EF90DF9035
:1009E000CF900895CF92DF92EF92FF92CF93DF9353
:1009F000EC018A819B810E94E20E882311F18A8199
:100A00009B810E94B60E18161906DCF48A819B8120
:100A10000E94C20E6B017C018A819B810E94B60EEE
:100A2000BC01882777FD8095982F0E947D409B010F
:100A3000AC01C701B6010E94DE41181614F461E052
:100A400001C060E08A819B81DF91CF91FF90EF90A0
:100A5000DF90CF900C946B100F931F93CF93DF9385
:100A6000EC0180E40E94A63D8C018A819B810E945A
:100A7000860E081719074CF08A819B810E947A0E16
:100A80008017910714F060E001C061E08A819B81CA
:100A90000E94D40F81E40E94A63D8C018A819B8133
:100AA0000E94980E081719073CF08A819B810E94CA
:100AB0008C0E8017910714F461E001C060E08A8118
:100AC0009B810E94E30F82E40E94A63D8C018A81F3
:100AD0009B810E94AA0E081719073CF08A819B810E
:100AE0000E949E0E8017910714F461E001C060E03F
:100AF0008A819B81DF91CF911F910F910C94F20F0E
:100B000025E132E0FC0131832083089525E132E0C4
:100B1000FC01318320830C94A13C2F923F924F9291
:100B20005F926F927F928F929F92AF92BF92CF927D
:100B3000DF92EF92FF920F931F93CF93DF93CDB786
:100B4000DEB728970FB6F894DEBF0FBECDBF1C01ED
:100B50006A017B0109831A832B833C83FC01828118
:100B600093810E94C10D9B01AC01C701B6010E9497
:100B7000153F2B013C01F101828193810E94C10D3F
:100B80009B01AC01C701B6010E94143F4B015C01FF
:100B9000F101828193810E94C10D9B01AC016981A9
:100BA0007A818B819C810E94153F6B017C01F10150
:100BB000828193810E94C10D9B01AC0169817A8180
:100BC0008B819C810E94143F69837A838B839C83F1
:100BD000F101828193810E94C70D6D837E838F8393
:100BE000988724E83AEB4CE358E3C301B2010E9432
:100BF000143F2D813E814F8158850E94DE41181699
:100C00006CF4F101828193810E94B30D9B01AC01D0
:100C1000C301B2010E94DB3F87FD8CC0F1018281DC
:100C200093810E94B30D2B013C0124E83AEB4CE385
:100C300058E3C501B4010E94153FA30192010E942F
:100C4000DB3F87FF0EC0F101828193810E94C70DB7
:100C50009B01AC01C501B4010E94DE4118160CF4E1
:100C600071C0F101828193810E94CD0D4B015C0125
:100C700024E83AEB4CE358E3C701B6010E94143F65
:100C8000A50194010E94DE4118166CF4F1018281E5
:100C900093810E94970D9B01AC01C701B6010E9490
:100CA000DB3F87FD57C0F101828193810E94970D40
:100CB0006B017C0124E83AEB4CE358E369817A81CB
:100CC0008B819C810E94153FA70196010E94DB3F0A
:100CD00087FF48C0F101828193810E94CD0D9B0165
:100CE000AC0169817A818B819C810E94DE4118165A
:100CF000CCF549815A816B817C81F101828193819C
:100D000028960FB6F894DEBF0FBECDBFDF91CF910E
:100D10001F910F91FF90EF90DF90CF90BF90AF9019
:100D20009F908F907F906F905F904F903F902F900B
:100D30000C94370FB301A201F101828193810E94CB
:100D40001D0F6CCFB501A401F101828193810E9436
:100D5000310F87CFB701A601F101828193810E94F3
:100D6000010FA1CF28960FB6F894DEBF0FBECDBFFE
:100D7000DF91CF911F910F91FF90EF90DF90CF9077
:100D8000BF90AF909F908F907F906F905F904F90AB
:100D90003F902F9008958F929F92AF92BF92CF92E3
:100DA000DF92EF92FF920F931F93CF93DF93EC01AB
:100DB0006A017B014801590140E050E064EB72E4B4
:100DC0008A819B810E941D0F40E050E064EB72EC31
:100DD0008A819B810E94310F40E050E064E373E41C
:100DE0008A819B810E94010F40E050E064E373EC34
:100DF0008A819B810E94370F8A819B810E94B90D55
:100E00002DE93BEF46E157E30E94E941AB01BC010C
:100E10008A819B810E942B0F95018401B701A60155
:100E2000CE010E948D05DF91CF911F910F91FF9010
:100E3000EF90DF90CF90BF90AF909F908F900895EC
:100E4000CF92DF92EF92FF920F931F93CF93DF9396
:100E5000EC018B0185E192E0998388837B836A832F
:100E6000CB010E94A50D6B017C01C8010E949D0D64
:100E7000AB01BC0197018601CE010E94CB06DF9138
:100E8000CF911F910F91FF90EF90DF90CF90089539
:100E90004F925F926F927F928F929F92AF92BF928A
:100EA000CF92DF92EF92FF920F931F93CF93DF9336
:100EB00000D01F92CDB7DEB74C01FC018281938137
:100EC0000E94D80E882309F4D2C00E94ED3C2B0169
:100ED0003C01F401828193810E94490E461A570A0F
:100EE000680A790AF1EE4F16F3E95F06F4E06F063F
:100EF000710438F0F401828193810E94D80E81112F
:100F00008DC0F401828193810E94690E882309F4C7
:100F1000AEC0F401828193810E94590E5B016C0185
:100F2000F401828193810E94510E2B013C01F40156
:100F3000828193810E94A50D9B01AC01F401828105
:100F4000938129833A834B835C830E949D0D8301A7
:100F5000720129813A814B815C810E940318AB01A7
:100F6000BC01F401828193810E94FB0EF401828115
:100F700093810E94910D2B013C01F40182819381A8
:100F80000E94AD0D9B01AC01C301B2010E94DE4184
:100F9000181664F4F401828193810E94910DAB01D3
:100FA000BC01F401828193810E94170FF4018281B8
:100FB00093810E94590E2B013C01F401828193819F
:100FC0000E94510EAB01BC0193018201C4010E9439
:100FD0008D05F401828193810E94D80E882369F1E6
:100FE000F401828193810E94910D2B013C01F40157
:100FF000828193810E94B90D9B01AC01C301B201B2
:101000000E94DE411816CCF440E050E0BA01F40131
:10101000828193810E94ED0E61E010C040E050E0BB
:10102000BA01F401828193810E94ED0E61E0F40126
:10103000828193810E94F80E64CF60E0F401828186
:1010400093810F900F900F900F90DF91CF911F9190
:101050000F91FF90EF90DF90CF90BF90AF909F9057
:101060008F907F906F905F904F900C94F80E0F9040
:101070000F900F900F90DF91CF911F910F91FF90E4
:10108000EF90DF90CF90BF90AF909F908F907F9028
:101090006F905F904F900895CF93DF93EC018A811A
:1010A0009B810E94510EAB01BC018A819B810E94F1
:1010B000070F8A819B810E94590EAB01BC018A8176
:1010C0009B810E940F0F40E050E0BA018A819B8112
:1010D000DF91CF910C94170F0F931F93CF93DF9352
:1010E000EC018B0181960E94012118A30F8FDF91E3
:1010F000CF911F910F9108958F929F92AF92BF92BF
:10110000CF92DF92EF92FF920F931F93CF93DF93D3
:10111000CDB7DEB7E7970FB6F894DEBF0FBECDBFF1
:101120004C01FC01168E158E148E138E67ED72E045
:1011300080EF9BE00E94B638F401878D90A10E9459
:10114000CC10AB01BC0189EF93E00E94302A64E629
:1011500070E080E090E00E941C3DF401878D90A13A
:101160000E94D90D20E030E044E354E40E94153F92
:101170006B017C01F4016083718382839383878D8B
:1011800090A10E94F40D9B01AC01C701B6010E9421
:10119000153FF4016483758386839783878D90A1BF
:1011A0000E94D30DF401608771878287938711E0D5
:1011B000108B6BEB72E080EF9BE00E94B638A401CD
:1011C000485F5F4FB4016C5F7F4F1F921F938FE3A7
:1011D0008F9385E08F938EE18F9388EB8F938AE0D6
:1011E000A82E87EDB82E83EAC82E8DE3D82E16E6FA
:1011F000E12EFE2C06EE1EE39401CE0101960E9424
:10120000372487E3FE013196D401919601900D9227
:101210008A95E1F76EE972E080EF9BE00E94B638B4
:10122000F1E28F0E911C00E010E024E832E440E08F
:1012300050E0BA01C4010E941F2364E670E0C401BB
:101240000E94D72266E872E080EF9BE00E94B638E9
:101250000F900F900F900F900F900F90E7960FB692
:10126000F894DEBF0FBECDBFDF91CF911F910F91DC
:10127000FF90EF90DF90CF90BF90AF909F908F90B6
:101280000895089540E063E489EF93E00E94BE284A
:1012900069EF73E084ED93E00E940B2F20E841E3B7
:1012A00064ED73E082EB93E00C94872A82EB93E089
:1012B0000C94C72A0F931F93CF93DF93EC018C01FB
:1012C0000F5E1F4F89EF93E00E947D29892B21F14A
:1012D00089EF93E00E9478292D8D3E8DFE01E20F6B
:1012E000F31F818B2F5F3F4F3E8F2D8F8A3029F068
:1012F0008D3019F0213331052CF3FE01E20FF31F7D
:10130000118AB80180EF9BE00E94C8381E8E1D8EA6
:10131000F80111821082D6CFDF91CF911F910F91EA
:1013200008954F925F926F927F92AF92BF92CF9249
:10133000DF92EF92FF920F931F93CF93DF9300D032
:1013400000D0CDB7DEB75C01FC01878D90A10E9473
:10135000551085010F5D1F4F882309F4DEC0C501BC
:101360000E945A0961E070E0C8010E94E523F5017E
:10137000878D90A10E94D90D20E030E044E354E431
:101380000E94153F6B017C01F501608371838283AC
:101390009383878D90A10E94F40D9B01AC01C7013E
:1013A000B6010E94153FF501648375838683978398
:1013B000C8010E940221F50124853585468557859F
:1013C00060857185828593850E94143F6B017C0145
:1013D00020E030E0A9010E94DE41181624F0F7FA5F
:1013E000F094F7F8F094F501878D90A10E94350EE6
:1013F000BC01882777FD8095982F0E947D409B0136
:10140000AC01C701B6010E94DE4118160CF09EC067
:10141000F5018089078D10A1C084D184E284F38412
:101420004484558466847784A3019201882309F15A
:10143000C701B6010E94DE4118160CF1A30192010A
:10144000C701B6010E94DB3F87FF3FC0F501108A4C
:10145000C8010E943B0EBC01882777FD8095982F1C
:101460000E947D409B01AC01C701B6010E94143F60
:1014700027C0C701B6010E94DB3F87FF06C0F50108
:10148000C486D586E686F78620C0A3019201C701EF
:10149000B6010E94DE411816C4F481E0F501808B8C
:1014A000C8010E943B0EBC01882777FD8095982FCC
:1014B0000E947D409B01AC01C701B6010E94153F0F
:1014C000F5016487758786879787F501448555857B
:1014D00066857785878D90A10E946C0FF501878DB9
:1014E00090A10E94410E2B013C0120E030E048EC2D
:1014F00052E4F50164857585868597850E94E941EA
:101500000E944A40AB01BC01E12CF12C9301820105
:1015100082EB93E00E94462D19C060E070E0C801A4
:1015200026960FB6F894DEBF0FBECDBFDF91CF91E8
:101530001F910F91FF90EF90DF90CF90BF90AF90F1
:101540007F906F905F904F900C94E52326960FB696
:10155000F894DEBF0FBECDBFDF91CF911F910F91E9
:10156000FF90EF90DF90CF90BF90AF907F906F9003
:101570005F904F900895FC011082118212821382B5
:101580001482158216821782108A118A128A138A8F
:10159000148A158A168A178A108E118E128E138E4F
:1015A000148E40E050E064EB72E4458F568F678FF5
:1015B00070A340E050E064EB72EC41A352A363A33C
:1015C00074A340E050E064E373E445A356A367A32B
:1015D00070A740E050E064E373EC41A752A763A713
:1015E00074A715A683E482AB13AA14AA15AA16AA97
:1015F00040E050E064E072E447AB50AF61AF72AFDF
:1016000013AE40E050E068EC72E444AF55AF66AF13
:1016100077AFDF01A05CBF4F40E050E060E271E4D3
:101620004D935D936D937C93139714964D935D93B7
:101630006D937C931397149640E850E060E070E05F
:101640004D935D936D937C9313971086118612864C
:101650001386148615861686178614961C92119684
:101660001D921D921D921C92139714961D921D920D
:101670001D921C921397149686E58C9311961D92D9
:101680001D921D921C92139714961D921D921D92ED
:101690001C92139714961D921D921D921C921397E3
:1016A00014961D921D921D921C92139714961C92D3
:1016B00011961C9211961C9211961C92A55ABF4F1E
:1016C00021E034E011963C932E9312968FEF9FEF1A
:1016D00011969C938E93AC55B1091C92A25ABF4FA0
:1016E00011963C932E93129611969C938E93AF5520
:1016F000B1091C92AF59BF4F11963C932E9312968D
:1017000011969C938E93A256B1091D921D921D9223
:101710001C92139714961D921D921D921C92139762
:10172000149611961C921E92129611961C921E925D
:10173000129611961C921E9212961C9211961D9250
:101740001D921D921C92139714961D921D921D922C
:101750001C921397149640E050E060E272E44D93BF
:101760005D936D937C93139714961C9211961C9223
:10177000119611961C921E92129611961C921E9210
:10178000169640E050E060E87FE34D935D936D93E3
:101790007C93139714961C92119640EE53E964E0E3
:1017A00070E04D935D936D937C93139714961C9208
:1017B00011961C92119683E690E011969C938E935D
:1017C00012961C92119640E050E46CE176E44D9341
:1017D0005D936D937C931397149611961C921E92B1
:1017E000129681E090E011969C938E93129640E0C1
:1017F00056E960E070E04D935D936D937C93139791
:1018000014964D935D936D937C931397149640E8D3
:1018100055E260E070E04D935D936D937C93139778
:1018200014964D935D936D937C93139714964D93FB
:101830005D936D937C93139718964D935D936D9381
:101840007C93139714961C92E053FF4F8DE090E029
:101850009183808308950F931F93CF93DF938C011F
:10186000EB0166E473E0CE010E94743868E373E034
:10187000CE010E94743862E373E0CE010E94743896
:10188000F801ED55FF4F608171814AE050E0CE01D3
:101890000E947D396CE273E0CE010E947438F80139
:1018A000EB55FF4F608171814AE050E0CE010E940C
:1018B0007D3966E273E0CE010E947438F801E95583
:1018C000FF4F40815181628173812AE030E0CE0177
:1018D0000E94333960E273E0CE010E947438F8014F
:1018E000E555FF4F40815181628173812AE030E0EC
:1018F000CE010E9433396AE173E0CE010E94743850
:10190000F801E155FF4F40815181628173812AE0E6
:1019100030E0CE010E94333964E173E0CE010E94D1
:101920007438F801ED54FF4F408151816281738119
:101930002AE030E0CE010E9433396EE073E0CE0140
:101940000E947438F801ED53FF4F608170E04AE067
:1019500050E0CE010E947D3968E073E0CE010E9424
:101960007438F801EC53FF4F608171814AE050E018
:10197000CE010E947D3962E073E0CE010E9474388E
:10198000F801EA53FF4F608171814AE050E0CE01D7
:101990000E947D396CEF72E0CE010E947438F8012C
:1019A000E853FF4F608171814AE050E0CE010E9410
:1019B0007D3966EF72E0CE010E947438F801E6537B
:1019C000FF4F608171814AE050E0CE010E947D3975
:1019D00060EF72E0CE010E947438F801E453FF4FCB
:1019E000608171814AE050E0CE010E947D396AEE4B
:1019F00072E0CE010E947438F801E253FF4F60811B
:101A000071814AE050E0CE010E947D3968EE72E0BB
:101A1000CE010E94B63880E090E0DF91CF911F9117
:101A20000F9108950F931F93CF93DF93EC01FC0167
:101A3000E053FF4F408160E070E08EE29BE00E9447
:101A40003E31FE01EF52FF4F408161E070E08EE2D7
:101A50009BE00E943E31C558DF4F64E070E0499141
:101A60008B010F5F1F4F8EE29BE00E943E310935D4
:101A7000110511F0B801F3CFDF91CF911F910F91B4
:101A80000895EF92FF920F931F93CF93DF931F92CE
:101A90001F92CDB7DEB78C0160E070E08EE29BE074
:101AA0000E943B31898361E070E08EE29BE00E94FE
:101AB0003B318A83F801E053FF4F29813A818081CD
:101AC00091812817390719F0C8010E94120D055895
:101AD0001F4F64E070E07B018FEFE81AF80A8EE296
:101AE0009BE00E943B31F80181938F01F9E5EF16ED
:101AF000F10411F0B701EFCF0F900F90DF91CF916C
:101B00001F910F91FF90EF900895FC01608171810A
:101B1000828193810895FC0164817581868197811A
:101B20000895FC0164897589868997890895FC0167
:101B300065A176A187A190A5089585589F4FFC01C6
:101B40006081718182819381089581589F4FFC014A
:101B500060817181828193810895FC01608D718D16
:101B6000828D938D0895FC01658D768D878D90A172
:101B700008958D579F4FFC0160817181828193810F
:101B80000895FC0160897189828993890895FC0117
:101B900061A172A183A194A10895FC0161A572A520
:101BA00083A594A50895FC0167A970AD81AD92ADA0
:101BB0000895FC0163A974A985A996A90895FC015B
:101BC00022A9273559F4EA58FF4F6081718188278F
:101BD00077FD8095982F0E947D400895FC016085D7
:101BE0007185828593850895CF92DF92EF92FF925F
:101BF000CF93DF93EC010E94DF0D9B01AC016BA939
:101C00007CA98DA99EA90E94143F6B017C0120E054
:101C100030E044E353E40E94DE4118167CF020E0FB
:101C200030E044E353ECC701B6010E94DB3F87FF7D
:101C30000AC020E030E044EB53E408C020E030E08C
:101C400044EB53EC03C020E030E0A901C701B6012A
:101C50000E94153F6EA77FA788AB99ABDF91CF910C
:101C6000FF90EF90DF90CF90089587579F4FFC0132
:101C700080819181089585579F4FFC0180819181DA
:101C8000089583579F4FFC01608171818281938108
:101C90000895835B9F4FFC016081718182819381F4
:101CA00008958A5A9F4FFC016081718182819381DE
:101CB0000895865A9F4FFC016081718182819381D2
:101CC00008958F569F4FFC016081718182819381BD
:101CD00008958B5A9F4FFC0180810895FC01608517
:101CE0007185828593850895FC0164857585868557
:101CF000978508958C539F4FFC01808191810895B1
:101D00008C539F4FFC017183608308958A539F4FCA
:101D1000FC0180819181089588539F4FFC0180814F
:101D20009181089588539F4FFC01718360830895CA
:101D300086539F4FFC0180819181089584539F4F6A
:101D4000FC0180819181089584539F4FFC01718330
:101D50006083089582539F4FFC0180819181089593
:101D60008D559F4FFC0180819181089584569F4F2E
:101D7000FC018081918108958A589F4FFC018081E8
:101D80009181089580599F4FFC016081718182810A
:101D90009381089581569F4FFC01608171818281FA
:101DA000938108958C589F4FFC0180819181089503
:101DB00089579F4FFC0180810895845B9F4FFC01F0
:101DC0008081089582569F4FFC0180810895FC0117
:101DD00040835183628373830895FC014483558358
:101DE00066837783089589579F4FFC016083089528
:101DF000FC01648F0895FC01448B558B668B778BB7
:101E00000895FC0145A356A367A370A708958558BC
:101E10009F4FFC01408351836283738308958158EF
:101E20009F4FFC0140835183628373830895FC01BB
:101E3000408F518F628F738F0895FC01458F568FAD
:101E4000678F70A308958D579F4FFC014083518386
:101E5000628373830895FC01408B518B628B738B7B
:101E60000895FC0141A352A363A374A30895FC0148
:101E700041A752A763A774A70895CF93DF93EC01FE
:101E8000673511F0633429F56AAB673581F4FE01DB
:101E9000EA58FF4F60817181882777FD8095982FE0
:101EA0000E947D406BAB7CAB8DAB9EAB0AC06334B4
:101EB00041F4488559856A857B854BAB5CAB6DAB3E
:101EC0007EAB40E050E064E072E44FAB58AF69AFE6
:101ED0007AAFDF91CF910895FC0147AB50AF61AF6E
:101EE00072AF0895CF93DF93EC01CB01BA010E944A
:101EF0004A40CB0188599E4F68E671E00E94CF426C
:101F0000BC01882777FD8095982F0E947D406BABA0
:101F10007CAB8DAB9EABDF91CF9108958E599F4FD7
:101F2000FC0140835183628373830895845B9F4FD8
:101F3000FC0160830895835B9F4FFC0140835183C4
:101F40006283738308958A5A9F4FFC0140835183B3
:101F5000628373830895865A9F4FFC0140835183A7
:101F6000628373830895825A9F4FFC01408351839B
:101F70006283738308958B5A9F4FFC016083089599
:101F80008F5A9F4FFC01408351836283738308956E
:101F9000FC0140875187628773870895FC0144875D
:101FA0005587668777870895CF93DF931F92CDB7C4
:101FB000DEB76983298187599F4FFC0120830F90E9
:101FC000DF91CF910895CF93DF931F92CDB7DEB706
:101FD0006983298186599F4FFC0120830F90DF91EF
:101FE000CF910895CF93DF931F92CDB7DEB769836A
:101FF000298185599F4FFC0120830F90DF91CF915C
:1020000008958D559F4FFC0171836083089582561A
:102010009F4FFC016083089584569F4FFC0171839C
:10202000608308958A589F4FFC01718360830895EF
:1020300088589F4FFC0171836083089580599F4F9A
:10204000FC014083518362837383089584599F4FB9
:10205000FC0140835183628373830895FC01E65839
:10206000FF4F20812223F9F0739720812223D9F09A
:10207000319720812223B9F0FC01248D222399F08D
:1020800023AD222381F0E859FF4F2081222359F00C
:1020900031962081222339F031962081222319F0B4
:1020A00031968081089580E00895FC0185A508950A
:1020B0001F93CF93DF93EC01162F6AA90E943D0F67
:1020C0001DA7DF91CF911F9108958C589F4FFC0160
:1020D00071836083089586589F4FFC016083089543
:1020E0008B559F4FFC018081918108958B559F4FA7
:1020F000FC0171836083089589559F4FFC016081C5
:10210000718182819381089589559F4FFC0140839D
:10211000518362837383089585559F4FFC016081CD
:10212000718182819381089585559F4FFC01408381
:10213000518362837383089581559F4FFC016081B1
:10214000718182819381089581559F4FFC01408365
:1021500051836283738308958D549F4FFC01608186
:1021600071818281938108958D549F4FFC0140833A
:10217000518362837383089589549F4FFC0160816A
:10218000718182819381089585549F4FFC01608104
:10219000718182819381089581549F4FFC016081F8
:1021A00071818281938108958D539F4FFC018081BD
:1021B00008958D539F4FFC016083089581E08093C3
:1021C000B00A8091AE0A9091AF0A01969093AF0A3F
:1021D0008093AE0A8091AE0A9091AF0A64E170E0FC
:1021E0000E94CF429093AF0A8093AE0A08958BEF7E
:1021F00094E00C94ED1D8BEF94E00C942F1E8CED6D
:1022000099E00E94410D8CED99E00E947C10AB0199
:10221000BC0126E080EF9BE00E94043561E874E099
:1022200080EF9BE00E94B63885EF94E00E94A21AEE
:1022300066E674E080EF9BE00E9474388CED99E0D4
:102240000E948C10AB01BC012AE030E080EF9BE0E3
:102250000E9485398CED99E00E948C10AB01BC0185
:1022600026E08DE89CE00E9404358CED99E00E9408
:10227000D410882361F066E474E080EF9BE00E9454
:10228000B63827E040EC52E160E070E019C06AE245
:1022900074E080EF9BE00E9474388CED99E00E941E
:1022A0009C10AB01BC012AE030E080EF9BE00E9473
:1022B00085398CED99E00E949C10AB01BC0126E0B1
:1022C0008AE29DE00E9404356EE074E080EF9BE0BE
:1022D0000E9474388CED99E00E94AC10AB01BC01F7
:1022E0002AE030E080EF9BE00E9485398CED99E098
:1022F0000E94AC10AB01BC0126E087EC9DE00E947F
:1023000004356CEF73E080EF9BE00E94B63868EE16
:1023100073E080E090E00E941C3D61E083E40E9455
:102320001F3E67EE73E080EF9BE00E94B63864E6E4
:1023300070E080E090E00E941C3D61E083E40E9438
:10234000583E62ED73E080EF9BE00E94B63866EB8A
:1023500073E080EF9BE00E9474388CED99E00E945E
:10236000BC10AB01BC012AE030E080EF9BE00E9492
:1023700085398CED99E00E94BC10AB01BC0187EE61
:1023800094E00E94302A64E670E080E090E00E94D1
:102390001C3D66EA73E080EF9BE00E94B63860E087
:1023A00080E30E941F3E61E08EE20E941F3E6DE7C7
:1023B00073E080EF9BE00E9474388CED99E00E94FE
:1023C000C410AB01BC012AE030E080EF9BE00E942A
:1023D00085398CED99E00E94C410AB01BC018BE9FA
:1023E00099E00E946A1B8FE894E00E947C0860E7F5
:1023F00073E080EF9BE00E94B63860E083E00E94CB
:102400001F3E43E050E067EF70E181E00E94983AA0
:1024100060E082E00E941F3E43E050E06BEF70E11D
:1024200080E00E94983A62E673E080EF9BE00E94B1
:10243000B6384EED50E164E670E080E090E00E9436
:10244000A0300E94AC3061E573E080EF9BE00C941B
:10245000B6388DE89CE00E949833892BF9F08DE81E
:102460009CE00E94B333682F85EF94E00E94EA1845
:1024700080930A04882369F382E398E00E943C2554
:10248000BC018BE999E00E947B1B82E398E00E94EB
:102490003C25BC0180EF9BE00C94C83808958AE28B
:1024A0009DE00E949833892B79F18CED99E00E9490
:1024B000D410882351F08AE29DE00E94B333682F44
:1024C00081E794E00E949C1CEACF8AE29DE00E9492
:1024D000B333682F8AE996E00E94D21A80930904E8
:1024E0008823E9F28AE996E00E944A1BBC018BE945
:1024F00099E00E947B1B8AE996E00E944A1BBC017E
:1025000080EF9BE00C94C838089587EC9DE00E9412
:102510009833892BF9F087EC9DE00E94B333682F44
:102520008EEC95E00E94D21A80930804882369F308
:102530008EEC95E00E944A1BBC018BE999E00E9459
:102540007B1B8EEC95E00E944A1BBC0180EF9BE058
:102550000C94C83808953F924F925F926F927F9289
:102560008F929F92AF92BF92CF92DF92EF92FF92A3
:102570000F931F93CF93DF93CDB7DEB7C25AD10924
:102580000FB6F894DEBF0FBECDBF4DB65EB66BE69C
:1025900073E00E94CC447C0183E9A82E83E0B82E2E
:1025A00090E4392EE114F10409F4B4C2F70101906A
:1025B0000020E9F78F01015011090E191F0904309D
:1025C000110508F4A7C2F701808198012450310950
:1025D0004901CDB6DEB6833209F02EC244E050E0A8
:1025E000B701CE0182569F4F0E94E944CE55DF4F7E
:1025F0001882C25AD040380135E0631A71088DB78D
:102600009EB7881999090FB6F8949EBF0FBE8DBF6B
:102610000DB71EB70F5F1F4FB7016B5F7F4FA30151
:10262000C8010E94D044F801E60DF71D108269E14F
:1026300072E0CE0182569F4F0E94D944892BB1F49B
:10264000C8010E94874461E0892B09F460E08CEDA9
:1026500099E00E94F30EC8010E948744019709F097
:1026600054C28BE894E00E944C084FC26EE172E0C5
:10267000CE0182569F4F0E94D944892BB1F48CED34
:1026800099E00E94B90D3B014C01C8010E948344AE
:102690009B01AC01C401B3010E94153FAB01BC0119
:1026A0008CED99E00E94230F30C263E272E0CE010C
:1026B00082569F4F0E94D944892B51F4C8010E9431
:1026C0008344AB01BC018CED99E00E94070F1DC251
:1026D00068E272E0CE0182569F4F0E94D944892B56
:1026E00051F4C8010E948344AB01BC018CED99E018
:1026F0000E940F0F0AC26DE272E0CE0182569F4F18
:102700000E94D944892B61F4C8010E94874461E08A
:10271000892B09F460E08CED99E00E945810E8C123
:1027200062E372E0CE0182569F4F0E94D944892B0A
:10273000C1F48CED99E00E94D90D3B014C01C80118
:102740000E94A5440E947D409B01AC01C401B301DD
:102750000E94153FAB01BC018CED99E00E94720F05
:10276000C7C167E372E0CE0182569F4F0E94D944F1
:10277000892B39F4F80160818CED99E00E943D0FBE
:10278000B7C16CE372E0CE0182569F4F0E94D944DC
:10279000892B61F4C8010E94874461E0892B09F408
:1027A00060E08CED99E00E940710AFC161E472E037
:1027B000CE0182569F4F0E94D944892B49F4C8010B
:1027C0000E948744BC018CED99E00E940C109DC1D1
:1027D00066E472E0CE0182569F4F0E94D944892B55
:1027E00049F4C8010E948744BC018CED99E00E9425
:1027F00001108BC16BE472E0CE0182569F4F0E94A4
:10280000D944892B49F4C8010E948744BC018CED4E
:1028100099E00E94800E79C160E572E0CE01825697
:102820009F4F0E94D944892B49F4C8010E948744D4
:10283000BC018CED99E00E94920E67C165E572E0E3
:10284000CE0182569F4F0E94D944892B49F4C8017A
:102850000E948744BC018CED99E00E94A40E55C1F2
:102860006AE572E0CE0182569F4F0E94D944892BBF
:1028700009F06EC08091F20B9091F30B9C838B83D7
:102880008091F40B9091F50BA091F60BB091F70BA2
:102890008D839E83AF83B8878091F80B9091F90B5D
:1028A000A091FA0BB091FB0B89879A87AB87BC8705
:1028B000BA82A9828091FC0B9091FD0B9E878D8737
:1028C0008091FE0B9091FF0B988B8F878091000C6D
:1028D0009091010C9A8B898B8091020C9091030C42
:1028E0009C8B8B8B8091040C9091050C9E8B8D8B17
:1028F0008091060C9091070C988F8F8B8091080C1B
:10290000898F8091090C8A8F80910A0C8B8F80911E
:102910000B0C8C8F80910C0C8D8FEDE0FCE0DE01B8
:102920005E96832D01900D928A95E1F7EDE4FCE02F
:10293000DE01A25ABF4F832D01900D928A95E1F7D7
:10294000BE016F5F7F4F8CED99E00E942B0CD0C0D1
:102950006FE572E0CE0182569F4F0E94D944892BC9
:1029600049F4C8010E948744BC018CED99E00E94A3
:102970007610CBC064E672E0CE0182569F4F0E9473
:10298000D944892B51F4C8010E94A544AB01BC0174
:102990008CED99E00E948410B8C069E672E0CE0127
:1029A00082569F4F0E94D944892B51F4C8010E943E
:1029B000A544AB01BC018CED99E00E949410A5C028
:1029C0006EE672E0CE0182569F4F0E94D944892B59
:1029D00051F4C8010E94A544AB01BC018CED99E003
:1029E0000E94A41092C063E772E0CE0182569F4F0E
:1029F0000E94D944892B51F4C8010E94A544AB011F
:102A0000BC018CED99E00E94B4107FC068E772E0D1
:102A1000CE0182569F4F0E94D944892B09F068C08D
:102A2000C8010E94874461E0892B09F460E08CEDC5
:102A300099E00E94D91069C043E050E0B701CE018F
:102A400082569F4F0E94E944CF55DF4F1882C15AEA
:102A5000D040035011092DB73EB7201B310B0FB6E4
:102A6000F8943EBF0FBE2DBF0DB71EB70F5F1F4FAF
:102A7000B7016C5F7F4FA401C8010E94D044F801E8
:102A8000E80DF91D10826DE772E0CE0182569F4F6E
:102A90000E94D944892B49F4C8010E948344AB01A8
:102AA000BC018CED99E00E94C80F61E872E0CE0194
:102AB00082569F4F0E94D944892B49F4C8010E9435
:102AC0008344AB01BC018CED99E00E94CE0F65E818
:102AD00072E0CE0182569F4F0E94D944892B41F467
:102AE000C8010E948744BC018CED99E00E94181037
:102AF0000FB6F894DEBE0FBECDBE6BE673E080E08D
:102B000090E00E94CC447C014DCD8CED99E00E9478
:102B1000120DEECF0FB6F8945EBE0FBE4DBECE5571
:102B2000DF4F0FB6F894DEBF0FBECDBFDF91CF9160
:102B30001F910F91FF90EF90DF90CF90BF90AF90DB
:102B40009F908F907F906F905F904F903F900895EF
:102B50001F93CF93DF93CDE0D4E014E680EF9BE0AA
:102B60000E949833892B61F180EF9BE00E94B33380
:102B700020910B0430910C04F901E35FFB4F80833B
:102B80002F5F3F4F30930C0420930B048A3029F0C1
:102B90008D3019F0233631050CF3F901E35FFB4F5B
:102BA00010826CE28DE094E00E94AB1210920C0453
:102BB00010920B04FE01812F11928A95E9F7CECF76
:102BC000DF91CF911F910895CF93DF93DC01FC013A
:102BD00001900020E9F7E81BF90B3297EC012196F0
:102BE00080E09E012A1B3B0B2E173F0718F499919A
:102BF0008927F7CFDF91CF91089587EE94E00E9467
:102C00007D29892BF9F087EE94E00E947829682FBE
:102C100082E095E00E94D21A80930704882369F32A
:102C200082E095E00E944A1BBC018BE999E00E947A
:102C30007B1B82E095E00E944A1BBC0180EF9BE079
:102C40000C94C83808958091B00A8823F1F18FE878
:102C500094E00E9491098091AE0A9091AF0A809110
:102C6000AE0A9091AF0A65E070E00E94CF42892BD6
:102C700081F48BEF94E00E94931E8BEF94E00E940E
:102C8000221F8BE999E00E947D1B8DEF94E00E944A
:102C900095048091AE0A9091AF0A6AE070E00E94BC
:102CA000CF42892B81F48BE894E00E9448078DEF96
:102CB00094E00E94F2048DEF94E00E942C058BE9D1
:102CC00099E00E94F31B1092B00A0C94FD158CED54
:102CD00099E00E94BB0A10929E0910929D0988EE0D
:102CE00093E0A0E0B0E080939F099093A009A093A7
:102CF000A109B093A20987E992E090939C0980937F
:102D00009B098CED99E09093A8098093A70960E056
:102D100070E082E398E00E94B22460E070E086E612
:102D200097E00E94C91A60E070E08AE996E00E948C
:102D3000C91A60E070E08EEC95E00E94C91A60E06C
:102D400070E082E095E00E94C91A6CED79E08DEFA9
:102D500094E00E944D046CED79E08BEF94E00E94CA
:102D6000AD1C4CED59E062E378E085EF94E00E9401
:102D7000F41641E063E487EE94E00E94BE286CED17
:102D800079E08FE894E00E946C086CED79E08BE8C4
:102D900094E00E9420074CED59E06AE27DE081E773
:102DA00094E00C94941C8BE894E00E9480058FE8DA
:102DB00094E00E94410985EF94E00E94E7168DEFB0
:102DC00094E00E9440048BE999E00C94551B2FE895
:102DD00032E0FC013183208308952FE832E0FC01CA
:102DE000318320830C94A13CFC018FE892E0918315
:102DF000808355834483738362830895CF92DF92E7
:102E0000EF92FF921F93CF93DF93162F60E0812FF5
:102E10000E941F3E61E0812F0E94583EC0E0D4E036
:102E200080E1C82E87E2D82EE12CF12C28E438EE80
:102E300041E050E060E0812F0E948E3E161617069A
:102E4000180619063CF46C157D058E059F0514F4D3
:102E50006B017C01219751F761E376E080EF9BE005
:102E60000E9474382AE030E0B701A60180EF9BE0B1
:102E70000E9485398CE0C816D104E104F104F4F114
:102E800084E1C816D104E104F104ECF18EE1C81626
:102E9000D104E104F104E4F188E2C816D104E104AC
:102EA000F104DCF18CE3C816D104E104F104D4F19F
:102EB00080E5C816D104E104F104CCF186E9C81616
:102EC000D104E104F104C4F18CE2C81681E0D80613
:102ED000E104F104B4F188E5C81682E0D806E10403
:102EE000F104A4F180EBC81684E0D806E104F104F3
:102EF00094F560EB74E080E090E030C060E072EC4C
:102F000081E090E02BC060E071EE80E090E026C0B0
:102F100060E076E980E090E021C060E870E780E062
:102F200090E01CC060E07BE480E090E017C060E4CB
:102F300078E380E090E012C060E875E280E090E025
:102F40000DC060EC72E180E090E008C060E679E0DE
:102F500080E090E003C060E070E0CB01DF91CF91B2
:102F60001F91FF90EF90DF90CF900895CF92DF9266
:102F7000EF92FF927C016DE176E080EF9BE00E9492
:102F8000743863E170E0C7010E94FE166B017C019A
:102F90001616170618061906C4F466E176E080EFE7
:102FA0009BE00E9474382AE030E0B701A60180EF70
:102FB0009BE00E94853926E0B701A6018DE89CE0E0
:102FC0000E940435B601C70119C06FE076E080EFBA
:102FD0009BE00E9474386AEF75E080EF9BE00E94EE
:102FE000B63826E040EC52E160E070E08DE89CE00D
:102FF0000E94043560EC72E180E090E0FF90EF9079
:10300000DF90CF9008954F925F926F927F928F9250
:103010009F92AF92BF92CF92DF92EF92FF920F9367
:103020001F93CF93DF93CDB7DEB760970FB6F894B9
:10303000DEBF0FBECDBF69837A838B839C83CA01B9
:10304000B90127013801A60195010E94143F25E32B
:103050003AEF4EE85CE30E94E9416B017C010E947B
:103060004C426D877E878F87988BC701B6010E947F
:10307000DF3F6D837E838F83988725E33AEF4EE8A9
:103080005CE369817A818B819C810E94E9416B01BB
:103090007C0125E33AEF4EE85CE3C301B2010E94F4
:1030A000E9412B013C01C701B6010E944C424B0192
:1030B0005C01C701B6010E94DF3F69837A838B837D
:1030C0009C83C301B2010E944C4269877A878B8737
:1030D0009C87C301B2010E94DF3F6B017C012985FF
:1030E0003A854B855C8569817A818B819C810E94C0
:1030F000E9412B013C01A7019601C501B4010E94E1
:10310000E9412D813E814F8158850E94E9419B0113
:10311000AC01C301B2010E94143F9B01AC010E94AB
:10312000E9412B013C012D853E854F855889C7011A
:10313000B6010E94E9419B01AC010E94E9419B015B
:10314000AC01C301B2010E94153F0E9456422B01FF
:103150003C0129853A854B855C85C501B4010E94F7
:10316000E9414B015C01A701960169817A818B815C
:103170009C810E94E9412D813E814F8158850E94AA
:10318000E9419B01AC01C501B4010E94153F9B01BF
:10319000AC01C301B2010E94883F26E73BE742EC45
:1031A0005AE40E94E94160960FB6F894DEBF0FBE64
:1031B000CDBFDF91CF911F910F91FF90EF90DF90E6
:1031C000CF90BF90AF909F908F907F906F905F90C7
:1031D0004F900895CF93DF93EC018A819B810E94E9
:1031E000DB2561E0892B09F460E08C819D810E94E0
:1031F000960F8C819D810E94DD0E882369F18A8162
:103200009B810E941325682F8C819D810E94BB0F9A
:103210008A819B810E9413258134F1F460E070E083
:103220008A819B810E943E25FC0182818235A1F02A
:1032300060E070E08A819B810E943E25FC018381D1
:103240008D3451F060E070E08A819B810E943E25C0
:10325000FC018481833431F48C819D81DF91CF9195
:103260000C94DD0E0E94ED3CAB01BC018C819D8174
:103270000E949B0F8A819B810E943625AB01BC0175
:103280008C819D810E948E0F8A819B810E941625D0
:10329000AB01BC018C819D810E94A30F8A819B811F
:1032A0000E941C25AB01BC018C819D810E94AB0F4B
:1032B0008C819D810E94610EAB01BC018A819B8142
:1032C0000E942225AB01BC018C819D810E94B30F1D
:1032D0008A819B810E940D25AB01BC018C819D815F
:1032E0000E94C00FB9CFDF92EF92FF920F931F930E
:1032F000CF93DF93CDB7DEB7A8970FB6F894DEBFB4
:103300000FBECDBF8C0164EE75E080EF9BE00E94A4
:10331000B638F801848195810E947010892B31F4B0
:103320006DEC75E080EF9BE00E94B638F801848177
:1033300095810E947010019709F07FC066EB75E0DF
:1033400080EF9BE00E94B63868EA75E08DE89CE06B
:103350000E94B63860E975E08DE89CE00E94B638BE
:1033600068E775E08DE89CE00E94B63860E675E09D
:103370008DE89CE00E94B63868E475E08DE89CE03A
:103380000E94B63860E375E08DE89CE00E94B63894
:1033900068E175E08DE89CE00E94B6386AE075E06F
:1033A0008DE89CE00E94B6381AA219A281E693E04B
:1033B00098A38F8FCE0101967C019CA38BA38EE1F5
:1033C00090E098A78FA3CE014F960E94F6206EEF53
:1033D00074E0CE014F960E947438F8018481958183
:1033E0000E948C10AB01BC012AE030E0CE014F9668
:1033F0000E94333966EF74E0CE014F960E94743814
:10340000C7010E94E415D82EFFE0F81728F060E30A
:10341000CE014F960E949B3840E150E06D2DCE01C9
:103420004F960E94A439B7018DE89CE00E94C838ED
:10343000B70180EF9BE00E94C838F8018481958134
:103440000E947010029709F055C06DED74E080EF96
:103450009BE00E94B6386CEC74E08DE89CE00E9422
:10346000B6386AE974E08DE89CE00E94B6381AA28A
:1034700019A281E693E098A38F8FCE0101967C017B
:103480009CA38BA38EE190E098A78FA3CE014F96CB
:103490000E94F62060E974E0CE014F960E947438D5
:1034A000F801848195810E948C10AB01BC012AE057
:1034B00030E0CE014F960E94333969E872E0CE01C8
:1034C0004F960E949938C7010E94E415182F803149
:1034D00028F460E3CE014F960E949B3840E150E013
:1034E000612FCE014F960E94A439B7018DE89CE070
:1034F0000E94C838A8960FB6F894DEBF0FBECDBFA5
:10350000DF91CF911F910F91FF90EF90DF90089581
:103510001092B40A1092B30A81E693E09093B20A33
:103520008093B10A8BEB9AE09093B60A8093B50A28
:1035300088E290E09093BA0A8093B90A81EB9AE00E
:103540000C94F620CF93DF93EC010E94B617AB01E9
:10355000BC018C819D810E9494108C819D810E9470
:10356000120DCE010E9473198DE89CE00E94253453
:103570008DE89CE00E9466358C819D810E948C10B4
:10358000AB01BC0126E08DE89CE0DF91CF910C946B
:103590000435FC01E853FF4F1182108232961182EC
:1035A000108208950F931F93CF93DF93DC01A853EC
:1035B000BF4F4D915C911197FC01E653FF4F42368E
:1035C000510514F0118210826A3011F06D3011F43F
:1035D00011821082643261F424E6EC0119922A957A
:1035E000E9F7EC01688381E090E08D939C9345C0FE
:1035F0002081318121303105E9F02CF4211531058C
:1036000009F442C03DC02230310561F1233031055B
:10361000B9F5FC01E40FF51F60834E5F5F4F4D93DA
:103620005C931182BC018C599F4F0E94E24421E0BF
:1036300030E02AC08A010F5F1F4F11961C930E9332
:103640009C01240F351FE90168834E5F5F4FE8013D
:10365000C80FD91F4D935C9368836A3299F482E056
:1036600090E00BC09A012F5F3F4F2D933C93DC01FC
:10367000A40FB51F6C9383E090E09183808302C018
:103680001182108220E030E0C901DF91CF911F91BB
:103690000F9108958C599F4F0895862F0E94C8312D
:1036A00081E090E008950C948B3223E833E0FC0134
:1036B000318320830C948433CF93DF93EC0183E830
:1036C00093E0998388830E948433CE01DF91CF9168
:1036D0000C94A13C9A01AB01CA01B901969587955A
:1036E000779567957C5D8B409F4F0E94E342CA01AE
:1036F000B9010C9476310C94C838EF92FF920F9375
:103700001F93CF93DF93CDB7DEB72A970FB6F89408
:10371000DEBF0FBECDBF8C017C018EE0E80EF11C38
:103720001C821B8281E693E09A838983FE82ED826C
:103730008EE190E09A878987CE0101960E94F6205B
:1037400062E676E0CE0101960E947438F801848525
:1037500095850E94BC0E4AE050E0BC01CE01019666
:103760000E947D396CE576E0CE0101960E947438A6
:10377000F801848595850E94C20EAB01BC0122E050
:1037800030E0CE0101960E94963A66E576E0CE01E1
:1037900001960E947438C7010E94E415005C1F4F17
:1037A000F8018083803128F460E3CE0101960E9405
:1037B0009B3840E150E0F8016081CE0101960E9403
:1037C000A439B70180EF9BE00E94C8382A960FB653
:1037D000F894DEBF0FBECDBFDF91CF911F910F9147
:1037E000FF90EF900895AF92BF92CF92DF92EF9249
:1037F000FF920F931F93CF93DF93CDB7DEB72A9736
:103800000FB6F894DEBF0FBECDBF8C01FC018485DE
:1038100095850E94740E20E030E0A9010E94DB3FF4
:10382000882309F470C05801FCE2AF0EB11C1C8261
:103830001B8281E693E09A838983BE82AD8284E114
:1038400090E09A878987CE0101960E94F6206EE467
:1038500076E0CE0101960E947438F8018485958542
:103860000E946E0E6B017C01F801848595850E9493
:10387000740E9B01AC01C701B6010E94143FAB015D
:10388000BC0122E030E0CE0101960E94963A6AE443
:1038900076E0CE0101960E9474387801F0E4EF0ED4
:1038A000F11CF701108281E090E0F5010190002009
:1038B000E9F7EA19FB0932978E179F0750F4F801D0
:1038C000E80FF91F24A5F7013081232720830196F3
:1038D000ECCFF7018081803128F460E3CE010196BE
:1038E0000E949B3840E150E0F7016081CE010196D3
:1038F0000E94A439B50180EF9BE00E94C838B50151
:10390000C8010E94C8382A960FB6F894DEBF0FBED1
:10391000CDBFDF91CF911F910F91FF90EF90DF907E
:10392000CF90BF90AF900895FC01578B468B718F5D
:10393000608F118210820895FC01A081B181A80FCF
:10394000B91F12966C938081918143972CF48081EA
:1039500091810196918380830895CF93DF93EB014A
:10396000FC01718360830E94F93C6093150B709396
:10397000160B8093170B9093180B4091150B5091D9
:10398000160B6091170B7091180B4093110B50930D
:10399000120B6093130B7093140B1092FD0A10928C
:1039A000FE0A1092FF0A1092000B81E08093FC0A3D
:1039B0001092E60A1092E70A8091E30A9091E40AD5
:1039C00020E03091E50A231760F4FC0134E0239FE6
:1039D000E00DF11D112410821182128213822F5FDB
:1039E000F0CFCE010E94B60E843691053CF063E61E
:1039F00070E0CE01DF91CF910C940C10DF91CF914C
:103A00000895CF92DF92EF92FF920F931F93CF937F
:103A1000CB01BA0197FF09C090958095709561958B
:103A20007F4F8F4F9F4FC0E001C0C1E0683621E05B
:103A300072078105910534F028E631E040E050E05E
:103A40000E940543653B71058105910534F0645B77
:103A500071098109910921E0C2276B357105810542
:103A6000910564F004EB10E020E030E0680179019A
:103A7000C61AD70AE80AF90AC701B601660F771F06
:103A8000FB01E955FD4F60817181CC2319F080E085
:103A900090E00CC0CB01A0E0B0E09C01AD01662736
:103AA0007727CB01621B730B840B950BCF911F9172
:103AB0000F91FF90EF90DF90CF900895465A5F4F9F
:103AC0006F4F7F4F0C94011D4F925F926F927F92C8
:103AD0008F929F92AF92BF92CF92DF92EF92FF921E
:103AE0000F931F93CF93DF938C016090E60AC091F0
:103AF000E30AD091E40A712CC12CD12C7601812CDF
:103B0000912C54017614C1F0488159816A817B81DE
:103B1000C8010E945E1D860E971EA81EB91E4991FF
:103B2000599169917991C8010E94011DC60ED71E55
:103B3000E81EF91E7394E6CF81149104A104B10428
:103B400029F4C114D104E104F104A1F1662D70E05F
:103B500080E090E00E947D402B013C01C501B40152
:103B60000E947D4020E830E040E857E30E94E941B0
:103B7000A30192010E94E23F4B015C01C701B60123
:103B80000E947D4020E830E040E857E30E94E94190
:103B9000A30192010E94E23FA50194010E94883F87
:103BA00021EE3EE245E652E40E94E9410E944A408D
:103BB000CB0102C080E090E0DF91CF911F910F9187
:103BC000FF90EF90DF90CF90BF90AF909F908F903D
:103BD0007F906F905F904F9008950F931F930E9476
:103BE000ED3C00911D0B10911E0B20911F0B30918D
:103BF000200B601B710B820B930B603171058105EB
:103C0000910550F18091FC0A8823E1F08091150B19
:103C10009091160BA091170BB091180B8093110B7C
:103C20009093120BA093130BB093140B0E94F93CCA
:103C30006093150B7093160B8093170B9093180BD2
:103C40001092FC0A0E94ED3C60931D0B70931E0BBA
:103C500080931F0B9093200B1F910F9108950F934A
:103C60001F930E94ED3C0091190B10911A0B2091AB
:103C70001B0B30911C0B601B710B820B930B603183
:103C800071058105910508F44BC08091FC0A8111F2
:103C90003DC08091050B9091060BA091070BB09150
:103CA000080B8093010B9093020BA093030BB0932E
:103CB000040B0E94F93C6093050B7093060B8093F4
:103CC000070B9093080B8091110B9091120BA09110
:103CD000130BB091140B80930D0B90930E0BA093CC
:103CE0000F0BB093100B8091150B9091160BA091B8
:103CF000170BB091180B8093090B90930A0BA093AC
:103D00000B0BB0930C0B81E08093FC0A0E94ED3CFE
:103D10006093190B70931A0B80931B0B90931C0BE1
:103D20001F910F910895CF92DF92EF92FF92F89436
:103D300080910D0B90910E0BA0910F0BB091100B79
:103D4000C090090BD0900A0BE0900B0BF0900C0B7D
:103D50004091010B5091020B6091030B7091040B89
:103D600078948C159D05AE05BF0508F066C0C81A8D
:103D7000D90AEA0AFB0A28E9C2162AE3D206E104B4
:103D8000F10408F45AC0C092FD0AD092FE0AE092F3
:103D9000FF0AF092000B9A01AB01281B390B4A0B6A
:103DA0005B0B233331054105510508F446C02C1542
:103DB0003D054E055F0508F040C0A8E6B1E00E9451
:103DC0002A43A70196010E94E342283681E0380782
:103DD0004105510590F58091E70A8F5F8093E70ACE
:103DE0009091E60A6091E50AE091E30AF091E40A15
:103DF0009617B0F481E0890F8093E60A84E0989FDB
:103E0000E00DF11D1124208331834283538380917F
:103E1000E70A6091E60A0E94C3429093E70A0DC048
:103E20000E94C3429093E70A84E0989FE00DF11D41
:103E300011242083318342835383FF90EF90DF90DE
:103E4000CF9008954F925F926F927F928F929F9240
:103E5000AF92BF92CF92DF92EF92FF92CF93DF9318
:103E6000EC010E94ED3CC0901D0BD0901E0BE09029
:103E70001F0BF090200B6C157D058E059F0550F4EF
:103E80000E94ED3C60931D0B70931E0B80931F0BE3
:103E90009093200B0E94ED3CC090190BD0901A0B10
:103EA000E0901B0BF0901C0B6C157D058E059F059B
:103EB00050F40E94ED3C6093190B70931A0B8093A1
:103EC0001B0B90931C0B0E94ED3CAB01BC01888145
:103ED00099810E9426100E94ED3CC0901D0BD0904D
:103EE0001E0BE0901F0BF090200B6C197D098E09C2
:103EF0009F09A880B980693B7B4081059105A0F0AE
:103F000040E050E0BA01C501DF91CF91FF90EF9002
:103F1000DF90CF90BF90AF909F908F907F906F90E9
:103F20005F904F900C941E102091FD0A3091FE0A74
:103F30004091FF0A5091000B2115310541055105B3
:103F400009F4B4C060E071EE85EF95E00E94E342B1
:103F500069017A01233481E0380741055105F4F500
:103F6000AAE0B0E00E942A432B013C01C5010E9457
:103F7000CA0E4B015C01A3019201C301B2010E9470
:103F8000B34227E93FEF4FEF5FEF0E94054329015E
:103F90003A01A701960168E273EE83E090E00E9487
:103FA000B34224E630E040E050E00E940543420E78
:103FB000531E641E751E24EE421A2FE2520A610837
:103FC0007108C301B2010E947D40A50194010E94C5
:103FD000E23F20E030E040E251E460C02C3385E174
:103FE00038074105510554F5C5010E94CA0E2B0141
:103FF0003C01A7019601C701B6010E94B3422EEA17
:1040000038E040E050E00E94054349015A01ABE925
:10401000BAE4A70196010E942A4324E630E040E07A
:1040200050E00E940543820E931EA41EB51E26EA90
:10403000820E25E2921EA11CB11C2AC0C5010E945D
:10404000CA0E2B013C01A7019601C701B6010E94CF
:10405000B34222E134E040E050E00E940543A4E690
:10406000B0E00E942A434B015C01A701960164EB7A
:1040700070E281E89FEF0E94B342860E971EA81E51
:10408000B91E84E4880E8DEB981E8BE2A81EB11C2D
:10409000C501B4010E947D40A30192010E94E23F4C
:1040A000AB01BC01888199810E941E108881998191
:1040B0000E94C20E6B017C01888199810E94D20E00
:1040C000BC01882777FD8095982F0E947D409B0139
:1040D000AC01C701B6010E94DE41181654F4888174
:1040E00099810E94C20E0E944A40888199810E9453
:1040F0006510CE010E94641D7C01888199810E9417
:10410000B00EB701680F791F77FF02C068597E4F64
:1041100088819981DF91CF91FF90EF90DF90CF90D0
:10412000BF90AF909F908F907F906F905F904F90D7
:104130000C94121088EE9AE09093E40A8093E30ABC
:1041400085E08093E50A1092E60A1092E70A089546
:1041500061E085E30E94583E61E085E30E941F3ED6
:104160008CB580618CBD8CB580648CBD61E084E3CE
:104170000E941F3E61E083E30C941F3E811103C047
:104180008CB5806202C08CB58F7D8CBD08959CB5C6
:10419000937F982B9CBD08952CB5982F93702C7FFE
:1041A000922B9CBD9DB582FB882780F99E7F982B22
:1041B0009DBD0895FC01A681B7819D012F5F3F4FF2
:1041C0008481958140855185840F951F2817390773
:1041D00050F4378326836C930680F781E02D10829C
:1041E00081E090E0089580E090E00895FC01A481D2
:1041F000B581B783A68380859185892B09F01C92B0
:10420000089508952F923F924F925F926F927F92FE
:104210008F929F92AF92BF92CF92DF92EF92FF92D6
:104220000F931F93CF93DF93CDB7DEB72A970FB6C7
:10423000F894DEBF0FBECDBF9A878987DC01D69682
:104240008C91882309F4E5C00E94ED3C69837A8350
:104250008B839C83E985FA8580A191A129813A818C
:10426000281B390B84A595A5281739070CF4D1C054
:10427000028CF38DE02D80809180A280B380A9858F
:10428000BA855E96ED91FC915F97A50194016081DE
:104290007181828193810E94143F2B013C01E98549
:1042A000FA8520893189428953890E94E941A9858B
:1042B000BA8594962D913D914D915C9197970E946E
:1042C000153F6B017C01E985FA8564A375A386A37C
:1042D00097A312A903A934A825A8212F302F432D75
:1042E000522D0E94DE4118162CF4812F902FA32D01
:1042F000B22D18C0A985BA859E968D919D910D907D
:10430000BC91A02D8D839E83AF83B8879C01AD01A6
:10431000C701B6010E94DB3F87FF0AC08D819E81E5
:10432000AF81B885E985FA8584A395A3A6A3B7A331
:10433000A985BA851C962D913D914D915C911F9751
:10434000C301B2010E94E941E985FA8524A135A1A2
:1043500046A157A10E94153F6B017C01A985BA8532
:1043600098962D913D914D915C919B97C501B4011B
:104370000E94143FE985FA85248935894689578941
:104380000E94E9419B01AC01C701B6010E94143FA4
:104390006B017C01212F302F432D522D0E94DE41D5
:1043A0001816DCF0A985BA859E961C919E979F965B
:1043B0000C919F97D0963C90D097D1962C90212F1E
:1043C000302F432D522DB601C7010E94DB3F87FDE0
:1043D00004C01C2D0D2D3E2C2F2CA985BA855C9672
:1043E000ED91FC915D97812F902FA32DB22D8083AD
:1043F0009183A283B383E985FA8580A691A6A2A6BC
:10440000B3A689819A81AB81BC8180A391A3A2A329
:10441000B3A32A960FB6F894DEBF0FBECDBFDF91CF
:10442000CF911F910F91FF90EF90DF90CF90BF90B1
:10443000AF909F908F907F906F905F904F903F9044
:104440002F9008952F923F924F925F926F927F929A
:104450008F929F92AF92BF92CF92DF92EF92FF9294
:104460000F931F93CF93DF9300D01F92CDB7DEB78A
:104470001C012A013B014801590120E030E0A9015B
:10448000C301B2010E94DB3F87FD7AC020E030E02B
:10449000A901C501B4010E94DB3F87FD71C020E086
:1044A00030E0A901C701B6010E94DB3F87FD68C06B
:1044B000F101408251826282738284829582A68257
:1044C000B782C086D186E286F38664A575A5882763
:1044D00077FD8095982F0E947D4020E030E04AE7EC
:1044E00054E40E94E23F69837A838B839C83F101C9
:1044F00044865586668677869B01AC01C501B4016A
:104500000E94E9414B015C01F101608B718B828B50
:10451000938B29813A814B815C81C701B6010E944E
:10452000E23F6B017C01F101648B758B868B978B6D
:10453000808D918D019721F5A301920160E070E0DB
:10454000CB010E94143FF1016487758786879787A6
:10455000A501940160E070E0CB010E94143FF101DD
:10456000608B718B828B938BA701960160E070E06A
:10457000CB010E94143FF101648B758B868B978B66
:104580000F900F900F900F90DF91CF911F910F918F
:10459000FF90EF90DF90CF90BF90AF909F908F9063
:1045A0007F906F905F904F903F902F900895CF92A3
:1045B000DF92EF92FF920F931F93CF93DF93EC0163
:1045C0008B011616170694F5882777FD8095982F8E
:1045D0000E947D406B017C016CA57DA5882777FD3D
:1045E0008095982F0E947D409B01AC01C701B601C8
:1045F0000E94E23F6B017C019B01AC0168897989D3
:104600008A899B890E94E941688B798B8A8B9B8B75
:10461000A70196016C897D898E899F890E94E23F5E
:104620006C8B7D8B8E8B9F8B1DA70CA7DF91CF9101
:104630001F910F91FF90EF90DF90CF9008952F92F0
:104640003F924F925F926F927F928F929F92AF9222
:10465000BF92CF92DF92EF92FF920F931F93CF936F
:10466000DF93EC016A017B0148015901A90198011E
:10467000C701B6010E94DE4187FF4EC0CEA6DFA66D
:10468000E8AAF9AA8AAA9BAAACAABDAA8EA98823DD
:1046900009F442C02C8C3D8CF10140805180628035
:1046A0007380A5019401C301B2010E94DE41181676
:1046B00034F4F10180829182A282B3820DC0A701FD
:1046C0009601C301B2010E94DB3F87FF05C0F101E3
:1046D000C082D182E282F3828CA09DA0AEA0BFA056
:1046E000CAA8DBA8ECA8FDA8A7019601C501B401E2
:1046F0000E94DE41181664F0CEA4DFA4E8A8F9A851
:10470000A7019601C501B4010E94DB3F87FF04C0E9
:10471000CCA2DDA2EEA2FFA2DF91CF911F910F915B
:10472000FF90EF90DF90CF90BF90AF909F908F90D1
:104730007F906F905F904F903F902F9008958F9251
:104740009F92AF92BF92CF92DF92EF92FF92CF9360
:10475000DF93EC01EC8DFD8DC080D180E280F38091
:10476000CCA2DDA2EEA2FFA2EA8DFB8D8081918119
:10477000A281B38188A799A7AAA7BBA78AA89BA84B
:10478000ACA8BDA8A5019401C701B6010E94DE41F5
:10479000181664F08EA49FA4A8A8B9A8A501940136
:1047A000C701B6010E94DB3F87FF04C08CA29DA217
:1047B000AEA2BFA2DF91CF91FF90EF90DF90CF909C
:1047C000BF90AF909F908F9008951F93CF93DF93EA
:1047D000EC0111E06130710509F010E08EA991E063
:1047E0008927181303C0CE010E949F231EABDF91BF
:1047F000CF911F9108950F931F93CF93DF93EC01F7
:104800008B018EA9882361F1888D998D68177907AE
:1048100039F12C853D854E855F8560E070E0CB01E8
:104820000E94143F6C877D878E879F8728893989EE
:104830004A895B8960E070E0CB010E94143F688B7D
:10484000798B8A8B9B8B2C893D894E895F8960E0AF
:1048500070E0CB010E94143F6C8B7D8B8E8B9F8B05
:10486000198F088FDF91CF911F910F9108952F928B
:104870003F924F925F926F927F928F929F92AF92F0
:10488000BF92CF92DF92EF92FF920F931F93CF933D
:10489000DF93CDB7DEB728970FB6F894DEBF0FBE13
:1048A000CDBF4C017A8369831A013C832B83270196
:1048B0003801AD82BE82CF82D88600E010E02FE7BB
:1048C00033E440E050E0BA010E941F2384E690E008
:1048D000F40195A784A76AA17BA1C4010E94FB23D0
:1048E000CE8CDF8CE8A0F9A00D811E812F81388548
:1048F000B301A201C4010E9422220E94ED3CF401F6
:1049000044A455A4662457FC6094762C6419750958
:104910008609970960A371A382A393A316AA358E73
:10492000248E89819A81938F828F8B819C81978F2E
:10493000868F28960FB6F894DEBF0FBECDBFDF91ED
:10494000CF911F910F91FF90EF90DF90CF90BF908C
:10495000AF909F908F907F906F905F904F903F901F
:104960002F9008950F931F93CF93DF93FC017183D2
:104970006083128213821482158286E586831782F1
:10498000108611861286138614861586168617865B
:10499000108A118A128A138A148A158A168ADF01EC
:1049A000A754BF4F11961C921E92AE55BF4F119641
:1049B0001C921E92149611961C921E92129611969B
:1049C0001C921E92129611961C921E92178AAC5A35
:1049D000B1091D921C92EF0104E110E08FE090E01C
:1049E0000E945C43FE01E15EFE4F918380838FE075
:1049F00090E00E945C43FE01E558FF4F9183808365
:104A0000FC0110820150110922960115110531F7A0
:104A1000DF91CF911F910F910895FC016281738105
:104A2000848195810895FC0186810895FC01678148
:104A30007085818592850895FC01638574858585DF
:104A400096850895CF92DF92EF92FF926A017B01E3
:104A5000FC012785308941895289C701B6010E942E
:104A6000E941FF90EF90DF90CF900895FC016389BA
:104A7000748985899689089547960895660F771FEA
:104A8000680F791FFB01E558FF4F808191810895E0
:104A90004F925F926F927F928F929F92AF92BF924E
:104AA000CF92DF92EF92FF920F931F93CF93DF93FA
:104AB000FB0110811D3241F031E020E01B3209F092
:104AC00030E0832F922F02C081E090E0EB01C80F0D
:104AD000D91F00E03DEC432E3CEC532E652C3DE30A
:104AE000732E812C912C5401C12CD12C7601E9918B
:104AF000EE23E9F1EE32C9F1FF27E7FDF095011150
:104B000013C0AAE0B0E0A70196010E942A436B01FE
:104B10007C01CF01C097AA2797FDA095BA2FC80E98
:104B2000D91EEA1EFB1EE3CFBF016053710988271F
:104B300077FD8095982F0E947D409B01AC01C301B9
:104B4000B2010E94E9419B01AC01C501B4010E9480
:104B5000153F4B015C0120E030E040E251E4C3012D
:104B6000B2010E94E23F2B013C0101E0C0CFC7012E
:104B7000B6010E947D409B01AC01C501B4010E94B9
:104B8000153F1D3239F49B01AC0160E070E0CB01B0
:104B90000E94143FDF91CF911F910F91FF90EF90F2
:104BA000DF90CF90BF90AF909F908F907F906F904D
:104BB0005F904F9008958F929F92AF92BF92CF9245
:104BC000DF92EF92FF920F931F93CF93DF93EC014D
:104BD000AC01455A5E4FDA012D913C911197FC01D1
:104BE000E15AFE4F243631056CF4A25AB1098D9179
:104BF0009C911197449734F4A655BF4F8D919C9189
:104C00000F9714F0118210826A3011F06D3011F498
:104C1000118210826432E1F4DE01A35ABE4F119674
:104C20001C921E92149611961C921E92A85AB109BB
:104C300011961C921E92A655BF4F1D921C92C554F0
:104C4000DF4F688381E090E0DA018D939C93E4C0AC
:104C5000808191818130910569F024F4009709F4F5
:104C60007AC272C28230910509F492C0039709F4A6
:104C7000D6C06AC2273031057CF4D901AB59BC4F8C
:104C80008C91681309C0DE01A35ABE4F8D919C918F
:104C9000119701968D939C93C9010196DA018D932A
:104CA0009C932C0F3D1FD901A554BF4F6C93CE018F
:104CB00087549F4F8E010D591E4F6A3249F1DE0114
:104CC000AF59BE4FFC016C3209F040C020813181E8
:104CD000A9014F5F5F4F51834083C901880F991F1E
:104CE0008C0F9D1FEC01C15EDE4F0990D881C02D55
:104CF000F80180819181C80FD91F1882118210821A
:104D00008D919C911197FCE28F278D939C931EC2ED
:104D1000DC012D913C911197A9014F5F5F4F4D939D
:104D20005C93C901880F991F8C0F9D1FEC01C15E18
:104D3000DE4F0990D881C02DD8018D919C9111979B
:104D4000C80FD91F18821D921C9263C08081918167
:104D5000880F991F8C0F9D1FEC01C15EDE4F0990DB
:104D6000D881C02DF801808191819C012F5F3F4F38
:104D700031832083C80FD91F6883772767FD70951B
:104D80008D919C911197682779276D937C93DEC153
:104D9000C9010196DA018D939C932C0F3D1FD90117
:104DA000A554BF4F6C93DE01A754BF4F8D919C91CA
:104DB000880F991F8C0F9D1FDC01A15EBE4F0D91C6
:104DC0001C919E012D593E4FD9018D919C911197B7
:104DD000AC014F5F5F4F4D935C93080F191FD801D3
:104DE0006C93CF59DE4F48815981862F992787FDD3
:104DF0009095613414F0C79701C0C0979C01B4E04E
:104E0000220F331FBA95E1F7CA01821B930B9983D6
:104E100088838081918101969183808397C1CE019F
:104E2000820F931FDC01A554BF4F6C932E5F3F4F41
:104E3000DA012D933C93DC01A454BF4F1C929E01D8
:104E400027543F4FD9018D919C91880F991F8C0F4A
:104E50009D1FDC01A15EBE4F8D919C916E01BDE94D
:104E6000CB1ABEEFDB0AD6010D911C917801BFEF82
:104E7000EB1AFB0AD601ED92FC92800F911FDC0128
:104E80006C93D9018D919C9111978C010F5F1F4FED
:104E90000D931C93880F991F8C0F9D1F815E9E4F51
:104EA000DC018D919C91D6010D911C91800F911F79
:104EB000DC011C9211821082FE01EF59FE4F8081AD
:104EC0009181062F112707FD1095613424F0B80158
:104ED0006753710903C0B80160537109861B970BB2
:104EE00091838083009709F031C168817981672BB4
:104EF00029F4FA0160817181CB010AC0FE01E35AF5
:104F0000FE4F608171816630710509F024C1F1CFD7
:104F1000019797FD0AC0FE01E80FF91F8F010554A4
:104F20001F4FD8011C91178BF3CFFB013197CB0199
:104F300077FF02C080E090E0BF01681B790BDA01C7
:104F40006D937C93FE01E954FF4F118210824081E2
:104F50005181D9018D919C914817590784F5D6014B
:104F60001D921C9280819181D6014D915C91880F98
:104F7000991F8C0F9D1FBC01615E7E4FDB016D91FF
:104F80007C91640F751FDB016C9185589F4FDC018C
:104F90008D919C91840F951FDC01662349F06C93E1
:104FA000D6018D919C91119701968D939C93DACFA8
:104FB0001C9280819181019691838083C8CFFE01EC
:104FC000E35AFE4F80819181069709F0C2C0FC9799
:104FD00060817181CE010E9448256A837B838C8326
:104FE0009D83FE01ED5DFE4F0190F081E02D8081FB
:104FF0008E83FE01EB5DFE4F60817181CE010E94C8
:10500000482520E030E048EC52E40E94E23F4B01AA
:105010005C010E94B8406B017C018E010B591E4F50
:10502000F80160837183828393839B01AC01C50186
:10503000B4010E94143F20E030E048EC52E40E94AA
:10504000E94120E030E040E752E40E94E23FA7015E
:1050500096010E94153F9B01AC016F837887898779
:105060009A87FE01E95DFE4F0190F081E02D80817D
:10507000833549F460E070E0CB010E94143F6F83F8
:10508000788789879A87FE01E75DFE4F608171818D
:10509000CE010E94482520E030E048EC52E40E9416
:1050A000E23F4B015C010E94B8406B017C01D801DA
:1050B0006D937D938D939C9313979B01AC01C501D8
:1050C000B4010E94143F20E030E048EC52E40E941A
:1050D000E94120E030E040E752E40E94E23FA701CE
:1050E00096010E94153F9B01AC016B877C878D87E1
:1050F0009E87FE01E55DFE4F0190F081E02D8081ED
:10510000873549F460E070E0CB010E94143F6B8763
:105110007C878D879E87FE01E35DFE4F60817181F4
:10512000CE010E9448256F87788B898B9A8BFE0170
:10513000E15DFE4F60817181CE010E9448256B8B3D
:105140007C8B8D8B9E8B05C01182108280E090E05D
:1051500002C081E090E0DF91CF911F910F91FF900D
:10516000EF90DF90CF90BF90AF909F908F90089579
:105170008EBD0DB407FEFDCF8EB508950F931F931E
:10518000FC011382128208EE13E020E030E0048379
:1051900015832683378381E793E091838083648737
:1051A00045871F910F910895EF92FF921F93CF9320
:1051B000DF931F92CDB7DEB77C01162F60E0FC01B4
:1051C000848549830E94583EF8E01F9FB001112456
:1051D000F7018585880F862B0E94B8284981842F86
:1051E0000E94B82862E070E080E090E00E941C3DE0
:1051F00061E0F70184850F90DF91CF911F91FF90BF
:10520000EF900C94583E462F60E00E94D42881E035
:1052100090E0089546E062E00C94D428CF92DF92AB
:10522000EF92FF920F931F93CF93DF931F921F92E2
:10523000CDB7DEB78C01F22E60E0FC018485498396
:105240005A830E94583E4981E42EC42E5A81D52E9D
:105250008C2D8E198F1530F4F60181916F010E940B
:10526000B828F6CF62E070E080E090E00E941C3D3C
:1052700061E0F80184850F900F90DF91CF911F912D
:105280000F91FF90EF90DF90CF900C94583E242F19
:10529000AB0160E00C940E291F93CF93DF93EC01D8
:1052A000162F60E08C850E94583E62E070E080E03E
:1052B00090E00E941C3D88E0189FB00111248D856C
:1052C000880F862B80680E94B82880E00E94B8284A
:1052D000182F62E070E080E090E00E941C3D61E0E9
:1052E0008C850E94583E812FDF91CF911F910895A8
:1052F00060E00E944C2990E0089569E00E944C29EA
:1053000090E0089569E00E944C298FEF9FEF089587
:105310001F93CF93DF93EC01162F63E00E944C297B
:10532000482F4C7F6BEF610F6370462B63E0CE011B
:10533000DF91CF911F910C94D4288F929F92AF92BE
:10534000BF92CF92DF92EF92FF920F931F93CF9372
:10535000DF93EC016A017B014801590167E976E0BE
:1053600080EF9BE00E94B6380E94A8206AE070E0BF
:1053700080E090E00E941C3D81E00E94BE2081E020
:105380000E94CC2080E00E94C7206BE876E080EF8E
:105390009BE00E94B6388091060290910702019727
:1053A00079F448E06EE0CE010E94D4281092070202
:1053B000109206026CE776E080EF9BE00E94B63820
:1053C00064E670E080E090E00E941C3D40E863E00D
:1053D000CE010E94D428C701B60123E0660F771FD3
:1053E000881F991F2A95D1F7680D791D8A1D9B1D6D
:1053F000A7019601E4E0220F331F441F551FEA95D1
:10540000D1F70E94E34269017A01422F60E0CE01A8
:105410000E94D4284D2D552761E0CE010E94D4284A
:1054200040E063E0CE010E94D42868E0CE010E94F3
:10543000882947E062E0CE010E94D4286AE676E03F
:1054400080EF9BE0DF91CF911F910F91FF90EF9044
:10545000DF90CF90BF90AF909F908F900C94B63814
:105460000F931F9300E010E820E730E00E949D2991
:105470001F910F910895FC016F778081918186279C
:105480009183808347E020813181C901969587957A
:1054900020FF04C020EF822722E29227918380839D
:1054A000415089F70895EF92FF920F931F93CF9386
:1054B000DF937C018A01EB01060F171FC017D1078C
:1054C00029F06991C7010E943B2AF8CFDF91CF9163
:1054D0001F910F91FF90EF900895CF93DF931F924C
:1054E0001F92CDB7DEB7AB012FEF3FE33A8329839D
:1054F000BC01CE0101960E94532A89819A81809530
:105500002FE392270F900F90DF91CF9108950F9383
:105510001F93CF93DF931F92CDB7DEB78C01FC01B1
:1055200071836083128223831486158616861786FC
:10553000108A459649830E94412FF801178E10A2C8
:1055400049818FE9840F8A3108F440528FEB840F30
:105550008A3120F080ED840F8A3010F4F801428304
:1055600044E650E060E070E0F801448355836683D0
:1055700077834FEF5FEFBA01408751876287738768
:1055800011A20F90DF91CF911F910F91089508956F
:105590009F92AF92BF92CF92DF92EF92FF920F93C2
:1055A0001F93CF93DF93CDB7DEB7A7970FB6F894CD
:1055B000DEBF0FBECDBF6C017B01942E5901DB0114
:1055C00014964D915D916D917C911797CE018096C7
:1055D0000E943A30CE0180960E9410306894A4F860
:1055E000C8010E94E82F882321F0C6010E94432FA2
:1055F0006CC0CE0180960E94E82F8823A9F1CE01CD
:1056000080960E942E30F70184858F5F87FD81E0B0
:10561000D7011C968C93CE0101960E94702DF70144
:105620006281CE0101960E94742D6A2DCE010196F1
:105630000E94742DD7011C966C91CE0101960E9498
:10564000742D692DCE0101960E94742DD701ED9124
:10565000FC91119763A174A123E230E013964C9161
:10566000CE0101960E944C2EF701808191810E940B
:105670001A2F882309F4B4CFD701ED91FC9111972B
:10568000938113968C919813ABCF8481833409F066
:10569000A7CF4081518145505109BF016A5F7F4FBB
:1056A000CE0101960E94B92F8981882309F498CFF1
:1056B0009C81F7018485981393CF8AE0FE0131968F
:1056C000D60101900D928A95E1F7C601A7960FB613
:1056D000F894DEBF0FBECDBFDF91CF911F910F9128
:1056E000FF90EF90DF90CF90BF90AF909F90089584
:1056F0009F92AF92BF92CF92DF92EF92FF920F9361
:105700001F93CF93DF93CDB7DEB76F970FB6F894A3
:10571000DEBF0FBECDBF8C015B017A01922EDC0192
:10572000ED91FC91C3A0D4A0CE0101960E94702DF2
:10573000F8016281CE0101960E94742D692DCE017F
:1057400001960E94742D96FE07C0D8015F966C9159
:10575000CE0101960E94742DF70142815381B70159
:105760006C5F7F4FCE0101960E94802D9501D8017C
:1057700013964C91B601CE0101960E944C2E6F9665
:105780000FB6F894DEBF0FBECDBFDF91CF911F9152
:105790000F91FF90EF90DF90CF90BF90AF909F90D0
:1057A0000895CF92DF92EF92FF920F931F93CF93C2
:1057B000DF93CDB7DEB72A970FB6F894DEBF0FBEE2
:1057C000CDBF7C016A01FC0180A1811123C08B0146
:1057D00020E430E041E050E0B701CE0101960E94A4
:1057E000C82A8AE0FE013196D60101900D928A9571
:1057F000E1F7F601828180FF04C08681978197FDE1
:1058000007C0F6018481F701878F81E080A302C081
:1058100081E001C080E02A960FB6F894DEBF0FBE8B
:10582000CDBFDF91CF911F910F91FF90EF90DF904F
:10583000CF900895DF92EF92FF920F931F93CF9333
:10584000DF93CDB7DEB72A970FB6F894DEBF0FBE51
:10585000CDBF7C01D42EFC01238934894189528932
:105860008B01BC01CE0101960E94C82A8AE0FE018C
:105870003196D701559601900D928A95E1F7F7017F
:10588000878980FF04C0838D948D97FD0BC0F7013D
:10589000818D978D891731F0811106C081E0D1107B
:1058A00004C002C081E001C080E02A960FB6F894DF
:1058B000DEBF0FBECDBFDF91CF911F910F91FF9043
:1058C000EF90DF9008958F929F92AF92BF92CF9208
:1058D000DF92EF92FF920F931F93CF93DF93CDB799
:1058E000DEB72E970FB6F894DEBF0FBECDBF7C019A
:1058F0006B015A014901FC01258536854785508990
:105900002F5F3F4F4F4F5F4F258736874787508B1D
:10591000BC01CE0109960E945C2EF70181A188236B
:1059200039F09401A501B601C7010E94782B30C05F
:10593000F7014085518562857385CE0101960E94ED
:105940003A30A7014B5E5F4FBE016F5F7F4FC701CB
:105950000E94D12B81111CC0689486F8F701128B2C
:10596000018B948A838A878D8F5F87FD81E0F701A1
:10597000878F9401A501B601C7010E94782B40E0F2
:10598000BE016F5F7F4FC7010E941A2C882389F3E5
:1059900086E0FE013996DE01119601900D928A95FE
:1059A000E1F729813A814B815C816D817E8180E0C4
:1059B00090E02E960FB6F894DEBF0FBECDBFDF91FC
:1059C000CF911F910F91FF90EF90DF90CF90BF90FC
:1059D000AF909F908F9008958F929F92AF92BF92B9
:1059E000CF92DF92EF92FF920F931F93CF93DF93AB
:1059F000CDB7DEB7AA970FB6F894DEBF0FBECDBF06
:105A00004C01CE0101962FA338A749A75AA76EA330
:105A10000E94702D6EA1CE0101960E94742D2FA1BF
:105A200038A549A55AA5BA01A901CE0101960E943F
:105A3000982DF7FC0BC0602FCE0101960E94742DAB
:105A4000B701A601CE0101960E94982D01E010E059
:105A50009501AE014F5F5F4F64E270E0C4010E94A8
:105A6000632C80E090E0AA960FB6F894DEBF0FBEDC
:105A7000CDBFDF91CF911F910F91FF90EF90DF90FD
:105A8000CF90BF90AF909F908F900895AF92BF92AC
:105A9000CF92DF92EF92FF920F931F93CF93DF93FA
:105AA00000D000D0CDB7DEB757016801790102E020
:105AB0009A01AB0161E00E94EC2C80E090E0269618
:105AC0000FB6F894DEBF0FBECDBFDF91CF911F910F
:105AD0000F91FF90EF90DF90CF90BF90AF9008951F
