:100000000C943B040C94DB3B0C940C3C0C943D3C5A
:100010000C946E3C0C949F3C0C94D03C0C94013D91
:100020000C94323D0C946C040C946C040C946C0491
:100030000C946C040C946C040C946C040C94DF31E0
:100040000C946C040C946C040C946C040C946C0470
:100050000C946C040C946C040C946C040C94753D1E
:100060000C946C040C9454360C948A360C946C04E6
:100070000C946C040C946C040C946C040C946C0440
:100080000C946C040C946C040C946C040C946C0430
:100090000C9401370C9437370C946C040C946C045A
:1000A0000C946C040C946C040C946C040C946C0410
:1000B0000C946C040C946C040C9462330C94D13248
:1000C0000C94C4330C946C040C946C040C94AE37F4
:1000D0000C94E4370C946C040C945B380C949138B9
:1000E0000C946C04B53B7F3B873B933BA03BC13BEF
:1000F000CE3BB63EB93EA83EAC3EB23EF03EBD3E23
:10010000C13EC73ECB3ECF3ED53ED93EDD3EF03E62
:10011000E33EE73EEB3E084AD73B3BCE016E84BC54
:10012000BFFDC12F3D6C74319ABD56833DDA3D0051
:10013000C77F11BED9E4BB4C3E916BAAAABE00009A
:1001400000803F05A84CCDB2D44EB93836A9020C78
:1001500050B9918688083CA6AAAA2ABE0000008051
:100160003F000C94C5380C94CF3E0C9446160C946A
:10017000192A0C94D53E0C9474040C9499340C9464
:100180006E040C94B23E0C9408390C9409120C9431
:10019000EC110C94C73E0C94542A0C94BE360C946B
:1001A00084090C94D5290C94DC290C94873B0C947D
:1001B00039320C947F3B0C94BA1B0C94CB3E0C94BC
:1001C000AE150C946C210C947E350C94DD3E0C9491
:1001D000B53B0C9485340C94E33E0C94933B0C9407
:1001E000B4050C942A320C9414320C94EA150C9435
:1001F000DD160C94B41B0C940E380C9410160C9451
:1002000070090C944A2A0C94C13E0C94FE1A0C946A
:10021000BB380C944F2A0C94EB3E0C946B370C9427
:1002200005120C94B63E0C94B93E0C9419350C94FE
:100230006A340C94A03B0C9463170C94BD3E0C9450
:10024000C13B0C94F03E0C94AE050C94D93E0C943A
:10025000C31B0C945D170C94E73E0C94B4360C94BD
:1002600061370C94A83E0C94AC3E0C94BC1B0C94CF
:10027000F7340C9477340C9449170C94CE3B0C94BF
:10028000AC210C941838496E6974206175746F70D4
:10029000696C6F7420636F6D706C65746500496E76
:1002A0006974206175746F70696C6F742E2E73653C
:1002B00074206C696D6974732E2E00496E69742008
:1002C0006175746F70696C6F742E2E7374617274C3
:1002D000205049442E2E00496E6974206175746F58
:1002E00070696C6F742E2E002C002C4C4C333A002D
:1002F0002C4C55333A002C4C4C323A002C4C553295
:100300003A002C4C4C313A002C4C55313A002C53CD
:10031000544B3A002C5342333A002C5342323A00A9
:100320002C5342313A002C5342303A002C47505360
:100330003A002C575A4A3A005549443A4D454741EC
:100340002C4150583A0021215645523A312E392C31
:10035000002C002C57534B3A002C5753583A002C82
:100360004141443A002C4141453A002C41414E3A2A
:10037000002C4141523A002C4141583A002C415046
:10038000523A002C4150433A002C4150543A002C30
:100390004150533A005549443A4D4547412C41504C
:1003A000583A0021215645523A312E392C005365D6
:1003B00074757020636F6D706C6574652E2E0053BC
:1003C000746172742074696D65722E2E00537461AD
:1003D00072742077696E642E2E00537461727420DB
:1003E0006E6D6561205478202D206F6E2070696ECF
:1003F000732034362054782C2034382052782061F1
:100400007420005374617274206E6D65612054789D
:100410002E2E005374617274206E6D6561205278C7
:10042000202D2073657269616C3420617420004353
:10043000535F50494E204F5554505554203D20484D
:100440004947480043535F50494E207365742074F8
:100450006F204F555450555400537461727420539B
:1004600050492075617274732E2E0053746172743A
:10047000206E6D6561205278202D20736572696150
:100480006C3320617420005374617274206E6D654A
:1004900061205278202D2073657269616C32206171
:1004A00074200053746172742073656174616C6BA5
:1004B000202D2073657269616C322061742034389C
:1004C00030300053746172742047505320527820AA
:1004D0002D2073657269616C312061742000496E52
:1004E000697469616C697A696E672E2E0024504DBB
:1004F000544B3235312C0024504D544B3331342C75
:10050000302C312C302C312C312C312C302C302C07
:10051000302C302C302C302C302C302C302C302CFB
:10052000302C302C302A32380024504D544B32328B
:10053000302C313030302A31460053657474696E86
:10054000672047505320746F204D54454B5F333321
:100550003239002C382C312C302A0024505352468A
:100560003130302C312C0024505352463130352C50
:10057000302A33460024505352463130332C303425
:100580002C30302C30312C30312A32310024505371
:1005900052463130332C30332C30302C32302C302A
:1005A000312A32350024505352463130332C303208
:1005B0002C30302C30352C30312A3233002450533B
:1005C00052463130332C30302C30302C30352C30FA
:1005D000312A32310024505352463130332C3031DD
:1005E0002C30302C30302C30312A3235002450530E
:1005F00052463130332C30352C30302C30302C30CA
:10060000312A32310024505352463130352C312AB0
:1006100033450053657474696E67204750532074E6
:100620006F20454D5F343036410053657474696EF8
:10063000672047505320746F2047454E4552494329
:100640000053657474696E672047505320636F6E62
:100650006669672E2E2E0020202064656661756C09
:100660007420746F20343830302E2E004641494CAF
:100670004544004F4B206174200020202074727983
:10068000206175746F62617564202E2E2000202019
:1006900064657465637465642070756C736520723D
:1006A000617465203D20002C542A002448434844AE
:1006B000542C002C4E2C412A002E302C522C00247D
:1006C00057494D57562C0053504920696E69742084
:1006D000636F6D706C6574650053504920554152CD
:1006E00054207265736574005350492073746172AD
:1006F000746564004D756C746953657269616C3A18
:100700003A626567696E0000000A0B02090C0D0E63
:1007100008070304010000000000000000000000C2
:1007200000000000000000000000000000000000C9
:100730000000001211100000000000000000000086
:100740000000000000000000000000000001021096
:1007500020200808102040102040800201020108DB
:10076000040201010204081020408080402010088B
:1007700004020180040201804020100804020108E4
:100780000402010102040810204080010204081044
:100790002040800505050507050808080802020233
:1007A000020A0A080804040404010101010101010C
:1007B000010303030303030303040707070C0C0CE3
:1007C0000C0C0C0C0C0202020206060606060606BB
:1007D000060B0B0B0B0B0B0B0B0000200023002652
:1007E0000029002C002F0032000001000003010648
:1007F00001090100002200250028002B002E0031F5
:1008000000340002010000050108010B0100002175
:1008100000240027002A002D0030003300010100D1
:1008200000040107010A014E414E494E49545949FD
:100830004E46CDCCCC3D0AD7233C17B7D13877CC28
:100840002B329595E6241FB14F0A0000204100008D
:10085000C84200401C4620BCBE4CCA1B0E5AAEC546
:100860009D747009DD16FE1A6C21BE366B37183880
:10087000C5388409491711241FBECFEFD1E2DEBF6E
:10088000CDBF00E00CBF14E0A0E0B2E0E4E9FFE877
:1008900000E00BBF02C007900D92A43CB107D9F74E
:1008A0002FE0A4ECB4E001C01D92A339B207E1F738
:1008B00018E0C2E7D8E000E006C022970109FE0177
:1008C0000BBF0E940744C236D10780E00807A9F792
:1008D0000E94643D0C94B8470C9400002DE032E077
:1008E000FC013183208308952DE032E0FC01318347
:1008F00020830C94733DFC01CB012DE032E0318369
:10090000208373836283148240E050E0BA010E9426
:10091000F50F61E088E10E94F13E61E08AE10E940A
:10092000F13E61E08CE10E94F13E61E08EE10E94C7
:10093000F13E60E082E40C94F13ECF92DF92EF92C0
:10094000FF92CF93DF93EC018A819B810E943C113F
:10095000882389F08A819B810E94B90D6B017C01FB
:100960000E94BF3D21E0C616D706E806F90608F04A
:1009700020E0822F01C080E0DF91CF91FF90EF90C7
:10098000DF90CF900895CF92DF92EF92FF92CF93B6
:10099000DF93EC010E949D048823A9F10E94BF3DD2
:1009A0006B017C018A819B810E94B30DC61AD70A14
:1009B000E80AF90A89EEC81683E0D806E104F104D2
:1009C000C0F16C8188E10E942A3F6C818AE10E941B
:1009D0002A3F6C818CE10E942A3F6C818EE10E944B
:1009E0002A3F8C8191E089278C830E94BF3DAB0117
:1009F000BC018A819B81DF91CF91FF90EF90DF90C6
:100A0000CF900C94F50F60E088E10E942A3F60E0EF
:100A10008AE10E942A3F60E08CE10E942A3F60E068
:100A20008EE1DF91CF91FF90EF90DF90CF900C940B
:100A30002A3FDF91CF91FF90EF90DF90CF90089504
:100A4000CF92DF92EF92FF92CF93DF93EC018A81F6
:100A50009B810E94F00F882311F18A819B810E9463
:100A6000C40F18161906DCF48A819B810E94D00FEE
:100A70006B017C018A819B810E94C40FBC01882785
:100A800077FD8095982F0E944F419B01AC01C701D3
:100A9000B6010E94B042181614F461E001C060E093
:100AA0008A819B81DF91CF91FF90EF90DF90CF9073
:100AB0000C9479110F931F93CF93DF93EC0180E493
:100AC0000E94783E8C018A819B810E94940F0817B6
:100AD00019074CF08A819B810E94880F801791072B
:100AE00014F060E001C061E08A819B810E94E21005
:100AF00081E40E94783E8C018A819B810E94A60F2E
:100B0000081719073CF08A819B810E949A0F801771
:100B1000910714F461E001C060E08A819B810E942A
:100B2000F11082E40E94783E8C018A819B810E94B0
:100B3000B80F081719073CF08A819B810E94AC0FFF
:100B40008017910714F461E001C060E08A819B8105
:100B5000DF91CF911F910F910C94001125E132E0AC
:100B6000FC0131832083089525E132E0FC013183CB
:100B700020830C94733D2F923F924F925F926F921D
:100B80007F928F929F92AF92BF92CF92DF92EF921D
:100B9000FF920F931F93CF93DF93CDB7DEB72897C4
:100BA0000FB6F894DEBF0FBECDBF1C016A017B01FA
:100BB00009831A832B833C83FC01828193810E94E9
:100BC000EF0D9B01AC01C701B6010E94E73F2B016D
:100BD0003C01F101828193810E94EF0D9B01AC01E8
:100BE000C701B6010E94E63F4B015C01F101828121
:100BF00093810E94EF0D9B01AC0169817A818B8109
:100C00009C810E94E73F6B017C01F101828193810D
:100C10000E94EF0D9B01AC0169817A818B819C81DF
:100C20000E94E63F69837A838B839C83F1018281F2
:100C300093810E94F50D6D837E838F83988724E8CE
:100C40003AEB4CE358E3C301B2010E94E63F2D8129
:100C50003E814F8158850E94B04218166CF4F10114
:100C6000828193810E94E10D9B01AC01C301B2011D
:100C70000E94AD4087FD8CC0F101828193810E946A
:100C8000E10D2B013C0124E83AEB4CE358E3C501AC
:100C9000B4010E94E73FA30192010E94AD4087FF8B
:100CA0000EC0F101828193810E94F50D9B01AC0180
:100CB000C501B4010E94B04218160CF471C0F101D4
:100CC000828193810E94FB0D4B015C0124E83AEB89
:100CD0004CE358E3C701B6010E94E63FA501940129
:100CE0000E94B04218166CF4F101828193810E9437
:100CF000C50D9B01AC01C701B6010E94AD4087FD47
:100D000057C0F101828193810E94C50D6B017C0166
:100D100024E83AEB4CE358E369817A818B819C812A
:100D20000E94E73FA70196010E94AD4087FF48C09F
:100D3000F101828193810E94FB0D9B01AC016981CD
:100D40007A818B819C810E94B0421816CCF5498132
:100D50005A816B817C81F1018281938128960FB643
:100D6000F894DEBF0FBECDBFDF91CF911F910F91E1
:100D7000FF90EF90DF90CF90BF90AF909F908F90BB
:100D80007F906F905F904F903F902F900C94451004
:100D9000B301A201F101828193810E942B106CCFDB
:100DA000B501A401F101828193810E943F1087CF98
:100DB000B701A601F101828193810E940F10A1CF9A
:100DC00028960FB6F894DEBF0FBECDBFDF91CF914E
:100DD0001F910F91FF90EF90DF90CF90BF90AF9059
:100DE0009F908F907F906F905F904F903F902F904B
:100DF00008958F929F92AF92BF92CF92DF92EF921F
:100E0000FF920F931F93CF93DF93EC016A017B0155
:100E10004801590140E050E064EB72E48A819B8113
:100E20000E942B1040E050E064EB72EC8A819B81C1
:100E30000E943F1040E050E064E373E48A819B81AC
:100E40000E940F1040E050E064E373EC8A819B81C4
:100E50000E9445108A819B810E94E70D2DE93BEF9E
:100E600046E157E30E94BB42AB01BC018A819B81F2
:100E70000E94391095018401B701A601CE010E949C
:100E8000BB05DF91CF911F910F91FF90EF90DF9005
:100E9000CF90BF90AF909F908F900895CF92DF92A8
:100EA000EF92FF920F931F93CF93DF93EC018B018F
:100EB00085E192E0998388837B836A83CB010E94DA
:100EC000D30D6B017C01C8010E94CB0DAB01BC01AD
:100ED00097018601CE010E94F906DF91CF911F9103
:100EE0000F91FF90EF90DF90CF9008954F925F9217
:100EF0006F927F928F929F92AF92BF92CF92DF922A
:100F0000EF92FF920F931F93CF93DF9300D01F9226
:100F1000CDB7DEB74C01FC01828193810E94E60FC0
:100F2000882309F4D2C00E94BF3D2B013C01F4018B
:100F3000828193810E94570F461A570A680A790ADC
:100F4000F1EE4F16F3E95F06F4E06F06710438F036
:100F5000F401828193810E94E60F81118DC0F4011A
:100F6000828193810E94770F882309F4AEC0F40137
:100F7000828193810E94670F5B016C01F401828181
:100F800093810E945F0F2B013C01F40182819381C8
:100F90000E94D30D9B01AC01F401828193812983CE
:100FA0003A834B835C830E94CB0D830172012981BC
:100FB0003A814B815C810E947918AB01BC01F4013C
:100FC000828193810E940910F401828193810E94A1
:100FD000BF0D2B013C01F401828193810E94DB0D46
:100FE0009B01AC01C301B2010E94B042181664F427
:100FF000F401828193810E94BF0DAB01BC01F40119
:10100000828193810E942510F401828193810E9444
:10101000670F2B013C01F401828193810E945F0FD5
:10102000AB01BC0193018201C4010E94BB05F40124
:10103000828193810E94E60F882369F1F401828105
:1010400093810E94BF0D2B013C01F40182819381A9
:101050000E94E70D9B01AC01C301B2010E94B042A6
:101060001816CCF440E050E0BA01F401828193817B
:101070000E94FB0F61E010C040E050E0BA01F401B3
:10108000828193810E94FB0F61E0F4018281938150
:101090000E94061064CF60E0F401828193810F907A
:1010A0000F900F900F90DF91CF911F910F91FF90B4
:1010B000EF90DF90CF90BF90AF909F908F907F90F8
:1010C0006F905F904F900C9406100F900F900F90C0
:1010D0000F90DF91CF911F910F91FF90EF90DF90D4
:1010E000CF90BF90AF909F908F907F906F905F90C8
:1010F0004F900895CF93DF93EC018A819B810E94EA
:101100005F0FAB01BC018A819B810E9415108A810F
:101110009B810E94670FAB01BC018A819B810E9469
:101120001D1040E050E0BA018A819B81DF91CF9190
:101130000C9425100F931F93CF93DF93EC018B0139
:1011400081960E94D32118A30F8FDF91CF911F9119
:101150000F9108958F929F92AF92BF92CF92DF929C
:10116000EF92FF920F931F93CF93DF93CDB7DEB72C
:10117000E7970FB6F894DEBF0FBECDBF4C01FC0160
:10118000168E158E148E138E67ED72E080E09DE052
:101190000E948839F401878D90A10E94DA11AB0179
:1011A000BC018DE095E00E94022B64E670E080E0D7
:1011B00090E00E94EE3DF401878D90A10E94070E01
:1011C00020E030E044E354E40E94E73F6B017C01FF
:1011D000F4016083718382839383878D90A10E9441
:1011E000020F9B01AC01C701B6010E94E73FF40169
:1011F0006483758386839783878D90A10E94010EF7
:10120000F401608771878287938711E0108B6BEB05
:1012100072E080E09DE00E948839A401485F5F4F42
:10122000B4016C5F7F4F1F921F938FE38F9385E014
:101230008F938EE18F9388EB8F938AE0A82E87EDB2
:10124000B82E83EAC82E8DE3D82E16E6E12EFE2CAA
:1012500006EE1EE39401CE0101960E94092587E364
:10126000FE013196D401919601900D928A95E1F795
:101270006EE972E080E09DE00E948839F1E28F0E15
:10128000911C00E010E024E832E440E050E0BA01B4
:10129000C4010E94F12364E670E0C4010E94A92306
:1012A00066E872E080E09DE00E9488390F900F9020
:1012B0000F900F900F900F90E7960FB6F894DEBF47
:1012C0000FBECDBFDF91CF911F910F91FF90EF9097
:1012D000DF90CF90BF90AF909F908F90089508952A
:1012E00040E063E48DE095E00E9490296DE075E0B8
:1012F00088EE94E00E94DD2F20E841E368EE74E080
:1013000086EC94E00C94592B86EC94E00C94992B89
:101310000F931F93CF93DF93EC018C010F5E1F4F50
:101320008DE095E00E944F2A892B21F18DE095E018
:101330000E944A2A2D8D3E8DFE01E20FF31F818B04
:101340002F5F3F4F3E8F2D8F8A3029F08D3019F05F
:10135000213331052CF3FE01E20FF31F118AB8018E
:1013600080E09DE00E949A391E8E1D8EF801118248
:101370001082D6CFDF91CF911F910F9108954F9298
:101380005F926F927F92AF92BF92CF92DF92EF9275
:10139000FF920F931F93CF93DF9300D000D0CDB770
:1013A000DEB75C01FC01878D90A10E94631185016D
:1013B0000F5D1F4F882309F4DEC0C5010E94880914
:1013C00061E070E0C8010E94B724F501878D90A10B
:1013D0000E94070E20E030E044E354E40E94E73F1F
:1013E0006B017C01F5016083718382839383878D18
:1013F00090A10E94020F9B01AC01C701B6010E949F
:10140000E73FF5016483758386839783C8010E9453
:10141000D421F501248535854685578560857185FC
:10142000828593850E94E63F6B017C0120E030E0DD
:10143000A9010E94B042181624F0F7FAF094F7F8C8
:10144000F094F501878D90A10E94430FBC0188277D
:1014500077FD8095982F0E944F419B01AC01C701F9
:10146000B6010E94B04218160CF09EC0F5018089AA
:10147000078D10A1C084D184E284F3844484558410
:1014800066847784A3019201882309F1C701B6011C
:101490000E94B04218160CF1A3019201C701B601D7
:1014A0000E94AD4087FF3FC0F501108AC8010E942D
:1014B000490FBC01882777FD8095982F0E944F41E6
:1014C0009B01AC01C701B6010E94E63F27C0C701DE
:1014D000B6010E94AD4087FF06C0F501C486D586DF
:1014E000E686F78620C0A3019201C701B6010E94DB
:1014F000B0421816C4F481E0F501808BC8010E9447
:10150000490FBC01882777FD8095982F0E944F4195
:101510009B01AC01C701B6010E94E73FF50164875A
:10152000758786879787F501448555856685778514
:10153000878D90A10E947A10F501878D90A10E945D
:101540004F0F2B013C0120E030E048EC52E4F50164
:1015500064857585868597850E94BB420E941C41E3
:10156000AB01BC01E12CF12C9301820186EC94E0EB
:101570000E94182E19C060E070E0C80126960FB6D0
:10158000F894DEBF0FBECDBFDF91CF911F910F91B9
:10159000FF90EF90DF90CF90BF90AF907F906F90D3
:1015A0005F904F900C94B72426960FB6F894DEBF48
:1015B0000FBECDBFDF91CF911F910F91FF90EF90A4
:1015C000DF90CF90BF90AF907F906F905F904F90E3
:1015D0000895FC01108211821282138214821582F6
:1015E00016821782108A118A128A138A148A158A1F
:1015F000168A178A108E118E128E138E148E40E06A
:1016000050E064EB72E4458F568F678F70A340E023
:1016100050E064EB72EC41A352A363A374A340E0D7
:1016200050E064E373E445A356A367A370A740E0CA
:1016300050E064E373EC41A752A763A774A715A613
:1016400083E482AB13AA14AA15AA16AA40E050E0BC
:1016500064E072E447AB50AF61AF72AF13AE40E0ED
:1016600050E068EC72E444AF55AF66AF77AFDF018E
:10167000A05CBF4F40E050E060E271E44D935D93A9
:101680006D937C93139714964D935D936D937C9318
:101690001397149640E850E060E070E04D935D933E
:1016A0006D937C9313971086118612861386148689
:1016B00015861686178614961C9211961D921D92F9
:1016C0001D921C92139714961D921D921D921C92AE
:1016D0001397149686E58C9311961D921D921D9278
:1016E0001C92139714961D921D921D921C92139793
:1016F00014961D921D921D921C92139714961D9282
:101700001D921D921C92139714961C9211961C9276
:1017100011961C9211961C92A55ABF4F21E034E0FD
:1017200011963C932E9312968FEF9FEF11969C93F8
:101730008E93AC55B1091C92A25ABF4F11963C939F
:101740002E93129611969C938E93AF55B1091C92CD
:10175000AF59BF4F11963C932E93129611969C93BE
:101760008E93A256B1091D921D921D921C92139741
:1017700014961D921D921D921C9213971496119609
:101780001C921E92129611961C921E9212961196FF
:101790001C921E9212961C9211961D921D921D92E1
:1017A0001C92139714961D921D921D921C921397D2
:1017B000149640E050E060E272E44D935D936D93C7
:1017C0007C93139714961C9211961C921196119665
:1017D0001C921E92129611961C921E92169640E032
:1017E00050E060E87FE34D935D936D937C93139796
:1017F00014961C92119640EE53E964E070E04D930C
:101800005D936D937C93139714961C9211961C9282
:10181000119683E690E011969C938E9312961C92FB
:10182000119640E050E46CE176E44D935D936D9346
:101830007C931397149611961C921E92129681E037
:1018400090E011969C938E93129640E056E960E0EA
:1018500070E04D935D936D937C93139714964D9325
:101860005D936D937C931397149640E855E260E086
:1018700070E04D935D936D937C93139714964D9305
:101880005D936D937C93139714964D935D936D9335
:101890007C93139718964D935D936D937C93139758
:1018A00014961C92E053FF4F8DE090E0918380836B
:1018B00008950F931F93CF93DF938C01EB0166E4A0
:1018C00073E0CE010E94463968E373E0CE010E94C6
:1018D000463962E373E0CE010E944639F801ED55C6
:1018E000FF4F608171814AE050E0CE010E944F3A83
:1018F0006CE273E0CE010E944639F801EB55FF4FD0
:10190000608171814AE050E0CE010E944F3A66E268
:1019100073E0CE010E944639F801E955FF4F40813E
:101920005181628173812AE030E0CE010E94053A44
:1019300060E273E0CE010E944639F801E555FF4FA1
:1019400040815181628173812AE030E0CE010E94A2
:10195000053A6AE173E0CE010E944639F801E1558B
:10196000FF4F40815181628173812AE030E0CE01D6
:101970000E94053A64E173E0CE010E944639F80105
:10198000ED54FF4F40815181628173812AE030E044
:10199000CE010E94053A6EE073E0CE010E94463906
:1019A000F801ED53FF4F608170E04AE050E0CE0156
:1019B0000E944F3A68E073E0CE010E944639F80178
:1019C000EC53FF4F608171814AE050E0CE010E94EC
:1019D0004F3A62E073E0CE010E944639F801EA53C3
:1019E000FF4F608171814AE050E0CE010E944F3A82
:1019F0006CEF72E0CE010E944639F801E853FF4FC8
:101A0000608171814AE050E0CE010E944F3A66EF5A
:101A100072E0CE010E944639F801E653FF4F608123
:101A200071814AE050E0CE010E944F3A60EF72E0CF
:101A3000CE010E944639F801E453FF4F6081718165
:101A40004AE050E0CE010E944F3A6AEE72E0CE01C9
:101A50000E944639F801E253FF4F608171814AE0EC
:101A600050E0CE010E944F3A68EE72E0CE010E9433
:101A7000883980E090E0DF91CF911F910F91089518
:101A80000F931F93CF93DF93EC01FC01E053FF4FC3
:101A9000408160E070E08EE39CE00E941032FE0125
:101AA000EF52FF4F408161E070E08EE39CE00E94C6
:101AB0001032C558DF4F64E070E049918B010F5F31
:101AC0001F4F8EE39CE00E9410320935110511F082
:101AD000B801F3CFDF91CF911F910F910895EF924D
:101AE000FF920F931F93CF93DF931F921F92CDB757
:101AF000DEB78C0160E070E08EE39CE00E940D3266
:101B0000898361E070E08EE39CE00E940D328A835D
:101B1000F801E053FF4F29813A8180819181281794
:101B2000390719F0C8010E94400D05581F4F64E0A5
:101B300070E07B018FEFE81AF80A8EE39CE00E94C8
:101B40000D32F80181938F01F9E5EF16F10411F0E0
:101B5000B701EFCF0F900F90DF91CF911F910F91B1
:101B6000FF90EF900895FC016081718182819381E3
:101B70000895FC0164817581868197810895FC0137
:101B800064897589868997890895FC0165A176A184
:101B900087A190A5089585589F4FFC0160817181B0
:101BA00082819381089581589F4FFC0160817181EA
:101BB000828193810895FC01608D718D828D938D5A
:101BC0000895FC01658D768D878D90A108958D57C0
:101BD0009F4FFC0160817181828193810895FC0196
:101BE00060897189828993890895FC0161A172A13C
:101BF00083A194A10895FC0161A572A583A594A574
:101C00000895FC0167A970AD81AD92AD0895FC0106
:101C100063A974A985A996A90895FC0122A927356D
:101C200059F4EA58FF4F60817181882777FD8095CC
:101C3000982F0E944F410895FC016085718582852F
:101C400093850895EF92FF920F931F93CF93DF93A5
:101C50008C01EB0163EA73E0CE010E94463965E92D
:101C600073E0CE010E944639F80165A570E04AE0B4
:101C700050E0CE010E944F3A6FE873E0CE010E941F
:101C80004639F80162A9CE010E946D39F80185A597
:101C90008823A9F169E873E0CE010E944639F80172
:101CA00043A954A965A976A922E030E0CE010E949B
:101CB000683B63E873E0CE010E944639C8010E9488
:101CC0000D0EAB01BC0122E030E0CE010E94683B6A
:101CD0006DE773E0CE010E94463920E030E044E039
:101CE00052E4F80167A970AD81AD92AD0E94E63F64
:101CF000AB01BC0122E030E0CE010E94683B67E707
:101D000073E0CE010E9446397801F7E8EF0EF11C2E
:101D1000F701608170E04AE050E0CE010E944F3A46
:101D200061E773E0CE010E944639F801ED57FF4F9D
:101D3000408151816281738122E030E0CE010E94B6
:101D4000683BF7018081882389F16BE673E0CE015F
:101D50000E944639F801E558FF4F40815181628168
:101D6000738122E030E0CE010E94683B65E673E0BB
:101D7000CE010E944639F801E158FF4F4081518160
:101D80006281738122E030E0CE010E94683B6FE502
:101D900073E0CE010E944639F8014489558966896D
:101DA000778922E030E0CE010E94683B69E573E06C
:101DB000CE010E944639F801E256FF4F608170E083
:101DC0004AE050E0CE010E944F3A63E573E0CE0155
:101DD0000E944639F801E456FF4F608171814AE064
:101DE00050E0CE010E944F3A61E573E0CE010E94BF
:101DF000883980E090E0DF91CF911F910F91FF90A3
:101E0000EF900895CF92DF92EF92FF92CF93DF93FE
:101E1000EC010E940D0E9B01AC016BA97CA98DA960
:101E20009EA90E94E63F6B017C0120E030E044E384
:101E300053E40E94B04218167CF020E030E044E306
:101E400053ECC701B6010E94AD4087FF0AC020E0F5
:101E500030E044EB53E408C020E030E044EB53ECC6
:101E600003C020E030E0A901C701B6010E94E73FAE
:101E70006EA77FA788AB99ABDF91CF91FF90EF90D2
:101E8000DF90CF90089587579F4FFC01808191810B
:101E9000089585579F4FFC01808191810895835754
:101EA0009F4FFC0160817181828193810895835BE2
:101EB0009F4FFC01608171818281938108958A5ACC
:101EC0009F4FFC0160817181828193810895865AC0
:101ED0009F4FFC01608171818281938108958F56AB
:101EE0009F4FFC01608171818281938108958B5A9B
:101EF0009F4FFC0180810895FC016085718582857A
:101F000093850895FC016485758586859785089578
:101F10008C539F4FFC018081918108958C539F4F7A
:101F2000FC017183608308958A539F4FFC01808177
:101F30009181089588539F4FFC018081918108957C
:101F400088539F4FFC0171836083089586539F4F90
:101F5000FC0180819181089584539F4FFC01808111
:101F60009181089584539F4FFC017183608308958C
:101F700082539F4FFC018081918108958D559F4F21
:101F8000FC0180819181089584569F4FFC018081DE
:101F9000918108958A589F4FFC0180819181089515
:101FA00080599F4FFC0160817181828193810895E6
:101FB00081569F4FFC0160817181828193810895D8
:101FC0008C589F4FFC0180819181089589579F4FC4
:101FD000FC0180810895845B9F4FFC0180810895FE
:101FE00082569F4FFC0180810895FC0140835183FC
:101FF000628373830895FC014483558366837783EA
:10200000089589579F4FFC0160830895FC01648FF8
:102010000895FC01448B558B668B778B0895FC01EA
:1020200045A356A367A370A7089585589F4FFC0149
:102030004083518362837383089581589F4FFC01CD
:1020400040835183628373830895FC01408F518FD5
:10205000628F738F0895FC01458F568F678F70A331
:1020600008958D579F4FFC01408351836283738392
:102070000895FC01408B518B628B738B0895FC019A
:1020800041A352A363A374A30895FC0141A752A7DF
:1020900063A774A70895CF93DF93EC01673511F020
:1020A000633429F56AAB673581F4FE01EA58FF4FC6
:1020B00060817181882777FD8095982F0E944F411C
:1020C0006BAB7CAB8DAB9EAB0AC0633441F44885EF
:1020D00059856A857B854BAB5CAB6DAB7EAB40E0D5
:1020E00050E064E072E44FAB58AF69AF7AAFDF9174
:1020F000CF910895FC0147AB50AF61AF72AF089527
:10210000CF93DF93EC01CB01BA010E941C41CB01BC
:1021100088599E4F68E671E00E94A143BC01882760
:1021200077FD8095982F0E944F416BAB7CAB8DABB8
:102130009EABDF91CF9108958E599F4FFC01408354
:102140005183628373830895845B9F4FFC01608396
:102150000895835B9F4FFC014083518362837383A7
:1021600008958A5A9F4FFC01408351836283738391
:102170000895865A9F4FFC01408351836283738385
:102180000895825A9F4FFC01408351836283738379
:1021900008958B5A9F4FFC01608308958F5A9F4F7B
:1021A000FC0140835183628373830895FC0140875F
:1021B0005187628773870895FC0144875587668736
:1021C00077870895CF93DF931F92CDB7DEB76983EA
:1021D000298187599F4FFC0120830F90DF91CF9178
:1021E0000895CF93DF931F92CDB7DEB7698329811E
:1021F00086599F4FFC0120830F90DF91CF91089566
:10220000CF93DF931F92CDB7DEB7698329818559BC
:102210009F4FFC0120830F90DF91CF9108958D5542
:102220009F4FFC0171836083089582569F4FFC018C
:102230006083089584569F4FFC01718360830895E5
:102240008A589F4FFC0171836083089588589F4F7F
:10225000FC0171836083089580599F4FFC01408386
:10226000518362837383089584599F4FFC01408397
:102270005183628373830895FC01E658FF4F2081E8
:102280002223F9F0739720812223D9F031972081FE
:102290002223B9F0FC01248D222399F023AD2223BF
:1022A00081F0E859FF4F2081222359F03196208197
:1022B000222339F031962081222319F03196808132
:1022C000089580E00895FC0185A508951F93CF939C
:1022D000DF93EC01162F6AA90E944B101DA7DF9116
:1022E000CF911F9108958C589F4FFC01718360839B
:1022F000089586589F4FFC01608308958B559F4F2A
:10230000FC018081918108958B559F4FFC01718361
:102310006083089589559F4FFC016081718182819E
:102320009381089589559F4FFC01408351836283B7
:102330007383089585559F4FFC016081718182816F
:102340009381089585559F4FFC014083518362839B
:102350007383089581559F4FFC0160817181828153
:102360009381089581559F4FFC014083518362837F
:10237000738308958D549F4FFC0160817181828128
:10238000938108958D549F4FFC0140835183628354
:102390007383089589549F4FFC016081718182810C
:1023A0009381089585549F4FFC01608171818281E2
:1023B0009381089581549F4FFC01608171818281D6
:1023C000938108958D539F4FFC01808108958D5313
:1023D0009F4FFC016083089581E08093C40B80913E
:1023E000C20B9091C30B01969093C30B8093C20BC9
:1023F0008091C20B9091C30B64E170E00E94A143F5
:102400009093C30B8093C20B08958FE096E00C94D9
:10241000541E8FE096E00C94901E80EF9AE00E948C
:102420006F0D80EF9AE00E948A11AB01BC0126E09B
:1024300080E09DE00E94D6356EED74E080E09DE086
:102440000E94883989E096E00E94181B63EC74E0D2
:1024500080E09DE00E94463980EF9AE00E949A1148
:10246000AB01BC012AE030E080E09DE00E94573AD9
:1024700080EF9AE00E949A11AB01BC0126E08DE941
:102480009DE00E94D63580EF9AE00E94E2118823F9
:1024900061F063EA74E080E09DE00E94883927E003
:1024A00040EC52E160E070E019C067E874E080E061
:1024B0009DE00E94463980EF9AE00E94AA11AB018C
:1024C000BC012AE030E080E09DE00E94573A80EFB6
:1024D0009AE00E94AA11AB01BC0126E08AE39EE0CB
:1024E0000E94D6356BE674E080E09DE00E9446399C
:1024F00080EF9AE00E94BA11AB01BC012AE030E003
:1025000080E09DE00E94573A80EF9AE00E94BA1165
:10251000AB01BC0126E087ED9EE00E94D63569E55F
:1025200074E080E09DE00E94883968EE73E080E00E
:1025300090E00E94EE3D61E083E40E94F13E64E49D
:1025400074E080E09DE00E94883964E670E080E0FD
:1025500090E00E94EE3D61E083E40E942A3F6FE23A
:1025600074E080E09DE00E94883963E174E080E0DF
:102570009DE00E94463980EF9AE00E94CA11AB01AB
:10258000BC012AE030E080E09DE00E94573A80EFF5
:102590009AE00E94CA11AB01BC018BEF95E00E944A
:1025A000022B64E670E080E090E00E94EE3D63E084
:1025B00074E080E09DE00E94883960E080E30E9442
:1025C000F13E61E08EE20E94F13E6AED73E080E050
:1025D0009DE00E94463980EF9AE00E94D211AB0143
:1025E000BC012AE030E080E09DE00E94573A80EF95
:1025F0009AE00E94D211AB01BC018FEA9AE00E94DE
:10260000D11B83EA95E00E94AA086DEC73E080E09C
:102610009DE00E94883960E083E00E94F13E43E043
:1026200050E065E072E181E00E946A3B60E082E098
:102630000E94F13E43E050E069E072E180E00E94D8
:102640006A3B6FEB73E080E09DE00E9488394CEEBE
:1026500051E164E670E080E090E00E9472310E94F7
:102660007E316EEA73E080E09DE00C9488396F92D1
:102670007F928F929F92AF92BF92CF92DF92EF9212
:10268000FF920F931F93CF93DF9300D01F921F925F
:10269000CDB7DEB7ADB6BEB66FE774E00E949E451B
:1026A0007C01009709F428C2FC0101900020E9F7A1
:1026B0008F0101501109081B190B0430110508F492
:1026C0001BC2F701808198012450310969018DB640
:1026D0009EB6833209F0ADC144E050E0B701CE01AF
:1026E00001960E94BB451D82380135E0631A7108CE
:1026F0008DB79EB78C199D090FB6F8949EBF0FBE7B
:102700008DBF0DB71EB70F5F1F4FB7016B5F7F4FB8
:10271000A301C8010E94A245F801E60DF71D108231
:1027200069E172E0CE0101960E94AB45892BB1F4BC
:10273000C8010E94594561E0892B09F460E080EFEF
:102740009AE00E940110C8010E945945019709F0C2
:10275000CEC18FE995E00E947A08C9C16EE172E0AE
:10276000CE0101960E94AB45892BB1F480EF9AE02F
:102770000E94E70D6B017C01C8010E9455459B0139
:10278000AC01C701B6010E94E73FAB01BC0180EF7D
:102790009AE00E943110ABC163E272E0CE01019673
:1027A0000E94AB45892B51F4C8010E945545AB01ED
:1027B000BC0180EF9AE00E94151099C168E272E0B6
:1027C000CE0101960E94AB45892B51F4C8010E94AD
:1027D0005545AB01BC0180EF9AE00E941D1087C1F6
:1027E0006DE272E0CE0101960E94AB45892B61F447
:1027F000C8010E94594561E0892B09F460E080EF2F
:102800009AE00E94661169C162E372E0CE0101960E
:102810000E94AB45892BC1F480EF9AE00E94070E1D
:102820006B017C01C8010E9477450E944F419B01CA
:10283000AC01C701B6010E94E73FAB01BC0180EFCC
:102840009AE00E94801049C167E372E0CE010196D0
:102850000E94AB45892B39F4F801608180EF9AE042
:102860000E944B103AC16CE372E0CE0101960E94C7
:10287000AB45892B61F4C8010E94594561E0892B61
:1028800009F460E080EF9AE00E94151130C161E424
:1028900072E0CE0101960E94AB45892B49F4C80134
:1028A0000E945945BC0180EF9AE00E941A111FC195
:1028B00066E472E0CE0101960E94AB45892B49F493
:1028C000C8010E945945BC0180EF9AE00E940F1197
:1028D0000EC16BE472E0CE0101960E94AB45892BDC
:1028E00049F4C8010E945945BC0180EF9AE00E945A
:1028F0008E0FFDC060E572E0CE0101960E94AB45EF
:10290000892B49F4C8010E945945BC0180EF9AE027
:102910000E94A00FECC065E572E0CE0101960E9416
:10292000AB45892B49F4C8010E945945BC0180EF91
:102930009AE00E94B20FDBC06AE572E0CE01019618
:102940000E94AB45892B39F460E07DE080EF9AE08E
:102950000E94590CC2C06FE572E0CE0101960E9440
:10296000AB45892B49F4C8010E945945BC0180EF51
:102970009AE00E948411BBC064E672E0CE01019629
:102980000E94AB45892B51F4C8010E947745AB01E9
:10299000BC0180EF9AE00E949211A9C069E672E042
:1029A000CE0101960E94AB45892B51F4C8010E94CB
:1029B0007745AB01BC0180EF9AE00E94A21197C05D
:1029C0006EE672E0CE0101960E94AB45892B51F470
:1029D000C8010E947745AB01BC0180EF9AE00E94DC
:1029E000B21185C063E772E0CE0101960E94AB454B
:1029F000892B51F4C8010E947745AB01BC0180EFDF
:102A00009AE00E94C21173C068E772E0CE0101969D
:102A10000E94AB45892B09F060C0C8010E9459454E
:102A200061E0892B09F460E080EF9AE00E94E711F1
:102A30005EC043E050E0B701CE0101960E94BB4565
:102A40001C82035011092DB73EB7201B310B0FB666
:102A5000F8943EBF0FBE2DBF0DB71EB70F5F1F4FBF
:102A6000B7016C5F7F4FA601C8010E94A245F80123
:102A7000EC0DFD1D10826DE772E0CE0101960E9403
:102A8000AB45892B49F4C8010E945545AB01BC01F7
:102A900080EF9AE00E94D61061E872E0CE010196C4
:102AA0000E94AB45892B49F4C8010E945545AB01F2
:102AB000BC0180EF9AE00E94DC1065E872E0CE0174
:102AC00001960E94AB45892B41F4C8010E945945EB
:102AD000BC0180EF9AE00E9426110FB6F8949EBECA
:102AE0000FBE8DBE6FE774E080E090E0D7CD80EF41
:102AF0009AE00E94400DF1CF0FB6F894BEBE0FBE13
:102B0000ADBE0F900F900F900F900F90DF91CF916F
:102B10001F910F91FF90EF90DF90CF90BF90AF90FB
:102B20009F908F907F906F900895CF93DF93DC01FB
:102B3000FC0101900020E9F7E81BF90B3297EC014A
:102B4000219680E09E012A1B3B0B2E173F0718F4AD
:102B500099918927F7CFDF91CF9108951F93CF9354
:102B6000DF93C1E2D5E014E680E09DE00E946A3484
:102B7000892B61F180E09DE00E94853420911F0542
:102B800030912005F901EF5DFA4F80832F5F3F4FB1
:102B90003093200520931F058A3029F08D3019F0DD
:102BA000233631050CF3F901EF5DFA4F10826CE228
:102BB00081E295E00E9437131092200510921F05C4
:102BC000FE01812F11928A95E9F7CECFDF91CF9147
:102BD0001F9108958DE99DE00E946A34892BF9F0D8
:102BE0008DE99DE00E948534682F89E096E00E947F
:102BF000601980931E05882369F386E499E00E949A
:102C00000E26BC018FEA9AE00E94E21B86E499E05E
:102C10000E940E26BC0180E09DE00C949A39089534
:102C20008AE39EE00E946A34892B79F180EF9AE072
:102C30000E94E211882351F08AE39EE00E948534CD
:102C4000682F85E895E00E94031DEACF8AE39EE0A5
:102C50000E948534682F8EEA97E00E94481B80937B
:102C60001D058823E9F28EEA97E00E94B11BBC01A2
:102C70008FEA9AE00E94E21B8EEA97E00E94B11B65
:102C8000BC0180E09DE00C949A39089587ED9EE0A8
:102C90000E946A34892BF9F087ED9EE00E9485340A
:102CA000682F82EE96E00E94481B80931C058823C3
:102CB00069F382EE96E00E94B11BBC018FEA9AE0B4
:102CC0000E94E21B82EE96E00E94B11BBC0180E0F4
:102CD0009DE00C949A3908958BEF95E00E944F2A5D
:102CE000892BF9F08BEF95E00E944A2A682F86E144
:102CF00096E00E94481B80931B05882369F386E1B8
:102D000096E00E94B11BBC018FEA9AE00E94E21B90
:102D100086E196E00E94B11BBC0180E09DE00C942E
:102D20009A3908958091C40B882309F444C083EA3A
:102D300095E00E94BF098091C20B9091C30B8091D6
:102D4000C20B9091C30B65E070E00E94A143892BF8
:102D500071F48FE096E00E94ED1E81E196E00E9402
:102D6000C30460E07DE080EF9AE00E94220E809133
:102D7000C20B9091C30B6AE070E00E94A143892BC3
:102D8000C1F48FE096E00E94F21F8FEA9AE00E9461
:102D9000E41B8FE995E00E94760781E196E00E94AE
:102DA000200581E196E00E945A058FEA9AE00E9490
:102DB0005A1C1092C40B0C946C1680EF9AE00E947F
:102DC000E90A1092B20A1092B10A88EE93E0A0E0EC
:102DD000B0E08093B30A9093B40AA093B50AB0937D
:102DE000B60A87E992E09093B00A8093AF0A80EF29
:102DF0009AE09093BC0A8093BB0A60E070E086E49E
:102E000099E00E94842560E070E08AE798E00E94E3
:102E10003F1B60E070E08EEA97E00E943F1B60E09D
:102E200070E082EE96E00E943F1B60E070E086E179
:102E300096E00E943F1B60EF7AE081E196E00E94FD
:102E40007B0460EF7AE08FE096E00E94141D40EF73
:102E50005AE066E479E089E096E00E946A1741E072
:102E600063E48BEF95E00E94902960EF7AE083EABB
:102E700095E00E949A0860EF7AE08FE995E00E9461
:102E80004E0740EF5AE06AE37EE085E895E00C9457
:102E9000FB1C8FE995E00E94AE0583EA95E00E9455
:102EA0006F0989E096E00E945D1781E196E00E943B
:102EB0006E048FEA9AE00C94BC1B2FE832E0FC0110
:102EC0003183208308952FE832E0FC013183208391
:102ED0000C94733DFC018FE892E0918380835583CD
:102EE0004483738362830895CF92DF92EF92FF92BF
:102EF0001F93CF93DF93162F60E0812F0E94F13E46
:102F000061E0812F0E942A3FC0E0D4E080E1C82E1A
:102F100087E2D82EE12CF12C28E438EE41E050E095
:102F200060E0812F0E94603F1616170618061906EA
:102F30003CF46C157D058E059F0514F46B017C0136
:102F4000219751F76EE876E080E09DE00E944639D7
:102F50002AE030E0B701A60180E09DE00E94573AE8
:102F60008CE0C816D104E104F104F4F184E1C81640
:102F7000D104E104F104ECF18EE1C816D104E104BE
:102F8000F104E4F188E2C816D104E104F104DCF1B3
:102F90008CE3C816D104E104F104D4F180E5C8162D
:102FA000D104E104F104CCF186E9C816D104E104AE
:102FB000F104C4F18CE2C81681E0D806E104F10402
:102FC000B4F188E5C81682E0D806E104F104A4F162
:102FD00080EBC81684E0D806E104F10494F560EBB8
:102FE00074E080E090E030C060E072EC81E090E05E
:102FF0002BC060E071EE80E090E026C060E076E9F2
:1030000080E090E021C060E870E780E090E01CC0C4
:1030100060E07BE480E090E017C060E478E380E06B
:1030200090E012C060E875E280E090E00DC060ECD6
:1030300072E180E090E008C060E679E080E090E036
:1030400003C060E070E0CB01DF91CF911F91FF9052
:10305000EF90DF90CF900895CF92DF92EF92FF92A2
:103060007C016AE776E080E09DE00E94463963E1FA
:1030700070E0C7010E9474176B017C0116161706D9
:1030800018061906C4F463E776E080E09DE00E942C
:1030900046392AE030E0B701A60180E09DE00E94B9
:1030A000573A26E0B701A6018DE99DE00E94D6358A
:1030B000B601C70119C06CE676E080E09DE00E9491
:1030C000463967E576E080E09DE00E94883926E099
:1030D00040EC52E160E070E08DE99DE00E94D63561
:1030E00060EC72E180E090E0FF90EF90DF90CF9095
:1030F00008954F925F926F927F928F929F92AF92BC
:10310000BF92CF92DF92EF92FF920F931F93CF93D4
:10311000DF93CDB7DEB760970FB6F894DEBF0FBE72
:10312000CDBF69837A838B839C83CA01B901270150
:103130003801A60195010E94E63F25E33AEF4EE8EB
:103140005CE30E94BB426B017C010E941E436D87C1
:103150007E878F87988BC701B6010E94B1406D832F
:103160007E838F83988725E33AEF4EE85CE369819D
:103170007A818B819C810E94BB426B017C0125E39B
:103180003AEF4EE85CE3C301B2010E94BB422B015F
:103190003C01C701B6010E941E434B015C01C701FF
:1031A000B6010E94B14069837A838B839C83C301FB
:1031B000B2010E941E4369877A878B879C87C3016F
:1031C000B2010E94B1406B017C0129853A854B8593
:1031D0005C8569817A818B819C810E94BB422B0135
:1031E0003C01A7019601C501B4010E94BB422D819B
:1031F0003E814F8158850E94BB429B01AC01C301B7
:10320000B2010E94E63F9B01AC010E94BB422B0130
:103210003C012D853E854F855889C701B6010E9426
:10322000BB429B01AC010E94BB429B01AC01C301AC
:10323000B2010E94E73F0E9428432B013C012985EF
:103240003A854B855C85C501B4010E94BB424B01A8
:103250005C01A701960169817A818B819C810E9422
:10326000BB422D813E814F8158850E94BB429B010C
:10327000AC01C501B4010E94E73F9B01AC01C30151
:10328000B2010E945A4026E73BE742EC5AE40E9412
:10329000BB4260960FB6F894DEBF0FBECDBFDF9184
:1032A000CF911F910F91FF90EF90DF90CF90BF9043
:1032B000AF909F908F907F906F905F904F90089508
:1032C000CF93DF93EC018A819B810E94AD2661E060
:1032D000892B09F460E08C819D810E94A4108C816F
:1032E0009D810E94EB0F882369F18A819B810E9456
:1032F000E525682F8C819D810E94C9108A819B8160
:103300000E94E5258134F1F460E070E08A819B81C0
:103310000E941026FC0182818235A1F060E070E0FD
:103320008A819B810E941026FC0183818D3451F09B
:1033300060E070E08A819B810E941026FC018481FC
:10334000833431F48C819D81DF91CF910C94EB0F0C
:103350000E94BF3DAB01BC018C819D810E94A910E0
:103360008A819B810E940826AB01BC018C819D81D2
:103370000E949C108A819B810E94E825AB01BC01C0
:103380008C819D810E94B1108A819B810E94EE25D3
:10339000AB01BC018C819D810E94B9108C819D8103
:1033A0000E946F0FAB01BC018A819B810E94F425B2
:1033B000AB01BC018C819D810E94C1108A819B81DF
:1033C0000E94DF25AB01BC018C819D810E94CE1043
:1033D000B9CFDF92EF92FF920F931F93CF93DF93BA
:1033E000CDB7DEB7A8970FB6F894DEBF0FBECDBF3E
:1033F0008C0161E476E080E09DE00E948839F8016C
:10340000848195810E947E11892B31F46AE276E0F5
:1034100080E09DE00E948839F801848195810E94B6
:103420007E11019709F07FC063E176E080E09DE0C6
:103430000E94883965E076E08DE99DE00E94883938
:103440006DEE75E08DE99DE00E94883965ED75E0CF
:103450008DE99DE00E9488396DEB75E08DE99DE076
:103460000E94883965EA75E08DE99DE00E948839FF
:103470006DE875E08DE99DE00E94883965E775E0AB
:103480008DE99DE00E94883967E675E08DE99DE051
:103490000E9488391AA219A285E794E098A38F8F19
:1034A000CE0101967C019CA38BA38EE190E098A7AE
:1034B0008FA3CE014F960E94C8216BE575E0CE0127
:1034C0004F960E944639F801848195810E949A1195
:1034D000AB01BC012AE030E0CE014F960E94053AD4
:1034E00063E575E0CE014F960E944639C7010E9400
:1034F0009515D82EFFE0F81728F060E3CE014F961F
:103500000E946D3940E150E06D2DCE014F960E9432
:10351000763AB7018DE99DE00E949A39B70180E0C3
:103520009DE00E949A39F801848195810E947E1164
:10353000029709F055C06AE375E080E09DE00E94C3
:10354000883969E275E08DE99DE00E94883967EF6E
:1035500074E08DE99DE00E9488391AA219A285E7DE
:1035600094E098A38F8FCE0101967C019CA38BA33E
:103570008EE190E098A78FA3CE014F960E94C821BC
:103580006DEE74E0CE014F960E944639F8018481B9
:1035900095810E949A11AB01BC012AE030E0CE0176
:1035A0004F960E94053A69E872E0CE014F960E945C
:1035B0006B39C7010E949515182F803128F460E3FC
:1035C000CE014F960E946D3940E150E0612FCE014F
:1035D0004F960E94763AB7018DE99DE00E949A3994
:1035E000A8960FB6F894DEBF0FBECDBFDF91CF9186
:1035F0001F910F91FF90EF90DF9008951092C80BEC
:103600001092C70B85E794E09093C60B8093C50B8F
:103610008FEC9BE09093CA0B8093C90B88E290E0FB
:103620009093CE0B8093CD0B85EC9BE00C94C8213E
:10363000CF93DF93EC010E942C18AB01BC018C816D
:103640009D810E94A2118C819D810E94400DCE011E
:103650000E94E9198DE99DE00E94F7348DE99DE013
:103660000E9438368C819D810E949A11AB01BC0169
:1036700026E08DE99DE0DF91CF910C94D635FC01D9
:10368000E853FF4F11821082329611821082089502
:10369000CF93DF93DC01A853BF4F4D915C911197FD
:1036A000FC01E653FF4F4236510514F0118210829F
:1036B0006A3011F06D3011F411821082643261F4BD
:1036C00024E6EC0119922A95E9F7EC01688381E080
:1036D00090E08D939C933AC0208131812130310557
:1036E000E1F024F421153105C1F133C02230310558
:1036F00011F12330310569F5FC01E40FF51F6083FA
:103700004E5F5F4F4D935C931182BC018C599F4F6C
:103710000E94B44521E030E020C09A012F5F3F4F66
:10372000EC01C40FD51F2D933C9368836A3299F442
:1037300082E090E00BC09A012F5F3F4F2D933C93A6
:10374000DC01A40FB51F6C9383E090E0918380832C
:1037500002C01182108220E030E0C901DF91CF91D8
:1037600008958C599F4F0895862F0E949A3281E0C8
:1037700090E008950C945D3327E934E0FC01318337
:1037800020830C945634CF93DF93EC0187E994E0C7
:10379000998388830E945634CE01DF91CF910C9497
:1037A000733D9A01AB01CA01B9019695879577954A
:1037B00067957C5D8B409F4F0E94B543CA01B9015C
:1037C0000C9448320C949A39EF92FF920F931F9306
:1037D000CF93DF93CDB7DEB72A970FB6F894DEBF4D
:1037E0000FBECDBF8C017C018EE0E80EF11C1C8267
:1037F0001B8285E794E09A838983FE82ED828EE1C5
:1038000090E09A878987CE0101960E94C8216FEBCC
:1038100076E0CE0101960E944639F80184859585AF
:103820000E94CA0F4AE050E0BC01CE0101960E94FE
:103830004F3A69EB76E0CE0101960E944639F801D5
:10384000848595850E94D00FAB01BC0122E030E059
:10385000CE0101960E94683B63EB76E0CE010196B3
:103860000E944639C7010E949515005C1F4FF80160
:103870008083803128F460E3CE0101960E946D3987
:1038800040E150E0F8016081CE0101960E94763A55
:10389000B70180E09DE00E949A392A960FB6F8940D
:1038A000DEBF0FBECDBFDF91CF911F910F91FF9073
:1038B000EF900895AF92BF92CF92DF92EF92FF9276
:1038C0000F931F93CF93DF93CDB7DEB72A970FB631
:1038D000F894DEBF0FBECDBF8C01FC0184859585B9
:1038E0000E94820F20E030E0A9010E94AD408823B1
:1038F00009F470C05801FCE2AF0EB11C1C821B829F
:1039000085E794E09A838983BE82AD8284E190E06A
:103910009A878987CE0101960E94C8216BEA76E0DA
:10392000CE0101960E944639F801848595850E9452
:103930007C0F6B017C01F801848595850E94820FC4
:103940009B01AC01C701B6010E94E63FAB01BC017F
:1039500022E030E0CE0101960E94683B67EA76E003
:10396000CE0101960E9446397801F0E4EF0EF11C79
:10397000F701108281E090E0F50101900020E9F765
:10398000EA19FB0932978E179F0750F4F801E80FE8
:10399000F91F24A5F7013081232720830196ECCF5E
:1039A000F7018081803128F460E3CE0101960E9406
:1039B0006D3940E150E0F7016081CE0101960E942F
:1039C000763AB50180E09DE00E949A39B501C801C0
:1039D0000E949A392A960FB6F894DEBF0FBECDBF6B
:1039E000DF91CF911F910F91FF90EF90DF90CF90DB
:1039F000BF90AF900895FC01578B468B718F608FFD
:103A0000118210820895FC01A081B181A80FB91F15
:103A100012966C938081918143972CF480819181DF
:103A20000196918380830895CF93DF93EB01FC018E
:103A3000718360830E94CB3D6093250C7093260CAC
:103A40008093270C9093280C4091250C5091260CC4
:103A50006091270C7091280C4093210C5093220CFC
:103A60006093230C7093240C10920D0C10920E0C8A
:103A700010920F0C1092100C81E08093080C1092A1
:103A8000FA0B1092FB0B8091F70B9091F80B20E052
:103A90003091F90B231760F4FC0134E0239FE00D13
:103AA000F11D112410821182128213822F5FF0CF38
:103AB000CE010E94C40F843691053CF063E670E0AD
:103AC000CE01DF91CF910C941A11DF91CF9108951F
:103AD000CF92DF92EF92FF920F931F93CF93CB0180
:103AE000BA0197FF09C090958095709561957F4FB9
:103AF0008F4F9F4FC0E001C0C1E0683621E07207E0
:103B00008105910534F028E631E040E050E00E9464
:103B1000D743653B71058105910534F0645B7109FC
:103B20008109910921E0C2276B3571058105910555
:103B300064F004EB10E020E030E068017901C61A7F
:103B4000D70AE80AF90AC701B601660F771FFB0119
:103B5000E554FC4F60817181CC2319F080E090E046
:103B60000CC0CB01A0E0B0E09C01AD016627772737
:103B7000CB01621B730B840B950BCF911F910F919F
:103B8000FF90EF90DF90CF900895465A5F4F6F4FB0
:103B90007F4F0C94681D4F925F926F927F928F922D
:103BA0009F92AF92BF92CF92DF92EF92FF920F93CC
:103BB0001F93CF93DF938C016090FA0BC091F70BAA
:103BC000D091F80B712CC12CD12C7601812C912C29
:103BD00054017614C1F0488159816A817B81C80102
:103BE0000E94C51D860E971EA81EB91E49915991A7
:103BF00069917991C8010E94681DC60ED71EE81E02
:103C0000F91E7394E6CF81149104A104B10429F440
:103C1000C114D104E104F104A1F1662D70E080E04B
:103C200090E00E944F412B013C01C501B4010E946C
:103C30004F4120E830E040E857E30E94BB42A30137
:103C400092010E94B4404B015C01C701B6010E9481
:103C50004F4120E830E040E857E30E94BB42A30117
:103C600092010E94B440A50194010E945A4021EEA5
:103C70003EE245E652E40E94BB420E941C41CB0159
:103C800002C080E090E0DF91CF911F910F91FF90F3
:103C9000EF90DF90CF90BF90AF909F908F907F90EC
:103CA0006F905F904F9008950F931F930E94BF3DB8
:103CB00000912D0C10912E0C20912F0C3091300C76
:103CC000601B710B820B930B6531710581059105AA
:103CD00020F18091250C9091260CA091270CB09199
:103CE000280C8093210C9093220CA093230CB0936A
:103CF000240C0E94CB3D6093250C7093260C80937E
:103D0000270C9093280C0E94BF3D60932D0C70935C
:103D10002E0C80932F0C9093300C1F910F910895CF
:103D20000F931F930E94BF3D0091290C10912A0C04
:103D300020912B0C30912C0C601B710B820B930B80
:103D4000653171058105910508F444C08091150C19
:103D50009091160CA091170CB091180C8093110C37
:103D60009093120CA093130CB093140C0E94CB3DB3
:103D70006093150C7093160C8093170C9093180C8D
:103D80008091210C9091220CA091230CB091240CD5
:103D900080931D0C90931E0CA0931F0CB093200CCD
:103DA0008091250C9091260CA091270CB091280CA5
:103DB0008093190C90931A0CA0931B0CB0931C0CBD
:103DC0000E94BF3D6093290C70932A0C80932B0CAA
:103DD00090932C0C1F910F9108954F925F926F92C8
:103DE0007F928F929F92AF92BF92CF92DF92EF928B
:103DF000FF920F931F93F89480901D0C90901E0CCF
:103E0000A0901F0CB090200C8091190C90911A0C6E
:103E1000A0911B0CB0911C0C4091110C5091120CF4
:103E20006091130C7091140C0091150C1091160CEC
:103E30002091170C3091180C789488169906AA06D0
:103E4000BB0668F46C017D01C818D908EA08FB08B4
:103E5000E0E2CE16EEE4DE06E104F10418F467EACF
:103E600072E034C0401751076207730768F42801F5
:103E70003901441A550A660A770AE0E24E16EEE462
:103E80005E066104710418F463EF72E01FC001154F
:103E9000110521053105C1F0411551056105710577
:103EA00099F00097A105B10579F081149104A1045E
:103EB000B10451F084169506A606B70628F4081733
:103EC00019072A073B0738F46FE373E080E09DE0B1
:103ED0000E949A3978C0C40CD51CE61CF71CF694D5
:103EE000E794D794C794C0920D0CD0920E0CE09238
:103EF0000F0CF092100C28013901440E551E661E5D
:103F0000771EA3019201281939094A095B09281B68
:103F1000390B4A0B5B0B56954795379527952093A0
:103F2000090C30930A0C40930B0C50930C0C211588
:103F300031054105510509F446C02C153D054E05D6
:103F40005F0508F040C0A8E6B1E00E94FC43A7016D
:103F500096010E94B543283681E038074105510596
:103F600090F58091FB0B8F5F8093FB0B9091FA0B88
:103F70006091F90BE091F70BF091F80B9617B0F404
:103F800081E0890F8093FA0B84E0989FE00DF11D8A
:103F9000112420833183428353838091FB0B6091F2
:103FA000FA0B0E9495439093FB0B0DC00E94954322
:103FB0009093FB0B84E0989FE00DF11D112420836A
:103FC0003183428353831F910F91FF90EF90DF90D5
:103FD000CF90BF90AF909F908F907F906F905F90A9
:103FE0004F9008954F925F926F927F928F929F921F
:103FF000AF92BF92CF92DF92EF92FF92CF93DF9377
:10400000EC010E94BF3DC0902D0CD0902E0CE09092
:104010002F0CF090300C6C157D058E059F0550F42B
:104020000E94BF3D60932D0C70932E0C80932F0C3B
:104030009093300C0E94BF3DC090290CD0902A0C68
:10404000E0902B0CF0902C0C6C157D058E059F05D7
:1040500050F40E94BF3D6093290C70932A0C80930A
:104060002B0C90932C0C0E94BF3DAB01BC018881AE
:1040700099810E9434110E94BF3DC0902D0CD090B8
:104080002E0CE0902F0CF090300C6C197D098E09ED
:104090009F09A880B980693B7B4081059105A0F00C
:1040A00040E050E0BA01C501DF91CF91FF90EF9061
:1040B000DF90CF90BF90AF909F908F907F906F9048
:1040C0005F904F900C942C1120910D0C30910E0CA0
:1040D00040910F0C5091100C2115310541055105EF
:1040E00009F4B4C060E071EE85EF95E00E94B5433D
:1040F00069017A01233481E0380741055105F4F55F
:10410000AAE0B0E00E94FC432B013C01C5010E94E3
:10411000D80F4B015C01A3019201C301B2010E94BF
:10412000854327E93FEF4FEF5FEF0E94D743290117
:104130003A01A701960168E273EE83E090E00E94E5
:10414000854324E630E040E050E00E94D743420E31
:10415000531E641E751E24EE421A2FE2520A610895
:104160007108C301B2010E944F41A50194010E9450
:10417000B44020E030E040E251E460C02C3385E1FF
:1041800038074105510554F5C5010E94D80F2B0190
:104190003C01A7019601C701B6010E9485432EEAA2
:1041A00038E040E050E00E94D74349015A01ABE9B2
:1041B000BAE4A70196010E94FC4324E630E040E007
:1041C00050E00E94D743820E931EA41EB51E26EA1D
:1041D000820E25E2921EA11CB11C2AC0C5010E94BC
:1041E000D80F2B013C01A7019601C701B6010E941F
:1041F000854322E134E040E050E00E94D743A4E64A
:10420000B0E00E94FC434B015C01A701960164EB06
:1042100070E281E89FEF0E948543860E971EA81EDC
:10422000B91E84E4880E8DEB981E8BE2A81EB11C8B
:10423000C501B4010E944F41A30192010E94B44004
:10424000AB01BC01888199810E942C1188819981E0
:104250000E94D00F6B017C01888199810E94E00F40
:10426000BC01882777FD8095982F0E944F419B01C4
:10427000AC01C701B6010E94B042181654F48881FF
:1042800099810E94D00F0E941C41888199810E94CF
:104290007311CE010E94CB1D8A5591097C01888142
:1042A00099810E94BE0FB701680F791F77FF02C086
:1042B00068597E4F88819981DF91CF91FF90EF906F
:1042C000DF90CF90BF90AF909F908F907F906F9036
:1042D0005F904F900C9420118CEF9BE09093F80B23
:1042E0008093F70B83E08093F90B1092FA0B1092F6
:1042F000FB0B089561E085E30E942A3F61E085E3BE
:104300000E94F13E8CB580618CBD8CB580648CBD03
:1043100061E084E30E94F13E61E083E30C94F13EAE
:10432000811103C08CB5806202C08CB58F7D8CBDBD
:1043300008959CB5937F982B9CBD08952CB5982F1C
:1043400093702C7F922B9CBD9DB582FB882780F9B2
:104350009E7F982B9DBD0895FC01A681B7819D018C
:104360002F5F3F4F8481958140855185840F951F34
:104370002817390750F4378326836C930680F7811A
:10438000E02D108281E090E0089580E090E00895B3
:10439000FC01A481B581B783A68380859185892B93
:1043A00009F01C92089508952F923F924F925F92C8
:1043B0006F927F928F929F92AF92BF92CF92DF9235
:1043C000EF92FF920F931F93CF93DF93CDB7DEB79A
:1043D0002A970FB6F894DEBF0FBECDBF9A878987A4
:1043E000DC01D6968C91882309F4E5C00E94BF3D7C
:1043F00069837A838B839C83E985FA8580A191A167
:1044000029813A81281B390B84A595A528173907DE
:104410000CF4D1C0028CF38DE02D80809180A280BD
:10442000B380A985BA855E96ED91FC915F97A50151
:10443000940160817181828193810E94E63F2B010A
:104440003C01E985FA8520893189428953890E9496
:10445000BB42A985BA8594962D913D914D915C9171
:1044600097970E94E73F6B017C01E985FA8564A379
:1044700075A386A397A312A903A934A825A8212F61
:10448000302F432D522D0E94B04218162CF4812F4C
:10449000902FA32DB22D18C0A985BA859E968D9117
:1044A0009D910D90BC91A02D8D839E83AF83B88785
:1044B0009C01AD01C701B6010E94AD4087FF0AC053
:1044C0008D819E81AF81B885E985FA8584A395A306
:1044D000A6A3B7A3A985BA851C962D913D914D91B0
:1044E0005C911F97C301B2010E94BB42E985FA8526
:1044F00024A135A146A157A10E94E73F6B017C0191
:10450000A985BA8598962D913D914D915C919B9787
:10451000C501B4010E94E63FE985FA852489358901
:10452000468957890E94BB429B01AC01C701B60175
:104530000E94E63F6B017C01212F302F432D522D2D
:104540000E94B0421816DCF0A985BA859E961C918F
:104550009E979F960C919F97D0963C90D097D1961E
:104560002C90212F302F432D522DB601C7010E94D0
:10457000AD4087FD04C01C2D0D2D3E2C2F2CA98590
:10458000BA855C96ED91FC915D97812F902FA32DBC
:10459000B22D80839183A283B383E985FA8580A6B7
:1045A00091A6A2A6B3A689819A81AB81BC8180A382
:1045B00091A3A2A3B3A32A960FB6F894DEBF0FBEB1
:1045C000CDBFDF91CF911F910F91FF90EF90DF90C2
:1045D000CF90BF90AF909F908F907F906F905F90A3
:1045E0004F903F902F9008952F923F924F925F925D
:1045F0006F927F928F929F92AF92BF92CF92DF92F3
:10460000EF92FF920F931F93CF93DF9300D01F92EF
:10461000CDB7DEB71C012A013B014801590120E05A
:1046200030E0A901C301B2010E94AD4087FD7AC00C
:1046300020E030E0A901C501B4010E94AD4087FD32
:1046400071C020E030E0A901C701B6010E94AD4071
:1046500087FD68C0F1014082518262827382848248
:104660009582A682B782C086D186E286F38664A54B
:1046700075A5882777FD8095982F0E944F4120E0EF
:1046800030E04AE754E40E94B44069837A838B8324
:104690009C83F10144865586668677869B01AC0132
:1046A000C501B4010E94BB424B015C01F101608B6A
:1046B000718B828B938B29813A814B815C81C701FD
:1046C000B6010E94B4406B017C01F101648B758BD3
:1046D000868B978B808D918D019721F5A301920197
:1046E00060E070E0CB010E94E63FF10164877587CE
:1046F00086879787A501940160E070E0CB010E9456
:10470000E63FF101608B718B828B938BA701960141
:1047100060E070E0CB010E94E63FF101648B758B95
:10472000868B978B0F900F900F900F90DF91CF910A
:104730001F910F91FF90EF90DF90CF90BF90AF90BF
:104740009F908F907F906F905F904F903F902F90B1
:104750000895CF92DF92EF92FF920F931F93CF9322
:10476000DF93EC018B011616170694F5882777FD69
:104770008095982F0E944F416B017C016CA57DA50F
:10478000882777FD8095982F0E944F419B01AC01AF
:10479000C701B6010E94B4406B017C019B01AC01D2
:1047A000688979898A899B890E94BB42688B798B49
:1047B0008A8B9B8BA70196016C897D898E899F8945
:1047C0000E94B4406C8B7D8B8E8B9F8B1DA70CA79A
:1047D000DF91CF911F910F91FF90EF90DF90CF90DD
:1047E00008952F923F924F925F926F927F928F9295
:1047F0009F92AF92BF92CF92DF92EF92FF920F9370
:104800001F93CF93DF93EC016A017B0148015901AB
:10481000A9019801C701B6010E94B04287FF4EC0AE
:10482000CEA6DFA6E8AAF9AA8AAA9BAAACAABDAA24
:104830008EA9882309F442C02C8C3D8CF101408064
:10484000518062807380A5019401C301B2010E946E
:10485000B042181634F4F10180829182A282B382B0
:104860000DC0A7019601C301B2010E94AD4087FFB0
:1048700005C0F101C082D182E282F3828CA09DA0AA
:10488000AEA0BFA0CAA8DBA8ECA8FDA8A70196010E
:10489000C501B4010E94B042181664F0CEA4DFA492
:1048A000E8A8F9A8A7019601C501B4010E94AD408E
:1048B00087FF04C0CCA2DDA2EEA2FFA2DF91CF91C0
:1048C0001F910F91FF90EF90DF90CF90BF90AF902E
:1048D0009F908F907F906F905F904F903F902F9020
:1048E00008958F929F92AF92BF92CF92DF92EF92F4
:1048F000FF92CF93DF93EC01EC8DFD8DC080D180D2
:10490000E280F380CCA2DDA2EEA2FFA2EA8DFB8DB5
:1049100080819181A281B38188A799A7AAA7BBA70B
:104920008AA89BA8ACA8BDA8A5019401C701B6019F
:104930000E94B042181664F08EA49FA4A8A8B9A83B
:10494000A5019401C701B6010E94AD4087FF04C0D4
:104950008CA29DA2AEA2BFA2DF91CF91FF90EF905B
:10496000DF90CF90BF90AF909F908F9008951F934E
:10497000CF93DF93EC0111E06130710509F010E095
:104980008EA991E08927181303C0CE010E947124DB
:104990001EABDF91CF911F9108950F931F93CF937B
:1049A000DF93EC018B018EA9882361F1888D998DAD
:1049B0006817790739F12C853D854E855F8560E064
:1049C00070E0CB010E94E63F6C877D878E879F87D2
:1049D000288939894A895B8960E070E0CB010E94AF
:1049E000E63F688B798B8A8B9B8B2C893D894E891E
:1049F0005F8960E070E0CB010E94E63F6C8B7D8BAD
:104A00008E8B9F8B198F088FDF91CF911F910F9104
:104A100008952F923F924F925F926F927F928F9262
:104A20009F92AF92BF92CF92DF92EF92FF920F933D
:104A30001F93CF93DF93CDB7DEB728970FB6F894C7
:104A4000DEBF0FBECDBF4C017A8369831A013C8360
:104A50002B8327013801AD82BE82CF82D88600E049
:104A600010E02FE733E440E050E0BA010E94F12368
:104A700084E690E0F40195A784A76AA17BA1C40114
:104A80000E94CD24CE8CDF8CE8A0F9A00D811E8180
:104A90002F813885B301A201C4010E94F4220E9433
:104AA000BF3DF40144A455A4662457FC6094762CC1
:104AB000641975098609970960A371A382A393A35A
:104AC00016AA358E248E89819A81938F828F8B814D
:104AD0009C81978F868F28960FB6F894DEBF0FBE05
:104AE000CDBFDF91CF911F910F91FF90EF90DF909D
:104AF000CF90BF90AF909F908F907F906F905F907E
:104B00004F903F902F9008950F931F93CF93DF9373
:104B1000FC0171836083128213821482158286E500
:104B20008683178210861186128613861486158650
:104B300016861786108A118A128A138A148A158A91
:104B4000168ADF01A754BF4F11961C921E92AE55D4
:104B5000BF4F11961C921E92149611961C921E9293
:104B6000129611961C921E92129611961C921E92EB
:104B7000178AAC5AB1091D921C92EF0104E110E0B2
:104B80008FE090E00E942E44FE01E15EFE4F918393
:104B900080838FE090E00E942E44FE01E558FF4F95
:104BA00091838083FC011082015011092296011526
:104BB000110531F7DF91CF911F910F910895FC01FD
:104BC00062817381848195810895FC0186810895B5
:104BD000FC0167817085818592850895FC0163855C
:104BE0007485858596850895CF92DF92EF92FF9226
:104BF0006A017B01FC012785308941895289C701FF
:104C0000B6010E94BB42FF90EF90DF90CF900895D5
:104C1000FC0163897489858996890895479608956A
:104C2000660F771F680F791FFB01E558FF4F8081E2
:104C3000918108954F925F926F927F928F929F928F
:104C4000AF92BF92CF92DF92EF92FF920F931F939A
:104C5000CF93DF93FB0110811D3241F031E020E062
:104C60001B3209F030E0832F922F02C081E090E0E8
:104C7000EB01C80FD91F00E03DEC432E3CEC532E56
:104C8000652C3DE3732E812C912C5401C12CD12C29
:104C90007601E991EE23E9F1EE32C9F1FF27E7FD54
:104CA000F095011113C0AAE0B0E0A70196010E949F
:104CB000FC436B017C01CF01C097AA2797FDA0950B
:104CC000BA2FC80ED91EEA1EFB1EE3CFBF016053E8
:104CD0007109882777FD8095982F0E944F419B018D
:104CE000AC01C301B2010E94BB429B01AC01C501F2
:104CF000B4010E94E73F4B015C0120E030E040E25C
:104D000051E4C301B2010E94B4402B013C0101E017
:104D1000C0CFC701B6010E944F419B01AC01C50144
:104D2000B4010E94E73F1D3239F49B01AC0160E001
:104D300070E0CB010E94E63FDF91CF911F910F9170
:104D4000FF90EF90DF90CF90BF90AF909F908F90AB
:104D50007F906F905F904F9008958F929F92AF9247
:104D6000BF92CF92DF92EF92FF920F931F93CF9358
:104D7000DF93EC01AC01455A5E4FDA012D913C9175
:104D80001197FC01E15AFE4F243631056CF4A25A0A
:104D9000B1098D919C911197449734F4A655BF4F5A
:104DA0008D919C910F9714F0118210826A3011F04E
:104DB0006D3011F4118210826432E1F4DE01A35AE5
:104DC000BE4F11961C921E92149611961C921E9222
:104DD000A85AB10911961C921E92A655BF4F1D925A
:104DE0001C92C554DF4F688381E090E0DA018D9317
:104DF0009C93E4C0808191818130910569F024F415
:104E0000009709F47AC272C28230910509F492C007
:104E1000039709F4D6C06AC2273031057CF4D90162
:104E2000A758BB4F8C91681309C0DE01A35ABE4F2F
:104E30008D919C91119701968D939C93C901019638
:104E4000DA018D939C932C0F3D1FD901A554BF4FC0
:104E50006C93CE0187549F4F8E010D591E4F6A32BD
:104E600049F1DE01AF59BE4FFC016C3209F040C080
:104E700020813181A9014F5F5F4F51834083C90178
:104E8000880F991F8C0F9D1FEC01C15EDE4F0990AA
:104E9000D881C02DF80180819181C80FD91F188257
:104EA000118210828D919C911197FCE28F278D9336
:104EB0009C931EC2DC012D913C911197A9014F5F7B
:104EC0005F4F4D935C93C901880F991F8C0F9D1FF5
:104ED000EC01C15EDE4F0990D881C02DD8018D91C3
:104EE0009C911197C80FD91F18821D921C9263C004
:104EF00080819181880F991F8C0F9D1FEC01C15EED
:104F0000DE4F0990D881C02DF801808191819C01EC
:104F10002F5F3F4F31832083C80FD91F68837727C6
:104F200067FD70958D919C911197682779276D93F6
:104F30007C93DEC1C9010196DA018D939C932C0FFD
:104F40003D1FD901A554BF4F6C93DE01A754BF4F3D
:104F50008D919C91880F991F8C0F9D1FDC01A15E84
:104F6000BE4F0D911C919E012D593E4FD9018D913F
:104F70009C911197AC014F5F5F4F4D935C93080F6D
:104F8000191FD8016C93CF59DE4F48815981862F64
:104F9000992787FD9095613414F0C79701C0C09799
:104FA0009C01B4E0220F331FBA95E1F7CA01821BBE
:104FB000930B99838883808191810196918380836B
:104FC00097C1CE01820F931FDC01A554BF4F6C9394
:104FD0002E5F3F4FDA012D933C93DC01A454BF4F69
:104FE0001C929E0127543F4FD9018D919C91880FAF
:104FF000991F8C0F9D1FDC01A15EBE4F8D919C916E
:105000006E01BDE9CB1ABEEFDB0AD6010D911C91F2
:105010007801BFEFEB1AFB0AD601ED92FC92800FEC
:10502000911FDC016C93D9018D919C9111978C019A
:105030000F5F1F4F0D931C93880F991F8C0F9D1F9F
:10504000815E9E4FDC018D919C91D6010D911C914A
:10505000800F911FDC011C9211821082FE01EF591A
:10506000FE4F80819181062F112707FD1095613435
:1050700024F0B8016753710903C0B8016053710986
:10508000861B970B91838083009709F031C168815B
:105090007981672B29F4FA0160817181CB010AC003
:1050A000FE01E35AFE4F608171816630710509F09F
:1050B00024C1F1CF019797FD0AC0FE01E80FF91F47
:1050C0008F0105541F4FD8011C91178BF3CFFB01A3
:1050D0003197CB0177FF02C080E090E0BF01681BF1
:1050E000790BDA016D937C93FE01E954FF4F118235
:1050F000108240815181D9018D919C9148175907A7
:1051000084F5D6011D921C9280819181D6014D912A
:105110005C91880F991F8C0F9D1FBC01615E7E4FB3
:10512000DB016D917C91640F751FDB016C918558DB
:105130009F4FDC018D919C91840F951FDC016623AC
:1051400049F06C93D6018D919C91119701968D93A6
:105150009C93DACF1C928081918101969183808308
:10516000C8CFFE01E35AFE4F80819181069709F076
:10517000C2C0FC9760817181CE010E941A266A83A9
:105180007B838C839D83FE01ED5DFE4F0190F0815A
:10519000E02D80818E83FE01EB5DFE4F6081718189
:1051A000CE010E941A2620E030E048EC52E40E9432
:1051B000B4404B015C010E948A416B017C018E016D
:1051C0000B591E4FF80160837183828393839B0187
:1051D000AC01C501B4010E94E63F20E030E048EC9C
:1051E00052E40E94BB4220E030E040E752E40E94DB
:1051F000B440A70196010E94E73F9B01AC016F8379
:10520000788789879A87FE01E95DFE4F0190F081DA
:10521000E02D8081833549F460E070E0CB010E948D
:10522000E63F6F83788789879A87FE01E75DFE4FA7
:1052300060817181CE010E941A2620E030E048ECA6
:1052400052E40E94B4404B015C010E948A416B0110
:105250007C01D8016D937D938D939C9313979B0153
:10526000AC01C501B4010E94E63F20E030E048EC0B
:1052700052E40E94BB4220E030E040E752E40E944A
:10528000B440A70196010E94E73F9B01AC016B87E8
:105290007C878D879E87FE01E55DFE4F0190F08142
:1052A000E02D8081873549F460E070E0CB010E94F9
:1052B000E63F6B877C878D879E87FE01E35DFE4F0F
:1052C00060817181CE010E941A266F87788B898B4D
:1052D0009A8BFE01E15DFE4F60817181CE010E94DB
:1052E0001A266B8B7C8B8D8B9E8B05C01182108256
:1052F00080E090E002C081E090E0DF91CF911F91CB
:105300000F91FF90EF90DF90CF90BF90AF909F9064
:105310008F9008958EBD0DB407FEFDCF8EB5089514
:105320000F931F93FC011382128208EE13E020E01A
:1053300030E0048315832683378385E894E09183E6
:105340008083648745871F910F910895EF92FF92A4
:105350001F93CF93DF931F92CDB7DEB77C01162F3B
:1053600060E0FC01848549830E942A3FF8E01F9F8A
:10537000B0011124F7018585880F862B0E948A29A8
:105380004981842F0E948A2962E070E080E090E0E9
:105390000E94EE3D61E0F70184850F90DF91CF918F
:1053A0001F91FF90EF900C942A3F462F60E00E94DF
:1053B000A62981E090E0089546E062E00C94A629D9
:1053C000CF92DF92EF92FF920F931F93CF93DF93D1
:1053D0001F921F92CDB7DEB78C01F22E60E0FC0168
:1053E000848549835A830E942A3F4981E42EC42E32
:1053F0005A81D52E8C2D8E198F1530F4F60181919E
:105400006F010E948A29F6CF62E070E080E090E0B0
:105410000E94EE3D61E0F80184850F900F90DF91CE
:10542000CF911F910F91FF90EF90DF90CF900C9450
:105430002A3F242FAB0160E00C94E0291F93CF9307
:10544000DF93EC01162F60E08C850E942A3F62E01A
:1054500070E080E090E00E94EE3D88E0189FB0018F
:1054600011248D85880F862B80680E948A2980E010
:105470000E948A29182F62E070E080E090E00E948C
:10548000EE3D61E08C850E942A3F812FDF91CF9114
:105490001F91089560E00E941E2A90E0089569E03F
:1054A0000E941E2A90E0089569E00E941E2A8FEF54
:1054B0009FEF08951F93CF93DF93EC01162F63E0C6
:1054C0000E941E2A482F4C7F6BEF610F6370462BA2
:1054D00063E0CE01DF91CF911F910C94A6298F92AA
:1054E0009F92AF92BF92CF92DF92EF92FF920F9373
:1054F0001F93CF93DF93EC016A017B0148015901AF
:1055000064EF76E080E09DE00E9488390E947A2175
:105510006AE070E080E090E00E94EE3D81E00E9451
:10552000902181E00E949E2180E00E94992168EEF6
:1055300076E080E09DE00E9488398091060290919B
:105540000702019779F448E06EE0CE010E94A62997
:10555000109207021092060269ED76E080E09DE06D
:105560000E94883964E670E080E090E00E94EE3DA1
:1055700040E863E0CE010E94A629C701B60123E0FE
:10558000660F771F881F991F2A95D1F7680D791D1F
:105590008A1D9B1DA7019601E4E0220F331F441FC3
:1055A000551FEA95D1F70E94B54369017A01422F50
:1055B00060E0CE010E94A6294D2D552761E0CE0165
:1055C0000E94A62940E063E0CE010E94A62968E07F
:1055D000CE010E945A2A47E062E0CE010E94A6292D
:1055E00067EC76E080E09DE0DF91CF911F910F9115
:1055F000FF90EF90DF90CF90BF90AF909F908F90F3
:105600000C9488390F931F9300E010E820E730E0F6
:105610000E946F2A1F910F910895FC016F7780817E
:10562000918186279183808347E020813181C90160
:105630009695879520FF04C020EF822722E29227CB
:1056400091838083415089F70895EF92FF920F93E1
:105650001F93CF93DF937C018A01EB01060F171F85
:10566000C017D10729F06991C7010E940D2BF8CF0F
:10567000DF91CF911F910F91FF90EF900895CF93FD
:10568000DF931F921F92CDB7DEB7AB012FEF3FE341
:105690003A832983BC01CE0101960E94252B898182
:1056A0009A8180952FE392270F900F90DF91CF91F1
:1056B00008950F931F93CF93DF931F92CDB7DEB75B
:1056C0008C01FC017183608312822383148615860A
:1056D00016861786108A459649830E941330F80172
:1056E000178E10A249818FE9840F8A3108F4405245
:1056F0008FEB840F8A3120F080ED840F8A3010F414
:10570000F801428344E650E060E070E0F801448331
:105710005583668377834FEF5FEFBA0140875187E8
:105720006287738711A20F90DF91CF911F910F9124
:10573000089508959F92AF92BF92CF92DF92EF9219
:10574000FF920F931F93CF93DF93CDB7DEB7A79749
:105750000FB6F894DEBF0FBECDBF6C017B01942E57
:105760005901DB0114964D915D916D917C911797D4
:10577000CE0180960E940C31CE0180960E94E230CC
:105780006894A4F8C8010E94BA30882321F0C601A9
:105790000E9415306CC0CE0180960E94BA308823DA
:1057A000A9F1CE0180960E940031F70184858F5FB8
:1057B00087FD81E0D7011C968C93CE0101960E9453
:1057C000422EF7016281CE0101960E94462E6A2D7B
:1057D000CE0101960E94462ED7011C966C91CE01F7
:1057E00001960E94462E692DCE0101960E94462EFA
:1057F000D701ED91FC91119763A174A123E230E0F0
:1058000013964C91CE0101960E941E2FF7018081C4
:1058100091810E94EC2F882309F4B4CFD701ED9138
:10582000FC911197938113968C919813ABCF84813F
:10583000833409F0A7CF4081518145505109BF0100
:105840006A5F7F4FCE0101960E948B308981882349
:1058500009F498CF9C81F7018485981393CF8AE04F
:10586000FE013196D60101900D928A95E1F7C601AD
:10587000A7960FB6F894DEBF0FBECDBFDF91CF91D4
:105880001F910F91FF90EF90DF90CF90BF90AF905E
:105890009F9008959F92AF92BF92CF92DF92EF9226
:1058A000FF920F931F93CF93DF93CDB7DEB76F9720
:1058B0000FB6F894DEBF0FBECDBF8C015B017A013D
:1058C000922EDC01ED91FC91C3A0D4A0CE010196F3
:1058D0000E94422EF8016281CE0101960E94462E5E
:1058E000692DCE0101960E94462E96FE07C0D80172
:1058F0005F966C91CE0101960E94462EF70142817F
:105900005381B7016C5F7F4FCE0101960E94522EEA
:105910009501D80113964C91B601CE0101960E94D3
:105920001E2F6F960FB6F894DEBF0FBECDBFDF916E
:10593000CF911F910F91FF90EF90DF90CF90BF908C
:10594000AF909F900895CF92DF92EF92FF920F93C6
:105950001F93CF93DF93CDB7DEB72A970FB6F89496
:10596000DEBF0FBECDBF7C016A01FC0180A18111A9
:1059700023C08B0120E430E041E050E0B701CE01CC
:1059800001960E949A2B8AE0FE013196D601019081
:105990000D928A95E1F7F601828180FF04C086812D
:1059A000978197FD07C0F6018481F701878F81E019
:1059B00080A302C081E001C080E02A960FB6F8946F
:1059C000DEBF0FBECDBFDF91CF911F910F91FF9032
:1059D000EF90DF90CF900895DF92EF92FF920F93B8
:1059E0001F93CF93DF93CDB7DEB72A970FB6F89406
:1059F000DEBF0FBECDBF7C01D42EFC0123893489CC
:105A0000418952898B01BC01CE0101960E949A2BDB
:105A10008AE0FE013196D701559601900D928A9544
:105A2000E1F7F701878980FF04C0838D948D97FD8E
:105A30000BC0F701818D978D891731F0811106C058
:105A400081E0D11004C002C081E001C080E02A964C
:105A50000FB6F894DEBF0FBECDBFDF91CF911F917F
:105A60000F91FF90EF90DF9008958F929F92AF92E9
:105A7000BF92CF92DF92EF92FF920F931F93CF933B
:105A8000DF93CDB7DEB72E970FB6F894DEBF0FBE0B
:105A9000CDBF7C016B015A014901FC01258536858A
:105AA000478550892F5F3F4F4F4F5F4F2587368780
:105AB0004787508BBC01CE0109960E942E2FF7011B
:105AC00081A1882339F09401A501B601C7010E9484
:105AD0004A2C30C0F7014085518562857385CE011F
