:100000000C9469030C947E3A0C94AF3A0C94E03A49
:100010000C94113B0C94423B0C94733B0C94A43B0A
:100020000C94D53B0C949A030C949A030C949A0369
:100030000C949A030C949A030C949A030C948230B7
:100040000C949A030C949A030C949A030C949A03BC
:100050000C949A030C949A030C949A030C94183CF5
:100060000C949A030C94F7340C942D350C949A0349
:100070000C949A030C949A030C949A030C949A038C
:100080000C949A030C949A030C949A030C949A037C
:100090000C94A4350C94DA350C949A030C949A03BE
:1000A0000C949A030C949A030C949A030C949A035C
:1000B0000C949A030C949A030C9405320C947431AA
:1000C0000C9467320C949A030C949A030C94513656
:1000D0000C9487360C949A030C94FE360C943437A7
:1000E0000C949A03583A223A2A3A363A433A643AF6
:1000F000713A593D5C3D4B3D4F3D553D933D603D13
:10010000643D6A3D6E3D723D783D7C3D803D933D52
:10011000863D8A3D8E3D084AD73B3BCE016E84BC6E
:10012000BFFDC12F3D6C74319ABD56833DDA3D0051
:10013000C77F11BED9E4BB4C3E916BAAAABE00009A
:1001400000803F05A84CCDB2D44EB93836A9020C78
:1001500050B9918688083CA6AAAA2ABE0000008051
:100160003F000C9421340C9417160C94593D0C94B8
:100170000D330C94601A0C94F7280C94CD300C9429
:10018000F2280C9448140C949A330C94A2030C9407
:10019000643A0C9468370C949C030C945E370C946E
:1001A0006A3D0C9484140C9499080C941D160C94BC
:1001B000AB370C944F3D0C941C110C94B0140C9460
:1001C00028330C94BC330C9420110C9461350C949E
:1001D000783D0C94363A0C94863D0C94E2040C94D1
:1001E000603D0C9497150C945A1A0C947F280C942B
:1001F000B1360C9485080C946E3D0C944B3D0C94D8
:100200005C3D0C94803D0C94433A0C9493190C94EF
:100210004F200C94691A0C94DC300C943C330C94F1
:10022000621A0C940E360C94553D0C94BB360C940B
:10023000E6140C94B7300C94DC040C94643D0C94DC
:1002400003160C94ED280C94933D0C942A3A0C94CC
:1002500078280C947C3D0C9403110C948A3D0C94EA
:10026000223A0C948E3D0C941A330C94BC280C94B6
:1002700004360C94713A0C94583A0C94723D0C94D8
:100280000F200C9457352C002C4C4C333A002C4C3E
:1002900055333A002C4C4C323A002C4C55323A0033
:1002A0002C4C4C313A002C4C55313A002C53544BC9
:1002B0003A002C5342333A002C5342323A002C532A
:1002C00042313A002C5342303A002C4750533A0006
:1002D0002C575A4A3A005549443A4D4547412C411A
:1002E00050583A0021215645523A312E392C002CD3
:1002F000002C57534B3A002C5753583A002C41418D
:10030000443A002C4141453A002C41414E3A002CE0
:100310004141523A002C4141583A002C4150523A46
:10032000002C4150433A002C4150543A002C41508B
:10033000533A005549443A4D4547412C4150583AAB
:100340000021215645523A312E392C0043535F503B
:10035000494E204F5554505554203D204849474858
:100360000043535F50494E2073657420746F204FD3
:1003700055545055540024504D544B3235312C00B7
:1003800024504D544B3331342C302C312C302C3103
:100390002C312C312C302C302C302C302C302C307B
:1003A0002C302C302C302C302C302C302C302A326D
:1003B000380024504D544B3232302C313030302AFA
:1003C00031460053657474696E672047505320743A
:1003D0006F204D54454B5F33333239002C382C316C
:1003E0002C302A0024505352463130302C312C000E
:1003F00024505352463130352C302A334600245095
:100400005352463130332C30342C30302C30312C98
:1004100030312A32310024505352463130332C309F
:10042000332C30302C32302C30312A3235002450ED
:100430005352463130332C30322C30302C30352C66
:1004400030312A32330024505352463130332C306D
:10045000302C30302C30352C30312A3231002450C1
:100460005352463130332C30312C30302C30302C3C
:1004700030312A32350024505352463130332C303B
:10048000352C30302C30302C30312A323100245091
:100490005352463130352C312A334500536574743C
:1004A000696E672047505320746F20454D5F34308C
:1004B00036410053657474696E6720475053207449
:1004C0006F2047454E455249430053657474696E29
:1004D000672047505320636F6E6669672E2E2E008B
:1004E0004641494C4544004F4B2061742000202078
:1004F00020747279206175746F62617564202E2E8C
:1005000020002C542A002448434844542C002C4EEC
:100510002C412A002E302C522C002457494D57567E
:100520002C0053504920696E697420636F6D706CA4
:1005300065746500535049205541525420726573CB
:100540006574005350492073746172746564004D82
:10055000756C746953657269616C3A3A6265676972
:100560006E0000000A0B02090C0D0E0807030401BF
:10057000000000000000000000000000000000007B
:100580000000000000000000000000000000121148
:10059000100000000000000000000000000000004B
:1005A00000000000000000000102102020080810D8
:1005B00020401020408002010201080402010102D3
:1005C00004081020408080402010080402018004AC
:1005D0000201804020100804020108040201010207
:1005E0000408102040800102040810204080050506
:1005F0000505070508080808020202020A0A080899
:1006000004040404010101010101010103030303C6
:1006100003030303040707070C0C0C0C0C0C0C0C55
:100620000202020206060606060606060B0B0B0B66
:100630000B0B0B0B000020002300260029002C00D0
:100640002F00320000010000030106010901000033
:100650002200250028002B002E003100340002016A
:100660000000050108010B01000021002400270003
:100670002A002D00300033000101000004010701B1
:100680000A014E414E494E495459494E46CDCCCCB3
:100690003D0AD7233C17B7D13877CC2B329595E656
:1006A000241FB14F0A000020410000C84200401C36
:1006B0004620BCBE4CCA1B0E5AAEC59D74008508B0
:1006C000971593190F2061350E36BB366837990898
:1006D000031611241FBECFEFD1E2DEBFCDBF00E075
:1006E0000CBF13E0A0E0B2E0ECE2FDE800E00BBFDD
:1006F00002C007900D92A23BB107D9F72EE0A2EB02
:10070000B3E001C01D92A138B207E1F716E0CEECCC
:10071000D6E000E006C022970109FE010BBF0E944F
:10072000D342CE3BD10780E00807A9F70E94073CDF
:100730000C9484460C9400002FE032E0FC013183DD
:10074000208308952FE032E0FC01318320830C9454
:10075000163CFC01CB012FE032E031832083738310
:100760006283148240E050E0BA010E940C0F61E005
:1007700088E10E94943D61E08AE10E94943D61E03D
:100780008CE10E94943D61E08EE10E94943D60E026
:1007900082E40C94943DCF92DF92EF92FF92CF933C
:1007A000DF93EC018A819B810E945310882389F09A
:1007B0008A819B810E94D00C6B017C010E94623C6B
:1007C00021E0C616D706E806F90608F020E0822FD9
:1007D00001C080E0DF91CF91FF90EF90DF90CF904C
:1007E0000895CF92DF92EF92FF92CF93DF93EC01C7
:1007F0000E94CB038823A9F10E94623C6B017C011B
:100800008A819B810E94CA0CC61AD70AE80AF90A93
:1008100089EEC81683E0D806E104F104C0F16C81CA
:1008200088E10E94CD3D6C818AE10E94CD3D6C81C2
:100830008CE10E94CD3D6C818EE10E94CD3D8C818A
:1008400091E089278C830E94623CAB01BC018A81C4
:100850009B81DF91CF91FF90EF90DF90CF900C9430
:100860000C0F60E088E10E94CD3D60E08AE10E94CB
:10087000CD3D60E08CE10E94CD3D60E08EE1DF91F6
:10088000CF91FF90EF90DF90CF900C94CD3DDF9112
:10089000CF91FF90EF90DF90CF900895CF92DF92AD
:1008A000EF92FF92CF93DF93EC018A819B810E94AC
:1008B000070F882311F18A819B810E94DB0E181695
:1008C0001906DCF48A819B810E94E70E6B017C0192
:1008D0008A819B810E94DB0EBC01882777FD809571
:1008E000982F0E941B409B01AC01C701B6010E94DA
:1008F0007C41181614F461E001C060E08A819B819C
:10090000DF91CF91FF90EF90DF90CF900C949010FB
:100910000F931F93CF93DF93EC0180E40E941B3D64
:100920008C018A819B810E94AB0E081719074CF03D
:100930008A819B810E949F0E8017910714F060E0CE
:1009400001C061E08A819B810E94F90F81E40E94CD
:100950001B3D8C018A819B810E94BD0E08171907DF
:100960003CF08A819B810E94B10E8017910714F49C
:1009700061E001C060E08A819B810E94081082E4EE
:100980000E941B3D8C018A819B810E94CF0E08171B
:1009900019073CF08A819B810E94C30E8017910742
:1009A00014F461E001C060E08A819B81DF91CF9106
:1009B0001F910F910C94171027E132E0FC01318355
:1009C0002083089527E132E0FC01318320830C94D9
:1009D000163C2F923F924F925F926F927F928F922E
:1009E0009F92AF92BF92CF92DF92EF92FF920F93BE
:1009F0001F93CF93DF93CDB7DEB728970FB6F89448
:100A0000DEBF0FBECDBF1C016A017B0109831A83C3
:100A10002B833C83FC01828193810E94060D9B0104
:100A2000AC01C701B6010E94B33E2B013C01F101AC
:100A3000828193810E94060D9B01AC01C701B60122
:100A40000E94B23E4B015C01F101828193810E94C0
:100A5000060D9B01AC0169817A818B819C810E948A
:100A6000B33E6B017C01F101828193810E94060DEE
:100A70009B01AC0169817A818B819C810E94B23E8D
:100A800069837A838B839C83F101828193810E94A5
:100A90000C0D6D837E838F83988724E83AEB4CE3BB
:100AA00058E3C301B2010E94B23E2D813E814F81C5
:100AB00058850E947C4118166CF4F1018281938163
:100AC0000E94F80C9B01AC01C301B2010E94793F66
:100AD00087FD8CC0F101828193810E94F80C2B016B
:100AE0003C0124E83AEB4CE358E3C501B4010E9411
:100AF000B33EA30192010E94793F87FF0EC0F1012E
:100B0000828193810E940C0D9B01AC01C501B4014F
:100B10000E947C4118160CF471C0F101828193810E
:100B20000E94120D4B015C0124E83AEB4CE358E3C0
:100B3000C701B6010E94B23EA50194010E947C410A
:100B400018166CF4F101828193810E94DC0C9B01E8
:100B5000AC01C701B6010E94793F87FD57C0F10182
:100B6000828193810E94DC0C6B017C0124E83AEBCA
:100B70004CE358E369817A818B819C810E94B33E6A
:100B8000A70196010E94793F87FF48C0F101828149
:100B900093810E94120D9B01AC0169817A818B8146
:100BA0009C810E947C411816CCF549815A816B8149
:100BB0007C81F1018281938128960FB6F894DEBF83
:100BC0000FBECDBFDF91CF911F910F91FF90EF909E
:100BD000DF90CF90BF90AF909F908F907F906F905D
:100BE0005F904F903F902F900C945C0FB301A20147
:100BF000F101828193810E94420F6CCFB501A40163
:100C0000F101828193810E94560F87CFB701A6011F
:100C1000F101828193810E94260FA1CF28960FB601
:100C2000F894DEBF0FBECDBFDF91CF911F910F9122
:100C3000FF90EF90DF90CF90BF90AF909F908F90FC
:100C40007F906F905F904F903F902F9008958F927C
:100C50009F92AF92BF92CF92DF92EF92FF920F934B
:100C60001F93CF93DF93EC016A017B014801590187
:100C700040E050E064EB72E48A819B810E94420F65
:100C800040E050E064EB72EC8A819B810E94560F39
:100C900040E050E064E373E48A819B810E94260F68
:100CA00040E050E064E373EC8A819B810E945C0F1A
:100CB0008A819B810E94FE0C2DE93BEF46E157E3C0
:100CC0000E948741AB01BC018A819B810E94500F29
:100CD00095018401B701A601CE010E94E904DF91CC
:100CE000CF911F910F91FF90EF90DF90CF90BF9029
:100CF000AF909F908F900895CF92DF92EF92FF92E6
:100D00000F931F93CF93DF93EC018B0187E192E068
:100D1000998388837B836A83CB010E94EA0C6B01F1
:100D20007C01C8010E94E20CAB01BC019701860165
:100D3000CE010E942706DF91CF911F910F91FF9066
:100D4000EF90DF90CF9008954F925F926F927F92D5
:100D50008F929F92AF92BF92CF92DF92EF92FF92CB
:100D60000F931F93CF93DF9300D01F92CDB7DEB7C1
:100D70004C01FC01828193810E94FD0E882309F4BD
:100D8000D2C00E94623C2B013C01F401828193811C
:100D90000E946E0E461A570A680A790AF1EE4F163B
:100DA000F3E95F06F4E06F06710438F0F401828124
:100DB00093810E94FD0E81118DC0F4018281938187
:100DC0000E948E0E882309F4AEC0F40182819381C3
:100DD0000E947E0E5B016C01F401828193810E946E
:100DE000760E2B013C01F401828193810E94EA0C72
:100DF0009B01AC01F4018281938129833A834B8367
:100E00005C830E94E20C8301720129813A814B814B
:100E10005C810E940E17AB01BC01F40182819381B9
:100E20000E94200FF401828193810E94D60C2B0135
:100E30003C01F401828193810E94F20C9B01AC0180
:100E4000C301B2010E947C41181664F4F40182814E
:100E500093810E94D60CAB01BC01F4018281938185
:100E60000E943C0FF401828193810E947E0E2B012F
:100E70003C01F401828193810E94760EAB01BC019A
:100E800093018201C4010E94E904F40182819381EB
:100E90000E94FD0E882369F1F401828193810E94F2
:100EA000D60C2B013C01F401828193810E94FE0C3F
:100EB0009B01AC01C301B2010E947C411816CCF425
:100EC00040E050E0BA01F401828193810E94120F48
:100ED00061E010C040E050E0BA01F40182819381EA
:100EE0000E94120F61E0F401828193810E941D0F24
:100EF00064CF60E0F401828193810F900F900F9096
:100F00000F90DF91CF911F910F91FF90EF90DF90A5
:100F1000CF90BF90AF909F908F907F906F905F9099
:100F20004F900C941D0F0F900F900F900F90DF912A
:100F3000CF911F910F91FF90EF90DF90CF90BF90D6
:100F4000AF909F908F907F906F905F904F9008959B
:100F5000CF93DF93EC018A819B810E94760EAB01D7
:100F6000BC018A819B810E942C0F8A819B810E94F7
:100F70007E0EAB01BC018A819B810E94340F40E050
:100F800050E0BA018A819B81DF91CF910C943C0F94
:100F90000F931F93CF93DF93EC018B0181960E94F7
:100FA000762018A30F8FDF91CF911F910F91089595
:100FB0008F929F92AF92BF92CF92DF92EF92FF9269
:100FC0000F931F93CF93DF93CDB7DEB7E7970FB69D
:100FD000F894DEBF0FBECDBF4C01FC01168E158EFE
:100FE000148E138E878D90A10E94F110AB01BC016D
:100FF0008BEF93E00E94A52964E670E080E090E02A
:101000000E94913CF401878D90A10E941E0D20E06A
:1010100030E044E354E40E94B33E6B017C01F401F0
:101020006083718382839383878D90A10E94190EC0
:101030009B01AC01C701B6010E94B33EF401648379
:10104000758386839783878D90A10E94180DF40184
:10105000608771878287938781E0808BA401485FD6
:101060005F4FB4016C5F7F4F1F928F938FE38F931D
:1010700085E08F938EE18F9388EB8F938AE0A82E83
:1010800087EDB82E83EAC82E8DE3D82E16E6E12E22
:10109000FE2C06EE1EE39401CE0101960E94AC23C5
:1010A00087E3FE013196D401919601900D928A95C5
:1010B000E1F7F1E28F0E911C00E010E024E832E449
:1010C00040E050E0BA01C4010E94942264E670E05E
:1010D000C4010E944C220F900F900F900F900F9020
:1010E0000F90E7960FB6F894DEBF0FBECDBFDF912D
:1010F000CF911F910F91FF90EF90DF90CF90BF9015
:10110000AF909F908F900895089540E063E48BEF37
:1011100093E00E9433286BEF73E086ED93E00E942A
:10112000802E20E841E366ED73E084EB93E00C94BD
:10113000FC2984EB93E00C943C2A0F931F93CF93EC
:10114000DF93EC018C010F5E1F4F8BEF93E00E9449
:10115000F228892B21F18BEF93E00E94ED282D8D51
:101160003E8DFE01E20FF31F818B2F5F3F4F3E8FBD
:101170002D8F8A3029F08D3019F0213331052CF371
:10118000FE01E20FF31F118AB8018EEE9BE00E9470
:101190003D381E8E1D8EF80111821082D6CFDF9150
:1011A000CF911F910F9108954F925F926F927F920E
:1011B000AF92BF92CF92DF92EF92FF920F931F9365
:1011C000CF93DF9300D000D0CDB7DEB75C01FC0138
:1011D000878D90A10E947A1085010F5D1F4F882393
:1011E00009F4DEC0C5010E949D0861E070E0C801FD
:1011F0000E945A23F501878D90A10E941E0D20E0C8
:1012000030E044E354E40E94B33E6B017C01F501FD
:101210006083718382839383878D90A10E94190ECE
:101220009B01AC01C701B6010E94B33EF501648386
:10123000758386839783C8010E947720F5012485F2
:1012400035854685578560857185828593850E94A1
:10125000B23E6B017C0120E030E0A9010E947C419C
:10126000181624F0F7FAF094F7F8F094F501878D4A
:1012700090A10E945A0EBC01882777FD8095982F77
:101280000E941B409B01AC01C701B6010E947C413A
:1012900018160CF09EC0F5018089078D10A1C0843E
:1012A000D184E284F3844484558466847784A301E2
:1012B0009201882309F1C701B6010E947C411816EA
:1012C0000CF1A3019201C701B6010E94793F87FF8B
:1012D0003FC0F501108AC8010E94600EBC0188273A
:1012E00077FD8095982F0E941B409B01AC01C701A0
:1012F000B6010E94B23E27C0C701B6010E94793FE5
:1013000087FF06C0F501C486D586E686F78620C02D
:10131000A3019201C701B6010E947C411816C4F4D2
:1013200081E0F501808BC8010E94600EBC01882716
:1013300077FD8095982F0E941B409B01AC01C7014F
:10134000B6010E94B33EF50164877587868797874B
:10135000F5014485558566857785878D90A10E9426
:10136000910FF501878D90A10E94660E2B013C0123
:1013700020E030E048EC52E4F5016485758586850F
:1013800097850E9487410E94E83FAB01BC01E12C98
:10139000F12C9301820184EB93E00E94BB2C19C0D5
:1013A00060E070E0C80126960FB6F894DEBF0FBE6D
:1013B000CDBFDF91CF911F910F91FF90EF90DF9004
:1013C000CF90BF90AF907F906F905F904F900C94B4
:1013D0005A2326960FB6F894DEBF0FBECDBFDF911D
:1013E000CF911F910F91FF90EF90DF90CF90BF9022
:1013F000AF907F906F905F904F900895FC011082A6
:101400001182128213821482158216821782108A28
:10141000118A128A138A148A158A168A178A108EDC
:10142000118E128E138E148E40E050E064EB72E445
:10143000458F568F678F70A340E050E064EB72ECED
:1014400041A352A363A374A340E050E064E373E4B8
:1014500045A356A367A370A740E050E064E373EC94
:1014600041A752A763A774A715A683E482AB13AA6A
:1014700014AA15AA16AA40E050E064E072E447AB53
:1014800050AF61AF72AF13AE40E050E068EC72E471
:1014900044AF55AF66AF77AFDF01A05CBF4F40E010
:1014A00050E060E271E44D935D936D937C931397EC
:1014B00014964D935D936D937C931397149640E827
:1014C00050E060E070E04D935D936D937C931397D3
:1014D0001086118612861386148615861686178640
:1014E00014961C9211961D921D921D921C92139798
:1014F00014961D921D921D921C921397149686E5C8
:101500008C9311961D921D921D921C921397149606
:101510001D921D921D921C92139714961D921D925E
:101520001D921C92139714961D921D921D921C924F
:10153000139714961C9211961C9211961C92119658
:101540001C92A55ABF4F21E034E011963C932E9394
:1015500012968FEF9FEF11969C938E93AC55B10925
:101560001C92A25ABF4F11963C932E93129611963D
:101570009C938E93AF55B1091C92AF59BF4F1196F2
:101580003C932E93129611969C938E93A256B1097A
:101590001D921D921D921C92139714961D921D92DE
:1015A0001D921C921397149611961C921E921296DD
:1015B00011961C921E92129611961C921E921296D1
:1015C0001C9211961D921D921D921C9213971496B7
:1015D0001D921D921D921C921397149640E050E0AC
:1015E00060E272E44D935D936D937C931397149630
:1015F0001C9211961C92119611961C921E92129694
:1016000011961C921E92169640E050E060E87FE32F
:101610004D935D936D937C93139714961C92119642
:1016200040EE53E964E070E04D935D936D937C93DD
:10163000139714961C9211961C92119683E690E0D3
:1016400011969C938E9312961C92119640E050E452
:101650006CE176E44D935D936D937C9313971496B0
:1016600011961C921E92129611961C921E92129620
:1016700040E056E960E070E04D935D936D937C939C
:101680001397149640EC52E160E070E04D935D9347
:101690006D937C931397149640E855E260E070E0F8
:1016A0004D935D936D937C93139714964D935D9337
:1016B0006D937C93139714964D935D936D937C93E8
:1016C000139718964D935D936D937C93139714968F
:1016D0001C92E053FF4F8DE090E09183808308954A
:1016E0000F931F93CF93DF938C01EB0164EE72E0B5
:1016F000CE010E94E93766ED72E0CE010E94E93723
:1017000060ED72E0CE010E94E937F801ED55FF4F20
:10171000608171814AE050E0CE010E94F2386AECAB
:1017200072E0CE010E94E937F801EB55FF4F60816E
:1017300071814AE050E0CE010E94F23864EC72E020
:10174000CE010E94E937F801E955FF4F40815181F0
:10175000628173812AE030E0CE010E94A8386EEBEE
:1017600072E0CE010E94E937F801E555FF4F408154
:101770005181628173812AE030E0CE010E94A83855
:1017800068EB72E0CE010E94E937F801E155FF4FA6
:1017900040815181628173812AE030E0CE010E9454
:1017A000A83862EB72E0CE010E94E937F801ED54EF
:1017B000FF4F40815181628173812AE030E0CE0188
:1017C0000E94A8386CEA72E0CE010E94E937F80165
:1017D000ED53FF4F608170E04AE050E0CE010E947F
:1017E000F23866EA72E0CE010E94E937F801EC5364
:1017F000FF4F608171814AE050E0CE010E94F238D3
:1018000060EA72E0CE010E94E937F801EA53FF4F27
:10181000608171814AE050E0CE010E94F2386AE9AD
:1018200072E0CE010E94E937F801E853FF4F608172
:1018300071814AE050E0CE010E94F23864E972E022
:10184000CE010E94E937F801E653FF4F60817181B4
:101850004AE050E0CE010E94F2386EE872E0CE011C
:101860000E94E937F801E453FF4F608171814AE03B
:1018700050E0CE010E94F23868E872E0CE010E948A
:10188000E937F801E253FF4F608171814AE050E08F
:10189000CE010E94F23866E872E0CE010E942B3839
:1018A00080E090E0DF91CF911F910F9108950F9309
:1018B0001F93CF93DF93EC01FC01E053FF4F408176
:1018C00060E070E08CE29BE00E94B330FE01EF52DA
:1018D000FF4F408161E070E08CE29BE00E94B330FA
:1018E000C558DF4F64E070E049918B010F5F1F4FD7
:1018F0008CE29BE00E94B3300935110511F0B8016C
:10190000F3CFDF91CF911F910F910895EF92FF9246
:101910000F931F93CF93DF931F921F92CDB7DEB724
:101920008C0160E070E08CE29BE00E94B030898323
:1019300061E070E08CE29BE00E94B0308A83F801A5
:10194000E053FF4F29813A8180819181281739071F
:1019500019F0C8010E94570C05581F4F64E070E051
:101960007B018FEFE81AF80A8CE29BE00E94B0300E
:10197000F80181938F01F9E5EF16F10411F0B70139
:10198000EFCF0F900F90DF91CF911F910F91FF90AC
:10199000EF900895FC0160817181828193810895A7
:1019A000FC0164817581868197810895FC016489B9
:1019B0007589868997890895FC0165A176A187A11B
:1019C00090A5089585589F4FFC01608171818281A7
:1019D0009381089581589F4FFC01608171818281BC
:1019E00093810895FC01608D718D828D938D089592
:1019F000FC01658D768D878D90A108958D579F4F41
:101A0000FC0160817181828193810895FC0160896C
:101A10007189828993890895FC0161A172A183A1D2
:101A200094A10895FC0161A572A583A594A50895CC
:101A3000FC0167A970AD81AD92AD0895FC0163A969
:101A400074A985A996A90895FC0122A9273559F4FE
:101A5000EA58FF4F60817181882777FD8095982F24
:101A60000E941B400895FC016085718582859385E5
:101A70000895EF92FF920F931F93CF93DF938C0102
:101A8000EB0161E473E0CE010E94E93763E373E0A8
:101A9000CE010E94E937F80165A570E04AE050E008
:101AA000CE010E94F2386DE273E0CE010E94E93768
:101AB000F80162A9CE010E941038F80185A588239B
:101AC000A9F167E273E0CE010E94E937F80143A96A
:101AD00054A965A976A922E030E0CE010E940B3A14
:101AE00061E273E0CE010E94E937C8010E94240D33
:101AF000AB01BC0122E030E0CE010E940B3A6BE169
:101B000073E0CE010E94E93720E030E044E052E487
:101B1000F80167A970AD81AD92AD0E94B23EAB01F4
:101B2000BC0122E030E0CE010E940B3A65E173E097
:101B3000CE010E94E9377801F7E8EF0EF11CF701BA
:101B4000608170E04AE050E0CE010E94F2386FE020
:101B500073E0CE010E94E937F801ED57FF4F408155
:101B600051816281738122E030E0CE010E940B3A04
:101B7000F7018081882389F169E073E0CE010E943A
:101B8000E937F801E558FF4F408151816281738147
:101B900022E030E0CE010E940B3A63E073E0CE0118
:101BA0000E94E937F801E158FF4F4081518162817D
:101BB000738122E030E0CE010E940B3A6DEF72E0BB
:101BC000CE010E94E937F8014489558966897789F1
:101BD00022E030E0CE010E940B3A67EF72E0CE01C6
:101BE0000E94E937F801E256FF4F608170E04AE059
:101BF00050E0CE010E94F23861EF72E0CE010E9407
:101C0000E937F801E456FF4F608171814AE050E006
:101C1000CE010E94F2386FEE72E0CE010E942B38A6
:101C200080E090E0DF91CF911F910F91FF90EF90B6
:101C30000895CF92DF92EF92FF92CF93DF93EC0162
:101C40000E94240D9B01AC016BA97CA98DA99EA9C2
:101C50000E94B23E6B017C0120E030E044E353E49B
:101C60000E947C4118167CF020E030E044E353EC05
:101C7000C701B6010E94793F87FF0AC020E030E02B
:101C800044EB53E408C020E030E044EB53EC03C0E5
:101C900020E030E0A901C701B6010E94B33E6EA763
:101CA0007FA788AB99ABDF91CF91FF90EF90DF904A
:101CB000CF90089587579F4FFC01808191810895AF
:101CC00085579F4FFC0180819181089583579F4FD5
:101CD000FC0160817181828193810895835B9F4FB4
:101CE000FC01608171818281938108958A5A9F4F9E
:101CF000FC0160817181828193810895865A9F4F92
:101D0000FC01608171818281938108958F569F4F7C
:101D1000FC01608171818281938108958B5A9F4F6C
:101D2000FC0180810895FC01608571858285938521
:101D30000895FC01648575858685978508958C5383
:101D40009F4FFC018081918108958C539F4FFC012E
:101D50007183608308958A539F4FFC018081918134
:101D6000089588539F4FFC01808191810895885385
:101D70009F4FFC0171836083089586539F4FFC0140
:101D800080819181089584539F4FFC0180819181CE
:101D9000089584539F4FFC0171836083089582539B
:101DA0009F4FFC018081918108958D559F4FFC01CB
:101DB00080819181089584569F4FFC01808191819B
:101DC00008958A589F4FFC01808191810895805920
:101DD0009F4FFC01608171818281938108958156BA
:101DE0009F4FFC01608171818281938108958C589D
:101DF0009F4FFC0180819181089589579F4FFC017D
:101E000080810895845B9F4FFC01808108958256F4
:101E10009F4FFC0180810895FC01408351836283C0
:101E200073830895FC014483558366837783089503
:101E300089579F4FFC0160830895FC01648F0895CA
:101E4000FC01448B558B668B778B0895FC0145A371
:101E500056A367A370A7089585589F4FFC01408340
:101E6000518362837383089581589F4FFC0140839F
:101E70005183628373830895FC01408F518F628F79
:101E8000738F0895FC01458F568F678F70A3089557
:101E90008D579F4FFC014083518362837383089564
:101EA000FC01408B518B628B738B0895FC0141A325
:101EB00052A363A374A30895FC0141A752A763A78B
:101EC00074A70895CF93DF93EC01673511F0633465
:101ED00029F56AAB673581F4FE01EA58FF4F60814E
:101EE0007181882777FD8095982F0E941B406BABEE
:101EF0007CAB8DAB9EAB0AC0633441F448855985F9
:101F00006A857B854BAB5CAB6DAB7EAB40E050E054
:101F100064E072E44FAB58AF69AF7AAFDF91CF9115
:101F20000895FC0147AB50AF61AF72AF0895CF93F6
:101F3000DF93EC01CB01BA010E94E83FCB01885945
:101F40009E4F68E671E00E946D42BC01882777FDD4
:101F50008095982F0E941B406BAB7CAB8DAB9EABEA
:101F6000DF91CF9108958E599F4FFC01408351839B
:101F7000628373830895845B9F4FFC01608308959F
:101F8000835B9F4FFC014083518362837383089579
:101F90008A5A9F4FFC014083518362837383089563
:101FA000865A9F4FFC014083518362837383089557
:101FB000825A9F4FFC01408351836283738308954B
:101FC0008B5A9F4FFC01608308958F5A9F4FFC01ED
:101FD00040835183628373830895FC014087518756
:101FE000628773870895FC014487558766877787E2
:101FF0000895CF93DF931F92CDB7DEB76983298110
:1020000087599F4FFC0120830F90DF91CF91089556
:10201000CF93DF931F92CDB7DEB7698329818659AD
:102020009F4FFC0120830F90DF91CF910895CF93B4
:10203000DF931F92CDB7DEB76983298185599F4F02
:10204000FC0120830F90DF91CF9108958D559F4F14
:10205000FC0171836083089582569F4FFC01608369
:10206000089584569F4FFC017183608308958A58B8
:102070009F4FFC0171836083089588589F4FFC0136
:1020800071836083089580599F4FFC014083518381
:1020900062837383089584599F4FFC014083518369
:1020A000628373830895FC01E658FF4F2081222349
:1020B000F9F0739720812223D9F0319720812223D0
:1020C000B9F0FC01248D222399F023AD222381F065
:1020D000E859FF4F2081222359F031962081222395
:1020E00039F031962081222319F0319680810895AC
:1020F00080E00895FC0185A508951F93CF93DF9399
:10210000EC01162F6AA90E94620F1DA7DF91CF91E3
:102110001F9108958C589F4FFC017183608308952F
:1021200086589F4FFC01608308958B559F4FFC019B
:102130008081918108958B559F4FFC01718360834D
:10214000089589559F4FFC0160817181828193813F
:10215000089589559F4FFC014083518362837383A7
:10216000089585559F4FFC01608171818281938123
:10217000089585559F4FFC0140835183628373838B
:10218000089581559F4FFC01608171818281938107
:10219000089581559F4FFC0140835183628373836F
:1021A00008958D549F4FFC016081718182819381DC
:1021B00008958D549F4FFC01408351836283738344
:1021C000089589549F4FFC016081718182819381C0
:1021D000089585549F4FFC016081718182819381B4
:1021E000089581549F4FFC016081718182819381A8
:1021F00008958D539F4FFC01808108958D539F4F0B
:10220000FC016083089581E08093B20A8091B00A56
:102210009091B10A01969093B10A8093B00A80918F
:10222000B00A9091B10A64E170E00E946D4290930F
:10223000B10A8093B00A08958DEF94E00C94FA1CD3
:102240008DEF94E00C94361D62E086E00E94943D90
:1022500061E087E00E94943D60E087E00E94CD3D10
:102260008EED99E00E94860C8EED99E00E94A110FF
:10227000AB01BC0126E08EEE9BE00E94793486E043
:102280000E94033E8130910521F4909307028093D0
:1022900006028EED99E00E94F910882331F027E0C4
:1022A00040EC52E160E070E007C08EED99E00E94E2
:1022B000C110AB01BC0126E088E29DE00E947934A8
:1022C0008EED99E00E94D110AB01BC0126E085ECB7
:1022D0009DE00E94793468EE73E080E090E00E9417
:1022E000913C61E083E40E94943D61E673E08EEEF0
:1022F0009BE00E942B3864E670E080E090E00E9452
:10230000913C61E083E40E94CD3D6CE473E08EEE8D
:102310009BE00E942B388EED99E00E94E110AB010A
:10232000BC0189EE94E00E94A52964E670E080E09B
:1023300090E00E94913C60E080E30E94943D61E067
:102340008EE20E94943D8EED99E00E94E910AB016F
:10235000BC018DE999E00E94771A81E994E00E941E
:10236000D80760E083E00E94943D43E050E06CE1D8
:1023700071E181E00E940D3A60E082E00E94943DAC
:1023800043E050E060E271E180E00E940D3A43E0FA
:1023900051E164E670E080E090E00E9415300C941A
:1023A00021306F927F928F929F92AF92BF92CF9285
:1023B000DF92EF92FF920F931F93CF93DF9300D0A2
:1023C0001F921F92CDB7DEB7ADB6BEB66DE673E015
:1023D0000E946A447C01009709F428C2FC01019024
:1023E0000020E9F78F0101501109081B190B043077
:1023F000110508F41BC2F7018081980124503109AE
:1024000069018DB69EB6833209F0ADC144E050E05B
:10241000B701CE0101960E9487441D82380135E044
:10242000631A71088DB79EB78C199D090FB6F89481
:102430009EBF0FBE8DBF0DB71EB70F5F1F4FB701F9
:102440006B5F7F4FA301C8010E946E44F801E60D47
:10245000F71D10826BE172E0CE0101960E94774475
:10246000892BB1F4C8010E94254461E0892B09F44D
:1024700060E08EED99E00E94180FC8010E9425448B
:10248000019709F0CEC18DE894E00E94A807C9C168
:1024900060E272E0CE0101960E947744892BB1F48C
:1024A0008EED99E00E94FE0C6B017C01C8010E9438
:1024B00021449B01AC01C701B6010E94B33EAB01B0
:1024C000BC018EED99E00E94480FABC165E272E05D
:1024D000CE0101960E947744892B51F4C8010E94D5
:1024E0002144AB01BC018EED99E00E942C0F99C1F3
:1024F0006AE272E0CE0101960E947744892B51F482
:10250000C8010E942144AB01BC018EED99E00E94FC
:10251000340F87C16FE272E0CE0101960E947744CA
:10252000892B61F4C8010E94254461E0892B09F4DC
:1025300060E08EED99E00E947D1069C164E372E075
:10254000CE0101960E947744892BC1F48EED99E06B
:102550000E941E0D6B017C01C8010E9443440E9431
:102560001B409B01AC01C701B6010E94B33EAB0109
:10257000BC018EED99E00E94970F49C169E372E0BA
:10258000CE0101960E947744892B39F4F8016081CD
:102590008EED99E00E94620F3AC16EE372E0CE01C7
:1025A00001960E947744892B61F4C8010E9425445A
:1025B00061E0892B09F460E08EED99E00E942C1017
:1025C00030C163E472E0CE0101960E947744892B0A
:1025D00049F4C8010E942544BC018EED99E00E9497
:1025E00031101FC168E472E0CE0101960E94774469
:1025F000892B49F4C8010E942544BC018EED99E065
:102600000E9426100EC16DE472E0CE0101960E9478
:102610007744892B49F4C8010E942544BC018EED02
:1026200099E00E94A50EFDC062E572E0CE01019620
:102630000E947744892B49F4C8010E942544BC01BB
:102640008EED99E00E94B70EECC067E572E0CE0116
:1026500001960E947744892B49F4C8010E942544C1
:10266000BC018EED99E00E94C90EDBC06CE572E002
:10267000CE0101960E947744892B39F46EEE7BE0FF
:102680008EED99E00E94700BC2C061E672E0CE014F
:1026900001960E947744892B49F4C8010E94254481
:1026A000BC018EED99E00E949B10BBC066E672E013
:1026B000CE0101960E947744892B51F4C8010E94F3
:1026C0004344AB01BC018EED99E00E94A910A9C062
:1026D0006BE672E0CE0101960E947744892B51F49B
:1026E000C8010E944344AB01BC018EED99E00E94F9
:1026F000B91097C060E772E0CE0101960E9477445E
:10270000892B51F4C8010E944344AB01BC018EEDFA
:1027100099E00E94C91085C065E772E0CE0101967C
:102720000E947744892B51F4C8010E944344AB01B5
:10273000BC018EED99E00E94D91073C06AE772E087
:10274000CE0101960E947744892B09F060C0C80130
:102750000E94254461E0892B09F460E08EED99E048
:102760000E94FE105EC043E050E0B701CE0101962A
:102770000E9487441C82035011092DB73EB7201BCD
:10278000310B0FB6F8943EBF0FBE2DBF0DB71EB76D
:102790000F5F1F4FB7016C5F7F4FA601C8010E94FA
:1027A0006E44F801EC0DFD1D10826FE772E0CE0162
:1027B00001960E947744892B49F4C8010E94214464
:1027C000AB01BC018EED99E00E94ED0F63E872E071
:1027D000CE0101960E947744892B49F4C8010E94DA
:1027E0002144AB01BC018EED99E00E94F30F67E834
:1027F00072E0CE0101960E947744892B41F4C80112
:102800000E942544BC018EED99E00E943D100FB658
:10281000F8949EBE0FBE8DBE6DE673E080E090E042
:10282000D7CD8EED99E00E94570CF1CF0FB6F894FA
:10283000BEBE0FBEADBE0F900F900F900F900F90C9
:10284000DF91CF911F910F91FF90EF90DF90CF908C
:10285000BF90AF909F908F907F906F900895CF938F
:10286000DF93DC01FC0101900020E9F7E81BF90B84
:102870003297EC01219680E09E012A1B3B0B2E171C
:102880003F0718F499918927F7CFDF91CF910895E9
:102890001F93CF93DF93CFE0D4E014E68EEE9BE05E
:1028A0000E940D33892B61F18EEE9BE00E9428334C
:1028B00020910D0430910E04F901E15FFB4F8083FC
:1028C0002F5F3F4F30930E0420930D048A3029F080
:1028D0008D3019F0233631050CF3F901E15FFB4F20
:1028E00010826CE28FE094E00E94D11110920E04ED
:1028F00010920D04FE01812F11928A95E9F7CECF37
:10290000DF91CF911F910895809106029091070267
:10291000892B29F58BE89CE00E940D33892BF9F077
:102920008BE89CE00E942833682F87EF94E00E9498
:10293000F51780930C04882339F384E398E00E9410
:10294000B124BC018DE999E00E94881A84E398E0E3
:102950000E94B124BC018EEE9BE00C943D3808959A
:1029600088E29DE00E940D33892B79F18EED99E08C
:102970000E94F910882351F088E29DE00E942833DC
:10298000682F83E794E00E94A91BEACF88E29DE0CC
:102990000E942833682F8CE996E00E94EE198093FC
:1029A0000B048823E9F28CE996E00E94571ABC01D7
:1029B0008DE999E00E94881A8CE996E00E94571AE6
:1029C000BC018EEE9BE00C943D38089585EC9DE0B3
:1029D0000E940D33892BF9F085EC9DE00E9428338D
:1029E000682F80ED95E00E94EE1980930A048823F9
:1029F00069F380ED95E00E94571ABC018DE999E0DA
:102A00000E94881A80ED95E00E94571ABC018EEE54
:102A10009BE00C943D38089589EE94E00E94F228E2
:102A2000892BF9F089EE94E00E94ED28682F84E06C
:102A300095E00E94EE1980930904882369F384E0ED
:102A400095E00E94571ABC018DE999E00E94881A0E
:102A500084E095E00E94571ABC018EEE9BE00C9436
:102A60003D3808958091B20A882309F455C081E960
:102A700094E00E94D4088091B00A9091B10A8091AC
:102A8000B00A9091B10A65E070E00E946D42892B16
:102A900071F48DEF94E00E94931D8FEF94E00E94FB
:102AA000F1036EEE7BE08EED99E00E94390D80918E
:102AB000B00A9091B10A6AE070E00E946D42892BE1
:102AC00049F58DEF94E00E94951E8DE999E00E94F2
:102AD0008A1A8DE894E00E94A4068FEF94E00E9489
:102AE0004E048FEF94E00E9488048DE999E00E94E3
:102AF000001B8091060290910702019759F463E14F
:102B000070E087EF94E00E942E161616170618063E
:102B1000190624F01092B20A0C940C1510920702B8
:102B20001092060287EF94E00E94AD19F3CF8EED6C
:102B300099E00E94FE091092A00910929F0988EE68
:102B400093E0A0E0B0E08093A1099093A209A09344
:102B5000A309B093A40989E992E090939E09809318
:102B60009D098EED99E09093AA098093A90960E0F0
:102B700070E084E398E00E94272460E070E088E63B
:102B800097E00E94E51960E070E08CE996E00E9411
:102B9000E51960E070E080ED95E00E94E51960E0E5
:102BA00070E084E095E00E94E5196EED79E08FEF2A
:102BB00094E00E94A9036EED79E08DEF94E00E940D
:102BC000BA1B4EED59E064E378E087EF94E00E9491
:102BD000241641E063E489EE94E00E9433286EED10
:102BE00079E081E994E00E94C8076EED79E08DE814
:102BF00094E00E947C064EED59E068E27DE083E7B8
:102C000094E00C94A11B8DE894E00E94DC0481E91F
:102C100094E00E94840887EF94E00E9417168FEFDB
:102C200094E00E949C038DE999E00C94621A21E9DA
:102C300032E0FC0131832083089521E932E0FC0178
:102C4000318320830C94163CFC0181E992E091834E
:102C5000808355834483738362830895CF92DF9288
:102C6000EF92FF921F93CF93DF93162F60E0812F97
:102C70000E94943D61E0812F0E94CD3DC5E0D0E0EF
:102C800080E1C82E87E2D82EE12CF12C28E438EE22
:102C900041E050E060E0812F0E942C3E161617069E
:102CA000180619063CF46C157D058E059F0514F475
:102CB0006B017C01219751F7C701B601DF91CF91DC
:102CC0001F91FF90EF90DF90CF900895CF92DF9209
:102CD000EF92FF920F931F93CF93DF93EC016EEE71
:102CE00074E08EEE9BE00E94E93763E170E0CE0174
:102CF0000E942E166B017C0163E170E0CE010E9400
:102D00002E16C60ED71EE81EF91E63E170E0CE0136
:102D10000E942E166C0D7D1D8E1D9F1D23E030E040
:102D200040E050E00E94A3422C303105410551059E
:102D300094F124313105410551058CF12E313105D5
:102D4000410551057CF128323105410551056CF1F1
:102D50002C333105410551055CF120353105410524
:102D600051054CF126393105410551053CF12C3214
:102D700081E038074105510524F1283582E0380704
:102D8000410551050CF1203B3440410551059CF5AE
:102D900000EB14E01BC000E012ECD1E018C000E032
:102DA00011EE14C000E016E911C000E810E70EC0F3
:102DB00000E01BE40BC000E418E308C000E815E2E3
:102DC00005C000EC12E102C000E619E0D0E0C0E06E
:102DD00067EE74E08EEE9BE00E94E9372AE030E077
:102DE000A8016D2F7C2F8EEE9BE00E94FA38B8016F
:102DF0008D2F9C2F0AC060EE74E08EEE9BE00E9447
:102E0000E93760EC72E180E090E0DF91CF911F91B3
:102E10000F91FF90EF90DF90CF9008954F925F92C7
:102E20006F927F928F929F92AF92BF92CF92DF92DA
:102E3000EF92FF920F931F93CF93DF93CDB7DEB73F
:102E400060970FB6F894DEBF0FBECDBF69837A835B
:102E50008B839C83CA01B90127013801A601950122
:102E60000E94B23E25E33AEF4EE85CE30E948741C0
:102E70006B017C010E94EA416D877E878F87988B6A
:102E8000C701B6010E947D3F6D837E838F83988743
:102E900025E33AEF4EE85CE369817A818B819C817E
:102EA0000E9487416B017C0125E33AEF4EE85CE329
:102EB000C301B2010E9487412B013C01C701B60149
:102EC0000E94EA414B015C01C701B6010E947D3FAF
:102ED00069837A838B839C83C301B2010E94EA4198
:102EE00069877A878B879C87C301B2010E947D3FE7
:102EF0006B017C0129853A854B855C8569817A81E6
:102F00008B819C810E9487412B013C01A701960186
:102F1000C501B4010E9487412D813E814F815885B2
:102F20000E9487419B01AC01C301B2010E94B23EE5
:102F30009B01AC010E9487412B013C012D853E8500
:102F40004F855889C701B6010E9487419B01AC019A
:102F50000E9487419B01AC01C301B2010E94B33EB4
:102F60000E94F4412B013C0129853A854B855C8503
:102F7000C501B4010E9487414B015C01A701960184
:102F800069817A818B819C810E9487412D813E815C
:102F90004F8158850E9487419B01AC01C501B40156
:102FA0000E94B33E9B01AC01C301B2010E94263FC7
:102FB00026E73BE742EC5AE40E94874160960FB651
:102FC000F894DEBF0FBECDBFDF91CF911F910F915F
:102FD000FF90EF90DF90CF90BF90AF909F908F9039
:102FE0007F906F905F904F900895CF93DF93EC01A7
:102FF0008A819B810E94502561E0892B09F460E061
:103000008C819D810E94BB0F8C819D810E94020F4B
:10301000882369F18A819B810E948824682F8C8192
:103020009D810E94E00F8A819B810E9488248134C7
:10303000F1F460E070E08A819B810E94B324FC017E
:1030400082818235A1F060E070E08A819B810E94DC
:10305000B324FC0183818D3451F060E070E08A81FB
:103060009B810E94B324FC018481833431F48C81E0
:103070009D81DF91CF910C94020F0E94623CAB01C5
:10308000BC018C819D810E94C00F8A819B810E941E
:10309000AB24AB01BC018C819D810E94B30F8A815E
:1030A0009B810E948B24AB01BC018C819D810E947D
:1030B000C80F8A819B810E949124AB01BC018C8145
:1030C0009D810E94D00F8C819D810E94860EAB0154
:1030D000BC018A819B810E949724AB01BC018C8139
:1030E0009D810E94D80F8A819B810E948224AB011E
:1030F000BC018C819D810E94E50FB9CFDF92EF92D8
:10310000FF920F931F93CF93DF93CDB7DEB7A897AE
:103110000FB6F894DEBF0FBECDBF8C016AEC74E031
:103120008EEE9BE00E942B38F801848195810E94ED
:103130009510892B31F463EB74E08EEE9BE00E94D6
:103140002B38F801848195810E949510019709F030
:103150007FC06CE974E08EEE9BE00E942B386EE835
:1031600074E08BE89CE00E942B3866E774E08BE803
:103170009CE00E942B386EE574E08BE89CE00E9496
:103180002B3866E474E08BE89CE00E942B386EE2FA
:1031900074E08BE89CE00E942B3866E174E08BE8D9
:1031A0009CE00E942B386EEF73E08BE89CE00E945D
:1031B0002B3860EF73E08BE89CE00E942B381AA25A
:1031C00019A283E693E098A38F8FCE0101967C012C
:1031D0009CA38BA38EE190E098A78FA3CE014F967E
:1031E0000E946B2064EE73E0CE014F960E94E93797
:1031F000F801848195810E94B110AB01BC012AE0E5
:1032000030E0CE014F960E94A8386CED73E0CE01FD
:103210004F960E94E937C7010E942F14D82EFFE075
:10322000F81728F060E3CE014F960E94103840E175
:1032300050E06D2DCE014F960E941939B7018BE8F1
:103240009CE00E943D38B7018EEE9BE00E943D3825
:10325000F801848195810E949510029709F055C06C
:1032600063EC73E08EEE9BE00E942B3862EB73E020
:103270008BE89CE00E942B3860E873E08BE89CE0D0
:103280000E942B381AA219A283E693E098A38F8F8D
:10329000CE0101967C019CA38BA38EE190E098A7C0
:1032A0008FA3CE014F960E946B2066E773E0CE019C
:1032B0004F960E94E937F801848195810E94B110F0
:1032C000AB01BC012AE030E0CE014F960E94A83845
:1032D0006BE872E0CE014F960E940E38C7010E9443
:1032E0002F14182F803128F460E3CE014F960E94EE
:1032F000103840E150E0612FCE014F960E941939FD
:10330000B7018BE89CE00E943D38A8960FB6F89470
:10331000DEBF0FBECDBFDF91CF911F910F91FF9008
:10332000EF90DF9008951092B60A1092B50A83E6E6
:1033300093E09093B40A8093B30A8DEB9AE0909354
:10334000B80A8093B70A88E290E09093BC0A809311
:10335000BB0A83EB9AE00C946B20CF92DF92EF9242
:10336000FF92CF93DF93EC010E9466166B017C0104
:10337000AB01BC018C819D810E94B9108C819D8123
:103380000E94570C26E0B701A6018BE89CE00E9442
:103390007934CE010E947E188BE89CE00E949A331B
:1033A0008BE89CE00E94DB348C819D810E94B110EF
:1033B000AB01BC0126E08BE89CE0DF91CF91FF9050
:1033C000EF90DF90CF900C947934FC01E853FF4FDD
:1033D000118210823296118210820895CF93DF936A
:1033E000DC01A853BF4F4D915C911197FC01E6534E
:1033F000FF4F4236510514F0118210826A3011F0ED
:103400006D3011F411821082643261F424E6EC0113
:1034100019922A95E9F7EC01688381E090E08D9399
:103420009C933AC02081318121303105E1F024F4B0
:1034300021153105C1F133C02230310511F123309E
:10344000310569F5FC01E40FF51F60834E5F5F4FA6
:103450004D935C931182BC018C599F4F0E94804414
:1034600021E030E020C09A012F5F3F4FEC01C40FF4
:10347000D51F2D933C9368836A3299F482E090E0E3
:103480000BC09A012F5F3F4F2D933C93DC01A40F9B
:10349000B51F6C9383E090E09183808302C011821A
:1034A000108220E030E0C901DF91CF9108958C595E
:1034B0009F4F0895862F0E943D3181E090E008954E
:1034C0000C94003225E833E0FC01318320830C9416
:1034D000F932CF93DF93EC0185E893E099838883F9
:1034E0000E94F932CE01DF91CF910C94163C9A01E3
:1034F000AB01CA01B90196958795779567957C5D73
:103500008B409F4F0E948142CA01B9010C94EB305D
:103510000C943D38EF92FF920F931F93CF93DF935C
:10352000CDB7DEB72A970FB6F894DEBF0FBECDBF7A
:103530008C017C018EE0E80EF11C1C821B8283E66C
:1035400093E09A838983FE82ED828EE190E09A87F0
:103550008987CE0101960E946B206AE175E0CE0159
:1035600001960E94E937F801848595850E94E10E55
:103570004AE050E0BC01CE0101960E94F23864E1BD
:1035800075E0CE0101960E94E937F80184859585A2
:103590000E94E70EAB01BC0122E030E0CE010196B3
:1035A0000E940B3A6EE075E0CE0101960E94E93769
:1035B000C7010E942F14005C1F4FF80180838031E7
:1035C00028F460E3CE0101960E94103840E150E0FB
:1035D000F8016081CE0101960E941939B7018EEE83
:1035E0009BE00E943D382A960FB6F894DEBF0FBECE
:1035F000CDBFDF91CF911F910F91FF90EF90089574
:10360000AF92BF92CF92DF92EF92FF920F931F93F0
:10361000CF93DF93CDB7DEB72A970FB6F894DEBF0E
:103620000FBECDBF8C01FC01848595850E94990E4B
:1036300020E030E0A9010E94793F882309F470C09E
:103640005801FCE2AF0EB11C1C821B8283E693E0A2
:103650009A838983BE82AD8284E190E09A878987CC
:10366000CE0101960E946B2066E075E0CE010196C6
:103670000E94E937F801848595850E94930E6B01BD
:103680007C01F801848595850E94990E9B01AC010F
:10369000C701B6010E94B23EAB01BC0122E030E09E
:1036A000CE0101960E940B3A62E075E0CE010196D0
:1036B0000E94E9377801F0E4EF0EF11CF701108267
:1036C00081E090E0F50101900020E9F7EA19FB099B
:1036D00032978E179F0750F4F801E80FF91F24A5C1
:1036E000F7013081232720830196ECCFF7018081F9
:1036F000803128F460E3CE0101960E94103840E149
:1037000050E0F7016081CE0101960E941939B501A0
:103710008EEE9BE00E943D38B501C8010E943D3805
:103720002A960FB6F894DEBF0FBECDBFDF91CF91C2
:103730001F910F91FF90EF90DF90CF90BF90AF90CF
:103740000895FC01578B468B718F608F1182108218
:103750000895FC01A081B181A80FB91F12966C9346
:103760008081918143972CF480819181019691838E
:1037700080830895CF93DF93EB01FC017183608315
:103780000E946E3C6093130B7093140B8093150B87
:103790009093160B4091130B5091140B6091150BE5
:1037A0007091160B40930F0B5093100B6093110BFD
:1037B0007093120B1092FB0A1092FC0A1092FD0AF1
:1037C0001092FE0A81E08093F60A1092E80A1092A5
:1037D000E90A8091E50A9091E60A20E03091E70A33
:1037E000231760F4FC0134E0239FE00DF11D112448
:1037F00010821182128213822F5FF0CFCE010E94BD
:10380000DB0E843691053CF063E670E0CE01DF917B
:10381000CF910C943110DF91CF910895CF92DF9228
:10382000EF92FF920F931F93CF93CB01BA0197FFB3
:1038300009C090958095709561957F4F8F4F9F4FF0
:10384000C0E001C0C1E0683621E072078105910542
:1038500034F028E631E040E050E00E94A342653BAE
:1038600071058105910534F0645B71098109910945
:1038700021E0C2276B3571058105910564F004EBE9
:1038800010E020E030E068017901C61AD70AE80AA2
:10389000F90AC701B601660F771FFB01E755FD4F17
:1038A00060817181CC2319F080E090E00CC0CB01E5
:1038B000A0E0B0E09C01AD0166277727CB01621B39
:1038C000730B840B950BCF911F910F91FF90EF908D
:1038D000DF90CF900895465A5F4F6F4F7F4F0C9403
:1038E0000E1C4F925F926F927F928F929F92AF9237
:1038F000BF92CF92DF92EF92FF920F931F93CF93DD
:10390000DF938C016090E80AC091E50AD091E60A45
:10391000712CC12CD12C7601812C912C5401761460
:10392000C1F0488159816A817B81C8010E946B1C6A
:10393000860E971EA81EB91E4991599169917991D9
:10394000C8010E940E1CC60ED71EE81EF91E7394F5
:10395000E6CF81149104A104B10429F4C114D10467
:10396000E104F104A1F1662D70E080E090E00E9496
:103970001B402B013C01C501B4010E941B4020E803
:1039800030E040E857E30E948741A30192010E9482
:10399000803F4B015C01C701B6010E941B4020E83B
:1039A00030E040E857E30E948741A30192010E9462
:1039B000803FA50194010E94263F21EE3EE245E6AC
:1039C00052E40E9487410E94E83FCB0102C080E0A0
:1039D00090E0DF91CF911F910F91FF90EF90DF90DA
:1039E000CF90BF90AF909F908F907F906F905F909F
:1039F0004F9008950F931F930E94623C00911B0B00
:103A000010911C0B20911D0B30911E0B601B710B34
:103A1000820B930B653171058105910520F1809131
:103A2000130B9091140BA091150BB091160B809372
:103A30000F0B9093100BA093110BB093120B0E94DD
:103A40006E3C6093130B7093140B8093150B909343
:103A5000160B0E94623C60931B0B70931C0B8093AF
:103A60001D0B90931E0B1F910F9108950F931F93A1
:103A70000E94623C0091170B1091180B2091190BBA
:103A800030911A0B601B710B820B930B6531710522
:103A90008105910508F444C08091030B9091040BBB
:103AA000A091050BB091060B8093FF0A9093000B39
:103AB000A093010BB093020B0E946E3C6093030B2A
:103AC0007093040B8093050B9093060B80910F0B62
:103AD0009091100BA091110BB091120B80930B0BD6
:103AE00090930C0BA0930D0BB0930E0B8091130BC6
:103AF0009091140BA091150BB091160B8093070BAE
:103B00009093080BA093090BB0930A0B0E94623CA0
:103B10006093170B7093180B8093190B90931A0BEB
:103B20001F910F9108954F925F926F927F928F92A3
:103B30009F92AF92BF92CF92DF92EF92FF920F933C
:103B40001F93F89480900B0B90900C0BA0900D0B92
:103B5000B0900E0B8091070B9091080BA091090B70
:103B6000B0910A0B4091FF0A5091000B6091010B3C
:103B70007091020B0091030B1091040B2091050B27
:103B80003091060B789488169906AA06BB0608F0B1
:103B9000BDC06C017D01C818D908EA08FB08E0E245
:103BA000CE16EEE4DE06E104F10408F4AFC04017DF
:103BB00051076207730708F0A9C028013901441AA8
:103BC000550A660A770AE0E24E16EEE45E066104E4
:103BD000710408F49BC0011511052105310509F494
:103BE00095C0411551056105710509F48FC0009715
:103BF000A105B10509F48AC081149104A104B1049E
:103C000009F484C084169506A606B70608F07EC09F
:103C1000081719072A073B0708F478C0C40CD51CFD
:103C2000E61CF71CF694E794D794C794C092FB0A5D
:103C3000D092FC0AE092FD0AF092FE0A28013901B6
:103C4000440E551E661E771EA301920128193909DC
:103C50004A095B09281B390B4A0B5B0B56954795A4
:103C6000379527952093F70A3093F80A4093F90A7D
:103C70005093FA0A211531054105510509F446C052
:103C80002C153D054E055F0508F040C0A8E6B1E0E3
:103C90000E94C842A70196010E948142283681E015
:103CA00038074105510590F58091E90A8F5F8093AF
:103CB000E90A9091E80A6091E70AE091E50AF0913B
:103CC000E60A9617B0F481E0890F8093E80A84E051
:103CD000989FE00DF11D112420833183428353838B
:103CE0008091E90A6091E80A0E9461429093E90A92
:103CF0000DC00E9461429093E90A84E0989FE00D14
:103D0000F11D112420833183428353831F910F912E
:103D1000FF90EF90DF90CF90BF90AF909F908F90EB
:103D20007F906F905F904F9008954F925F926F9247
:103D30007F928F929F92AF92BF92CF92DF92EF923B
:103D4000FF92CF93DF93EC010E94623CC0901B0B6B
:103D5000D0901C0BE0901D0BF0901E0B6C157D0598
:103D60008E059F0550F40E94623C60931B0B70937C
:103D70001C0B80931D0B90931E0B0E94623CC09005
:103D8000170BD090180BE090190BF0901A0B6C15D4
:103D90007D058E059F0550F40E94623C6093170BD1
:103DA0007093180B8093190B90931A0B0E94623C2E
:103DB000AB01BC01888199810E944B100E94623C3A
:103DC000C0901B0BD0901C0BE0901D0BF0901E0BB5
:103DD0006C197D098E099F09A880B980693B7B40D9
:103DE00081059105A0F040E050E0BA01C501DF91E6
:103DF000CF91FF90EF90DF90CF90BF90AF909F90CA
:103E00008F907F906F905F904F900C944310209113
:103E1000FB0A3091FC0A4091FD0A5091FE0A2115DF
:103E200031054105510509F4B4C060E071EE85EF3C
:103E300095E00E94814269017A01233481E03807CC
:103E400041055105F4F5AAE0B0E00E94C8422B01FB
:103E50003C01C5010E94EF0E4B015C01A3019201E0
:103E6000C301B2010E94514227E93FEF4FEF5FEFDC
:103E70000E94A34229013A01A701960168E273EE6C
:103E800083E090E00E94514224E630E040E050E0C0
:103E90000E94A342420E531E641E751E24EE421A57
:103EA0002FE2520A61087108C301B2010E941B404F
:103EB000A50194010E94803F20E030E040E251E4FF
:103EC00060C02C3385E138074105510554F5C50123
:103ED0000E94EF0E2B013C01A7019601C701B6011C
:103EE0000E9451422EEA38E040E050E00E94A34296
:103EF00049015A01ABE9BAE4A70196010E94C84200
:103F000024E630E040E050E00E94A342820E931E7F
:103F1000A41EB51E26EA820E25E2921EA11CB11C2B
:103F20002AC0C5010E94EF0E2B013C01A70196019A
:103F3000C701B6010E94514222E134E040E050E066
:103F40000E94A342A4E6B0E00E94C8424B015C017B
:103F5000A701960164EB70E281E89FEF0E94514255
:103F6000860E971EA81EB91E84E4880E8DEB981E3F
:103F70008BE2A81EB11CC501B4010E941B40A30125
:103F800092010E94803FAB01BC01888199810E940F
:103F90004310888199810E94E70E6B017C01888122
:103FA00099810E94F70EBC01882777FD8095982F94
:103FB0000E941B409B01AC01C701B6010E947C41DD
:103FC000181654F4888199810E94E70E0E94E83FF8
:103FD000888199810E948A10CE010E94711C8A55A5
:103FE00091097C01888199810E94D50EB701680FE3
:103FF000791F77FF02C068597E4F88819981DF91D0
:10400000CF91FF90EF90DF90CF90BF90AF909F90B7
:104010008F907F906F905F904F900C9437108AEE46
:104020009AE09093E60A8093E50A83E08093E70A9A
:104030001092E80A1092E90A089561E085E30E946F
:10404000CD3D61E085E30E94943D8CB580618CBDDF
:104050008CB580648CBD61E084E30E94943D61E096
:1040600083E30C94943D811103C08CB5806202C03F
:104070008CB58F7D8CBD08959CB5937F982B9CBD8E
:1040800008952CB5982F93702C7F922B9CBD9DB5D5
:1040900082FB882780F99E7F982B9DBD0895FC01A7
:1040A000A681B7819D012F5F3F4F84819581408517
:1040B0005185840F951F2817390750F437832683BD
:1040C0006C930680F781E02D108281E090E00895E6
:1040D00080E090E00895FC01A481B581B783A683B8
:1040E00080859185892B09F01C92089508952F925F
:1040F0003F924F925F926F927F928F929F92AF9278
:10410000BF92CF92DF92EF92FF920F931F93CF93C4
:10411000DF93CDB7DEB72A970FB6F894DEBF0FBE98
:10412000CDBF9A878987DC01D6968C91882309F4C4
:10413000E5C00E94623C69837A838B839C83E98516
:10414000FA8580A191A129813A81281B390B84A588
:1041500095A5281739070CF4D1C0028CF38DE02DFA
:1041600080809180A280B380A985BA855E96ED910A
:10417000FC915F97A5019401608171818281938197
:104180000E94B23E2B013C01E985FA8520893189E4
:10419000428953890E948741A985BA8594962D91B9
:1041A0003D914D915C9197970E94B33E6B017C01CC
:1041B000E985FA8564A375A386A397A312A903A929
:1041C00034A825A8212F302F432D522D0E947C4149
:1041D00018162CF4812F902FA32DB22D18C0A9856D
:1041E000BA859E968D919D910D90BC91A02D8D8349
:1041F0009E83AF83B8879C01AD01C701B6010E94C1
:10420000793F87FF0AC08D819E81AF81B885E9859E
:10421000FA8584A395A3A6A3B7A3A985BA851C96FE
:104220002D913D914D915C911F97C301B2010E9468
:104230008741E985FA8524A135A146A157A10E94AD
:10424000B33E6B017C01A985BA8598962D913D916D
:104250004D915C919B97C501B4010E94B23EE985E6
:10426000FA8524893589468957890E9487419B01AF
:10427000AC01C701B6010E94B23E6B017C01212F47
:10428000302F432D522D0E947C411816DCF0A98559
:10429000BA859E961C919E979F960C919F97D0965B
:1042A0003C90D097D1962C90212F302F432D522D1A
:1042B000B601C7010E94793F87FD04C01C2D0D2D5A
:1042C0003E2C2F2CA985BA855C96ED91FC915D97CB
:1042D000812F902FA32DB22D80839183A283B3834E
:1042E000E985FA8580A691A6A2A6B3A689819A81BE
:1042F000AB81BC8180A391A3A2A3B3A32A960FB6DE
:10430000F894DEBF0FBECDBFDF91CF911F910F910B
:10431000FF90EF90DF90CF90BF90AF909F908F90E5
:104320007F906F905F904F903F902F9008952F92C5
:104330003F924F925F926F927F928F929F92AF9235
:10434000BF92CF92DF92EF92FF920F931F93CF9382
:10435000DF9300D01F92CDB7DEB71C012A013B01CD
:104360004801590120E030E0A901C301B2010E94D7
:10437000793F87FD7AC020E030E0A901C501B40192
:104380000E94793F87FD71C020E030E0A901C7019C
:10439000B6010E94793F87FD68C0F10140825182D9
:1043A0006282738284829582A682B782C086D18619
:1043B000E286F38664A575A5882777FD8095982FFA
:1043C0000E941B4020E030E04AE754E40E94803F16
:1043D00069837A838B839C83F10144865586668644
:1043E00077869B01AC01C501B4010E9487414B0156
:1043F0005C01F101608B718B828B938B29813A81F7
:104400004B815C81C701B6010E94803F6B017C013A
:10441000F101648B758B868B978B808D918D0197C5
:1044200021F5A301920160E070E0CB010E94B23E51
:10443000F1016487758786879787A501940160E0FD
:1044400070E0CB010E94B23EF101608B718B828BD8
:10445000938BA701960160E070E0CB010E94B23E11
:10446000F101648B758B868B978B0F900F900F905B
:104470000F90DF91CF911F910F91FF90EF90DF9000
:10448000CF90BF90AF909F908F907F906F905F90F4
:104490004F903F902F900895CF92DF92EF92FF922E
:1044A0000F931F93CF93DF93EC018B011616170622
:1044B00094F5882777FD8095982F0E941B406B010B
:1044C0007C016CA57DA5882777FD8095982F0E949B
:1044D0001B409B01AC01C701B6010E94803F6B01EC
:1044E0007C019B01AC01688979898A899B890E943A
:1044F0008741688B798B8A8B9B8BA70196016C898E
:104500007D898E899F890E94803F6C8B7D8B8E8BED
:104510009F8B1DA70CA7DF91CF911F910F91FF904B
:10452000EF90DF90CF9008952F923F924F925F923D
:104530006F927F928F929F92AF92BF92CF92DF92B3
:10454000EF92FF920F931F93CF93DF93EC016A01D9
:104550007B0148015901A9019801C701B6010E94D8
:104560007C4187FF4EC0CEA6DFA6E8AAF9AA8AAA98
:104570009BAAACAABDAA8EA9882309F442C02C8CA0
:104580003D8CF1014080518062807380A5019401CF
:10459000C301B2010E947C41181634F4F1018082FB
:1045A0009182A282B3820DC0A7019601C301B2011C
:1045B0000E94793F87FF05C0F101C082D182E2826B
:1045C000F3828CA09DA0AEA0BFA0CAA8DBA8ECA8D7
:1045D000FDA8A7019601C501B4010E947C411816EF
:1045E00064F0CEA4DFA4E8A8F9A8A7019601C5014C
:1045F000B4010E94793F87FF04C0CCA2DDA2EEA2E5
:10460000FFA2DF91CF911F910F91FF90EF90DF906C
:10461000CF90BF90AF909F908F907F906F905F9062
:104620004F903F902F9008958F929F92AF92BF929C
:10463000CF92DF92EF92FF92CF93DF93EC01EC8D5C
:10464000FD8DC080D180E280F380CCA2DDA2EEA2FD
:10465000FFA2EA8DFB8D80819181A281B38188A721
:1046600099A7AAA7BBA78AA89BA8ACA8BDA8A50183
:104670009401C701B6010E947C41181664F08EA413
:104680009FA4A8A8B9A8A5019401C701B6010E94DA
:10469000793F87FF04C08CA29DA2AEA2BFA2DF918A
:1046A000CF91FF90EF90DF90CF90BF90AF909F9011
:1046B0008F9008951F93CF93DF93EC0111E0613049
:1046C000710509F010E08EA991E08927181303C045
:1046D000CE010E9414231EABDF91CF911F9108954C
:1046E0000F931F93CF93DF93EC018B018EA9882347
:1046F00061F1888D998D6817790739F12C853D8591
:104700004E855F8560E070E0CB010E94B23E6C8711
:104710007D878E879F87288939894A895B8960E0F0
:1047200070E0CB010E94B23E688B798B8A8B9B8BA9
:104730002C893D894E895F8960E070E0CB010E9441
:10474000B23E6C8B7D8B8E8B9F8B198F088FDF9188
:10475000CF911F910F9108952F923F924F925F92A8
:104760006F927F928F929F92AF92BF92CF92DF9281
:10477000EF92FF920F931F93CF93DF93CDB7DEB7E6
:1047800028970FB6F894DEBF0FBECDBF4C017A83D9
:1047900069831A013C832B8327013801AD82BE82D5
:1047A000CF82D88600E010E02FE733E440E050E00D
:1047B000BA010E94942284E690E0F40195A784A7B0
:1047C0006AA17BA1C4010E947023CE8CDF8CE8A07B
:1047D000F9A00D811E812F813885B301A201C4018A
:1047E0000E9497210E94623CF40144A455A46624CF
:1047F00057FC6094762C641975098609970960A3A3
:1048000071A382A393A316AA358E248E89819A81DF
:10481000938F828F8B819C81978F868F28960FB67E
:10482000F894DEBF0FBECDBFDF91CF911F910F91E6
:10483000FF90EF90DF90CF90BF90AF909F908F90C0
:104840007F906F905F904F903F902F9008950F93BF
:104850001F93CF93DF93FC017183608312821382D5
:104860001482158286E58683178210861186128649
:1048700013861486158616861786108A118A128A60
:10488000138A148A158A168ADF01A754BF4F11961E
:104890001C921E92AE55BF4F11961C921E921496FA
:1048A00011961C921E92129611961C921E921296AE
:1048B00011961C921E92178AAC5AB1091D921C9235
:1048C000EF0104E110E08FE090E00E94FA42FE0167
:1048D000E15EFE4F918380838FE090E00E94FA4278
:1048E000FE01E558FF4F91838083FC011082015047
:1048F000110922960115110531F7DF91CF911F9112
:104900000F910895FC0162817381848195810895DE
:10491000FC0186810895FC016781708581859285FF
:104920000895FC0163857485858596850895CF92E9
:10493000DF92EF92FF926A017B01FC0127853089AB
:1049400041895289C701B6010E948741FF90EF90CB
:10495000DF90CF900895FC016389748985899689D9
:10496000089547960895660F771F680F791FFB011A
:10497000E558FF4F8081918108954F925F926F9229
:104980007F928F929F92AF92BF92CF92DF92EF92DF
:10499000FF920F931F93CF93DF93FB0110811D3282
:1049A00041F031E020E01B3209F030E0832F922FFC
:1049B00002C081E090E0EB01C80FD91F00E03DECA0
:1049C000432E3CEC532E652C3DE3732E812C912C11
:1049D0005401C12CD12C7601E991EE23E9F1EE329C
:1049E000C9F1FF27E7FDF095011113C0AAE0B0E07F
:1049F000A70196010E94C8426B017C01CF01C097BC
:104A0000AA2797FDA095BA2FC80ED91EEA1EFB1E35
:104A1000E3CFBF0160537109882777FD8095982FF8
:104A20000E941B409B01AC01C301B2010E9487415F
:104A30009B01AC01C501B4010E94B33E4B015C0176
:104A400020E030E040E251E4C301B2010E94803F27
:104A50002B013C0101E0C0CFC701B6010E941B4001
:104A60009B01AC01C501B4010E94B33E1D3239F473
:104A70009B01AC0160E070E0CB010E94B23EDF918F
:104A8000CF911F910F91FF90EF90DF90CF90BF904B
:104A9000AF909F908F907F906F905F904F90089510
:104AA0008F929F92AF92BF92CF92DF92EF92FF923E
:104AB0000F931F93CF93DF93EC01AC01455A5E4FE8
:104AC000DA012D913C911197FC01E15AFE4F2436F9
:104AD00031056CF4A25AB1098D919C9111974497BC
:104AE00034F4A655BF4F8D919C910F9714F011820D
:104AF00010826A3011F06D3011F41182108264322C
:104B0000E1F4DE01A35ABE4F11961C921E92149638
:104B100011961C921E92A85AB10911961C921E92CF
:104B2000A655BF4F1D921C92C554DF4F688381E08C
:104B300090E0DA018D939C93E4C080819181813073
:104B4000910569F024F4009709F47AC272C28230A8
:104B5000910509F492C0039709F4D6C06AC22730C0
:104B600031057CF4D901A959BC4F8C91681309C057
:104B7000DE01A35ABE4F8D919C91119701968D93A2
:104B80009C93C9010196DA018D939C932C0F3D1FD4
:104B9000D901A554BF4F6C93CE0187549F4F8E010E
:104BA0000D591E4F6A3249F1DE01AF59BE4FFC016B
:104BB0006C3209F040C020813181A9014F5F5F4F05
:104BC00051834083C901880F991F8C0F9D1FEC01F1
:104BD000C15EDE4F0990D881C02DF801808191819E
:104BE000C80FD91F1882118210828D919C91119744
:104BF000FCE28F278D939C931EC2DC012D913C918A
:104C00001197A9014F5F5F4F4D935C93C901880FC6
:104C1000991F8C0F9D1FEC01C15EDE4F0990D8815A
:104C2000C02DD8018D919C911197C80FD91F188262
:104C30001D921C9263C080819181880F991F8C0FF7
:104C40009D1FEC01C15EDE4F0990D881C02DF80197
:104C5000808191819C012F5F3F4F31832083C80F5A
:104C6000D91F6883772767FD70958D919C91119767
:104C7000682779276D937C93DEC1C9010196DA011B
:104C80008D939C932C0F3D1FD901A554BF4F6C935E
:104C9000DE01A754BF4F8D919C91880F991F8C0FF7
:104CA0009D1FDC01A15EBE4F0D911C919E012D59EF
:104CB0003E4FD9018D919C911197AC014F5F5F4F91
:104CC0004D935C93080F191FD8016C93CF59DE4F99
:104CD00048815981862F992787FD9095613414F07A
:104CE000C79701C0C0979C01B4E0220F331FBA954B
:104CF000E1F7CA01821B930B99838883808191819C
:104D000001969183808397C1CE01820F931FDC01AE
:104D1000A554BF4F6C932E5F3F4FDA012D933C9308
:104D2000DC01A454BF4F1C929E0127543F4FD90170
:104D30008D919C91880F991F8C0F9D1FDC01A15EA6
:104D4000BE4F8D919C916E01BDE9CB1ABEEFDB0A7F
:104D5000D6010D911C917801BFEFEB1AFB0AD60129
:104D6000ED92FC92800F911FDC016C93D9018D9123
:104D70009C9111978C010F5F1F4F0D931C93880F0F
:104D8000991F8C0F9D1F815E9E4FDC018D919C9120
:104D9000D6010D911C91800F911FDC011C92118294
:104DA0001082FE01EF59FE4F80819181062F11275D
:104DB00007FD1095613424F0B8016753710903C0F1
:104DC000B80160537109861B970B9183808300970C
:104DD00009F031C168817981672B29F4FA0160817A
:104DE0007181CB010AC0FE01E35AFE4F60817181DF
:104DF0006630710509F024C1F1CF019797FD0AC013
:104E0000FE01E80FF91F8F0105541F4FD8011C91B7
:104E1000178BF3CFFB013197CB0177FF02C080E006
:104E200090E0BF01681B790BDA016D937C93FE0162
:104E3000E954FF4F1182108240815181D9018D9137
:104E40009C914817590784F5D6011D921C928081C8
:104E50009181D6014D915C91880F991F8C0F9D1FF8
:104E6000BC01615E7E4FDB016D917C91640F751F0B
:104E7000DB016C9185589F4FDC018D919C91840FD3
:104E8000951FDC01662349F06C93D6018D919C91AE
:104E9000119701968D939C93DACF1C92808191811A
:104EA000019691838083C8CFFE01E35AFE4F808133
:104EB0009181069709F0C2C0FC9760817181CE0193
:104EC0000E94BD246A837B838C839D83FE01ED5DFC
:104ED000FE4F0190F081E02D80818E83FE01EB5D1D
:104EE000FE4F60817181CE010E94BD2420E030E040
:104EF00048EC52E40E94803F4B015C010E94564006
:104F00006B017C018E010B591E4FF8016083718388
:104F1000828393839B01AC01C501B4010E94B23E20
:104F200020E030E048EC52E40E94874120E030E08D
:104F300040E752E40E94803FA70196010E94B33EE1
:104F40009B01AC016F83788789879A87FE01E95DB1
:104F5000FE4F0190F081E02D8081833549F460E0BF
:104F600070E0CB010E94B23E6F83788789879A8771
:104F7000FE01E75DFE4F60817181CE010E94BD247C
:104F800020E030E048EC52E40E94803F4B015C019D
:104F90000E9456406B017C01D8016D937D938D93E7
:104FA0009C9313979B01AC01C501B4010E94B23ED2
:104FB00020E030E048EC52E40E94874120E030E0FD
:104FC00040E752E40E94803FA70196010E94B33E51
:104FD0009B01AC016B877C878D879E87FE01E55D19
:104FE000FE4F0190F081E02D8081873549F460E02B
:104FF00070E0CB010E94B23E6B877C878D879E87D5
:10500000FE01E35DFE4F60817181CE010E94BD24EF
:105010006F87788B898B9A8BFE01E15DFE4F6081F3
:105020007181CE010E94BD246B8B7C8B8D8B9E8BFE
:1050300005C01182108280E090E002C081E090E023
:10504000DF91CF911F910F91FF90EF90DF90CF9064
:10505000BF90AF909F908F9008958EBD0DB407FEC6
:10506000FDCF8EB508950F931F93FC01138212821A
:1050700008EE13E020E030E00483158326833783B5
:1050800083E793E091838083648745871F910F9125
:105090000895EF92FF921F93CF93DF931F92CDB7A6
:1050A000DEB77C01162F60E0FC01848549830E94F5
:1050B000CD3DF8E01F9FB0011124F7018585880FD1
:1050C000862B0E942D284981842F0E942D2862E082
:1050D00070E080E090E00E94913C61E0F7018485FF
:1050E0000F90DF91CF911F91FF90EF900C94CD3DE9
:1050F000462F60E00E94492881E090E0089546E054
:1051000062E00C944928CF92DF92EF92FF920F93C6
:105110001F93CF93DF931F921F92CDB7DEB78C0101
:10512000F22E60E0FC01848549835A830E94CD3DC4
:105130004981E42EC42E5A81D52E8C2D8E198F15BF
:1051400030F4F60181916F010E942D28F6CF62E0C4
:1051500070E080E090E00E94913C61E0F80184857D
:105160000F900F90DF91CF911F910F91FF90EF90D3
:10517000DF90CF900C94CD3D242FAB0160E00C94D8
:1051800083281F93CF93DF93EC01162F60E08C856B
:105190000E94CD3D62E070E080E090E00E94913C92
:1051A00088E0189FB00111248D85880F862B8068B8
:1051B0000E942D2880E00E942D28182F62E070E0C8
:1051C00080E090E00E94913C61E08C850E94CD3DA2
:1051D000812FDF91CF911F91089560E00E94C12837
:1051E00090E0089569E00E94C12890E0089569E088
:1051F0000E94C1288FEF9FEF08951F93CF93DF93F5
:10520000EC01162F63E00E94C128482F4C7F6BEF02
:10521000610F6370462B63E0CE01DF91CF911F9148
:105220000C9449288F929F92AF92BF92CF92DF92B7
:10523000EF92FF920F931F93CF93DF93EC016A01DC
:105240007B01480159016FE475E08EEE9BE00E94FE
:105250002B380E941D206AE070E080E090E00E9400
:10526000913C81E00E94332081E00E94412080E057
:105270000E943C2063E475E08EEE9BE00E942B3898
:105280008091080290910902019779F448E06EE05C
:10529000CE010E944928109209021092080264E38C
:1052A00075E08EEE9BE00E942B3864E670E080E0B3
:1052B00090E00E94913C40E863E0CE010E944928C2
:1052C000C701B60123E0660F771F881F991F2A9533
:1052D000D1F7680D791D8A1D9B1DA7019601E4E099
:1052E000220F331F441F551FEA95D1F70E948142B8
:1052F00069017A01422F60E0CE010E9449284D2DBC
:10530000552761E0CE010E94492840E063E0CE01CC
:105310000E94492868E0CE010E94FD2847E062E033
:10532000CE010E94492862E275E08EEE9BE0DF919B
:10533000CF911F910F91FF90EF90DF90CF90BF9092
:10534000AF909F908F900C942B380F931F9300E099
:1053500010E820E730E00E9412291F910F91089574
:10536000FC016F778081918186279183808347E05C
:1053700020813181C9019695879520FF04C020EFD7
:10538000822722E2922791838083415089F70895F2
:10539000EF92FF920F931F93CF93DF937C018A01CB
:1053A000EB01060F171FC017D10729F06991C7013C
:1053B0000E94B029F8CFDF91CF911F910F91FF90FC
:1053C000EF900895CF93DF931F921F92CDB7DEB772
:1053D000AB012FEF3FE33A832983BC01CE01019655
:1053E0000E94C82989819A8180952FE392270F9086
:1053F0000F90DF91CF9108950F931F93CF93DF9379
:105400001F92CDB7DEB78C01FC01718360831282DD
:1054100023831486158616861786108A4596498337
:105420000E94B62EF801178E10A249818FE9840FD1
:105430008A3108F440528FEB840F8A3120F080EDDE
:10544000840F8A3010F4F801428344E650E060E0B3
:1054500070E0F80144835583668377834FEF5FEFF5
:10546000BA01408751876287738711A20F90DF913D
:10547000CF911F910F91089508959F92AF92BF927F
:10548000CF92DF92EF92FF920F931F93CF93DF9310
:10549000CDB7DEB7A7970FB6F894DEBF0FBECDBF6E
:1054A0006C017B01942E5901DB0114964D915D91A5
:1054B0006D917C911797CE0180960E94AF2FCE01FF
:1054C00080960E94852F6894A4F8C8010E945D2FE1
:1054D000882321F0C6010E94B82E6CC0CE018096B0
:1054E0000E945D2F8823A9F1CE0180960E94A32FF0
:1054F000F70184858F5F87FD81E0D7011C968C932F
:10550000CE0101960E94E52CF7016281CE01019641
:105510000E94E92C6A2DCE0101960E94E92CD70148
:105520001C966C91CE0101960E94E92C692DCE014A
:1055300001960E94E92CD701ED91FC91119763A18E
:1055400074A123E230E013964C91CE0101960E94A3
:10555000C12DF701808191810E948F2E882309F44B
:10556000B4CFD701ED91FC911197938113968C9153
:105570009813ABCF8481833409F0A7CF4081518148
:1055800045505109BF016A5F7F4FCE0101960E94CD
:105590002E2F8981882309F498CF9C81F701848577
:1055A000981393CF8AE0FE013196D60101900D92B7
:1055B0008A95E1F7C601A7960FB6F894DEBF0FBE35
:1055C000CDBFDF91CF911F910F91FF90EF90DF90B2
:1055D000CF90BF90AF909F9008959F92AF92BF924F
:1055E000CF92DF92EF92FF920F931F93CF93DF93AF
:1055F000CDB7DEB76F970FB6F894DEBF0FBECDBF45
:105600008C015B017A01922EDC01ED91FC91C3A02B
:10561000D4A0CE0101960E94E52CF8016281CE0152
:1056200001960E94E92C692DCE0101960E94E92C79
:1056300096FE07C0D8015F966C91CE0101960E943C
:10564000E92CF70142815381B7016C5F7F4FCE0196
:1056500001960E94F52C9501D80113964C91B60144
:10566000CE0101960E94C12D6F960FB6F894DEBF51
:105670000FBECDBFDF91CF911F910F91FF90EF90A3
:10568000DF90CF90BF90AF909F900895CF92DF9220
:10569000EF92FF920F931F93CF93DF93CDB7DEB7B7
:1056A0002A970FB6F894DEBF0FBECDBF7C016A010A
:1056B000FC0180A1811123C08B0120E430E041E096
:1056C00050E0B701CE0101960E943D2A8AE0FE011A
:1056D0003196D60101900D928A95E1F7F60182810B
:1056E00080FF04C08681978197FD07C0F601848101
:1056F000F701878F81E080A302C081E001C080E0D4
:105700002A960FB6F894DEBF0FBECDBFDF91CF91C2
:105710001F910F91FF90EF90DF90CF900895DF924F
:10572000EF92FF920F931F93CF93DF93CDB7DEB726
:105730002A970FB6F894DEBF0FBECDBF7C01D42EE2
:10574000FC0123893489418952898B01BC01CE0136
:1057500001960E943D2A8AE0FE013196D7015596B6
:1057600001900D928A95E1F7F701878980FF04C0C7
:10577000838D948D97FD0BC0F701818D978D8917CF
:1057800031F0811106C081E0D11004C002C081E077
:1057900001C080E02A960FB6F894DEBF0FBECDBFE1
:1057A000DF91CF911F910F91FF90EF90DF900895BF
:1057B0008F929F92AF92BF92CF92DF92EF92FF9221
:1057C0000F931F93CF93DF93CDB7DEB72E970FB60E
:1057D000F894DEBF0FBECDBF7C016B015A014901B9
:1057E000FC0125853685478550892F5F3F4F4F4FF8
:1057F0005F4F258736874787508BBC01CE010996BE
:105800000E94D12DF70181A1882339F09401A501CF
:10581000B601C7010E94ED2A30C0F70140855185CD
:1058200062857385CE0101960E94AF2FA7014B5E62
:105830005F4FBE016F5F7F4FC7010E94462B8111F2
:105840001CC0689486F8F701128B018B948A838AB6
:10585000878D8F5F87FD81E0F701878F9401A50118
:10586000B601C7010E94ED2A40E0BE016F5F7F4F85
:10587000C7010E948F2B882389F386E0FE013996A9
:10588000DE01119601900D928A95E1F729813A8106
:105890004B815C816D817E8180E090E02E960FB619
:1058A000F894DEBF0FBECDBFDF91CF911F910F9156
:1058B000FF90EF90DF90CF90BF90AF909F908F9030
:1058C00008958F929F92AF92BF92CF92DF92EF9204
:1058D000FF920F931F93CF93DF93CDB7DEB7AA97B5
:1058E0000FB6F894DEBF0FBECDBF4C01CE010196BE
:1058F0002FA338A749A75AA76EA30E94E52C6EA133
:10590000CE0101960E94E92C2FA138A549A55AA5E0
:10591000BA01A901CE0101960E940D2DF7FC0BC022
:10592000602FCE0101960E94E92CB701A601CE019D
:1059300001960E940D2D01E010E09501AE014F5F30
:105940005F4F64E270E0C4010E94D82B80E090E0D9
:10595000AA960FB6F894DEBF0FBECDBFDF91CF91F0
:105960001F910F91FF90EF90DF90CF90BF90AF907D
:105970009F908F900895AF92BF92CF92DF92EF9257
:10598000FF920F931F93CF93DF9300D000D0CDB73A
:10599000DEB757016801790102E09A01AB0161E0CD
:1059A0000E94612C80E090E026960FB6F894DEBF4E
:1059B0000FBECDBFDF91CF911F910F91FF90EF9060
:1059C000DF90CF90BF90AF900895FC0113821282B8
:1059D0000895FC0122813381A9014F5F5F4F5383FA
:1059E0004283E20FF31F64830895CF93DF93FB019B
:1059F000460F571FE417F50769F0A191EC012A81C2
:105A00003B81B9016F5F7F4F7B836A83C20FD31FD6
:105A1000AC83F0CFDF91CF9108950F931F93413066
:105A20005105610520EE72077CF08A019B0101158A
:105A30001105210540E2340724F00FEF1FEF2FEF8F
:105A40003FE137FF12C004C001E010E020E030EE7B
:105A500030952095109501951F4F2F4F3F4F000F08
:105A6000111F221F331F016004C0000F111F221FCE
:105A7000331FFC0142815381702F7F730034110565
:105A80002105310510F060E401C060E04F5F5F4F19
:105A9000FC01E40FF51F672B638366E036952795BD
:105AA000179507956A95D1F701151105210531055F
:105AB00019F7FC01538342831F910F910895EF92D0
:105AC000FF920F931F93CF93DF93EC016883498379
:105AD0000A83F901DC011396C901800F911FE817B1
