:100000000C943B040C94EA3B0C941B3C0C944C3C2D
:100010000C947D3C0C94AE3C0C94DF3C0C94103D55
:100020000C94413D0C946C040C946C040C946C0482
:100030000C946C040C946C040C946C040C94EE31D1
:100040000C946C040C946C040C946C040C946C0470
:100050000C946C040C946C040C946C040C94843D0F
:100060000C946C040C9463360C9499360C946C04C8
:100070000C946C040C946C040C946C040C946C0440
:100080000C946C040C946C040C946C040C946C0430
:100090000C9410370C9446370C946C040C946C043C
:1000A0000C946C040C946C040C946C040C946C0410
:1000B0000C946C040C946C040C9471330C94E0322A
:1000C0000C94D3330C946C040C946C040C94BD37D6
:1000D0000C94F3370C946C040C946A380C94A0388C
:1000E0000C946C04C43B8E3B963BA23BAF3BD03B95
:1000F000DD3BC53EC83EB73EBB3EC13EFF3ECC3EAB
:10010000D03ED63EDA3EDE3EE43EE83EEC3EFF3EEA
:10011000F23EF63EFA3E084AD73B3BCE016E84BC27
:10012000BFFDC12F3D6C74319ABD56833DDA3D0051
:10013000C77F11BED9E4BB4C3E916BAAAABE00009A
:1001400000803F05A84CCDB2D44EB93836A9020C78
:1001500050B9918688083CA6AAAA2ABE0000008051
:100160003F000C94D4380C94DE3E0C9446160C944C
:10017000282A0C94E43E0C9474040C94A8340C9437
:100180006E040C94C13E0C9417390C9409120C9413
:10019000EC110C94D63E0C94632A0C94CD360C943E
:1001A00084090C94E4290C94EB290C94963B0C9450
:1001B00048320C948E3B0C94C91B0C94DA3E0C9480
:1001C000AE150C947B210C948D350C94EC3E0C9464
:1001D000C43B0C9494340C94F23E0C94A23B0C94CB
:1001E000B4050C9439320C9423320C94EA150C9417
:1001F000DD160C94C31B0C941D380C9410160C9433
:1002000070090C94592A0C94D03E0C94FE1A0C944C
:10021000CA380C945E2A0C94FA3E0C947A370C94EB
:1002200005120C94C53E0C94C83E0C9428350C94D1
:1002300079340C94AF3B0C9463170C94CC3E0C9423
:10024000D03B0C94FF3E0C94AE050C94E83E0C940D
:10025000D21B0C945D170C94F63E0C94C3360C9490
:1002600070370C94B73E0C94BB3E0C94CB1B0C9493
:1002700006350C9486340C9449170C94DD3B0C9491
:10028000BB210C942738496E6974206175746F70B6
:10029000696C6F7420636F6D706C65746500496E76
:1002A0006974206175746F70696C6F742E2E73653C
:1002B00074206C696D6974732E2E00496E69742008
:1002C0006175746F70696C6F742E2E7374617274C3
:1002D000205049442E2E00496E6974206175746F58
:1002E00070696C6F742E2E002C002C4C4C333A002D
:1002F0002C4C55333A002C4C4C323A002C4C553295
:100300003A002C4C4C313A002C4C55313A002C53CD
:10031000544B3A002C5342333A002C5342323A00A9
:100320002C5342313A002C5342303A002C47505360
:100330003A002C575A4A3A005549443A4D454741EC
:100340002C4150583A0021215645523A312E392C31
:10035000002C002C57534B3A002C5753583A002C82
:100360004141443A002C4141453A002C41414E3A2A
:10037000002C4141523A002C4141583A002C415046
:10038000523A002C4150433A002C4150543A002C30
:100390004150533A005549443A4D4547412C41504C
:1003A000583A0021215645523A312E392C005365D6
:1003B00074757020636F6D706C6574652E2E0053BC
:1003C000746172742074696D65722E2E00537461AD
:1003D00072742077696E642E2E00537461727420DB
:1003E0006E6D6561205478202D206F6E2070696ECF
:1003F000732034362054782C2034382052782061F1
:100400007420005374617274206E6D65612054789D
:100410002E2E005374617274206E6D6561205278C7
:10042000202D2073657269616C3420617420004353
:10043000535F50494E204F5554505554203D20484D
:100440004947480043535F50494E207365742074F8
:100450006F204F555450555400537461727420539B
:1004600050492075617274732E2E0053746172743A
:10047000206E6D6561205278202D20736572696150
:100480006C3320617420005374617274206E6D654A
:1004900061205278202D2073657269616C32206171
:1004A00074200053746172742073656174616C6BA5
:1004B000202D2073657269616C322061742034389C
:1004C00030300053746172742047505320527820AA
:1004D0002D2073657269616C312061742000496E52
:1004E000697469616C697A696E672E2E0024504DBB
:1004F000544B3235312C0024504D544B3331342C75
:10050000302C312C302C312C312C312C302C302C07
:10051000302C302C302C302C302C302C302C302CFB
:10052000302C302C302A32380024504D544B32328B
:10053000302C313030302A31460053657474696E86
:10054000672047505320746F204D54454B5F333321
:100550003239002C382C312C302A0024505352468A
:100560003130302C312C0024505352463130352C50
:10057000302A33460024505352463130332C303425
:100580002C30302C30312C30312A32310024505371
:1005900052463130332C30332C30302C32302C302A
:1005A000312A32350024505352463130332C303208
:1005B0002C30302C30352C30312A3233002450533B
:1005C00052463130332C30302C30302C30352C30FA
:1005D000312A32310024505352463130332C3031DD
:1005E0002C30302C30302C30312A3235002450530E
:1005F00052463130332C30352C30302C30302C30CA
:10060000312A32310024505352463130352C312AB0
:1006100033450053657474696E67204750532074E6
:100620006F20454D5F343036410053657474696EF8
:10063000672047505320746F2047454E4552494329
:100640000053657474696E672047505320636F6E62
:100650006669672E2E2E0020202064656661756C09
:100660007420746F20343830302E2E004641494CAF
:100670004544004F4B206174200020202074727983
:10068000206175746F62617564202E2E2000202019
:1006900064657465637465642070756C736520723D
:1006A000617465203D20002C542A002448434844AE
:1006B000542C002C4E2C412A002E302C522C00247D
:1006C00057494D57562C0053504920696E69742084
:1006D000636F6D706C6574650053504920554152CD
:1006E00054207265736574005350492073746172AD
:1006F000746564004D756C746953657269616C3A18
:100700003A626567696E0000000A0B02090C0D0E63
:1007100008070304010000000000000000000000C2
:1007200000000000000000000000000000000000C9
:100730000000001211100000000000000000000086
:100740000000000000000000000000000001021096
:1007500020200808102040102040800201020108DB
:10076000040201010204081020408080402010088B
:1007700004020180040201804020100804020108E4
:100780000402010102040810204080010204081044
:100790002040800505050507050808080802020233
:1007A000020A0A080804040404010101010101010C
:1007B000010303030303030303040707070C0C0CE3
:1007C0000C0C0C0C0C0202020206060606060606BB
:1007D000060B0B0B0B0B0B0B0B0000200023002652
:1007E0000029002C002F0032000001000003010648
:1007F00001090100002200250028002B002E0031F5
:1008000000340002010000050108010B0100002175
:1008100000240027002A002D0030003300010100D1
:1008200000040107010A014E414E494E49545949FD
:100830004E46CDCCCC3D0AD7233C17B7D13877CC28
:100840002B329595E6241FB14F0A0000204100008D
:10085000C84200401C4620BCBE4CCA1B0E5AAEC546
:100860009D747009DD16FE1A7B21CD367A37273844
:10087000D4388409491711241FBECFEFD1E2DEBF5F
:10088000CDBF00E00CBF14E0A0E0B2E0E2EBFFE877
:1008900000E00BBF02C007900D92A43CB107D9F74E
:1008A0002FE0A4ECB4E001C01D92A339B207E1F738
:1008B00018E0C2E7D8E000E006C022970109FE0177
:1008C0000BBF0E941644C236D10780E00807A9F783
:1008D0000E94733D0C94C7470C9400002DE032E059
:1008E000FC013183208308952DE032E0FC01318347
:1008F00020830C94823DFC01CB012DE032E031835A
:10090000208373836283148240E050E0BA010E9426
:10091000F50F61E088E10E94003F61E08AE10E94FA
:10092000003F61E08CE10E94003F61E08EE10E94A7
:10093000003F60E082E40C94003FCF92DF92EF92A0
:10094000FF92CF93DF93EC018A819B810E943C113F
:10095000882389F08A819B810E94B90D6B017C01FB
:100960000E94CE3D21E0C616D706E806F90608F03B
:1009700020E0822F01C080E0DF91CF91FF90EF90C7
:10098000DF90CF900895CF92DF92EF92FF92CF93B6
:10099000DF93EC010E949D048823A9F10E94CE3DC3
:1009A0006B017C018A819B810E94B30DC61AD70A14
:1009B000E80AF90A89EEC81683E0D806E104F104D2
:1009C000C0F16C8188E10E94393F6C818AE10E940C
:1009D000393F6C818CE10E94393F6C818EE10E942D
:1009E000393F8C8191E089278C830E94CE3DAB01F9
:1009F000BC018A819B81DF91CF91FF90EF90DF90C6
:100A0000CF900C94F50F60E088E10E94393F60E0E0
:100A10008AE10E94393F60E08CE10E94393F60E04A
:100A20008EE1DF91CF91FF90EF90DF90CF900C940B
:100A3000393FDF91CF91FF90EF90DF90CF900895F5
:100A4000CF92DF92EF92FF92CF93DF93EC018A81F6
:100A50009B810E94F00F882311F18A819B810E9463
:100A6000C40F18161906DCF48A819B810E94D00FEE
:100A70006B017C018A819B810E94C40FBC01882785
:100A800077FD8095982F0E945E419B01AC01C701C4
:100A9000B6010E94BF42181614F461E001C060E084
:100AA0008A819B81DF91CF91FF90EF90DF90CF9073
:100AB0000C9479110F931F93CF93DF93EC0180E493
:100AC0000E94873E8C018A819B810E94940F0817A7
:100AD00019074CF08A819B810E94880F801791072B
:100AE00014F060E001C061E08A819B810E94E21005
:100AF00081E40E94873E8C018A819B810E94A60F1F
:100B0000081719073CF08A819B810E949A0F801771
:100B1000910714F461E001C060E08A819B810E942A
:100B2000F11082E40E94873E8C018A819B810E94A1
:100B3000B80F081719073CF08A819B810E94AC0FFF
:100B40008017910714F461E001C060E08A819B8105
:100B5000DF91CF911F910F910C94001125E132E0AC
:100B6000FC0131832083089525E132E0FC013183CB
:100B700020830C94823D2F923F924F925F926F920E
:100B80007F928F929F92AF92BF92CF92DF92EF921D
:100B9000FF920F931F93CF93DF93CDB7DEB72897C4
:100BA0000FB6F894DEBF0FBECDBF1C016A017B01FA
:100BB00009831A832B833C83FC01828193810E94E9
:100BC000EF0D9B01AC01C701B6010E94F63F2B015E
:100BD0003C01F101828193810E94EF0D9B01AC01E8
:100BE000C701B6010E94F53F4B015C01F101828112
:100BF00093810E94EF0D9B01AC0169817A818B8109
:100C00009C810E94F63F6B017C01F10182819381FE
:100C10000E94EF0D9B01AC0169817A818B819C81DF
:100C20000E94F53F69837A838B839C83F1018281E3
:100C300093810E94F50D6D837E838F83988724E8CE
:100C40003AEB4CE358E3C301B2010E94F53F2D811A
:100C50003E814F8158850E94BF4218166CF4F10105
:100C6000828193810E94E10D9B01AC01C301B2011D
:100C70000E94BC4087FD8CC0F101828193810E945B
:100C8000E10D2B013C0124E83AEB4CE358E3C501AC
:100C9000B4010E94F63FA30192010E94BC4087FF6D
:100CA0000EC0F101828193810E94F50D9B01AC0180
:100CB000C501B4010E94BF4218160CF471C0F101C5
:100CC000828193810E94FB0D4B015C0124E83AEB89
:100CD0004CE358E3C701B6010E94F53FA50194011A
:100CE0000E94BF4218166CF4F101828193810E9428
:100CF000C50D9B01AC01C701B6010E94BC4087FD38
:100D000057C0F101828193810E94C50D6B017C0166
:100D100024E83AEB4CE358E369817A818B819C812A
:100D20000E94F63FA70196010E94BC4087FF48C081
:100D3000F101828193810E94FB0D9B01AC016981CD
:100D40007A818B819C810E94BF421816CCF5498123
:100D50005A816B817C81F1018281938128960FB643
:100D6000F894DEBF0FBECDBFDF91CF911F910F91E1
:100D7000FF90EF90DF90CF90BF90AF909F908F90BB
:100D80007F906F905F904F903F902F900C94451004
:100D9000B301A201F101828193810E942B106CCFDB
:100DA000B501A401F101828193810E943F1087CF98
:100DB000B701A601F101828193810E940F10A1CF9A
:100DC00028960FB6F894DEBF0FBECDBFDF91CF914E
:100DD0001F910F91FF90EF90DF90CF90BF90AF9059
:100DE0009F908F907F906F905F904F903F902F904B
:100DF00008958F929F92AF92BF92CF92DF92EF921F
:100E0000FF920F931F93CF93DF93EC016A017B0155
:100E10004801590140E050E064EB72E48A819B8113
:100E20000E942B1040E050E064EB72EC8A819B81C1
:100E30000E943F1040E050E064E373E48A819B81AC
:100E40000E940F1040E050E064E373EC8A819B81C4
:100E50000E9445108A819B810E94E70D2DE93BEF9E
:100E600046E157E30E94CA42AB01BC018A819B81E3
:100E70000E94391095018401B701A601CE010E949C
:100E8000BB05DF91CF911F910F91FF90EF90DF9005
:100E9000CF90BF90AF909F908F900895CF92DF92A8
:100EA000EF92FF920F931F93CF93DF93EC018B018F
:100EB00085E192E0998388837B836A83CB010E94DA
:100EC000D30D6B017C01C8010E94CB0DAB01BC01AD
:100ED00097018601CE010E94F906DF91CF911F9103
:100EE0000F91FF90EF90DF90CF9008954F925F9217
:100EF0006F927F928F929F92AF92BF92CF92DF922A
:100F0000EF92FF920F931F93CF93DF9300D01F9226
:100F1000CDB7DEB74C01FC01828193810E94E60FC0
:100F2000882309F4D2C00E94CE3D2B013C01F4017C
:100F3000828193810E94570F461A570A680A790ADC
:100F4000F1EE4F16F3E95F06F4E06F06710438F036
:100F5000F401828193810E94E60F81118DC0F4011A
:100F6000828193810E94770F882309F4AEC0F40137
:100F7000828193810E94670F5B016C01F401828181
:100F800093810E945F0F2B013C01F40182819381C8
:100F90000E94D30D9B01AC01F401828193812983CE
:100FA0003A834B835C830E94CB0D830172012981BC
:100FB0003A814B815C810E947918AB01BC01F4013C
:100FC000828193810E940910F401828193810E94A1
:100FD000BF0D2B013C01F401828193810E94DB0D46
:100FE0009B01AC01C301B2010E94BF42181664F418
:100FF000F401828193810E94BF0DAB01BC01F40119
:10100000828193810E942510F401828193810E9444
:10101000670F2B013C01F401828193810E945F0FD5
:10102000AB01BC0193018201C4010E94BB05F40124
:10103000828193810E94E60F882369F1F401828105
:1010400093810E94BF0D2B013C01F40182819381A9
:101050000E94E70D9B01AC01C301B2010E94BF4297
:101060001816CCF440E050E0BA01F401828193817B
:101070000E94FB0F61E010C040E050E0BA01F401B3
:10108000828193810E94FB0F61E0F4018281938150
:101090000E94061064CF60E0F401828193810F907A
:1010A0000F900F900F90DF91CF911F910F91FF90B4
:1010B000EF90DF90CF90BF90AF909F908F907F90F8
:1010C0006F905F904F900C9406100F900F900F90C0
:1010D0000F90DF91CF911F910F91FF90EF90DF90D4
:1010E000CF90BF90AF909F908F907F906F905F90C8
:1010F0004F900895CF93DF93EC018A819B810E94EA
:101100005F0FAB01BC018A819B810E9415108A810F
:101110009B810E94670FAB01BC018A819B810E9469
:101120001D1040E050E0BA018A819B81DF91CF9190
:101130000C9425100F931F93CF93DF93EC018B0139
:1011400081960E94E22118A30F8FDF91CF911F910A
:101150000F9108958F929F92AF92BF92CF92DF929C
:10116000EF92FF920F931F93CF93DF93CDB7DEB72C
:10117000E7970FB6F894DEBF0FBECDBF4C01FC0160
:10118000168E158E148E138E67ED72E080E09DE052
:101190000E949739F401878D90A10E94DA11AB016A
:1011A000BC018DE095E00E94112B64E670E080E0C8
:1011B00090E00E94FD3DF401878D90A10E94070EF2
:1011C00020E030E044E354E40E94F63F6B017C01F0
:1011D000F4016083718382839383878D90A10E9441
:1011E000020F9B01AC01C701B6010E94F63FF4015A
:1011F0006483758386839783878D90A10E94010EF7
:10120000F401608771878287938711E0108B6BEB05
:1012100072E080E09DE00E949739A401485F5F4F33
:10122000B4016C5F7F4F1F921F938FE38F9385E014
:101230008F938EE18F9388EB8F938AE0A82E87EDB2
:10124000B82E83EAC82E8DE3D82E16E6E12EFE2CAA
:1012500006EE1EE39401CE0101960E94182587E355
:10126000FE013196D401919601900D928A95E1F795
:101270006EE972E080E09DE00E949739F1E28F0E06
:10128000911C00E010E024E832E440E050E0BA01B4
:10129000C4010E94002464E670E0C4010E94B823E7
:1012A00066E872E080E09DE00E9497390F900F9011
:1012B0000F900F900F900F90E7960FB6F894DEBF47
:1012C0000FBECDBFDF91CF911F910F91FF90EF9097
:1012D000DF90CF90BF90AF909F908F90089508952A
:1012E00040E063E48DE095E00E949F296DE075E0A9
:1012F00088EE94E00E94EC2F20E841E368EE74E071
:1013000086EC94E00C94682B86EC94E00C94A82B6B
:101310000F931F93CF93DF93EC018C010F5E1F4F50
:101320008DE095E00E945E2A892B21F18DE095E009
:101330000E94592A2D8D3E8DFE01E20FF31F818BF5
:101340002F5F3F4F3E8F2D8F8A3029F08D3019F05F
:10135000213331052CF3FE01E20FF31F118AB8018E
:1013600080E09DE00E94A9391E8E1D8EF801118239
:101370001082D6CFDF91CF911F910F9108954F9298
:101380005F926F927F92AF92BF92CF92DF92EF9275
:10139000FF920F931F93CF93DF9300D000D0CDB770
:1013A000DEB75C01FC01878D90A10E94631185016D
:1013B0000F5D1F4F882309F4DEC0C5010E94880914
:1013C00061E070E0C8010E94C624F501878D90A1FC
:1013D0000E94070E20E030E044E354E40E94F63F10
:1013E0006B017C01F5016083718382839383878D18
:1013F00090A10E94020F9B01AC01C701B6010E949F
:10140000F63FF5016483758386839783C8010E9444
:10141000E321F501248535854685578560857185ED
:10142000828593850E94F53F6B017C0120E030E0CE
:10143000A9010E94BF42181624F0F7FAF094F7F8B9
:10144000F094F501878D90A10E94430FBC0188277D
:1014500077FD8095982F0E945E419B01AC01C701EA
:10146000B6010E94BF4218160CF09EC0F50180899B
:10147000078D10A1C084D184E284F3844484558410
:1014800066847784A3019201882309F1C701B6011C
:101490000E94BF4218160CF1A3019201C701B601C8
:1014A0000E94BC4087FF3FC0F501108AC8010E941E
:1014B000490FBC01882777FD8095982F0E945E41D7
:1014C0009B01AC01C701B6010E94F53F27C0C701CF
:1014D000B6010E94BC4087FF06C0F501C486D586D0
:1014E000E686F78620C0A3019201C701B6010E94DB
:1014F000BF421816C4F481E0F501808BC8010E9438
:10150000490FBC01882777FD8095982F0E945E4186
:101510009B01AC01C701B6010E94F63FF50164874B
:10152000758786879787F501448555856685778514
:10153000878D90A10E947A10F501878D90A10E945D
:101540004F0F2B013C0120E030E048EC52E4F50164
:1015500064857585868597850E94CA420E942B41C5
:10156000AB01BC01E12CF12C9301820186EC94E0EB
:101570000E94272E19C060E070E0C80126960FB6C1
:10158000F894DEBF0FBECDBFDF91CF911F910F91B9
:10159000FF90EF90DF90CF90BF90AF907F906F90D3
:1015A0005F904F900C94C62426960FB6F894DEBF39
:1015B0000FBECDBFDF91CF911F910F91FF90EF90A4
:1015C000DF90CF90BF90AF907F906F905F904F90E3
:1015D0000895FC01108211821282138214821582F6
:1015E00016821782108A118A128A138A148A158A1F
:1015F000168A178A108E118E128E138E148E40E06A
:1016000050E064EB72E4458F568F678F70A340E023
:1016100050E064EB72EC41A352A363A374A340E0D7
:1016200050E064E373E445A356A367A370A740E0CA
:1016300050E064E373EC41A752A763A774A715A613
:1016400083E482AB13AA14AA15AA16AA40E050E0BC
:1016500064E072E447AB50AF61AF72AF13AE40E0ED
:1016600050E068EC72E444AF55AF66AF77AFDF018E
:10167000A05CBF4F40E050E060E271E44D935D93A9
:101680006D937C93139714964D935D936D937C9318
:101690001397149640E850E060E070E04D935D933E
:1016A0006D937C9313971086118612861386148689
:1016B00015861686178614961C9211961D921D92F9
:1016C0001D921C92139714961D921D921D921C92AE
:1016D0001397149686E58C9311961D921D921D9278
:1016E0001C92139714961D921D921D921C92139793
:1016F00014961D921D921D921C92139714961D9282
:101700001D921D921C92139714961C9211961C9276
:1017100011961C9211961C92A55ABF4F21E034E0FD
:1017200011963C932E9312968FEF9FEF11969C93F8
:101730008E93AC55B1091C92A25ABF4F11963C939F
:101740002E93129611969C938E93AF55B1091C92CD
:10175000AF59BF4F11963C932E93129611969C93BE
:101760008E93A256B1091D921D921D921C92139741
:1017700014961D921D921D921C9213971496119609
:101780001C921E92129611961C921E9212961196FF
:101790001C921E9212961C9211961D921D921D92E1
:1017A0001C92139714961D921D921D921C921397D2
:1017B000149640E050E060E272E44D935D936D93C7
:1017C0007C93139714961C9211961C921196119665
:1017D0001C921E92129611961C921E92169640E032
:1017E00050E060E87FE34D935D936D937C93139796
:1017F00014961C92119640EE53E964E070E04D930C
:101800005D936D937C93139714961C9211961C9282
:10181000119683E690E011969C938E9312961C92FB
:10182000119640E050E46CE176E44D935D936D9346
:101830007C931397149611961C921E92129681E037
:1018400090E011969C938E93129640E056E960E0EA
:1018500070E04D935D936D937C93139714964D9325
:101860005D936D937C931397149640E855E260E086
:1018700070E04D935D936D937C93139714964D9305
:101880005D936D937C93139714964D935D936D9335
:101890007C93139718964D935D936D937C93139758
:1018A00014961C92E053FF4F8DE090E0918380836B
:1018B00008950F931F93CF93DF938C01EB0166E4A0
:1018C00073E0CE010E94553968E373E0CE010E94B7
:1018D000553962E373E0CE010E945539F801ED55A8
:1018E000FF4F608171814AE050E0CE010E945E3A74
:1018F0006CE273E0CE010E945539F801EB55FF4FC1
:10190000608171814AE050E0CE010E945E3A66E259
:1019100073E0CE010E945539F801E955FF4F40812F
:101920005181628173812AE030E0CE010E94143A35
:1019300060E273E0CE010E945539F801E555FF4F92
:1019400040815181628173812AE030E0CE010E94A2
:10195000143A6AE173E0CE010E945539F801E1556D
:10196000FF4F40815181628173812AE030E0CE01D6
:101970000E94143A64E173E0CE010E945539F801E7
:10198000ED54FF4F40815181628173812AE030E044
:10199000CE010E94143A6EE073E0CE010E945539E8
:1019A000F801ED53FF4F608170E04AE050E0CE0156
:1019B0000E945E3A68E073E0CE010E945539F8015A
:1019C000EC53FF4F608171814AE050E0CE010E94EC
:1019D0005E3A62E073E0CE010E945539F801EA53A5
:1019E000FF4F608171814AE050E0CE010E945E3A73
:1019F0006CEF72E0CE010E945539F801E853FF4FB9
:101A0000608171814AE050E0CE010E945E3A66EF4B
:101A100072E0CE010E945539F801E653FF4F608114
:101A200071814AE050E0CE010E945E3A60EF72E0C0
:101A3000CE010E945539F801E453FF4F6081718156
:101A40004AE050E0CE010E945E3A6AEE72E0CE01BA
:101A50000E945539F801E253FF4F608171814AE0DD
:101A600050E0CE010E945E3A68EE72E0CE010E9424
:101A7000973980E090E0DF91CF911F910F91089509
:101A80000F931F93CF93DF93EC01FC01E053FF4FC3
:101A9000408160E070E08EE39CE00E941F32FE0116
:101AA000EF52FF4F408161E070E08EE39CE00E94C6
:101AB0001F32C558DF4F64E070E049918B010F5F22
:101AC0001F4F8EE39CE00E941F320935110511F073
:101AD000B801F3CFDF91CF911F910F910895EF924D
:101AE000FF920F931F93CF93DF931F921F92CDB757
:101AF000DEB78C0160E070E08EE39CE00E941C3257
:101B0000898361E070E08EE39CE00E941C328A834E
:101B1000F801E053FF4F29813A8180819181281794
:101B2000390719F0C8010E94400D05581F4F64E0A5
:101B300070E07B018FEFE81AF80A8EE39CE00E94C8
:101B40001C32F80181938F01F9E5EF16F10411F0D1
:101B5000B701EFCF0F900F90DF91CF911F910F91B1
:101B6000FF90EF900895FC016081718182819381E3
:101B70000895FC0164817581868197810895FC0137
:101B800064897589868997890895FC0165A176A184
:101B900087A190A5089585589F4FFC0160817181B0
:101BA00082819381089581589F4FFC0160817181EA
:101BB000828193810895FC01608D718D828D938D5A
:101BC0000895FC01658D768D878D90A108958D57C0
:101BD0009F4FFC0160817181828193810895FC0196
:101BE00060897189828993890895FC0161A172A13C
:101BF00083A194A10895FC0161A572A583A594A574
:101C00000895FC0167A970AD81AD92AD0895FC0106
:101C100063A974A985A996A90895FC0122A927356D
:101C200059F4EA58FF4F60817181882777FD8095CC
:101C3000982F0E945E410895FC0160857185828520
:101C400093850895EF92FF920F931F93CF93DF93A5
:101C50008C01EB0163EA73E0CE010E94553965E91E
:101C600073E0CE010E945539F80165A570E04AE0A5
:101C700050E0CE010E945E3A6FE873E0CE010E9410
:101C80005539F80162A9CE010E947C39F80185A579
:101C90008823A9F169E873E0CE010E945539F80163
:101CA00043A954A965A976A922E030E0CE010E949B
:101CB000773B63E873E0CE010E945539C8010E946A
:101CC0000D0EAB01BC0122E030E0CE010E94773B5B
:101CD0006DE773E0CE010E94553920E030E044E02A
:101CE00052E4F80167A970AD81AD92AD0E94F53F55
:101CF000AB01BC0122E030E0CE010E94773B67E7F8
:101D000073E0CE010E9455397801F7E8EF0EF11C1F
:101D1000F701608170E04AE050E0CE010E945E3A37
:101D200061E773E0CE010E945539F801ED57FF4F8E
:101D3000408151816281738122E030E0CE010E94B6
:101D4000773BF7018081882389F16BE673E0CE0150
:101D50000E945539F801E558FF4F40815181628159
:101D6000738122E030E0CE010E94773B65E673E0AC
:101D7000CE010E945539F801E158FF4F4081518151
:101D80006281738122E030E0CE010E94773B6FE5F3
:101D900073E0CE010E945539F8014489558966895E
:101DA000778922E030E0CE010E94773B69E573E05D
:101DB000CE010E945539F801E256FF4F608170E074
:101DC0004AE050E0CE010E945E3A63E573E0CE0146
:101DD0000E945539F801E456FF4F608171814AE055
:101DE00050E0CE010E945E3A61E573E0CE010E94B0
:101DF000973980E090E0DF91CF911F910F91FF9094
:101E0000EF900895CF92DF92EF92FF92CF93DF93FE
:101E1000EC010E940D0E9B01AC016BA97CA98DA960
:101E20009EA90E94F53F6B017C0120E030E044E375
:101E300053E40E94BF4218167CF020E030E044E3F7
:101E400053ECC701B6010E94BC4087FF0AC020E0E6
:101E500030E044EB53E408C020E030E044EB53ECC6
:101E600003C020E030E0A901C701B6010E94F63F9F
:101E70006EA77FA788AB99ABDF91CF91FF90EF90D2
:101E8000DF90CF90089587579F4FFC01808191810B
:101E9000089585579F4FFC01808191810895835754
:101EA0009F4FFC0160817181828193810895835BE2
:101EB0009F4FFC01608171818281938108958A5ACC
:101EC0009F4FFC0160817181828193810895865AC0
:101ED0009F4FFC01608171818281938108958F56AB
:101EE0009F4FFC01608171818281938108958B5A9B
:101EF0009F4FFC0180810895FC016085718582857A
:101F000093850895FC016485758586859785089578
:101F10008C539F4FFC018081918108958C539F4F7A
:101F2000FC017183608308958A539F4FFC01808177
:101F30009181089588539F4FFC018081918108957C
:101F400088539F4FFC0171836083089586539F4F90
:101F5000FC0180819181089584539F4FFC01808111
:101F60009181089584539F4FFC017183608308958C
:101F700082539F4FFC018081918108958D559F4F21
:101F8000FC0180819181089584569F4FFC018081DE
:101F9000918108958A589F4FFC0180819181089515
:101FA00080599F4FFC0160817181828193810895E6
:101FB00081569F4FFC0160817181828193810895D8
:101FC0008C589F4FFC0180819181089589579F4FC4
:101FD000FC0180810895845B9F4FFC0180810895FE
:101FE00082569F4FFC0180810895FC0140835183FC
:101FF000628373830895FC014483558366837783EA
:10200000089589579F4FFC0160830895FC01648FF8
:102010000895FC01448B558B668B778B0895FC01EA
:1020200045A356A367A370A7089585589F4FFC0149
:102030004083518362837383089581589F4FFC01CD
:1020400040835183628373830895FC01408F518FD5
:10205000628F738F0895FC01458F568F678F70A331
:1020600008958D579F4FFC01408351836283738392
:102070000895FC01408B518B628B738B0895FC019A
:1020800041A352A363A374A30895FC0141A752A7DF
:1020900063A774A70895CF93DF93EC01673511F020
:1020A000633429F56AAB673581F4FE01EA58FF4FC6
:1020B00060817181882777FD8095982F0E945E410D
:1020C0006BAB7CAB8DAB9EAB0AC0633441F44885EF
:1020D00059856A857B854BAB5CAB6DAB7EAB40E0D5
:1020E00050E064E072E44FAB58AF69AF7AAFDF9174
:1020F000CF910895FC0147AB50AF61AF72AF089527
:10210000CF93DF93EC01CB01BA010E942B41CB01AD
:1021100088599E4F68E671E00E94B043BC01882751
:1021200077FD8095982F0E945E416BAB7CAB8DABA9
:102130009EABDF91CF9108958E599F4FFC01408354
:102140005183628373830895845B9F4FFC01608396
:102150000895835B9F4FFC014083518362837383A7
:1021600008958A5A9F4FFC01408351836283738391
:102170000895865A9F4FFC01408351836283738385
:102180000895825A9F4FFC01408351836283738379
:1021900008958B5A9F4FFC01608308958F5A9F4F7B
:1021A000FC0140835183628373830895FC0140875F
:1021B0005187628773870895FC0144875587668736
:1021C00077870895CF93DF931F92CDB7DEB76983EA
:1021D000298187599F4FFC0120830F90DF91CF9178
:1021E0000895CF93DF931F92CDB7DEB7698329811E
:1021F00086599F4FFC0120830F90DF91CF91089566
:10220000CF93DF931F92CDB7DEB7698329818559BC
:102210009F4FFC0120830F90DF91CF9108958D5542
:102220009F4FFC0171836083089582569F4FFC018C
:102230006083089584569F4FFC01718360830895E5
:102240008A589F4FFC0171836083089588589F4F7F
:10225000FC0171836083089580599F4FFC01408386
:10226000518362837383089584599F4FFC01408397
:102270005183628373830895FC01E658FF4F2081E8
:102280002223F9F0739720812223D9F031972081FE
:102290002223B9F0FC01248D222399F023AD2223BF
:1022A00081F0E859FF4F2081222359F03196208197
:1022B000222339F031962081222319F03196808132
:1022C000089580E00895FC0185A508951F93CF939C
:1022D000DF93EC01162F6AA90E944B101DA7DF9116
:1022E000CF911F9108958C589F4FFC01718360839B
:1022F000089586589F4FFC01608308958B559F4F2A
:10230000FC018081918108958B559F4FFC01718361
:102310006083089589559F4FFC016081718182819E
:102320009381089589559F4FFC01408351836283B7
:102330007383089585559F4FFC016081718182816F
:102340009381089585559F4FFC014083518362839B
:102350007383089581559F4FFC0160817181828153
:102360009381089581559F4FFC014083518362837F
:10237000738308958D549F4FFC0160817181828128
:10238000938108958D549F4FFC0140835183628354
:102390007383089589549F4FFC016081718182810C
:1023A0009381089585549F4FFC01608171818281E2
:1023B0009381089581549F4FFC01608171818281D6
:1023C000938108958D539F4FFC01808108958D5313
:1023D0009F4FFC016083089581E08093C40B80913E
:1023E000C20B9091C30B01969093C30B8093C20BC9
:1023F0008091C20B9091C30B64E170E00E94B043E6
:102400009093C30B8093C20B08958FE096E00C94D9
:10241000631E8FE096E00C949F1E80EF9AE00E946E
:102420006F0D80EF9AE00E948A11AB01BC0126E09B
:1024300080E09DE00E94E5356EED74E080E09DE077
:102440000E94973989E096E00E94181B63EC74E0C3
:1024500080E09DE00E94553980EF9AE00E949A1139
:10246000AB01BC012AE030E080E09DE00E94663ACA
:1024700080EF9AE00E949A11AB01BC0126E08DE941
:102480009DE00E94E53580EF9AE00E94E2118823EA
:1024900061F063EA74E080E09DE00E94973927E0F4
:1024A00040EC52E160E070E019C067E874E080E061
:1024B0009DE00E94553980EF9AE00E94AA11AB017D
:1024C000BC012AE030E080E09DE00E94663A80EFA7
:1024D0009AE00E94AA11AB01BC0126E08AE39EE0CB
:1024E0000E94E5356BE674E080E09DE00E9455397E
:1024F00080EF9AE00E94BA11AB01BC012AE030E003
:1025000080E09DE00E94663A80EF9AE00E94BA1156
:10251000AB01BC0126E087ED9EE00E94E53569E550
:1025200074E080E09DE00E94973968EE73E080E0FF
:1025300090E00E94FD3D61E083E40E94003F64E47E
:1025400074E080E09DE00E94973964E670E080E0EE
:1025500090E00E94FD3D61E083E40E94393F6FE21C
:1025600074E080E09DE00E94973963E174E080E0D0
:102570009DE00E94553980EF9AE00E94CA11AB019C
:10258000BC012AE030E080E09DE00E94663A80EFE6
:102590009AE00E94CA11AB01BC018BEF95E00E944A
:1025A000112B64E670E080E090E00E94FD3D63E066
:1025B00074E080E09DE00E94973960E080E30E9433
:1025C000003F61E08EE20E94003F6AED73E080E030
:1025D0009DE00E94553980EF9AE00E94D211AB0134
:1025E000BC012AE030E080E09DE00E94663A80EF86
:1025F0009AE00E94D211AB01BC018FEA9AE00E94DE
:10260000E01B83EA95E00E94AA086DEC73E080E08D
:102610009DE00E94973960E083E00E94003F43E024
:1026200050E065E072E181E00E94793B60E082E089
:102630000E94003F43E050E069E072E180E00E94C8
:10264000793B6FEB73E080E09DE00E9497394CEEA0
:1026500051E164E670E080E090E00E9481310E94E8
:102660008D316EEA73E080E09DE00C9497396F92B3
:102670007F928F929F92AF92BF92CF92DF92EF9212
:10268000FF920F931F93CF93DF9300D01F921F925F
:10269000CDB7DEB7ADB6BEB66FE774E00E94AD450C
:1026A0007C01009709F428C2FC0101900020E9F7A1
:1026B0008F0101501109081B190B0430110508F492
:1026C0001BC2F701808198012450310969018DB640
:1026D0009EB6833209F0ADC144E050E0B701CE01AF
:1026E00001960E94CA451D82380135E0631A7108BF
:1026F0008DB79EB78C199D090FB6F8949EBF0FBE7B
:102700008DBF0DB71EB70F5F1F4FB7016B5F7F4FB8
:10271000A301C8010E94B145F801E60DF71D108222
:1027200069E172E0CE0101960E94BA45892BB1F4AD
:10273000C8010E94684561E0892B09F460E080EFE0
:102740009AE00E940110C8010E946845019709F0B3
:10275000CEC18FE995E00E947A08C9C16EE172E0AE
:10276000CE0101960E94BA45892BB1F480EF9AE020
:102770000E94E70D6B017C01C8010E9464459B012A
:10278000AC01C701B6010E94F63FAB01BC0180EF6E
:102790009AE00E943110ABC163E272E0CE01019673
:1027A0000E94BA45892B51F4C8010E946445AB01CF
:1027B000BC0180EF9AE00E94151099C168E272E0B6
:1027C000CE0101960E94BA45892B51F4C8010E949E
:1027D0006445AB01BC0180EF9AE00E941D1087C1E7
:1027E0006DE272E0CE0101960E94BA45892B61F438
:1027F000C8010E94684561E0892B09F460E080EF20
:102800009AE00E94661169C162E372E0CE0101960E
:102810000E94BA45892BC1F480EF9AE00E94070E0E
:102820006B017C01C8010E9486450E945E419B01AC
:10283000AC01C701B6010E94F63FAB01BC0180EFBD
:102840009AE00E94801049C167E372E0CE010196D0
:102850000E94BA45892B39F4F801608180EF9AE033
:102860000E944B103AC16CE372E0CE0101960E94C7
:10287000BA45892B61F4C8010E94684561E0892B43
:1028800009F460E080EF9AE00E94151130C161E424
:1028900072E0CE0101960E94BA45892B49F4C80125
:1028A0000E946845BC0180EF9AE00E941A111FC186
:1028B00066E472E0CE0101960E94BA45892B49F484
:1028C000C8010E946845BC0180EF9AE00E940F1188
:1028D0000EC16BE472E0CE0101960E94BA45892BCD
:1028E00049F4C8010E946845BC0180EF9AE00E944B
:1028F0008E0FFDC060E572E0CE0101960E94BA45E0
:10290000892B49F4C8010E946845BC0180EF9AE018
:102910000E94A00FECC065E572E0CE0101960E9416
:10292000BA45892B49F4C8010E946845BC0180EF73
:102930009AE00E94B20FDBC06AE572E0CE01019618
:102940000E94BA45892B39F460E07DE080EF9AE07F
:102950000E94590CC2C06FE572E0CE0101960E9440
:10296000BA45892B49F4C8010E946845BC0180EF33
:102970009AE00E948411BBC064E672E0CE01019629
:102980000E94BA45892B51F4C8010E948645AB01CB
:10299000BC0180EF9AE00E949211A9C069E672E042
:1029A000CE0101960E94BA45892B51F4C8010E94BC
:1029B0008645AB01BC0180EF9AE00E94A21197C04E
:1029C0006EE672E0CE0101960E94BA45892B51F461
:1029D000C8010E948645AB01BC0180EF9AE00E94CD
:1029E000B21185C063E772E0CE0101960E94BA453C
:1029F000892B51F4C8010E948645AB01BC0180EFD0
:102A00009AE00E94C21173C068E772E0CE0101969D
:102A10000E94BA45892B09F060C0C8010E94684530
:102A200061E0892B09F460E080EF9AE00E94E711F1
:102A30005EC043E050E0B701CE0101960E94CA4556
:102A40001C82035011092DB73EB7201B310B0FB666
:102A5000F8943EBF0FBE2DBF0DB71EB70F5F1F4FBF
:102A6000B7016C5F7F4FA601C8010E94B145F80114
:102A7000EC0DFD1D10826DE772E0CE0101960E9403
:102A8000BA45892B49F4C8010E946445AB01BC01D9
:102A900080EF9AE00E94D61061E872E0CE010196C4
:102AA0000E94BA45892B49F4C8010E946445AB01D4
:102AB000BC0180EF9AE00E94DC1065E872E0CE0174
:102AC00001960E94BA45892B41F4C8010E946845CD
:102AD000BC0180EF9AE00E9426110FB6F8949EBECA
:102AE0000FBE8DBE6FE774E080E090E0D7CD80EF41
:102AF0009AE00E94400DF1CF0FB6F894BEBE0FBE13
:102B0000ADBE0F900F900F900F900F90DF91CF916F
:102B10001F910F91FF90EF90DF90CF90BF90AF90FB
:102B20009F908F907F906F900895CF93DF93DC01FB
:102B3000FC0101900020E9F7E81BF90B3297EC014A
:102B4000219680E09E012A1B3B0B2E173F0718F4AD
:102B500099918927F7CFDF91CF9108951F93CF9354
:102B6000DF93C1E2D5E014E680E09DE00E94793475
:102B7000892B61F180E09DE00E94943420911F0533
:102B800030912005F901EF5DFA4F80832F5F3F4FB1
:102B90003093200520931F058A3029F08D3019F0DD
:102BA000233631050CF3F901EF5DFA4F10826CE228
:102BB00081E295E00E9437131092200510921F05C4
:102BC000FE01812F11928A95E9F7CECFDF91CF9147
:102BD0001F9108958DE99DE00E947934892BF9F0C9
:102BE0008DE99DE00E949434682F89E096E00E9470
:102BF000601980931E05882369F386E499E00E949A
:102C00001D26BC018FEA9AE00E94F11B86E499E040
:102C10000E941D26BC0180E09DE00C94A939089516
:102C20008AE39EE00E947934892B79F180EF9AE063
:102C30000E94E211882351F08AE39EE00E949434BE
:102C4000682F85E895E00E94121DEACF8AE39EE096
:102C50000E949434682F8EEA97E00E94481B80936C
:102C60001D058823E9F28EEA97E00E94C01BBC0193
:102C70008FEA9AE00E94F11B8EEA97E00E94C01B47
:102C8000BC0180E09DE00C94A939089587ED9EE099
:102C90000E947934892BF9F087ED9EE00E949434EC
:102CA000682F82EE96E00E94481B80931C058823C3
:102CB00069F382EE96E00E94C01BBC018FEA9AE0A5
:102CC0000E94F11B82EE96E00E94C01BBC0180E0D6
:102CD0009DE00C94A93908958BEF95E00E945E2A3F
:102CE000892BF9F08BEF95E00E94592A682F86E135
:102CF00096E00E94481B80931B05882369F386E1B8
:102D000096E00E94C01BBC018FEA9AE00E94F11B72
:102D100086E196E00E94C01BBC0180E09DE00C941F
:102D2000A93908958091C40B882309F444C083EA2B
:102D300095E00E94BF098091C20B9091C30B8091D6
:102D4000C20B9091C30B65E070E00E94B043892BE9
:102D500071F48FE096E00E94FC1E81E196E00E94F3
:102D6000C30460E07DE080EF9AE00E94220E809133
:102D7000C20B9091C30B6AE070E00E94B043892BB4
:102D8000C1F48FE096E00E9401208FEA9AE00E9451
:102D9000F31B8FE995E00E94760781E196E00E949F
:102DA000200581E196E00E945A058FEA9AE00E9490
:102DB000691C1092C40B0C946C1680EF9AE00E9470
:102DC000E90A1092B20A1092B10A88EE93E0A0E0EC
:102DD000B0E08093B30A9093B40AA093B50AB0937D
:102DE000B60A87E992E09093B00A8093AF0A80EF29
:102DF0009AE09093BC0A8093BB0A60E070E086E49E
:102E000099E00E94932560E070E08AE798E00E94D4
:102E10003F1B60E070E08EEA97E00E943F1B60E09D
:102E200070E082EE96E00E943F1B60E070E086E179
:102E300096E00E943F1B60EF7AE081E196E00E94FD
:102E40007B0460EF7AE08FE096E00E94231D40EF64
:102E50005AE066E479E089E096E00E946A1741E072
:102E600063E48BEF95E00E949F2960EF7AE083EAAC
:102E700095E00E949A0860EF7AE08FE995E00E9461
:102E80004E0740EF5AE06AE37EE085E895E00C9457
:102E90000A1D8FE995E00E94AE0583EA95E00E9445
:102EA0006F0989E096E00E945D1781E196E00E943B
:102EB0006E048FEA9AE00C94CB1B2FE832E0FC0101
:102EC0003183208308952FE832E0FC013183208391
:102ED0000C94823DFC018FE892E0918380835583BE
:102EE0004483738362830895CF92DF92EF92FF92BF
:102EF0001F93CF93DF93162F60E0812F0E94003F36
:102F000061E0812F0E94393FC0E0D4E080E1C82E0B
:102F100087E2D82EE12CF12C28E438EE41E050E095
:102F200060E0812F0E946F3F1616170618061906DB
:102F30003CF46C157D058E059F0514F46B017C0136
:102F4000219751F76EE876E080E09DE00E945539C8
:102F50002AE030E0B701A60180E09DE00E94663AD9
:102F60008CE0C816D104E104F104F4F184E1C81640
:102F7000D104E104F104ECF18EE1C816D104E104BE
:102F8000F104E4F188E2C816D104E104F104DCF1B3
:102F90008CE3C816D104E104F104D4F180E5C8162D
:102FA000D104E104F104CCF186E9C816D104E104AE
:102FB000F104C4F18CE2C81681E0D806E104F10402
:102FC000B4F188E5C81682E0D806E104F104A4F162
:102FD00080EBC81684E0D806E104F10494F560EBB8
:102FE00074E080E090E030C060E072EC81E090E05E
:102FF0002BC060E071EE80E090E026C060E076E9F2
:1030000080E090E021C060E870E780E090E01CC0C4
:1030100060E07BE480E090E017C060E478E380E06B
:1030200090E012C060E875E280E090E00DC060ECD6
:1030300072E180E090E008C060E679E080E090E036
:1030400003C060E070E0CB01DF91CF911F91FF9052
:10305000EF90DF90CF900895CF92DF92EF92FF92A2
:103060007C016AE776E080E09DE00E94553963E1EB
:1030700070E0C7010E9474176B017C0116161706D9
:1030800018061906C4F463E776E080E09DE00E942C
:1030900055392AE030E0B701A60180E09DE00E94AA
:1030A000663A26E0B701A6018DE99DE00E94E5356C
:1030B000B601C70119C06CE676E080E09DE00E9491
:1030C000553967E576E080E09DE00E94973926E07B
:1030D00040EC52E160E070E08DE99DE00E94E53552
:1030E00060EC72E180E090E0FF90EF90DF90CF9095
:1030F00008954F925F926F927F928F929F92AF92BC
:10310000BF92CF92DF92EF92FF920F931F93CF93D4
:10311000DF93CDB7DEB760970FB6F894DEBF0FBE72
:10312000CDBF69837A838B839C83CA01B901270150
:103130003801A60195010E94F53F25E33AEF4EE8DC
:103140005CE30E94CA426B017C010E942D436D87A3
:103150007E878F87988BC701B6010E94C0406D8320
:103160007E838F83988725E33AEF4EE85CE369819D
:103170007A818B819C810E94CA426B017C0125E38C
:103180003AEF4EE85CE3C301B2010E94CA422B0150
:103190003C01C701B6010E942D434B015C01C701F0
:1031A000B6010E94C04069837A838B839C83C301EC
:1031B000B2010E942D4369877A878B879C87C30160
:1031C000B2010E94C0406B017C0129853A854B8584
:1031D0005C8569817A818B819C810E94CA422B0126
:1031E0003C01A7019601C501B4010E94CA422D818C
:1031F0003E814F8158850E94CA429B01AC01C301A8
:10320000B2010E94F53F9B01AC010E94CA422B0112
:103210003C012D853E854F855889C701B6010E9426
:10322000CA429B01AC010E94CA429B01AC01C3018E
:10323000B2010E94F63F0E9437432B013C012985D1
:103240003A854B855C85C501B4010E94CA424B0199
:103250005C01A701960169817A818B819C810E9422
:10326000CA422D813E814F8158850E94CA429B01EE
:10327000AC01C501B4010E94F63F9B01AC01C30142
:10328000B2010E94694026E73BE742EC5AE40E9403
:10329000CA4260960FB6F894DEBF0FBECDBFDF9175
:1032A000CF911F910F91FF90EF90DF90CF90BF9043
:1032B000AF909F908F907F906F905F904F90089508
:1032C000CF93DF93EC018A819B810E94BC2661E051
:1032D000892B09F460E08C819D810E94A4108C816F
:1032E0009D810E94EB0F882369F18A819B810E9456
:1032F000F425682F8C819D810E94C9108A819B8151
:103300000E94F4258134F1F460E070E08A819B81B1
:103310000E941F26FC0182818235A1F060E070E0EE
:103320008A819B810E941F26FC0183818D3451F08C
:1033300060E070E08A819B810E941F26FC018481ED
:10334000833431F48C819D81DF91CF910C94EB0F0C
:103350000E94CE3DAB01BC018C819D810E94A910D1
:103360008A819B810E941726AB01BC018C819D81C3
:103370000E949C108A819B810E94F725AB01BC01B1
:103380008C819D810E94B1108A819B810E94FD25C4
:10339000AB01BC018C819D810E94B9108C819D8103
:1033A0000E946F0FAB01BC018A819B810E940326A2
:1033B000AB01BC018C819D810E94C1108A819B81DF
:1033C0000E94EE25AB01BC018C819D810E94CE1034
:1033D000B9CFDF92EF92FF920F931F93CF93DF93BA
:1033E000CDB7DEB7A8970FB6F894DEBF0FBECDBF3E
:1033F0008C0161E476E080E09DE00E949739F8015D
:10340000848195810E947E11892B31F46AE276E0F5
:1034100080E09DE00E949739F801848195810E94A7
:103420007E11019709F07FC063E176E080E09DE0C6
:103430000E94973965E076E08DE99DE00E9497391A
:103440006DEE75E08DE99DE00E94973965ED75E0C0
:103450008DE99DE00E9497396DEB75E08DE99DE067
:103460000E94973965EA75E08DE99DE00E949739E1
:103470006DE875E08DE99DE00E94973965E775E09C
:103480008DE99DE00E94973967E675E08DE99DE042
:103490000E9497391AA219A285E794E098A38F8F0A
:1034A000CE0101967C019CA38BA38EE190E098A7AE
:1034B0008FA3CE014F960E94D7216BE575E0CE0118
:1034C0004F960E945539F801848195810E949A1186
:1034D000AB01BC012AE030E0CE014F960E94143AC5
:1034E00063E575E0CE014F960E945539C7010E94F1
:1034F0009515D82EFFE0F81728F060E3CE014F961F
:103500000E947C3940E150E06D2DCE014F960E9423
:10351000853AB7018DE99DE00E94A939B70180E0A5
:103520009DE00E94A939F801848195810E947E1155
:10353000029709F055C06AE375E080E09DE00E94C3
:10354000973969E275E08DE99DE00E94973967EF50
:1035500074E08DE99DE00E9497391AA219A285E7CF
:1035600094E098A38F8FCE0101967C019CA38BA33E
:103570008EE190E098A78FA3CE014F960E94D721AD
:103580006DEE74E0CE014F960E945539F8018481AA
:1035900095810E949A11AB01BC012AE030E0CE0176
:1035A0004F960E94143A69E872E0CE014F960E944D
:1035B0007A39C7010E949515182F803128F460E3ED
:1035C000CE014F960E947C3940E150E0612FCE0140
:1035D0004F960E94853AB7018DE99DE00E94A93976
:1035E000A8960FB6F894DEBF0FBECDBFDF91CF9186
:1035F0001F910F91FF90EF90DF9008951092C80BEC
:103600001092C70B85E794E09093C60B8093C50B8F
:103610008FEC9BE09093CA0B8093C90B88E290E0FB
:103620009093CE0B8093CD0B85EC9BE00C94D7212F
:10363000CF93DF93EC010E942C18AB01BC018C816D
:103640009D810E94A2118C819D810E94400DCE011E
:103650000E94E9198DE99DE00E9406358DE99DE003
:103660000E9447368C819D810E949A11AB01BC015A
:1036700026E08DE99DE0DF91CF910C94E535FC01CA
:10368000E853FF4F11821082329611821082089502
:103690000F931F93CF93DF93DC01A853BF4F4D913E
:1036A0005C911197FC01E653FF4F4236510514F02F
:1036B000118210826A3011F06D3011F41182108283
:1036C000643261F424E6EC0119922A95E9F7EC01E1
:1036D000688381E090E08D939C9345C02081318187
:1036E00021303105E9F02CF42115310509F442C0EF
:1036F0003DC02230310561F123303105B9F5FC01BF
:10370000E40FF51F60834E5F5F4F4D935C93118212
:10371000BC018C599F4F0E94C34521E030E02AC074
:103720008A010F5F1F4F11961C930E939C01240F6B
:10373000351FE90168834E5F5F4FE801C80FD91F4D
:103740004D935C9368836A3299F482E090E00BC0F9
:103750009A012F5F3F4F2D933C93DC01A40FB51FBF
:103760006C9383E090E09183808302C01182108289
:1037700020E030E0C901DF91CF911F910F910895B2
:103780008C599F4F0895862F0E94A93281E090E0C6
:1037900008950C946C3327E934E0FC0131832083D5
:1037A0000C946534CF93DF93EC0187E994E099831F
:1037B00088830E946534CE01DF91CF910C94823DC5
:1037C0009A01AB01CA01B9019695879577956795DE
:1037D0007C5D8B409F4F0E94C443CA01B9010C9489
:1037E00057320C94A939EF92FF920F931F93CF9306
:1037F000DF93CDB7DEB72A970FB6F894DEBF0FBEC2
:10380000CDBF8C017C018EE0E80EF11C1C821B8276
:1038100085E794E09A838983FE82ED828EE190E0D1
:103820009A878987CE0101960E94D7216FEB76E0B7
:10383000CE0101960E945539F801848595850E9434
:10384000CA0F4AE050E0BC01CE0101960E945E3AE8
:1038500069EB76E0CE0101960E945539F801848526
:1038600095850E94D00FAB01BC0122E030E0CE0173
:1038700001960E94773B63EB76E0CE0101960E94B1
:103880005539C7010E949515005C1F4FF8018083D0
:10389000803128F460E3CE0101960E947C3940E13A
:1038A00050E0F8016081CE0101960E94853AB7018F
:1038B00080E09DE00E94A9392A960FB6F894DEBFF9
:1038C0000FBECDBFDF91CF911F910F91FF90EF9071
:1038D0000895AF92BF92CF92DF92EF92FF920F9333
:1038E0001F93CF93DF93CDB7DEB72A970FB6F89427
:1038F000DEBF0FBECDBF8C01FC01848595850E9483
:10390000820F20E030E0A9010E94BC40882309F426
:1039100070C05801FCE2AF0EB11C1C821B8285E70F
:1039200094E09A838983BE82AD8284E190E09A8795
:103930008987CE0101960E94D7216BEA76E0CE01FD
:1039400001960E945539F801848595850E947C0F67
:103950006B017C01F801848595850E94820F9B0193
:10396000AC01C701B6010E94F53FAB01BC0122E0EA
:1039700030E0CE0101960E94773B67EA76E0CE0107
:1039800001960E9455397801F0E4EF0EF11CF70121
:10399000108281E090E0F50101900020E9F7EA193A
:1039A000FB0932978E179F0750F4F801E80FF91FB3
:1039B00024A5F7013081232720830196ECCFF7015E
:1039C0008081803128F460E3CE0101960E947C3929
:1039D00040E150E0F7016081CE0101960E94853AF6
:1039E000B50180E09DE00E94A939B501C8010E949F
:1039F000A9392A960FB6F894DEBF0FBECDBFDF916E
:103A0000CF911F910F91FF90EF90DF90CF90BF90DB
:103A1000AF900895FC01578B468B718F608F118298
:103A200010820895FC01A081B181A80FB91F1296E0
:103A30006C938081918143972CF4808191810196D0
:103A4000918380830895CF93DF93EB01FC01718311
:103A500060830E94DA3D6093250C7093260C80935E
:103A6000270C9093280C4091250C5091260C6091C6
:103A7000270C7091280C4093210C5093220C6093DA
:103A8000230C7093240C10920D0C10920E0C1092BB
:103A90000F0C1092100C81E08093080C1092FA0B1E
:103AA0001092FB0B8091F70B9091F80B20E0309176
:103AB000F90B231760F4FC0134E0239FE00DF11DA6
:103AC000112410821182128213822F5FF0CFCE0157
:103AD0000E94C40F843691053CF063E670E0CE018D
:103AE000DF91CF910C941A11DF91CF910895CF926D
:103AF000DF92EF92FF920F931F93CF93CB01BA0106
:103B000097FF09C090958095709561957F4F8F4F75
:103B10009F4FC0E001C0C1E0683621E07207810517
:103B2000910534F028E631E040E050E00E94E643A1
:103B3000653B71058105910534F0645B710981096C
:103B4000910921E0C2276B3571058105910564F06B
:103B500004EB10E020E030E068017901C61AD70AD2
:103B6000E80AF90AC701B601660F771FFB01E554A1
:103B7000FC4F60817181CC2319F080E090E00CC093
:103B8000CB01A0E0B0E09C01AD0166277727CB0117
:103B9000621B730B840B950BCF911F910F91FF90BC
:103BA000EF90DF90CF900895465A5F4F6F4F7F4F51
:103BB0000C94771D4F925F926F927F928F929F929B
:103BC000AF92BF92CF92DF92EF92FF920F931F932B
:103BD000CF93DF938C016090FA0BC091F70BD091DB
:103BE000F80B712CC12CD12C7601812C912C540115
:103BF0007614C1F0488159816A817B81C8010E9495
:103C0000D41D860E971EA81EB91E4991599169911F
:103C10007991C8010E94771DC60ED71EE81EF91EB5
:103C20007394E6CF81149104A104B10429F4C11462
:103C3000D104E104F104A1F1662D70E080E090E090
:103C40000E945E412B013C01C501B4010E945E410E
:103C500020E830E040E857E30E94CA42A301920105
:103C60000E94C3404B015C01C701B6010E945E4146
:103C700020E830E040E857E30E94CA42A3019201E5
:103C80000E94C340A50194010E94694021EE3EE2DA
:103C900045E652E40E94CA420E942B41CB0102C079
:103CA00080E090E0DF91CF911F910F91FF90EF9016
:103CB000DF90CF90BF90AF909F908F907F906F904C
:103CC0005F904F9008950F931F930E94CE3D0091F7
:103CD0002D0C10912E0C20912F0C3091300C601B6C
:103CE000710B820B930B653171058105910520F1F4
:103CF0008091250C9091260CA091270CB091280C56
:103D00008093210C9093220CA093230CB093240C4D
:103D10000E94DA3D6093250C7093260C8093270C4B
:103D20009093280C0E94CE3D60932D0C70932E0C26
:103D300080932F0C9093300C1F910F9108950F9347
:103D40001F930E94CE3D0091290C10912A0C2091C6
:103D50002B0C30912C0C601B710B820B930B65317B
:103D600071058105910508F444C08091150C90916E
:103D7000160CA091170CB091180C8093110C909315
:103D8000120CA093130CB093140C0E94DA3D6093B4
:103D9000150C7093160C8093170C9093180C80914F
:103DA000210C9091220CA091230CB091240C8093B3
:103DB0001D0C90931E0CA0931F0CB093200C8091AF
:103DC000250C9091260CA091270CB091280C809383
:103DD000190C90931A0CA0931B0CB0931C0C0E940E
:103DE000CE3D6093290C70932A0C80932B0C9093FA
:103DF0002C0C1F910F9108954F925F926F927F92BA
:103E00008F929F92AF92BF92CF92DF92EF92FF92EA
:103E10000F931F93F89480901D0C90901E0CA0900F
:103E20001F0CB090200C8091190C90911A0CA0914D
:103E30001B0CB0911C0C4091110C5091120C609114
:103E4000130C7091140C0091150C1091160C20910C
:103E5000170C3091180C789488169906AA06BB06A0
:103E600068F46C017D01C818D908EA08FB08E0E293
:103E7000CE16EEE4DE06E104F10418F467EA72E01F
:103E800034C0401751076207730768F428013901ED
:103E9000441A550A660A770AE0E24E16EEE45E0618
:103EA0006104710418F463EF72E01FC0011511057D
:103EB00021053105C1F0411551056105710599F0E4
:103EC0000097A105B10579F081149104A104B10412
:103ED00051F084169506A606B70628F408171907A8
:103EE0002A073B0738F46FE373E080E09DE00E940F
:103EF000A93978C0C40CD51CE61CF71CF694E794CD
:103F0000D794C794C0920D0CD0920E0CE0920F0C77
:103F1000F092100C28013901440E551E661E771EC2
:103F2000A3019201281939094A095B09281B390B99
:103F30004A0B5B0B56954795379527952093090CAF
:103F400030930A0C40930B0C50930C0C2115310547
:103F50004105510509F446C02C153D054E055F0588
:103F600008F040C0A8E6B1E00E940B44A70196010A
:103F70000E94C443283681E038074105510590F579
:103F80008091FB0B8F5F8093FB0B9091FA0B6091FC
:103F9000F90BE091F70BF091F80B9617B0F481E074
:103FA000890F8093FA0B84E0989FE00DF11D112496
:103FB00020833183428353838091FB0B6091FA0B02
:103FC0000E94A4439093FB0B0DC00E94A4439093C6
:103FD000FB0B84E0989FE00DF11D112420833183B9
:103FE000428353831F910F91FF90EF90DF90CF900A
:103FF000BF90AF909F908F907F906F905F904F9009
:1040000008954F925F926F927F928F929F92AF929C
:10401000BF92CF92DF92EF92FF92CF93DF93EC01AA
:104020000E94CE3DC0902D0CD0902E0CE0902F0C15
:10403000F090300C6C157D058E059F0550F40E94A4
:10404000CE3D60932D0C70932E0C80932F0C90938B
:10405000300C0E94CE3DC090290CD0902A0CE090EC
:104060002B0CF0902C0C6C157D058E059F0550F4E3
:104070000E94CE3D6093290C70932A0C80932B0CE8
:1040800090932C0C0E94CE3DAB01BC01888199819C
:104090000E9434110E94CE3DC0902D0CD0902E0C69
:1040A000E0902F0CF090300C6C197D098E099F095F
:1040B000A880B980693B7B4081059105A0F040E074
:1040C00050E0BA01C501DF91CF91FF90EF90DF90F2
:1040D000CF90BF90AF909F908F907F906F905F90A8
:1040E0004F900C942C1120910D0C30910E0C40919E
:1040F0000F0C5091100C211531054105510509F4A3
:10410000B4C060E071EE85EF95E00E94C4436901A0
:104110007A01233481E0380741055105F4F5AAE01E
:10412000B0E00E940B442B013C01C5010E94D80F56
:104130004B015C01A3019201C301B2010E949443AF
:1041400027E93FEF4FEF5FEF0E94E64329013A0175
:10415000A701960168E273EE83E090E00E94944329
:1041600024E630E040E050E00E94E643420E531E59
:10417000641E751E24EE421A2FE2520A610871086D
:10418000C301B2010E945E41A50194010E94C34097
:1041900020E030E040E251E460C02C3385E1380794
:1041A0004105510554F5C5010E94D80F2B013C0172
:1041B000A7019601C701B6010E9494432EEA38E098
:1041C00040E050E00E94E64349015A01ABE9BAE4FD
:1041D000A70196010E940B4424E630E040E050E045
:1041E0000E94E643820E931EA41EB51E26EA820E8E
:1041F00025E2921EA11CB11C2AC0C5010E94D80F45
:104200002B013C01A7019601C701B6010E9494430E
:1042100022E134E040E050E00E94E643A4E6B0E052
:104220000E940B444B015C01A701960164EB70E214
:1042300081E89FEF0E949443860E971EA81EB91E28
:1042400084E4880E8DEB981E8BE2A81EB11CC5017C
:10425000B4010E945E41A30192010E94C340AB01E0
:10426000BC01888199810E942C11888199810E94CA
:10427000D00F6B017C01888199810E94E00FBC0105
:10428000882777FD8095982F0E945E419B01AC01A5
:10429000C701B6010E94BF42181654F48881998163
:1042A0000E94D00F0E942B41888199810E94731136
:1042B000CE010E94DA1D8A5591097C01888199817D
:1042C0000E94BE0FB701680F791F77FF02C06859BF
:1042D0007E4F88819981DF91CF91FF90EF90DF90A1
:1042E000CF90BF90AF909F908F907F906F905F9096
:1042F0004F900C9420118CEF9BE09093F80B8093DF
:10430000F70B83E08093F90B1092FA0B1092FB0BE2
:10431000089561E085E30E94393F61E085E30E94F2
:10432000003F8CB580618CBD8CB580648CBD61E034
:1043300084E30E94003F61E083E30C94003F81111D
:1043400003C08CB5806202C08CB58F7D8CBD089592
:104350009CB5937F982B9CBD08952CB5982F937096
:104360002C7F922B9CBD9DB582FB882780F99E7F78
:10437000982B9DBD0895FC01A681B7819D012F5FFB
:104380003F4F8481958140855185840F951F281763
:10439000390750F4378326836C930680F781E02D2C
:1043A000108281E090E0089580E090E00895FC01A3
:1043B000A481B581B783A68380859185892B09F077
:1043C0001C92089508952F923F924F925F926F92A0
:1043D0007F928F929F92AF92BF92CF92DF92EF9295
:1043E000FF920F931F93CF93DF93CDB7DEB72A973A
:1043F0000FB6F894DEBF0FBECDBF9A878987DC0168
:10440000D6968C91882309F4E5C00E94CE3D69833D
:104410007A838B839C83E985FA8580A191A1298188
:104420003A81281B390B84A595A5281739070CF468
:10443000D1C0028CF38DE02D80809180A280B3806A
:10444000A985BA855E96ED91FC915F97A5019401CF
:1044500060817181828193810E94F53F2B013C0133
:10446000E985FA8520893189428953890E94CA42A7
:10447000A985BA8594962D913D914D915C91979720
:104480000E94F63F6B017C01E985FA8564A375A360
:1044900086A397A312A903A934A825A8212F302FFA
:1044A000432D522D0E94BF4218162CF4812F902FBD
:1044B000A32DB22D18C0A985BA859E968D919D9188
:1044C0000D90BC91A02D8D839E83AF83B8879C01F6
:1044D000AD01C701B6010E94BC4087FF0AC08D81B3
:1044E0009E81AF81B885E985FA8584A395A3A6A3AB
:1044F000B7A3A985BA851C962D913D914D915C91EC
:104500001F97C301B2010E94CA42E985FA8524A11E
:1045100035A146A157A10E94F63F6B017C01A985F8
:10452000BA8598962D913D914D915C919B97C501CF
:10453000B4010E94F53FE985FA85248935894689C9
:1045400057890E94CA429B01AC01C701B6010E9473
:10455000F53F6B017C01212F302F432D522D0E94FE
:10456000BF421816DCF0A985BA859E961C919E97CD
:104570009F960C919F97D0963C90D097D1962C9077
:10458000212F302F432D522DB601C7010E94BC4070
:1045900087FD04C01C2D0D2D3E2C2F2CA985BA851E
:1045A0005C96ED91FC915D97812F902FA32DB22DFC
:1045B00080839183A283B383E985FA8580A691A63F
:1045C000A2A6B3A689819A81AB81BC8180A391A365
:1045D000A2A3B3A32A960FB6F894DEBF0FBECDBF39
:1045E000DF91CF911F910F91FF90EF90DF90CF90CF
:1045F000BF90AF909F908F907F906F905F904F9003
:104600003F902F9008952F923F924F925F926F921A
:104610007F928F929F92AF92BF92CF92DF92EF9252
:10462000FF920F931F93CF93DF9300D01F92CDB7CC
:10463000DEB71C012A013B014801590120E030E0AE
:10464000A901C301B2010E94BC4087FD7AC020E0ED
:1046500030E0A901C501B4010E94BC4087FD71C0D2
:1046600020E030E0A901C701B6010E94BC4087FDEF
:1046700068C0F10140825182628273828482958295
:10468000A682B782C086D186E286F38664A575A528
:10469000882777FD8095982F0E945E4120E030E0CA
:1046A0004AE754E40E94C34069837A838B839C83E6
:1046B000F10144865586668677869B01AC01C5016B
:1046C000B4010E94CA424B015C01F101608B718B05
:1046D000828B938B29813A814B815C81C701B60122
:1046E0000E94C3406B017C01F101648B758B868B4A
:1046F000978B808D918D019721F5A301920160E048
:1047000070E0CB010E94F53FF101648775878687D1
:104710009787A501940160E070E0CB010E94F53F0E
:10472000F101608B718B828B938BA701960160E006
:1047300070E0CB010E94F53FF101648B758B868B95
:10474000978B0F900F900F900F90DF91CF911F914B
:104750000F91FF90EF90DF90CF90BF90AF909F9020
:104760008F907F906F905F904F903F902F90089523
:10477000CF92DF92EF92FF920F931F93CF93DF932D
:10478000EC018B011616170694F5882777FD8095A6
:10479000982F0E945E416B017C016CA57DA5882746
:1047A00077FD8095982F0E945E419B01AC01C70167
:1047B000B6010E94C3406B017C019B01AC0168897A
:1047C00079898A899B890E94CA42688B798B8A8BF6
:1047D0009B8BA70196016C897D898E899F890E9498
:1047E000C3406C8B7D8B8E8B9F8B1DA70CA7DF919D
:1047F000CF911F910F91FF90EF90DF90CF90089590
:104800002F923F924F925F926F927F928F929F92E0
:10481000AF92BF92CF92DF92EF92FF920F931F93CE
:10482000CF93DF93EC016A017B0148015901A90193
:104830009801C701B6010E94BF4287FF4EC0CEA6B5
:10484000DFA6E8AAF9AA8AAA9BAAACAABDAA8EA941
:10485000882309F442C02C8C3D8CF10140805180AA
:1048600062807380A5019401C301B2010E94BF421E
:10487000181634F4F10180829182A282B3820DC0B5
:10488000A7019601C301B2010E94BC4087FF05C089
:10489000F101C082D182E282F3828CA09DA0AEA001
:1048A000BFA0CAA8DBA8ECA8FDA8A7019601C50176
:1048B000B4010E94BF42181664F0CEA4DFA4E8A899
:1048C000F9A8A7019601C501B4010E94BC4087FF69
:1048D00004C0CCA2DDA2EEA2FFA2DF91CF911F9176
:1048E0000F91FF90EF90DF90CF90BF90AF909F908F
:1048F0008F907F906F905F904F903F902F90089592
:104900008F929F92AF92BF92CF92DF92EF92FF92DF
:10491000CF93DF93EC01EC8DFD8DC080D180E280E0
:10492000F380CCA2DDA2EEA2FFA2EA8DFB8D8081F6
:104930009181A281B38188A799A7AAA7BBA78AA8BA
:104940009BA8ACA8BDA8A5019401C701B6010E940F
:10495000BF42181664F08EA49FA4A8A8B9A8A50108
:104960009401C701B6010E94BC4087FF04C08CA21D
:104970009DA2AEA2BFA2DF91CF91FF90EF90DF90FA
:10498000CF90BF90AF909F908F9008951F93CF933B
:10499000DF93EC0111E06130710509F010E08EA9A0
:1049A00091E08927181303C0CE010E9480241EAB1A
:1049B000DF91CF911F9108950F931F93CF93DF93B2
:1049C000EC018B018EA9882361F1888D998D681780
:1049D000790739F12C853D854E855F8560E070E073
:1049E000CB010E94F53F6C877D878E879F87288942
:1049F00039894A895B8960E070E0CB010E94F53F0C
:104A0000688B798B8A8B9B8B2C893D894E895F893A
:104A100060E070E0CB010E94F53F6C8B7D8B8E8B4C
:104A20009F8B198F088FDF91CF911F910F91089560
:104A30002F923F924F925F926F927F928F929F92AE
:104A4000AF92BF92CF92DF92EF92FF920F931F939C
:104A5000CF93DF93CDB7DEB728970FB6F894DEBFBC
:104A60000FBECDBF4C017A8369831A013C832B832F
:104A700027013801AD82BE82CF82D88600E010E0E7
:104A80002FE733E440E050E0BA010E94002484E6BE
:104A900090E0F40195A784A76AA17BA1C4010E94BC
:104AA000DC24CE8CDF8CE8A0F9A00D811E812F8143
:104AB0003885B301A201C4010E9403230E94CE3DA8
:104AC000F40144A455A4662457FC6094762C641920
:104AD00075098609970960A371A382A393A316AAF7
:104AE000358E248E89819A81938F828F8B819C81D0
:104AF000978F868F28960FB6F894DEBF0FBECDBF76
:104B0000DF91CF911F910F91FF90EF90DF90CF90A9
:104B1000BF90AF909F908F907F906F905F904F90DD
:104B20003F902F9008950F931F93CF93DF93FC0135
:104B300071836083128213821482158286E58683D4
:104B4000178210861186128613861486158616869D
:104B50001786108A118A128A138A148A158A168A6D
:104B6000DF01A754BF4F11961C921E92AE55BF4F46
:104B700011961C921E92149611961C921E921296D9
:104B800011961C921E92129611961C921E92178AD2
:104B9000AC5AB1091D921C92EF0104E110E08FE0C4
:104BA00090E00E943D44FE01E15EFE4F91838083D0
:104BB0008FE090E00E943D44FE01E558FF4F918355
:104BC0008083FC0110820150110922960115110504
:104BD00031F7DF91CF911F910F910895FC01628110
:104BE0007381848195810895FC0186810895FC017B
:104BF00067817085818592850895FC016385748540
:104C0000858596850895CF92DF92EF92FF926A0193
:104C10007B01FC012785308941895289C701B60192
:104C20000E94CA42FF90EF90DF90CF900895FC0160
:104C30006389748985899689089547960895660FD2
:104C4000771F680F791FFB01E558FF4F8081918125
:104C500008954F925F926F927F928F929F92AF9240
:104C6000BF92CF92DF92EF92FF920F931F93CF9359
:104C7000DF93FB0110811D3241F031E020E01B3257
:104C800009F030E0832F922F02C081E090E0EB0129
:104C9000C80FD91F00E03DEC432E3CEC532E652C91
:104CA0003DE3732E812C912C5401C12CD12C760123
:104CB000E991EE23E9F1EE32C9F1FF27E7FDF09526
:104CC000011113C0AAE0B0E0A70196010E940B44B5
:104CD0006B017C01CF01C097AA2797FDA095BA2F41
:104CE000C80ED91EEA1EFB1EE3CFBF016053710937
:104CF000882777FD8095982F0E945E419B01AC012B
:104D0000C301B2010E94CA429B01AC01C501B401BA
:104D10000E94F63F4B015C0120E030E040E251E4AC
:104D2000C301B2010E94C3402B013C0101E0C0CF8E
:104D3000C701B6010E945E419B01AC01C501B401EF
:104D40000E94F63F1D3239F49B01AC0160E070E037
:104D5000CB010E94F53FDF91CF911F910F91FF9002
:104D6000EF90DF90CF90BF90AF909F908F907F900B
:104D70006F905F904F9008958F929F92AF92BF92E5
:104D8000CF92DF92EF92FF920F931F93CF93DF9317
:104D9000EC01AC01455A5E4FDA012D913C9111971F
:104DA000FC01E15AFE4F243631056CF4A25AB109D8
:104DB0008D919C911197449734F4A655BF4F8D91D6
:104DC0009C910F9714F0118210826A3011F06D30AF
:104DD00011F4118210826432E1F4DE01A35ABE4F55
:104DE00011961C921E92149611961C921E92A85A0D
:104DF000B10911961C921E92A655BF4F1D921C928E
:104E0000C554DF4F688381E090E0DA018D939C9375
:104E1000E4C0808191818130910569F024F400978C
:104E200009F47AC272C28230910509F492C00397E4
:104E300009F4D6C06AC2273031057CF4D901A758DD
:104E4000BB4F8C91681309C0DE01A35ABE4F8D91F0
:104E50009C91119701968D939C93C9010196DA015B
:104E60008D939C932C0F3D1FD901A554BF4F6C937C
:104E7000CE0187549F4F8E010D591E4F6A3249F162
:104E8000DE01AF59BE4FFC016C3209F040C02081F9
:104E90003181A9014F5F5F4F51834083C901880F62
:104EA000991F8C0F9D1FEC01C15EDE4F0990D881C8
:104EB000C02DF80180819181C80FD91F18821182FD
:104EC00010828D919C911197FCE28F278D939C937A
:104ED0001EC2DC012D913C911197A9014F5F5F4FDC
:104EE0004D935C93C901880F991F8C0F9D1FEC0196
:104EF000C15EDE4F0990D881C02DD8018D919C9163
:104F00001197C80FD91F18821D921C9263C080810F
:104F10009181880F991F8C0F9D1FEC01C15EDE4FA0
:104F20000990D881C02DF801808191819C012F5F6B
:104F30003F4F31832083C80FD91F6883772767FDD0
:104F400070958D919C911197682779276D937C932B
:104F5000DEC1C9010196DA018D939C932C0F3D1F90
:104F6000D901A554BF4F6C93DE01A754BF4F8D915B
:104F70009C91880F991F8C0F9D1FDC01A15EBE4F75
:104F80000D911C919E012D593E4FD9018D919C91FF
:104F90001197AC014F5F5F4F4D935C93080F191F42
:104FA000D8016C93CF59DE4F48815981862F9927BC
:104FB00087FD9095613414F0C79701C0C0979C019C
:104FC000B4E0220F331FBA95E1F7CA01821B930B9D
:104FD000998388838081918101969183808397C191
:104FE000CE01820F931FDC01A554BF4F6C932E5F3F
:104FF0003F4FDA012D933C93DC01A454BF4F1C9228
:105000009E0127543F4FD9018D919C91880F991F84
:105010008C0F9D1FDC01A15EBE4F8D919C916E0196
:10502000BDE9CB1ABEEFDB0AD6010D911C917801C8
:10503000BFEFEB1AFB0AD601ED92FC92800F911F95
:10504000DC016C93D9018D919C9111978C010F5FBC
:105050001F4F0D931C93880F991F8C0F9D1F815E0E
:105060009E4FDC018D919C91D6010D911C91800F7A
:10507000911FDC011C9211821082FE01EF59FE4F3C
:1050800080819181062F112707FD1095613424F04E
:10509000B8016753710903C0B80160537109861BD9
:1050A000970B91838083009709F031C168817981E2
:1050B000672B29F4FA0160817181CB010AC0FE01DE
:1050C000E35AFE4F608171816630710509F024C199
:1050D000F1CF019797FD0AC0FE01E80FF91F8F017C
:1050E00005541F4FD8011C91178BF3CFFB0131974B
:1050F000CB0177FF02C080E090E0BF01681B790B15
:10510000DA016D937C93FE01E954FF4F1182108206
:1051100040815181D9018D919C914817590784F59F
:10512000D6011D921C9280819181D6014D915C9196
:10513000880F991F8C0F9D1FBC01615E7E4FDB01A4
:105140006D917C91640F751FDB016C9185589F4FA9
:10515000DC018D919C91840F951FDC01662349F041
:105160006C93D6018D919C91119701968D939C9390
:10517000DACF1C9280819181019691838083C8CF80
:10518000FE01E35AFE4F80819181069709F0C2C06B
:10519000FC9760817181CE010E9429266A837B83FE
:1051A0008C839D83FE01ED5DFE4F0190F081E02D2B
:1051B00080818E83FE01EB5DFE4F60817181CE01A7
:1051C0000E94292620E030E048EC52E40E94C340CF
:1051D0004B015C010E9499416B017C018E010B59CE
:1051E0001E4FF80160837183828393839B01AC011E
:1051F000C501B4010E94F53F20E030E048EC52E4E4
:105200000E94CA4220E030E040E752E40E94C340DE
:10521000A70196010E94F63F9B01AC016F8378873E
:1052200089879A87FE01E95DFE4F0190F081E02DAC
:105230008081833549F460E070E0CB010E94F53F46
:105240006F83788789879A87FE01E75DFE4F6081CB
:105250007181CE010E94292620E030E048EC52E422
:105260000E94C3404B015C010E9499416B017C018B
:10527000D8016D937D938D939C9313979B01AC0103
:10528000C501B4010E94F53F20E030E048EC52E453
:105290000E94CA4220E030E040E752E40E94C3404E
:1052A000A70196010E94F63F9B01AC016B877C87AA
:1052B0008D879E87FE01E55DFE4F0190F081E02D18
:1052C0008081873549F460E070E0CB010E94F53FB2
:1052D0006B877C878D879E87FE01E35DFE4F608133
:1052E0007181CE010E9429266F87788B898B9A8BDA
:1052F000FE01E15DFE4F60817181CE010E94292691
:105300006B8B7C8B8D8B9E8B05C01182108280E015
:1053100090E002C081E090E0DF91CF911F910F916A
:10532000FF90EF90DF90CF90BF90AF909F908F90C5
:1053300008958EBD0DB407FEFDCF8EB508950F9371
:105340001F93FC011382128208EE13E020E030E08C
:10535000048315832683378385E894E091838083D3
:10536000648745871F910F910895EF92FF921F93D5
:10537000CF93DF931F92CDB7DEB77C01162F60E08D
:10538000FC01848549830E94393FF8E01F9FB001EA
:105390001124F7018585880F862B0E949929498160
:1053A000842F0E94992962E070E080E090E00E94E2
:1053B000FD3D61E0F70184850F90DF91CF911F9152
:1053C000FF90EF900C94393F462F60E00E94B52982
:1053D00081E090E0089546E062E00C94B529CF9218
:1053E000DF92EF92FF920F931F93CF93DF931F9261
:1053F0001F92CDB7DEB78C01F22E60E0FC018485F0
:1054000049835A830E94393F4981E42EC42E5A8130
:10541000D52E8C2D8E198F1530F4F60181916F01E8
:105420000E949929F6CF62E070E080E090E00E944F
:10543000FD3D61E0F80184850F900F90DF91CF91E1
:105440001F910F91FF90EF90DF90CF900C94393F18
:10545000242FAB0160E00C94EF291F93CF93DF93CF
:10546000EC01162F60E08C850E94393F62E070E00D
:1054700080E090E00E94FD3D88E0189FB00111247B
:105480008D85880F862B80680E94992980E00E9474
:105490009929182F62E070E080E090E00E94FD3DC5
:1054A00061E08C850E94393F812FDF91CF911F9160
:1054B000089560E00E942D2A90E0089569E00E941E
:1054C0002D2A90E0089569E00E942D2A8FEF9FEF2A
:1054D00008951F93CF93DF93EC01162F63E00E9492
:1054E0002D2A482F4C7F6BEF610F6370462B63E0D2
:1054F000CE01DF91CF911F910C94B5298F929F928D
:10550000AF92BF92CF92DF92EF92FF920F931F93D1
:10551000CF93DF93EC016A017B014801590164EFED
:1055200076E080E09DE00E9497390E9489216AE040
:1055300070E080E090E00E94FD3D81E00E949F21AC
:1055400081E00E94AD2180E00E94A82168EE76E013
:1055500080E09DE00E9497398091060290910702B9
:10556000019779F448E06EE0CE010E94B5291092CF
:1055700007021092060269ED76E080E09DE00E944D
:10558000973964E670E080E090E00E94FD3D40E8DD
:1055900063E0CE010E94B529C701B60123E0660F82
:1055A000771F881F991F2A95D1F7680D791D8A1DCD
:1055B0009B1DA7019601E4E0220F331F441F551FD6
:1055C000EA95D1F70E94C44369017A01422F60E055
:1055D000CE010E94B5294D2D552761E0CE010E94D4
:1055E000B52940E063E0CE010E94B52968E0CE0114
:1055F0000E94692A47E062E0CE010E94B52967EC6B
:1056000076E080E09DE0DF91CF911F910F91FF90B8
:10561000EF90DF90CF90BF90AF909F908F900C94C1
:1056200097390F931F9300E010E820E730E00E94C5
:105630007E2A1F910F910895FC016F7780819181DF
:1056400086279183808347E020813181C901969527
:10565000879520FF04C020EF822722E292279183C2
:105660008083415089F70895EF92FF920F931F9323
:10567000CF93DF937C018A01EB01060F171FC01740
:10568000D10729F06991C7010E941C2BF8CFDF9147
:10569000CF911F910F91FF90EF900895CF93DF93DB
:1056A0001F921F92CDB7DEB7AB012FEF3FE33A83D6
:1056B0002983BC01CE0101960E94342B89819A81F5
:1056C00080952FE392270F900F90DF91CF9108954F
:1056D0000F931F93CF93DF931F92CDB7DEB78C014B
:1056E000FC017183608312822383148615861686DB
:1056F0001786108A459649830E942230F801178E3A
:1057000010A249818FE9840F8A3108F440528FEB4F
:10571000840F8A3120F080ED840F8A3010F4F80174
:10572000428344E650E060E070E0F8014483558332
:10573000668377834FEF5FEFBA01408751876287B7
:10574000738711A20F90DF91CF911F910F91089550
:1057500008959F92AF92BF92CF92DF92EF92FF9205
:105760000F931F93CF93DF93CDB7DEB7A7970FB6F5
:10577000F894DEBF0FBECDBF6C017B01942E5901A2
:10578000DB0114964D915D916D917C911797CE013F
:1057900080960E941B31CE0180960E94F130689461
:1057A000A4F8C8010E94C930882321F0C6010E94D4
:1057B00024306CC0CE0180960E94C9308823A9F1A4
:1057C000CE0180960E940F31F70184858F5F87FD9F
:1057D00081E0D7011C968C93CE0101960E94512E38
:1057E000F7016281CE0101960E94552E6A2DCE01ED
:1057F00001960E94552ED7011C966C91CE01019600
:105800000E94552E692DCE0101960E94552ED7017A
:10581000ED91FC91119763A174A123E230E01396FE
:105820004C91CE0101960E942D2FF701808191812C
:105830000E94FB2F882309F4B4CFD701ED91FC918E
:105840001197938113968C919813ABCF84818334F5
:1058500009F0A7CF4081518145505109BF016A5FCE
:105860007F4FCE0101960E949A308981882309F4E6
:1058700098CF9C81F7018485981393CF8AE0FE012D
:105880003196D60101900D928A95E1F7C601A7964F
:105890000FB6F894DEBF0FBECDBFDF91CF911F9141
:1058A0000F91FF90EF90DF90CF90BF90AF909F90BF
:1058B00008959F92AF92BF92CF92DF92EF92FF92A4
:1058C0000F931F93CF93DF93CDB7DEB76F970FB6CC
:1058D000F894DEBF0FBECDBF8C015B017A01922E22
:1058E000DC01ED91FC91C3A0D4A0CE0101960E94F1
:1058F000512EF8016281CE0101960E94552E692D2C
:10590000CE0101960E94552E96FE07C0D8015F96E3
:105910006C91CE0101960E94552EF7014281538170
:10592000B7016C5F7F4FCE0101960E94612E9501F9
:10593000D80113964C91B601CE0101960E942D2FED
:105940006F960FB6F894DEBF0FBECDBFDF91CF913B
:105950001F910F91FF90EF90DF90CF90BF90AF908D
:105960009F900895CF92DF92EF92FF920F931F9333
:10597000CF93DF93CDB7DEB72A970FB6F894DEBF8B
:105980000FBECDBF7C016A01FC0180A1811123C043
:105990008B0120E430E041E050E0B701CE010196F8
:1059A0000E94A92B8AE0FE013196D60101900D924A
:1059B0008A95E1F7F601828180FF04C08681978194
:1059C00097FD07C0F6018481F701878F81E080A3EE
:1059D00002C081E001C080E02A960FB6F894DEBFD5
:1059E0000FBECDBFDF91CF911F910F91FF90EF9030
:1059F000DF90CF900895DF92EF92FF920F931F9365
:105A0000CF93DF93CDB7DEB72A970FB6F894DEBFFA
:105A10000FBECDBF7C01D42EFC012389348941897E
:105A200052898B01BC01CE0101960E94A92B8AE00C
:105A3000FE013196D701559601900D928A95E1F7B6
:105A4000F701878980FF04C0838D948D97FD0BC07B
:105A5000F701818D978D891731F0811106C081E0A2
:105A6000D11004C002C081E001C080E02A960FB6C8
:105A7000F894DEBF0FBECDBFDF91CF911F910F9184
:105A8000FF90EF90DF9008958F929F92AF92BF9218
:105A9000CF92DF92EF92FF920F931F93CF93DF93FA
:105AA000CDB7DEB72E970FB6F894DEBF0FBECDBFD1
:105AB0007C016B015A014901FC012585368547852A
:105AC00050892F5F3F4F4F4F5F4F2587368747875E
:105AD000508BBC01CE0109960E943D2FF70181A198
