:100000000C943B040C947F3B0C94B03B0C94E13B70
:100010000C94123C0C94433C0C94743C0C94A53C02
:100020000C94D63C0C946C040C946C040C946C04EE
:100030000C946C040C946C040C946C040C9483313C
:100040000C946C040C946C040C946C040C946C0470
:100050000C946C040C946C040C946C040C94193D7A
:100060000C946C040C94F8350C942E360C946C049F
:100070000C946C040C946C040C946C040C946C0440
:100080000C946C040C946C040C946C040C946C0430
:100090000C94A5360C94DB360C946C040C946C0414
:1000A0000C946C040C946C040C946C040C946C0410
:1000B0000C946C040C946C040C9406330C94753200
:1000C0000C9468330C946C040C946C040C945237AC
:1000D0000C9488370C946C040C94FF370C943538CE
:1000E0000C946C04593B233B2B3B373B443B653B17
:1000F000723B5A3E5D3E4C3E503E563E943E613E03
:10010000653E6B3E6F3E733E793E7D3E813E943E42
:10011000873E8B3E8F3E084AD73B3BCE016E84BC68
:10012000BFFDC12F3D6C74319ABD56833DDA3D0051
:10013000C77F11BED9E4BB4C3E916BAAAABE00009A
:1001400000803F05A84CCDB2D44EB93836A9020C78
:1001500050B9918688083CA6AAAA2ABE0000008051
:100160003F000C94AC380C9446160C94F3290C9474
:1001700022350C94EE290C946B3E0C9474040C9470
:10018000BD340C946E040C9409120C94EC110C9474
:10019000DD310C94613E0C9484090C9410210C9474
:1001A000793E0C94593B0C94C91B0C945F380C9409
:1001B000AE150C94653E0C9458360C94CE310C94CC
:1001C0001B340C94503E0C94443B0C949B340C9484
:1001D00062360C94B4050C94EA150C94DD160C945C
:1001E000C31B0C9410160C9470090C94F8290C94F1
:1001F000B2370C94FE1A0C94813E0C94723B0C9412
:100200007D3E0C9479290C9405120C94943E0C9428
:1002100050210C94B8310C944C3E0C94BD290C9494
:10022000873E0C943D340C946F3E0C94653B0C94CB
:100230002B3B0C9463170C9429340C94AE050C944E
:100240000E340C945D3E0C94233B0C94D21B0C9406
:100250005D170C948B3E0C94733E0C94373B0C94BE
:1002600080290C94CB1B0C945A3E0C9405370C94AB
:100270000F370C94BC370C9469380C94563E0C9490
:100280008F3E0C944917496E6974206175746F70C4
:10029000696C6F7420636F6D706C65746500496E76
:1002A0006974206175746F70696C6F742E2E73653C
:1002B00074206C696D6974732E2E00496E69742008
:1002C0006175746F70696C6F742E2E7374617274C3
:1002D000205049442E2E00496E6974206175746F58
:1002E00070696C6F742E2E002C002C4C4C333A002D
:1002F0002C4C55333A002C4C4C323A002C4C553295
:100300003A002C4C4C313A002C4C55313A002C53CD
:10031000544B3A002C5342333A002C5342323A00A9
:100320002C5342313A002C5342303A002C47505360
:100330003A002C575A4A3A005549443A4D454741EC
:100340002C4150583A0021215645523A312E392C31
:10035000002C002C57534B3A002C5753583A002C82
:100360004141443A002C4141453A002C41414E3A2A
:10037000002C4141523A002C4141583A002C415046
:10038000523A002C4150433A002C4150543A002C30
:100390004150533A005549443A4D4547412C41504C
:1003A000583A0021215645523A312E392C005365D6
:1003B00074757020636F6D706C6574652E2E0053BC
:1003C000746172742074696D65722E2E00537461AD
:1003D00072742077696E642E2E00537461727420DB
:1003E0006E6D6561205478202D206F6E2070696ECF
:1003F000732034362054782C2034382052782061F1
:100400007420005374617274206E6D65612054789D
:100410002E2E005374617274206E6D6561205278C7
:10042000202D2073657269616C3420617420004353
:10043000535F50494E204F5554505554203D20484D
:100440004947480043535F50494E207365742074F8
:100450006F204F555450555400537461727420539B
:1004600050492075617274732E2E0053746172743A
:10047000206E6D6561205278202D20736572696150
:100480006C3320617420005374617274206E6D654A
:1004900061205278202D2073657269616C32206171
:1004A00074200053746172742073656174616C6BA5
:1004B000202D2073657269616C322061742034389C
:1004C00030300053746172742047505320527820AA
:1004D0002D2073657269616C312061742000496E52
:1004E000697469616C697A696E672E2E0024504DBB
:1004F000544B3235312C0024504D544B3331342C75
:10050000302C312C302C312C312C312C302C302C07
:10051000302C302C302C302C302C302C302C302CFB
:10052000302C302C302A32380024504D544B32328B
:10053000302C313030302A31460053657474696E86
:10054000672047505320746F204D54454B5F333321
:100550003239002C382C312C302A0024505352468A
:100560003130302C312C0024505352463130352C50
:10057000302A33460024505352463130332C303425
:100580002C30302C30312C30312A32310024505371
:1005900052463130332C30332C30302C32302C302A
:1005A000312A32350024505352463130332C303208
:1005B0002C30302C30352C30312A3233002450533B
:1005C00052463130332C30302C30302C30352C30FA
:1005D000312A32310024505352463130332C3031DD
:1005E0002C30302C30302C30312A3235002450530E
:1005F00052463130332C30352C30302C30302C30CA
:10060000312A32310024505352463130352C312AB0
:1006100033450053657474696E67204750532074E6
:100620006F20454D5F343036410053657474696EF8
:10063000672047505320746F2047454E4552494329
:100640000053657474696E672047505320636F6E62
:100650006669672E2E2E0020202064656661756C09
:100660007420746F20343830302E2E004641494CAF
:100670004544004F4B206174200020202074727983
:10068000206175746F62617564202E2E2000202019
:1006900064657465637465642070756C736520723D
:1006A000617465203D20002C542A002448434844AE
:1006B000542C002C4E2C412A002E302C522C00247D
:1006C00057494D57562C0053504920696E69742084
:1006D000636F6D706C6574650053504920554152CD
:1006E00054207265736574005350492073746172AD
:1006F000746564004D756C746953657269616C3A18
:100700003A626567696E0000000A0B02090C0D0E63
:1007100008070304010000000000000000000000C2
:1007200000000000000000000000000000000000C9
:100730000000001211100000000000000000000086
:100740000000000000000000000000000001021096
:1007500020200808102040102040800201020108DB
:10076000040201010204081020408080402010088B
:1007700004020180040201804020100804020108E4
:100780000402010102040810204080010204081044
:100790002040800505050507050808080802020233
:1007A000020A0A080804040404010101010101010C
:1007B000010303030303030303040707070C0C0CE3
:1007C0000C0C0C0C0C0202020206060606060606BB
:1007D000060B0B0B0B0B0B0B0B0000200023002652
:1007E0000029002C002F0032000001000003010648
:1007F00001090100002200250028002B002E0031F5
:1008000000340002010000050108010B0100002175
:1008100000240027002A002D0030003300010100D1
:1008200000040107010A014E414E494E49545949FD
:100830004E46CDCCCC3D0AD7233C17B7D13877CC28
:100840002B329595E6241FB14F0A0000204100008D
:10085000C84200401C4620BCBE4CCA1B0E5AAEC546
:100860009D747009DD16FE1A102162360F37BC37F1
:1008700069388409491711241FBECFEFD1E2DEBFCA
:10088000CDBF00E00CBF13E0A0E0B2E0ECEDFEE86D
:1008900000E00BBF02C007900D92A03BB107D9F753
:1008A0002EE0A0EBB3E001C01D92A338B207E1F740
:1008B00018E0C2E7D8E000E006C022970109FE0177
:1008C0000BBF0E94AB43C236D10780E00807A9F7EF
:1008D0000E94083D0C945C470C9400002DE032E02F
:1008E000FC013183208308952DE032E0FC01318347
:1008F00020830C94173DFC01CB012DE032E03183C5
:10090000208373836283148240E050E0BA010E9426
:10091000F50F61E088E10E94953E61E08AE10E9466
:10092000953E61E08CE10E94953E61E08EE10E947F
:10093000953E60E082E40C94953ECF92DF92EF9278
:10094000FF92CF93DF93EC018A819B810E943C113F
:10095000882389F08A819B810E94B90D6B017C01FB
:100960000E94633D21E0C616D706E806F90608F0A6
:1009700020E0822F01C080E0DF91CF91FF90EF90C7
:10098000DF90CF900895CF92DF92EF92FF92CF93B6
:10099000DF93EC010E949D048823A9F10E94633D2E
:1009A0006B017C018A819B810E94B30DC61AD70A14
:1009B000E80AF90A89EEC81683E0D806E104F104D2
:1009C000C0F16C8188E10E94CE3E6C818AE10E9478
:1009D000CE3E6C818CE10E94CE3E6C818EE10E9405
:1009E000CE3E8C8191E089278C830E94633DAB01D0
:1009F000BC018A819B81DF91CF91FF90EF90DF90C6
:100A0000CF900C94F50F60E088E10E94CE3E60E04C
:100A10008AE10E94CE3E60E08CE10E94CE3E60E022
:100A20008EE1DF91CF91FF90EF90DF90CF900C940B
:100A3000CE3EDF91CF91FF90EF90DF90CF90089561
:100A4000CF92DF92EF92FF92CF93DF93EC018A81F6
:100A50009B810E94F00F882311F18A819B810E9463
:100A6000C40F18161906DCF48A819B810E94D00FEE
:100A70006B017C018A819B810E94C40FBC01882785
:100A800077FD8095982F0E94F3409B01AC01C70130
:100A9000B6010E945442181614F461E001C060E0EF
:100AA0008A819B81DF91CF91FF90EF90DF90CF9073
:100AB0000C9479110F931F93CF93DF93EC0180E493
:100AC0000E941C3E8C018A819B810E94940F081712
:100AD00019074CF08A819B810E94880F801791072B
:100AE00014F060E001C061E08A819B810E94E21005
:100AF00081E40E941C3E8C018A819B810E94A60F8A
:100B0000081719073CF08A819B810E949A0F801771
:100B1000910714F461E001C060E08A819B810E942A
:100B2000F11082E40E941C3E8C018A819B810E940C
:100B3000B80F081719073CF08A819B810E94AC0FFF
:100B40008017910714F461E001C060E08A819B8105
:100B5000DF91CF911F910F910C94001125E132E0AC
:100B6000FC0131832083089525E132E0FC013183CB
:100B700020830C94173D2F923F924F925F926F9279
:100B80007F928F929F92AF92BF92CF92DF92EF921D
:100B9000FF920F931F93CF93DF93CDB7DEB72897C4
:100BA0000FB6F894DEBF0FBECDBF1C016A017B01FA
:100BB00009831A832B833C83FC01828193810E94E9
:100BC000EF0D9B01AC01C701B6010E948B3F2B01C9
:100BD0003C01F101828193810E94EF0D9B01AC01E8
:100BE000C701B6010E948A3F4B015C01F10182817D
:100BF00093810E94EF0D9B01AC0169817A818B8109
:100C00009C810E948B3F6B017C01F1018281938169
:100C10000E94EF0D9B01AC0169817A818B819C81DF
:100C20000E948A3F69837A838B839C83F10182814E
:100C300093810E94F50D6D837E838F83988724E8CE
:100C40003AEB4CE358E3C301B2010E948A3F2D8185
:100C50003E814F8158850E94544218166CF4F10170
:100C6000828193810E94E10D9B01AC01C301B2011D
:100C70000E94514087FD8CC0F101828193810E94C6
:100C8000E10D2B013C0124E83AEB4CE358E3C501AC
:100C9000B4010E948B3FA30192010E94514087FF43
:100CA0000EC0F101828193810E94F50D9B01AC0180
:100CB000C501B4010E94544218160CF471C0F10130
:100CC000828193810E94FB0D4B015C0124E83AEB89
:100CD0004CE358E3C701B6010E948A3FA501940185
:100CE0000E94544218166CF4F101828193810E9493
:100CF000C50D9B01AC01C701B6010E94514087FDA3
:100D000057C0F101828193810E94C50D6B017C0166
:100D100024E83AEB4CE358E369817A818B819C812A
:100D20000E948B3FA70196010E94514087FF48C057
:100D3000F101828193810E94FB0D9B01AC016981CD
:100D40007A818B819C810E9454421816CCF549818E
:100D50005A816B817C81F1018281938128960FB643
:100D6000F894DEBF0FBECDBFDF91CF911F910F91E1
:100D7000FF90EF90DF90CF90BF90AF909F908F90BB
:100D80007F906F905F904F903F902F900C94451004
:100D9000B301A201F101828193810E942B106CCFDB
:100DA000B501A401F101828193810E943F1087CF98
:100DB000B701A601F101828193810E940F10A1CF9A
:100DC00028960FB6F894DEBF0FBECDBFDF91CF914E
:100DD0001F910F91FF90EF90DF90CF90BF90AF9059
:100DE0009F908F907F906F905F904F903F902F904B
:100DF00008958F929F92AF92BF92CF92DF92EF921F
:100E0000FF920F931F93CF93DF93EC016A017B0155
:100E10004801590140E050E064EB72E48A819B8113
:100E20000E942B1040E050E064EB72EC8A819B81C1
:100E30000E943F1040E050E064E373E48A819B81AC
:100E40000E940F1040E050E064E373EC8A819B81C4
:100E50000E9445108A819B810E94E70D2DE93BEF9E
:100E600046E157E30E945F42AB01BC018A819B814E
:100E70000E94391095018401B701A601CE010E949C
:100E8000BB05DF91CF911F910F91FF90EF90DF9005
:100E9000CF90BF90AF909F908F900895CF92DF92A8
:100EA000EF92FF920F931F93CF93DF93EC018B018F
:100EB00085E192E0998388837B836A83CB010E94DA
:100EC000D30D6B017C01C8010E94CB0DAB01BC01AD
:100ED00097018601CE010E94F906DF91CF911F9103
:100EE0000F91FF90EF90DF90CF9008954F925F9217
:100EF0006F927F928F929F92AF92BF92CF92DF922A
:100F0000EF92FF920F931F93CF93DF9300D01F9226
:100F1000CDB7DEB74C01FC01828193810E94E60FC0
:100F2000882309F4D2C00E94633D2B013C01F401E7
:100F3000828193810E94570F461A570A680A790ADC
:100F4000F1EE4F16F3E95F06F4E06F06710438F036
:100F5000F401828193810E94E60F81118DC0F4011A
:100F6000828193810E94770F882309F4AEC0F40137
:100F7000828193810E94670F5B016C01F401828181
:100F800093810E945F0F2B013C01F40182819381C8
:100F90000E94D30D9B01AC01F401828193812983CE
:100FA0003A834B835C830E94CB0D830172012981BC
:100FB0003A814B815C810E947918AB01BC01F4013C
:100FC000828193810E940910F401828193810E94A1
:100FD000BF0D2B013C01F401828193810E94DB0D46
:100FE0009B01AC01C301B2010E945442181664F483
:100FF000F401828193810E94BF0DAB01BC01F40119
:10100000828193810E942510F401828193810E9444
:10101000670F2B013C01F401828193810E945F0FD5
:10102000AB01BC0193018201C4010E94BB05F40124
:10103000828193810E94E60F882369F1F401828105
:1010400093810E94BF0D2B013C01F40182819381A9
:101050000E94E70D9B01AC01C301B2010E94544202
:101060001816CCF440E050E0BA01F401828193817B
:101070000E94FB0F61E010C040E050E0BA01F401B3
:10108000828193810E94FB0F61E0F4018281938150
:101090000E94061064CF60E0F401828193810F907A
:1010A0000F900F900F90DF91CF911F910F91FF90B4
:1010B000EF90DF90CF90BF90AF909F908F907F90F8
:1010C0006F905F904F900C9406100F900F900F90C0
:1010D0000F90DF91CF911F910F91FF90EF90DF90D4
:1010E000CF90BF90AF909F908F907F906F905F90C8
:1010F0004F900895CF93DF93EC018A819B810E94EA
:101100005F0FAB01BC018A819B810E9415108A810F
:101110009B810E94670FAB01BC018A819B810E9469
:101120001D1040E050E0BA018A819B81DF91CF9190
:101130000C9425100F931F93CF93DF93EC018B0139
:1011400081960E94772118A30F8FDF91CF911F9175
:101150000F9108958F929F92AF92BF92CF92DF929C
:10116000EF92FF920F931F93CF93DF93CDB7DEB72C
:10117000E7970FB6F894DEBF0FBECDBF4C01FC0160
:10118000168E158E148E138E67ED72E080EF9BE045
:101190000E942C39F401878D90A10E94DA11AB01D5
:1011A000BC0189EF93E00E94A62A64E670E080E02B
:1011B00090E00E94923DF401878D90A10E94070E5D
:1011C00020E030E044E354E40E948B3F6B017C015B
:1011D000F4016083718382839383878D90A10E9441
:1011E000020F9B01AC01C701B6010E948B3FF401C5
:1011F0006483758386839783878D90A10E94010EF7
:10120000F401608771878287938711E0108B6BEB05
:1012100072E080EF9BE00E942C39A401485F5F4F91
:10122000B4016C5F7F4F1F921F938FE38F9385E014
:101230008F938EE18F9388EB8F938AE0A82E87EDB2
:10124000B82E83EAC82E8DE3D82E16E6E12EFE2CAA
:1012500006EE1EE39401CE0101960E94AD2487E3C1
:10126000FE013196D401919601900D928A95E1F795
:101270006EE972E080EF9BE00E942C39F1E28F0E64
:10128000911C00E010E024E832E440E050E0BA01B4
:10129000C4010E94952364E670E0C4010E944D23BE
:1012A00066E872E080EF9BE00E942C390F900F906F
:1012B0000F900F900F900F90E7960FB6F894DEBF47
:1012C0000FBECDBFDF91CF911F910F91FF90EF9097
:1012D000DF90CF90BF90AF909F908F90089508952A
:1012E00040E063E489EF93E00E94342969EF73E002
:1012F00084ED93E00E94812F20E841E364ED73E0E8
:1013000082EB93E00C94FD2A82EB93E00C943D2B4E
:101310000F931F93CF93DF93EC018C010F5E1F4F50
:1013200089EF93E00E94F329892B21F189EF93E063
:101330000E94EE292D8D3E8DFE01E20FF31F818B61
:101340002F5F3F4F3E8F2D8F8A3029F08D3019F05F
:10135000213331052CF3FE01E20FF31F118AB8018E
:1013600080EF9BE00E943E391E8E1D8EF801118297
:101370001082D6CFDF91CF911F910F9108954F9298
:101380005F926F927F92AF92BF92CF92DF92EF9275
:10139000FF920F931F93CF93DF9300D000D0CDB770
:1013A000DEB75C01FC01878D90A10E94631185016D
:1013B0000F5D1F4F882309F4DEC0C5010E94880914
:1013C00061E070E0C8010E945B24F501878D90A167
:1013D0000E94070E20E030E044E354E40E948B3F7B
:1013E0006B017C01F5016083718382839383878D18
:1013F00090A10E94020F9B01AC01C701B6010E949F
:101400008B3FF5016483758386839783C8010E94AF
:101410007821F50124853585468557856085718558
:10142000828593850E948A3F6B017C0120E030E039
:10143000A9010E945442181624F0F7FAF094F7F824
:10144000F094F501878D90A10E94430FBC0188277D
:1014500077FD8095982F0E94F3409B01AC01C70156
:10146000B6010E94544218160CF09EC0F501808906
:10147000078D10A1C084D184E284F3844484558410
:1014800066847784A3019201882309F1C701B6011C
:101490000E94544218160CF1A3019201C701B60133
:1014A0000E94514087FF3FC0F501108AC8010E9489
:1014B000490FBC01882777FD8095982F0E94F34043
:1014C0009B01AC01C701B6010E948A3F27C0C7013A
:1014D000B6010E94514087FF06C0F501C486D5863B
:1014E000E686F78620C0A3019201C701B6010E94DB
:1014F00054421816C4F481E0F501808BC8010E94A3
:10150000490FBC01882777FD8095982F0E94F340F2
:101510009B01AC01C701B6010E948B3FF5016487B6
:10152000758786879787F501448555856685778514
:10153000878D90A10E947A10F501878D90A10E945D
:101540004F0F2B013C0120E030E048EC52E4F50164
:1015500064857585868597850E945F420E94C0409C
:10156000AB01BC01E12CF12C9301820182EB93E0F1
:101570000E94BC2D19C060E070E0C80126960FB62D
:10158000F894DEBF0FBECDBFDF91CF911F910F91B9
:10159000FF90EF90DF90CF90BF90AF907F906F90D3
:1015A0005F904F900C945B2426960FB6F894DEBFA4
:1015B0000FBECDBFDF91CF911F910F91FF90EF90A4
:1015C000DF90CF90BF90AF907F906F905F904F90E3
:1015D0000895FC01108211821282138214821582F6
:1015E00016821782108A118A128A138A148A158A1F
:1015F000168A178A108E118E128E138E148E40E06A
:1016000050E064EB72E4458F568F678F70A340E023
:1016100050E064EB72EC41A352A363A374A340E0D7
:1016200050E064E373E445A356A367A370A740E0CA
:1016300050E064E373EC41A752A763A774A715A613
:1016400083E482AB13AA14AA15AA16AA40E050E0BC
:1016500064E072E447AB50AF61AF72AF13AE40E0ED
:1016600050E068EC72E444AF55AF66AF77AFDF018E
:10167000A05CBF4F40E050E060E271E44D935D93A9
:101680006D937C93139714964D935D936D937C9318
:101690001397149640E850E060E070E04D935D933E
:1016A0006D937C9313971086118612861386148689
:1016B00015861686178614961C9211961D921D92F9
:1016C0001D921C92139714961D921D921D921C92AE
:1016D0001397149686E58C9311961D921D921D9278
:1016E0001C92139714961D921D921D921C92139793
:1016F00014961D921D921D921C92139714961D9282
:101700001D921D921C92139714961C9211961C9276
:1017100011961C9211961C92A55ABF4F21E034E0FD
:1017200011963C932E9312968FEF9FEF11969C93F8
:101730008E93AC55B1091C92A25ABF4F11963C939F
:101740002E93129611969C938E93AF55B1091C92CD
:10175000AF59BF4F11963C932E93129611969C93BE
:101760008E93A256B1091D921D921D921C92139741
:1017700014961D921D921D921C9213971496119609
:101780001C921E92129611961C921E9212961196FF
:101790001C921E9212961C9211961D921D921D92E1
:1017A0001C92139714961D921D921D921C921397D2
:1017B000149640E050E060E272E44D935D936D93C7
:1017C0007C93139714961C9211961C921196119665
:1017D0001C921E92129611961C921E92169640E032
:1017E00050E060E87FE34D935D936D937C93139796
:1017F00014961C92119640EE53E964E070E04D930C
:101800005D936D937C93139714961C9211961C9282
:10181000119683E690E011969C938E9312961C92FB
:10182000119640E050E46CE176E44D935D936D9346
:101830007C931397149611961C921E92129681E037
:1018400090E011969C938E93129640E056E960E0EA
:1018500070E04D935D936D937C93139714964D9325
:101860005D936D937C931397149640E855E260E086
:1018700070E04D935D936D937C93139714964D9305
:101880005D936D937C93139714964D935D936D9335
:101890007C93139718964D935D936D937C93139758
:1018A00014961C92E053FF4F8DE090E0918380836B
:1018B00008950F931F93CF93DF938C01EB0166E4A0
:1018C00073E0CE010E94EA3868E373E0CE010E9423
:1018D000EA3862E373E0CE010E94EA38F801ED5580
:1018E000FF4F608171814AE050E0CE010E94F339E0
:1018F0006CE273E0CE010E94EA38F801EB55FF4F2D
:10190000608171814AE050E0CE010E94F33966E2C5
:1019100073E0CE010E94EA38F801E955FF4F40819B
:101920005181628173812AE030E0CE010E94A939A1
:1019300060E273E0CE010E94EA38F801E555FF4FFE
:1019400040815181628173812AE030E0CE010E94A2
:10195000A9396AE173E0CE010E94EA38F801E15545
:10196000FF4F40815181628173812AE030E0CE01D6
:101970000E94A93964E173E0CE010E94EA38F801BF
:10198000ED54FF4F40815181628173812AE030E044
:10199000CE010E94A9396EE073E0CE010E94EA38C0
:1019A000F801ED53FF4F608170E04AE050E0CE0156
:1019B0000E94F33968E073E0CE010E94EA38F80132
:1019C000EC53FF4F608171814AE050E0CE010E94EC
:1019D000F33962E073E0CE010E94EA38F801EA537D
:1019E000FF4F608171814AE050E0CE010E94F339DF
:1019F0006CEF72E0CE010E94EA38F801E853FF4F25
:101A0000608171814AE050E0CE010E94F33966EFB7
:101A100072E0CE010E94EA38F801E653FF4F608180
:101A200071814AE050E0CE010E94F33960EF72E02C
:101A3000CE010E94EA38F801E453FF4F60817181C2
:101A40004AE050E0CE010E94F3396AEE72E0CE0126
:101A50000E94EA38F801E253FF4F608171814AE049
:101A600050E0CE010E94F33968EE72E0CE010E9490
:101A70002C3980E090E0DF91CF911F910F91089574
:101A80000F931F93CF93DF93EC01FC01E053FF4FC3
:101A9000408160E070E08EE29BE00E94B431FE0184
:101AA000EF52FF4F408161E070E08EE29BE00E94C8
:101AB000B431C558DF4F64E070E049918B010F5F8E
:101AC0001F4F8EE29BE00E94B4310935110511F0E1
:101AD000B801F3CFDF91CF911F910F910895EF924D
:101AE000FF920F931F93CF93DF931F921F92CDB757
:101AF000DEB78C0160E070E08EE29BE00E94B131C5
:101B0000898361E070E08EE29BE00E94B1318A83BC
:101B1000F801E053FF4F29813A8180819181281794
:101B2000390719F0C8010E94400D05581F4F64E0A5
:101B300070E07B018FEFE81AF80A8EE29BE00E94CA
:101B4000B131F80181938F01F9E5EF16F10411F03D
:101B5000B701EFCF0F900F90DF91CF911F910F91B1
:101B6000FF90EF900895FC016081718182819381E3
:101B70000895FC0164817581868197810895FC0137
:101B800064897589868997890895FC0165A176A184
:101B900087A190A5089585589F4FFC0160817181B0
:101BA00082819381089581589F4FFC0160817181EA
:101BB000828193810895FC01608D718D828D938D5A
:101BC0000895FC01658D768D878D90A108958D57C0
:101BD0009F4FFC0160817181828193810895FC0196
:101BE00060897189828993890895FC0161A172A13C
:101BF00083A194A10895FC0161A572A583A594A574
:101C00000895FC0167A970AD81AD92AD0895FC0106
:101C100063A974A985A996A90895FC0122A927356D
:101C200059F4EA58FF4F60817181882777FD8095CC
:101C3000982F0E94F3400895FC016085718582858C
:101C400093850895EF92FF920F931F93CF93DF93A5
:101C50008C01EB0163EA73E0CE010E94EA3865E98A
:101C600073E0CE010E94EA38F80165A570E04AE011
:101C700050E0CE010E94F3396FE873E0CE010E947C
:101C8000EA38F80162A9CE010E941139F80185A550
:101C90008823A9F169E873E0CE010E94EA38F801CF
:101CA00043A954A965A976A922E030E0CE010E949B
:101CB0000C3B63E873E0CE010E94EA38C8010E9441
:101CC0000D0EAB01BC0122E030E0CE010E940C3BC6
:101CD0006DE773E0CE010E94EA3820E030E044E096
:101CE00052E4F80167A970AD81AD92AD0E948A3FC0
:101CF000AB01BC0122E030E0CE010E940C3B67E763
:101D000073E0CE010E94EA387801F7E8EF0EF11C8B
:101D1000F701608170E04AE050E0CE010E94F339A3
:101D200061E773E0CE010E94EA38F801ED57FF4FFA
:101D3000408151816281738122E030E0CE010E94B6
:101D40000C3BF7018081882389F16BE673E0CE01BB
:101D50000E94EA38F801E558FF4F408151816281C5
:101D6000738122E030E0CE010E940C3B65E673E017
:101D7000CE010E94EA38F801E158FF4F40815181BD
:101D80006281738122E030E0CE010E940C3B6FE55E
:101D900073E0CE010E94EA38F801448955896689CA
:101DA000778922E030E0CE010E940C3B69E573E0C8
:101DB000CE010E94EA38F801E256FF4F608170E0E0
:101DC0004AE050E0CE010E94F33963E573E0CE01B2
:101DD0000E94EA38F801E456FF4F608171814AE0C1
:101DE00050E0CE010E94F33961E573E0CE010E941C
:101DF0002C3980E090E0DF91CF911F910F91FF90FF
:101E0000EF900895CF92DF92EF92FF92CF93DF93FE
:101E1000EC010E940D0E9B01AC016BA97CA98DA960
:101E20009EA90E948A3F6B017C0120E030E044E3E0
:101E300053E40E94544218167CF020E030E044E362
:101E400053ECC701B6010E94514087FF0AC020E051
:101E500030E044EB53E408C020E030E044EB53ECC6
:101E600003C020E030E0A901C701B6010E948B3F0A
:101E70006EA77FA788AB99ABDF91CF91FF90EF90D2
:101E8000DF90CF90089587579F4FFC01808191810B
:101E9000089585579F4FFC01808191810895835754
:101EA0009F4FFC0160817181828193810895835BE2
:101EB0009F4FFC01608171818281938108958A5ACC
:101EC0009F4FFC0160817181828193810895865AC0
:101ED0009F4FFC01608171818281938108958F56AB
:101EE0009F4FFC01608171818281938108958B5A9B
:101EF0009F4FFC0180810895FC016085718582857A
:101F000093850895FC016485758586859785089578
:101F10008C539F4FFC018081918108958C539F4F7A
:101F2000FC017183608308958A539F4FFC01808177
:101F30009181089588539F4FFC018081918108957C
:101F400088539F4FFC0171836083089586539F4F90
:101F5000FC0180819181089584539F4FFC01808111
:101F60009181089584539F4FFC017183608308958C
:101F700082539F4FFC018081918108958D559F4F21
:101F8000FC0180819181089584569F4FFC018081DE
:101F9000918108958A589F4FFC0180819181089515
:101FA00080599F4FFC0160817181828193810895E6
:101FB00081569F4FFC0160817181828193810895D8
:101FC0008C589F4FFC0180819181089589579F4FC4
:101FD000FC0180810895845B9F4FFC0180810895FE
:101FE00082569F4FFC0180810895FC0140835183FC
:101FF000628373830895FC014483558366837783EA
:10200000089589579F4FFC0160830895FC01648FF8
:102010000895FC01448B558B668B778B0895FC01EA
:1020200045A356A367A370A7089585589F4FFC0149
:102030004083518362837383089581589F4FFC01CD
:1020400040835183628373830895FC01408F518FD5
:10205000628F738F0895FC01458F568F678F70A331
:1020600008958D579F4FFC01408351836283738392
:102070000895FC01408B518B628B738B0895FC019A
:1020800041A352A363A374A30895FC0141A752A7DF
:1020900063A774A70895CF93DF93EC01673511F020
:1020A000633429F56AAB673581F4FE01EA58FF4FC6
:1020B00060817181882777FD8095982F0E94F34079
:1020C0006BAB7CAB8DAB9EAB0AC0633441F44885EF
:1020D00059856A857B854BAB5CAB6DAB7EAB40E0D5
:1020E00050E064E072E44FAB58AF69AF7AAFDF9174
:1020F000CF910895FC0147AB50AF61AF72AF089527
:10210000CF93DF93EC01CB01BA010E94C040CB0119
:1021100088599E4F68E671E00E944543BC018827BC
:1021200077FD8095982F0E94F3406BAB7CAB8DAB15
:102130009EABDF91CF9108958E599F4FFC01408354
:102140005183628373830895845B9F4FFC01608396
:102150000895835B9F4FFC014083518362837383A7
:1021600008958A5A9F4FFC01408351836283738391
:102170000895865A9F4FFC01408351836283738385
:102180000895825A9F4FFC01408351836283738379
:1021900008958B5A9F4FFC01608308958F5A9F4F7B
:1021A000FC0140835183628373830895FC0140875F
:1021B0005187628773870895FC0144875587668736
:1021C00077870895CF93DF931F92CDB7DEB76983EA
:1021D000298187599F4FFC0120830F90DF91CF9178
:1021E0000895CF93DF931F92CDB7DEB7698329811E
:1021F00086599F4FFC0120830F90DF91CF91089566
:10220000CF93DF931F92CDB7DEB7698329818559BC
:102210009F4FFC0120830F90DF91CF9108958D5542
:102220009F4FFC0171836083089582569F4FFC018C
:102230006083089584569F4FFC01718360830895E5
:102240008A589F4FFC0171836083089588589F4F7F
:10225000FC0171836083089580599F4FFC01408386
:10226000518362837383089584599F4FFC01408397
:102270005183628373830895FC01E658FF4F2081E8
:102280002223F9F0739720812223D9F031972081FE
:102290002223B9F0FC01248D222399F023AD2223BF
:1022A00081F0E859FF4F2081222359F03196208197
:1022B000222339F031962081222319F03196808132
:1022C000089580E00895FC0185A508951F93CF939C
:1022D000DF93EC01162F6AA90E944B101DA7DF9116
:1022E000CF911F9108958C589F4FFC01718360839B
:1022F000089586589F4FFC01608308958B559F4F2A
:10230000FC018081918108958B559F4FFC01718361
:102310006083089589559F4FFC016081718182819E
:102320009381089589559F4FFC01408351836283B7
:102330007383089585559F4FFC016081718182816F
:102340009381089585559F4FFC014083518362839B
:102350007383089581559F4FFC0160817181828153
:102360009381089581559F4FFC014083518362837F
:10237000738308958D549F4FFC0160817181828128
:10238000938108958D549F4FFC0140835183628354
:102390007383089589549F4FFC016081718182810C
:1023A0009381089585549F4FFC01608171818281E2
:1023B0009381089581549F4FFC01608171818281D6
:1023C000938108958D539F4FFC01808108958D5313
:1023D0009F4FFC016083089581E08093B00A809153
:1023E000AE0A9091AF0A01969093AF0A8093AE0A1D
:1023F0008091AE0A9091AF0A64E170E00E9445437B
:102400009093AF0A8093AE0A08958BEF94E00C94FA
:10241000631E8BEF94E00C94A51E8CED99E00E9456
:102420006F0D8CED99E00E948A11AB01BC0126E092
:1024300080EF9BE00E947A356EED74E080EF9BE0C8
:102440000E942C3985EF94E00E94181B63EC74E025
:1024500080EF9BE00E94EA388CED99E00E949A118F
:10246000AB01BC012AE030E080EF9BE00E94FB3929
:102470008CED99E00E949A11AB01BC0126E08DE839
:102480009CE00E947A358CED99E00E94E21188234D
:1024900061F063EA74E080EF9BE00E942C3927E052
:1024A00040EC52E160E070E019C067E874E080EF52
:1024B0009BE00E94EA388CED99E00E94AA11AB01E2
:1024C000BC012AE030E080EF9BE00E94FB398CEDFC
:1024D00099E00E94AA11AB01BC0126E08AE29DE0CE
:1024E0000E947A356BE674E080EF9BE00E94EA3848
:1024F0008CED99E00E94BA11AB01BC012AE030E0FA
:1025000080EF9BE00E94FB398CED99E00E94BA11AC
:10251000AB01BC0126E087EC9DE00E947A3569E5BD
:1025200074E080EF9BE00E942C3968EE73E080E05D
:1025300090E00E94923D61E083E40E94953E64E455
:1025400074E080EF9BE00E942C3964E670E080E04C
:1025500090E00E94923D61E083E40E94CE3E6FE2F3
:1025600074E080EF9BE00E942C3963E174E080EF1F
:102570009BE00E94EA388CED99E00E94CA11AB0101
:10258000BC012AE030E080EF9BE00E94FB398CED3B
:1025900099E00E94CA11AB01BC0187EE94E00E9451
:1025A000A62A64E670E080E090E00E94923D63E03D
:1025B00074E080EF9BE00E942C3960E080E30E9491
:1025C000953E61E08EE20E94953E6AED73E080EFF9
:1025D0009BE00E94EA388CED99E00E94D211AB0199
:1025E000BC012AE030E080EF9BE00E94FB398CEDDB
:1025F00099E00E94D211AB01BC018BE999E00E94E5
:10260000E01B8FE894E00E94AA086DEC73E080EF75
:102610009BE00E942C3960E083E00E94953E43E0FD
:1026200050E065E072E181E00E940E3B60E082E0F4
:102630000E94953E43E050E069E072E180E00E9434
:102640000E3B6FEB73E080EF9BE00E942C394CEE69
:1026500051E164E670E080E090E00E9416310E9453
:1026600022316EEA73E080EF9BE00C942C396F927C
:102670007F928F929F92AF92BF92CF92DF92EF9212
:10268000FF920F931F93CF93DF9300D01F921F925F
:10269000CDB7DEB7ADB6BEB66BE673E00E9442457D
:1026A0007C01009709F428C2FC0101900020E9F7A1
:1026B0008F0101501109081B190B0430110508F492
:1026C0001BC2F701808198012450310969018DB640
:1026D0009EB6833209F0ADC144E050E0B701CE01AF
:1026E00001960E945F451D82380135E0631A71082A
:1026F0008DB79EB78C199D090FB6F8949EBF0FBE7B
:102700008DBF0DB71EB70F5F1F4FB7016B5F7F4FB8
:10271000A301C8010E944645F801E60DF71D10828D
:1027200069E172E0CE0101960E944F45892BB1F418
:10273000C8010E94FD4461E0892B09F460E08CED42
:1027400099E00E940110C8010E94FD44019709F020
:10275000CEC18BE894E00E947A08C9C16EE172E0B4
:10276000CE0101960E944F45892BB1F48CED99E082
:102770000E94E70D6B017C01C8010E94F9449B0196
:10278000AC01C701B6010E948B3FAB01BC018CEDCF
:1027900099E00E943110ABC163E272E0CE01019674
:1027A0000E944F45892B51F4C8010E94F944AB01A6
:1027B000BC018CED99E00E94151099C168E272E0AD
:1027C000CE0101960E944F45892B51F4C8010E9409
:1027D000F944AB01BC018CED99E00E941D1087C14A
:1027E0006DE272E0CE0101960E944F45892B61F4A3
:1027F000C8010E94FD4461E0892B09F460E08CED82
:1028000099E00E94661169C162E372E0CE0101960F
:102810000E944F45892BC1F48CED99E00E94070E70
:102820006B017C01C8010E941B450E94F3409B0183
:10283000AC01C701B6010E948B3FAB01BC018CED1E
:1028400099E00E94801049C167E372E0CE010196D1
:102850000E944F45892B39F4F80160818CED99E095
:102860000E944B103AC16CE372E0CE0101960E94C7
:102870004F45892B61F4C8010E94FD4461E0892B1A
:1028800009F460E08CED99E00E94151130C161E41B
:1028900072E0CE0101960E944F45892B49F4C80190
:1028A0000E94FD44BC018CED99E00E941A111FC1E9
:1028B00066E472E0CE0101960E944F45892B49F4EF
:1028C000C8010E94FD44BC018CED99E00E940F11EB
:1028D0000EC16BE472E0CE0101960E944F45892B38
:1028E00049F4C8010E94FD44BC018CED99E00E94AE
:1028F0008E0FFDC060E572E0CE0101960E944F454B
:10290000892B49F4C8010E94FD44BC018CED99E07B
:102910000E94A00FECC065E572E0CE0101960E9416
:102920004F45892B49F4C8010E94FD44BC018CED40
:1029300099E00E94B20FDBC06AE572E0CE01019619
:102940000E944F45892B39F460EF7BE08CED99E0D4
:102950000E94590CC2C06FE572E0CE0101960E9440
:102960004F45892B49F4C8010E94FD44BC018CED00
:1029700099E00E948411BBC064E672E0CE0101962A
:102980000E944F45892B51F4C8010E941B45AB01A1
:10299000BC018CED99E00E949211A9C069E672E039
:1029A000CE0101960E944F45892B51F4C8010E9427
:1029B0001B45AB01BC018CED99E00E94A21197C0B0
:1029C0006EE672E0CE0101960E944F45892B51F4CC
:1029D000C8010E941B45AB01BC018CED99E00E942F
:1029E000B21185C063E772E0CE0101960E944F45A7
:1029F000892B51F4C8010E941B45AB01BC018CED31
:102A000099E00E94C21173C068E772E0CE0101969E
:102A10000E944F45892B09F060C0C8010E94FD4407
:102A200061E0892B09F460E08CED99E00E94E711E8
:102A30005EC043E050E0B701CE0101960E945F45C1
:102A40001C82035011092DB73EB7201B310B0FB666
:102A5000F8943EBF0FBE2DBF0DB71EB70F5F1F4FBF
:102A6000B7016C5F7F4FA601C8010E944645F8017F
:102A7000EC0DFD1D10826DE772E0CE0101960E9403
:102A80004F45892B49F4C8010E94F944AB01BC01B0
:102A90008CED99E00E94D61061E872E0CE010196BB
:102AA0000E944F45892B49F4C8010E94F944AB01AB
:102AB000BC018CED99E00E94DC1065E872E0CE016B
:102AC00001960E944F45892B41F4C8010E94FD44A4
:102AD000BC018CED99E00E9426110FB6F8949EBEC1
:102AE0000FBE8DBE6BE673E080E090E0D7CD8CED3D
:102AF00099E00E94400DF1CF0FB6F894BEBE0FBE14
:102B0000ADBE0F900F900F900F900F90DF91CF916F
:102B10001F910F91FF90EF90DF90CF90BF90AF90FB
:102B20009F908F907F906F900895CF93DF93DC01FB
:102B3000FC0101900020E9F7E81BF90B3297EC014A
:102B4000219680E09E012A1B3B0B2E173F0718F4AD
:102B500099918927F7CFDF91CF9108951F93CF9354
:102B6000DF93CDE0D4E014E680EF9BE00E940E34CA
:102B7000892B61F180EF9BE00E94293420910B04A6
:102B800030910C04F901E35FFB4F80832F5F3F4FCF
:102B900030930C0420930B048A3029F08D3019F007
:102BA000233631050CF3F901E35FFB4F10826CE231
:102BB0008DE094E00E94371310920C0410920B04E5
:102BC000FE01812F11928A95E9F7CECFDF91CF9147
:102BD0001F9108958DE89CE00E940E34892BF9F036
:102BE0008DE89CE00E942934682F85EF94E00E94D4
:102BF000601980930A04882369F382E398E00E94B5
:102C0000B225BC018BE999E00E94F11B82E398E0B8
:102C10000E94B225BC0180EF9BE00C943E390895E0
:102C20008AE29DE00E940E34892B79F18CED99E0C7
:102C30000E94E211882351F08AE29DE00E9429342B
:102C4000682F81E794E00E94121DEACF8AE29DE09E
:102C50000E942934682F8AE996E00E94481B8093DD
:102C600009048823E9F28AE996E00E94C01BBC01AE
:102C70008BE999E00E94F11B8AE996E00E94C01B53
:102C8000BC0180EF9BE00C943E39089587EC9DE0F9
:102C90000E940E34892BF9F087EC9DE00E942934C4
:102CA000682F8EEC95E00E94481B809308048823CF
:102CB00069F38EEC95E00E94C01BBC018BE999E0A2
:102CC0000E94F11B8EEC95E00E94C01BBC0180EFBE
:102CD0009BE00C943E39089587EE94E00E94F3291E
:102CE000892BF9F087EE94E00E94EE29682F82E0AC
:102CF00095E00E94481B80930704882369F382E0D3
:102D000095E00E94C01BBC018BE999E00E94F11B79
:102D100082E095E00E94C01BBC0180EF9BE00C9418
:102D20003E3908958091B00A882309F444C08FE8A1
:102D300094E00E94BF098091AE0A9091AF0A809101
:102D4000AE0A9091AF0A65E070E00E944543892B7E
:102D5000B1F48BEF94E00E94091F8BEF94E00E9486
:102D6000981F8BE999E00E94F31B8DEF94E00E947D
:102D7000C30460EF7BE08CED99E00E94220E80910D
:102D8000AE0A9091AF0A6AE070E00E944543892B39
:102D900081F48BE894E00E9476078DEF94E00E9426
:102DA00020058DEF94E00E945A058BE999E00E947E
:102DB000691C1092B00A0C946C168CED99E00E947C
:102DC000E90A10929E0910929D0988EE93E0A0E016
:102DD000B0E080939F099093A009A093A109B093BC
:102DE000A20987E992E090939C0980939B098CED5E
:102DF00099E09093A8098093A70960E070E082E3CE
:102E000098E00E94282560E070E086E697E00E9446
:102E10003F1B60E070E08AE996E00E943F1B60E0A3
:102E200070E08EEC95E00E943F1B60E070E082E075
:102E300095E00E943F1B6CED79E08DEF94E00E94DD
:102E40007B046CED79E08BEF94E00E94231D4CED48
:102E500059E062E378E085EF94E00E946A1741E070
:102E600063E487EE94E00E9434296CED79E08FE80A
:102E700094E00E949A086CED79E08BE894E00E945F
:102E80004E074CED59E06AE27DE081E794E00C9456
:102E90000A1D8BE894E00E94AE058FE894E00E9442
:102EA0006F0985EF94E00E945D178DEF94E00E941A
:102EB0006E048BE999E00C94CB1B2FE832E0FC0107
:102EC0003183208308952FE832E0FC013183208391
:102ED0000C94173DFC018FE892E091838083558329
:102EE0004483738362830895CF92DF92EF92FF92BF
:102EF0001F93CF93DF93162F60E0812F0E94953EA2
:102F000061E0812F0E94CE3EC0E0D4E080E1C82E77
:102F100087E2D82EE12CF12C28E438EE41E050E095
:102F200060E0812F0E94043F161617061806190646
:102F30003CF46C157D058E059F0514F46B017C0136
:102F4000219751F76EE876E080EF9BE00E94EA3827
:102F50002AE030E0B701A60180EF9BE00E94FB3938
:102F60008CE0C816D104E104F104F4F184E1C81640
:102F7000D104E104F104ECF18EE1C816D104E104BE
:102F8000F104E4F188E2C816D104E104F104DCF1B3
:102F90008CE3C816D104E104F104D4F180E5C8162D
:102FA000D104E104F104CCF186E9C816D104E104AE
:102FB000F104C4F18CE2C81681E0D806E104F10402
:102FC000B4F188E5C81682E0D806E104F104A4F162
:102FD00080EBC81684E0D806E104F10494F560EBB8
:102FE00074E080E090E030C060E072EC81E090E05E
:102FF0002BC060E071EE80E090E026C060E076E9F2
:1030000080E090E021C060E870E780E090E01CC0C4
:1030100060E07BE480E090E017C060E478E380E06B
:1030200090E012C060E875E280E090E00DC060ECD6
:1030300072E180E090E008C060E679E080E090E036
:1030400003C060E070E0CB01DF91CF911F91FF9052
:10305000EF90DF90CF900895CF92DF92EF92FF92A2
:103060007C016AE776E080EF9BE00E94EA3863E14A
:1030700070E0C7010E9474176B017C0116161706D9
:1030800018061906C4F463E776E080EF9BE00E941F
:10309000EA382AE030E0B701A60180EF9BE00E9409
:1030A000FB3926E0B701A6018DE89CE00E947A3545
:1030B000B601C70119C06CE676E080EF9BE00E9484
:1030C000EA3867E576E080EF9BE00E942C3926E045
:1030D00040EC52E160E070E08DE89CE00E947A35BF
:1030E00060EC72E180E090E0FF90EF90DF90CF9095
:1030F00008954F925F926F927F928F929F92AF92BC
:10310000BF92CF92DF92EF92FF920F931F93CF93D4
:10311000DF93CDB7DEB760970FB6F894DEBF0FBE72
:10312000CDBF69837A838B839C83CA01B901270150
:103130003801A60195010E948A3F25E33AEF4EE847
:103140005CE30E945F426B017C010E94C2426D877A
:103150007E878F87988BC701B6010E9455406D838B
:103160007E838F83988725E33AEF4EE85CE369819D
:103170007A818B819C810E945F426B017C0125E3F7
:103180003AEF4EE85CE3C301B2010E945F422B01BB
:103190003C01C701B6010E94C2424B015C01C7015C
:1031A000B6010E94554069837A838B839C83C30157
:1031B000B2010E94C24269877A878B879C87C301CC
:1031C000B2010E9455406B017C0129853A854B85EF
:1031D0005C8569817A818B819C810E945F422B0191
:1031E0003C01A7019601C501B4010E945F422D81F7
:1031F0003E814F8158850E945F429B01AC01C30113
:10320000B2010E948A3F9B01AC010E945F422B01E8
:103210003C012D853E854F855889C701B6010E9426
:103220005F429B01AC010E945F429B01AC01C30164
:10323000B2010E948B3F0E94CC422B013C012985A8
:103240003A854B855C85C501B4010E945F424B0104
:103250005C01A701960169817A818B819C810E9422
:103260005F422D813E814F8158850E945F429B01C4
:10327000AC01C501B4010E948B3F9B01AC01C301AD
:10328000B2010E94FE3F26E73BE742EC5AE40E946F
:103290005F4260960FB6F894DEBF0FBECDBFDF91E0
:1032A000CF911F910F91FF90EF90DF90CF90BF9043
:1032B000AF909F908F907F906F905F904F90089508
:1032C000CF93DF93EC018A819B810E94512661E0BC
:1032D000892B09F460E08C819D810E94A4108C816F
:1032E0009D810E94EB0F882369F18A819B810E9456
:1032F0008925682F8C819D810E94C9108A819B81BC
:103300000E9489258134F1F460E070E08A819B811C
:103310000E94B425FC0182818235A1F060E070E05A
:103320008A819B810E94B425FC0183818D3451F0F8
:1033300060E070E08A819B810E94B425FC01848159
:10334000833431F48C819D81DF91CF910C94EB0F0C
:103350000E94633DAB01BC018C819D810E94A9103C
:103360008A819B810E94AC25AB01BC018C819D812F
:103370000E949C108A819B810E948C25AB01BC011C
:103380008C819D810E94B1108A819B810E9492252F
:10339000AB01BC018C819D810E94B9108C819D8103
:1033A0000E946F0FAB01BC018A819B810E9498250E
:1033B000AB01BC018C819D810E94C1108A819B81DF
:1033C0000E948325AB01BC018C819D810E94CE109F
:1033D000B9CFDF92EF92FF920F931F93CF93DF93BA
:1033E000CDB7DEB7A8970FB6F894DEBF0FBECDBF3E
:1033F0008C0161E476E080EF9BE00E942C39F801BB
:10340000848195810E947E11892B31F46AE276E0F5
:1034100080EF9BE00E942C39F801848195810E9405
:103420007E11019709F07FC063E176E080EF9BE0B9
:103430000E942C3965E076E08DE89CE00E942C39F2
:103440006DEE75E08DE89CE00E942C3965ED75E02D
:103450008DE89CE00E942C396DEB75E08DE89CE0D6
:103460000E942C3965EA75E08DE89CE00E942C39B9
:103470006DE875E08DE89CE00E942C3965E775E009
:103480008DE89CE00E942C3967E675E08DE89CE0B1
:103490000E942C391AA219A281E693E098A38F8F7B
:1034A000CE0101967C019CA38BA38EE190E098A7AE
:1034B0008FA3CE014F960E946C216BE575E0CE0183
:1034C0004F960E94EA38F801848195810E949A11F2
:1034D000AB01BC012AE030E0CE014F960E94A93931
:1034E00063E575E0CE014F960E94EA38C7010E945D
:1034F0009515D82EFFE0F81728F060E3CE014F961F
:103500000E94113940E150E06D2DCE014F960E948E
:103510001A3AB7018DE89CE00E943E39B70180EF6E
:103520009BE00E943E39F801848195810E947E11C2
:10353000029709F055C06AE375E080EF9BE00E94B6
:103540002C3969E275E08DE89CE00E942C3967EF28
:1035500074E08DE89CE00E942C391AA219A281E641
:1035600093E098A38F8FCE0101967C019CA38BA33F
:103570008EE190E098A78FA3CE014F960E946C2118
:103580006DEE74E0CE014F960E94EA38F801848116
:1035900095810E949A11AB01BC012AE030E0CE0176
:1035A0004F960E94A93969E872E0CE014F960E94B9
:1035B0000F39C7010E949515182F803128F460E358
:1035C000CE014F960E94113940E150E0612FCE01AB
:1035D0004F960E941A3AB7018DE89CE00E943E394E
:1035E000A8960FB6F894DEBF0FBECDBFDF91CF9186
:1035F0001F910F91FF90EF90DF9008951092B40A01
:103600001092B30A81E693E09093B20A8093B10AD4
:103610008BEB9AE09093B60A8093B50A88E290E02B
:103620009093BA0A8093B90A81EB9AE00C946C21CA
:10363000CF93DF93EC010E942C18AB01BC018C816D
:103640009D810E94A2118C819D810E94400DCE011E
:103650000E94E9198DE89CE00E949B348DE89CE073
:103660000E94DC358C819D810E949A11AB01BC01C6
:1036700026E08DE89CE0DF91CF910C947A35FC0137
:10368000E853FF4F11821082329611821082089502
:103690000F931F93CF93DF93DC01A853BF4F4D913E
:1036A0005C911197FC01E653FF4F4236510514F02F
:1036B000118210826A3011F06D3011F41182108283
:1036C000643261F424E6EC0119922A95E9F7EC01E1
:1036D000688381E090E08D939C9345C02081318187
:1036E00021303105E9F02CF42115310509F442C0EF
:1036F0003DC02230310561F123303105B9F5FC01BF
:10370000E40FF51F60834E5F5F4F4D935C93118212
:10371000BC018C599F4F0E94584521E030E02AC0DF
:103720008A010F5F1F4F11961C930E939C01240F6B
:10373000351FE90168834E5F5F4FE801C80FD91F4D
:103740004D935C9368836A3299F482E090E00BC0F9
:103750009A012F5F3F4F2D933C93DC01A40FB51FBF
:103760006C9383E090E09183808302C01182108289
:1037700020E030E0C901DF91CF911F910F910895B2
:103780008C599F4F0895862F0E943E3281E090E031
:1037900008950C94013323E833E0FC013183208346
:1037A0000C94FA33CF93DF93EC0183E893E0998391
:1037B00088830E94FA33CE01DF91CF910C94173D9C
:1037C0009A01AB01CA01B9019695879577956795DE
:1037D0007C5D8B409F4F0E945943CA01B9010C94F4
:1037E000EC310C943E39EF92FF920F931F93CF93DD
:1037F000DF93CDB7DEB72A970FB6F894DEBF0FBEC2
:10380000CDBF8C017C018EE0E80EF11C1C821B8276
:1038100081E693E09A838983FE82ED828EE190E0D7
:103820009A878987CE0101960E946C216FEB76E022
:10383000CE0101960E94EA38F801848595850E94A0
:10384000CA0F4AE050E0BC01CE0101960E94F33954
:1038500069EB76E0CE0101960E94EA38F801848592
:1038600095850E94D00FAB01BC0122E030E0CE0173
:1038700001960E940C3B63EB76E0CE0101960E941C
:10388000EA38C7010E949515005C1F4FF80180833C
:10389000803128F460E3CE0101960E94113940E1A5
:1038A00050E0F8016081CE0101960E941A3AB701FA
:1038B00080EF9BE00E943E392A960FB6F894DEBF57
:1038C0000FBECDBFDF91CF911F910F91FF90EF9071
:1038D0000895AF92BF92CF92DF92EF92FF920F9333
:1038E0001F93CF93DF93CDB7DEB72A970FB6F89427
:1038F000DEBF0FBECDBF8C01FC01848595850E9483
:10390000820F20E030E0A9010E945140882309F491
:1039100070C05801FCE2AF0EB11C1C821B8281E614
:1039200093E09A838983BE82AD8284E190E09A8796
:103930008987CE0101960E946C216BEA76E0CE0168
:1039400001960E94EA38F801848595850E947C0FD3
:103950006B017C01F801848595850E94820F9B0193
:10396000AC01C701B6010E948A3FAB01BC0122E055
:1039700030E0CE0101960E940C3B67EA76E0CE0172
:1039800001960E94EA387801F0E4EF0EF11CF7018D
:10399000108281E090E0F50101900020E9F7EA193A
:1039A000FB0932978E179F0750F4F801E80FF91FB3
:1039B00024A5F7013081232720830196ECCFF7015E
:1039C0008081803128F460E3CE0101960E94113994
:1039D00040E150E0F7016081CE0101960E941A3A61
:1039E000B50180EF9BE00E943E39B501C8010E94FD
:1039F0003E392A960FB6F894DEBF0FBECDBFDF91D9
:103A0000CF911F910F91FF90EF90DF90CF90BF90DB
:103A1000AF900895FC01578B468B718F608F118298
:103A200010820895FC01A081B181A80FB91F1296E0
:103A30006C938081918143972CF4808191810196D0
:103A4000918380830895CF93DF93EB01FC01718311
:103A500060830E946F3D6093150B7093160B8093EB
:103A6000170B9093180B4091150B5091160B60910A
:103A7000170B7091180B4093110B5093120B60931E
:103A8000130B7093140B1092FD0A1092FE0A109201
:103A9000FF0A1092000B81E08093FC0A1092E60A64
:103AA0001092E70A8091E30A9091E40A20E03091B5
:103AB000E50A231760F4FC0134E0239FE00DF11DBB
:103AC000112410821182128213822F5FF0CFCE0157
:103AD0000E94C40F843691053CF063E670E0CE018D
:103AE000DF91CF910C941A11DF91CF910895CF926D
:103AF000DF92EF92FF920F931F93CF93CB01BA0106
:103B000097FF09C090958095709561957F4F8F4F75
:103B10009F4FC0E001C0C1E0683621E07207810517
:103B2000910534F028E631E040E050E00E947B430C
:103B3000653B71058105910534F0645B710981096C
:103B4000910921E0C2276B3571058105910564F06B
:103B500004EB10E020E030E068017901C61AD70AD2
:103B6000E80AF90AC701B601660F771FFB01E9559C
:103B7000FD4F60817181CC2319F080E090E00CC092
:103B8000CB01A0E0B0E09C01AD0166277727CB0117
:103B9000621B730B840B950BCF911F910F91FF90BC
:103BA000EF90DF90CF900895465A5F4F6F4F7F4F51
:103BB0000C94771D4F925F926F927F928F929F929B
:103BC000AF92BF92CF92DF92EF92FF920F931F932B
:103BD000CF93DF938C016090E60AC091E30AD09105
:103BE000E40A712CC12CD12C7601812C912C54012A
:103BF0007614C1F0488159816A817B81C8010E9495
:103C0000D41D860E971EA81EB91E4991599169911F
:103C10007991C8010E94771DC60ED71EE81EF91EB5
:103C20007394E6CF81149104A104B10429F4C11462
:103C3000D104E104F104A1F1662D70E080E090E090
:103C40000E94F3402B013C01C501B4010E94F340E6
:103C500020E830E040E857E30E945F42A301920170
:103C60000E9458404B015C01C701B6010E94F3401D
:103C700020E830E040E857E30E945F42A301920150
:103C80000E945840A50194010E94FE3F21EE3EE2B1
:103C900045E652E40E945F420E94C040CB0102C050
:103CA00080E090E0DF91CF911F910F91FF90EF9016
:103CB000DF90CF90BF90AF909F908F907F906F904C
:103CC0005F904F9008950F931F930E94633D009162
:103CD0001D0B10911E0B20911F0B3091200B601BB0
:103CE000710B820B930B603171058105910550F1C9
:103CF0008091FC0A8823E1F08091150B9091160BBE
:103D0000A091170BB091180B8093110B9093120B8D
:103D1000A093130BB093140B0E946F3D6093150B8F
:103D20007093160B8093170B9093180B1092FC0A4C
:103D30000E94633D60931D0B70931E0B80931F0BBD
:103D40009093200B1F910F9108950F931F930E9442
:103D5000633D0091190B10911A0B20911B0B3091B0
:103D60001C0B601B710B820B930B6031710581057D
:103D7000910508F44BC08091FC0A81113DC08091EF
:103D8000050B9091060BA091070BB091080B809347
:103D9000010B9093020BA093030BB093040B0E94B2
:103DA0006F3D6093050B7093060B8093070B909308
:103DB000080B8091110B9091120BA091130BB091F5
:103DC000140B80930D0B90930E0BA0930F0BB093DD
:103DD000100B8091150B9091160BA091170BB091C1
:103DE000180B8093090B90930A0BA0930B0BB093C5
:103DF0000C0B81E08093FC0A0E94633D6093190BD9
:103E000070931A0B80931B0B90931C0B1F910F91B7
:103E10000895CF92DF92EF92FF92F89480910D0B6C
:103E200090910E0BA0910F0BB091100BC090090B4D
:103E3000D0900A0BE0900B0BF0900C0B4091010B13
:103E40005091020B6091030B7091040B78948C15C8
:103E50009D05AE05BF0508F066C0C81AD90AEA0A72
:103E6000FB0A28E9C2162AE3D206E104F10408F4A9
:103E70005AC0C092FD0AD092FE0AE092FF0AF09268
:103E8000000B9A01AB01281B390B4A0B5B0B233348
:103E900031054105510508F446C02C153D054E0578
:103EA0005F0508F040C0A8E6B1E00E94A043A7016A
:103EB00096010E945943283681E038074105510593
:103EC00090F58091E70A8F5F8093E70A9091E60A68
:103ED0006091E50AE091E30AF091E40A9617B0F4E4
:103EE00081E0890F8093E60A84E0989FE00DF11D40
:103EF000112420833183428353838091E70A6091A8
:103F0000E60A0E9439439093E70A0DC00E943943A4
:103F10009093E70A84E0989FE00DF11D112420831F
:103F2000318342835383FF90EF90DF90CF900895C9
:103F30004F925F926F927F928F929F92AF92BF92B9
:103F4000CF92DF92EF92FF92CF93DF93EC010E942A
:103F5000633DC0901D0BD0901E0BE0901F0BF090A6
:103F6000200B6C157D058E059F0550F40E94633D66
:103F700060931D0B70931E0B80931F0B9093200B6F
:103F80000E94633DC090190BD0901A0BE0901B0B60
:103F9000F0901C0B6C157D058E059F0550F40E945A
:103FA000633D6093190B70931A0B80931B0B9093D6
:103FB0001C0B0E94633DAB01BC01888199810E946A
:103FC00034110E94633DC0901D0BD0901E0BE090F9
:103FD0001F0BF090200B6C197D098E099F09A8809A
:103FE000B980693B7B4081059105A0F040E050E03D
:103FF000BA01C501DF91CF91FF90EF90DF90CF9094
:10400000BF90AF909F908F907F906F905F904F90F8
:104010000C942C112091FD0A3091FE0A4091FF0A68
:104020005091000B211531054105510509F4B4C02B
:1040300060E071EE85EF95E00E94594369017A01D5
:10404000233481E0380741055105F4F5AAE0B0E0DA
:104050000E94A0432B013C01C5010E94D80F4B01D7
:104060005C01A3019201C301B2010E94294327E927
:104070003FEF4FEF5FEF0E947B4329013A01A70119
:10408000960168E273EE83E090E00E94294324E603
:1040900030E040E050E00E947B43420E531E641E1D
:1040A000751E24EE421A2FE2520A61087108C301FC
:1040B000B2010E94F340A50194010E94584020E003
:1040C00030E040E251E460C02C3385E1380741051F
:1040D000510554F5C5010E94D80F2B013C01A701E1
:1040E0009601C701B6010E9429432EEA38E040E05C
:1040F00050E00E947B4349015A01ABE9BAE4A701B1
:1041000096010E94A04324E630E040E050E00E9487
:104110007B43820E931EA41EB51E26EA820E25E264
:10412000921EA11CB11C2AC0C5010E94D80F2B01F0
:104130003C01A7019601C701B6010E94294322E173
:1041400034E040E050E00E947B43A4E6B0E00E94EF
:10415000A0434B015C01A701960164EB70E281E88A
:104160009FEF0E942943860E971EA81EB91E84E465
:10417000880E8DEB981E8BE2A81EB11CC501B40100
:104180000E94F340A30192010E945840AB01BC0180
:10419000888199810E942C11888199810E94D00F79
:1041A0006B017C01888199810E94E00FBC01882706
:1041B00077FD8095982F0E94F3409B01AC01C701C9
:1041C000B6010E945442181654F4888199810E94C5
:1041D000D00F0E94C040888199810E947311CE0146
:1041E0000E94DA1D7C01888199810E94BE0FB7016F
:1041F000680F791F77FF02C068597E4F88819981C7
:10420000DF91CF91FF90EF90DF90CF90BF90AF9074
:104210009F908F907F906F905F904F900C942011A3
:1042200088EE9AE09093E40A8093E30A85E0809315
:10423000E50A1092E60A1092E70A089561E085E324
:104240000E94CE3E61E085E30E94953E8CB5806180
:104250008CBD8CB580648CBD61E084E30E94953E8A
:1042600061E083E30C94953E811103C08CB58062BC
:1042700002C08CB58F7D8CBD08959CB5937F982B23
:104280009CBD08952CB5982F93702C7F922B9CBDCC
:104290009DB582FB882780F99E7F982B9DBD089550
:1042A000FC01A681B7819D012F5F3F4F84819581DD
:1042B00040855185840F951F2817390750F437839F
:1042C00026836C930680F781E02D108281E090E0D8
:1042D000089580E090E00895FC01A481B581B78342
:1042E000A68380859185892B09F01C9208950895F5
:1042F0002F923F924F925F926F927F928F929F92F6
:10430000AF92BF92CF92DF92EF92FF920F931F93E3
:10431000CF93DF93CDB7DEB72A970FB6F894DEBF01
:104320000FBECDBF9A878987DC01D6968C918823F2
:1043300009F4E5C00E94633D69837A838B839C8383
:10434000E985FA8580A191A129813A81281B390B41
:1043500084A595A5281739070CF4D1C0028CF38DDC
:10436000E02D80809180A280B380A985BA855E9679
:10437000ED91FC915F97A50194016081718182812B
:1043800093810E948A3F2B013C01E985FA852089AF
:104390003189428953890E945F42A985BA859496E2
:1043A0002D913D914D915C9197970E948B3F6B01B0
:1043B0007C01E985FA8564A375A386A397A312A956
:1043C00003A934A825A8212F302F432D522D0E9458
:1043D000544218162CF4812F902FA32DB22D18C003
:1043E000A985BA859E968D919D910D90BC91A02D29
:1043F0008D839E83AF83B8879C01AD01C701B60151
:104400000E94514087FF0AC08D819E81AF81B8858F
:10441000E985FA8584A395A3A6A3B7A3A985BA8540
:104420001C962D913D914D915C911F97C301B20156
:104430000E945F42E985FA8524A135A146A157A1D2
:104440000E948B3F6B017C01A985BA8598962D91BE
:104450003D914D915C919B97C501B4010E948A3FAB
:10446000E985FA8524893589468957890E945F4202
:104470009B01AC01C701B6010E948A3F6B017C0120
:10448000212F302F432D522D0E9454421816DCF05C
:10449000A985BA859E961C919E979F960C919F9791
:1044A000D0963C90D097D1962C90212F302F432D31
:1044B000522DB601C7010E94514087FD04C01C2D3A
:1044C0000D2D3E2C2F2CA985BA855C96ED91FC9183
:1044D0005D97812F902FA32DB22D80839183A2838E
:1044E000B383E985FA8580A691A6A2A6B3A68981A1
:1044F0009A81AB81BC8180A391A3A2A3B3A32A9686
:104500000FB6F894DEBF0FBECDBFDF91CF911F91E4
:104510000F91FF90EF90DF90CF90BF90AF909F9062
:104520008F907F906F905F904F903F902F90089565
:104530002F923F924F925F926F927F928F929F92B3
:10454000AF92BF92CF92DF92EF92FF920F931F93A1
:10455000CF93DF9300D01F92CDB7DEB71C012A01A5
:104560003B014801590120E030E0A901C301B2013B
:104570000E94514087FD7AC020E030E0A901C501CA
:10458000B4010E94514087FD71C020E030E0A901D4
:10459000C701B6010E94514087FD68C0F101408209
:1045A00051826282738284829582A682B782C0869B
:1045B000D186E286F38664A575A5882777FD809568
:1045C000982F0E94F34020E030E04AE754E40E9434
:1045D000584069837A838B839C83F1014486558696
:1045E000668677869B01AC01C501B4010E945F42DB
:1045F0004B015C01F101608B718B828B938B298164
:104600003A814B815C81C701B6010E9458406B0121
:104610007C01F101648B758B868B978B808D918DDE
:10462000019721F5A301920160E070E0CB010E94A7
:104630008A3FF1016487758786879787A501940172
:1046400060E070E0CB010E948A3FF101608B718BCA
:10465000828B938BA701960160E070E0CB010E94F2
:104660008A3FF101648B758B868B978B0F900F902F
:104670000F900F90DF91CF911F910F91FF90EF90CE
:10468000DF90CF90BF90AF909F908F907F906F9072
:104690005F904F903F902F900895CF92DF92EF92CE
:1046A000FF920F931F93CF93DF93EC018B011616AC
:1046B000170694F5882777FD8095982F0E94F34080
:1046C0006B017C016CA57DA5882777FD8095982FCF
:1046D0000E94F3409B01AC01C701B6010E94584003
:1046E0006B017C019B01AC01688979898A899B896E
:1046F0000E945F42688B798B8A8B9B8BA701960106
:104700006C897D898E899F890E9458406C8B7D8B36
:104710008E8B9F8B1DA70CA7DF91CF911F910F91BF
:10472000FF90EF90DF90CF9008952F923F924F929D
:104730005F926F927F928F929F92AF92BF92CF9231
:10474000DF92EF92FF920F931F93CF93DF93EC01D1
:104750006A017B0148015901A9019801C701B6010D
:104760000E94544287FF4EC0CEA6DFA6E8AAF9AA4F
:104770008AAA9BAAACAABDAA8EA9882309F442C022
:104780002C8C3D8CF1014080518062807380A501AA
:104790009401C301B2010E945442181634F4F1018D
:1047A00080829182A282B3820DC0A7019601C301CB
:1047B000B2010E94514087FF05C0F101C082D18241
:1047C000E282F3828CA09DA0AEA0BFA0CAA8DBA805
:1047D000ECA8FDA8A7019601C501B4010E945442AE
:1047E000181664F0CEA4DFA4E8A8F9A8A7019601E2
:1047F000C501B4010E94514087FF04C0CCA2DDA2D4
:10480000EEA2FFA2DF91CF911F910F91FF90EF9049
:10481000DF90CF90BF90AF909F908F907F906F90E0
:104820005F904F903F902F9008958F929F92AF92FC
:10483000BF92CF92DF92EF92FF92CF93DF93EC0182
:10484000EC8DFD8DC080D180E280F380CCA2DDA212
:10485000EEA2FFA2EA8DFB8D80819181A281B381BE
:1048600088A799A7AAA7BBA78AA89BA8ACA8BDA8F8
:10487000A5019401C701B6010E945442181664F0C4
:104880008EA49FA4A8A8B9A8A5019401C701B60148
:104890000E94514087FF04C08CA29DA2AEA2BFA27D
:1048A000DF91CF91FF90EF90DF90CF90BF90AF90CE
:1048B0009F908F9008951F93CF93DF93EC0111E0A9
:1048C0006130710509F010E08EA991E08927181375
:1048D00003C0CE010E9415241EABDF91CF911F9122
:1048E00008950F931F93CF93DF93EC018B018EA953
:1048F000882361F1888D998D6817790739F12C85A6
:104900003D854E855F8560E070E0CB010E948A3F67
:104910006C877D878E879F87288939894A895B893B
:1049200060E070E0CB010E948A3F688B798B8A8BB4
:104930009B8B2C893D894E895F8960E070E0CB01BB
:104940000E948A3F6C8B7D8B8E8B9F8B198F088F7B
:10495000DF91CF911F910F9108952F923F924F9227
:104960005F926F927F928F929F92AF92BF92CF92FF
:10497000DF92EF92FF920F931F93CF93DF93CDB708
:10498000DEB728970FB6F894DEBF0FBECDBF4C013F
:104990007A8369831A013C832B8327013801AD8216
:1049A000BE82CF82D88600E010E02FE733E440E0FB
:1049B00050E0BA010E94952384E690E0F40195A7A7
:1049C00084A76AA17BA1C4010E947124CE8CDF8CD4
:1049D000E8A0F9A00D811E812F813885B301A201C5
:1049E000C4010E9498220E94633DF40144A455A48E
:1049F000662457FC6094762C64197509860997091A
:104A000060A371A382A393A316AA358E248E8981F5
:104A10009A81938F828F8B819C81978F868F289626
:104A20000FB6F894DEBF0FBECDBFDF91CF911F91BF
:104A30000F91FF90EF90DF90CF90BF90AF909F903D
:104A40008F907F906F905F904F903F902F90089540
:104A50000F931F93CF93DF93FC01718360831282C6
:104A600013821482158286E586831782108611864A
:104A7000128613861486158616861786108A118A62
:104A8000128A138A148A158A168ADF01A754BF4F27
:104A900011961C921E92AE55BF4F11961C921E92FB
:104AA000149611961C921E92129611961C921E92AA
:104AB000129611961C921E92178AAC5AB1091D9239
:104AC0001C92EF0104E110E08FE090E00E94D243DD
:104AD000FE01E15EFE4F918380838FE090E00E94B3
:104AE000D243FE01E558FF4F91838083FC01108281
:104AF0000150110922960115110531F7DF91CF916F
:104B00001F910F910895FC016281738184819581C9
:104B10000895FC0186810895FC0167817085818577
:104B200092850895FC016385748585859685089531
:104B3000CF92DF92EF92FF926A017B01FC01278501
:104B4000308941895289C701B6010E945F42FF90B6
:104B5000EF90DF90CF900895FC0163897489858977
:104B60009689089547960895660F771F680F791FF5
:104B7000FB01E558FF4F8081918108954F925F922C
:104B80006F927F928F929F92AF92BF92CF92DF925D
:104B9000EF92FF920F931F93CF93DF93FB0110814E
:104BA0001D3241F031E020E01B3209F030E0832F6C
:104BB000922F02C081E090E0EB01C80FD91F00E006
:104BC0003DEC432E3CEC532E652C3DE3732E812CA3
:104BD000912C5401C12CD12C7601E991EE23E9F1FD
:104BE000EE32C9F1FF27E7FDF095011113C0AAE0ED
:104BF000B0E0A70196010E94A0436B017C01CF01A8
:104C0000C097AA2797FDA095BA2FC80ED91EEA1EF5
:104C1000FB1EE3CFBF0160537109882777FD8095A4
:104C2000982F0E94F3409B01AC01C301B2010E9486
:104C30005F429B01AC01C501B4010E948B3F4B0157
:104C40005C0120E030E040E251E4C301B2010E9487
:104C500058402B013C0101E0C0CFC701B6010E94C2
:104C6000F3409B01AC01C501B4010E948B3F1D3292
:104C700039F49B01AC0160E070E0CB010E948A3FF7
:104C8000DF91CF911F910F91FF90EF90DF90CF9028
:104C9000BF90AF909F908F907F906F905F904F905C
:104CA00008958F929F92AF92BF92CF92DF92EF9230
:104CB000FF920F931F93CF93DF93EC01AC01455A02
:104CC0005E4FDA012D913C911197FC01E15AFE4FA4
:104CD000243631056CF4A25AB1098D919C9111973B
:104CE000449734F4A655BF4F8D919C910F9714F0C3
:104CF000118210826A3011F06D3011F4118210822D
:104D00006432E1F4DE01A35ABE4F11961C921E924A
:104D1000149611961C921E92A85AB10911961C92D3
:104D20001E92A655BF4F1D921C92C554DF4F68833B
:104D300081E090E0DA018D939C93E4C080819181C1
:104D40008130910569F024F4009709F47AC272C2A7
:104D50008230910509F492C0039709F4D6C06AC263
:104D6000273031057CF4D901AB59BC4F8C916813C5
:104D700009C0DE01A35ABE4F8D919C9111970196F7
:104D80008D939C93C9010196DA018D939C932C0F0E
:104D90003D1FD901A554BF4F6C93CE0187549F4F3F
:104DA0008E010D591E4F6A3249F1DE01AF59BE4FD7
:104DB000FC016C3209F040C020813181A9014F5FB4
:104DC0005F4F51834083C901880F991F8C0F9D1F2E
:104DD000EC01C15EDE4F0990D881C02DF8018081C1
:104DE0009181C80FD91F1882118210828D919C91D8
:104DF0001197FCE28F278D939C931EC2DC012D91AD
:104E00003C911197A9014F5F5F4F4D935C93C9018E
:104E1000880F991F8C0F9D1FEC01C15EDE4F09901A
:104E2000D881C02DD8018D919C911197C80FD91FA1
:104E300018821D921C9263C080819181880F991FF6
:104E40008C0F9D1FEC01C15EDE4F0990D881C02DF3
:104E5000F801808191819C012F5F3F4F3183208336
:104E6000C80FD91F6883772767FD70958D919C9136
:104E70001197682779276D937C93DEC1C90101964C
:104E8000DA018D939C932C0F3D1FD901A554BF4F80
:104E90006C93DE01A754BF4F8D919C91880F991F91
:104EA0008C0F9D1FDC01A15EBE4F0D911C919E01D8
:104EB0002D593E4FD9018D919C911197AC014F5FB7
:104EC0005F4F4D935C93080F191FD8016C93CF5916
:104ED000DE4F48815981862F992787FD909561344F
:104EE00014F0C79701C0C0979C01B4E0220F331F94
:104EF000BA95E1F7CA01821B930B9983888380815D
:104F0000918101969183808397C1CE01820F931F77
:104F1000DC01A554BF4F6C932E5F3F4FDA012D93F8
:104F20003C93DC01A454BF4F1C929E0127543F4F79
:104F3000D9018D919C91880F991F8C0F9D1FDC01C9
:104F4000A15EBE4F8D919C916E01BDE9CB1ABEEF63
:104F5000DB0AD6010D911C917801BFEFEB1AFB0A19
:104F6000D601ED92FC92800F911FDC016C93D90168
:104F70008D919C9111978C010F5F1F4F0D931C9386
:104F8000880F991F8C0F9D1F815E9E4FDC018D91B4
:104F90009C91D6010D911C91800F911FDC011C92F8
:104FA00011821082FE01EF59FE4F80819181062F00
:104FB000112707FD1095613424F0B801675371097A
:104FC00003C0B80160537109861B970B91838083DE
:104FD000009709F031C168817981672B29F4FA01C2
:104FE00060817181CB010AC0FE01E35AFE4F6081EE
:104FF00071816630710509F024C1F1CF019797FDE9
:105000000AC0FE01E80FF91F8F0105541F4FD80198
:105010001C91178BF3CFFB013197CB0177FF02C0B7
:1050200080E090E0BF01681B790BDA016D937C93FF
:10503000FE01E954FF4F1182108240815181D90154
:105040008D919C914817590784F5D6011D921C92A9
:1050500080819181D6014D915C91880F991F8C0FB1
:105060009D1FBC01615E7E4FDB016D917C91640FE1
:10507000751FDB016C9185589F4FDC018D919C91D0
:10508000840F951FDC01662349F06C93D6018D9146
:105090009C91119701968D939C93DACF1C928081FD
:1050A0009181019691838083C8CFFE01E35AFE4F20
:1050B00080819181069709F0C2C0FC97608171815F
:1050C000CE010E94BE256A837B838C839D83FE0173
:1050D000ED5DFE4F0190F081E02D80818E83FE0119
:1050E000EB5DFE4F60817181CE010E94BE2520E004
:1050F00030E048EC52E40E9458404B015C010E94B1
:105100002E416B017C018E010B591E4FF80160830B
:105110007183828393839B01AC01C501B4010E941A
:105120008A3F20E030E048EC52E40E945F4220E0F9
:1051300030E040E752E40E945840A70196010E94E7
:105140008B3F9B01AC016F83788789879A87FE012B
:10515000E95DFE4F0190F081E02D8081833549F4B7
:1051600060E070E0CB010E948A3F6F837887898777
:105170009A87FE01E75DFE4F60817181CE010E943A
:10518000BE2520E030E048EC52E40E9458404B013C
:105190005C010E942E416B017C01D8016D937D93CF
:1051A0008D939C9313979B01AC01C501B4010E94A0
:1051B0008A3F20E030E048EC52E40E945F4220E069
:1051C00030E040E752E40E945840A70196010E9457
:1051D0008B3F9B01AC016B877C878D879E87FE018F
:1051E000E55DFE4F0190F081E02D8081873549F427
:1051F00060E070E0CB010E948A3F6B877C878D87DF
:105200009E87FE01E35DFE4F60817181CE010E94A9
:10521000BE256F87788B898B9A8BFE01E15DFE4FEF
:1052200060817181CE010E94BE256B8B7C8B8D8B42
:105230009E8B05C01182108280E090E002C081E068
:1052400090E0DF91CF911F910F91FF90EF90DF9051
:10525000CF90BF90AF909F908F9008958EBD0DB46A
:1052600007FEFDCF8EB508950F931F93FC011382A7
:10527000128208EE13E020E030E0048315832683D9
:10528000378381E793E091838083648745871F910B
:105290000F910895EF92FF921F93CF93DF931F9288
:1052A000CDB7DEB77C01162F60E0FC018485498311
:1052B0000E94CE3EF8E01F9FB0011124F7018585C2
:1052C000880F862B0E942E294981842F0E942E2927
:1052D00062E070E080E090E00E94923D61E0F701C2
:1052E00084850F90DF91CF911F91FF90EF900C94E8
:1052F000CE3E462F60E00E944A2981E090E008956A
:1053000046E062E00C944A29CF92DF92EF92FF923E
:105310000F931F93CF93DF931F921F92CDB7DEB7EA
:105320008C01F22E60E0FC01848549835A830E943F
:10533000CE3E4981E42EC42E5A81D52E8C2D8E1955
:105340008F1530F4F60181916F010E942E29F6CF5E
:1053500062E070E080E090E00E94923D61E0F80140
:1053600084850F900F90DF91CF911F910F91FF9047
:10537000EF90DF90CF900C94CE3E242FAB0160E0F5
:105380000C9484291F93CF93DF93EC01162F60E0D8
:105390008C850E94CE3E62E070E080E090E00E944A
:1053A000923D88E0189FB00111248D85880F862BCF
:1053B00080680E942E2980E00E942E29182F62E02A
:1053C00070E080E090E00E94923D61E08C850E9458
:1053D000CE3E812FDF91CF911F91089560E00E9412
:1053E000C22990E0089569E00E94C22990E00895E2
:1053F00069E00E94C2298FEF9FEF08951F93CF931A
:10540000DF93EC01162F63E00E94C229482F4C7FE6
:105410006BEF610F6370462B63E0CE01DF91CF919C
:105420001F910C944A298F929F92AF92BF92CF9274
:10543000DF92EF92FF920F931F93CF93DF93EC01D4
:105440006A017B014801590164EF76E080EF9BE03F
:105450000E942C390E941E216AE070E080E090E0FA
:105460000E94923D81E00E94342181E00E9442210D
:1054700080E00E943D2168EE76E080EF9BE00E9494
:105480002C398091060290910702019779F448E047
:105490006EE0CE010E944A29109207021092060285
:1054A00069ED76E080EF9BE00E942C3964E670E0C5
:1054B00080E090E00E94923D40E863E0CE010E94CF
:1054C0004A29C701B60123E0660F771F881F991F7D
:1054D0002A95D1F7680D791D8A1D9B1DA70196019C
:1054E000E4E0220F331F441F551FEA95D1F70E94B5
:1054F000594369017A01422F60E0CE010E944A2996
:105500004D2D552761E0CE010E944A2940E063E01D
:10551000CE010E944A2968E0CE010E94FE2947E0A0
:1055200062E0CE010E944A2967EC76E080EF9BE0C2
:10553000DF91CF911F910F91FF90EF90DF90CF906F
:10554000BF90AF909F908F900C942C390F931F9326
:1055500000E010E820E730E00E94132A1F910F912D
:105560000895FC016F7780819181862791838083E4
:1055700047E020813181C9019695879520FF04C0BD
:1055800020EF822722E2922791838083415089F77E
:105590000895EF92FF920F931F93CF93DF937C01B7
:1055A0008A01EB01060F171FC017D10729F0699177
:1055B000C7010E94B12AF8CFDF91CF911F910F91BF
:1055C000FF90EF900895CF93DF931F921F92CDB776
:1055D000DEB7AB012FEF3FE33A832983BC01CE0155
:1055E00001960E94C92A89819A8180952FE392278A
:1055F0000F900F90DF91CF9108950F931F93CF934A
:10560000DF931F92CDB7DEB78C01FC0171836083FD
:10561000128223831486158616861786108A45966D
:1056200049830E94B72FF801178E10A249818FE994
:10563000840F8A3108F440528FEB840F8A3120F0B6
:1056400080ED840F8A3010F4F801428344E650E084
:1056500060E070E0F80144835583668377834FEF01
:105660005FEFBA01408751876287738711A20F905D
:10567000DF91CF911F910F91089508959F92AF925E
:10568000BF92CF92DF92EF92FF920F931F93CF932F
:10569000DF93CDB7DEB7A7970FB6F894DEBF0FBE86
:1056A000CDBF6C017B01942E5901DB0114964D9105
:1056B0005D916D917C911797CE0180960E94B030DC
:1056C000CE0180960E9486306894A4F8C8010E949A
:1056D0005E30882321F0C6010E94B92F6CC0CE0134
:1056E00080960E945E308823A9F1CE0180960E94A8
:1056F000A430F70184858F5F87FD81E0D7011C9678
:105700008C93CE0101960E94E62DF7016281CE01B5
:1057100001960E94EA2D6A2DCE0101960E94EA2D83
:10572000D7011C966C91CE0101960E94EA2D692D3D
:10573000CE0101960E94EA2DD701ED91FC911197BF
:1057400063A174A123E230E013964C91CE0101963F
:105750000E94C22EF701808191810E94902F8823A0
:1057600009F4B4CFD701ED91FC9111979381139671
:105770008C919813ABCF8481833409F0A7CF4081FB
:10578000518145505109BF016A5F7F4FCE0101969B
:105790000E942F308981882309F498CF9C81F701DA
:1057A0008485981393CF8AE0FE013196D60101904B
:1057B0000D928A95E1F7C601A7960FB6F894DEBF61
:1057C0000FBECDBFDF91CF911F910F91FF90EF9052
:1057D000DF90CF90BF90AF909F9008959F92AF922F
:1057E000BF92CF92DF92EF92FF920F931F93CF93CE
:1057F000DF93CDB7DEB76F970FB6F894DEBF0FBE5D
:10580000CDBF8C015B017A01922EDC01ED91FC9100
:10581000C3A0D4A0CE0101960E94E62DF8016281BA
:10582000CE0101960E94EA2D692DCE0101960E94BB
:10583000EA2D96FE07C0D8015F966C91CE010196C5
:105840000E94EA2DF70142815381B7016C5F7F4FBF
:10585000CE0101960E94F62D9501D80113964C9128
:10586000B601CE0101960E94C22E6F960FB6F89433
:10587000DEBF0FBECDBFDF91CF911F910F91FF9083
:10588000EF90DF90CF90BF90AF909F900895CF9210
:10589000DF92EF92FF920F931F93CF93DF93CDB7D9
:1058A000DEB72A970FB6F894DEBF0FBECDBF7C01DE
:1058B0006A01FC0180A1811123C08B0120E430E04A
:1058C00041E050E0B701CE0101960E943E2B8AE0F4
:1058D000FE013196D60101900D928A95E1F7F6010D
:1058E000828180FF04C08681978197FD07C0F60101
:1058F0008481F701878F81E080A302C081E001C02D
:1059000080E02A960FB6F894DEBF0FBECDBFDF91C0
:10591000CF911F910F91FF90EF90DF90CF9008955E
:10592000DF92EF92FF920F931F93CF93DF93CDB748
:10593000DEB72A970FB6F894DEBF0FBECDBF7C014D
:10594000D42EFC0123893489418952898B01BC0101
:10595000CE0101960E943E2B8AE0FE013196D701CE
:10596000559601900D928A95E1F7F701878980FF9E
:1059700004C0838D948D97FD0BC0F701818D978DA9
:10598000891731F0811106C081E0D11004C002C036
:1059900081E001C080E02A960FB6F894DEBF0FBE0A
:1059A000CDBFDF91CF911F910F91FF90EF90DF90CE
:1059B00008958F929F92AF92BF92CF92DF92EF9213
:1059C000FF920F931F93CF93DF93CDB7DEB72E9740
:1059D0000FB6F894DEBF0FBECDBF7C016B015A013C
:1059E0004901FC0125853685478550892F5F3F4F4A
:1059F0004F4F5F4F258736874787508BBC01CE01BD
:105A000009960E94D22EF70181A1882339F09401D2
:105A1000A501B601C7010E94EE2B30C0F7014085F9
:105A2000518562857385CE0101960E94B030A70131
:105A30004B5E5F4FBE016F5F7F4FC7010E94472CD7
:105A400081111CC0689486F8F701128B018B948A2F
:105A5000838A878D8F5F87FD81E0F701878F9401AF
:105A6000A501B601C7010E94EE2B40E0BE016F5FA9
:105A70007F4FC7010E94902C882389F386E0FE01A6
:105A80003996DE01119601900D928A95E1F72981F0
:105A90003A814B815C816D817E8180E090E02E9621
:105AA0000FB6F894DEBF0FBECDBFDF91CF911F912F
:105AB0000F91FF90EF90DF90CF90BF90AF909F90AD
:105AC0008F9008958F929F92AF92BF92CF92DF9264
:105AD000EF92FF920F931F93CF93DF93CDB7DEB773
