:100000000C94A9030C94453B0C94763B0C94A73BB1
:100010000C94D83B0C94093C0C943A3C0C946B3CEB
:100020000C949C3C0C94D8030C94D8030C94D803E7
:100030000C94D8030C94D8030C94D8030C944A3134
:100040000C94D8030C94D8030C94D8030C94D803C4
:100050000C94D8030C94D8030C94D8030C94DF3C74
:100060000C94D8030C94BE350C94F4350C94D8033E
:100070000C94D8030C94D8030C94D8030C94D80394
:100080000C94D8030C94D8030C94D8030C94D80384
:100090000C946B360C94A1360C94D8030C94D803B2
:1000A0000C94D8030C94D8030C94D8030C94D80364
:1000B0000C94D8030C94D8030C94CD320C943C329D
:1000C0000C942F330C94D8030C94D8030C94183749
:1000D0000C944E370C94D8030C94C5370C94FB3712
:1000E0000C94D8031F3BE93AF13AFD3A0A3B2B3B0B
:1000F000383B203E233E123E163E1C3E5A3E273ED3
:100100002B3E313E353E393E3F3E433E473E5A3E12
:100110004D3E513E553E084AD73B3BCE016E84BC16
:10012000BFFDC12F3D6C74319ABD56833DDA3D0051
:10013000C77F11BED9E4BB4C3E916BAAAABE00009A
:1001400000803F05A84CCDB2D44EB93836A9020C78
:1001500050B9918688083CA6AAAA2ABE0000008051
:100160003F00496E6974206175746F70696C6F74BB
:1001700020636F6D706C65746500496E69742061F1
:1001800075746F70696C6F742E2E736574206C6952
:100190006D6974732E2E00496E6974206175746FD9
:1001A00070696C6F742E2E737461727420504944A0
:1001B0002E2E00496E6974206175746F70696C6FC2
:1001C000742E2E002C002C4C4C333A002C4C553302
:1001D0003A002C4C4C323A002C4C55323A002C4C04
:1001E0004C313A002C4C55313A002C53544B3A00C8
:1001F0002C5342333A002C5342323A002C534231B2
:100200003A002C5342303A002C4750533A002C57B6
:100210005A4A3A005549443A4D4547412C415058B5
:100220003A0021215645523A312E392C002C002C0F
:1002300057534B3A002C5753583A002C4141443AFB
:10024000002C4141453A002C41414E3A002C41419D
:10025000523A002C4141583A002C4150523A002C5D
:100260004150433A002C4150543A002C4150533AEB
:10027000005549443A4D4547412C4150583A0021D8
:10028000215645523A312E392C0053657475702031
:10029000636F6D706C6574652E2E0053746172749B
:1002A0002074696D65722E2E00537461727420770C
:1002B000696E642E2E005374617274206E6D6561D8
:1002C000205478202D206F6E2070696E7320343694
:1002D0002054782C20343820527820617420005328
:1002E00074617274206E6D65612054782E2E0053F7
:1002F00074617274206E6D6561205278202D2073B8
:10030000657269616C34206174200043535F504909
:100310004E204F5554505554203D204849474800E1
:1003200043535F50494E2073657420746F204F55BE
:1003300054505554005374617274205350492075C1
:10034000617274732E2E005374617274206E6D6529
:1003500061205278202D2073657269616C332061B1
:100360007420005374617274206E6D656120527840
:10037000202D2073657269616C32206174200053F6
:10038000746172742073656174616C6B202D2073CD
:10039000657269616C3220617420343830300053EA
:1003A0007461727420475053205278202D20736559
:1003B0007269616C312061742000496E69746961F1
:1003C0006C697A696E672E2E0024504D544B32357D
:1003D000312C0024504D544B3331342C302C312CE3
:1003E000302C312C312C312C302C302C302C302C2A
:1003F000302C302C302C302C302C302C302C302C1D
:10040000302A32380024504D544B3232302C3130A7
:1004100030302A31460053657474696E6720475046
:100420005320746F204D54454B5F33333239002CC9
:10043000382C312C302A0024505352463130302C85
:10044000312C0024505352463130352C302A33465B
:100450000024505352463130332C30342C30302C61
:1004600030312C30312A3231002450535246313051
:10047000332C30332C30302C32302C30312A323582
:100480000024505352463130332C30322C30302C33
:1004900030352C30312A323300245053524631301B
:1004A000332C30302C30302C30352C30312A323156
:1004B0000024505352463130332C30312C30302C04
:1004C00030302C30312A32350024505352463130EE
:1004D000332C30352C30302C30302C30312A323126
:1004E0000024505352463130352C312A33450053C5
:1004F000657474696E672047505320746F20454DB2
:100500005F343036410053657474696E672047501C
:100510005320746F2047454E45524943005365743C
:1005200074696E672047505320636F6E6669672E4B
:100530002E2E0020202064656661756C7420746F17
:1005400020343830302E2E004641494C4544004F6F
:100550004B20617420002020207472792061757412
:100560006F62617564202E2E200020206465746502
:10057000637465642070756C7365207261746520A6
:100580003D20002C542A002448434844542C002C7D
:100590004E2C412A002E302C522C002457494D5706
:1005A000562C0053504920696E697420636F6D703A
:1005B0006C65746500535049205541525420726552
:1005C00073657400535049207374617274656400DC
:1005D0004D756C746953657269616C3A3A6265670E
:1005E000696E0000000A0B02090C0D0E08070304D7
:1005F00001000000000000000000000000000000FA
:1006000000000000000000000000000000000012D8
:1006100011100000000000000000000000000000B9
:100620000000000000000000000102102020080867
:100630001020401020408002010201080402010144
:10064000020408102040808040201008040201802D
:100650000402018040201008040201080402010184
:100660000204081020408001020408102040800588
:10067000050505070508080808020202020A0A081B
:100680000804040404010101010101010103030341
:100690000303030303040707070C0C0C0C0C0C0CDE
:1006A0000C0202020206060606060606060B0B0BE5
:1006B0000B0B0B0B0B000020002300260029002C45
:1006C000002F0032000001000003010601090100B3
:1006D000002200250028002B002E003100340002EB
:1006E000010000050108010B010000210024002782
:1006F000002A002D00300033000101000004010732
:10070000010A014E414E494E495459494E46CDCCFD
:10071000CC3D0AD7233C17B7D13877CC2B329595EF
:10072000E6241FB14F0A000020410000C8420040EB
:100730001C4620BCBE4CCA1B0E5AAEC59D74DC08BC
:1007400049166A1AD8202836D53682372F38F0084D
:10075000B51611241FBECFEFD1E2DEBFCDBF14E02E
:10076000A0E0B2E0E8E6FEE800E00BBF02C00790C0
:100770000D92A43CB107D9F72FE0A4ECB4E001C07E
:100780001D92A339B207E1F717E0CEE4D7E000E00D
:1007900006C022970109FE010BBF0E947143CE33B0
:1007A000D10780E00807A9F70E94CE3C0C942247AD
:1007B0000C9400002DE032E0FC0131832083089589
:1007C0002DE032E0FC01318320830C94DD3CFC0100
:1007D000CB012DE032E03183208373836283148266
:1007E00040E050E0BA010E94610F61E088E10E94A0
:1007F0005B3E61E08AE10E945B3E61E08CE10E9429
:100800005B3E61E08EE10E945B3E60E082E40C941E
:100810005B3ECF92DF92EF92FF92CF93DF93EC019A
:100820008A819B810E94A810882389F08A819B81FC
:100830000E94250D6B017C010E94293D21E0C61616
:10084000D706E806F90608F020E0822F01C080E014
:10085000DF91CF91FF90EF90DF90CF900895CF92EE
:10086000DF92EF92FF92CF93DF93EC010E94090495
:100870008823A9F10E94293D6B017C018A819B811B
:100880000E941F0DC61AD70AE80AF90A89EEC8168F
:1008900083E0D806E104F104C0F16C8188E10E9494
:1008A000943E6C818AE10E94943E6C818CE10E94AE
:1008B000943E6C818EE10E94943E8C8191E0892768
:1008C0008C830E94293DAB01BC018A819B81DF9111
:1008D000CF91FF90EF90DF90CF900C94610F60E08C
:1008E00088E10E94943E60E08AE10E94943E60E0CC
:1008F0008CE10E94943E60E08EE1DF91CF91FF9009
:10090000EF90DF90CF900C94943EDF91CF91FF90C9
:10091000EF90DF90CF900895CF92DF92EF92FF9209
:10092000CF93DF93EC018A819B810E945C0F882327
:1009300011F18A819B810E94300F18161906DCF490
:100940008A819B810E943C0F6B017C018A819B8183
:100950000E94300FBC01882777FD8095982F0E9458
:10096000B9409B01AC01C701B6010E941A4218169A
:1009700014F461E001C060E08A819B81DF91CF9136
:10098000FF90EF90DF90CF900C94E5100F931F93A2
:10099000CF93DF93EC0180E40E94E23D8C018A81D9
:1009A0009B810E94000F081719074CF08A819B81D8
:1009B0000E94F40E8017910714F060E001C061E01E
:1009C0008A819B810E944E1081E40E94E23D8C014D
:1009D0008A819B810E94120F081719073CF08A81B7
:1009E0009B810E94060F8017910714F461E001C0FB
:1009F00060E08A819B810E945D1082E40E94E23D5A
:100A00008C018A819B810E94240F081719073CF0F2
:100A10008A819B810E94180F8017910714F461E06E
:100A200001C060E08A819B81DF91CF911F910F917E
:100A30000C946C1025E132E0FC0131832083089591
:100A400025E132E0FC01318320830C94DD3C2F92C0
:100A50003F924F925F926F927F928F929F92AF924E
:100A6000BF92CF92DF92EF92FF920F931F93CF939B
:100A7000DF93CDB7DEB728970FB6F894DEBF0FBE71
:100A8000CDBF1C016A017B0109831A832B833C8340
:100A9000FC01828193810E945B0D9B01AC01C70127
:100AA000B6010E94513F2B013C01F10182819381EB
:100AB0000E945B0D9B01AC01C701B6010E94503F33
:100AC0004B015C01F101828193810E945B0D9B01CE
:100AD000AC0169817A818B819C810E94513F6B01BD
:100AE0007C01F101828193810E945B0D9B01AC012D
:100AF00069817A818B819C810E94503F69837A83CE
:100B00008B839C83F101828193810E94610D6D83AF
:100B10007E838F83988724E83AEB4CE358E3C30144
:100B2000B2010E94503F2D813E814F8158850E9425
:100B30001A4218166CF4F101828193810E944D0DC6
:100B40009B01AC01C301B2010E94174087FD8CC01C
:100B5000F101828193810E944D0D2B013C0124E81B
:100B60003AEB4CE358E3C501B4010E94513FA301A5
:100B700092010E94174087FF0EC0F101828193818C
:100B80000E94610D9B01AC01C501B4010E941A4293
:100B900018160CF471C0F101828193810E94670DD7
:100BA0004B015C0124E83AEB4CE358E3C701B60182
:100BB0000E94503FA50194010E941A4218166CF43D
:100BC000F101828193810E94310D9B01AC01C7012B
:100BD000B6010E94174087FD57C0F10182819381C1
:100BE0000E94310D6B017C0124E83AEB4CE358E3A1
:100BF00069817A818B819C810E94513FA701960176
:100C00000E94174087FF48C0F101828193810E94B2
:100C1000670D9B01AC0169817A818B819C810E9467
:100C20001A421816CCF549815A816B817C81F101F9
:100C30008281938128960FB6F894DEBF0FBECDBF98
:100C4000DF91CF911F910F91FF90EF90DF90CF90A8
:100C5000BF90AF909F908F907F906F905F904F90DC
:100C60003F902F900C94B10FB301A201F10182814A
:100C700093810E94970F6CCFB501A401F10182818D
:100C800093810E94AB0F87CFB701A601F10182814A
:100C900093810E947B0FA1CF28960FB6F894DEBFF8
:100CA0000FBECDBFDF91CF911F910F91FF90EF90BD
:100CB000DF90CF90BF90AF909F908F907F906F907C
:100CC0005F904F903F902F9008958F929F92AF9298
:100CD000BF92CF92DF92EF92FF920F931F93CF9329
:100CE000DF93EC016A017B014801590140E050E0CB
:100CF00064EB72E48A819B810E94970F40E050E090
:100D000064EB72EC8A819B810E94AB0F40E050E063
:100D100064E373E48A819B810E947B0F40E050E092
:100D200064E373EC8A819B810E94B10F8A819B816D
:100D30000E94530D2DE93BEF46E157E30E94254207
:100D4000AB01BC018A819B810E94A50F95018401A2
:100D5000B701A601CE010E942705DF91CF911F9117
:100D60000F91FF90EF90DF90CF90BF90AF909F904A
:100D70008F900895CF92DF92EF92FF920F931F937F
:100D8000CF93DF93EC018B0185E192E09983888317
:100D90007B836A83CB010E943F0D6B017C01C801FC
:100DA0000E94370DAB01BC0197018601CE010E9464
:100DB0006506DF91CF911F910F91FF90EF90DF902B
:100DC000CF9008954F925F926F927F928F929F92F1
:100DD000AF92BF92CF92DF92EF92FF920F931F9349
:100DE000CF93DF9300D000D0CDB7DEB74C01FC012C
:100DF000828193810E94520F882309F4D2C00E94FD
:100E0000293D2B013C01F401828193810E94C30E94
:100E1000461A570A680A790AF1EE4F16F3E95F0697
:100E2000F4E06F06710438F0F401828193810E942E
:100E3000520F81118DC0F401828193810E94E30ED3
:100E4000882309F4AEC0F401828193810E94D30EFD
:100E50005B016C01F401828193810E94CB0E2B0116
:100E60003C01F401828193810E943F0D9B01AC0102
:100E7000F4018281938129833A834B835C830E94AE
:100E8000370D8301720129813A814B815C810E9477
:100E9000E517AB01BC01F401828193810E94750FBB
:100EA000F401828193810E942B0D2B013C01F401FE
:100EB000828193810E94470D9B01AC01C301B20165
:100EC0000E941A42181664F4F401828193810E94F0
:100ED0002B0DAB01BC01F401828193810E94910F23
:100EE000F401828193810E94D30E2B013C01F40115
:100EF000828193810E94CB0EAB01BC0193018201E0
:100F0000C4010E942705F401828193810E94520F3F
:100F1000882369F1F401828193810E942B0D2B01BA
:100F20003C01F401828193810E94530D9B01AC012D
:100F3000C301B2010E941A421816CCF440E050E0FE
:100F4000BA01F401828193810E94670F61E010C0B1
:100F500040E050E0BA01F401828193810E94670F62
:100F600061E0F401828193810E94720F64CF60E09E
:100F7000F401828193810F900F900F900F90DF9179
:100F8000CF911F910F91FF90EF90DF90CF90BF9086
:100F9000AF909F908F907F906F905F904F900C9448
:100FA000720F0F900F900F900F90DF91CF911F91C4
:100FB0000F91FF90EF90DF90CF90BF90AF909F90F8
:100FC0008F907F906F905F904F900895CF93DF93B5
:100FD000EC018A819B810E94CB0EAB01BC018A810E
:100FE0009B810E94810F8A819B810E94D30EAB015D
:100FF000BC018A819B810E94890F40E050E0BA01C8
:101000008A819B81DF91CF910C94910F0F931F9355
:10101000CF93DF93EC018B0181960E943F2118A3AF
:101020000F8FDF91CF911F910F9108958F929F9213
:10103000AF92BF92CF92DF92EF92FF920F931F93E6
:10104000CF93DF93CDB7DEB7E7970FB6F894DEBF47
:101050000FBECDBF4C01FC01168E158E148E138E63
:1010600063EB71E080E09DE00E94F238F401878D2F
:1010700090A10E944611AB01BC018DE095E00E9459
:101080006D2A64E670E080E090E00E94583DF40133
:10109000878D90A10E94730D20E030E044E354E47A
:1010A0000E94513F6B017C01F40160837183828354
:1010B0009383878D90A10E946E0E9B01AC01C701A6
:1010C000B6010E94513FF401648375838683978340
:1010D000878D90A10E946D0DF401608771878287D2
:1010E000938711E0108B67E971E080E09DE00E943A
:1010F000F238A401485F5F4FB4016C5F7F4F1F92CD
:101100001F938FE38F9385E08F938EE18F9388EB0E
:101110008F938AE0A82E87EDB82E83EAC82E8DE340
:10112000D82E16E6E12EFE2C06EE1EE39401CE012B
:1011300001960E94752487E3FE013196D4019196B1
:1011400001900D928A95E1F76AE771E080E09DE0F9
:101150000E94F238F1E28F0E911C00E010E024E8CA
:1011600032E440E050E0BA01C4010E945D2364E62D
:1011700070E0C4010E94152362E671E080E09DE00A
:101180000E94F2380F900F900F900F900F900F90D9
:10119000E7960FB6F894DEBF0FBECDBFDF91CF91BB
:1011A0001F910F91FF90EF90DF90CF90BF90AF9085
:1011B0009F908F900895089540E063E48DE095E05E
:1011C0000E94FC286DE075E088EE94E00E94482FB4
:1011D00020E841E368EE74E086EC94E00C94C32AC6
:1011E00086EC94E00C94032B0F931F93CF93DF9323
:1011F000EC018C010F5E1F4F8DE095E00E94BA2933
:10120000892B21F18DE095E00E94B5292D8D3E8D31
:10121000FE01E20FF31F818B2F5F3F4F3E8F2D8F1B
:101220008A3029F08D3019F0213331052CF3FE017D
:10123000E20FF31F118AB80180E09DE00E9404399B
:101240001E8E1D8EF80111821082D6CFDF91CF91B4
:101250001F910F9108954F925F926F927F92AF927C
:10126000BF92CF92DF92EF92FF920F931F93CF9393
:10127000DF9300D000D000D0CDB7DEB75C01FC0119
:10128000878D90A10E94CF1085010F5D1F4F88238D
:1012900009F4DEC0C5010E94F40861E070E0C801F5
:1012A0000E942324F501878D90A10E94730D20E0F8
:1012B00030E044E354E40E94513F6B017C01F501AE
:1012C0006083718382839383878D90A10E946E0EC9
:1012D0009B01AC01C701B6010E94513FF501648337
:1012E000758386839783C8010E944021F501248578
:1012F00035854685578560857185828593850E94F1
:10130000503F6B017C0120E030E0A9010E941A42AD
:10131000181624F0F7FAF094F7F8F094F501878D99
:1013200090A10E94AF0EBC01882777FD8095982F71
:101330000E94B9409B01AC01C701B6010E941A424C
:1013400018160CF09EC0F5018089078D10A1C0848D
:10135000D184E284F3844484558466847784A30131
:101360009201882309F1C701B6010E941A4218169A
:101370000CF1A3019201C701B6010E94174087FF3B
:101380003FC0F501108AC8010E94B50EBC01882734
:1013900077FD8095982F0E94B9409B01AC01C70151
:1013A000B6010E94503F27C0C701B6010E941740F6
:1013B00087FF06C0F501C486D586E686F78620C07D
:1013C000A3019201C701B6010E941A421816C4F483
:1013D00081E0F501808BC8010E94B50EBC01882711
:1013E00077FD8095982F0E94B9409B01AC01C70101
:1013F000B6010E94513FF5016487758786879787FC
:10140000F5014485558566857785878D90A10E9475
:10141000E60FF501878D90A10E94BB0E2B013C01C8
:1014200020E030E048EC52E4F5016485758586855E
:1014300097850E9425420E948640AB01BC01E12CA9
:10144000F12C9301820186EC94E00E94822D19C058
:1014500060E070E0C80126960FB6F894DEBF0FBEBC
:10146000CDBFDF91CF911F910F91FF90EF90DF9053
:10147000CF90BF90AF907F906F905F904F900C9403
:10148000232426960FB6F894DEBF0FBECDBFDF91A2
:10149000CF911F910F91FF90EF90DF90CF90BF9071
:1014A000AF907F906F905F904F900895FC011082F5
:1014B0001182128213821482158216821782108A78
:1014C000118A128A138A148A158A168A178A108E2C
:1014D000118E128E138E148E40E050E064EB72E495
:1014E000458F568F678F70A340E050E064EB72EC3D
:1014F00041A352A363A374A340E050E064E373E408
:1015000045A356A367A370A740E050E064E373ECE3
:1015100041A752A763A774A715A683E482AB13AAB9
:1015200014AA15AA16AA40E050E064E072E447ABA2
:1015300050AF61AF72AF13AE40E050E068EC72E4C0
:1015400044AF55AF66AF77AFDF01A05CBF4F40E05F
:1015500050E060E271E44D935D936D937C9313973B
:1015600014964D935D936D937C931397149640E876
:1015700050E060E070E04D935D936D937C93139722
:10158000108611861286138614861586168617868F
:1015900014961C9211961D921D921D921C921397E7
:1015A00014961D921D921D921C921397149686E517
:1015B0008C9311961D921D921D921C921397149656
:1015C0001D921D921D921C92139714961D921D92AE
:1015D0001D921C92139714961D921D921D921C929F
:1015E000139714961C9211961C9211961C921196A8
:1015F0001C92A55ABF4F21E034E011963C932E93E4
:1016000012968FEF9FEF11969C938E93AC55B10974
:101610001C92A25ABF4F11963C932E93129611968C
:101620009C938E93AF55B1091C92AF59BF4F119641
:101630003C932E93129611969C938E93A256B109C9
:101640001D921D921D921C92139714961D921D922D
:101650001D921C921397149611961C921E9212962C
:1016600011961C921E92129611961C921E92129620
:101670001C9211961D921D921D921C921397149606
:101680001D921D921D921C921397149640E050E0FB
:1016900060E272E44D935D936D937C93139714967F
:1016A0001C9211961C92119611961C921E921296E3
:1016B00011961C921E92169640E050E060E87FE37F
:1016C0004D935D936D937C93139714961C92119692
:1016D00040EE53E964E070E04D935D936D937C932D
:1016E000139714961C9211961C92119683E690E023
:1016F00011969C938E9312961C92119640E050E4A2
:101700006CE176E44D935D936D937C9313971496FF
:1017100011961C921E92129681E090E011969C9375
:101720008E93129640E056E960E070E04D935D9331
:101730006D937C93139714964D935D936D937C9367
:101740001397149640E855E260E070E04D935D9386
:101750006D937C93139714964D935D936D937C9347
:10176000139714964D935D936D937C9313971896EE
:101770004D935D936D937C93139714961C92E05355
:10178000FF4F8DE090E09183808308950F931F9326
:10179000CF93DF938C01EB0162E272E0CE010E94F5
:1017A000B03864E172E0CE010E94B0386EE072E0C1
:1017B000CE010E94B038F801ED55FF4F6081718174
:1017C0004AE050E0CE010E94B93968E072E0CE01F3
:1017D0000E94B038F801EB55FF4F608171814AE0FB
:1017E00050E0CE010E94B93962E072E0CE010E9461
:1017F000B038F801E955FF4F408151816281738112
:101800002AE030E0CE010E946F396CEF71E0CE012A
:101810000E94B038F801E555FF4F40815181628147
:1018200073812AE030E0CE010E946F3966EF71E0EB
:10183000CE010E94B038F801E155FF4F408151813F
:10184000628173812AE030E0CE010E946F3960EF3F
:1018500071E0CE010E94B038F801ED54FF4F408195
:101860005181628173812AE030E0CE010E946F399C
:101870006AEE71E0CE010E94B038F801ED53FF4FDF
:10188000608170E04AE050E0CE010E94B93964EE18
:1018900071E0CE010E94B038F801EC53FF4F608137
:1018A00071814AE050E0CE010E94B9396EED71E0DD
:1018B000CE010E94B038F801EA53FF4F6081718178
:1018C0004AE050E0CE010E94B93968ED71E0CE01E6
:1018D0000E94B038F801E853FF4F608171814AE0FF
:1018E00050E0CE010E94B93962ED71E0CE010E9454
:1018F000B038F801E653FF4F608171814AE050E053
:10190000CE010E94B9396CEC71E0CE010E94B03872
:10191000F801E453FF4F608171814AE050E0CE014D
:101920000E94B93966EC71E0CE010E94B038F8012E
:10193000E253FF4F608171814AE050E0CE010E9486
:10194000B93964EC71E0CE010E94F23880E090E099
:10195000DF91CF911F910F9108950F931F93CF9314
:10196000DF93EC01FC01E053FF4F408160E070E049
:101970008EE39CE00E947B31FE01EF52FF4F4081DD
:1019800061E070E08EE39CE00E947B31C558DF4F40
:1019900064E070E049918B010F5F1F4F8EE39CE084
:1019A0000E947B310935110511F0B801F3CFDF91A9
:1019B000CF911F910F910895EF92FF920F931F9374
:1019C000CF93DF9300D0CDB7DEB78C0160E070E03D
:1019D0008EE39CE00E947831898361E070E08EE3C1
:1019E0009CE00E9478318A83F801E053FF4F2981FF
:1019F0003A81808191812817390719F0C8010E9426
:101A0000AD0C05581F4F64E070E07B018FEFE81AC2
:101A1000F80A8EE39CE00E947831F80181938F01EF
:101A2000F9E5EF16F10411F0B701EFCF0F900F9029
:101A3000DF91CF911F910F91FF90EF900895FC01DE
:101A400060817181828193810895FC016481758137
:101A5000868197810895FC016489758986899789B3
:101A60000895FC0165A176A187A190A508958558E8
:101A70009F4FFC016081718182819381089581581B
:101A80009F4FFC0160817181828193810895FC01E7
:101A9000608D718D828D938D0895FC01658D768D9D
:101AA000878D90A108958D579F4FFC0160817181B2
:101AB000828193810895FC0160897189828993896B
:101AC0000895FC0161A172A183A194A10895FC0174
:101AD00061A572A583A594A50895FC0167A970ADC1
:101AE00081AD92AD0895FC0163A974A985A996A959
:101AF0000895FC0122A9273559F4EA58FF4F608167
:101B00007181882777FD8095982F0E94B9400895AC
:101B1000FC0160857185828593850895EF92FF921F
:101B20000F931F93CF93DF938C01EB016FE772E06C
:101B3000CE010E94B03861E772E0CE010E94B03859
:101B4000F80165A570E04AE050E0CE010E94B93985
:101B50006BE672E0CE010E94B038F80162A9CE01B6
:101B60000E94D738F80185A58823A9F165E672E0BF
:101B7000CE010E94B038F80143A954A965A976A9FD
:101B800022E030E0CE010E94D23A6FE572E0CE0151
:101B90000E94B038C8010E94790DAB01BC0122E05F
:101BA00030E0CE010E94D23A69E572E0CE010E9497
:101BB000B03820E030E044E052E4F80167A970ADAD
:101BC00081AD92AD0E94503FAB01BC0122E030E0FC
:101BD000CE010E94D23A63E572E0CE010E94B03895
:101BE0007801F7E8EF0EF11CF701608170E04AE040
:101BF00050E0CE010E94B9396DE472E0CE010E943E
:101C0000B038F801ED57FF4F4081518162817381F7
:101C100022E030E0CE010E94D23AF7018081882391
:101C200089F167E472E0CE010E94B038F801E5580E
:101C3000FF4F408151816281738122E030E0CE010B
:101C40000E94D23A61E472E0CE010E94B038F801FD
:101C5000E158FF4F408151816281738122E030E081
:101C6000CE010E94D23A6BE372E0CE010E94B038FE
:101C7000F801448955896689778922E030E0CE01F0
:101C80000E94D23A65E372E0CE010E94B038F801BA
:101C9000E256FF4F608170E04AE050E0CE010E94C2
:101CA000B9396FE272E0CE010E94B038F801E45613
:101CB000FF4F608171814AE050E0CE010E94B93946
:101CC0006DE272E0CE010E94F23880E090E0DF9198
:101CD000CF911F910F91FF90EF900895CF92DF92D7
:101CE000EF92FF92CF93DF93EC010E94790D9B015D
:101CF000AC016BA97CA98DA99EA90E94503F6B01E4
:101D00007C0120E030E044E353E40E941A421816BC
:101D10007CF020E030E044E353ECC701B6010E94C0
:101D2000174087FF0AC020E030E044EB53E408C0CE
:101D300020E030E044EB53EC03C020E030E0A901A8
:101D4000C701B6010E94513F6EA77FA788AB99AB30
:101D5000DF91CF91FF90EF90DF90CF90089587575C
:101D60009F4FFC0180819181089585579F4FFC0111
:101D700080819181089583579F4FFC01608171811B
:101D8000828193810895835B9F4FFC016081718103
:101D90008281938108958A5A9F4FFC0160817181ED
:101DA000828193810895865A9F4FFC0160817181E1
:101DB0008281938108958F569F4FFC0160817181CC
:101DC0008281938108958B5A9F4FFC0180810895F1
:101DD000FC0160857185828593850895FC01648589
:101DE00075858685978508958C539F4FFC0180816A
:101DF000918108958C539F4FFC01718360830895F6
:101E00008A539F4FFC0180819181089588539F4F91
:101E1000FC0180819181089588539F4FFC0171835B
:101E20006083089586539F4FFC01808191810895BE
:101E300084539F4FFC0180819181089584539F4F6B
:101E4000FC0171836083089582539F4FFC01808160
:101E5000918108958D559F4FFC0180819181089556
:101E600084569F4FFC018081918108958A589F4F2D
:101E7000FC0180819181089580599F4FFC01608110
:101E8000718182819381089581569F4FFC01608109
:101E900071818281938108958C589F4FFC018081CC
:101EA0009181089589579F4FFC0180810895845B3B
:101EB0009F4FFC018081089582569F4FFC018081D5
:101EC0000895FC0140835183628373830895FC016C
:101ED0004483558366837783089589579F4FFC0118
:101EE00060830895FC01648F0895FC01448B558B39
:101EF000668B778B0895FC0145A356A367A370A753
:101F0000089585589F4FFC014083518362837383FA
:101F1000089581589F4FFC014083518362837383EE
:101F20000895FC01408F518F628F738F0895FC01DB
:101F3000458F568F678F70A308958D579F4FFC0173
:101F400040835183628373830895FC01408B518BDE
:101F5000628B738B0895FC0141A352A363A374A306
:101F60000895FC0141A752A763A774A70895CF93D2
:101F7000DF93EC01673511F0633429F56AAB6735FF
:101F800081F4FE01EA58FF4F60817181882777FD57
:101F90008095982F0E94B9406BAB7CAB8DAB9EAB0C
:101FA0000AC0633441F4488559856A857B854BAB0B
:101FB0005CAB6DAB7EAB40E050E064E072E44FABF5
:101FC00058AF69AF7AAFDF91CF910895FC0147AB6D
:101FD00050AF61AF72AF0895CF93DF93EC01CB01A7
:101FE000BA010E948640CB0188599E4F68E671E095
:101FF0000E940B43BC01882777FD8095982F0E9493
:10200000B9406BAB7CAB8DAB9EABDF91CF910895AC
:102010008E599F4FFC0140835183628373830895DF
:10202000845B9F4FFC0160830895835B9F4FFC019D
:10203000408351836283738308958A5A9F4FFC01C2
:1020400040835183628373830895865A9F4FFC01B6
:1020500040835183628373830895825A9F4FFC01AA
:10206000408351836283738308958B5A9F4FFC0191
:10207000608308958F5A9F4FFC0140835183628390
:1020800073830895FC0140875187628773870895A1
:10209000FC0144875587668777870895CF93DF9340
:1020A0001F92CDB7DEB76983298187599F4FFC0105
:1020B00020830F90DF91CF910895CF93DF931F92EC
:1020C000CDB7DEB76983298186599F4FFC012083F4
:1020D0000F90DF91CF910895CF93DF931F92CDB7EB
:1020E000DEB76983298185599F4FFC0120830F90BA
:1020F000DF91CF9108958D559F4FFC0171836083CF
:10210000089582569F4FFC016083089584569F4F27
:10211000FC017183608308958A589F4FFC0171838D
:102120006083089588589F4FFC01718360830895F0
:1021300080599F4FFC0140835183628373830895CC
:1021400084599F4FFC0140835183628373830895B8
:10215000FC01E658FF4F20812223F9F0739720817C
:102160002223D9F0319720812223B9F0FC01248D5C
:10217000222399F023AD222381F0E859FF4F2081DB
:10218000222359F031962081222339F03196208183
:10219000222319F031968081089580E00895FC0192
:1021A00085A508951F93CF93DF93EC01162F6AA99D
:1021B0000E94B70F1DA7DF91CF911F9108958C58F2
:1021C0009F4FFC0171836083089586589F4FFC01E7
:1021D000608308958B559F4FFC0180819181089504
:1021E0008B559F4FFC0171836083089589559F4FE4
:1021F000FC016081718182819381089589559F4F8F
:10220000FC014083518362837383089585559F4FFA
:10221000FC016081718182819381089585559F4F72
:10222000FC014083518362837383089581559F4FDE
:10223000FC016081718182819381089581559F4F56
:10224000FC01408351836283738308958D549F4FB3
:10225000FC01608171818281938108958D549F4F2B
:10226000FC014083518362837383089589549F4F97
:10227000FC016081718182819381089585549F4F13
:10228000FC016081718182819381089581549F4F07
:10229000FC01608171818281938108958D539F4FEC
:1022A000FC01808108958D539F4FFC016083089548
:1022B00081E08093C40B8091C20B9091C30B019677
:1022C0009093C30B8093C20B8091C20B9091C30B70
:1022D00064E170E00E940B439093C30B8093C20BA8
:1022E00008958FE096E00C94C01D8FE096E00C946A
:1022F000FC1D80EF9AE00E94DC0C80EF9AE00E94C7
:10230000F610AB01BC0126E080E09DE00E94403564
:102310006AEB73E080E09DE00E94F23889E096E08D
:102320000E94841A6FE973E080E09DE00E94B0385B
:1023300080EF9AE00E940611AB01BC012AE030E078
:1023400080E09DE00E94C13980EF9AE00E94061172
:10235000AB01BC0126E08DE99DE00E94403580EF95
:102360009AE00E944E11882361F06FE773E080E0ED
:102370009DE00E94F23827E040EC52E160E070E01E
:1023800019C063E673E080E09DE00E94B03880EF02
:102390009AE00E941611AB01BC012AE030E080E017
:1023A0009DE00E94C13980EF9AE00E941611AB01B6
:1023B000BC0126E08AE39EE00E94403567E473E0BA
:1023C00080E09DE00E94B03880EF9AE00E942611E4
:1023D000AB01BC012AE030E080E09DE00E94C13901
:1023E00080EF9AE00E942611AB01BC0126E087ED48
:1023F0009EE00E94403565E373E080E09DE00E942E
:10240000F23868EE73E080E090E00E94583D61E0B1
:1024100083E40E945B3E60E273E080E09DE00E9406
:10242000F23864E670E080E090E00E94583D61E0A0
:1024300083E40E94943E6BE073E080E09DE00E94A4
:10244000F2386FEE72E080E09DE00E94B03880EFDD
:102450009AE00E943611AB01BC012AE030E080E036
:102460009DE00E94C13980EF9AE00E943611AB01D5
:10247000BC018BEF95E00E946D2A64E670E080E07D
:1024800090E00E94583D6FED72E080E09DE00E9478
:10249000F23860E080E30E945B3E61E08EE20E94E1
:1024A0005B3E66EB72E080E09DE00E94B03880EF1A
:1024B0009AE00E943E11AB01BC012AE030E080E0CE
:1024C0009DE00E94C13980EF9AE00E943E11AB016D
:1024D000BC018FEA9AE00E943D1B83EA95E00E94CE
:1024E000160869EA72E080E09DE00E94F23860E040
:1024F00083E00E945B3E43E050E061E771E181E0F0
:102500000E94D43A60E082E00E945B3E43E050E0EB
:1025100065E771E180E00E94D43A6BE972E080E007
:102520009DE00E94F23848E551E164E670E080E009
:1025300090E00E94DD300E94E9306AE872E080E0BD
:102540009DE00C94F2386F927F928F929F92AF929F
:10255000BF92CF92DF92EF92FF920F931F93CF9390
:10256000DF9300D000D01F92CDB7DEB7ADB6BEB6B8
:102570006FE774E00E9408457C01009709F428C2C7
:10258000FC0101900020E9F78F0101501109081B9F
:10259000190B0430110508F41BC2F7018081980162
:1025A0002450310969018DB69EB6833209F0ADC160
:1025B00044E050E0B701CE0101960E9425451D82FE
:1025C000380135E0631A71088DB79EB78C199D09E3
:1025D0000FB6F8949EBF0FBE8DBF0DB71EB70F5F2D
:1025E0001F4FB7016B5F7F4FA301C8010E940C45CD
:1025F000F801E60DF71D108269E172E0CE01019647
:102600000E941545892BB1F4C8010E94C34461E0C2
:10261000892B09F460E080EF9AE00E946D0FC801F9
:102620000E94C344019709F0CEC18FE995E00E9452
:10263000E607C9C16EE172E0CE0101960E94154520
:10264000892BB1F480EF9AE00E94530D6B017C015D
:10265000C8010E94BF449B01AC01C701B6010E94A2
:10266000513FAB01BC0180EF9AE00E949D0FABC1CE
:1026700063E272E0CE0101960E941545892B51F468
:10268000C8010E94BF44AB01BC0180EF9AE00E94E8
:10269000810F99C168E272E0CE0101960E94154552
:1026A000892B51F4C8010E94BF44AB01BC0180EFEB
:1026B0009AE00E94890F87C16DE272E0CE01019617
:1026C0000E941545892B61F4C8010E94C34461E052
:1026D000892B09F460E080EF9AE00E94D21069C172
:1026E00062E372E0CE0101960E941545892BC1F488
:1026F00080EF9AE00E94730D6B017C01C8010E947B
:10270000E1440E94B9409B01AC01C701B6010E949F
:10271000513FAB01BC0180EF9AE00E94EC0F49C130
:1027200067E372E0CE0101960E941545892B39F4CA
:10273000F801608180EF9AE00E94B70F3AC16CE324
:1027400072E0CE0101960E941545892B61F4C80103
:102750000E94C34461E0892B09F460E080EF9AE0B5
:102760000E94811030C161E472E0CE0101960E94A6
:102770001545892B49F4C8010E94C344BC0180EF70
:102780009AE00E9486101FC166E472E0CE010196B5
:102790000E941545892B49F4C8010E94C344BC011D
:1027A00080EF9AE00E947B100EC16BE472E0CE01D4
:1027B00001960E941545892B49F4C8010E94C34423
:1027C000BC0180EF9AE00E94FA0EFDC060E572E065
:1027D000CE0101960E941545892B49F4C8010E943B
:1027E000C344BC0180EF9AE00E940C0FECC065E589
:1027F00072E0CE0101960E941545892B49F4C8016B
:102800000E94C344BC0180EF9AE00E941E0FDBC00F
:102810006AE572E0CE0101960E941545892B39F4D4
:1028200060E07DE080EF9AE00E94C60BC2C06FE5D9
:1028300072E0CE0101960E941545892B49F4C8012A
:102840000E94C344BC0180EF9AE00E94F010BBC01C
:1028500064E672E0CE0101960E941545892B51F481
:10286000C8010E94E144AB01BC0180EF9AE00E94E4
:10287000FE10A9C069E672E0CE0101960E941545DE
:10288000892B51F4C8010E94E144AB01BC0180EFE7
:102890009AE00E940E1197C06EE672E0CE0101969A
:1028A0000E941545892B51F4C8010E94E144AB01F7
:1028B000BC0180EF9AE00E941E1185C063E772E0C0
:1028C000CE0101960E941545892B51F4C8010E9442
:1028D000E144AB01BC0180EF9AE00E942E1173C06D
:1028E00068E772E0CE0101960E941545892B09F038
:1028F00060C0C8010E94C34461E0892B09F460E014
:1029000080EF9AE00E9453115EC043E050E0B701AF
:10291000CE0101960E9425451C82035011092DB756
:102920003EB7201B310B0FB6F8943EBF0FBE2DBF34
:102930000DB71EB70F5F1F4FB7016C5F7F4FA6012A
:10294000C8010E940C45F801EC0DFD1D10826DE7D9
:1029500072E0CE0101960E941545892B49F4C80109
:102960000E94BF44AB01BC0180EF9AE00E9442107C
:1029700061E872E0CE0101960E941545892B49F469
:10298000C8010E94BF44AB01BC0180EF9AE00E94E5
:10299000481065E872E0CE0101960E941545892B2A
:1029A00041F4C8010E94C344BC0180EF9AE00E9438
:1029B00092100FB6F8949EBE0FBE8DBE6FE774E006
:1029C00080E090E0D7CD80EF9AE00E94AD0CF1CF8F
:1029D0000FB6F894BEBE0FBEADBE0F900F900F9015
:1029E0000F900F90DF91CF911F910F91FF90EF907B
:1029F000DF90CF90BF90AF909F908F907F906F901F
:102A00000895CF93DF93DC01FC0101900020E9F7EA
:102A1000E81BF90B3297EC01219680E09E012A1BFE
:102A20003B0B2E173F0718F499918927F7CFDF91B9
:102A3000CF9108951F93CF93DF93C1E2D5E014E6C1
:102A400080E09DE00E94D533892B61F180E09DE01C
:102A50000E94F03320911F0530912005F901EF5DB0
:102A6000FA4F80832F5F3F4F3093200520931F053F
:102A70008A3029F08D3019F0233631050CF3F90135
:102A8000EF5DFA4F10826CE281E295E00E94A312A2
:102A90001092200510921F05FE01812F11928A9538
:102AA000E9F7CECFDF91CF911F9108958DE99DE099
:102AB0000E94D533892BF9F08DE99DE00E94F03317
:102AC000682F89E096E00E94CC1880931E05882329
:102AD00069F386E499E00E947A25BC018FEA9AE0C6
:102AE0000E944E1B86E499E00E947A25BC0180E09A
:102AF0009DE00C94043908958AE39EE00E94D5334A
:102B0000892B79F180EF9AE00E944E11882351F0D1
:102B10008AE39EE00E94F033682F85E895E00E94EA
:102B20006F1CEACF8AE39EE00E94F033682F8EEAA2
:102B300097E00E94B41A80931D058823E9F28EEA7B
:102B400097E00E941D1BBC018FEA9AE00E944E1B79
:102B50008EEA97E00E941D1BBC0180E09DE00C9472
:102B60000439089587ED9EE00E94D533892BF9F052
:102B700087ED9EE00E94F033682F82EE96E00E947F
:102B8000B41A80931C05882369F382EE96E00E94B4
:102B90001D1BBC018FEA9AE00E944E1B82EE96E05C
:102BA0000E941D1BBC0180E09DE00C940439089537
:102BB0008BEF95E00E94BA29892BF9F08BEF95E015
:102BC0000E94B529682F86E196E00E94B41A80938E
:102BD0001B05882369F386E196E00E941D1BBC015A
:102BE0008FEA9AE00E944E1B86E196E00E941D1B30
:102BF000BC0180E09DE00C94043908958091C40BE1
:102C0000882309F444C083EA95E00E942B0980914F
:102C1000C20B9091C30B8091C20B9091C30B65E0E6
:102C200070E00E940B43892B71F48FE096E00E94C4
:102C3000591E81E196E00E942F0460E07DE080EF64
:102C40009AE00E948E0D8091C20B9091C30B6AE0B6
:102C500070E00E940B43892BC1F48FE096E00E9444
:102C60005E1F8FEA9AE00E94501B8FE995E00E9458
:102C7000E20681E196E00E948C0481E196E00E94E8
:102C8000C6048FEA9AE00E94C61B1092C40B0C94F3
:102C9000D81580EF9AE00E94560A1092B20A10925C
:102CA000B10A88EE93E0A0E0B0E08093B30A90937D
:102CB000B40AA093B50AB093B60A87E992E090935C
:102CC000B00A8093AF0A80EF9AE09093BC0A809399
:102CD000BB0A60E070E086E499E00E94F02460E0C6
:102CE00070E08AE798E00E94AB1A60E070E08EEA3C
:102CF00097E00E94AB1A60E070E082EE96E00E94DE
:102D0000AB1A60E070E086E196E00E94AB1A60EFDB
:102D10007AE081E196E00E94E70360EF7AE08FE0DD
:102D200096E00E94801C40EF5AE066E479E089E07A
:102D300096E00E94D61641E063E48BEF95E00E9496
:102D4000FC2860EF7AE083EA95E00E94060860EFD5
:102D50007AE08FE995E00E94BA0640EF5AE06AE314
:102D60007EE085E895E00C94671C8FE995E00E9471
:102D70001A0583EA95E00E94DB0889E096E00E944C
:102D8000C91681E196E00E94DA038FEA9AE00C947A
:102D9000281B2FE832E0FC013183208308952FE8BF
:102DA00032E0FC01318320830C94DD3CFC018FE890
:102DB00092E0918380835583448373836283089573
:102DC000CF92DF92EF92FF921F93CF93DF93162F54
:102DD00060E0812F0E945B3E61E0812F0E94943E63
:102DE000C0E0D4E080E1C82E87E2D82EE12CF12C9F
:102DF00028E438EE41E050E060E0812F0E94CA3EB6
:102E000016161706180619063CF46C157D058E0576
:102E10009F0514F46B017C01219751F76AE675E078
:102E200080E09DE00E94B0382AE030E0B701A601C2
:102E300080E09DE00E94C1398CE0C816D104E10415
:102E4000F104F4F184E1C816D104E104F104ECF1D9
:102E50008EE1C816D104E104F104E4F188E2C81659
:102E6000D104E104F104DCF18CE3C816D104E104DF
:102E7000F104D4F180E5C816D104E104F104CCF1E9
:102E800086E9C816D104E104F104C4F18CE2C81645
:102E900081E0D806E104F104B4F188E5C81682E0C7
:102EA000D806E104F104A4F180EBC81684E0D8064A
:102EB000E104F10494F560EB74E080E090E030C050
:102EC00060E072EC81E090E02BC060E071EE80E0A9
:102ED00090E026C060E076E980E090E021C060E804
:102EE00070E780E090E01CC060E07BE480E090E070
:102EF00017C060E478E380E090E012C060E875E21B
:102F000080E090E00DC060EC72E180E090E008C0ED
:102F100060E679E080E090E003C060E070E0CB0123
:102F2000DF91CF911F91FF90EF90DF90CF900895A8
:102F3000CF92DF92EF92FF927C0166E575E080E030
:102F40009DE00E94B03863E170E0C7010E94E01686
:102F50006B017C011616170618061906C4F46FE4F7
:102F600075E080E09DE00E94B0382AE030E0B701D3
:102F7000A60180E09DE00E94C13926E0B701A601CC
:102F80008DE99DE00E944035B601C70119C068E493
:102F900075E080E09DE00E94B03863E375E080E07A
:102FA0009DE00E94F23826E040EC52E160E070E0E3
:102FB0008DE99DE00E94403560EC72E180E090E098
:102FC000FF90EF90DF90CF9008954F925F926F92B5
:102FD0007F928F929F92AF92BF92CF92DF92EF92A9
:102FE000FF920F931F93CF93DF93CDB7DEB7609718
:102FF0000FB6F894DEBF0FBECDBF69837A838B8393
:103000009C83CA01B90127013801A60195010E94DC
:10301000503F25E33AEF4EE85CE30E9425426B0106
:103020007C010E9488426D877E878F87988BC701BD
:10303000B6010E941B406D837E838F83988725E3B2
:103040003AEF4EE85CE369817A818B819C810E9432
:1030500025426B017C0125E33AEF4EE85CE3C301B6
:10306000B2010E9425422B013C01C701B6010E941A
:1030700088424B015C01C701B6010E941B40698375
:103080007A838B839C83C301B2010E948842698743
:103090007A878B879C87C301B2010E941B406B011A
:1030A0007C0129853A854B855C8569817A818B8194
:1030B0009C810E9425422B013C01A7019601C5017C
:1030C000B4010E9425422D813E814F8158850E9486
:1030D00025429B01AC01C301B2010E94503F9B01FC
:1030E000AC010E9425422B013C012D853E854F8578
:1030F0005889C701B6010E9425429B01AC010E947C
:1031000025429B01AC01C301B2010E94513F0E94C4
:1031100092422B013C0129853A854B855C85C5018E
:10312000B4010E9425424B015C01A701960169810F
:103130007A818B819C810E9425422D813E814F8125
:1031400058850E9425429B01AC01C501B4010E9433
:10315000513F9B01AC01C301B2010E94C43F26E76D
:103160003BE742EC5AE40E94254260960FB6F89481
:10317000DEBF0FBECDBFDF91CF911F910F91FF90AA
:10318000EF90DF90CF90BF90AF909F908F907F9007
:103190006F905F904F900895CF93DF93EC018A81F9
:1031A0009B810E94192661E0892B09F460E08C81E3
:1031B0009D810E9410108C819D810E94570F882351
:1031C00069F18A819B810E945125682F8C819D81A4
:1031D0000E9435108A819B810E9451258134F1F42F
:1031E00060E070E08A819B810E947C25FC018281E5
:1031F0008235A1F060E070E08A819B810E947C258D
:10320000FC0183818D3451F060E070E08A819B8104
:103210000E947C25FC018481833431F48C819D8162
:10322000DF91CF910C94570F0E94293DAB01BC0157
:103230008C819D810E9415108A819B810E9474253A
:10324000AB01BC018C819D810E9408108A819B8109
:103250000E945425AB01BC018C819D810E941D10F0
:103260008A819B810E945A25AB01BC018C819D8182
:103270000E9425108C819D810E94DB0EAB01BC0158
:103280008A819B810E946025AB01BC018C819D815C
:103290000E942D108A819B810E944B25AB01BC01AD
:1032A0008C819D810E943A10B9CFDF92EF92FF92FC
:1032B0000F931F93CF93DF93CDB7DEB7A8970FB6C9
:1032C000F894DEBF0FBECDBF8C016DE175E080E0EC
:1032D0009DE00E94F238F801848195810E94EA10F5
:1032E000892B31F466E075E080E09DE00E94F238C1
:1032F000F801848195810E94EA10019709F07FC04E
:103300006FEE74E080E09DE00E94F23861EE74E0C0
:103310008DE99DE00E94F23869EC74E08DE99DE052
:103320000E94F23861EB74E08DE99DE00E94F23872
:1033300069E974E08DE99DE00E94F23861E874E08B
:103340008DE99DE00E94F23869E674E08DE99DE028
:103350000E94F23861E574E08DE99DE00E94F23848
:1033600063E474E08DE99DE00E94F2381AA219A28C
:1033700085E794E098A38F8FCE0101967C019CA3F2
:103380008BA38EE190E098A78FA3CE014F960E9469
:10339000342167E374E0CE014F960E94B038F80103
:1033A000848195810E940611AB01BC012AE030E0C6
:1033B000CE014F960E946F396FE274E0CE014F96B6
:1033C0000E94B038C7010E940115D82EFFE0F817FF
:1033D00028F060E3CE014F960E94D73840E150E0DC
:1033E0006D2DCE014F960E94E039B7018DE99DE029
:1033F0000E940439B70180E09DE00E940439F80181
:10340000848195810E94EA10029709F055C066E117
:1034100074E080E09DE00E94F23865E074E08DE9A0
:103420009DE00E94F23863ED73E08DE99DE00E941B
:10343000F2381AA219A285E794E098A38F8FCE01E3
:1034400001967C019CA38BA38EE190E098A78FA3AB
:10345000CE014F960E94342169EC73E0CE014F9665
:103460000E94B038F801848195810E940611AB0159
:10347000BC012AE030E0CE014F960E946F3969E826
:1034800072E0CE014F960E94D538C7010E94011507
:10349000182F803128F460E3CE014F960E94D73870
:1034A00040E150E0612FCE014F960E94E039B70114
:1034B0008DE99DE00E940439A8960FB6F894DEBF0E
:1034C0000FBECDBFDF91CF911F910F91FF90EF9075
:1034D000DF9008951092C80B1092C70B85E794E017
:1034E0009093C60B8093C50B8FEC9BE09093CA0B17
:1034F0008093C90B88E290E09093CE0B8093CD0B24
:1035000085EC9BE00C943421CF93DF93EC010E9477
:103510009817AB01BC018C819D810E940E118C819A
:103520009D810E94AD0CCE010E9455198DE99DE050
:103530000E9462348DE99DE00E94A2358C819D81BC
:103540000E940611AB01BC0126E08DE99DE0DF91F0
:10355000CF910C944035FC01E853FF4F118210824B
:103560003296118210820895CF93DF93DC01A85325
:10357000BF4F4D915C911197FC01E653FF4F4236CE
:10358000510514F0118210826A3011F06D3011F47F
:1035900011821082643261F424E6EC0119922A95BA
:1035A000E9F7EC01688381E090E08D939C933AC049
:1035B0002081318121303105E1F024F421153105DC
:1035C000C1F133C02230310511F12330310569F5E5
:1035D000FC01E40FF51F60834E5F5F4F4D935C93DA
:1035E0001182BC018C599F4F0E941E4521E030E0A2
:1035F00020C09A012F5F3F4FEC01C40FD51F2D93C0
:103600003C9368836A3299F482E090E00BC09A019F
:103610002F5F3F4F2D933C93DC01A40FB51F6C939C
:1036200083E090E09183808302C01182108220E0C9
:1036300030E0C901DF91CF9108958C599F4F0895D3
:10364000862F0E94053281E090E008950C94C832E4
:1036500027E934E0FC01318320830C94C133CF93FC
:10366000DF93EC0187E994E0998388830E94C1335A
:10367000CE01DF91CF910C94DD3C9A01AB01CA01E0
:10368000B90196958795779567957C5D8B409F4F9F
:103690000E941F43CA01B9010C94B3310C94043940
:1036A000EF92FF920F931F93CF93DF93CDB7DEB7C7
:1036B0002A970FB6F894DEBF0FBECDBF8C017C01F8
:1036C0008EE0E80EF11C1C821B8285E794E09A8351
:1036D0008983FE82ED828EE190E09A878987CE0110
:1036E00001960E9434216BE975E0CE0101960E949B
:1036F000B038F801848595850E94360F4AE050E085
:10370000BC01CE0101960E94B93965E975E0CE0190
:1037100001960E94B038F801848595850E943C0F7F
:10372000AB01BC0122E030E0CE0101960E94D23A0A
:103730006FE875E0CE0101960E94B038C7010E9483
:103740000115005C1F4FF8018083803128F460E38D
:10375000CE0101960E94D73840E150E0F801608127
:10376000CE0101960E94E039B70180E09DE00E9401
:1037700004392A960FB6F894DEBF0FBECDBFDF9195
:10378000CF911F910F91FF90EF900895AF92BF924C
:10379000CF92DF92EF92FF920F931F93CF93DF931D
:1037A000CDB7DEB72A970FB6F894DEBF0FBECDBFF8
:1037B0008C01FC01848595850E94EE0E20E030E0AE
:1037C000A9010E941740882309F470C05801FCE247
:1037D000AF0EB11C1C821B8285E794E09A8389831B
:1037E000BE82AD8284E190E09A878987CE010196FE
:1037F0000E94342167E875E0CE0101960E94B0383E
:10380000F801848595850E94E80E6B017C01F80122
:10381000848595850E94EE0E9B01AC01C701B6011F
:103820000E94503FAB01BC0122E030E0CE01019686
:103830000E94D23A63E875E0CE0101960E94B0384A
:103840007801F0E4EF0EF11CF701108281E090E0C6
:10385000F50101900020E9F7EA19FB0932978E176C
:103860009F0750F4F801E80FF91F24A5F7013081F4
:10387000232720830196ECCFF7018081803128F443
:1038800060E3CE0101960E94D73840E150E0F70195
:103890006081CE0101960E94E039B50180E09DE093
:1038A0000E940439B501C8010E9404392A960FB656
:1038B000F894DEBF0FBECDBFDF91CF911F910F9166
:1038C000FF90EF90DF90CF90BF90AF900895FC01F4
:1038D000578B468B718F608F118210820895FC0187
:1038E000A081B181A80FB91F12966C93808191813C
:1038F00043972CF480819181019691838083089570
:10390000CF93DF93EB01FC01718360830E94353D0F
:103910006093250C7093260C8093270C9093280CB1
:103920004091250C5091260C6091270C7091280C29
:103930004093210C5093220C6093230C7093240C21
:1039400010920D0C10920E0C10920F0C1092100C85
:1039500081E08093080C1092FA0B1092FB0B80917F
:10396000F70B9091F80B20E03091F90B231760F4DE
:10397000FC0134E0239FE00DF11D1124108211821F
:10398000128213822F5FF0CFCE010E94300F843657
:1039900091053CF063E670E0CE01DF91CF910C948D
:1039A0008610DF91CF910895CF92DF92EF92FF9230
:1039B0000F931F93CF93CB01BA0197FF09C0909546
:1039C0008095709561957F4F8F4F9F4FC0E001C0EC
:1039D000C1E0683621E072078105910534F028E6E0
:1039E00031E040E050E00E944143653B71058105B4
:1039F000910534F0645B71098109910921E0C227C6
:103A00006B3571058105910564F004EB10E020E051
:103A100030E068017901C61AD70AE80AF90AC70135
:103A2000B601660F771FFB01E554FC4F6081718181
:103A3000CC2319F080E090E00CC0CB01A0E0B0E016
:103A40009C01AD0166277727CB01621B730B840BAA
:103A5000950BCF911F910F91FF90EF90DF90CF903A
:103A60000895465A5F4F6F4F7F4F0C94D41C4F926E
:103A70005F926F927F928F929F92AF92BF92CF92FE
:103A8000DF92EF92FF920F931F93CF93DF938C01FE
:103A90006090FA0BC091F70BD091F80B712CC12CF0
:103AA000D12C7601812C912C54017614C1F04881DF
:103AB00059816A817B81C8010E94311D860E971E43
:103AC000A81EB91E4991599169917991C8010E9426
:103AD000D41CC60ED71EE81EF91E7394E6CF8114BF
:103AE0009104A104B10429F4C114D104E104F10446
:103AF000A1F1662D70E080E090E00E94B9402B01BA
:103B00003C01C501B4010E94B94020E830E040E822
:103B100057E30E942542A30192010E941E404B01DF
:103B20005C01C701B6010E94B94020E830E040E8DE
:103B300057E30E942542A30192010E941E40A50165
:103B400094010E94C43F21EE3EE245E652E40E9409
:103B500025420E948640CB0102C080E090E0DF91C8
:103B6000CF911F910F91FF90EF90DF90CF90BF907A
:103B7000AF909F908F907F906F905F904F9008953F
:103B80000F931F930E94293D00912D0C10912E0C34
:103B900020912F0C3091300C601B710B820B930B1A
:103BA000653171058105910520F18091250C909179
:103BB000260CA091270CB091280C8093210C909397
:103BC000220CA093230CB093240C0E94353D6093EB
:103BD000250C7093260C8093270C9093280C0E9440
:103BE000293D60932D0C70932E0C80932F0C909395
:103BF000300C1F910F9108950F931F930E94293D40
:103C00000091290C10912A0C20912B0C30912C0C36
:103C1000601B710B820B930B65317105810591055A
:103C200008F444C08091150C9091160CA091170CCB
:103C3000B091180C8093110C9093120CA093130C5C
:103C4000B093140C0E94353D6093150C7093160CC4
:103C50008093170C9093180C8091210C9091220C5A
:103C6000A091230CB091240C80931D0C90931E0CFA
:103C7000A0931F0CB093200C8091250C9091260CE2
:103C8000A091270CB091280C8093190C90931A0CDA
:103C9000A0931B0CB0931C0C0E94293D6093290C2F
:103CA00070932A0C80932B0C90932C0C1F910F91E6
:103CB00008954F925F926F927F928F929F92AF92F0
:103CC000BF92CF92DF92EF92FF920F931F93F894DF
:103CD00080901D0C90901E0CA0901F0CB090200C9A
:103CE0008091190C90911A0CA0911B0CB0911C0C96
:103CF0004091110C5091120C6091130C7091140CA6
:103D00000091150C1091160C2091170C3091180C85
:103D1000789488169906AA06BB0668F46C017D01A2
:103D2000C818D908EA08FB08E0E2CE16EEE4DE0681
:103D3000E104F10418F467EA72E034C04017510757
:103D40006207730768F428013901441A550A660AA4
:103D5000770AE0E24E16EEE45E066104710418F4A0
:103D600063EF72E01FC00115110521053105C1F097
:103D7000411551056105710599F00097A105B1053F
:103D800079F081149104A104B10451F084169506D0
:103D9000A606B70628F4081719072A073B0738F4C0
:103DA0006FE373E080E09DE00E94043978C0C40CAA
:103DB000D51CE61CF71CF694E794D794C794C092E0
:103DC0000D0CD0920E0CE0920F0CF092100C28010A
:103DD0003901440E551E661E771EA3019201281953
:103DE00039094A095B09281B390B4A0B5B0B5695AD
:103DF0004795379527952093090C30930A0C4093EB
:103E00000B0C50930C0C211531054105510509F49B
:103E100046C02C153D054E055F0508F040C0A8E6DC
:103E2000B1E00E946643A70196010E941F43283615
:103E300081E038074105510590F58091FB0B8F5FBC
:103E40008093FB0B9091FA0B6091F90BE091F70BCB
:103E5000F091F80B9617B0F481E0890F8093FA0B7C
:103E600084E0989FE00DF11D11242083318342836B
:103E700053838091FB0B6091FA0B0E94FF42909359
:103E8000FB0B0DC00E94FF429093FB0B84E0989FB8
:103E9000E00DF11D112420833183428353831F9150
:103EA0000F91FF90EF90DF90CF90BF90AF909F90D9
:103EB0008F907F906F905F904F9008954F925F9298
:103EC0006F927F928F929F92AF92BF92CF92DF922A
:103ED000EF92FF92CF93DF93EC010E94293DC090B7
:103EE0002D0CD0902E0CE0902F0CF090300C6C1517
:103EF0007D058E059F0550F40E94293D60932D0C91
:103F000070932E0C80932F0C9093300C0E94293DBF
:103F1000C090290CD0902A0CE0902B0CF0902C0C27
:103F20006C157D058E059F0550F40E94293D609318
:103F3000290C70932A0C80932B0C90932C0C0E94CC
:103F4000293DAB01BC01888199810E94A0100E948B
:103F5000293DC0902D0CD0902E0CE0902F0CF090AD
:103F6000300C6C197D098E099F09A880B980693BC6
:103F70007B4081059105A0F040E050E0BA01C50109
:103F8000DF91CF91FF90EF90DF90CF90BF90AF90F7
:103F90009F908F907F906F905F904F900C949810AF
:103FA00020910D0C30910E0C40910F0C5091100C83
:103FB000211531054105510509F4B4C060E071EEE9
:103FC00085EF95E00E941F4369017A01233481E067
:103FD000380741055105F4F5AAE0B0E00E946643B8
:103FE0002B013C01C5010E94440F4B015C01A30160
:103FF0009201C301B2010E94EF4227E93FEF4FEF68
:104000005FEF0E94414329013A01A701960168E24E
:1040100073EE83E090E00E94EF4224E630E040E05F
:1040200050E00E944143420E531E641E751E24EE52
:10403000421A2FE2520A61087108C301B2010E94BC
:10404000B940A50194010E941E4020E030E040E20A
:1040500051E460C02C3385E138074105510554F522
:10406000C5010E94440F2B013C01A7019601C70125
:10407000B6010E94EF422EEA38E040E050E00E9494
:10408000414349015A01ABE9BAE4A70196010E94F4
:10409000664324E630E040E050E00E944143820E57
:1040A000931EA41EB51E26EA820E25E2921EA11CB6
:1040B000B11C2AC0C5010E94440F2B013C01A7017D
:1040C0009601C701B6010E94EF4222E134E040E0D0
:1040D00050E00E944143A4E6B0E00E9466434B01D9
:1040E0005C01A701960164EB70E281E89FEF0E94FA
:1040F000EF42860E971EA81EB91E84E4880E8DEB33
:10410000981E8BE2A81EB11CC501B4010E94B940E3
:10411000A30192010E941E40AB01BC0188819981DC
:104120000E949810888199810E943C0F6B017C014C
:10413000888199810E944C0FBC01882777FD80956A
:10414000982F0E94B9409B01AC01C701B6010E94A3
:104150001A42181654F4888199810E943C0F0E94DB
:104160008640888199810E94DF10CE010E94371D10
:104170008A5591097C01888199810E942A0FB70193
:10418000680F791F77FF02C068597E4F8881998137
:10419000DF91CF91FF90EF90DF90CF90BF90AF90E5
:1041A0009F908F907F906F905F904F900C948C10A9
:1041B0008CEF9BE09093F80B8093F70B83E0809358
:1041C000F90B1092FA0B1092FB0B089561E085E356
:1041D0000E94943E61E085E30E945B3E8CB5806165
:1041E0008CBD8CB580648CBD61E084E30E945B3E35
:1041F00061E083E30C945B3E811103C08CB5806267
:1042000002C08CB58F7D8CBD08959CB5937F982B93
:104210009CBD08952CB5982F93702C7F922B9CBD3C
:104220009DB582FB882780F99E7F982B9DBD0895C0
:10423000FC01A681B7819D012F5F3F4F848195814D
:1042400040855185840F951F2817390750F437830F
:1042500026836C930680F781E02D108281E090E048
:10426000089580E090E00895FC01A481B581B783B2
:10427000A68380859185892B09F01C920895089565
:104280002F923F924F925F926F927F928F929F9266
:10429000AF92BF92CF92DF92EF92FF920F931F9354
:1042A000CF93DF93CDB7DEB72A970FB6F894DEBF72
:1042B0000FBECDBF9A878987DC01D6968C91882363
:1042C00009F4E5C00E94293D69837A838B839C832E
:1042D000E985FA8580A191A129813A81281B390BB2
:1042E00084A595A5281739070CF4D1C0028CF38D4D
:1042F000E02D80809180A280B380A985BA855E96EA
:10430000ED91FC915F97A50194016081718182819B
:1043100093810E94503F2B013C01E985FA85208959
:104320003189428953890E942542A985BA8594968C
:104330002D913D914D915C9197970E94513F6B015A
:104340007C01E985FA8564A375A386A397A312A9C6
:1043500003A934A825A8212F302F432D522D0E94C8
:104360001A4218162CF4812F902FA32DB22D18C0AD
:10437000A985BA859E968D919D910D90BC91A02D99
:104380008D839E83AF83B8879C01AD01C701B601C1
:104390000E94174087FF0AC08D819E81AF81B8853A
:1043A000E985FA8584A395A3A6A3B7A3A985BA85B1
:1043B0001C962D913D914D915C911F97C301B201C7
:1043C0000E942542E985FA8524A135A146A157A17D
:1043D0000E94513F6B017C01A985BA8598962D9169
:1043E0003D914D915C919B97C501B4010E94503F56
:1043F000E985FA8524893589468957890E942542AD
:104400009B01AC01C701B6010E94503F6B017C01CA
:10441000212F302F432D522D0E941A421816DCF006
:10442000A985BA859E961C919E979F960C919F9701
:10443000D0963C90D097D1962C90212F302F432DA1
:10444000522DB601C7010E94174087FD04C01C2DE4
:104450000D2D3E2C2F2CA985BA855C96ED91FC91F3
:104460005D97812F902FA32DB22D80839183A283FE
:10447000B383E985FA8580A691A6A2A6B3A6898111
:104480009A81AB81BC8180A391A3A2A3B3A32A96F6
:104490000FB6F894DEBF0FBECDBFDF91CF911F9155
:1044A0000F91FF90EF90DF90CF90BF90AF909F90D3
:1044B0008F907F906F905F904F903F902F900895D6
:1044C0002F923F924F925F926F927F928F929F9224
:1044D000AF92BF92CF92DF92EF92FF920F931F9312
:1044E000CF93DF9300D000D0CDB7DEB71C012A01F7
:1044F0003B014801590120E030E0A901C301B201AC
:104500000E94174087FD7AC020E030E0A901C50174
:10451000B4010E94174087FD71C020E030E0A9017E
:10452000C701B6010E94174087FD68C0F1014082B3
:1045300051826282738284829582A682B782C0860B
:10454000D186E286F38664A575A5882777FD8095D8
:10455000982F0E94B94020E030E04AE754E40E94DE
:104560001E4069837A838B839C83F1014486558640
:10457000668677869B01AC01C501B4010E94254285
:104580004B015C01F101608B718B828B938B2981D4
:104590003A814B815C81C701B6010E941E406B01CC
:1045A0007C01F101648B758B868B978B808D918D4F
:1045B000019721F5A301920160E070E0CB010E9418
:1045C000503FF1016487758786879787A50194011D
:1045D00060E070E0CB010E94503FF101608B718B75
:1045E000828B938BA701960160E070E0CB010E9463
:1045F000503FF101648B758B868B978B0F900F90DA
:104600000F900F90DF91CF911F910F91FF90EF903E
:10461000DF90CF90BF90AF909F908F907F906F90E2
:104620005F904F903F902F900895CF92DF92EF923E
:10463000FF920F931F93CF93DF93EC018B0116161C
:10464000170694F5882777FD8095982F0E94B9402A
:104650006B017C016CA57DA5882777FD8095982F3F
:104660000E94B9409B01AC01C701B6010E941E40E7
:104670006B017C019B01AC01688979898A899B89DE
:104680000E942542688B798B8A8B9B8BA7019601B0
:104690006C897D898E899F890E941E406C8B7D8BE1
:1046A0008E8B9F8B1DA70CA7DF91CF911F910F9130
:1046B000FF90EF90DF90CF9008952F923F924F920E
:1046C0005F926F927F928F929F92AF92BF92CF92A2
:1046D000DF92EF92FF920F931F93CF93DF93EC0142
:1046E0006A017B0148015901A9019801C701B6017E
:1046F0000E941A4287FF4EC0CEA6DFA6E8AAF9AAFA
:104700008AAA9BAAACAABDAA8EA9882309F442C092
:104710002C8C3D8CF1014080518062807380A5011A
:104720009401C301B2010E941A42181634F4F10137
:1047300080829182A282B3820DC0A7019601C3013B
:10474000B2010E94174087FF05C0F101C082D182EB
:10475000E282F3828CA09DA0AEA0BFA0CAA8DBA875
:10476000ECA8FDA8A7019601C501B4010E941A4258
:10477000181664F0CEA4DFA4E8A8F9A8A701960152
:10478000C501B4010E94174087FF04C0CCA2DDA27E
:10479000EEA2FFA2DF91CF911F910F91FF90EF90BA
:1047A000DF90CF90BF90AF909F908F907F906F9051
:1047B0005F904F903F902F9008958F929F92AF926D
:1047C000BF92CF92DF92EF92FF92CF93DF93EC01F3
:1047D000EC8DFD8DC080D180E280F380CCA2DDA283
:1047E000EEA2FFA2EA8DFB8D80819181A281B3812F
:1047F00088A799A7AAA7BBA78AA89BA8ACA8BDA869
:10480000A5019401C701B6010E941A42181664F06E
:104810008EA49FA4A8A8B9A8A5019401C701B601B8
:104820000E94174087FF04C08CA29DA2AEA2BFA227
:10483000DF91CF91FF90EF90DF90CF90BF90AF903E
:104840009F908F9008951F93CF93DF93EC0111E019
:104850006130710509F010E08EA991E089271813E5
:1048600003C0CE010E94DD231EABDF91CF911F91CB
:1048700008950F931F93CF93DF93EC018B018EA9C3
:10488000882361F1888D998D6817790739F12C8516
:104890003D854E855F8560E070E0CB010E94503F12
:1048A0006C877D878E879F87288939894A895B89AC
:1048B00060E070E0CB010E94503F688B798B8A8B5F
:1048C0009B8B2C893D894E895F8960E070E0CB012C
:1048D0000E94503F6C8B7D8B8E8B9F8B198F088F26
:1048E000DF91CF911F910F9108952F923F924F9298
:1048F0005F926F927F928F929F92AF92BF92CF9270
:10490000DF92EF92FF920F931F93CF93DF93CDB778
:10491000DEB728970FB6F894DEBF0FBECDBF4C01AF
:104920007A8369831A013C832B8327013801AD8286
:10493000BE82CF82D88600E010E02FE733E440E06B
:1049400050E0BA010E945D2384E690E0F40195A74F
:1049500084A769A17AA1C4010E943924CD8CDE8C80
:10496000EF8CF8A00D811E812F813885B301A20143
:10497000C4010E9460220E94293DF40144A455A470
:10498000662457FC6094762C64197509860997098A
:1049900060A371A382A393A316AA358E248E898166
:1049A0009A81938F828F8B819C81978F868F289697
:1049B0000FB6F894DEBF0FBECDBFDF91CF911F9130
:1049C0000F91FF90EF90DF90CF90BF90AF909F90AE
:1049D0008F907F906F905F904F903F902F900895B1
:1049E0000F931F93CF93DF93FC0171836083128237
:1049F00013821482158286E58683178210861186BB
:104A0000128613861486158616861786108A118AD2
:104A1000128A138A148A158A168ADF01A754BF4F97
:104A200011961C921E92AE55BF4F11961C921E926B
:104A3000149611961C921E92129611961C921E921A
:104A4000129611961C921E92178AAC5AB1091D92A9
:104A50001C92EF0104E110E08FE090E00E94984387
:104A6000FE01E15EFE4F918380838FE090E00E9423
:104A70009843FE01E558FF4F91838083FC0110822B
:104A80000150110922960115110531F7DF91CF91DF
:104A90001F910F910895FC0162817381848195813A
:104AA0000895FC0186810895FC01678170858185E8
:104AB00092850895FC0163857485858596850895A2
:104AC000CF92DF92EF92FF926A017B01FC01278572
:104AD000308941895289C701B6010E942542FF9061
:104AE000EF90DF90CF900895FC01638974898589E8
:104AF0009689089547960895660F771F680F791F66
:104B0000FB01E558FF4F8081918108954F925F929C
:104B10006F927F928F929F92AF92BF92CF92DF92CD
:104B2000EF92FF920F931F93CF93DF93FB011081BE
:104B30001D3241F031E020E01B3209F030E0832FDC
:104B4000922F02C081E090E0EB01C80FD91F00E076
:104B50003DEC432E3CEC532E652C3DE3732E812C13
:104B6000912C5401C12CD12C7601E991EE23E9F16D
:104B7000EE32C9F1FF27E7FDF095011113C0AAE05D
:104B8000B0E0A70196010E9466436B017C01CF0152
:104B9000C097AA2797FDA095BA2FC80ED91EEA1E66
:104BA000FB1EE3CFBF0160537109882777FD809515
:104BB000982F0E94B9409B01AC01C301B2010E9431
:104BC00025429B01AC01C501B4010E94513F4B013C
:104BD0005C0120E030E040E251E4C301B2010E94F8
:104BE0001E402B013C0101E0C0CFC701B6010E946D
:104BF000B9409B01AC01C501B4010E94513F1D3277
:104C000039F49B01AC0160E070E0CB010E94503FA1
:104C1000DF91CF911F910F91FF90EF90DF90CF9098
:104C2000BF90AF909F908F907F906F905F904F90CC
:104C300008958F929F92AF92BF92CF92DF92EF92A0
:104C4000FF920F931F93CF93DF93EC01AC01455A72
:104C50005E4FDA012D913C911197FC01E15AFE4F14
:104C6000243631056CF4A25AB1098D919C911197AB
:104C7000449734F4A655BF4F8D919C910F9714F033
:104C8000118210826A3011F06D3011F4118210829D
:104C90006432E1F4DE01A35ABE4F11961C921E92BB
:104CA000149611961C921E92A85AB10911961C9244
:104CB0001E92A655BF4F1D921C92C554DF4F6883AC
:104CC00081E090E0DA018D939C93E4C08081918132
:104CD0008130910569F024F4009709F47AC272C218
:104CE0008230910509F492C0039709F4D6C06AC2D4
:104CF000273031057CF4D901A758BB4F8C9168133C
:104D000009C0DE01A35ABE4F8D919C911197019667
:104D10008D939C93C9010196DA018D939C932C0F7E
:104D20003D1FD901A554BF4F6C93CE0187549F4FAF
:104D30008E010D591E4F6A3249F1DE01AF59BE4F47
:104D4000FC016C3209F040C020813181A9014F5F24
:104D50005F4F51834083C901880F991F8C0F9D1F9E
:104D6000EC01C15EDE4F0990D881C02DF801808131
:104D70009181C80FD91F1882118210828D919C9148
:104D80001197FCE28F278D939C931EC2DC012D911D
:104D90003C911197A9014F5F5F4F4D935C93C901FF
:104DA000880F991F8C0F9D1FEC01C15EDE4F09908B
:104DB000D881C02DD8018D919C911197C80FD91F12
:104DC00018821D921C9263C080819181880F991F67
:104DD0008C0F9D1FEC01C15EDE4F0990D881C02D64
:104DE000F801808191819C012F5F3F4F31832083A7
:104DF000C80FD91F6883772767FD70958D919C91A7
:104E00001197682779276D937C93DEC1C9010196BC
:104E1000DA018D939C932C0F3D1FD901A554BF4FF0
:104E20006C93DE01A754BF4F8D919C91880F991F01
:104E30008C0F9D1FDC01A15EBE4F0D911C919E0148
:104E40002D593E4FD9018D919C911197AC014F5F27
:104E50005F4F4D935C93080F191FD8016C93CF5986
:104E6000DE4F48815981862F992787FD90956134BF
:104E700014F0C79701C0C0979C01B4E0220F331F04
:104E8000BA95E1F7CA01821B930B998388838081CD
:104E9000918101969183808397C1CE01820F931FE8
:104EA000DC01A554BF4F6C932E5F3F4FDA012D9369
:104EB0003C93DC01A454BF4F1C929E0127543F4FEA
:104EC000D9018D919C91880F991F8C0F9D1FDC013A
:104ED000A15EBE4F8D919C916E01BDE9CB1ABEEFD4
:104EE000DB0AD6010D911C917801BFEFEB1AFB0A8A
:104EF000D601ED92FC92800F911FDC016C93D901D9
:104F00008D919C9111978C010F5F1F4F0D931C93F6
:104F1000880F991F8C0F9D1F815E9E4FDC018D9124
:104F20009C91D6010D911C91800F911FDC011C9268
:104F300011821082FE01EF59FE4F80819181062F70
:104F4000112707FD1095613424F0B80167537109EA
:104F500003C0B80160537109861B970B918380834E
:104F6000009709F031C168817981672B29F4FA0132
:104F700060817181CB010AC0FE01E35AFE4F60815E
:104F800071816630710509F024C1F1CF019797FD59
:104F90000AC0FE01E80FF91F8F0105541F4FD80109
:104FA0001C91178BF3CFFB013197CB0177FF02C028
:104FB00080E090E0BF01681B790BDA016D937C9370
:104FC000FE01E954FF4F1182108240815181D901C5
:104FD0008D919C914817590784F5D6011D921C921A
:104FE00080819181D6014D915C91880F991F8C0F22
:104FF0009D1FBC01615E7E4FDB016D917C91640F52
:10500000751FDB016C9185589F4FDC018D919C9140
:10501000840F951FDC01662349F06C93D6018D91B6
:105020009C91119701968D939C93DACF1C9280816D
:105030009181019691838083C8CFFE01E35AFE4F90
:1050400080819181069709F0C2C0FC9760817181CF
:10505000CE010E9486256A837B838C839D83FE011B
:10506000ED5DFE4F0190F081E02D80818E83FE0189
:10507000EB5DFE4F60817181CE010E94862520E0AC
:1050800030E048EC52E40E941E404B015C010E945B
:10509000F4406B017C018E010B591E4FF8016083B7
:1050A0007183828393839B01AC01C501B4010E948B
:1050B000503F20E030E048EC52E40E94254220E0DE
:1050C00030E040E752E40E941E40A70196010E9492
:1050D000513F9B01AC016F83788789879A87FE01D6
:1050E000E95DFE4F0190F081E02D8081833549F428
:1050F00060E070E0CB010E94503F6F837887898722
:105100009A87FE01E75DFE4F60817181CE010E94AA
:10511000862520E030E048EC52E40E941E404B011E
:105120005C010E94F4406B017C01D8016D937D937A
:105130008D939C9313979B01AC01C501B4010E9410
:10514000503F20E030E048EC52E40E94254220E04D
:1051500030E040E752E40E941E40A70196010E9401
:10516000513F9B01AC016B877C878D879E87FE0139
:10517000E55DFE4F0190F081E02D8081873549F497
:1051800060E070E0CB010E94503F6B877C878D8789
:105190009E87FE01E35DFE4F60817181CE010E941A
:1051A00086256F87788B898B9A8BFE01E15DFE4F98
:1051B00060817181CE010E9486256B8B7C8B8D8BEB
:1051C0009E8B05C01182108280E090E002C081E0D9
:1051D00090E0DF91CF911F910F91FF90EF90DF90C2
:1051E000CF90BF90AF909F908F9008958EBD0DB4DB
:1051F00007FEFDCF8EB508950F931F93FC01138218
:10520000128208EE13E020E030E004831583268349
:10521000378385E894E091838083648745871F9175
:105220000F910895EF92FF921F93CF93DF931F92F8
:10523000CDB7DEB77C01162F60E0FC018485498381
:105240000E94943EF8E01F9FB0011124F70185856C
:10525000880F862B0E94F6284981842F0E94F62809
:1052600062E070E080E090E00E94583D61E0F7016C
:1052700084850F90DF91CF911F91FF90EF900C9458
:10528000943E462F60E00E94122981E090E008954C
:1052900046E062E00C941229CF92DF92EF92FF92E7
:1052A0000F931F93CF93DF9300D0CDB7DEB78C0160
:1052B000F22E60E0FC01848549835A830E94943E6B
:1052C0004981E42EC42E5A81D52E8C2D8E198F152E
:1052D00030F4F60181916F010E94F628F6CF62E06A
:1052E00070E080E090E00E94583D61E0F801848524
:1052F0000F900F90DF91CF911F910F91FF90EF9042
:10530000DF90CF900C94943E242FAB0160E00C947E
:105310004C291F93CF93DF93EC01162F60E08C850F
:105320000E94943E62E070E080E090E00E94583D70
:1053300088E0189FB00111248D85880F862B806826
:105340000E94F62880E00E94F628182F62E070E0A4
:1053500080E090E00E94583D61E08C850E94943E80
:10536000812FDF91CF911F91089560E00E948929DC
:1053700090E0089569E00E94892990E0089569E02D
:105380000E9489298FEF9FEF08951F93CF93DF939A
:10539000EC01162F63E00E948929482F4C7F6BEFA8
:1053A000610F6370462B63E0CE01DF91CF911F91B7
:1053B0000C9412298F929F92AF92BF92CF92DF925C
:1053C000EF92FF920F931F93CF93DF93EC016A014B
:1053D0007B014801590160ED75E080E09DE00E948D
:1053E000F2380E94E6206AE070E080E090E00E94DF
:1053F000583D81E00E94FC2081E00E940A2180E06B
:105400000E94052164EC75E080E09DE00E94F23886
:105410008091060290910702019779F448E06EE0CE
:10542000CE010E941229109207021092060265EB2B
:1054300075E080E09DE00E94F23864E670E080E074
:1054400090E00E94583D40E863E0CE010E9412299E
:10545000C701B60123E0660F771F881F991F2A95A1
:10546000D1F7680D791D8A1D9B1DA7019601E4E007
:10547000220F331F441F551FEA95D1F70E941F4387
:1054800069017A01422F60E0CE010E9412294D2D60
:10549000552761E0CE010E94122940E063E0CE0171
:1054A0000E94122968E0CE010E94C52947E062E00F
:1054B000CE010E94122963EA75E080E09DE0DF9151
:1054C000CF911F910F91FF90EF90DF90CF90BF9001
:1054D000AF909F908F900C94F2380F931F9300E041
:1054E00010E820E730E00E94DA291F910F9108951B
:1054F000FC016F778081918186279183808347E0CB
:1055000020813181C9019695879520FF04C020EF45
:10551000822722E2922791838083415089F7089560
:10552000EF92FF920F931F93CF93DF937C018A0139
:10553000EB01060F171FC017D10729F06991C701AA
:105540000E94782AF8CFDF91CF911F910F91FF90A1
:10555000EF900895CF93DF9300D0CDB7DEB7AB01C6
:105560002FEF3FE33A832983BC01CE0101960E94CD
:10557000902A89819A8180952FE392270F900F902E
:10558000DF91CF9108950F931F93CF93DF931F92D5
:10559000CDB7DEB78C01FC01718360831282238357
:1055A0001486158616861786108A459649830E94AA
:1055B0007E2FF801178E10A249818FE9840F8A315E
:1055C00008F440528FEB840F8A3120F080ED840F75
:1055D0008A3010F4F801428344E650E060E070E065
:1055E000F80144835583668377834FEF5FEFBA01F9
:1055F000408751876287738711A20F90DF91CF9107
:105600001F910F91089508959F92AF92BF92CF92EC
:10561000DF92EF92FF920F931F93CF93DF93CDB75B
:10562000DEB7A7970FB6F894DEBF0FBECDBF6C01F3
:105630007B01942E5901DB0114964D915D916D9182
:105640007C911797CE0180960E947730CE0180968C
:105650000E944D306894A4F8C8010E942530882328
:1056600021F0C6010E94802F6CC0CE0180960E945E
:1056700025308823A9F1CE0180960E946B30F70176
:1056800084858F5F87FD81E0D7011C968C93CE01C6
:1056900001960E94AD2DF7016281CE0101960E9414
:1056A000B12D6A2DCE0101960E94B12DD7011C9615
:1056B0006C91CE0101960E94B12D692DCE0101960B
:1056C0000E94B12DD701ED91FC91119763A174A1B6
:1056D00023E230E013964C91CE0101960E94892E70
:1056E000F701808191810E94572F882309F4B4CF5C
:1056F000D701ED91FC911197938113968C9198139A
:10570000ABCF8481833409F0A7CF408151814550CC
:105710005109BF016A5F7F4FCE0101960E94F62FAB
:105720008981882309F498CF9C81F7018485981397
:1057300093CF8AE0FE013196D60101900D928A95B1
:10574000E1F7C601A7960FB6F894DEBF0FBECDBF36
:10575000DF91CF911F910F91FF90EF90DF90CF904D
:10576000BF90AF909F9008959F92AF92BF92CF92BB
:10577000DF92EF92FF920F931F93CF93DF93CDB7FA
:10578000DEB76F970FB6F894DEBF0FBECDBF8C01AA
:105790005B017A01922EDC01ED91FC91C3A0D4A0B3
:1057A000CE0101960E94AD2DF8016281CE010196D5
:1057B0000E94B12D692DCE0101960E94B12D96FE59
:1057C00007C0D8015F966C91CE0101960E94B12D61
:1057D000F70142815381B7016C5F7F4FCE01019683
:1057E0000E94BD2D9501D80113964C91B601CE01B2
:1057F00001960E94892E6F960FB6F894DEBF0FBEF9
:10580000CDBFDF91CF911F910F91FF90EF90DF906F
:10581000CF90BF90AF909F900895CF92DF92EF927C
:10582000FF920F931F93CF93DF93CDB7DEB72A97E5
:105830000FB6F894DEBF0FBECDBF7C016A01FC013C
:1058400080A1811123C08B0120E430E041E050E0D1
:10585000B701CE0101960E94042B8AE0FE01319629
:10586000D60101900D928A95E1F7F601828180FFC1
:1058700004C08681978197FD07C0F6018481F701F6
:10588000878F81E080A302C081E001C080E02A967A
:105890000FB6F894DEBF0FBECDBFDF91CF911F9141
:1058A0000F91FF90EF90DF90CF900895DF92EF92ED
:1058B000FF920F931F93CF93DF93CDB7DEB72A9755
:1058C0000FB6F894DEBF0FBECDBF7C01D42EFC0115
:1058D00023893489418952898B01BC01CE0101960B
:1058E0000E94042B8AE0FE013196D7015596019063
:1058F0000D928A95E1F7F701878980FF04C0838DB7
:10590000948D97FD0BC0F701818D978D891731F02C
:10591000811106C081E0D11004C002C081E001C045
:1059200080E02A960FB6F894DEBF0FBECDBFDF91A0
:10593000CF911F910F91FF90EF90DF9008958F927C
:105940009F92AF92BF92CF92DF92EF92FF920F930E
:105950001F93CF93DF93CDB7DEB72E970FB6F89492
:10596000DEBF0FBECDBF7C016B015A014901FC01B6
:1059700025853685478550892F5F3F4F4F4F5F4FB5
:10598000258736874787508BBC01CE0109960E9438
:10599000992EF70181A1882339F09401A501B60160
:1059A000C7010E94B42B30C0F70140855185628544
:1059B0007385CE0101960E947730A7014B5E5F4F41
:1059C000BE016F5F7F4FC7010E940D2C81111CC06B
:1059D000689486F8F701128B018B948A838A878DED
:1059E0008F5F87FD81E0F701878F9401A501B601E4
:1059F000C7010E94B42B40E0BE016F5F7F4FC7011B
:105A00000E94562C882389F386E0FE013996DE0138
:105A1000119601900D928A95E1F729813A814B8187
:105A20005C816D817E8180E090E02E960FB6F894C7
:105A3000DEBF0FBECDBFDF91CF911F910F91FF90C1
:105A4000EF90DF90CF90BF90AF909F908F90089590
:105A50008F929F92AF92BF92CF92DF92EF92FF927E
:105A60000F931F93CF93DF93CDB7DEB7AA970FB6EF
:105A7000F894DEBF0FBECDBF4C01CE0101962FA31F
:105A800038A749A75AA76EA30E94AD2D6EA1CE01DB
:105A900001960E94B12D2FA138A549A55AA5BA019A
:105AA000A901CE0101960E94D52DF7FC0BC0602FF5
:105AB000CE0101960E94B12DB701A601CE0101963B
:105AC0000E94D52D01E010E09501AE014F5F5F4FC0
:105AD00064E270E0C4010E949F2C80E090E0AA96EE
