:100000000C947B030C94733A0C94A43A0C94D53A58
:100010000C94063B0C94373B0C94683B0C94993B36
:100020000C94CA3B0C94AA030C94AA030C94AA0344
:100030000C94AA030C94AA030C94AA030C94783091
:100040000C94AA030C94AA030C94AA030C94AA037C
:100050000C94AA030C94AA030C94AA030C940D3CD0
:100060000C94AA030C94EC340C9422350C94AA033F
:100070000C94AA030C94AA030C94AA030C94AA034C
:100080000C94AA030C94AA030C94AA030C94AA033C
:100090000C9499350C94CF350C94AA030C94AA03B4
:1000A0000C94AA030C94AA030C94AA030C94AA031C
:1000B0000C94AA030C94AA030C94FB310C946A319F
:1000C0000C945D320C94AA030C94AA030C9446364B
:1000D0000C947C360C94AA030C94F3360C942937B8
:1000E0000C94AA034D3A173A1F3A2B3A383A593A28
:1000F000663A4E3D513D403D443D4A3D883D553D6B
:10010000593D5F3D633D673D6D3D713D753D883DAA
:100110007B3D7F3D833D084AD73B3BCE016E84BC8F
:10012000BFFDC12F3D6C74319ABD56833DDA3D0051
:10013000C77F11BED9E4BB4C3E916BAAAABE00009A
:1001400000803F05A84CCDB2D44EB93836A9020C78
:1001500050B9918688083CA6AAAA2ABE0000008051
:100160003F00496E6974206175746F70696C6F74BB
:1001700020636F6D706C65746500496E69742061F1
:1001800075746F70696C6F742E2E736574206C6952
:100190006D6974732E2E00496E6974206175746FD9
:1001A00070696C6F742E2E737461727420504944A0
:1001B0002E2E00496E6974206175746F70696C6FC2
:1001C000742E2E002C002C4C4C333A002C4C553302
:1001D0003A002C4C4C323A002C4C55323A002C4C04
:1001E0004C313A002C4C55313A002C53544B3A00C8
:1001F0002C5342333A002C5342323A002C534231B2
:100200003A002C5342303A002C4750533A002C57B6
:100210005A4A3A005549443A4D4547412C415058B5
:100220003A0021215645523A312E392C005365743B
:10023000757020636F6D706C6574652E2E0053743D
:100240006172742074696D65722E2E005374617230
:10025000742077696E642E2E005374617274206E60
:100260006D6561205478202D206F6E2070696E734B
:100270002034362054782C20343820527820617471
:1002800020005374617274206E6D65612054782E65
:100290002E005374617274206E6D65612052782057
:1002A0002D2073657269616C3420617420004353A2
:1002B0005F50494E204F5554505554203D204849D9
:1002C00047480043535F50494E2073657420746F54
:1002D000204F55545055540053746172742053503C
:1002E000492075617274732E2E00537461727420EC
:1002F0006E6D6561205278202D2073657269616C86
:100300003320617420005374617274206E6D6561D6
:10031000205278202D2073657269616C32206174DF
:10032000200053746172742073656174616C6B207A
:100330002D2073657269616C32206174203438300D
:100340003000537461727420475053205278202D2E
:100350002073657269616C312061742000496E6997
:100360007469616C697A696E672E2E0024504D5451
:100370004B3235312C0024504D544B3331342C301A
:100380002C312C302C312C312C312C302C302C3089
:100390002C302C302C302C302C302C302C302C307D
:1003A0002C302C302A32380024504D544B3232300D
:1003B0002C313030302A31460053657474696E67D1
:1003C0002047505320746F204D54454B5F333332D8
:1003D00039002C382C312C302A002450535246310D
:1003E00030302C312C0024505352463130352C30D3
:1003F0002A33460024505352463130332C30342CAB
:1004000030302C30312C30312A32310024505352CC
:10041000463130332C30332C30302C32302C3031CC
:100420002A32350024505352463130332C30322C8E
:1004300030302C30352C30312A3233002450535296
:10044000463130332C30302C30302C30352C30319C
:100450002A32310024505352463130332C30312C63
:1004600030302C30302C30312A3235002450535269
:10047000463130332C30352C30302C30302C30316C
:100480002A32310024505352463130352C312A3330
:10049000450053657474696E672047505320746F2C
:1004A00020454D5F343036410053657474696E6782
:1004B0002047505320746F2047454E455249430012
:1004C00053657474696E672047505320636F6E667E
:1004D00069672E2E2E0020202064656661756C747D
:1004E00020746F20343830302E2E004641494C4560
:1004F00044004F4B2061742000202020747279202A
:100500006175746F62617564202E2E200020206456
:10051000657465637465642070756C7365207261C1
:100520007465203D20002C542A002448434844543C
:100530002C002C4E2C412A002E302C522C002457FB
:10054000494D57562C0053504920696E69742063F9
:100550006F6D706C6574650053504920554152545D
:10056000207265736574005350492073746172740E
:100570006564004D756C746953657269616C3A3AD3
:10058000626567696E0000000A0B02090C0D0E0817
:10059000070304010000000000000000000000004C
:1005A000000000000000000000000000000000004B
:1005B0000000121110000000000000000000000008
:1005C00000000000000000000000000001021020F8
:1005D0002008081020401020408002010201080479
:1005E000020101020408102040808040201008040D
:1005F0000201800402018040201008040201080466
:1006000002010102040810204080010204081020A9
:1006100040800505050507050808080802020202D2
:100620000A0A08080404040401010101010101018E
:100630000303030303030303040707070C0C0C0C59
:100640000C0C0C0C02020202060606060606060642
:100650000B0B0B0B0B0B0B0B0000200023002600D9
:1006600029002C002F0032000001000003010601C8
:10067000090100002200250028002B002E00310077
:10068000340002010000050108010B0100002100F7
:10069000240027002A002D00300033000101000053
:1006A000040107010A014E414E494E495459494E31
:1006B00046CDCCCC3D0AD7233C17B7D13877CC2BCD
:1006C000329595E6241FB14F0A000020410000C872
:1006D0004200401C4620BCBE4CCA1B0E5AAEC59DF3
:1006E0007400AE08D315F419062056350336B0361B
:1006F0005D37C2083F1611241FBECFEFD1E2DEBF27
:10070000CDBF13E0A0E0B2E0E4ECFCE800E00BBFFA
:1007100002C007900D92A03BB107D9F72EE0A0EBE5
:10072000B3E001C01D92A338B207E1F716E0C2EFB3
:10073000D6E000E006C022970109FE010BBF0E942F
:100740009F42C23ED10780E00807A9F70E94FC3B08
:100750000C9450460C9400002DE032E0FC013183F3
:10076000208308952DE032E0FC01318320830C9436
:100770000B3CFC01CB012DE032E0318320837383FD
:100780006283148240E050E0BA010E94530E61E09F
:1007900088E10E94893D61E08AE10E94893D61E033
:1007A0008CE10E94893D61E08EE10E94893D60E01C
:1007B00082E40C94893DCF92DF92EF92FF92CF9327
:1007C000DF93EC018A819B810E949A0F882389F034
:1007D0008A819B810E94F70C6B017C010E94573C2F
:1007E00021E0C616D706E806F90608F020E0822FB9
:1007F00001C080E0DF91CF91FF90EF90DF90CF902C
:100800000895CF92DF92EF92FF92CF93DF93EC01A6
:100810000E94DB038823A9F10E94573C6B017C01F5
:100820008A819B810E94F10CC61AD70AE80AF90A4C
:1008300089EEC81683E0D806E104F104C0F16C81AA
:1008400088E10E94C23D6C818AE10E94C23D6C81B8
:100850008CE10E94C23D6C818EE10E94C23D8C8180
:1008600091E089278C830E94573CAB01BC018A81AF
:100870009B81DF91CF91FF90EF90DF90CF900C9410
:10088000530E60E088E10E94C23D60E08AE10E9470
:10089000C23D60E08CE10E94C23D60E08EE1DF91EC
:1008A000CF91FF90EF90DF90CF900C94C23DDF91FD
:1008B000CF91FF90EF90DF90CF900895CF92DF928D
:1008C000EF92FF92CF93DF93EC018A819B810E948C
:1008D0004E0E882311F18A819B810E94220E1816E8
:1008E0001906DCF48A819B810E942E0E6B017C012B
:1008F0008A819B810E94220EBC01882777FD80950A
:10090000982F0E94E73F9B01AC01C701B6010E94EE
:100910004841181614F461E001C060E08A819B81AF
:10092000DF91CF91FF90EF90DF90CF900C94D70F95
:100930000F931F93CF93DF93EC0180E40E94103D4F
:100940008C018A819B810E94F20D081719074CF0D7
:100950008A819B810E94E60D8017910714F060E068
:1009600001C061E08A819B810E94400F81E40E9466
:10097000103D8C018A819B810E94040E0817190783
:100980003CF08A819B810E94F80D8017910714F436
:1009900061E001C060E08A819B810E944F0F82E488
:1009A0000E94103D8C018A819B810E94160E0817BF
:1009B00019073CF08A819B810E940A0E80179107DB
:1009C00014F461E001C060E08A819B81DF91CF91E6
:1009D0001F910F910C945E0F25E132E0FC013183F1
:1009E0002083089525E132E0FC01318320830C94BB
:1009F0000B3C2F923F924F925F926F927F928F9219
:100A00009F92AF92BF92CF92DF92EF92FF920F939D
:100A10001F93CF93DF93CDB7DEB728970FB6F89427
:100A2000DEBF0FBECDBF1C016A017B0109831A83A3
:100A30002B833C83FC01828193810E942D0D9B01BD
:100A4000AC01C701B6010E947F3E2B013C01F101C0
:100A5000828193810E942D0D9B01AC01C701B601DB
:100A60000E947E3E4B015C01F101828193810E94D4
:100A70002D0D9B01AC0169817A818B819C810E9443
:100A80007F3E6B017C01F101828193810E942D0DDB
:100A90009B01AC0169817A818B819C810E947E3EA1
:100AA00069837A838B839C83F101828193810E9485
:100AB000330D6D837E838F83988724E83AEB4CE374
:100AC00058E3C301B2010E947E3E2D813E814F81D9
:100AD00058850E94484118166CF4F1018281938177
:100AE0000E941F0D9B01AC01C301B2010E94453F52
:100AF00087FD8CC0F101828193810E941F0D2B0123
:100B00003C0124E83AEB4CE358E3C501B4010E94F0
:100B10007F3EA30192010E94453F87FF0EC0F10175
:100B2000828193810E94330D9B01AC01C501B40108
:100B30000E94484118160CF471C0F1018281938122
:100B40000E94390D4B015C0124E83AEB4CE358E379
:100B5000C701B6010E947E3EA50194010E94484152
:100B600018166CF4F101828193810E94030D9B01A0
:100B7000AC01C701B6010E94453F87FD57C0F10196
:100B8000828193810E94030D6B017C0124E83AEB82
:100B90004CE358E369817A818B819C810E947F3E7E
:100BA000A70196010E94453F87FF48C0F10182815D
:100BB00093810E94390D9B01AC0169817A818B81FF
:100BC0009C810E9448411816CCF549815A816B815D
:100BD0007C81F1018281938128960FB6F894DEBF63
:100BE0000FBECDBFDF91CF911F910F91FF90EF907E
:100BF000DF90CF90BF90AF909F908F907F906F903D
:100C00005F904F903F902F900C94A30EB301A201E0
:100C1000F101828193810E94890E6CCFB501A401FC
:100C2000F101828193810E949D0E87CFB701A601B9
:100C3000F101828193810E946D0EA1CF28960FB69B
:100C4000F894DEBF0FBECDBFDF91CF911F910F9102
:100C5000FF90EF90DF90CF90BF90AF909F908F90DC
:100C60007F906F905F904F903F902F9008958F925C
:100C70009F92AF92BF92CF92DF92EF92FF920F932B
:100C80001F93CF93DF93EC016A017B014801590167
:100C900040E050E064EB72E48A819B810E94890EFF
:100CA00040E050E064EB72EC8A819B810E949D0ED3
:100CB00040E050E064E373E48A819B810E946D0E02
:100CC00040E050E064E373EC8A819B810E94A30EB4
:100CD0008A819B810E94250D2DE93BEF46E157E378
:100CE0000E945341AB01BC018A819B810E94970EF7
:100CF00095018401B701A601CE010E94F904DF919C
:100D0000CF911F910F91FF90EF90DF90CF90BF9008
:100D1000AF909F908F900895CF92DF92EF92FF92C5
:100D20000F931F93CF93DF93EC018B0185E192E04A
:100D3000998388837B836A83CB010E94110D6B01A9
:100D40007C01C8010E94090DAB01BC01970186011D
:100D5000CE010E943706DF91CF911F910F91FF9036
:100D6000EF90DF90CF9008954F925F926F927F92B5
:100D70008F929F92AF92BF92CF92DF92EF92FF92AB
:100D80000F931F93CF93DF9300D000D0CDB7DEB782
:100D90004C01FC01828193810E94440E882309F456
:100DA000D2C00E94573C2B013C01F4018281938107
:100DB0000E94B50D461A570A680A790AF1EE4F16D5
:100DC000F3E95F06F4E06F06710438F0F401828104
:100DD00093810E94440E81118DC0F4018281938120
:100DE0000E94D50D882309F4AEC0F401828193815D
:100DF0000E94C50D5B016C01F401828193810E9408
:100E0000BD0D2B013C01F401828193810E94110DE3
:100E10009B01AC01F4018281938129833A834B8346
:100E20005C830E94090D8301720129813A814B8103
:100E30005C810E946F17AB01BC01F4018281938138
:100E40000E94670EF401828193810E94FD0C2B01A8
:100E50003C01F401828193810E94190D9B01AC0138
:100E6000C301B2010E944841181664F4F401828162
:100E700093810E94FD0CAB01BC01F401828193813E
:100E80000E94830EF401828193810E94C50D2B0183
:100E90003C01F401828193810E94BD0DAB01BC0134
:100EA00093018201C4010E94F904F40182819381BB
:100EB0000E94440E882369F1F401828193810E948B
:100EC000FD0C2B013C01F401828193810E94250DD0
:100ED0009B01AC01C301B2010E9448411816CCF439
:100EE00040E050E0BA01F401828193810E94590EE2
:100EF00061E010C040E050E0BA01F40182819381CA
:100F00000E94590E61E0F401828193810E94640E77
:100F100064CF60E0F401828193810F900F900F9075
:100F20000F90DF91CF911F910F91FF90EF90DF9085
:100F3000CF90BF90AF909F908F907F906F905F9079
:100F40004F900C94640E0F900F900F900F90DF91C4
:100F5000CF911F910F91FF90EF90DF90CF90BF90B6
:100F6000AF909F908F907F906F905F904F9008957B
:100F7000CF93DF93EC018A819B810E94BD0DAB0171
:100F8000BC018A819B810E94730E8A819B810E9491
:100F9000C50DAB01BC018A819B810E947B0E40E0A4
:100FA00050E0BA018A819B81DF91CF910C94830E2E
:100FB0000F931F93CF93DF93EC018B0181960E94D7
:100FC0006D2018A30F8FDF91CF911F910F9108957E
:100FD0008F929F92AF92BF92CF92DF92EF92FF9249
:100FE0000F931F93CF93DF93CDB7DEB7E7970FB67D
:100FF000F894DEBF0FBECDBF4C01FC01168E158EDE
:10100000148E138E63EB71E080EF9BE00E9420381A
:10101000F401878D90A10E943810AB01BC0189EFCB
:1010200093E00E949B2964E670E080E090E00E94DB
:10103000863CF401878D90A10E94450D20E030E0B0
:1010400044E354E40E947F3E6B017C01F401608321
:10105000718382839383878D90A10E94600D9B0191
:10106000AC01C701B6010E947F3EF4016483758321
:1010700086839783878D90A10E943F0DF40160873E
:1010800071878287938711E0108B67E971E080EFA9
:101090009BE00E942038A401485F5F4FB4016C5F61
:1010A0007F4F1F921F938FE38F9385E08F938EE185
:1010B0008F9388EB8F938AE0A82E87EDB82E83EA72
:1010C000C82E8DE3D82E16E6E12EFE2C06EE1EE38A
:1010D0009401CE0101960E94A32387E3FE0131967D
:1010E000D401919601900D928A95E1F76AE771E03B
:1010F00080EF9BE00E942038F1E28F0E911C00E00F
:1011000010E024E832E440E050E0BA01C4010E945B
:101110008B2264E670E0C4010E94432262E671E023
:1011200080EF9BE00E9420380F900F900F900F905F
:101130000F900F90E7960FB6F894DEBF0FBECDBFAD
:10114000DF91CF911F910F91FF90EF90DF90CF90A3
:10115000BF90AF909F908F900895089540E063E412
:1011600089EF93E00E942A2869EF73E084ED93E011
:101170000E94762E20E841E364ED73E082EB93E079
:101180000C94F12982EB93E00C94312A0F931F9376
:10119000CF93DF93EC018C010F5E1F4F89EF93E03B
:1011A0000E94E828892B21F189EF93E00E94E3282F
:1011B0002D8D3E8DFE01E20FF31F818B2F5F3F4F80
:1011C0003E8F2D8F8A3029F08D3019F02133310573
:1011D0002CF3FE01E20FF31F118AB80180EF9BE0B0
:1011E0000E9432381E8E1D8EF80111821082D6CFD9
:1011F000DF91CF911F910F9108954F925F926F925F
:101200007F92AF92BF92CF92DF92EF92FF920F93B5
:101210001F93CF93DF9300D000D000D0CDB7DEB7BF
:101220005C01FC01878D90A10E94C10F85010F5DBB
:101230001F4F882309F4DEC0C5010E94C60861E083
:1012400070E0C8010E945123F501878D90A10E9492
:10125000450D20E030E044E354E40E947F3E6B0102
:101260007C01F5016083718382839383878D90A1D4
:101270000E94600D9B01AC01C701B6010E947F3E38
:10128000F5016483758386839783C8010E946E206D
:10129000F50124853585468557856085718582856C
:1012A00093850E947E3E6B017C0120E030E0A90125
:1012B0000E944841181624F0F7FAF094F7F8F094D9
:1012C000F501878D90A10E94A10DBC01882777FDB3
:1012D0008095982F0E94E73F9B01AC01C701B601A2
:1012E0000E94484118160CF09EC0F5018089078DB8
:1012F00010A1C084D184E284F3844484558466843C
:101300007784A3019201882309F1C701B6010E94E5
:10131000484118160CF1A3019201C701B6010E94C1
:10132000453F87FF3FC0F501108AC8010E94A70D05
:10133000BC01882777FD8095982F0E94E73F9B018D
:10134000AC01C701B6010E947E3E27C0C701B601AD
:101350000E94453F87FF06C0F501C486D586E68614
:10136000F78620C0A3019201C701B6010E9448413F
:101370001816C4F481E0F501808BC8010E94A70D06
:10138000BC01882777FD8095982F0E94E73F9B013D
:10139000AC01C701B6010E947F3EF50164877587E5
:1013A00086879787F5014485558566857785878D7E
:1013B00090A10E94D80EF501878D90A10E94AD0DDD
:1013C0002B013C0120E030E048EC52E4F50164855B
:1013D0007585868597850E9453410E94B43FAB0175
:1013E000BC01E12CF12C9301820182EB93E00E947D
:1013F000B02C19C060E070E0C80126960FB6F894D2
:10140000DEBF0FBECDBFDF91CF911F910F91FF9037
:10141000EF90DF90CF90BF90AF907F906F905F90F4
:101420004F900C94512326960FB6F894DEBF0FBE52
:10143000CDBFDF91CF911F910F91FF90EF90DF9083
:10144000CF90BF90AF907F906F905F904F90089536
:10145000FC0110821182128213821482158216827C
:101460001782108A118A128A138A148A158A168A98
:10147000178A108E118E128E138E148E40E050E05B
:1014800064EB72E4458F568F678F70A340E050E0A5
:1014900064EB72EC41A352A363A374A340E050E059
:1014A00064E373E445A356A367A370A740E050E04C
:1014B00064E373EC41A752A763A774A715A683E45E
:1014C00082AB13AA14AA15AA16AA40E050E064E061
:1014D00072E447AB50AF61AF72AF13AE40E050E083
:1014E00068EC72E444AF55AF66AF77AFDF01A05C44
:1014F000BF4F40E050E060E271E44D935D936D9327
:101500007C93139714964D935D936D937C931397EF
:10151000149640E850E060E070E04D935D936D9369
:101520007C9313971086118612861386148615866F
:101530001686178614961C9211961D921D921D9266
:101540001C92139714961D921D921D921C92139734
:10155000149686E58C9311961D921D921D921C92F5
:10156000139714961D921D921D921C921397149618
:101570001D921D921D921C92139714961D921D92FE
:101580001D921C92139714961C9211961C92119600
:101590001C9211961C92A55ABF4F21E034E011967F
:1015A0003C932E9312968FEF9FEF11969C938E9300
:1015B000AC55B1091C92A25ABF4F11963C932E9381
:1015C000129611969C938E93AF55B1091C92AF5908
:1015D000BF4F11963C932E93129611969C938E9327
:1015E000A256B1091D921D921D921C92139714963A
:1015F0001D921D921D921C921397149611961C9287
:101600001E92129611961C921E92129611961C9280
:101610001E9212961C9211961D921D921D921C9262
:10162000139714961D921D921D921C921397149657
:1016300040E050E060E272E44D935D936D937C93E3
:10164000139714961C9211961C92119611961C9247
:101650001E92129611961C921E92169640E050E031
:1016600060E87FE34D935D936D937C93139714969D
:101670001C92119640EE53E964E070E04D935D9347
:101680006D937C93139714961C9211961C9211964D
:1016900083E690E011969C938E9312961C9211967D
:1016A00040E050E46CE176E44D935D936D937C9360
:1016B0001397149611961C921E92129681E090E058
:1016C00011969C938E93129640E056E960E070E08C
:1016D0004D935D936D937C93139714964D935D9307
:1016E0006D937C931397149640E855E260E070E0A8
:1016F0004D935D936D937C93139714964D935D93E7
:101700006D937C93139714964D935D936D937C9397
:10171000139718964D935D936D937C93139714963E
:101720001C92E053FF4F8DE090E0918380830895F9
:101730000F931F93CF93DF938C01EB0162E272E072
:10174000CE010E94DE3764E172E0CE010E94DE37F6
:101750006EE072E0CE010E94DE37F801ED55FF4FDA
:10176000608171814AE050E0CE010E94E73868E074
:1017700072E0CE010E94DE37F801EB55FF4F608129
:1017800071814AE050E0CE010E94E73862E072E0E9
:10179000CE010E94DE37F801E955FF4F40815181AB
:1017A000628173812AE030E0CE010E949D386CEFA7
:1017B00071E0CE010E94DE37F801E555FF4F408110
:1017C0005181628173812AE030E0CE010E949D3810
:1017D00066EF71E0CE010E94DE37F801E155FF4F60
:1017E00040815181628173812AE030E0CE010E9404
:1017F0009D3860EF71E0CE010E94DE37F801ED54B4
:10180000FF4F40815181628173812AE030E0CE0137
:101810000E949D386AEE71E0CE010E94DE37F80129
:10182000ED53FF4F608170E04AE050E0CE010E942E
:10183000E73864EE71E0CE010E94DE37F801EC5328
:10184000FF4F608171814AE050E0CE010E94E7388D
:101850006EED71E0CE010E94DE37F801EA53FF4FD2
:10186000608171814AE050E0CE010E94E73868ED66
:1018700071E0CE010E94DE37F801E853FF4F60812E
:1018800071814AE050E0CE010E94E73862ED71E0DC
:10189000CE010E94DE37F801E653FF4F608171816F
:1018A0004AE050E0CE010E94E7386CEC71E0CE01D6
:1018B0000E94DE37F801E453FF4F608171814AE0F6
:1018C00050E0CE010E94E73866EC71E0CE010E9444
:1018D000DE37F801E253FF4F608171814AE050E04A
:1018E000CE010E94E73864EC71E0CE010E942038FE
:1018F00080E090E0DF91CF911F910F9108950F93B9
:101900001F93CF93DF93EC01FC01E053FF4F408125
:1019100060E070E08EE29BE00E94A930FE01EF5291
:10192000FF4F408161E070E08EE29BE00E94A930B1
:10193000C558DF4F64E070E049918B010F5F1F4F86
:101940008EE29BE00E94A9300935110511F0B80123
:10195000F3CFDF91CF911F910F910895EF92FF92F6
:101960000F931F93CF93DF9300D0CDB7DEB78C01D9
:1019700060E070E08EE29BE00E94A630898361E027
:1019800070E08EE29BE00E94A6308A83F801E0536B
:10199000FF4F29813A81808191812817390719F0F9
:1019A000C8010E947F0C05581F4F64E070E07B0166
:1019B0008FEFE81AF80A8EE29BE00E94A630F80149
:1019C00081938F01F9E5EF16F10411F0B701EFCF24
:1019D0000F900F90DF91CF911F910F91FF90EF909B
:1019E0000895FC0160817181828193810895FC01D9
:1019F00064817581868197810895FC016489758968
:101A0000868997890895FC0165A176A187A190A593
:101A1000089585589F4FFC01608171818281938177
:101A2000089581589F4FFC0160817181828193816B
:101A30000895FC01608D718D828D938D0895FC0158
:101A4000658D768D878D90A108958D579F4FFC01F0
:101A500060817181828193810895FC01608971891F
:101A6000828993890895FC0161A172A183A194A147
:101A70000895FC0161A572A583A594A50895FC01B4
:101A800067A970AD81AD92AD0895FC0163A974A9F9
:101A900085A996A90895FC0122A9273559F4EA5889
:101AA000FF4F60817181882777FD8095982F0E9474
:101AB000E73F0895FC0160857185828593850895CF
:101AC000CF92DF92EF92FF92CF93DF93EC010E94CF
:101AD0004B0D9B01AC016BA97CA98DA99EA90E940D
:101AE0007E3E6B017C0120E030E044E353E40E9441
:101AF000484118167CF020E030E044E353ECC70185
:101B0000B6010E94453F87FF0AC020E030E044EB69
:101B100053E408C020E030E044EB53EC03C020E085
:101B200030E0A901C701B6010E947F3E6EA77FA7E2
:101B300088AB99ABDF91CF91FF90EF90DF90CF9082
:101B4000089587579F4FFC018081918108958557A3
:101B50009F4FFC0180819181089583579F4FFC0125
:101B600060817181828193810895835B9F4FFC0125
:101B7000608171818281938108958A5A9F4FFC010F
:101B800060817181828193810895865A9F4FFC0103
:101B9000608171818281938108958F569F4FFC01EE
:101BA000608171818281938108958B5A9F4FFC01DE
:101BB00080810895FC0160857185828593850895F3
:101BC000FC01648575858685978508958C539F4FA4
:101BD000FC018081918108958C539F4FFC0171839A
:101BE000608308958A539F4FFC01808191810895FD
:101BF00088539F4FFC0180819181089588539F4FA6
:101C0000FC0171836083089586539F4FFC0180819E
:101C10009181089584539F4FFC01808191810895A3
:101C200084539F4FFC0171836083089582539F4FBB
:101C3000FC018081918108958D559F4FFC01808129
:101C40009181089584569F4FFC0180819181089570
:101C50008A589F4FFC0180819181089580599F4F40
:101C6000FC016081718182819381089581569F4F2B
:101C7000FC01608171818281938108958C589F4F0E
:101C8000FC0180819181089589579F4FFC018081DB
:101C90000895845B9F4FFC018081089582569F4F79
:101CA000FC0180810895FC0140835183628373832A
:101CB0000895FC014483558366837783089589578B
:101CC0009F4FFC0160830895FC01648F0895FC011F
:101CD000448B558B668B778B0895FC0145A356A3E7
:101CE00067A370A7089585589F4FFC0140835183D7
:101CF00062837383089581589F4FFC014083518311
:101D0000628373830895FC01408F518F628F738FBC
:101D10000895FC01458F568F678F70A308958D57E6
:101D20009F4FFC0140835183628373830895FC01BC
:101D3000408B518B628B738B0895FC0141A352A39E
:101D400063A374A30895FC0141A752A763A774A7D6
:101D50000895CF93DF93EC01673511F0633429F5D3
:101D60006AAB673581F4FE01EA58FF4F60817181EB
:101D7000882777FD8095982F0E94E73F6BAB7CAB5F
:101D80008DAB9EAB0AC0633441F4488559856A85A2
:101D90007B854BAB5CAB6DAB7EAB40E050E064E071
:101DA00072E44FAB58AF69AF7AAFDF91CF9108952E
:101DB000FC0147AB50AF61AF72AF0895CF93DF9393
:101DC000EC01CB01BA010E94B43FCB0188599E4F70
:101DD00068E671E00E943942BC01882777FD809552
:101DE000982F0E94E73F6BAB7CAB8DAB9EABDF9136
:101DF000CF9108958E599F4FFC0140835183628398
:101E000073830895845B9F4FFC0160830895835B17
:101E10009F4FFC01408351836283738308958A5AE4
:101E20009F4FFC0140835183628373830895865AD8
:101E30009F4FFC0140835183628373830895825ACC
:101E40009F4FFC01408351836283738308958B5AB3
:101E50009F4FFC01608308958F5A9F4FFC01408380
:101E60005183628373830895FC01408751876287A1
:101E700073870895FC01448755876687778708959F
:101E8000CF93DF931F92CDB7DEB76983298187593E
:101E90009F4FFC0120830F90DF91CF910895CF9346
:101EA000DF931F92CDB7DEB76983298186599F4F93
:101EB000FC0120830F90DF91CF910895CF93DF93A2
:101EC0001F92CDB7DEB76983298185599F4FFC01E9
:101ED00020830F90DF91CF9108958D559F4FFC0186
:101EE00071836083089582569F4FFC01608308953B
:101EF00084569F4FFC017183608308958A589F4FD9
:101F0000FC0171836083089588589F4FFC017183A1
:101F10006083089580599F4FFC0140835183628301
:101F20007383089584599F4FFC01408351836283DA
:101F300073830895FC01E658FF4F20812223F9F0B6
:101F4000739720812223D9F0319720812223B9F081
:101F5000FC01248D222399F023AD222381F0E8593E
:101F6000FF4F2081222359F031962081222339F01E
:101F700031962081222319F031968081089580E0E6
:101F80000895FC0185A508951F93CF93DF93EC017D
:101F9000162F6AA90E94A90E1DA7DF91CF911F914C
:101FA00008958C589F4FFC01718360830895865873
:101FB0009F4FFC01608308958B559F4FFC018081EA
:101FC000918108958B559F4FFC0171836083089523
:101FD00089559F4FFC0160817181828193810895B1
:101FE00089559F4FFC014083518362837383089519
:101FF00085559F4FFC016081718182819381089595
:1020000085559F4FFC0140835183628373830895FC
:1020100081559F4FFC016081718182819381089578
:1020200081559F4FFC0140835183628373830895E0
:102030008D549F4FFC01608171818281938108954D
:102040008D549F4FFC0140835183628373830895B5
:1020500089549F4FFC016081718182819381089531
:1020600085549F4FFC016081718182819381089525
:1020700081549F4FFC016081718182819381089519
:102080008D539F4FFC01808108958D539F4FFC011C
:102090006083089581E08093B00A8091AE0A9091A8
:1020A000AF0A01969093AF0A8093AE0A8091AE0A70
:1020B0009091AF0A64E170E00E9439429093AF0AB8
:1020C0008093AE0A08958BEF94E00C94591D8BEF2A
:1020D00094E00C949B1D8CED99E00E94AE0C8CED6D
:1020E00099E00E94E80FAB01BC0126E080EF9BE085
:1020F0000E946E346DE573E080EF9BE00E94203813
:1021000085EF94E00E940E1A62E473E080EF9BE09A
:102110000E94DE378CED99E00E94F80FAB01BC0104
:102120002AE030E080EF9BE00E94EF388CED99E0F0
:102130000E94F80FAB01BC0126E08DE89CE00E94F4
:102140006E348CED99E00E944010882361F062E2C9
:1021500073E080EF9BE00E94203827E040EC52E1E2
:1021600060E070E019C066E073E080EF9BE00E94E1
:10217000DE378CED99E00E940810AB01BC012AE02B
:1021800030E080EF9BE00E94EF388CED99E00E94F8
:102190000810AB01BC0126E08AE29DE00E946E348B
:1021A0006AEE72E080EF9BE00E94DE378CED99E0F2
:1021B0000E941810AB01BC012AE030E080EF9BE0E8
:1021C0000E94EF388CED99E00E941810AB01BC0121
:1021D00026E087EC9DE00E946E3468ED72E080EFAF
:1021E0009BE00E94203868EE73E080E090E00E945F
:1021F000863C61E083E40E94893D63EC72E080EFFD
:102200009BE00E94203864E670E080E090E00E944D
:10221000863C61E083E40E94C23D6EEA72E080EF9A
:102220009BE00E94203862E972E080EF9BE00E9410
:10223000DE378CED99E00E942810AB01BC012AE04A
:1022400030E080EF9BE00E94EF388CED99E00E9437
:102250002810AB01BC0187EE94E00E949B2964E644
:1022600070E080E090E00E94863C62E872E080EFDF
:102270009BE00E94203860E080E30E94893D61E09D
:102280008EE20E94893D69E572E080EF9BE00E944A
:10229000DE378CED99E00E943010AB01BC012AE0E2
:1022A00030E080EF9BE00E94EF388CED99E00E94D7
:1022B0003010AB01BC018BE999E00E94D61A8FE87F
:1022C00094E00E94E8076CE472E080EF9BE00E94DB
:1022D000203860E083E00E94893D43E050E063E6FF
:1022E00070E181E00E94023A60E082E00E94893D54
:1022F00043E050E067E670E180E00E94023A6EE35E
:1023000072E080EF9BE00E9420384AE450E164E6EE
:1023100070E080E090E00E940B300E9417306DE288
:1023200072E080EF9BE00C9420388DE89CE00E94E6
:102330000333892BF9F08DE89CE00E941E33682F4F
:1023400085EF94E00E94561880930A04882369F36D
:1023500082E398E00E94A824BC018BE999E00E94E6
:10236000E71A82E398E00E94A824BC0180EF9BE07A
:102370000C94323808958AE29DE00E940333892B41
:1023800079F18CED99E00E944010882351F08AE2A7
:102390009DE00E941E33682F81E794E00E94081C94
:1023A000EACF8AE29DE00E941E33682F8AE996E018
:1023B0000E943E1A809309048823E9F28AE996E094
:1023C0000E94B61ABC018BE999E00E94E71A8AE9DB
:1023D00096E00E94B61ABC0180EF9BE00C94323864
:1023E000089587EC9DE00E940333892BF9F087EC78
:1023F0009DE00E941E33682F8EEC95E00E943E1AED
:1024000080930804882369F38EEC95E00E94B61A45
:10241000BC018BE999E00E94E71A8EEC95E00E94DE
:10242000B61ABC0180EF9BE00C94323808953F92BD
:102430004F925F926F927F928F929F92AF92BF92D4
:10244000CF92DF92EF92FF920F931F93CF93DF9380
:10245000CDB7DEB7C25AD1090FB6F894DEBF0FBEB2
:10246000CDBF4DB65EB66BE673E00E9436447C018C
:1024700083E9A82E83E0B82E90E4392EE114F1040C
:1024800009F4B4C2F70101900020E9F78F0101506F
:1024900011090E191F090430110508F4A7C2F7012C
:1024A00080819801245031094901CDB6DEB68332CE
:1024B00009F02EC244E050E0B701CE0182569F4F92
:1024C0000E945344CE55DF4F1882C25AD040380183
:1024D00035E0631A71088DB79EB7881999090FB650
:1024E000F8949EBF0FBE8DBF0DB71EB70F5F1F4F75
:1024F000B7016B5F7F4FA301C8010E943A44F80106
:10250000E60DF71D108269E172E0CE0182569F4F01
:102510000E944344892BB1F4C8010E94F14361E059
:10252000892B09F460E08CED99E00E945F0EC801F0
:102530000E94F143019709F054C28BE894E00E9495
:10254000B8074FC26EE172E0CE0182569F4F0E94E3
:102550004344892BB1F48CED99E00E94250D3B0199
:102560004C01C8010E94ED439B01AC01C401B301C1
:102570000E947F3EAB01BC018CED99E00E948F0E62
:1025800030C263E272E0CE0182569F4F0E94434404
:10259000892B51F4C8010E94ED43AB01BC018CEDC5
:1025A00099E00E94730E1DC268E272E0CE0182566D
:1025B0009F4F0E944344892B51F4C8010E94ED4370
:1025C000AB01BC018CED99E00E947B0E0AC26DE26A
:1025D00072E0CE0182569F4F0E944344892B61F4E2
:1025E000C8010E94F14361E0892B09F460E08CEDA1
:1025F00099E00E94C40FE8C162E372E0CE01825606
:102600009F4F0E944344892BC1F48CED99E00E94B6
:10261000450D3B014C01C8010E940F440E94E73F59
:102620009B01AC01C401B3010E947F3EAB01BC0120
:102630008CED99E00E94DE0EC7C167E372E0CE0127
:1026400082569F4F0E944344892B39F4F8016081E0
:102650008CED99E00E94A90EB7C16CE372E0CE0147
:1026600082569F4F0E944344892B61F4C8010E9407
:10267000F14361E0892B09F460E08CED99E00E9460
:10268000730FAFC161E472E0CE0182569F4F0E948A
:102690004344892B49F4C8010E94F143BC018CEDED
:1026A00099E00E94780F9DC166E472E0CE018256E7
:1026B0009F4F0E944344892B49F4C8010E94F14373
:1026C000BC018CED99E00E946D0F8BC16BE472E050
:1026D000CE0182569F4F0E944344892B49F4C80182
:1026E0000E94F143BC018CED99E00E94EC0D79C190
:1026F00060E572E0CE0182569F4F0E944344892BD1
:1027000049F4C8010E94F143BC018CED99E00E949C
:10271000FE0D67C165E572E0CE0182569F4F0E94B3
:102720004344892B49F4C8010E94F143BC018CED5C
:1027300099E00E94100E55C16AE572E0CE01825602
:102740009F4F0E944344892B09F06EC08091F20B89
:102750009091F30B9C838B838091F40B9091F50BFC
:10276000A091F60BB091F70B8D839E83AF83B88752
:102770008091F80B9091F90BA091FA0BB091FB0BA3
:1027800089879A87AB87BC87BA82A9828091FC0B24
:102790009091FD0B9E878D878091FE0B9091FF0B92
:1027A000988B8F878091000C9091010C9A8B898B6C
:1027B0008091020C9091030C9C8B8B8B8091040C6C
:1027C0009091050C9E8B8D8B8091060C9091070C3F
:1027D000988F8F8B8091080C898F8091090C8A8F3C
:1027E00080910A0C8B8F80910B0C8C8F80910C0C3C
:1027F0008D8FEDE0FCE0DE015E96832D01900D9261
:102800008A95E1F7EDE4FCE0DE01A25ABF4F832D8B
:1028100001900D928A95E1F7BE016F5F7F4F8CEDBD
:1028200099E00E94980BD0C06FE572E0CE0182560D
:102830009F4F0E944344892B49F4C8010E94F143F1
:10284000BC018CED99E00E94E20FCBC064E672E01F
:10285000CE0182569F4F0E944344892B51F4C801F8
:102860000E940F44AB01BC018CED99E00E94F00F77
:10287000B8C069E672E0CE0182569F4F0E94434481
:10288000892B51F4C8010E940F44AB01BC018CEDAF
:1028900099E00E940010A5C06EE672E0CE0182565B
:1028A0009F4F0E944344892B51F4C8010E940F445A
:1028B000AB01BC018CED99E00E94101092C063E75F
:1028C00072E0CE0182569F4F0E944344892B51F4FF
:1028D000C8010E940F44AB01BC018CED99E00E943D
:1028E00020107FC068E772E0CE0182569F4F0E94A1
:1028F0004344892B09F068C0C8010E94F14361E09C
:10290000892B09F460E08CED99E00E94451069C0C4
:1029100043E050E0B701CE0182569F4F0E945344DE
:10292000CF55DF4F1882C15AD040035011092DB73F
:102930003EB7201B310B0FB6F8943EBF0FBE2DBF24
:102940000DB71EB70F5F1F4FB7016C5F7F4FA4011C
:10295000C8010E943A44F801E80DF91D10826DE7A4
:1029600072E0CE0182569F4F0E944344892B49F466
:10297000C8010E94ED43AB01BC018CED99E00E94BF
:10298000340F61E872E0CE0182569F4F0E944344AB
:10299000892B49F4C8010E94ED43AB01BC018CEDC9
:1029A00099E00E943A0F65E872E0CE0182569F4F8F
:1029B0000E944344892B41F4C8010E94F143BC01A9
:1029C0008CED99E00E94840F0FB6F894DEBE0FBE26
:1029D000CDBE6BE673E080E090E00E9436447C015F
:1029E0004DCD8CED99E00E947F0CEECF0FB6F894A0
:1029F0005EBE0FBE4DBECE55DF4F0FB6F894DEBFA4
:102A00000FBECDBFDF91CF911F910F91FF90EF903F
:102A1000DF90CF90BF90AF909F908F907F906F90FE
:102A20005F904F903F9008951F93CF93DF93CDE039
:102A3000D4E014E680EF9BE00E940333892B61F120
:102A400080EF9BE00E941E3320910B0430910C0418
:102A5000F901E35FFB4F80832F5F3F4F30930C04FE
:102A600020930B048A3029F08D3019F0233631057C
:102A70000CF3F901E35FFB4F10826CE28DE094E010
:102A80000E94171210920C0410920B04FE01812F69
:102A900011928A95E9F7CECFDF91CF911F910895DA
:102AA000CF93DF93DC01FC0101900020E9F7E81BE4
:102AB000F90B3297EC01219680E09E012A1B3B0B1B
:102AC0002E173F0718F499918927F7CFDF91CF91FF
:102AD000089587EE94E00E94E828892BF9F087EEAC
:102AE00094E00E94E328682F82E095E00E943E1A5D
:102AF00080930704882369F382E095E00E94B61A68
:102B0000BC018BE999E00E94E71A82E095E00E94FF
:102B1000B61ABC0180EF9BE00C9432380895809186
:102B2000B00A8823F1F18FE894E00E94FD088091BB
:102B3000AE0A9091AF0A8091AE0A9091AF0A65E01B
:102B400070E00E943942892B81F48BEF94E00E945F
:102B5000FF1D8BEF94E00E948E1E8BE999E00E948E
:102B6000E91A8DEF94E00E9401048091AE0A9091E1
:102B7000AF0A6AE070E00E943942892B81F48BE849
:102B800094E00E94B4068DEF94E00E945E048DEF05
:102B900094E00E9498048BE999E00E945F1B1092D8
:102BA000B00A0C9469158CED99E00E94280A1092E5
:102BB0009E0910929D0988EE93E0A0E0B0E080931A
:102BC0009F099093A009A093A109B093A20987E956
:102BD00092E090939C0980939B098CED99E09093EF
:102BE000A8098093A70960E070E082E398E00E9462
:102BF0001E2460E070E086E697E00E94351A60E0EF
:102C000070E08AE996E00E94351A60E070E08EEC90
:102C100095E00E94351A60E070E082E095E00E9445
:102C2000351A6CED79E08DEF94E00E94B9036CEDFC
:102C300079E08BEF94E00E94191C4CED59E062E3BF
:102C400078E085EF94E00E94601641E063E487EE4F
:102C500094E00E942A286CED79E08FE894E00E94CD
:102C6000D8076CED79E08BE894E00E948C064CED7F
:102C700059E06AE27DE081E794E00C94001C8BE867
:102C800094E00E94EC048FE894E00E94AD0885EF88
:102C900094E00E9453168DEF94E00E94AC038BE900
:102CA00099E00C94C11A2FE832E0FC0131832083B3
:102CB00008952FE832E0FC01318320830C940B3C13
:102CC000FC018FE892E09183808355834483738372
:102CD00062830895CF92DF92EF92FF921F93CF937A
:102CE000DF93162F60E0812F0E94893D61E0812FE4
:102CF0000E94C23DC0E0D4E080E1C82E87E2D82E19
:102D0000E12CF12C28E438EE41E050E060E0812F26
:102D10000E94F83D16161706180619063CF46C15A5
:102D20007D058E059F0514F46B017C01219751F7F9
:102D30006DE075E080EF9BE00E94DE372AE030E036
:102D4000B701A60180EF9BE00E94EF388CE0C81627
:102D5000D104E104F104F4F184E1C816D104E104E2
:102D6000F104ECF18EE1C816D104E104F104E4F1C0
:102D700088E2C816D104E104F104DCF18CE3C81642
:102D8000D104E104F104D4F180E5C816D104E104D2
:102D9000F104CCF186E9C816D104E104F104C4F1D0
:102DA0008CE2C81681E0D806E104F104B4F188E5AC
:102DB000C81682E0D806E104F104A4F180EBC8163D
:102DC00084E0D806E104F10494F560EB74E080E05F
:102DD00090E030C060E072EC81E090E02BC060E0F9
:102DE00071EE80E090E026C060E076E980E090E05F
:102DF00021C060E870E780E090E01CC060E07BE408
:102E000080E090E017C060E478E380E090E012C0DA
:102E100060E875E280E090E00DC060EC72E180E077
:102E200090E008C060E679E080E090E003C060E0F8
:102E300070E0CB01DF91CF911F91FF90EF90DF9079
:102E4000CF900895CF92DF92EF92FF927C0169EFCD
:102E500074E080EF9BE00E94DE3763E170E0C70121
:102E60000E946A166B017C011616170618061906D1
:102E7000C4F462EF74E080EF9BE00E94DE372AE04A
:102E800030E0B701A60180EF9BE00E94EF3826E01A
:102E9000B701A6018DE89CE00E946E34B601C7011F
:102EA00019C06BEE74E080EF9BE00E94DE3766EDA8
:102EB00074E080EF9BE00E94203826E040EC52E175
:102EC00060E070E08DE89CE00E946E3460EC72E19E
:102ED00080E090E0FF90EF90DF90CF9008954F92C8
:102EE0005F926F927F928F929F92AF92BF92CF929A
:102EF000DF92EF92FF920F931F93CF93DF93CDB7A3
:102F0000DEB760970FB6F894DEBF0FBECDBF698302
:102F10007A838B839C83CA01B90127013801A601FA
:102F200095010E947E3E25E33AEF4EE85CE30E9465
:102F300053416B017C010E94B6416D877E878F876C
:102F4000988BC701B6010E94493F6D837E838F83B2
:102F5000988725E33AEF4EE85CE369817A818B81BB
:102F60009C810E9453416B017C0125E33AEF4EE8BE
:102F70005CE3C301B2010E9453412B013C01C70134
:102F8000B6010E94B6414B015C01C701B6010E9427
:102F9000493F69837A838B839C83C301B2010E947A
:102FA000B64169877A878B879C87C301B2010E94EB
:102FB000493F6B017C0129853A854B855C85698198
:102FC0007A818B819C810E9453412B013C01A70196
:102FD0009601C501B4010E9453412D813E814F816C
:102FE00058850E9453419B01AC01C301B2010E946C
:102FF0007E3E9B01AC010E9453412B013C012D857B
:103000003E854F855889C701B6010E9453419B01F7
:10301000AC010E9453419B01AC01C301B2010E946B
:103020007F3E0E94C0412B013C0129853A854B859A
:103030005C85C501B4010E9453414B015C01A701AD
:10304000960169817A818B819C810E9453412D81F7
:103050003E814F8158850E9453419B01AC01C501BF
:10306000B4010E947F3E9B01AC01C301B2010E94EA
:10307000F23E26E73BE742EC5AE40E945341609659
:103080000FB6F894DEBF0FBECDBFDF91CF911F9179
:103090000F91FF90EF90DF90CF90BF90AF909F90F7
:1030A0008F907F906F905F904F900895CF93DF93B4
:1030B000EC018A819B810E94472561E0892B09F4FC
:1030C00060E08C819D810E94020F8C819D810E9415
:1030D000490E882369F18A819B810E947F24682F91
:1030E0008C819D810E94270F8A819B810E947F2471
:1030F0008134F1F460E070E08A819B810E94AA240F
:10310000FC0182818235A1F060E070E08A819B81C0
:103110000E94AA24FC0183818D3451F060E070E0AC
:103120008A819B810E94AA24FC018481833431F42A
:103130008C819D81DF91CF910C94490E0E94573C68
:10314000AB01BC018C819D810E94070F8A819B810C
:103150000E94A224AB01BC018C819D810E94FA0EC9
:103160008A819B810E948224AB01BC018C819D815C
:103170000E940F0F8A819B810E948824AB01BC01B1
:103180008C819D810E94170F8C819D810E94CD0DA5
:10319000AB01BC018A819B810E948E24AB01BC01E2
:1031A0008C819D810E941F0F8A819B810E947924BE
:1031B000AB01BC018C819D810E942C0FB9CFDF92A5
:1031C000EF92FF920F931F93CF93DF93CDB7DEB7AC
:1031D000A8970FB6F894DEBF0FBECDBF8C0160EC90
:1031E00074E080EF9BE00E942038F8018481958193
:1031F0000E94DC0F892B31F469EA74E080EF9BE0D8
:103200000E942038F801848195810E94DC0F01978B
:1032100009F07FC062E974E080EF9BE00E942038F3
:1032200064E874E08DE89CE00E9420386CE674E06D
:103230008DE89CE00E94203864E574E08DE89CE015
:103240000E9420386CE374E08DE89CE00E942038F6
:1032500064E274E08DE89CE00E9420386CE074E049
:103260008DE89CE00E94203864EF73E08DE89CE0DC
:103270000E94203866EE73E08DE89CE00E942038C2
:103280001AA219A281E693E098A38F8FCE0101962E
:103290007C019CA38BA38EE190E098A78FA3CE0125
:1032A0004F960E9462206AED73E0CE014F960E9415
:1032B000DE37F801848195810E94F80FAB01BC01D3
:1032C0002AE030E0CE014F960E949D3862ED73E017
:1032D000CE014F960E94DE37C7010E945015D82EAE
:1032E000FFE0F81728F060E3CE014F960E94053802
:1032F00040E150E06D2DCE014F960E940E39B7018E
:103300008DE89CE00E943238B70180EF9BE00E947C
:103310003238F801848195810E94DC0F029709F010
:1033200055C069EB73E080EF9BE00E94203868EAAB
:1033300073E08DE89CE00E94203866E773E08DE83A
:103340009CE00E9420381AA219A281E693E098A37B
:103350008F8FCE0101967C019CA38BA38EE190E020
:1033600098A78FA3CE014F960E9462206CE673E06F
:10337000CE014F960E94DE37F801848195810E942C
:10338000F80FAB01BC012AE030E0CE014F960E945D
:103390009D3869E872E0CE014F960E940338C7015C
:1033A0000E945015182F803128F460E3CE014F960B
:1033B0000E94053840E150E0612FCE014F960E94F7
:1033C0000E39B7018DE89CE00E943238A8960FB6FE
:1033D000F894DEBF0FBECDBFDF91CF911F910F914B
:1033E000FF90EF90DF9008951092B40A1092B30A04
:1033F00081E693E09093B20A8093B10A8BEB9AE056
:103400009093B60A8093B50A88E290E09093BA0A46
:103410008093B90A81EB9AE00C946220CF93DF93FA
:10342000EC010E942217AB01BC018C819D810E949E
:1034300000108C819D810E947F0CCE010E94DF18BC
:103440008DE89CE00E9490338DE89CE00E94D0348F
:103450008C819D810E94F80FAB01BC0126E08DE8B4
:103460009CE0DF91CF910C946E34FC01E853FF4F48
:103470001182108232961182108208950F931F9349
:10348000CF93DF93DC01A853BF4F4D915C9111970F
:10349000FC01E653FF4F4236510514F011821082B1
:1034A0006A3011F06D3011F411821082643261F4CF
:1034B00024E6EC0119922A95E9F7EC01688381E092
:1034C00090E08D939C9345C020813181213031055E
:1034D000E9F02CF42115310509F442C03DC0223039
:1034E000310561F123303105B9F5FC01E40FF51F19
:1034F00060834E5F5F4F4D935C931182BC018C598A
:103500009F4F0E944C4421E030E02AC08A010F5FA7
:103510001F4F11961C930E939C01240F351FE90138
:1035200068834E5F5F4FE801C80FD91F4D935C93CE
:1035300068836A3299F482E090E00BC09A012F5FB1
:103540003F4F2D933C93DC01A40FB51F6C9383E098
:1035500090E09183808302C01182108220E030E0ED
:10356000C901DF91CF911F910F9108958C599F4F01
:103570000895862F0E94333181E090E008950C94E5
:10358000F63123E833E0FC01318320830C94EF32E1
:10359000CF93DF93EC0183E893E0998388830E94C3
:1035A000EF32CE01DF91CF910C940B3C9A01AB012D
:1035B000CA01B90196958795779567957C5D8B4093
:1035C0009F4F0E944D42CA01B9010C94E1300C9406
:1035D0003238EF92FF920F931F93CF93DF93CDB7C3
:1035E000DEB72A970FB6F894DEBF0FBECDBF8C01B1
:1035F0007C018EE0E80EF11C1C821B8281E693E0C8
:103600009A838983FE82ED828EE190E09A87898792
:10361000CE0101960E9462206EE375E0CE01019614
:103620000E94DE37F801848595850E94280E4AE0C5
:1036300050E0BC01CE0101960E94E73868E375E0D6
:10364000CE0101960E94DE37F801848595850E949F
:103650002E0EAB01BC0122E030E0CE0101960E94AB
:10366000003A62E375E0CE0101960E94DE37C701A1
:103670000E945015005C1F4FF8018083803128F4B0
:1036800060E3CE0101960E94053840E150E0F80168
:103690006081CE0101960E940E39B70180EF9BE058
:1036A0000E9432382A960FB6F894DEBF0FBECDBF07
:1036B000DF91CF911F910F91FF90EF900895AF92FE
:1036C000BF92CF92DF92EF92FF920F931F93CF930F
:1036D000DF93CDB7DEB72A970FB6F894DEBF0FBEE3
:1036E000CDBF8C01FC01848595850E94E00D20E012
:1036F00030E0A9010E94453F882309F470C05801B9
:10370000FCE2AF0EB11C1C821B8281E693E09A831F
:103710008983BE82AD8284E190E09A878987CE0159
:1037200001960E9462206AE275E0CE0101960E9435
:10373000DE37F801848595850E94DA0D6B017C01E6
:10374000F801848595850E94E00D9B01AC01C701BD
:10375000B6010E947E3EAB01BC0122E030E0CE010A
:1037600001960E94003A66E275E0CE0101960E9441
:10377000DE377801F0E4EF0EF11CF701108281E0F2
:1037800090E0F50101900020E9F7EA19FB09329772
:103790008E179F0750F4F801E80FF91F24A5F701D1
:1037A0003081232720830196ECCFF701808180317F
:1037B00028F460E3CE0101960E94053840E150E014
:1037C000F7016081CE0101960E940E39B50180EFAC
:1037D0009BE00E943238B501C8010E9432382A9617
:1037E0000FB6F894DEBF0FBECDBFDF91CF911F9112
:1037F0000F91FF90EF90DF90CF90BF90AF90089522
:10380000FC01578B468B718F608F11821082089557
:10381000FC01A081B181A80FB91F12966C93808121
:10382000918143972CF480819181019691838083CB
:103830000895CF93DF93EB01FC01718360830E94B5
:10384000633C6093150B7093160B8093170B90934A
:10385000180B4091150B5091160B6091170B70913E
:10386000180B4093110B5093120B6093130B709332
:10387000140B1092FD0A1092FE0A1092FF0A109289
:10388000000B81E08093FC0A1092E60A1092E70A8E
:103890008091E30A9091E40A20E03091E50A231731
:1038A00060F4FC0134E0239FE00DF11D112410822F
:1038B0001182128213822F5FF0CFCE010E94220E5E
:1038C000843691053CF063E670E0CE01DF91CF9144
:1038D0000C94780FDF91CF910895CF92DF92EF9201
:1038E000FF920F931F93CF93CB01BA0197FF09C0AB
:1038F00090958095709561957F4F8F4F9F4FC0E059
:1039000001C0C1E0683621E072078105910534F0FD
:1039100028E631E040E050E00E946F42653B7105CF
:103920008105910534F0645B71098109910921E0F9
:10393000C2276B3571058105910564F004EB10E039
:1039400020E030E068017901C61AD70AE80AF90ACE
:10395000C701B601660F771FFB01E955FD4F608176
:103960007181CC2319F080E090E00CC0CB01A0E085
:10397000B0E09C01AD0166277727CB01621B730B7A
:10398000840B950BCF911F910F91FF90EF90DF90DB
:10399000CF900895465A5F4F6F4F7F4F0C946D1C28
:1039A0004F925F926F927F928F929F92AF92BF924F
:1039B000CF92DF92EF92FF920F931F93CF93DF93FB
:1039C0008C016090E60AC091E30AD091E40A712C60
:1039D000C12CD12C7601812C912C54017614C1F08C
:1039E000488159816A817B81C8010E94CA1C860E68
:1039F000971EA81EB91E4991599169917991C801E4
:103A00000E946D1CC60ED71EE81EF91E7394E6CFE9
:103A100081149104A104B10429F4C114D104E10476
:103A2000F104A1F1662D70E080E090E00E94E73F94
:103A30002B013C01C501B4010E94E73F20E830E0C2
:103A400040E857E30E945341A30192010E944C3F7A
:103A50004B015C01C701B6010E94E73F20E830E05E
:103A600040E857E30E945341A30192010E944C3F5A
:103A7000A50194010E94F23E21EE3EE245E652E4A9
:103A80000E9453410E94B43FCB0102C080E090E00D
:103A9000DF91CF911F910F91FF90EF90DF90CF902A
:103AA000BF90AF909F908F907F906F905F904F905E
:103AB00008950F931F930E94573C00911D0B109186
:103AC0001E0B20911F0B3091200B601B710B820B82
:103AD000930B603171058105910550F18091FC0ACD
:103AE0008823E1F08091150B9091160BA091170B94
:103AF000B091180B8093110B9093120BA093130BA2
:103B0000B093140B0E94633C6093150B7093160BDB
:103B10008093170B9093180B1092FC0A0E94573C4D
:103B200060931D0B70931E0B80931F0B9093200BC3
:103B30001F910F9108950F931F930E94573C00917E
:103B4000190B10911A0B20911B0B30911C0B601B51
:103B5000710B820B930B603171058105910508F49F
:103B60004BC08091FC0A81113DC08091050B909162
:103B7000060BA091070BB091080B8093010B90935B
:103B8000020BA093030BB093040B0E94633C609361
:103B9000050B7093060B8093070B9093080B809195
:103BA000110B9091120BA091130BB091140B8093F9
:103BB0000D0B90930E0BA0930F0BB093100B8091F5
:103BC000150B9091160BA091170BB091180B8093C9
:103BD000090B90930A0BA0930B0BB0930C0B81E095
:103BE0008093FC0A0E94573C6093190B70931A0B48
:103BF00080931B0B90931C0B1F910F910895CF92F4
:103C0000DF92EF92FF92F89480910D0B90910E0B42
:103C1000A0910F0BB091100BC090090BD0900A0B24
:103C2000E0900B0BF0900C0B4091010B5091020BAC
:103C30006091030B7091040B78948C159D05AE0573
:103C4000BF0508F066C0C81AD90AEA0AFB0A28E9C3
:103C5000C2162AE3D206E104F10408F45AC0C09265
:103C6000FD0AD092FE0AE092FF0AF092000B9A0140
:103C7000AB01281B390B4A0B5B0B23333105410584
:103C8000510508F446C02C153D054E055F0508F0AA
:103C900040C0A8E6B1E00E949442A70196010E94AC
:103CA0004D42283681E038074105510590F5809155
:103CB000E70A8F5F8093E70A9091E60A6091E50A30
:103CC000E091E30AF091E40A9617B0F481E0890FDD
:103CD0008093E60A84E0989FE00DF11D1124208373
:103CE0003183428353838091E70A6091E60A0E9400
:103CF0002D429093E70A0DC00E942D429093E70A4F
:103D000084E0989FE00DF11D1124208331834283CC
:103D10005383FF90EF90DF90CF9008954F925F9282
:103D20006F927F928F929F92AF92BF92CF92DF92CB
:103D3000EF92FF92CF93DF93EC010E94573CC0902B
:103D40001D0BD0901E0BE0901F0BF090200B6C15FC
:103D50007D058E059F0550F40E94573C60931D0B16
:103D600070931E0B80931F0B9093200B0E94573C67
:103D7000C090190BD0901A0BE0901B0BF0901C0B0D
:103D80006C157D058E059F0550F40E94573C60938D
:103D9000190B70931A0B80931B0B90931C0B0E94B2
:103DA000573CAB01BC01888199810E94920F0E940F
:103DB000573CC0901D0BD0901E0BE0901F0BF09055
:103DC000200B6C197D098E099F09A880B980693B79
:103DD0007B4081059105A0F040E050E0BA01C501AB
:103DE000DF91CF91FF90EF90DF90CF90BF90AF9099
:103DF0009F908F907F906F905F904F900C948A0F60
:103E00002091FD0A3091FE0A4091FF0A5091000B6B
:103E1000211531054105510509F4B4C060E071EE8A
:103E200085EF95E00E944D4269017A01233481E0DB
:103E3000380741055105F4F5AAE0B0E00E9494422C
:103E40002B013C01C5010E94360E4B015C01A30110
:103E50009201C301B2010E941D4227E93FEF4FEFDB
:103E60005FEF0E946F4229013A01A701960168E2C3
:103E700073EE83E090E00E941D4224E630E040E0D3
:103E800050E00E946F42420E531E641E751E24EEC7
:103E9000421A2FE2520A61087108C301B2010E945E
:103EA000E73FA50194010E944C3F20E030E040E252
:103EB00051E460C02C3385E138074105510554F5C4
:103EC000C5010E94360E2B013C01A7019601C701D6
:103ED000B6010E941D422EEA38E040E050E00E9408
:103EE0006F4249015A01ABE9BAE4A70196010E9469
:103EF000944224E630E040E050E00E946F42820E9F
:103F0000931EA41EB51E26EA820E25E2921EA11C57
:103F1000B11C2AC0C5010E94360E2B013C01A7012D
:103F20009601C701B6010E941D4222E134E040E043
:103F300050E00E946F42A4E6B0E00E9494424B0120
:103F40005C01A701960164EB70E281E89FEF0E949B
:103F50001D42860E971EA81EB91E84E4880E8DEBA6
:103F6000981E8BE2A81EB11CC501B4010E94E73F58
:103F7000A30192010E944C3FAB01BC018881998151
:103F80000E948A0F888199810E942E0E6B017C010C
:103F9000888199810E943E0EBC01882777FD80951B
:103FA000982F0E94E73F9B01AC01C701B6010E9418
:103FB0004841181654F4888199810E942E0E0E945F
:103FC000B43F888199810E94D10FCE010E94D01CFC
:103FD0007C01888199810E941C0EB701680F791FAE
:103FE00077FF02C068597E4F88819981DF91CF9118
:103FF000FF90EF90DF90CF90BF90AF909F908F9009
:104000007F906F905F904F900C947E0F88EE9AE0B7
:104010009093E40A8093E30A85E08093E50A109286
:10402000E60A1092E70A089561E085E30E94C23D26
:1040300061E085E30E94893D8CB580618CBD8CB5C3
:1040400080648CBD61E084E30E94893D61E083E38C
:104050000C94893D811103C08CB5806202C08CB57F
:104060008F7D8CBD08959CB5937F982B9CBD089542
:104070002CB5982F93702C7F922B9CBD9DB582FB05
:10408000882780F99E7F982B9DBD0895FC01A6810D
:10409000B7819D012F5F3F4F848195814085518578
:1040A000840F951F2817390750F4378326836C93A4
:1040B0000680F781E02D108281E090E0089580E095
:1040C00090E00895FC01A481B581B783A683808523
:1040D0009185892B09F01C92089508952F923F92A3
:1040E0004F925F926F927F928F929F92AF92BF9208
:1040F000CF92DF92EF92FF920F931F93CF93DF93B4
:10410000CDB7DEB72A970FB6F894DEBF0FBECDBF8E
:104110009A878987DC01D6968C91882309F4E5C0BB
:104120000E94573C69837A838B839C83E985FA8557
:1041300080A191A129813A81281B390B84A595A5DD
:10414000281739070CF4D1C0028CF38DE02D808044
:104150009180A280B380A985BA855E96ED91FC918D
:104160005F97A501940160817181828193810E9492
:104170007E3E2B013C01E985FA85208931894289FF
:1041800053890E945341A985BA8594962D913D91FA
:104190004D915C9197970E947F3E6B017C01E98570
:1041A000FA8564A375A386A397A312A903A934A8CB
:1041B00025A8212F302F432D522D0E94484118163B
:1041C0002CF4812F902FA32DB22D18C0A985BA856C
:1041D0009E968D919D910D90BC91A02D8D839E8377
:1041E000AF83B8879C01AD01C701B6010E94453F6E
:1041F00087FF0AC08D819E81AF81B885E985FA85E8
:1042000084A395A3A6A3B7A3A985BA851C962D91CF
:104210003D914D915C911F97C301B2010E945341A2
:10422000E985FA8524A135A146A157A10E947F3EC8
:104230006B017C01A985BA8598962D913D914D9190
:104240005C919B97C501B4010E947E3EE985FA8589
:1042500024893589468957890E9453419B01AC01C5
:10426000C701B6010E947E3E6B017C01212F302FD9
:10427000432D522D0E9448411816DCF0A985BA85BD
:104280009E961C919E979F960C919F97D0963C90DE
:10429000D097D1962C90212F302F432D522DB6013F
:1042A000C7010E94453F87FD04C01C2D0D2D3E2CEB
:1042B0002F2CA985BA855C96ED91FC915D97812F95
:1042C000902FA32DB22D80839183A283B383E985A0
:1042D000FA8580A691A6A2A6B3A689819A81AB8110
:1042E000BC8180A391A3A2A3B3A32A960FB6F8948E
:1042F000DEBF0FBECDBFDF91CF911F910F91FF9019
:10430000EF90DF90CF90BF90AF909F908F907F9075
:104310006F905F904F903F902F9008952F923F9213
:104320004F925F926F927F928F929F92AF92BF92C5
:10433000CF92DF92EF92FF920F931F93CF93DF9371
:1043400000D000D0CDB7DEB71C012A013B014801E7
:10435000590120E030E0A901C301B2010E94453FAC
:1043600087FD7AC020E030E0A901C501B4010E94B8
:10437000453F87FD71C020E030E0A901C701B601CB
:104380000E94453F87FD68C0F101408251826282F0
:10439000738284829582A682B782C086D186E286A5
:1043A000F38664A575A5882777FD8095982F0E94D0
:1043B000E73F20E030E04AE754E40E944C3F698345
:1043C0007A838B839C83F101448655866686778643
:1043D0009B01AC01C501B4010E9453414B015C013A
:1043E000F101608B718B828B938B29813A814B8198
:1043F0005C81C701B6010E944C3F6B017C01F10159
:10440000648B758B868B978B808D918D019721F5B1
:10441000A301920160E070E0CB010E947E3EF101B9
:104420006487758786879787A501940160E070E0AF
:10443000CB010E947E3EF101608B718B828B938B4E
:10444000A701960160E070E0CB010E947E3EF10181
:10445000648B758B868B978B0F900F900F900F90BE
:10446000DF91CF911F910F91FF90EF90DF90CF9050
:10447000BF90AF909F908F907F906F905F904F9084
:104480003F902F900895CF92DF92EF92FF920F937B
:104490001F93CF93DF93EC018B011616170694F54B
:1044A000882777FD8095982F0E94E73F6B017C015C
:1044B0006CA57DA5882777FD8095982F0E94E73F02
:1044C0009B01AC01C701B6010E944C3F6B017C010E
:1044D0009B01AC01688979898A899B890E94534133
:1044E000688B798B8A8B9B8BA70196016C897D8960
:1044F0008E899F890E944C3F6C8B7D8B8E8B9F8B0E
:104500001DA70CA7DF91CF911F910F91FF90EF9006
:10451000DF90CF9008952F923F924F925F926F92CB
:104520007F928F929F92AF92BF92CF92DF92EF9243
:10453000FF920F931F93CF93DF93EC016A017B01EE
:1045400048015901A9019801C701B6010E944841DB
:1045500087FF4EC0CEA6DFA6E8AAF9AA8AAA9BAA20
:10456000ACAABDAA8EA9882309F442C02C8C3D8C2C
:10457000F1014080518062807380A5019401C301E4
:10458000B2010E944841181634F4F10180829182F0
:10459000A282B3820DC0A7019601C301B2010E949D
:1045A000453F87FF05C0F101C082D182E282F382DC
:1045B0008CA09DA0AEA0BFA0CAA8DBA8ECA8FDA8B7
:1045C000A7019601C501B4010E944841181664F084
:1045D000CEA4DFA4E8A8F9A8A7019601C501B401FB
:1045E0000E94453F87FF04C0CCA2DDA2EEA2FFA23D
:1045F000DF91CF911F910F91FF90EF90DF90CF90BF
:10460000BF90AF909F908F907F906F905F904F90F2
:104610003F902F9008958F929F92AF92BF92CF922A
:10462000DF92EF92FF92CF93DF93EC01EC8DFD8D43
:10463000C080D180E280F380CCA2DDA2EEA2FFA2F6
:10464000EA8DFB8D80819181A281B38188A799A792
:10465000AAA7BBA78AA89BA8ACA8BDA8A50194013E
:10466000C701B6010E944841181664F08EA49FA4A9
:10467000A8A8B9A8A5019401C701B6010E94453FA9
:1046800087FF04C08CA29DA2AEA2BFA2DF91CF91F2
:10469000FF90EF90DF90CF90BF90AF909F908F9062
:1046A00008951F93CF93DF93EC0111E06130710502
:1046B00009F010E08EA991E08927181303C0CE01FC
:1046C0000E940B231EABDF91CF911F9108950F9392
:1046D0001F93CF93DF93EC018B018EA9882361F1A7
:1046E000888D998D6817790739F12C853D854E8520
:1046F0005F8560E070E0CB010E947E3E6C877D8725
:104700008E879F87288939894A895B8960E070E0B4
:10471000CB010E947E3E688B798B8A8B9B8B2C8988
:104720003D894E895F8960E070E0CB010E947E3E4A
:104730006C8B7D8B8E8B9F8B198F088FDF91CF9128
:104740001F910F9108952F923F924F925F926F9217
:104750007F928F929F92AF92BF92CF92DF92EF9211
:10476000FF920F931F93CF93DF93CDB7DEB72897B8
:104770000FB6F894DEBF0FBECDBF4C017A836983BC
:104780001A013C832B8327013801AD82BE82CF8280
:10479000D88600E010E02FE733E440E050E0BA01B3
:1047A0000E948B2284E690E0F40195A784A769A17A
:1047B0007AA1C4010E946723CD8CDE8CEF8CF8A017
:1047C0000D811E812F813885B301A201C4010E9491
:1047D0008E210E94573CF40144A455A4662457FC42
:1047E0006094762C641975098609970960A371A3F2
:1047F00082A393A316AA358E248E89819A81938FE2
:10480000828F8B819C81978F868F28960FB6F89424
:10481000DEBF0FBECDBFDF91CF911F910F91FF90F3
:10482000EF90DF90CF90BF90AF909F908F907F9050
:104830006F905F904F903F902F9008950F931F932C
:10484000CF93DF93FC017183608312821382148201
:10485000158286E586831782108611861286138656
:104860001486158616861786108A118A128A138A6C
:10487000148A158A168ADF01A754BF4F11961C921D
:104880001E92AE55BF4F11961C921E921496119611
:104890001C921E92129611961C921E9212961196BE
:1048A0001C921E92178AAC5AB1091D921C92EF01FC
:1048B00004E110E08FE090E00E94C642FE01E15E5C
:1048C000FE4F918380838FE090E00E94C642FE01FC
:1048D000E558FF4F91838083FC011082015011093C
:1048E00022960115110531F7DF91CF911F910F919C
:1048F0000895FC0162817381848195810895FC0192
:1049000086810895FC01678170858185928508956F
:10491000FC0163857485858596850895CF92DF9225
:10492000EF92FF926A017B01FC0127853089418962
:104930005289C701B6010E945341FF90EF90DF906A
:10494000CF900895FC0163897489858996890895BB
:1049500047960895660F771F680F791FFB01E5588A
:10496000FF4F8081918108954F925F926F927F9265
:104970008F929F92AF92BF92CF92DF92EF92FF926F
:104980000F931F93CF93DF93FB0110811D3241F0F2
:1049900031E020E01B3209F030E0832F922F02C07B
:1049A00081E090E0EB01C80FD91F00E03DEC432E01
:1049B0003CEC532E652C3DE3732E812C912C54013D
:1049C000C12CD12C7601E991EE23E9F1EE32C9F147
:1049D000FF27E7FDF095011113C0AAE0B0E0A701A1
:1049E00096010E9494426B017C01CF01C097AA27D7
:1049F00097FDA095BA2FC80ED91EEA1EFB1EE3CF65
:104A0000BF0160537109882777FD8095982F0E9418
:104A1000E73F9B01AC01C301B2010E9453419B01DE
:104A2000AC01C501B4010E947F3E4B015C0120E056
:104A300030E040E251E4C301B2010E944C3F2B013F
:104A40003C0101E0C0CFC701B6010E94E73F9B01D6
:104A5000AC01C501B4010E947F3E1D3239F49B01B7
:104A6000AC0160E070E0CB010E947E3EDF91CF910F
:104A70001F910F91FF90EF90DF90CF90BF90AF907C
:104A80009F908F907F906F905F904F9008958F923E
:104A90009F92AF92BF92CF92DF92EF92FF920F93CD
:104AA0001F93CF93DF93EC01AC01455A5E4FDA01BF
:104AB0002D913C911197FC01E15AFE4F24363105AE
:104AC0006CF4A25AB1098D919C911197449734F4DA
:104AD000A655BF4F8D919C910F9714F011821082B3
:104AE0006A3011F06D3011F4118210826432E1F4F9
:104AF000DE01A35ABE4F11961C921E921496119677
:104B00001C921E92A85AB10911961C921E92A6558B
:104B1000BF4F1D921C92C554DF4F688381E090E027
:104B2000DA018D939C93E4C080819181813091055D
:104B300069F024F4009709F47AC272C282309105B8
:104B400009F492C0039709F4D6C06AC22730310530
:104B50007CF4D901AB59BC4F8C91681309C0DE01BC
:104B6000A35ABE4F8D919C91119701968D939C9362
:104B7000C9010196DA018D939C932C0F3D1FD90139
:104B8000A554BF4F6C93CE0187549F4F8E010D5992
:104B90001E4F6A3249F1DE01AF59BE4FFC016C3243
:104BA00009F040C020813181A9014F5F5F4F5183DF
:104BB0004083C901880F991F8C0F9D1FEC01C15EB6
:104BC000DE4F0990D881C02DF80180819181C80FF6
:104BD000D91F1882118210828D919C911197FCE24D
:104BE0008F278D939C931EC2DC012D913C911197D0
:104BF000A9014F5F5F4F4D935C93C901880F991FC7
:104C00008C0F9D1FEC01C15EDE4F0990D881C02D35
:104C1000D8018D919C911197C80FD91F18821D92B0
:104C20001C9263C080819181880F991F8C0F9D1FFA
:104C3000EC01C15EDE4F0990D881C02DF801808162
:104C400091819C012F5F3F4F31832083C80FD91F73
:104C50006883772767FD70958D919C9111976827E0
:104C600079276D937C93DEC1C9010196DA018D939A
:104C70009C932C0F3D1FD901A554BF4F6C93DE01AF
:104C8000A754BF4F8D919C91880F991F8C0F9D1F2A
:104C9000DC01A15EBE4F0D911C919E012D593E4F2E
:104CA000D9018D919C911197AC014F5F5F4F4D934E
:104CB0005C93080F191FD8016C93CF59DE4F4881C0
:104CC0005981862F992787FD9095613414F0C797F5
:104CD00001C0C0979C01B4E0220F331FBA95E1F7E1
:104CE000CA01821B930B99838883808191810196ED
:104CF0009183808397C1CE01820F931FDC01A5545D
:104D0000BF4F6C932E5F3F4FDA012D933C93DC0134
:104D1000A454BF4F1C929E0127543F4FD9018D913F
:104D20009C91880F991F8C0F9D1FDC01A15EBE4FC7
:104D30008D919C916E01BDE9CB1ABEEFDB0AD601C5
:104D40000D911C917801BFEFEB1AFB0AD601ED9291
:104D5000FC92800F911FDC016C93D9018D919C9185
:104D600011978C010F5F1F4F0D931C93880F991F94
:104D70008C0F9D1F815E9E4FDC018D919C91D60111
:104D80000D911C91800F911FDC011C9211821082E9
:104D9000FE01EF59FE4F80819181062F112707FDFB
:104DA0001095613424F0B8016753710903C0B8014C
:104DB00060537109861B970B91838083009709F0DC
:104DC00031C168817981672B29F4FA016081718191
:104DD000CB010AC0FE01E35AFE4F6081718166304B
:104DE000710509F024C1F1CF019797FD0AC0FE01BA
:104DF000E80FF91F8F0105541F4FD8011C91178B25
:104E0000F3CFFB013197CB0177FF02C080E090E048
:104E1000BF01681B790BDA016D937C93FE01E954A5
:104E2000FF4F1182108240815181D9018D919C9157
:104E30004817590784F5D6011D921C9280819181F3
:104E4000D6014D915C91880F991F8C0F9D1FBC015D
:104E5000615E7E4FDB016D917C91640F751FDB01FC
:104E60006C9185589F4FDC018D919C91840F951F0B
:104E7000DC01662349F06C93D6018D919C911197CA
:104E800001968D939C93DACF1C928081918101963B
:104E900091838083C8CFFE01E35AFE4F80819181C8
:104EA000069709F0C2C0FC9760817181CE010E9413
:104EB000B4246A837B838C839D83FE01ED5DFE4F6A
:104EC0000190F081E02D80818E83FE01EB5DFE4F2D
:104ED00060817181CE010E94B42420E030E048EC72
:104EE00052E40E944C3F4B015C010E9422406B0146
:104EF0007C018E010B591E4FF80160837183828300
:104F000093839B01AC01C501B4010E947E3E20E069
:104F100030E048EC52E40E94534120E030E040E7AA
:104F200052E40E944C3FA70196010E947F3E9B01E4
:104F3000AC016F83788789879A87FE01E95DFE4F10
:104F40000190F081E02D8081833549F460E070E0CC
:104F5000CB010E947E3E6F83788789879A87FE0106
:104F6000E75DFE4F60817181CE010E94B42420E094
:104F700030E048EC52E40E944C3F4B015C010E943F
:104F800022406B017C01D8016D937D938D939C939E
:104F900013979B01AC01C501B4010E947E3E20E045
:104FA00030E048EC52E40E94534120E030E040E71A
:104FB00052E40E944C3FA70196010E947F3E9B0154
:104FC000AC016B877C878D879E87FE01E55DFE4F78
:104FD0000190F081E02D8081873549F460E070E038
:104FE000CB010E947E3E6B877C878D879E87FE016A
:104FF000E35DFE4F60817181CE010E94B4246F8712
:10500000788B898B9A8BFE01E15DFE4F6081718107
:10501000CE010E94B4246B8B7C8B8D8B9E8B05C044
:105020001182108280E090E002C081E090E0DF9188
:10503000CF911F910F91FF90EF90DF90CF90BF9095
:10504000AF909F908F9008958EBD0DB407FEFDCF59
:105050008EB508950F931F93FC011382128208EE00
:1050600013E020E030E0048315832683378381E753
:1050700093E091838083648745871F910F91089502
:10508000EF92FF921F93CF93DF931F92CDB7DEB7BE
:105090007C01162F60E0FC01848549830E94C23D9B
:1050A000F8E01F9FB0011124F7018585880F862B3A
:1050B0000E9424284981842F0E94242862E070E005
:1050C00080E090E00E94863C61E0F70184850F90CB
:1050D000DF91CF911F91FF90EF900C94C23D462F2E
:1050E00060E00E94402881E090E0089546E062E0A0
:1050F0000C944028CF92DF92EF92FF920F931F9370
:10510000CF93DF9300D0CDB7DEB78C01F22E60E0F5
:10511000FC01848549835A830E94C23D4981E42E63
:10512000C42E5A81D52E8C2D8E198F1530F4F60190
:1051300081916F010E942428F6CF62E070E080E048
:1051400090E00E94863C61E0F80184850F900F900A
:10515000DF91CF911F910F91FF90EF90DF90CF9053
:105160000C94C23D242FAB0160E00C947A281F936D
:10517000CF93DF93EC01162F60E08C850E94C23D37
:1051800062E070E080E090E00E94863C88E0189F3A
:10519000B00111248D85880F862B80680E942428F9
:1051A00080E00E942428182F62E070E080E090E008
:1051B0000E94863C61E08C850E94C23D812FDF9178
:1051C000CF911F91089560E00E94B72890E0089564
:1051D00069E00E94B72890E0089569E00E94B7282E
:1051E0008FEF9FEF08951F93CF93DF93EC01162F5E
:1051F00063E00E94B728482F4C7F6BEF610F63700C
:10520000462B63E0CE01DF91CF911F910C94402893
:105210008F929F92AF92BF92CF92DF92EF92FF92C6
:105220000F931F93CF93DF93EC016A017B01480139
:10523000590163E775E080EF9BE00E9420380E94EF
:1052400014206AE070E080E090E00E94863C81E0FB
:105250000E942A2081E00E94382080E00E943320B2
:1052600067E675E080EF9BE00E942038809106029F
:1052700090910702019779F448E06EE0CE010E9418
:105280004028109207021092060268E575E080EF50
:105290009BE00E94203864E670E080E090E00E948D
:1052A000863C40E863E0CE010E944028C701B60179
:1052B00023E0660F771F881F991F2A95D1F7680D85
:1052C000791D8A1D9B1DA7019601E4E0220F331F63
:1052D000441F551FEA95D1F70E944D4269017A019A
:1052E000422F60E0CE010E9440284D2D552761E0FD
:1052F000CE010E94402840E063E0CE010E94402899
:1053000068E0CE010E94F32847E062E0CE010E94EF
:10531000402866E475E080EF9BE0DF91CF911F911C
:105320000F91FF90EF90DF90CF90BF90AF909F9044
:105330008F900C9420380F931F9300E010E820E723
:1053400030E00E9408291F910F910895FC016F77AA
:105350008081918186279183808347E020813181FC
:10536000C9019695879520FF04C020EF822722E28D
:10537000922791838083415089F70895EF92FF929D
:105380000F931F93CF93DF937C018A01EB01060FEC
:10539000171FC017D10729F06991C7010E94A629DC
:1053A000F8CFDF91CF911F910F91FF90EF9008956B
:1053B000CF93DF9300D0CDB7DEB7AB012FEF3FE344
:1053C0003A832983BC01CE0101960E94BE298981BE
:1053D0009A8180952FE392270F900F90DF91CF91C4
:1053E00008950F931F93CF93DF931F92CDB7DEB72E
:1053F0008C01FC01718360831282238314861586DD
:1054000016861786108A459649830E94AC2EF801AD
:10541000178E10A249818FE9840F8A3108F4405217
:105420008FEB840F8A3120F080ED840F8A3010F4E6
:10543000F801428344E650E060E070E0F801448304
:105440005583668377834FEF5FEFBA0140875187BB
:105450006287738711A20F90DF91CF911F910F91F7
:10546000089508959F92AF92BF92CF92DF92EF92EC
:10547000FF920F931F93CF93DF93CDB7DEB7A7971C
:105480000FB6F894DEBF0FBECDBF6C017B01942E2A
:105490005901DB0114964D915D916D917C911797A7
:1054A000CE0180960E94A52FCE0180960E947B2F70
:1054B0006894A4F8C8010E94532F882321F0C601E4
:1054C0000E94AE2E6CC0CE0180960E94532F88237E
:1054D000A9F1CE0180960E94992FF70184858F5FF4
:1054E00087FD81E0D7011C968C93CE0101960E9426
:1054F000DB2CF7016281CE0101960E94DF2C6A2D20
:10550000CE0101960E94DF2CD7011C966C91CE0132
:1055100001960E94DF2C692DCE0101960E94DF2C9E
:10552000D701ED91FC91119763A174A123E230E0C2
:1055300013964C91CE0101960E94B72DF701808100
:1055400091810E94852E882309F4B4CFD701ED9173
:10555000FC911197938113968C919813ABCF848112
:10556000833409F0A7CF4081518145505109BF01D3
:105570006A5F7F4FCE0101960E94242F8981882384
:1055800009F498CF9C81F7018485981393CF8AE022
:10559000FE013196D60101900D928A95E1F7C60180
:1055A000A7960FB6F894DEBF0FBECDBFDF91CF91A7
:1055B0001F910F91FF90EF90DF90CF90BF90AF9031
:1055C0009F9008959F92AF92BF92CF92DF92EF92F9
:1055D000FF920F931F93CF93DF93CDB7DEB76F97F3
:1055E0000FB6F894DEBF0FBECDBF8C015B017A0110
:1055F000922EDC01ED91FC91C3A0D4A0CE010196C6
:105600000E94DB2CF8016281CE0101960E94DF2C02
:10561000692DCE0101960E94DF2C96FE07C0D801AD
:105620005F966C91CE0101960E94DF2CF7014281BA
:105630005381B7016C5F7F4FCE0101960E94EB2C26
:105640009501D80113964C91B601CE0101960E94A6
:10565000B72D6F960FB6F894DEBF0FBECDBFDF91AA
:10566000CF911F910F91FF90EF90DF90CF90BF905F
:10567000AF909F900895CF92DF92EF92FF920F9399
:105680001F93CF93DF93CDB7DEB72A970FB6F89469
:10569000DEBF0FBECDBF7C016A01FC0180A181117C
:1056A00023C08B0120E430E041E050E0B701CE019F
:1056B00001960E94322A8AE0FE013196D6010190BD
:1056C0000D928A95E1F7F601828180FF04C0868100
:1056D000978197FD07C0F6018481F701878F81E0EC
:1056E00080A302C081E001C080E02A960FB6F89442
:1056F000DEBF0FBECDBFDF91CF911F910F91FF9005
:10570000EF90DF90CF900895DF92EF92FF920F938A
:105710001F93CF93DF93CDB7DEB72A970FB6F894D8
:10572000DEBF0FBECDBF7C01D42EFC01238934899E
:10573000418952898B01BC01CE0101960E94322A17
:105740008AE0FE013196D701559601900D928A9517
:10575000E1F7F701878980FF04C0838D948D97FD61
:105760000BC0F701818D978D891731F0811106C02B
:1057700081E0D11004C002C081E001C080E02A961F
:105780000FB6F894DEBF0FBECDBFDF91CF911F9152
:105790000F91FF90EF90DF9008958F929F92AF92BC
:1057A000BF92CF92DF92EF92FF920F931F93CF930E
:1057B000DF93CDB7DEB72E970FB6F894DEBF0FBEDE
:1057C000CDBF7C016B015A014901FC01258536855D
:1057D000478550892F5F3F4F4F4F5F4F2587368753
:1057E0004787508BBC01CE0109960E94C72DF70157
:1057F00081A1882339F09401A501B601C7010E9457
:10580000E22A30C0F7014085518562857385CE015B
:1058100001960E94A52FA7014B5E5F4FBE016F5FEF
:105820007F4FC7010E943B2B81111CC0689486F8F2
:10583000F701128B018B948A838A878D8F5F87FD96
:1058400081E0F701878F9401A501B601C7010E948D
:10585000E22A40E0BE016F5F7F4FC7010E94842BA8
:10586000882389F386E0FE013996DE0111960190C6
:105870000D928A95E1F729813A814B815C816D8196
:105880007E8180E090E02E960FB6F894DEBF0FBECA
:10589000CDBFDF91CF911F910F91FF90EF90DF90DF
:1058A000CF90BF90AF909F908F9008958F929F92CE
:1058B000AF92BF92CF92DF92EF92FF920F931F931E
:1058C000CF93DF93CDB7DEB7AA970FB6F894DEBFBC
:1058D0000FBECDBF4C01CE0101962FA338A749A71B
:1058E0005AA76EA30E94DB2C6EA1CE0101960E94E6
:1058F000DF2C2FA138A549A55AA5BA01A901CE01CF
:1059000001960E94032DF7FC0BC0602FCE0101967B
:105910000E94DF2CB701A601CE0101960E94032D43
:1059200001E010E09501AE014F5F5F4F64E270E06F
:10593000C4010E94CD2B80E090E0AA960FB6F894A7
:10594000DEBF0FBECDBFDF91CF911F910F91FF90B2
:10595000EF90DF90CF90BF90AF909F908F90089581
:10596000AF92BF92CF92DF92EF92FF920F931F936D
:10597000CF93DF9300D000D000D0CDB7DEB7570172
:105980006801790102E09A01AB0161E00E94562CA6
:1059900080E090E026960FB6F894DEBF0FBECDBF34
:1059A000DF91CF911F910F91FF90EF90DF90CF90FB
:1059B000BF90AF900895FC01138212820895FC01FC
:1059C00022813381A9014F5F5F4F53834283E20FEE
:1059D000F31F64830895CF93DF93FB01460F571F96
:1059E000E417F50769F0A191EC012A813B81B90127
:1059F0006F5F7F4F7B836A83C20FD31FAC83F0CF6F
:105A0000DF91CF9108950F931F93413051056105A8
:105A100020EE72077CF08A019B010115110521051A
:105A200040E2340724F00FEF1FEF2FEF3FE137FF85
:105A300012C004C001E010E020E030EE3095209567
:105A4000109501951F4F2F4F3F4F000F111F221F21
:105A5000331F016004C0000F111F221F331FFC0100
:105A600042815381702F7F73003411052105310568
:105A700010F060E401C060E04F5F5F4FFC01E40F95
:105A8000F51F672B638366E0369527951795079575
:105A90006A95D1F7011511052105310519F7FC01AA
:105AA000538342831F910F910895EF92FF920F93BA
:105AB0001F93CF93DF93EC01688349830A83F90135
:105AC000DC011396C901800F911FE817F90719F03F
:105AD00021912D93FACF780183E0E80EF11CB701F4
