:100000000C94D7020C94FC390C942D3A0C945E3A63
:100010000C948F3A0C94C03A0C94F13A0C94223B15
:100020000C94533B0C9406030C9406030C940603A7
:100030000C9406030C9406030C9406030C940130F4
:100040000C9406030C9406030C9406030C9406030C
:100050000C9406030C9406030C9406030C94963B34
:100060000C9406030C9475340C94AB340C94060376
:100070000C9406030C9406030C9406030C940603DC
:100080000C9406030C9406030C9406030C940603CC
:100090000C9422350C9458350C9406030C940603EA
:1000A0000C9406030C9406030C9406030C940603AC
:1000B0000C9406030C9406030C9484310C94F330D6
:1000C0000C94E6310C9406030C9406030C94CF3583
:1000D0000C9405360C9406030C947C360C94B236C2
:1000E0000C940603D639A039A839B439C139E2399C
:1000F000EF39D73CDA3CC93CCD3CD33C113DDE3C2A
:10010000E23CE83CEC3CF03CF63CFA3CFE3C113D69
:10011000043D083D0C3D084AD73B3BCE016E84BCF4
:10012000BFFDC12F3D6C74319ABD56833DDA3D0051
:10013000C77F11BED9E4BB4C3E916BAAAABE00009A
:1001400000803F05A84CCDB2D44EB93836A9020C78
:1001500050B9918688083CA6AAAA2ABE0000008051
:100160003F002C002C4C4C333A002C4C55333A00B9
:100170002C4C4C323A002C4C55323A002C4C4C3121
:100180003A002C4C55313A002C53544B3A002C5326
:1001900042333A002C5342323A002C5342313A0057
:1001A0002C5342303A002C4750533A002C575A4AAD
:1001B0003A005549443A4D4547412C4150583A0080
:1001C00021215645523A312E392C002C002C575300
:1001D0004B3A002C5753583A002C4141443A002CDA
:1001E0004141453A002C41414E3A002C4141523A9E
:1001F000002C4141583A002C4150523A002C4150B9
:10020000433A002C4150543A002C4150533A005587
:1002100049443A4D4547412C4150583A0021215616
:1002200045523A312E392C0043535F50494E204FEE
:100230005554505554203D20484947480043535F8A
:1002400050494E2073657420746F204F555450559B
:10025000540024504D544B3235312C0024504D5411
:100260004B3331342C302C312C302C312C312C317F
:100270002C302C302C302C302C302C302C302C309E
:100280002C302C302C302C302C302A32380024509A
:100290004D544B3232302C313030302A31460053FD
:1002A000657474696E672047505320746F204D54F5
:1002B000454B5F33333239002C382C312C302A0037
:1002C00024505352463130302C312C00245053529C
:1002D000463130352C302A334600245053524631B3
:1002E00030332C30342C30302C30312C30312A3219
:1002F000310024505352463130332C30332C3030BF
:100300002C32302C30312A323500245053524631B1
:1003100030332C30322C30302C30352C30312A32E6
:10032000330024505352463130332C30302C30308F
:100330002C30352C30312A32310024505352463182
:1003400030332C30312C30302C30302C30312A32BC
:10035000350024505352463130332C30352C303058
:100360002C30302C30312A32310024505352463157
:1003700030352C312A33450053657474696E67201B
:1003800047505320746F20454D5F34303641005341
:10039000657474696E672047505320746F20474519
:1003A0004E455249430053657474696E6720475047
:1003B0005320636F6E6669672E2E2E004641494CAE
:1003C0004544004F4B206174200020202074727936
:1003D000206175746F62617564202E2E20002C548C
:1003E0002A002448434844542C002C4E2C412A0017
:1003F0002E302C522C002457494D57562C00535068
:100400004920696E697420636F6D706C6574650056
:1004100053504920554152542072657365740053FE
:1004200050492073746172746564004D756C746911
:1004300053657269616C3A3A626567696E000000E3
:100440000A0B02090C0D0E0807030401000000004E
:10045000000000000000000000000000000000009C
:100460000000000000000000000012111000000059
:10047000000000000000000000000000000000007C
:100480000000000001021020200808102040102069
:100490004080020102010804020101020408102048
:1004A0004080804020100804020180040201804046
:1004B00020100804020108040201010204081020AF
:1004C000408001020408102040800505050507054D
:1004D00008080808020202020A0A080804040404C0
:1004E00001010101010101010303030303030303EC
:1004F000040707070C0C0C0C0C0C0C0C020202027B
:1005000006060606060606060B0B0B0B0B0B0B0B63
:10051000000020002300260029002C002F003200BC
:10052000000100000301060109010000220025006E
:1005300028002B002E0031003400020100000501CC
:1005400008010B0100002100240027002A002D00D3
:100550003000330001010000040107010A014E418F
:100560004E494E495459494E46CDCCCC3D0AD7232D
:100570003C17B7D13877CC2B329595E6241FB14F75
:100580000A000020410000C84200401C4620BCBEBA
:100590004CCA1B0E5AAEC59D7400F1070D15091902
:1005A0008F1FDF348C353936E6360508791511246E
:1005B0001FBECFEFD1E2DEBFCDBF13E0A0E0B2E0BF
:1005C000E8E2FCE800E00BBF02C007900D92A23BFE
:1005D000B107D9F72EE0A2EBB3E001C01D92A1381C
:1005E000B207E1F715E0CAEAD5E000E006C02297BD
:1005F0000109FE010BBF0E945142CA39D10780E0B8
:100600000807A9F70E94853B0C9402460C94000051
:100610002FE032E0FC013183208308952FE032E0A7
:10062000FC01318320830C94943BFC01CB012FE02F
:1006300032E03183208373836283148240E050E090
:10064000BA010E94820E61E088E10E94123D61E0E1
:100650008AE10E94123D61E08CE10E94123D61E05E
:100660008EE10E94123D60E082E40C94123DCF9234
:10067000DF92EF92FF92CF93DF93EC018A819B810F
:100680000E94C90F882389F08A819B810E94460CB1
:100690006B017C010E94E03B21E0C616D706E8060C
:1006A000F90608F020E0822F01C080E0DF91CF91B1
:1006B000FF90EF90DF90CF900895CF92DF92EF926E
:1006C000FF92CF93DF93EC010E9437038823A9F1B7
:1006D0000E94E03B6B017C018A819B810E94400C5F
:1006E000C61AD70AE80AF90A89EEC81683E0D806BE
:1006F000E104F104C0F16C8188E10E944B3D6C8102
:100700008AE10E944B3D6C818CE10E944B3D6C81E3
:100710008EE10E944B3D8C8191E089278C830E9461
:10072000E03BAB01BC018A819B81DF91CF91FF90BF
:10073000EF90DF90CF900C94820E60E088E10E94F1
:100740004B3D60E08AE10E944B3D60E08CE10E94FD
:100750004B3D60E08EE1DF91CF91FF90EF90DF9015
:10076000CF900C944B3DDF91CF91FF90EF90DF90B5
:10077000CF900895CF92DF92EF92FF92CF93DF93C5
:10078000EC018A819B810E947D0E882311F18A8170
:100790009B810E94510E18161906DCF48A819B81F8
:1007A0000E945D0E6B017C018A819B810E94510E2B
:1007B000BC01882777FD8095982F0E94993F9B0167
:1007C000AC01C701B6010E94FA40181614F461E0AA
:1007D00001C060E08A819B81DF91CF91FF90EF9013
:1007E000DF90CF900C9406100F931F93CF93DF935D
:1007F000EC0180E40E94993C8C018A819B810E94DB
:10080000210E081719074CF08A819B810E94150E52
:100810008017910714F060E001C061E08A819B813C
:100820000E946F0F81E40E94993C8C018A819B8118
:100830000E94330E081719073CF08A819B810E94A1
:10084000270E8017910714F461E001C060E08A81EF
:100850009B810E947E0F82E40E94993C8C018A81D8
:100860009B810E94450E081719073CF08A819B81E5
:100870000E94390E8017910714F461E001C060E016
:100880008A819B81DF91CF911F910F910C948D0FE5
:1008900027E132E0FC0131832083089527E132E033
:1008A000FC01318320830C94943B2F923F924F9212
:1008B0005F926F927F928F929F92AF92BF92CF92F0
:1008C000DF92EF92FF920F931F93CF93DF93CDB7F9
:1008D000DEB728970FB6F894DEBF0FBECDBF1C0160
:1008E0006A017B0109831A832B833C83FC0182818B
:1008F00093810E947C0C9B01AC01C701B6010E9450
:10090000313E2B013C01F101828193810E947C0CDC
:100910009B01AC01C701B6010E94303E4B015C0156
:10092000F101828193810E947C0C9B01AC01698161
:100930007A818B819C810E94313E6B017C01F101A7
:10094000828193810E947C0C9B01AC0169817A8138
:100950008B819C810E94303E69837A838B839C8348
:10096000F101828193810E94820C6D837E838F834B
:10097000988724E83AEB4CE358E3C301B2010E94A4
:10098000303E2D813E814F8158850E94FA401816D5
:100990006CF4F101828193810E946E0C9B01AC0189
:1009A000C301B2010E94F73E87FD8CC0F101828134
:1009B00093810E946E0C2B013C0124E83AEB4CE33E
:1009C00058E3C501B4010E94313EA30192010E9487
:1009D000F73E87FF0EC0F101828193810E94820C55
:1009E0009B01AC01C501B4010E94FA4018160CF439
:1009F00071C0F101828193810E94880C4B015C01DE
:100A000024E83AEB4CE358E3C701B6010E94303EBC
:100A1000A50194010E94FA4018166CF4F10182813C
:100A200093810E94520C9B01AC01C701B6010E9448
:100A3000F73E87FD57C0F101828193810E94520CDD
:100A40006B017C0124E83AEB4CE358E369817A813D
:100A50008B819C810E94313EA70196010E94F73E46
:100A600087FF48C0F101828193810E94880C9B011D
:100A7000AC0169817A818B819C810E94FA401816B1
:100A8000CCF549815A816B817C81F101828193810E
:100A900028960FB6F894DEBF0FBECDBFDF91CF9181
:100AA0001F910F91FF90EF90DF90CF90BF90AF908C
:100AB0009F908F907F906F905F904F903F902F907E
:100AC0000C94D20EB301A201F101828193810E94A4
:100AD000B80E6CCFB501A401F101828193810E940F
:100AE000CC0E87CFB701A601F101828193810E94CC
:100AF0009C0EA1CF28960FB6F894DEBF0FBECDBFD7
:100B0000DF91CF911F910F91FF90EF90DF90CF90E9
:100B1000BF90AF909F908F907F906F905F904F901D
:100B20003F902F9008958F929F92AF92BF92CF9255
:100B3000DF92EF92FF920F931F93CF93DF93EC011D
:100B40006A017B014801590140E050E064EB72E426
:100B50008A819B810E94B80E40E050E064EB72EC09
:100B60008A819B810E94CC0E40E050E064E373E4F4
:100B70008A819B810E949C0E40E050E064E373EC0C
:100B80008A819B810E94D20E8A819B810E94740C73
:100B90002DE93BEF46E157E30E940541AB01BC0163
:100BA0008A819B810E94C60E95018401B701A6012E
:100BB000CE010E945504DF91CF911F910F91FF90BC
:100BC000EF90DF90CF90BF90AF909F908F9008955F
:100BD000CF92DF92EF92FF920F931F93CF93DF9309
:100BE000EC018B0187E192E0998388837B836A83A0
:100BF000CB010E94600C6B017C01C8010E94580C63
:100C0000AB01BC0197018601CE010E949305DF91E3
:100C1000CF911F910F91FF90EF90DF90CF900895AB
:100C20004F925F926F927F928F929F92AF92BF92FC
:100C3000CF92DF92EF92FF920F931F93CF93DF93A8
:100C400000D000D0CDB7DEB74C01FC01828193818A
:100C50000E94730E882309F4D2C00E94E03B2B014E
:100C60003C01F401828193810E94E40D461A570AE7
:100C7000680A790AF1EE4F16F3E95F06F4E06F06B1
:100C8000710438F0F401828193810E94730E811106
:100C90008DC0F401828193810E94040E882309F49F
:100CA000AEC0F401828193810E94F40D5B016C015E
:100CB000F401828193810E94EC0D2B013C01F4012F
:100CC000828193810E94600C9B01AC01F4018281BE
:100CD000938129833A834B835C830E94580C830160
:100CE000720129813A814B815C810E948416AB019B
:100CF000BC01F401828193810E94960EF4018281ED
:100D000093810E944C0C2B013C01F4018281938160
:100D10000E94680C9B01AC01C301B2010E94FA4021
:100D2000181664F4F401828193810E944C0CAB018B
:100D3000BC01F401828193810E94B20EF401828190
:100D400093810E94F40D2B013C01F4018281938177
:100D50000E94EC0DAB01BC0193018201C4010E9411
:100D60005504F401828193810E94730E882369F1F6
:100D7000F401828193810E944C0C2B013C01F4010F
:100D8000828193810E94740C9B01AC01C301B2016A
:100D90000E94FA401816CCF440E050E0BA01F40189
:100DA000828193810E94880E61E010C040E050E093
:100DB000BA01F401828193810E94880E61E0F401FE
:100DC000828193810E94930E64CF60E0F40182815E
:100DD00093810F900F900F900F90DF91CF911F9103
:100DE0000F91FF90EF90DF90CF90BF90AF909F90CA
:100DF0008F907F906F905F904F900C94930E0F9018
:100E00000F900F900F90DF91CF911F910F91FF9056
:100E1000EF90DF90CF90BF90AF909F908F907F909A
:100E20006F905F904F900895CF93DF93EC018A818C
:100E30009B810E94EC0DAB01BC018A819B810E94C9
:100E4000A20E8A819B810E94F40DAB01BC018A81B4
:100E50009B810E94AA0E40E050E0BA018A819B81EA
:100E6000DF91CF910C94B20E0F931F93CF93DF932A
:100E7000EC018B0181960E94F61F18A30F8FDF9162
:100E8000CF911F910F9108958F929F92AF92BF9231
:100E9000CF92DF92EF92FF920F931F93CF93DF9346
:100EA000CDB7DEB7E7970FB6F894DEBF0FBECDBF64
:100EB0004C01FC01168E158E148E138E878D90A119
:100EC0000E946710AB01BC018BEF93E00E942429C4
:100ED00064E670E080E090E00E940F3CF401878DB2
:100EE00090A10E94940C20E030E044E354E40E947E
:100EF000313E6B017C01F4016083718382839383B3
:100F0000878D90A10E948F0D9B01AC01C701B60196
:100F10000E94313EF4016483758386839783878DB5
:100F200090A10E948E0CF40160877187828793875D
:100F300081E0808BA401485F5F4FB4016C5F7F4FFD
:100F40001F928F938FE38F9385E08F938EE18F9322
:100F500088EB8F938AE0A82E87EDB82E83EAC82EFF
:100F60008DE3D82E16E6E12EFE2C06EE1EE394014C
:100F7000CE0101960E942C2387E3FE013196D40115
:100F8000919601900D928A95E1F7F1E28F0E911CF6
:100F900000E010E024E832E440E050E0BA01C4018F
:100FA0000E94142264E670E0C4010E94CC210F90DC
:100FB0000F900F900F900F900F90E7960FB6F89448
:100FC000DEBF0FBECDBFDF91CF911F910F91FF907C
:100FD000EF90DF90CF90BF90AF909F908F9008954B
:100FE000089540E063E48BEF93E00E94B3276BEF3A
:100FF00073E086ED93E00E94FF2D20E841E366ED6B
:1010000073E084EB93E00C947A2984EB93E00C94E6
:10101000BA290F931F93CF93DF93EC018C010F5EDE
:101020001F4F8BEF93E00E947128892B21F18BEFEA
:1010300093E00E946C282D8D3E8DFE01E20FF31F80
:10104000818B2F5F3F4F3E8F2D8F8A3029F08D305F
:1010500019F0213331052CF3FE01E20FF31F118A41
:10106000B8018EEE9BE00E94BB371E8E1D8EF801EC
:1010700011821082D6CFDF91CF911F910F910895E9
:101080004F925F926F927F92AF92BF92CF92DF9218
:10109000EF92FF920F931F93CF93DF9300D000D076
:1010A00000D0CDB7DEB75C01FC01878D90A10E9416
:1010B000F00F85010F5D1F4F882309F4DEC0C501C5
:1010C0000E94090861E070E0C8010E94DA22F5017F
:1010D000878D90A10E94940C20E030E044E354E41A
:1010E0000E94313E6B017C01F50160837183828334
:1010F0009383878D90A10E948F0D9B01AC01C70146
:10110000B6010E94313EF50164837583868397831F
:10111000C8010E94F71FF50124853585468557854E
:1011200060857185828593850E94303E6B017C01CC
:1011300020E030E0A9010E94FA40181624F0F7FAE6
:10114000F094F7F8F094F501878D90A10E94D00DEE
:10115000BC01882777FD8095982F0E94993F9B01BD
:10116000AC01C701B6010E94FA4018160CF09EC0EF
:10117000F5018089078D10A1C084D184E284F384B5
:101180004484558466847784A3019201882309F1FD
:10119000C701B6010E94FA4018160CF1A301920192
:1011A000C701B6010E94F73E87FF3FC0F501108AD4
:1011B000C8010E94D60DBC01882777FD8095982F25
:1011C0000E94993F9B01AC01C701B6010E94303ECD
:1011D00027C0C701B6010E94F73E87FF06C0F50190
:1011E000C486D586E686F78620C0A3019201C70192
:1011F000B6010E94FA401816C4F481E0F501808B14
:10120000C8010E94D60DBC01882777FD8095982FD4
:101210000E94993F9B01AC01C701B6010E94313E7B
:10122000F5016487758786879787F501448555851D
:1012300066857785878D90A10E94070FF501878DC0
:1012400090A10E94DC0D2B013C0120E030E048EC35
:1012500052E4F50164857585868597850E94054170
:101260000E94663FAB01BC01E12CF12C930182018D
:1012700084EB93E00E94392C19C060E070E0C80153
:1012800026960FB6F894DEBF0FBECDBFDF91CF918B
:101290001F910F91FF90EF90DF90CF90BF90AF9094
:1012A0007F906F905F904F900C94DA2226960FB645
:1012B000F894DEBF0FBECDBFDF91CF911F910F918C
:1012C000FF90EF90DF90CF90BF90AF907F906F90A6
:1012D0005F904F9008950F931F93FC01108211822D
:1012E000128213821482158216821782108A118A42
:1012F000128A138A148A158A168A178A108E118EFA
:10130000128E138E148E40E050E064EB72E4458F31
:10131000568F678F70A340E050E064EB72EC41A3FE
:1013200052A363A374A340E050E064E373E445A3D5
:1013300056A367A370A740E050E064E373EC41A7B5
:1013400052A763A774A715A683E482AB13AA14AAB5
:1013500015AA16AA40E050E064E072E447AB50AF33
:1013600061AF72AF13AE40E050E068EC72E444AF9E
:1013700055AF66AF77AFDF01A05CBF4F40E050E0F4
:1013800060E271E44D935D936D937C931397149693
:101390004D935D936D937C931397149640E850E0C2
:1013A00060E070E04D935D936D937C93139710868E
:1013B000118612861386148615861686178614964D
:1013C0001C9211961D921D921D921C9213971496B9
:1013D0001D921D921D921C921397149686E58C9374
:1013E00011961D921D921D921C92139714961D9298
:1013F0001D921D921C92139714961D921D921D9280
:101400001C92139714961D921D921D921C92139775
:1014100014961C9211961C9211961C9211961C9275
:10142000A55ABF4F21E034E011963C932E931296BB
:101430008FEF9FEF11969C938E93AC55B1091C9240
:10144000A25ABF4F11963C932E93129611969C93DD
:101450008E93AF55B1091C92AF59BF4F11963C9373
:101460002E93129611969C938E93A256B1091D92BB
:101470001D921D921C92139714961D921D921D92FF
:101480001C921397149611961C921E921296119606
:101490001C921E92129611961C921E9212961C92EB
:1014A00011961D921D921D921C92139714961D92D7
:1014B0001D921D921C921397149640E050E060E23A
:1014C00072E44D935D936D937C93139714961C92E5
:1014D00011961C92119611961C921E9212961196BC
:1014E0001C921E92169640E050E060E87FE34D9318
:1014F0005D936D937C93139714961C92119640EE16
:1015000053E964E070E04D935D936D937C93139782
:1015100014961C9211961C92119683E690E01196F7
:101520009C938E9312961C92119640E050E46CE1CD
:1015300076E44D935D936D937C9313971496119677
:101540001C921E92129611961C921E92129640E0C8
:1015500056E960E070E04D935D936D937C93139733
:10156000149600EC12E120E030E00D931D932D93D2
:101570003C931397149640E855E260E070E04D9379
:101580005D936D937C93139714964D935D936D9338
:101590007C93139714964D935D936D937C9313975F
:1015A00014960D931D932D933C93139714964D937E
:1015B0005D936D937C93139714961C92E053FF4FA9
:1015C0008DE090E0918380831F910F9108950F9398
:1015D0001F93CF93DF938C01EB0160EC71E0CE01A0
:1015E0000E94673762EB71E0CE010E9467376CEAB8
:1015F00071E0CE010E946737F801ED55FF4F608121
:1016000071814AE050E0CE010E94703866EA71E0D4
:10161000CE010E946737F801EB55FF4F6081718161
:101620004AE050E0CE010E94703860EA71E0CE01DD
:101630000E946737F801E955FF4F4081518162816F
:1016400073812AE030E0CE010E9426386AE971E019
:10165000CE010E946737F801E555FF4F4081518167
:10166000628173812AE030E0CE010E94263864E96D
:1016700071E0CE010E946737F801E155FF4F4081CC
:101680005181628173812AE030E0CE010E942638C8
:101690006EE871E0CE010E946737F801ED54FF4F0C
:1016A00040815181628173812AE030E0CE010E9445
:1016B000263868E871E0CE010E946737F801ED53E3
:1016C000FF4F608170E04AE050E0CE010E94703828
:1016D00062E871E0CE010E946737F801EC53FF4FDA
:1016E000608171814AE050E0CE010E9470386CE761
:1016F00071E0CE010E946737F801EA53FF4F608125
:1017000071814AE050E0CE010E94703866E771E0D6
:10171000CE010E946737F801E853FF4F6081718165
:101720004AE050E0CE010E94703860E771E0CE01DF
:101730000E946737F801E653FF4F608171814AE0EC
:1017400050E0CE010E9470386AE671E0CE010E943E
:101750006737F801E453FF4F608171814AE050E040
:10176000CE010E94703864E671E0CE010E946737B6
:10177000F801E253FF4F608171814AE050E0CE01F1
:101780000E94703862E671E0CE010E94A93780E0C5
:1017900090E0DF91CF911F910F9108950F931F93C8
:1017A000CF93DF93EC01FC01E053FF4F408160E0F9
:1017B00070E08CE29BE00E943230FE01EF52FF4F5E
:1017C000408161E070E08CE29BE00E943230C558BD
:1017D000DF4F64E070E049918B010F5F1F4F8CE297
:1017E0009BE00E9432300935110511F0B801F3CFAA
:1017F000DF91CF911F910F910895EF92FF920F9378
:101800001F93CF93DF9300D0CDB7DEB78C0160E09C
:1018100070E08CE29BE00E942F30898361E070E0F1
:101820008CE29BE00E942F308A83F801E053FF4F47
:1018300029813A81808191812817390719F0C801DF
:101840000E94CE0B05581F4F64E070E07B018FEFC4
:10185000E81AF80A8CE29BE00E942F30F80181938D
:101860008F01F9E5EF16F10411F0B701EFCF0F90FA
:101870000F90DF91CF911F910F91FF90EF900895FE
:10188000FC0160817181828193810895FC016481F2
:101890007581868197810895FC016489758986899F
:1018A00097890895FC0165A176A187A190A5089567
:1018B00085589F4FFC0160817181828193810895D9
:1018C00081589F4FFC0160817181828193810895CD
:1018D000FC01608D718D828D938D0895FC01658D65
:1018E000768D878D90A108958D579F4FFC01608163
:1018F0007181828193810895FC0160897189828957
:1019000093890895FC0161A172A183A194A1089516
:10191000FC0161A572A583A594A50895FC0167A9A2
:1019200070AD81AD92AD0895FC0163A974A985A93C
:1019300096A90895FC0122A9273559F4EA58FF4FCA
:1019400060817181882777FD8095982F0E94993F4B
:101950000895FC0160857185828593850895EF92D5
:10196000FF920F931F93CF93DF938C01EB016DE1F7
:1019700072E0CE010E9467376FE072E0CE010E94F4
:101980006737F80165A570E04AE050E0CE010E949B
:10199000703869E072E0CE010E946737F80162A9F1
:1019A000CE010E948E37F80185A58823A9F163E056
:1019B00072E0CE010E946737F80143A954A965A9D6
:1019C00076A922E030E0CE010E9489396DEF71E006
:1019D000CE010E946737C8010E949A0CAB01BC017E
:1019E00022E030E0CE010E94893967EF71E0CE013C
:1019F0000E94673720E030E044E052E4F80167A934
:101A000070AD81AD92AD0E94303EAB01BC0122E0D1
:101A100030E0CE010E94893961EF71E0CE010E9471
:101A200067377801F7E8EF0EF11CF701608170E08D
:101A30004AE050E0CE010E9470386BEE71E0CE01BA
:101A40000E946737F801ED57FF4F40815181628155
:101A5000738122E030E0CE010E948939F701808154
:101A6000882389F165EE71E0CE010E946737F801A5
:101A7000E558FF4F408151816281738122E030E05F
:101A8000CE010E9489396FED71E0CE010E94673767
:101A9000F801E158FF4F408151816281738122E05A
:101AA00030E0CE010E94893969ED71E0CE010E94DB
:101AB0006737F801448955896689778922E030E0E3
:101AC000CE010E94893963ED71E0CE010E94673733
:101AD000F801E256FF4F608170E04AE050E0CE012D
:101AE0000E9470386DEC71E0CE010E946737F801FA
:101AF000E456FF4F608171814AE050E0CE010E94C0
:101B000070386BEC71E0CE010E94A93780E090E064
:101B1000DF91CF911F910F91FF90EF900895CF9299
:101B2000DF92EF92FF92CF93DF93EC010E949A0C29
:101B30009B01AC016BA97CA98DA99EA90E94303E96
:101B40006B017C0120E030E044E353E40E94FA4062
:101B500018167CF020E030E044E353ECC701B601F6
:101B60000E94F73E87FF0AC020E030E044EB53E4D8
:101B700008C020E030E044EB53EC03C020E030E04C
:101B8000A901C701B6010E94313E6EA77FA788ABAD
:101B900099ABDF91CF91FF90EF90DF90CF900895B8
:101BA00087579F4FFC0180819181089585579F4FF2
:101BB000FC0180819181089583579F4FFC016081D2
:101BC0007181828193810895835B9F4FFC016081C5
:101BD00071818281938108958A5A9F4FFC016081AF
:101BE0007181828193810895865A9F4FFC016081A3
:101BF00071818281938108958F569F4FFC0160818E
:101C000071818281938108958B5A9F4FFC0180815D
:101C10000895FC0160857185828593850895FC0196
:101C2000648575858685978508958C539F4FFC0143
:101C30008081918108958C539F4FFC017183608353
:101C400008958A539F4FFC018081918108958853A4
:101C50009F4FFC0180819181089588539F4FFC0123
:101C600071836083089586539F4FFC018081918129
:101C7000089584539F4FFC0180819181089584537E
:101C80009F4FFC0171836083089582539F4FFC0135
:101C90008081918108958D559F4FFC0180819181B4
:101CA000089584569F4FFC018081918108958A5840
:101CB0009F4FFC0180819181089580599F4FFC01C5
:101CC0006081718182819381089581569F4FFC01CB
:101CD000608171818281938108958C589F4FFC01AE
:101CE00080819181089589579F4FFC0180810895DB
:101CF000845B9F4FFC018081089582569F4FFC01B9
:101D000080810895FC014083518362837383089529
:101D1000FC014483558366837783089589579F4FD9
:101D2000FC0160830895FC01648F0895FC01448BDD
:101D3000558B668B778B0895FC0145A356A367A34B
:101D400070A7089585589F4FFC014083518362839B
:101D50007383089581589F4FFC01408351836283B0
:101D600073830895FC01408F518F628F738F0895A4
:101D7000FC01458F568F678F70A308958D579F4F35
:101D8000FC0140835183628373830895FC01408B7F
:101D9000518B628B738B0895FC0141A352A363A303
:101DA00074A30895FC0141A752A763A774A70895DF
:101DB000CF93DF93EC01673511F0633429F56AABFB
:101DC000673581F4FE01EA58FF4F608171818827F1
:101DD00077FD8095982F0E94993F6BAB7CAB8DABC4
:101DE0009EAB0AC0633441F4488559856A857B857A
:101DF0004BAB5CAB6DAB7EAB40E050E064E072E4BB
:101E00004FAB58AF69AF7AAFDF91CF910895FC0126
:101E100047AB50AF61AF72AF0895CF93DF93EC0142
:101E2000CB01BA010E94663FCB0188599E4F68E6FC
:101E300071E00E94EB41BC01882777FD8095982FC7
:101E40000E94993F6BAB7CAB8DAB9EABDF91CF918A
:101E500008958E599F4FFC014083518362837383A1
:101E60000895845B9F4FFC0160830895835B9F4FBF
:101E7000FC01408351836283738308958A5A9F4F84
:101E8000FC0140835183628373830895865A9F4F78
:101E9000FC0140835183628373830895825A9F4F6C
:101EA000FC01408351836283738308958B5A9F4F53
:101EB000FC01608308958F5A9F4FFC01408351833A
:101EC000628373830895FC0140875187628773871B
:101ED0000895FC0144875587668777870895CF93D7
:101EE000DF931F92CDB7DEB76983298187599F4F52
:101EF000FC0120830F90DF91CF910895CF93DF9362
:101F00001F92CDB7DEB76983298186599F4FFC01A7
:101F100020830F90DF91CF910895CF93DF931F928D
:101F2000CDB7DEB76983298185599F4FFC01208396
:101F30000F90DF91CF9108958D559F4FFC017183D4
:101F40006083089582569F4FFC01608308958456F4
:101F50009F4FFC017183608308958A589F4FFC0155
:101F600071836083089588589F4FFC01718360835B
:101F7000089580599F4FFC0140835183628373838E
:101F8000089584599F4FFC0140835183628373837A
:101F90000895FC01E658FF4F20812223F9F0739742
:101FA00020812223D9F0319720812223B9F0FC012E
:101FB000248D222399F023AD222381F0E859FF4F8D
:101FC0002081222359F031962081222339F0319645
:101FD0002081222319F031968081089580E00895B0
:101FE000FC0185A508951F93CF93DF93EC01162F75
:101FF0006AA90E94D80E1DA7DF91CF911F91089565
:102000008C589F4FFC0171836083089586589F4FC1
:10201000FC01608308958B559F4FFC018081918165
:1020200008958B559F4FFC017183608308958955F6
:102030009F4FFC0160817181828193810895895550
:102040009F4FFC01408351836283738308958555BC
:102050009F4FFC0160817181828193810895855534
:102060009F4FFC01408351836283738308958155A0
:102070009F4FFC0160817181828193810895815518
:102080009F4FFC01408351836283738308958D5475
:102090009F4FFC01608171818281938108958D54ED
:1020A0009F4FFC0140835183628373830895895459
:1020B0009F4FFC01608171818281938108958554D5
:1020C0009F4FFC01608171818281938108958154C9
:1020D0009F4FFC01608171818281938108958D53AE
:1020E0009F4FFC01808108958D539F4FFC016083B9
:1020F000089581E08093B20A8091B00A9091B10A6C
:1021000001969093B10A8093B00A8091B00A9091A1
:10211000B10A64E170E00E94EB419093B10A8093B0
:10212000B00A08958DEF94E00C947A1C8DEF94E042
:102130000C94B61C62E086E00E94123D61E087E0EC
:102140000E94123D60E087E00E944B3D8EED99E0D9
:102150000E94FD0B8EED99E00E941710AB01BC01AF
:1021600026E08EEE9BE00E94F73386E00E94813DE0
:102170008130910521F490930702809306028EED41
:1021800099E00E946F10882331F027E040EC52E183
:1021900060E070E007C08EED99E00E943710AB015F
:1021A000BC0126E088E29DE00E94F7338EED99E0C5
:1021B0000E944710AB01BC0126E085EC9DE00E9427
:1021C000F73368EE73E080E090E00E940F3C61E03E
:1021D00083E40E94123D6DE372E08EEE9BE00E946C
:1021E000A93764E670E080E090E00E940F3C61E077
:1021F00083E40E944B3D68E272E08EEE9BE00E9419
:10220000A9378EED99E00E945710AB01BC0189EE11
:1022100094E00E94242964E670E080E090E00E944F
:102220000F3C60E080E30E94123D61E08EE20E947C
:10223000123D8EED99E00E945F10AB01BC018DE96B
:1022400099E00E94ED1981E994E00E94440760E062
:1022500083E00E94123D43E050E062E970E181E0DA
:102260000E948B3960E082E00E94123D43E050E022
:1022700066E970E180E00E948B3949E750E164E64D
:1022800070E080E090E00E94942F0C94A02F6F9259
:102290007F928F929F92AF92BF92CF92DF92EF92F6
:1022A000FF920F931F93CF93DF9300D000D01F9224
:1022B000CDB7DEB7ADB6BEB66DE673E00E94E843BB
:1022C0007C01009709F428C2FC0101900020E9F785
:1022D0008F0101501109081B190B0430110508F476
:1022E0001BC2F701808198012450310969018DB624
:1022F0009EB6833209F0ADC144E050E0B701CE0193
:1023000001960E9405441D82380135E0631A710868
:102310008DB79EB78C199D090FB6F8949EBF0FBE5E
:102320008DBF0DB71EB70F5F1F4FB7016B5F7F4F9C
:10233000A301C8010E94EC43F801E60DF71D1082CD
:102340006BE172E0CE0101960E94F543892BB1F456
:10235000C8010E94A34361E0892B09F460E08EED7F
:1023600099E00E948E0EC8010E94A343019709F0D4
:10237000CEC18DE894E00E941407C9C160E272E00A
:10238000CE0101960E94F543892BB1F48EED99E0C0
:102390000E94740C6B017C01C8010E949F439B0149
:1023A000AC01C701B6010E94313EAB01BC018EED0C
:1023B00099E00E94BE0EABC165E272E0CE010196CB
:1023C0000E94F543892B51F4C8010E949F43AB0141
:1023D000BC018EED99E00E94A20E99C16AE272E002
:1023E000CE0101960E94F543892B51F4C8010E9449
:1023F0009F43AB01BC018EED99E00E94AA0E87C1FC
:102400006FE272E0CE0101960E94F543892B61F4E0
:10241000C8010E94A34361E0892B09F460E08EEDBE
:1024200099E00E94F30F69C164E372E0CE01019666
:102430000E94F543892BC1F48EED99E00E94940C23
:102440006B017C01C8010E94C1430E94993F9B011E
:10245000AC01C701B6010E94313EAB01BC018EED5B
:1024600099E00E940D0F49C169E372E0CE01019627
:102470000E94F543892B39F4F80160818EED99E0D3
:102480000E94D80E3AC16EE372E0CE0101960E941E
:10249000F543892B61F4C8010E94A34361E0892BB5
:1024A00009F460E08EED99E00E94A20F30C163E470
:1024B00072E0CE0101960E94F543892B49F4C801D0
:1024C0000E94A343BC018EED99E00E94A70F1FC19B
:1024D00068E472E0CE0101960E94F543892B49F42D
:1024E000C8010E94A343BC018EED99E00E949C0F9D
:1024F0000EC16DE472E0CE0101960E94F543892B76
:1025000049F4C8010E94A343BC018EED99E00E94EA
:102510001B0EFDC062E572E0CE0101960E94F543FC
:10252000892B49F4C8010E94A343BC018EED99E0B8
:102530000E942D0EECC067E572E0CE0101960E946C
:10254000F543892B49F4C8010E94A343BC018EEDD9
:1025500099E00E943F0EDBC06CE572E0CE0101966F
:102560000E94F543892B39F46EEE7BE08EED99E005
:102570000E94E70AC2C061E672E0CE0101960E94A5
:10258000F543892B49F4C8010E94A343BC018EED99
:1025900099E00E941110BBC066E672E0CE01019680
:1025A0000E94F543892B51F4C8010E94C143AB013D
:1025B000BC018EED99E00E941F10A9C06BE672E08D
:1025C000CE0101960E94F543892B51F4C8010E9467
:1025D000C143AB01BC018EED99E00E942F1097C062
:1025E00060E772E0CE0101960E94F543892B51F419
:1025F000C8010E94C143AB01BC018EED99E00E946D
:102600003F1085C065E772E0CE0101960E94F54358
:10261000892B51F4C8010E94C143AB01BC018EED6E
:1026200099E00E944F1073C06AE772E0CE010196F4
:102630000E94F543892B09F060C0C8010E94A343A2
:1026400061E0892B09F460E08EED99E00E9474103E
:102650005EC043E050E0B701CE0101960E94054400
:102660001C82035011092DB73EB7201B310B0FB64A
:10267000F8943EBF0FBE2DBF0DB71EB70F5F1F4FA3
:10268000B7016C5F7F4FA601C8010E94EC43F801BF
:10269000EC0DFD1D10826FE772E0CE0101960E94E5
:1026A000F543892B49F4C8010E949F43AB01BC014B
:1026B0008EED99E00E94630F63E872E0CE0101960F
:1026C0000E94F543892B49F4C8010E949F43AB0146
:1026D000BC018EED99E00E94690F67E872E0CE01BF
:1026E00001960E94F543892B41F4C8010E94A3433F
:1026F000BC018EED99E00E94B30F0FB6F8949EBE18
:102700000FBE8DBE6DE673E080E090E0D7CD8EED1C
:1027100099E00E94CE0BF1CF0FB6F894BEBE0FBE6B
:10272000ADBE0F900F900F900F900F90DF91CF9153
:102730001F910F91FF90EF90DF90CF90BF90AF90DF
:102740009F908F907F906F900895CF93DF93DC01DF
:10275000FC0101900020E9F7E81BF90B3297EC012E
:10276000219680E09E012A1B3B0B2E173F0718F491
:1027700099918927F7CFDF91CF9108951F93CF9338
:10278000DF93CFE0D4E014E68EEE9BE00E948C3223
:10279000892B61F18EEE9BE00E94A73220910D04FF
:1027A00030910E04F901E15FFB4F80832F5F3F4FB3
:1027B00030930E0420930D048A3029F08D3019F0E7
:1027C000233631050CF3F901E15FFB4F10826CE217
:1027D0008FE094E00E94471110920E0410920D04B5
:1027E000FE01812F11928A95E9F7CECFDF91CF912B
:1027F0001F9108958091060290910702892B29F577
:102800008BE89CE00E948C32892BF9F08BE89CE0ED
:102810000E94A732682F87EF94E00E946B17809385
:102820000C04882339F384E398E00E943124BC012E
:102830008DE999E00E94FE1984E398E00E9431241A
:10284000BC018EEE9BE00C94BB37089588E29DE0BE
:102850000E948C32892B79F18EED99E00E946F10E5
:10286000882351F088E29DE00E94A732682F83E719
:1028700094E00E94291BEACF88E29DE00E94A732E3
:10288000682F8CE996E00E94641980930B048823DA
:10289000E9F28CE996E00E94CD19BC018DE999E03E
:1028A0000E94FE198CE996E00E94CD19BC018EEEC3
:1028B0009BE00C94BB37089585EC9DE00E948C3220
:1028C000892BF9F085EC9DE00E94A732682F80EDFE
:1028D00095E00E94641980930A04882369F380EDCF
:1028E00095E00E94CD19BC018DE999E00E94FE1986
:1028F00080ED95E00E94CD19BC018EEE9BE00C941A
:10290000BB37089589EE94E00E947128892BF9F075
:1029100089EE94E00E946C28682F84E095E00E9484
:10292000641980930904882369F384E095E00E9488
:10293000CD19BC018DE999E00E94FE1984E095E073
:102940000E94CD19BC018EEE9BE00C94BB3708951C
:102950008091B20A882309F455C081E994E00E946D
:1029600040088091B00A9091B10A8091B00A90918C
:10297000B10A65E070E00E94EB41892B71F48DEFA4
:1029800094E00E94131D8FEF94E00E945D036EEEB1
:102990007BE08EED99E00E94AF0C8091B00A90919F
:1029A000B10A6AE070E00E94EB41892B49F58DEF96
:1029B00094E00E94151E8DE999E00E94001A8DE8AE
:1029C00094E00E9410068FEF94E00E94BA038FEF0C
:1029D00094E00E94F4038DE999E00E94801A8091AE
:1029E000060290910702019759F463E170E087EFC6
:1029F00094E00E94A415161617061806190624F06E
:102A00001092B20A0C9482141092070210920602DD
:102A100087EF94E00E942319F3CF8EED99E00E9496
:102A20006B091092A00910929F0988EE93E0A0E034
:102A3000B0E08093A1099093A209A093A309B09359
:102A4000A40989E992E090939E0980939D098EEDF7
:102A500099E09093AA098093A90960E070E084E36B
:102A600098E00E94A72360E070E088E697E00E946B
:102A70005B1960E070E08CE996E00E945B1960E011
:102A800070E080ED95E00E945B1960E070E084E00A
:102A900095E00E945B196EED79E08FEF94E00E9463
:102AA00015036EED79E08DEF94E00E943A1B4EED38
:102AB00059E064E378E087EF94E00E949A1541E0E2
:102AC00063E489EE94E00E94B3276EED79E081E93A
:102AD00094E00E9434076EED79E08DE894E00E9466
:102AE000E8054EED59E068E27DE083E794E00C9460
:102AF000211B8DE894E00E94480481E994E00E9443
:102B0000F00787EF94E00E948D158FEF94E00E940C
:102B100008038DE999E00C94D81921E932E0FC0111
:102B200031832083089521E932E0FC013183208341
:102B30000C94943BFC0181E992E09183808355835E
:102B40004483738362830895CF92DF92EF92FF9262
:102B50001F93CF93DF93162F60E0812F0E94123DC9
:102B600061E0812F0E944B3DC5E0D0E080E1C82E9E
:102B700087E2D82EE12CF12C28E438EE41E050E039
:102B800060E0812F0E94AA3D161617061806190646
:102B90003CF46C157D058E059F0514F46B017C01DA
:102BA000219751F7C701B601DF91CF911F91FF9097
:102BB000EF90DF90CF900895CF92DF92EF92FF9247
:102BC0000F931F93CF93DF93EC016AEC73E08EEECB
:102BD0009BE00E94673763E170E0CE010E94A4157C
:102BE0006B017C0163E170E0CE010E94A415C60E6A
:102BF000D71EE81EF91E63E170E0CE010E94A41505
:102C00006C0D7D1D8E1D9F1D23E030E040E050E0E7
:102C10000E9421422C3031054105510594F12431A7
:102C20003105410551058CF12E3131054105510524
:102C30007CF128323105410551056CF12C33310509
:102C4000410551055CF120353105410551054CF137
:102C500026393105410551053CF12C3281E0380718
:102C60004105510524F1283582E038074105510519
:102C70000CF1203B3440410551059CF500EB14E07C
:102C80001BC000E012ECD1E018C000E011EE14C04F
:102C900000E016E911C000E810E70EC000E01BE4F8
:102CA0000BC000E418E308C000E815E205C000EC22
:102CB00012E102C000E619E0D0E0C0E063EC73E08E
:102CC0008EEE9BE00E9467372AE030E0A8016D2F6E
:102CD0007C2F8EEE9BE00E947838B8018D2F9C2FC0
:102CE0000AC06CEB73E08EEE9BE00E94673760ECED
:102CF00072E180E090E0DF91CF911F910F91FF9002
:102D0000EF90DF90CF9008954F925F926F927F92F5
:102D10008F929F92AF92BF92CF92DF92EF92FF92EB
:102D20000F931F93CF93DF93CDB7DEB760970FB6A6
:102D3000F894DEBF0FBECDBF69837A838B839C83FB
:102D4000CA01B90127013801A60195010E94303E50
:102D500025E33AEF4EE85CE30E9405416B017C01FC
:102D60000E9468416D877E878F87988BC701B60167
:102D70000E94FB3E6D837E838F83988725E33AEF25
:102D80004EE85CE369817A818B819C810E940541D8
:102D90006B017C0125E33AEF4EE85CE3C301B2012D
:102DA0000E9405412B013C01C701B6010E94684108
:102DB0004B015C01C701B6010E94FB3E69837A8327
:102DC0008B839C83C301B2010E94684169877A8723
:102DD0008B879C87C301B2010E94FB3E6B017C0183
:102DE00029853A854B855C8569817A818B819C81B7
:102DF0000E9405412B013C01A7019601C501B401C8
:102E00000E9405412D813E814F8158850E940541D8
:102E10009B01AC01C301B2010E94303E9B01AC0199
:102E20000E9405412B013C012D853E854F85588927
:102E3000C701B6010E9405419B01AC010E940541FA
:102E40009B01AC01C301B2010E94313E0E9472415C
:102E50002B013C0129853A854B855C85C501B40170
:102E60000E9405414B015C01A701960169817A81AD
:102E70008B819C810E9405412D813E814F81588527
:102E80000E9405419B01AC01C501B4010E94313E85
:102E90009B01AC01C301B2010E94A43E26E73BE7BF
:102EA00042EC5AE40E94054160960FB6F894DEBFEA
:102EB0000FBECDBFDF91CF911F910F91FF90EF908B
:102EC000DF90CF90BF90AF909F908F907F906F904A
:102ED0005F904F900895CF93DF93EC018A819B819F
:102EE0000E94D02461E0892B09F460E08C819D81EF
:102EF0000E94310F8C819D810E94780E882369F198
:102F00008A819B810E940824682F8C819D810E9468
:102F1000560F8A819B810E9408248134F1F460E07D
:102F200070E08A819B810E943324FC01828182357A
:102F3000A1F060E070E08A819B810E943324FC0153
:102F400083818D3451F060E070E08A819B810E9422
:102F50003324FC018481833431F48C819D81DF91A1
:102F6000CF910C94780E0E94E03BAB01BC018C81A8
:102F70009D810E94360F8A819B810E942B24AB0188
:102F8000BC018C819D810E94290F8A819B810E94B6
:102F90000B24AB01BC018C819D810E943E0F8A8174
:102FA0009B810E941124AB01BC018C819D810E94F8
:102FB000460F8C819D810E94FC0DAB01BC018A8172
:102FC0009B810E941724AB01BC018C819D810E94D2
:102FD0004E0F8A819B810E940224AB01BC018C812F
:102FE0009D810E945B0FB9CFDF92EF92FF920F930A
:102FF0001F93CF93DF93CDB7DEB7A8970FB6F894A2
:10300000DEBF0FBECDBF8C0166EA73E08EEE9BE0A3
:103010000E94A937F801848195810E940B10892BA9
:1030200031F46FE873E08EEE9BE00E94A937F8015F
:10303000848195810E940B10019709F07FC068E799
:1030400073E08EEE9BE00E94A9376AE673E08BE89E
:103050009CE00E94A93762E573E08BE89CE00E9447
:10306000A9376AE373E08BE89CE00E94A93762E22B
:1030700073E08BE89CE00E94A9376AE073E08BE87C
:103080009CE00E94A93762EF72E08BE89CE00E940E
:10309000A9376AED72E08BE89CE00E94A9376CECDE
:1030A00072E08BE89CE00E94A9371AA219A283E67D
:1030B00093E098A38F8FCE0101967C019CA38BA3F4
:1030C0008EE190E098A78FA3CE014F960E94EB1F50
:1030D00060EC72E0CE014F960E946737F801848160
:1030E00095810E942710AB01BC012AE030E0CE019F
:1030F0004F960E94263868EB72E0CE014F960E94F0
:103100006737C7010E94A513D82EFFE0F81728F0F3
:1031100060E3CE014F960E948E3740E150E06D2D66
:10312000CE014F960E949738B7018BE89CE00E9431
:10313000BB37B7018EEE9BE00E94BB37F80184815C
:1031400095810E940B10029709F055C06FE972E05B
:103150008EEE9BE00E94A9376EE872E08BE89CE05F
:103160000E94A9376CE572E08BE89CE00E94A937C9
:103170001AA219A283E693E098A38F8FCE0101963D
:103180007C019CA38BA38EE190E098A78FA3CE0136
:103190004F960E94EB1F62E572E0CE014F960E94AF
:1031A0006737F801848195810E942710AB01BC012B
:1031B0002AE030E0CE014F960E9426386BE872E09C
:1031C000CE014F960E948C37C7010E94A513182F7D
:1031D000803128F460E3CE014F960E948E3740E1A3
:1031E00050E0612FCE014F960E949738B7018BE8CF
:1031F0009CE00E94BB37A8960FB6F894DEBF0FBEC6
:10320000CDBFDF91CF911F910F91FF90EF90DF9095
:1032100008951092B60A1092B50A83E693E090934F
:10322000B40A8093B30A8DEB9AE09093B80A809326
:10323000B70A88E290E09093BC0A8093BB0A83EBC4
:103240009AE00C94EB1FCF92DF92EF92FF92CF9314
:10325000DF93EC010E94DC156B017C01AB01BC012A
:103260008C819D810E942F108C819D810E94CE0BAC
:1032700026E0B701A6018BE89CE00E94F733CE015F
:103280000E94F4178BE89CE00E9419338BE89CE0C5
:103290000E9459348C819D810E942710AB01BC0192
:1032A00026E08BE89CE0DF91CF91FF90EF90DF90DC
:1032B000CF900C94F733FC01E853FF4F118210823A
:1032C0003296118210820895CF93DF93DC01A853C8
:1032D000BF4F4D915C911197FC01E653FF4F423671
:1032E000510514F0118210826A3011F06D3011F422
:1032F00011821082643261F424E6EC0119922A955D
:10330000E9F7EC01688381E090E08D939C933AC0EB
:103310002081318121303105E1F024F4211531057E
:10332000C1F133C02230310511F12330310569F587
:10333000FC01E40FF51F60834E5F5F4F4D935C937C
:103340001182BC018C599F4F0E94FE4321E030E066
:1033500020C09A012F5F3F4FEC01C40FD51F2D9362
:103360003C9368836A3299F482E090E00BC09A0142
:103370002F5F3F4F2D933C93DC01A40FB51F6C933F
:1033800083E090E09183808302C01182108220E06C
:1033900030E0C901DF91CF9108958C599F4F089576
:1033A000862F0E94BC3081E090E008950C947F311C
:1033B00025E833E0FC01318320830C947832CF93ED
:1033C000DF93EC0185E893E0998388830E9478324B
:1033D000CE01DF91CF910C94943B9A01AB01CA01CD
:1033E000B90196958795779567957C5D8B409F4F42
:1033F0000E94FF41CA01B9010C946A300C94BB379A
:10340000CF92DF92EF92FF920F931F93CF93DF93B0
:10341000CDB7DEB72A970FB6F894DEBF0FBECDBF8B
:103420008C017C018EE0E80EF11C1C821B8283E67D
:1034300093E09A838983FE82ED828EE190E09A8701
:103440008987CE0101960E94EB1F66EF73E0CE01E3
:1034500001960E946737F801848595850E94570E72
:103460004AE050E0BC01CE0101960E94703860EF46
:1034700073E0CE0101960E946737F8018485958537
:103480000E945D0EAB01BC0122E030E0CE0101964E
:103490000E9489396AEE73E0CE0101960E94673777
:1034A000C7010E94A5136801F0E4CF0ED11CF601FC
:1034B0008083803128F460E3CE0101960E948E372C
:1034C00040E150E0F6016081CE0101960E949738FC
:1034D000B7018EEE9BE00E94BB37B701C8010E9486
:1034E000BB372A960FB6F894DEBF0FBECDBFDF9173
:1034F000CF911F910F91FF90EF90DF90CF900895A3
:10350000AF92BF92CF92DF92EF92FF920F931F93F1
:10351000CF93DF93CDB7DEB72A970FB6F894DEBF0F
:103520000FBECDBF8C01FC01848595850E940F0ED6
:1035300020E030E0A9010E94F73E882309F470C022
:103540005801FCE2AF0EB11C1C821B8283E693E0A3
:103550009A838983BE82AD8284E190E09A878987CD
:10356000CE0101960E94EB1F62EE73E0CE01019640
:103570000E946737F801848595850E94090E6B01CA
:103580007C01F801848595850E940F0E9B01AC019A
:10359000C701B6010E94303EAB01BC0122E030E021
:1035A000CE0101960E9489396EED73E0CE0101963D
:1035B0000E9467377801F0E4EF0EF11CF7011082EA
:1035C00081E090E0F50101900020E9F7EA19FB099C
:1035D00032978E179F0750F4F801E80FF91F24A5C2
:1035E000F7013081232720830196ECCFF7018081FA
:1035F000803128F460E3CE0101960E948E3740E1CD
:1036000050E0F7016081CE0101960E949738B50124
:103610008EEE9BE00E94BB37B501C8010E94BB370C
:103620002A960FB6F894DEBF0FBECDBFDF91CF91C3
:103630001F910F91FF90EF90DF90CF90BF90AF90D0
:103640000895FC01578B468B718F608F1182108219
:103650000895FC01A081B181A80FB91F12966C9347
:103660008081918143972CF480819181019691838F
:1036700080830895CF93DF93EB01FC017183608316
:103680000E94EC3B6093130B7093140B8093150B0B
:103690009093160B4091130B5091140B6091150BE6
:1036A0007091160B40930F0B5093100B6093110BFE
:1036B0007093120B1092FB0A1092FC0A1092FD0AF2
:1036C0001092FE0A81E08093F60A1092E80A1092A6
:1036D000E90A8091E50A9091E60A20E03091E70A34
:1036E000231760F4FC0134E0239FE00DF11D112449
:1036F00010821182128213822F5FF0CFCE010E94BE
:10370000510E843691053CF063E670E0CE01DF9106
:10371000CF910C94A70FDF91CF910895CF92DF92B4
:10372000EF92FF920F931F93CF93CB01BA0197FFB4
:1037300009C090958095709561957F4F8F4F9F4FF1
:10374000C0E001C0C1E0683621E072078105910543
:1037500034F028E631E040E050E00E942142653B31
:1037600071058105910534F0645B71098109910946
:1037700021E0C2276B3571058105910564F004EBEA
:1037800010E020E030E068017901C61AD70AE80AA3
:10379000F90AC701B601660F771FFB01E755FD4F18
:1037A00060817181CC2319F080E090E00CC0CB01E6
:1037B000A0E0B0E09C01AD0166277727CB01621B3A
:1037C000730B840B950BCF911F910F91FF90EF908E
:1037D000DF90CF900895465A5F4F6F4F7F4F0C9404
:1037E0008E1B4F925F926F927F928F929F92AF92B9
:1037F000BF92CF92DF92EF92FF920F931F93CF93DE
:10380000DF938C016090E80AC091E50AD091E60A46
:10381000712CC12CD12C7601812C912C5401761461
:10382000C1F0488159816A817B81C8010E94EB1BEC
:10383000860E971EA81EB91E4991599169917991DA
:10384000C8010E948E1BC60ED71EE81EF91E739477
:10385000E6CF81149104A104B10429F4C114D10468
:10386000E104F104A1F1662D70E080E090E00E9497
:10387000993F2B013C01C501B4010E94993F20E80A
:1038800030E040E857E30E940541A30192010E9405
:10389000FE3E4B015C01C701B6010E94993F20E842
:1038A00030E040E857E30E940541A30192010E94E5
:1038B000FE3EA50194010E94A43E21EE3EE245E6B3
:1038C00052E40E9405410E94663FCB0102C080E0A5
:1038D00090E0DF91CF911F910F91FF90EF90DF90DB
:1038E000CF90BF90AF909F908F907F906F905F90A0
:1038F0004F9008950F931F930E94E03B00911B0B84
:1039000010911C0B20911D0B30911E0B601B710B35
:10391000820B930B653171058105910520F1809132
:10392000130B9091140BA091150BB091160B809373
:103930000F0B9093100BA093110BB093120B0E94DE
:10394000EC3B6093130B7093140B8093150B9093C7
:10395000160B0E94E03B60931B0B70931C0B809333
:103960001D0B90931E0B1F910F9108950F931F93A2
:103970000E94E03B0091170B1091180B2091190B3E
:1039800030911A0B601B710B820B930B6531710523
:103990008105910508F444C08091030B9091040BBC
:1039A000A091050BB091060B8093FF0A9093000B3A
:1039B000A093010BB093020B0E94EC3B6093030BAE
:1039C0007093040B8093050B9093060B80910F0B63
:1039D0009091100BA091110BB091120B80930B0BD7
:1039E00090930C0BA0930D0BB0930E0B8091130BC7
:1039F0009091140BA091150BB091160B8093070BAF
:103A00009093080BA093090BB0930A0B0E94E03B24
:103A10006093170B7093180B8093190B90931A0BEC
:103A20001F910F9108954F925F926F927F928F92A4
:103A30009F92AF92BF92CF92DF92EF92FF920F933D
:103A40001F93F89480900B0B90900C0BA0900D0B93
:103A5000B0900E0B8091070B9091080BA091090B71
:103A6000B0910A0B4091FF0A5091000B6091010B3D
:103A70007091020B0091030B1091040B2091050B28
:103A80003091060B789488169906AA06BB0608F0B2
:103A9000BDC06C017D01C818D908EA08FB08E0E246
:103AA000CE16EEE4DE06E104F10408F4AFC04017E0
:103AB00051076207730708F0A9C028013901441AA9
:103AC000550A660A770AE0E24E16EEE45E066104E5
:103AD000710408F49BC0011511052105310509F495
:103AE00095C0411551056105710509F48FC0009716
:103AF000A105B10509F48AC081149104A104B1049F
:103B000009F484C084169506A606B70608F07EC0A0
:103B1000081719072A073B0708F478C0C40CD51CFE
:103B2000E61CF71CF694E794D794C794C092FB0A5E
:103B3000D092FC0AE092FD0AF092FE0A28013901B7
:103B4000440E551E661E771EA301920128193909DD
:103B50004A095B09281B390B4A0B5B0B56954795A5
:103B6000379527952093F70A3093F80A4093F90A7E
:103B70005093FA0A211531054105510509F446C053
:103B80002C153D054E055F0508F040C0A8E6B1E0E4
:103B90000E944642A70196010E94FF41283681E01B
:103BA00038074105510590F58091E90A8F5F8093B0
:103BB000E90A9091E80A6091E70AE091E50AF0913C
:103BC000E60A9617B0F481E0890F8093E80A84E052
:103BD000989FE00DF11D112420833183428353838C
:103BE0008091E90A6091E80A0E94DF419093E90A16
:103BF0000DC00E94DF419093E90A84E0989FE00D98
:103C0000F11D112420833183428353831F910F912F
:103C1000FF90EF90DF90CF90BF90AF909F908F90EC
:103C20007F906F905F904F9008954F925F926F9248
:103C30007F928F929F92AF92BF92CF92DF92EF923C
:103C4000FF92CF93DF93EC010E94E03BC0901B0BEF
:103C5000D0901C0BE0901D0BF0901E0B6C157D0599
:103C60008E059F0550F40E94E03B60931B0B709300
:103C70001C0B80931D0B90931E0B0E94E03BC09089
:103C8000170BD090180BE090190BF0901A0B6C15D5
:103C90007D058E059F0550F40E94E03B6093170B55
:103CA0007093180B8093190B90931A0B0E94E03BB2
:103CB000AB01BC01888199810E94C10F0E94E03B49
:103CC000C0901B0BD0901C0BE0901D0BF0901E0BB6
:103CD0006C197D098E099F09A880B980693B7B40DA
:103CE00081059105A0F040E050E0BA01C501DF91E7
:103CF000CF91FF90EF90DF90CF90BF90AF909F90CB
:103D00008F907F906F905F904F900C94B90F20919F
:103D1000FB0A3091FC0A4091FD0A5091FE0A2115E0
:103D200031054105510509F4B4C060E071EE85EF3D
:103D300095E00E94FF4169017A01233481E0380750
:103D400041055105F4F5AAE0B0E00E9446422B017E
:103D50003C01C5010E94650E4B015C01A30192016B
:103D6000C301B2010E94CF4127E93FEF4FEF5FEF60
:103D70000E94214229013A01A701960168E273EEEF
:103D800083E090E00E94CF4124E630E040E050E044
:103D90000E942142420E531E641E751E24EE421ADA
:103DA0002FE2520A61087108C301B2010E94993FD3
:103DB000A50194010E94FE3E20E030E040E251E483
:103DC00060C02C3385E138074105510554F5C50124
:103DD0000E94650E2B013C01A7019601C701B601A7
:103DE0000E94CF412EEA38E040E050E00E9421429C
:103DF00049015A01ABE9BAE4A70196010E94464283
:103E000024E630E040E050E00E942142820E931E02
:103E1000A41EB51E26EA820E25E2921EA11CB11C2C
:103E20002AC0C5010E94650E2B013C01A701960125
:103E3000C701B6010E94CF4122E134E040E050E0EA
:103E40000E942142A4E6B0E00E9446424B015C0180
:103E5000A701960164EB70E281E89FEF0E94CF41D9
:103E6000860E971EA81EB91E84E4880E8DEB981E40
:103E70008BE2A81EB11CC501B4010E94993FA301A9
:103E800092010E94FE3EAB01BC01888199810E9493
:103E9000B90F888199810E945D0E6B017C01888138
:103EA00099810E946D0EBC01882777FD8095982F1F
:103EB0000E94993F9B01AC01C701B6010E94FA40E4
:103EC000181654F4888199810E945D0E0E94663F05
:103ED000888199810E940010CE010E94F11B8A55B1
:103EE00091097C01888199810E944B0EB701680F6E
:103EF000791F77FF02C068597E4F88819981DF91D1
:103F0000CF91FF90EF90DF90CF90BF90AF909F90B8
:103F10008F907F906F905F904F900C94AD0F8AEED2
:103F20009AE09093E60A8093E50A83E08093E70A9B
:103F30001092E80A1092E90A089561E085E30E9470
:103F40004B3D61E085E30E94123D8CB580618CBDE4
:103F50008CB580648CBD61E084E30E94123D61E019
:103F600083E30C94123D811103C08CB5806202C0C2
:103F70008CB58F7D8CBD08959CB5937F982B9CBD8F
:103F800008952CB5982F93702C7F922B9CBD9DB5D6
:103F900082FB882780F99E7F982B9DBD0895FC01A8
:103FA000A681B7819D012F5F3F4F84819581408518
:103FB0005185840F951F2817390750F437832683BE
:103FC0006C930680F781E02D108281E090E00895E7
:103FD00080E090E00895FC01A481B581B783A683B9
:103FE00080859185892B09F01C92089508952F9260
:103FF0003F924F925F926F927F928F929F92AF9279
:10400000BF92CF92DF92EF92FF920F931F93CF93C5
:10401000DF93CDB7DEB72A970FB6F894DEBF0FBE99
:10402000CDBF9A878987DC01D6968C91882309F4C5
:10403000E5C00E94E03B69837A838B839C83E9859A
:10404000FA8580A191A129813A81281B390B84A589
:1040500095A5281739070CF4D1C0028CF38DE02DFB
:1040600080809180A280B380A985BA855E96ED910B
:10407000FC915F97A5019401608171818281938198
:104080000E94303E2B013C01E985FA852089318967
:10409000428953890E940541A985BA8594962D913C
:1040A0003D914D915C9197970E94313E6B017C014F
:1040B000E985FA8564A375A386A397A312A903A92A
:1040C00034A825A8212F302F432D522D0E94FA40CD
:1040D00018162CF4812F902FA32DB22D18C0A9856E
:1040E000BA859E968D919D910D90BC91A02D8D834A
:1040F0009E83AF83B8879C01AD01C701B6010E94C2
:10410000F73E87FF0AC08D819E81AF81B885E98522
:10411000FA8584A395A3A6A3B7A3A985BA851C96FF
:104120002D913D914D915C911F97C301B2010E9469
:104130000541E985FA8524A135A146A157A10E9430
:10414000313E6B017C01A985BA8598962D913D91F0
:104150004D915C919B97C501B4010E94303EE98569
:10416000FA8524893589468957890E9405419B0132
:10417000AC01C701B6010E94303E6B017C01212FCA
:10418000302F432D522D0E94FA401816DCF0A985DD
:10419000BA859E961C919E979F960C919F97D0965C
:1041A0003C90D097D1962C90212F302F432D522D1B
:1041B000B601C7010E94F73E87FD04C01C2D0D2DDE
:1041C0003E2C2F2CA985BA855C96ED91FC915D97CC
:1041D000812F902FA32DB22D80839183A283B3834F
:1041E000E985FA8580A691A6A2A6B3A689819A81BF
:1041F000AB81BC8180A391A3A2A3B3A32A960FB6DF
:10420000F894DEBF0FBECDBFDF91CF911F910F910C
:10421000FF90EF90DF90CF90BF90AF909F908F90E6
:104220007F906F905F904F903F902F9008952F92C6
:104230003F924F925F926F927F928F929F92AF9236
:10424000BF92CF92DF92EF92FF920F931F93CF9383
:10425000DF9300D000D0CDB7DEB71C012A013B01AF
:104260004801590120E030E0A901C301B2010E94D8
:10427000F73E87FD7AC020E030E0A901C501B40116
:104280000E94F73E87FD71C020E030E0A901C70120
:10429000B6010E94F73E87FD68C0F101408251825D
:1042A0006282738284829582A682B782C086D1861A
:1042B000E286F38664A575A5882777FD8095982FFB
:1042C0000E94993F20E030E04AE754E40E94FE3E1D
:1042D00069837A838B839C83F10144865586668645
:1042E00077869B01AC01C501B4010E9405414B01D9
:1042F0005C01F101608B718B828B938B29813A81F8
:104300004B815C81C701B6010E94FE3E6B017C01BE
:10431000F101648B758B868B978B808D918D0197C6
:1043200021F5A301920160E070E0CB010E94303ED4
:10433000F1016487758786879787A501940160E0FE
:1043400070E0CB010E94303EF101608B718B828B5B
:10435000938BA701960160E070E0CB010E94303E94
:10436000F101648B758B868B978B0F900F900F905C
:104370000F90DF91CF911F910F91FF90EF90DF9001
:10438000CF90BF90AF909F908F907F906F905F90F5
:104390004F903F902F900895CF92DF92EF92FF922F
:1043A0000F931F93CF93DF93EC018B011616170623
:1043B00094F5882777FD8095982F0E94993F6B018F
:1043C0007C016CA57DA5882777FD8095982F0E949C
:1043D000993F9B01AC01C701B6010E94FE3E6B01F3
:1043E0007C019B01AC01688979898A899B890E943B
:1043F0000541688B798B8A8B9B8BA70196016C8911
:104400007D898E899F890E94FE3E6C8B7D8B8E8B71
:104410009F8B1DA70CA7DF91CF911F910F91FF904C
:10442000EF90DF90CF9008952F923F924F925F923E
:104430006F927F928F929F92AF92BF92CF92DF92B4
:10444000EF92FF920F931F93CF93DF93EC016A01DA
:104450007B0148015901A9019801C701B6010E94D9
:10446000FA4087FF4EC0CEA6DFA6E8AAF9AA8AAA1C
:104470009BAAACAABDAA8EA9882309F442C02C8CA1
:104480003D8CF1014080518062807380A5019401D0
:10449000C301B2010E94FA40181634F4F10180827F
:1044A0009182A282B3820DC0A7019601C301B2011D
:1044B0000E94F73E87FF05C0F101C082D182E282EF
:1044C000F3828CA09DA0AEA0BFA0CAA8DBA8ECA8D8
:1044D000FDA8A7019601C501B4010E94FA40181673
:1044E00064F0CEA4DFA4E8A8F9A8A7019601C5014D
:1044F000B4010E94F73E87FF04C0CCA2DDA2EEA269
:10450000FFA2DF91CF911F910F91FF90EF90DF906D
:10451000CF90BF90AF909F908F907F906F905F9063
:104520004F903F902F9008958F929F92AF92BF929D
:10453000CF92DF92EF92FF92CF93DF93EC01EC8D5D
:10454000FD8DC080D180E280F380CCA2DDA2EEA2FE
:10455000FFA2EA8DFB8D80819181A281B38188A722
:1045600099A7AAA7BBA78AA89BA8ACA8BDA8A50184
:104570009401C701B6010E94FA40181664F08EA497
:104580009FA4A8A8B9A8A5019401C701B6010E94DB
:10459000F73E87FF04C08CA29DA2AEA2BFA2DF910E
:1045A000CF91FF90EF90DF90CF90BF90AF909F9012
:1045B0008F9008951F93CF93DF93EC0111E061304A
:1045C000710509F010E08EA991E08927181303C046
:1045D000CE010E9494221EABDF91CF911F910895CE
:1045E0000F931F93CF93DF93EC018B018EA9882348
:1045F00061F1888D998D6817790739F12C853D8592
:104600004E855F8560E070E0CB010E94303E6C8794
:104610007D878E879F87288939894A895B8960E0F1
:1046200070E0CB010E94303E688B798B8A8B9B8B2C
:104630002C893D894E895F8960E070E0CB010E9442
:10464000303E6C8B7D8B8E8B9F8B198F088FDF910B
:10465000CF911F910F9108952F923F924F925F92A9
:104660006F927F928F929F92AF92BF92CF92DF9282
:10467000EF92FF920F931F93CF93DF93CDB7DEB7E7
:1046800028970FB6F894DEBF0FBECDBF4C017A83DA
:1046900069831A013C832B8327013801AD82BE82D6
:1046A000CF82D88600E010E02FE733E440E050E00E
:1046B000BA010E94142284E690E0F40195A784A731
:1046C00069A17AA1C4010E94F022CD8CDE8CEF8C0E
:1046D000F8A00D811E812F813885B301A201C4018C
:1046E0000E9417210E94E03BF40144A455A46624D3
:1046F00057FC6094762C641975098609970960A3A4
:1047000071A382A393A316AA358E248E89819A81E0
:10471000938F828F8B819C81978F868F28960FB67F
:10472000F894DEBF0FBECDBFDF91CF911F910F91E7
:10473000FF90EF90DF90CF90BF90AF909F908F90C1
:104740007F906F905F904F903F902F9008950F93C0
:104750001F93CF93DF93FC017183608312821382D6
:104760001482158286E5868317821086118612864A
:1047700013861486158616861786108A118A128A61
:10478000138A148A158A168ADF01A754BF4F11961F
:104790001C921E92AE55BF4F11961C921E921496FB
:1047A00011961C921E92129611961C921E921296AF
:1047B00011961C921E92178AAC5AB1091D921C9236
:1047C000EF0104E110E08FE090E00E947842FE01EA
:1047D000E15EFE4F918380838FE090E00E947842FB
:1047E000FE01E558FF4F91838083FC011082015048
:1047F000110922960115110531F7DF91CF911F9113
:104800000F910895FC0162817381848195810895DF
:10481000FC0186810895FC01678170858185928500
:104820000895FC0163857485858596850895CF92EA
:10483000DF92EF92FF926A017B01FC0127853089AC
:1048400041895289C701B6010E940541FF90EF904E
:10485000DF90CF900895FC016389748985899689DA
:10486000089547960895660F771F680F791FFB011B
:10487000E558FF4F8081918108954F925F926F922A
:104880007F928F929F92AF92BF92CF92DF92EF92E0
:10489000FF920F931F93CF93DF93FB0110811D3283
:1048A00041F031E020E01B3209F030E0832F922FFD
:1048B00002C081E090E0EB01C80FD91F00E03DECA1
:1048C000432E3CEC532E652C3DE3732E812C912C12
:1048D0005401C12CD12C7601E991EE23E9F1EE329D
:1048E000C9F1FF27E7FDF095011113C0AAE0B0E080
:1048F000A70196010E9446426B017C01CF01C0973F
:10490000AA2797FDA095BA2FC80ED91EEA1EFB1E36
:10491000E3CFBF0160537109882777FD8095982FF9
:104920000E94993F9B01AC01C301B2010E94054165
:104930009B01AC01C501B4010E94313E4B015C01F9
:1049400020E030E040E251E4C301B2010E94FE3EAB
:104950002B013C0101E0C0CFC701B6010E94993F85
:104960009B01AC01C501B4010E94313E1D3239F4F6
:104970009B01AC0160E070E0CB010E94303EDF9112
:10498000CF911F910F91FF90EF90DF90CF90BF904C
:10499000AF909F908F907F906F905F904F90089511
:1049A0008F929F92AF92BF92CF92DF92EF92FF923F
:1049B0000F931F93CF93DF93EC01AC01455A5E4FE9
:1049C000DA012D913C911197FC01E15AFE4F2436FA
:1049D00031056CF4A25AB1098D919C9111974497BD
:1049E00034F4A655BF4F8D919C910F9714F011820E
:1049F00010826A3011F06D3011F41182108264322D
:104A0000E1F4DE01A35ABE4F11961C921E92149639
:104A100011961C921E92A85AB10911961C921E92D0
:104A2000A655BF4F1D921C92C554DF4F688381E08D
:104A300090E0DA018D939C93E4C080819181813074
:104A4000910569F024F4009709F47AC272C28230A9
:104A5000910509F492C0039709F4D6C06AC22730C1
:104A600031057CF4D901A959BC4F8C91681309C058
:104A7000DE01A35ABE4F8D919C91119701968D93A3
:104A80009C93C9010196DA018D939C932C0F3D1FD5
:104A9000D901A554BF4F6C93CE0187549F4F8E010F
:104AA0000D591E4F6A3249F1DE01AF59BE4FFC016C
:104AB0006C3209F040C020813181A9014F5F5F4F06
:104AC00051834083C901880F991F8C0F9D1FEC01F2
:104AD000C15EDE4F0990D881C02DF801808191819F
:104AE000C80FD91F1882118210828D919C91119745
:104AF000FCE28F278D939C931EC2DC012D913C918B
:104B00001197A9014F5F5F4F4D935C93C901880FC7
:104B1000991F8C0F9D1FEC01C15EDE4F0990D8815B
:104B2000C02DD8018D919C911197C80FD91F188263
:104B30001D921C9263C080819181880F991F8C0FF8
:104B40009D1FEC01C15EDE4F0990D881C02DF80198
:104B5000808191819C012F5F3F4F31832083C80F5B
:104B6000D91F6883772767FD70958D919C91119768
:104B7000682779276D937C93DEC1C9010196DA011C
:104B80008D939C932C0F3D1FD901A554BF4F6C935F
:104B9000DE01A754BF4F8D919C91880F991F8C0FF8
:104BA0009D1FDC01A15EBE4F0D911C919E012D59F0
:104BB0003E4FD9018D919C911197AC014F5F5F4F92
:104BC0004D935C93080F191FD8016C93CF59DE4F9A
:104BD00048815981862F992787FD9095613414F07B
:104BE000C79701C0C0979C01B4E0220F331FBA954C
:104BF000E1F7CA01821B930B99838883808191819D
:104C000001969183808397C1CE01820F931FDC01AF
:104C1000A554BF4F6C932E5F3F4FDA012D933C9309
:104C2000DC01A454BF4F1C929E0127543F4FD90171
:104C30008D919C91880F991F8C0F9D1FDC01A15EA7
:104C4000BE4F8D919C916E01BDE9CB1ABEEFDB0A80
:104C5000D6010D911C917801BFEFEB1AFB0AD6012A
:104C6000ED92FC92800F911FDC016C93D9018D9124
:104C70009C9111978C010F5F1F4F0D931C93880F10
:104C8000991F8C0F9D1F815E9E4FDC018D919C9121
:104C9000D6010D911C91800F911FDC011C92118295
:104CA0001082FE01EF59FE4F80819181062F11275E
:104CB00007FD1095613424F0B8016753710903C0F2
:104CC000B80160537109861B970B9183808300970D
:104CD00009F031C168817981672B29F4FA0160817B
:104CE0007181CB010AC0FE01E35AFE4F60817181E0
:104CF0006630710509F024C1F1CF019797FD0AC014
:104D0000FE01E80FF91F8F0105541F4FD8011C91B8
:104D1000178BF3CFFB013197CB0177FF02C080E007
:104D200090E0BF01681B790BDA016D937C93FE0163
:104D3000E954FF4F1182108240815181D9018D9138
:104D40009C914817590784F5D6011D921C928081C9
:104D50009181D6014D915C91880F991F8C0F9D1FF9
:104D6000BC01615E7E4FDB016D917C91640F751F0C
:104D7000DB016C9185589F4FDC018D919C91840FD4
:104D8000951FDC01662349F06C93D6018D919C91AF
:104D9000119701968D939C93DACF1C92808191811B
:104DA000019691838083C8CFFE01E35AFE4F808134
:104DB0009181069709F0C2C0FC9760817181CE0194
:104DC0000E943D246A837B838C839D83FE01ED5D7D
:104DD000FE4F0190F081E02D80818E83FE01EB5D1E
:104DE000FE4F60817181CE010E943D2420E030E0C1
:104DF00048EC52E40E94FE3E4B015C010E94D43F0D
:104E00006B017C018E010B591E4FF8016083718389
:104E1000828393839B01AC01C501B4010E94303EA3
:104E200020E030E048EC52E40E94054120E030E010
:104E300040E752E40E94FE3EA70196010E94313EE7
:104E40009B01AC016F83788789879A87FE01E95DB2
:104E5000FE4F0190F081E02D8081833549F460E0C0
:104E600070E0CB010E94303E6F83788789879A87F4
:104E7000FE01E75DFE4F60817181CE010E943D24FD
:104E800020E030E048EC52E40E94FE3E4B015C0121
:104E90000E94D43F6B017C01D8016D937D938D936B
:104EA0009C9313979B01AC01C501B4010E94303E55
:104EB00020E030E048EC52E40E94054120E030E080
:104EC00040E752E40E94FE3EA70196010E94313E57
:104ED0009B01AC016B877C878D879E87FE01E55D1A
:104EE000FE4F0190F081E02D8081873549F460E02C
:104EF00070E0CB010E94303E6B877C878D879E8758
:104F0000FE01E35DFE4F60817181CE010E943D2470
:104F10006F87788B898B9A8BFE01E15DFE4F6081F4
:104F20007181CE010E943D246B8B7C8B8D8B9E8B7F
:104F300005C01182108280E090E002C081E090E024
:104F4000DF91CF911F910F91FF90EF90DF90CF9065
:104F5000BF90AF909F908F9008958EBD0DB407FEC7
:104F6000FDCF8EB508950F931F93FC01138212821B
:104F700008EE13E020E030E00483158326833783B6
:104F800083E793E091838083648745871F910F9126
:104F90000895EF92FF921F93CF93DF931F92CDB7A7
:104FA000DEB77C01162F60E0FC01848549830E94F6
:104FB0004B3DF8E01F9FB0011124F7018585880F54
:104FC000862B0E94AD274981842F0E94AD2762E085
:104FD00070E080E090E00E940F3C61E0F701848582
:104FE0000F90DF91CF911F91FF90EF900C944B3D6C
:104FF000462F60E00E94C92781E090E0089546E0D6
:1050000062E00C94C927CF92DF92EF92FF920F9348
:105010001F93CF93DF9300D0CDB7DEB78C01F22E74
:1050200060E0FC01848549835A830E944B3D49819D
:10503000E42EC42E5A81D52E8C2D8E198F1530F466
:10504000F60181916F010E94AD27F6CF62E070E01A
:1050500080E090E00E940F3C61E0F80184850F90B1
:105060000F90DF91CF911F910F91FF90EF90DF9004
:10507000CF900C944B3D242FAB0160E00C9403289F
:105080001F93CF93DF93EC01162F60E08C850E9475
:105090004B3D62E070E080E090E00E940F3C88E0D1
:1050A000189FB00111248D85880F862B80680E947F
:1050B000AD2780E00E94AD27182F62E070E080E00D
:1050C00090E00E940F3C61E08C850E944B3D812F57
:1050D000DF91CF911F91089560E00E94402890E0F9
:1050E000089569E00E94402890E0089569E00E94D8
:1050F00040288FEF9FEF08951F93CF93DF93EC012C
:10510000162F63E00E944028482F4C7F6BEF610F01
:105110006370462B63E0CE01DF91CF911F910C9419
:10512000C9278F929F92AF92BF92CF92DF92EF9258
:10513000FF920F931F93CF93DF93EC016A017B01E2
:10514000480159016BE274E08EEE9BE00E94A937A2
:105150000E949D1F6AE070E080E090E00E940F3C9A
:1051600081E00E94B31F81E00E94C11F80E00E9485
:10517000BC1F6FE174E08EEE9BE00E94A937809126
:10518000080290910902019779F448E06EE0CE019F
:105190000E94C927109209021092080260E174E08F
:1051A0008EEE9BE00E94A93764E670E080E090E01C
:1051B0000E940F3C40E863E0CE010E94C927C7016E
:1051C000B60123E0660F771F881F991F2A95D1F734
:1051D000680D791D8A1D9B1DA7019601E4E0220F31
:1051E000331F441F551FEA95D1F70E94FF41690103
:1051F0007A01422F60E0CE010E94C9274D2D55272C
:1052000061E0CE010E94C92740E063E0CE010E9428
:10521000C92768E0CE010E947C2847E062E0CE0109
:105220000E94C9276EEF73E08EEE9BE0DF91CF9175
:105230001F910F91FF90EF90DF90CF90BF90AF90B4
:105240009F908F900C94A9370F931F9300E010E864
:1052500020E730E00E9491281F910F910895FC01F2
:105260006F778081918186279183808347E02081B9
:105270003181C9019695879520FF04C020EF8227D0
:1052800022E2922791838083415089F70895EF921B
:10529000FF920F931F93CF93DF937C018A01EB0161
:1052A000060F171FC017D10729F06991C7010E9487
:1052B0002F29F8CFDF91CF911F910F91FF90EF90A1
:1052C0000895CF93DF9300D0CDB7DEB7AB012FEFBA
:1052D0003FE33A832983BC01CE0101960E9447290E
:1052E00089819A8180952FE392270F900F90DF910B
:1052F000CF9108950F931F93CF93DF931F92CDB754
:10530000DEB78C01FC0171836083128223831486D3
:10531000158616861786108A459649830E94352E73
:10532000F801178E10A249818FE9840F8A3108F4A1
:1053300040528FEB840F8A3120F080ED840F8A3049
:1053400010F4F801428344E650E060E070E0F801B8
:1053500044835583668377834FEF5FEFBA014087BD
:1053600051876287738711A20F90DF91CF911F91B0
:105370000F91089508959F92AF92BF92CF92DF92BE
:10538000EF92FF920F931F93CF93DF93CDB7DEB7CA
:10539000A7970FB6F894DEBF0FBECDBF6C017B019F
:1053A000942E5901DB0114964D915D916D917C9184
:1053B0001797CE0180960E942E2FCE0180960E94D4
:1053C000042F6894A4F8C8010E94DC2E882321F0E1
:1053D000C6010E94372E6CC0CE0180960E94DC2E42
:1053E0008823A9F1CE0180960E94222FF70184859F
:1053F0008F5F87FD81E0D7011C968C93CE010196CB
:105400000E94642CF7016281CE0101960E94682CF3
:105410006A2DCE0101960E94682CD7011C966C91D2
:10542000CE0101960E94682C692DCE0101960E9442
:10543000682CD701ED91FC91119763A174A123E22F
:1054400030E013964C91CE0101960E94402DF70159
:10545000808191810E940E2E882309F4B4CFD70158
:10546000ED91FC911197938113968C919813ABCF8A
:105470008481833409F0A7CF40815181455051097F
:10548000BF016A5F7F4FCE0101960E94AD2E8981D8
:10549000882309F498CF9C81F7018485981393CFD2
:1054A0008AE0FE013196D60101900D928A95E1F7CE
:1054B000C601A7960FB6F894DEBF0FBECDBFDF9131
:1054C000CF911F910F91FF90EF90DF90CF90BF9001
:1054D000AF909F9008959F92AF92BF92CF92DF922C
:1054E000EF92FF920F931F93CF93DF93CDB7DEB769
:1054F0006F970FB6F894DEBF0FBECDBF8C015B0176
:105500007A01922EDC01ED91FC91C3A0D4A0CE01D2
:1055100001960E94642CF8016281CE0101960E94DE
:10552000682C692DCE0101960E94682C96FE07C05A
:10553000D8015F966C91CE0101960E94682CF7010C
:1055400042815381B7016C5F7F4FCE0101960E946B
:10555000742C9501D80113964C91B601CE01019699
:105560000E94402D6F960FB6F894DEBF0FBECDBFE0
:10557000DF91CF911F910F91FF90EF90DF90CF902F
:10558000BF90AF909F900895CF92DF92EF92FF92DD
:105590000F931F93CF93DF93CDB7DEB72A970FB644
:1055A000F894DEBF0FBECDBF7C016A01FC0180A173
:1055B000811123C08B0120E430E041E050E0B701CD
:1055C000CE0101960E94BB298AE0FE013196D601E8
:1055D00001900D928A95E1F7F601828180FF04C067
:1055E0008681978197FD07C0F6018481F701878F37
:1055F00081E080A302C081E001C080E02A960FB65E
:10560000F894DEBF0FBECDBFDF91CF911F910F91F8
:10561000FF90EF90DF90CF900895DF92EF92FF928E
:105620000F931F93CF93DF93CDB7DEB72A970FB6B3
:10563000F894DEBF0FBECDBF7C01D42EFC012389C0
:105640003489418952898B01BC01CE0101960E94A7
:10565000BB298AE0FE013196D701559601900D9243
:105660008A95E1F7F701878980FF04C0838D948DC7
:1056700097FD0BC0F701818D978D891731F081114E
:1056800006C081E0D11004C002C081E001C080E00A
:105690002A960FB6F894DEBF0FBECDBFDF91CF9133
:1056A0001F910F91FF90EF90DF9008958F929F923E
:1056B000AF92BF92CF92DF92EF92FF920F931F9320
:1056C000CF93DF93CDB7DEB72E970FB6F894DEBF3A
:1056D0000FBECDBF7C016B015A014901FC0125853C
:1056E0003685478550892F5F3F4F4F4F5F4F258746
:1056F00036874787508BBC01CE0109960E94502DFA
:10570000F70181A1882339F09401A501B601C701F1
:105710000E946B2A30C0F7014085518562857385F0
:10572000CE0101960E942E2FA7014B5E5F4FBE0156
:105730006F5F7F4FC7010E94C42A81111CC068940B
:1057400086F8F701128B018B948A838A878D8F5F8D
:1057500087FD81E0F701878F9401A501B601C7019C
:105760000E946B2A40E0BE016F5F7F4FC7010E941D
:105770000D2B882389F386E0FE013996DE01119610
:1057800001900D928A95E1F729813A814B815C81E4
:105790006D817E8180E090E02E960FB6F894DEBF9A
:1057A0000FBECDBFDF91CF911F910F91FF90EF9072
:1057B000DF90CF90BF90AF909F908F9008958F9281
:1057C0009F92AF92BF92CF92DF92EF92FF920F9390
:1057D0001F93CF93DF93CDB7DEB7AA970FB6F89498
:1057E000DEBF0FBECDBF4C01CE0101962FA338A75F
:1057F00049A75AA76EA30E94642C6EA1CE01019600
:105800000E94682C2FA138A549A55AA5BA01A90163
:10581000CE0101960E948C2CF7FC0BC0602FCE01AC
:1058200001960E94682CB701A601CE0101960E9444
:105830008C2C01E010E09501AE014F5F5F4F64E2F8
:1058400070E0C4010E94562B80E090E0AA960FB64B
:10585000F894DEBF0FBECDBFDF91CF911F910F91A6
:10586000FF90EF90DF90CF90BF90AF909F908F9080
:105870000895AF92BF92CF92DF92EF92FF920F9373
:105880001F93CF93DF9300D000D000D0CDB7DEB709
:1058900057016801790102E09A01AB0161E00E94C1
:1058A000DF2B80E090E026960FB6F894DEBF0FBEA7
:1058B000CDBFDF91CF911F910F91FF90EF90DF90BF
:1058C000CF90BF90AF900895FC011382128208958B
:1058D000FC0122813381A9014F5F5F4F53834283D3
:1058E000E20FF31F64830895CF93DF93FB01460F0C
:1058F000571FE417F50769F0A191EC012A813B815C
:10590000B9016F5F7F4F7B836A83C20FD31FAC8364
:10591000F0CFDF91CF9108950F931F934130510540
:10592000610520EE72077CF08A019B0101151105CB
:10593000210540E2340724F00FEF1FEF2FEF3FE186
:1059400037FF12C004C001E010E020E030EE3095D7
:105950002095109501951F4F2F4F3F4F000F111F9E
:10596000221F331F016004C0000F111F221F331FAD
:10597000FC0142815381702F7F7300341105210592
:10598000310510F060E401C060E04F5F5F4FFC0143
:10599000E40FF51F672B638366E03695279517950F
:1059A00007956A95D1F7011511052105310519F7FC
:1059B000FC01538342831F910F910895EF92FF9250
:1059C0000F931F93CF93DF93EC01688349830A837E
:1059D000F901DC011396C901800F911FE817F9073F
:1059E00019F021912D93FACF780183E0E80EF11C94
:1059F000B701CE010E946129FE01EE0DFF1D282F87
:105A00002F772083C00FD11F880F892F881F990BF4
:105A100091958F778C83C8010596DF91CF911F9167
:105A20000F91FF90EF900895EF92FF920F931F93C5
:105A3000CF93DF93CDB7DEB7A0970FB6F894DEBF54
:105A40000FBECDBF7C01CE0101960E94DE2CD70196
:105A5000ED91FC910280F381E02DAC01BE016F5FFE
:105A60007F4FC7010995A0960FB6F894DEBF0FBE11
:105A7000CDBFDF91CF911F910F91FF90EF900895CF
:105A80000F931F93FC01CB01642FA90102811381A5
:105A90009F012C5F3F4F0E94142D1F910F9108957D
:105AA000FC0171836083228333834483558308958B
:105AB000FC0171836083460F571F5383428308950F
:105AC000FC01A081B18182819381A817B90739F0C7
:105AD0008D91B183A083FB01808381E0089580E0F4
