:100000000C94A9030C94E93A0C941A3B0C944B3BC6
:100010000C947C3B0C94AD3B0C94DE3B0C940F3C5D
:100020000C94403C0C94D8030C94D8030C94D80343
:100030000C94D8030C94D8030C94D8030C94EE3091
:100040000C94D8030C94D8030C94D8030C94D803C4
:100050000C94D8030C94D8030C94D8030C94833CD0
:100060000C94D8030C9462350C9498350C94D803F6
:100070000C94D8030C94D8030C94D8030C94D80394
:100080000C94D8030C94D8030C94D8030C94D80384
:100090000C940F360C9445360C94D8030C94D8036A
:1000A0000C94D8030C94D8030C94D8030C94D80364
:1000B0000C94D8030C94D8030C9471320C94E03156
:1000C0000C94D3320C94D8030C94D8030C94BC3603
:1000D0000C94F2360C94D8030C9469370C949F3727
:1000E0000C94D803C33A8D3A953AA13AAE3ACF3A36
:1000F000DC3AC43DC73DB63DBA3DC03DFE3DCB3DBB
:10010000CF3DD53DD93DDD3DE33DE73DEB3DFE3DFA
:10011000F13DF53DF93D084AD73B3BCE016E84BC2D
:10012000BFFDC12F3D6C74319ABD56833DDA3D0051
:10013000C77F11BED9E4BB4C3E916BAAAABE00009A
:1001400000803F05A84CCDB2D44EB93836A9020C78
:1001500050B9918688083CA6AAAA2ABE0000008051
:100160003F00496E6974206175746F70696C6F74BB
:1001700020636F6D706C65746500496E69742061F1
:1001800075746F70696C6F742E2E736574206C6952
:100190006D6974732E2E00496E6974206175746FD9
:1001A00070696C6F742E2E737461727420504944A0
:1001B0002E2E00496E6974206175746F70696C6FC2
:1001C000742E2E002C002C4C4C333A002C4C553302
:1001D0003A002C4C4C323A002C4C55323A002C4C04
:1001E0004C313A002C4C55313A002C53544B3A00C8
:1001F0002C5342333A002C5342323A002C534231B2
:100200003A002C5342303A002C4750533A002C57B6
:100210005A4A3A005549443A4D4547412C415058B5
:100220003A0021215645523A312E392C002C002C0F
:1002300057534B3A002C5753583A002C4141443AFB
:10024000002C4141453A002C41414E3A002C41419D
:10025000523A002C4141583A002C4150523A002C5D
:100260004150433A002C4150543A002C4150533AEB
:10027000005549443A4D4547412C4150583A0021D8
:10028000215645523A312E392C0053657475702031
:10029000636F6D706C6574652E2E0053746172749B
:1002A0002074696D65722E2E00537461727420770C
:1002B000696E642E2E005374617274206E6D6561D8
:1002C000205478202D206F6E2070696E7320343694
:1002D0002054782C20343820527820617420005328
:1002E00074617274206E6D65612054782E2E0053F7
:1002F00074617274206E6D6561205278202D2073B8
:10030000657269616C34206174200043535F504909
:100310004E204F5554505554203D204849474800E1
:1003200043535F50494E2073657420746F204F55BE
:1003300054505554005374617274205350492075C1
:10034000617274732E2E005374617274206E6D6529
:1003500061205278202D2073657269616C332061B1
:100360007420005374617274206E6D656120527840
:10037000202D2073657269616C32206174200053F6
:10038000746172742073656174616C6B202D2073CD
:10039000657269616C3220617420343830300053EA
:1003A0007461727420475053205278202D20736559
:1003B0007269616C312061742000496E69746961F1
:1003C0006C697A696E672E2E0024504D544B32357D
:1003D000312C0024504D544B3331342C302C312CE3
:1003E000302C312C312C312C302C302C302C302C2A
:1003F000302C302C302C302C302C302C302C302C1D
:10040000302A32380024504D544B3232302C3130A7
:1004100030302A31460053657474696E6720475046
:100420005320746F204D54454B5F33333239002CC9
:10043000382C312C302A0024505352463130302C85
:10044000312C0024505352463130352C302A33465B
:100450000024505352463130332C30342C30302C61
:1004600030312C30312A3231002450535246313051
:10047000332C30332C30302C32302C30312A323582
:100480000024505352463130332C30322C30302C33
:1004900030352C30312A323300245053524631301B
:1004A000332C30302C30302C30352C30312A323156
:1004B0000024505352463130332C30312C30302C04
:1004C00030302C30312A32350024505352463130EE
:1004D000332C30352C30302C30302C30312A323126
:1004E0000024505352463130352C312A33450053C5
:1004F000657474696E672047505320746F20454DB2
:100500005F343036410053657474696E672047501C
:100510005320746F2047454E45524943005365743C
:1005200074696E672047505320636F6E6669672E4B
:100530002E2E0020202064656661756C7420746F17
:1005400020343830302E2E004641494C4544004F6F
:100550004B20617420002020207472792061757412
:100560006F62617564202E2E200020206465746502
:10057000637465642070756C7365207261746520A6
:100580003D20002C542A002448434844542C002C7D
:100590004E2C412A002E302C522C002457494D5706
:1005A000562C0053504920696E697420636F6D703A
:1005B0006C65746500535049205541525420726552
:1005C00073657400535049207374617274656400DC
:1005D0004D756C746953657269616C3A3A6265670E
:1005E000696E0000000A0B02090C0D0E08070304D7
:1005F00001000000000000000000000000000000FA
:1006000000000000000000000000000000000012D8
:1006100011100000000000000000000000000000B9
:100620000000000000000000000102102020080867
:100630001020401020408002010201080402010144
:10064000020408102040808040201008040201802D
:100650000402018040201008040201080402010184
:100660000204081020408001020408102040800588
:10067000050505070508080808020202020A0A081B
:100680000804040404010101010101010103030341
:100690000303030303040707070C0C0C0C0C0C0CDE
:1006A0000C0202020206060606060606060B0B0BE5
:1006B0000B0B0B0B0B000020002300260029002C45
:1006C000002F0032000001000003010601090100B3
:1006D000002200250028002B002E003100340002EB
:1006E000010000050108010B010000210024002782
:1006F000002A002D00300033000101000004010732
:10070000010A014E414E494E495459494E46CDCCFD
:10071000CC3D0AD7233C17B7D13877CC2B329595EF
:10072000E6241FB14F0A000020410000C8420040EB
:100730001C4620BCBE4CCA1B0E5AAEC59D74DC08BC
:1007400049166A1A7C20CC3579362637D337F0081B
:10075000B51611241FBECFEFD1E2DEBFCDBF13E02F
:10076000A0E0B2E0E0EBFDE800E00BBF02C00790C4
:100770000D92A03BB107D9F72EE0A0EBB3E001C08A
:100780001D92A338B207E1F717E0CEE4D7E000E00E
:1007900006C022970109FE010BBF0E941543CE330C
:1007A000D10780E00807A9F70E94723C0C94C64666
:1007B0000C9400002DE032E0FC0131832083089589
:1007C0002DE032E0FC01318320830C94813CFC015C
:1007D000CB012DE032E03183208373836283148266
:1007E00040E050E0BA010E94610F61E088E10E94A0
:1007F000FF3D61E08AE10E94FF3D61E08CE10E94E3
:10080000FF3D61E08EE10E94FF3D60E082E40C94D8
:10081000FF3DCF92DF92EF92FF92CF93DF93EC01F7
:100820008A819B810E94A810882389F08A819B81FC
:100830000E94250D6B017C010E94CD3C21E0C61673
:10084000D706E806F90608F020E0822F01C080E014
:10085000DF91CF91FF90EF90DF90CF900895CF92EE
:10086000DF92EF92FF92CF93DF93EC010E94090495
:100870008823A9F10E94CD3C6B017C018A819B8178
:100880000E941F0DC61AD70AE80AF90A89EEC8168F
:1008900083E0D806E104F104C0F16C8188E10E9494
:1008A000383E6C818AE10E94383E6C818CE10E9466
:1008B000383E6C818EE10E94383E8C8191E0892720
:1008C0008C830E94CD3CAB01BC018A819B81DF916E
:1008D000CF91FF90EF90DF90CF900C94610F60E08C
:1008E00088E10E94383E60E08AE10E94383E60E084
:1008F0008CE10E94383E60E08EE1DF91CF91FF9065
:10090000EF90DF90CF900C94383EDF91CF91FF9025
:10091000EF90DF90CF900895CF92DF92EF92FF9209
:10092000CF93DF93EC018A819B810E945C0F882327
:1009300011F18A819B810E94300F18161906DCF490
:100940008A819B810E943C0F6B017C018A819B8183
:100950000E94300FBC01882777FD8095982F0E9458
:100960005D409B01AC01C701B6010E94BE41181653
:1009700014F461E001C060E08A819B81DF91CF9136
:10098000FF90EF90DF90CF900C94E5100F931F93A2
:10099000CF93DF93EC0180E40E94863D8C018A8135
:1009A0009B810E94000F081719074CF08A819B81D8
:1009B0000E94F40E8017910714F060E001C061E01E
:1009C0008A819B810E944E1081E40E94863D8C01A9
:1009D0008A819B810E94120F081719073CF08A81B7
:1009E0009B810E94060F8017910714F461E001C0FB
:1009F00060E08A819B810E945D1082E40E94863DB6
:100A00008C018A819B810E94240F081719073CF0F2
:100A10008A819B810E94180F8017910714F461E06E
:100A200001C060E08A819B81DF91CF911F910F917E
:100A30000C946C1025E132E0FC0131832083089591
:100A400025E132E0FC01318320830C94813C2F921C
:100A50003F924F925F926F927F928F929F92AF924E
:100A6000BF92CF92DF92EF92FF920F931F93CF939B
:100A7000DF93CDB7DEB728970FB6F894DEBF0FBE71
:100A8000CDBF1C016A017B0109831A832B833C8340
:100A9000FC01828193810E945B0D9B01AC01C70127
:100AA000B6010E94F53E2B013C01F1018281938148
:100AB0000E945B0D9B01AC01C701B6010E94F43E90
:100AC0004B015C01F101828193810E945B0D9B01CE
:100AD000AC0169817A818B819C810E94F53E6B011A
:100AE0007C01F101828193810E945B0D9B01AC012D
:100AF00069817A818B819C810E94F43E69837A832B
:100B00008B839C83F101828193810E94610D6D83AF
:100B10007E838F83988724E83AEB4CE358E3C30144
:100B2000B2010E94F43E2D813E814F8158850E9482
:100B3000BE4118166CF4F101828193810E944D0D23
:100B40009B01AC01C301B2010E94BB3F87FD8CC079
:100B5000F101828193810E944D0D2B013C0124E81B
:100B60003AEB4CE358E3C501B4010E94F53EA30102
:100B700092010E94BB3F87FF0EC0F10182819381E9
:100B80000E94610D9B01AC01C501B4010E94BE41F0
:100B900018160CF471C0F101828193810E94670DD7
:100BA0004B015C0124E83AEB4CE358E3C701B60182
:100BB0000E94F43EA50194010E94BE4118166CF4F7
:100BC000F101828193810E94310D9B01AC01C7012B
:100BD000B6010E94BB3F87FD57C0F101828193811E
:100BE0000E94310D6B017C0124E83AEB4CE358E3A1
:100BF00069817A818B819C810E94F53EA7019601D3
:100C00000E94BB3F87FF48C0F101828193810E940F
:100C1000670D9B01AC0169817A818B819C810E9467
:100C2000BE411816CCF549815A816B817C81F10156
:100C30008281938128960FB6F894DEBF0FBECDBF98
:100C4000DF91CF911F910F91FF90EF90DF90CF90A8
:100C5000BF90AF909F908F907F906F905F904F90DC
:100C60003F902F900C94B10FB301A201F10182814A
:100C700093810E94970F6CCFB501A401F10182818D
:100C800093810E94AB0F87CFB701A601F10182814A
:100C900093810E947B0FA1CF28960FB6F894DEBFF8
:100CA0000FBECDBFDF91CF911F910F91FF90EF90BD
:100CB000DF90CF90BF90AF909F908F907F906F907C
:100CC0005F904F903F902F9008958F929F92AF9298
:100CD000BF92CF92DF92EF92FF920F931F93CF9329
:100CE000DF93EC016A017B014801590140E050E0CB
:100CF00064EB72E48A819B810E94970F40E050E090
:100D000064EB72EC8A819B810E94AB0F40E050E063
:100D100064E373E48A819B810E947B0F40E050E092
:100D200064E373EC8A819B810E94B10F8A819B816D
:100D30000E94530D2DE93BEF46E157E30E94C94164
:100D4000AB01BC018A819B810E94A50F95018401A2
:100D5000B701A601CE010E942705DF91CF911F9117
:100D60000F91FF90EF90DF90CF90BF90AF909F904A
:100D70008F900895CF92DF92EF92FF920F931F937F
:100D8000CF93DF93EC018B0185E192E09983888317
:100D90007B836A83CB010E943F0D6B017C01C801FC
:100DA0000E94370DAB01BC0197018601CE010E9464
:100DB0006506DF91CF911F910F91FF90EF90DF902B
:100DC000CF9008954F925F926F927F928F929F92F1
:100DD000AF92BF92CF92DF92EF92FF920F931F9349
:100DE000CF93DF9300D000D0CDB7DEB74C01FC012C
:100DF000828193810E94520F882309F4D2C00E94FD
:100E0000CD3C2B013C01F401828193810E94C30EF1
:100E1000461A570A680A790AF1EE4F16F3E95F0697
:100E2000F4E06F06710438F0F401828193810E942E
:100E3000520F81118DC0F401828193810E94E30ED3
:100E4000882309F4AEC0F401828193810E94D30EFD
:100E50005B016C01F401828193810E94CB0E2B0116
:100E60003C01F401828193810E943F0D9B01AC0102
:100E7000F4018281938129833A834B835C830E94AE
:100E8000370D8301720129813A814B815C810E9477
:100E9000E517AB01BC01F401828193810E94750FBB
:100EA000F401828193810E942B0D2B013C01F401FE
:100EB000828193810E94470D9B01AC01C301B20165
:100EC0000E94BE41181664F4F401828193810E944D
:100ED0002B0DAB01BC01F401828193810E94910F23
:100EE000F401828193810E94D30E2B013C01F40115
:100EF000828193810E94CB0EAB01BC0193018201E0
:100F0000C4010E942705F401828193810E94520F3F
:100F1000882369F1F401828193810E942B0D2B01BA
:100F20003C01F401828193810E94530D9B01AC012D
:100F3000C301B2010E94BE411816CCF440E050E05B
:100F4000BA01F401828193810E94670F61E010C0B1
:100F500040E050E0BA01F401828193810E94670F62
:100F600061E0F401828193810E94720F64CF60E09E
:100F7000F401828193810F900F900F900F90DF9179
:100F8000CF911F910F91FF90EF90DF90CF90BF9086
:100F9000AF909F908F907F906F905F904F900C9448
:100FA000720F0F900F900F900F90DF91CF911F91C4
:100FB0000F91FF90EF90DF90CF90BF90AF909F90F8
:100FC0008F907F906F905F904F900895CF93DF93B5
:100FD000EC018A819B810E94CB0EAB01BC018A810E
:100FE0009B810E94810F8A819B810E94D30EAB015D
:100FF000BC018A819B810E94890F40E050E0BA01C8
:101000008A819B81DF91CF910C94910F0F931F9355
:10101000CF93DF93EC018B0181960E94E32018A30C
:101020000F8FDF91CF911F910F9108958F929F9213
:10103000AF92BF92CF92DF92EF92FF920F931F93E6
:10104000CF93DF93CDB7DEB7E7970FB6F894DEBF47
:101050000FBECDBF4C01FC01168E158E148E138E63
:1010600063EB71E080EF9BE00E949638F401878D7E
:1010700090A10E944611AB01BC0189EF93E00E9450
:10108000112A64E670E080E090E00E94FC3CF401EC
:10109000878D90A10E94730D20E030E044E354E47A
:1010A0000E94F53E6B017C01F401608371838283B1
:1010B0009383878D90A10E946E0E9B01AC01C701A6
:1010C000B6010E94F53EF40164837583868397839D
:1010D000878D90A10E946D0DF401608771878287D2
:1010E000938711E0108B67E971E080EF9BE00E942D
:1010F0009638A401485F5F4FB4016C5F7F4F1F9229
:101100001F938FE38F9385E08F938EE18F9388EB0E
:101110008F938AE0A82E87EDB82E83EAC82E8DE340
:10112000D82E16E6E12EFE2C06EE1EE39401CE012B
:1011300001960E94192487E3FE013196D40191960D
:1011400001900D928A95E1F76AE771E080EF9BE0EC
:101150000E949638F1E28F0E911C00E010E024E826
:1011600032E440E050E0BA01C4010E94012364E689
:1011700070E0C4010E94B92262E671E080EF9BE05A
:101180000E9496380F900F900F900F900F900F9035
:10119000E7960FB6F894DEBF0FBECDBFDF91CF91BB
:1011A0001F910F91FF90EF90DF90CF90BF90AF9085
:1011B0009F908F900895089540E063E489EF93E055
:1011C0000E94A02869EF73E084ED93E00E94EC2E6A
:1011D00020E841E364ED73E082EB93E00C94672A2E
:1011E00082EB93E00C94A72A0F931F93CF93DF9386
:1011F000EC018C010F5E1F4F89EF93E00E945E2986
:10120000892B21F189EF93E00E9459292D8D3E8D84
:10121000FE01E20FF31F818B2F5F3F4F3E8F2D8F1B
:101220008A3029F08D3019F0213331052CF3FE017D
:10123000E20FF31F118AB80180EF9BE00E94A838EB
:101240001E8E1D8EF80111821082D6CFDF91CF91B4
:101250001F910F9108954F925F926F927F92AF927C
:10126000BF92CF92DF92EF92FF920F931F93CF9393
:10127000DF9300D000D000D0CDB7DEB75C01FC0119
:10128000878D90A10E94CF1085010F5D1F4F88238D
:1012900009F4DEC0C5010E94F40861E070E0C801F5
:1012A0000E94C723F501878D90A10E94730D20E055
:1012B00030E044E354E40E94F53E6B017C01F5010B
:1012C0006083718382839383878D90A10E946E0EC9
:1012D0009B01AC01C701B6010E94F53EF501648394
:1012E000758386839783C8010E94E420F5012485D5
:1012F00035854685578560857185828593850E94F1
:10130000F43E6B017C0120E030E0A9010E94BE4167
:10131000181624F0F7FAF094F7F8F094F501878D99
:1013200090A10E94AF0EBC01882777FD8095982F71
:101330000E945D409B01AC01C701B6010E94BE4105
:1013400018160CF09EC0F5018089078D10A1C0848D
:10135000D184E284F3844484558466847784A30131
:101360009201882309F1C701B6010E94BE411816F7
:101370000CF1A3019201C701B6010E94BB3F87FF98
:101380003FC0F501108AC8010E94B50EBC01882734
:1013900077FD8095982F0E945D409B01AC01C701AD
:1013A000B6010E94F43E27C0C701B6010E94BB3FB0
:1013B00087FF06C0F501C486D586E686F78620C07D
:1013C000A3019201C701B6010E94BE411816C4F4E0
:1013D00081E0F501808BC8010E94B50EBC01882711
:1013E00077FD8095982F0E945D409B01AC01C7015D
:1013F000B6010E94F53EF501648775878687978759
:10140000F5014485558566857785878D90A10E9475
:10141000E60FF501878D90A10E94BB0E2B013C01C8
:1014200020E030E048EC52E4F5016485758586855E
:1014300097850E94C9410E942A40AB01BC01E12C62
:10144000F12C9301820182EB93E00E94262D19C0BA
:1014500060E070E0C80126960FB6F894DEBF0FBEBC
:10146000CDBFDF91CF911F910F91FF90EF90DF9053
:10147000CF90BF90AF907F906F905F904F900C9403
:10148000C72326960FB6F894DEBF0FBECDBFDF91FF
:10149000CF911F910F91FF90EF90DF90CF90BF9071
:1014A000AF907F906F905F904F900895FC011082F5
:1014B0001182128213821482158216821782108A78
:1014C000118A128A138A148A158A168A178A108E2C
:1014D000118E128E138E148E40E050E064EB72E495
:1014E000458F568F678F70A340E050E064EB72EC3D
:1014F00041A352A363A374A340E050E064E373E408
:1015000045A356A367A370A740E050E064E373ECE3
:1015100041A752A763A774A715A683E482AB13AAB9
:1015200014AA15AA16AA40E050E064E072E447ABA2
:1015300050AF61AF72AF13AE40E050E068EC72E4C0
:1015400044AF55AF66AF77AFDF01A05CBF4F40E05F
:1015500050E060E271E44D935D936D937C9313973B
:1015600014964D935D936D937C931397149640E876
:1015700050E060E070E04D935D936D937C93139722
:10158000108611861286138614861586168617868F
:1015900014961C9211961D921D921D921C921397E7
:1015A00014961D921D921D921C921397149686E517
:1015B0008C9311961D921D921D921C921397149656
:1015C0001D921D921D921C92139714961D921D92AE
:1015D0001D921C92139714961D921D921D921C929F
:1015E000139714961C9211961C9211961C921196A8
:1015F0001C92A55ABF4F21E034E011963C932E93E4
:1016000012968FEF9FEF11969C938E93AC55B10974
:101610001C92A25ABF4F11963C932E93129611968C
:101620009C938E93AF55B1091C92AF59BF4F119641
:101630003C932E93129611969C938E93A256B109C9
:101640001D921D921D921C92139714961D921D922D
:101650001D921C921397149611961C921E9212962C
:1016600011961C921E92129611961C921E92129620
:101670001C9211961D921D921D921C921397149606
:101680001D921D921D921C921397149640E050E0FB
:1016900060E272E44D935D936D937C93139714967F
:1016A0001C9211961C92119611961C921E921296E3
:1016B00011961C921E92169640E050E060E87FE37F
:1016C0004D935D936D937C93139714961C92119692
:1016D00040EE53E964E070E04D935D936D937C932D
:1016E000139714961C9211961C92119683E690E023
:1016F00011969C938E9312961C92119640E050E4A2
:101700006CE176E44D935D936D937C9313971496FF
:1017100011961C921E92129681E090E011969C9375
:101720008E93129640E056E960E070E04D935D9331
:101730006D937C93139714964D935D936D937C9367
:101740001397149640E855E260E070E04D935D9386
:101750006D937C93139714964D935D936D937C9347
:10176000139714964D935D936D937C9313971896EE
:101770004D935D936D937C93139714961C92E05355
:10178000FF4F8DE090E09183808308950F931F9326
:10179000CF93DF938C01EB0162E272E0CE010E94F5
:1017A000543864E172E0CE010E9454386EE072E079
:1017B000CE010E945438F801ED55FF4F60817181D0
:1017C0004AE050E0CE010E945D3968E072E0CE014F
:1017D0000E945438F801EB55FF4F608171814AE057
:1017E00050E0CE010E945D3962E072E0CE010E94BD
:1017F0005438F801E955FF4F40815181628173816E
:101800002AE030E0CE010E9413396CEF71E0CE0186
:101810000E945438F801E555FF4F408151816281A3
:1018200073812AE030E0CE010E94133966EF71E047
:10183000CE010E945438F801E155FF4F408151819B
:10184000628173812AE030E0CE010E94133960EF9B
:1018500071E0CE010E945438F801ED54FF4F4081F1
:101860005181628173812AE030E0CE010E941339F8
:101870006AEE71E0CE010E945438F801ED53FF4F3B
:10188000608170E04AE050E0CE010E945D3964EE74
:1018900071E0CE010E945438F801EC53FF4F608193
:1018A00071814AE050E0CE010E945D396EED71E039
:1018B000CE010E945438F801EA53FF4F60817181D4
:1018C0004AE050E0CE010E945D3968ED71E0CE0142
:1018D0000E945438F801E853FF4F608171814AE05B
:1018E00050E0CE010E945D3962ED71E0CE010E94B0
:1018F0005438F801E653FF4F608171814AE050E0AF
:10190000CE010E945D396CEC71E0CE010E9454382A
:10191000F801E453FF4F608171814AE050E0CE014D
:101920000E945D3966EC71E0CE010E945438F801E6
:10193000E253FF4F608171814AE050E0CE010E9486
:101940005D3964EC71E0CE010E94963880E090E051
:10195000DF91CF911F910F9108950F931F93CF9314
:10196000DF93EC01FC01E053FF4F408160E070E049
:101970008EE29BE00E941F31FE01EF52FF4F40813B
:1019800061E070E08EE29BE00E941F31C558DF4F9E
:1019900064E070E049918B010F5F1F4F8EE29BE086
:1019A0000E941F310935110511F0B801F3CFDF9105
:1019B000CF911F910F910895EF92FF920F931F9374
:1019C000CF93DF9300D0CDB7DEB78C0160E070E03D
:1019D0008EE29BE00E941C31898361E070E08EE220
:1019E0009BE00E941C318A83F801E053FF4F29815C
:1019F0003A81808191812817390719F0C8010E9426
:101A0000AD0C05581F4F64E070E07B018FEFE81AC2
:101A1000F80A8EE29BE00E941C31F80181938F014D
:101A2000F9E5EF16F10411F0B701EFCF0F900F9029
:101A3000DF91CF911F910F91FF90EF900895FC01DE
:101A400060817181828193810895FC016481758137
:101A5000868197810895FC016489758986899789B3
:101A60000895FC0165A176A187A190A508958558E8
:101A70009F4FFC016081718182819381089581581B
:101A80009F4FFC0160817181828193810895FC01E7
:101A9000608D718D828D938D0895FC01658D768D9D
:101AA000878D90A108958D579F4FFC0160817181B2
:101AB000828193810895FC0160897189828993896B
:101AC0000895FC0161A172A183A194A10895FC0174
:101AD00061A572A583A594A50895FC0167A970ADC1
:101AE00081AD92AD0895FC0163A974A985A996A959
:101AF0000895FC0122A9273559F4EA58FF4F608167
:101B00007181882777FD8095982F0E945D40089508
:101B1000FC0160857185828593850895EF92FF921F
:101B20000F931F93CF93DF938C01EB016FE772E06C
:101B3000CE010E94543861E772E0CE010E94543811
:101B4000F80165A570E04AE050E0CE010E945D39E1
:101B50006BE672E0CE010E945438F80162A9CE0112
:101B60000E947B38F80185A58823A9F165E672E01B
:101B7000CE010E945438F80143A954A965A976A959
:101B800022E030E0CE010E94763A6FE572E0CE01AD
:101B90000E945438C8010E94790DAB01BC0122E0BB
:101BA00030E0CE010E94763A69E572E0CE010E94F3
:101BB000543820E030E044E052E4F80167A970AD09
:101BC00081AD92AD0E94F43EAB01BC0122E030E059
:101BD000CE010E94763A63E572E0CE010E9454384D
:101BE0007801F7E8EF0EF11CF701608170E04AE040
:101BF00050E0CE010E945D396DE472E0CE010E949A
:101C00005438F801ED57FF4F408151816281738153
:101C100022E030E0CE010E94763AF70180818823ED
:101C200089F167E472E0CE010E945438F801E5586A
:101C3000FF4F408151816281738122E030E0CE010B
:101C40000E94763A61E472E0CE010E945438F801B5
:101C5000E158FF4F408151816281738122E030E081
:101C6000CE010E94763A6BE372E0CE010E945438B6
:101C7000F801448955896689778922E030E0CE01F0
:101C80000E94763A65E372E0CE010E945438F80172
:101C9000E256FF4F608170E04AE050E0CE010E94C2
:101CA0005D396FE272E0CE010E945438F801E456CB
:101CB000FF4F608171814AE050E0CE010E945D39A2
:101CC0006DE272E0CE010E94963880E090E0DF91F4
:101CD000CF911F910F91FF90EF900895CF92DF92D7
:101CE000EF92FF92CF93DF93EC010E94790D9B015D
:101CF000AC016BA97CA98DA99EA90E94F43E6B0141
:101D00007C0120E030E044E353E40E94BE41181619
:101D10007CF020E030E044E353ECC701B6010E94C0
:101D2000BB3F87FF0AC020E030E044EB53E408C02B
:101D300020E030E044EB53EC03C020E030E0A901A8
:101D4000C701B6010E94F53E6EA77FA788AB99AB8D
:101D5000DF91CF91FF90EF90DF90CF90089587575C
:101D60009F4FFC0180819181089585579F4FFC0111
:101D700080819181089583579F4FFC01608171811B
:101D8000828193810895835B9F4FFC016081718103
:101D90008281938108958A5A9F4FFC0160817181ED
:101DA000828193810895865A9F4FFC0160817181E1
:101DB0008281938108958F569F4FFC0160817181CC
:101DC0008281938108958B5A9F4FFC0180810895F1
:101DD000FC0160857185828593850895FC01648589
:101DE00075858685978508958C539F4FFC0180816A
:101DF000918108958C539F4FFC01718360830895F6
:101E00008A539F4FFC0180819181089588539F4F91
:101E1000FC0180819181089588539F4FFC0171835B
:101E20006083089586539F4FFC01808191810895BE
:101E300084539F4FFC0180819181089584539F4F6B
:101E4000FC0171836083089582539F4FFC01808160
:101E5000918108958D559F4FFC0180819181089556
:101E600084569F4FFC018081918108958A589F4F2D
:101E7000FC0180819181089580599F4FFC01608110
:101E8000718182819381089581569F4FFC01608109
:101E900071818281938108958C589F4FFC018081CC
:101EA0009181089589579F4FFC0180810895845B3B
:101EB0009F4FFC018081089582569F4FFC018081D5
:101EC0000895FC0140835183628373830895FC016C
:101ED0004483558366837783089589579F4FFC0118
:101EE00060830895FC01648F0895FC01448B558B39
:101EF000668B778B0895FC0145A356A367A370A753
:101F0000089585589F4FFC014083518362837383FA
:101F1000089581589F4FFC014083518362837383EE
:101F20000895FC01408F518F628F738F0895FC01DB
:101F3000458F568F678F70A308958D579F4FFC0173
:101F400040835183628373830895FC01408B518BDE
:101F5000628B738B0895FC0141A352A363A374A306
:101F60000895FC0141A752A763A774A70895CF93D2
:101F7000DF93EC01673511F0633429F56AAB6735FF
:101F800081F4FE01EA58FF4F60817181882777FD57
:101F90008095982F0E945D406BAB7CAB8DAB9EAB68
:101FA0000AC0633441F4488559856A857B854BAB0B
:101FB0005CAB6DAB7EAB40E050E064E072E44FABF5
:101FC00058AF69AF7AAFDF91CF910895FC0147AB6D
:101FD00050AF61AF72AF0895CF93DF93EC01CB01A7
:101FE000BA010E942A40CB0188599E4F68E671E0F1
:101FF0000E94AF42BC01882777FD8095982F0E94F0
:102000005D406BAB7CAB8DAB9EABDF91CF91089508
:102010008E599F4FFC0140835183628373830895DF
:10202000845B9F4FFC0160830895835B9F4FFC019D
:10203000408351836283738308958A5A9F4FFC01C2
:1020400040835183628373830895865A9F4FFC01B6
:1020500040835183628373830895825A9F4FFC01AA
:10206000408351836283738308958B5A9F4FFC0191
:10207000608308958F5A9F4FFC0140835183628390
:1020800073830895FC0140875187628773870895A1
:10209000FC0144875587668777870895CF93DF9340
:1020A0001F92CDB7DEB76983298187599F4FFC0105
:1020B00020830F90DF91CF910895CF93DF931F92EC
:1020C000CDB7DEB76983298186599F4FFC012083F4
:1020D0000F90DF91CF910895CF93DF931F92CDB7EB
:1020E000DEB76983298185599F4FFC0120830F90BA
:1020F000DF91CF9108958D559F4FFC0171836083CF
:10210000089582569F4FFC016083089584569F4F27
:10211000FC017183608308958A589F4FFC0171838D
:102120006083089588589F4FFC01718360830895F0
:1021300080599F4FFC0140835183628373830895CC
:1021400084599F4FFC0140835183628373830895B8
:10215000FC01E658FF4F20812223F9F0739720817C
:102160002223D9F0319720812223B9F0FC01248D5C
:10217000222399F023AD222381F0E859FF4F2081DB
:10218000222359F031962081222339F03196208183
:10219000222319F031968081089580E00895FC0192
:1021A00085A508951F93CF93DF93EC01162F6AA99D
:1021B0000E94B70F1DA7DF91CF911F9108958C58F2
:1021C0009F4FFC0171836083089586589F4FFC01E7
:1021D000608308958B559F4FFC0180819181089504
:1021E0008B559F4FFC0171836083089589559F4FE4
:1021F000FC016081718182819381089589559F4F8F
:10220000FC014083518362837383089585559F4FFA
:10221000FC016081718182819381089585559F4F72
:10222000FC014083518362837383089581559F4FDE
:10223000FC016081718182819381089581559F4F56
:10224000FC01408351836283738308958D549F4FB3
:10225000FC01608171818281938108958D549F4F2B
:10226000FC014083518362837383089589549F4F97
:10227000FC016081718182819381089585549F4F13
:10228000FC016081718182819381089581549F4F07
:10229000FC01608171818281938108958D539F4FEC
:1022A000FC01808108958D539F4FFC016083089548
:1022B00081E08093B00A8091AE0A9091AF0A0196B6
:1022C0009093AF0A8093AE0A8091AE0A9091AF0AC4
:1022D00064E170E00E94AF429093AF0A8093AE0A2F
:1022E00008958BEF94E00C94CF1D8BEF94E00C9449
:1022F000111E8CED99E00E94DC0C8CED99E00E949F
:10230000F610AB01BC0126E080EF9BE00E94E434B4
:102310006AEB73E080EF9BE00E94963885EF94E0D3
:102320000E94841A6FE973E080EF9BE00E945438AA
:102330008CED99E00E940611AB01BC012AE030E06F
:1023400080EF9BE00E9465398CED99E00E940611B8
:10235000AB01BC0126E08DE89CE00E94E4348CEDEA
:1023600099E00E944E11882361F06FE773E080EFDF
:102370009BE00E94963827E040EC52E160E070E07C
:1023800019C063E673E080EF9BE00E9454388CED47
:1023900099E00E941611AB01BC012AE030E080EF09
:1023A0009BE00E9465398CED99E00E941611AB010B
:1023B000BC0126E08AE29DE00E94E43467E473E019
:1023C00080EF9BE00E9454388CED99E00E9426112A
:1023D000AB01BC012AE030E080EF9BE00E94653950
:1023E0008CED99E00E942611AB01BC0126E087EC40
:1023F0009DE00E94E43465E373E080EF9BE00E947F
:10240000963868EE73E080E090E00E94FC3C61E06A
:1024100083E40E94FF3D60E273E080EF9BE00E9456
:10242000963864E670E080E090E00E94FC3C61E059
:1024300083E40E94383E6BE073E080EF9BE00E94F3
:1024400096386FEE72E080EF9BE00E9454388CED7E
:1024500099E00E943611AB01BC012AE030E080EF28
:102460009BE00E9465398CED99E00E943611AB012A
:10247000BC0187EE94E00E94112A64E670E080E0DF
:1024800090E00E94FC3C6FED72E080EF9BE00E94C8
:10249000963860E080E30E94FF3D61E08EE20E949A
:1024A000FF3D66EB72E080EF9BE00E9454388CEDBC
:1024B00099E00E943E11AB01BC012AE030E080EFC0
:1024C0009BE00E9465398CED99E00E943E11AB01C2
:1024D000BC018BE999E00E944C1B8FE894E00E94BC
:1024E000160869EA72E080EF9BE00E94963860E08F
:1024F00083E00E94FF3D43E050E061E771E181E04D
:102500000E94783A60E082E00E94FF3D43E050E0A4
:1025100065E771E180E00E94783A6BE972E080EF54
:102520009BE00E94963848E551E164E670E080E067
:1025300090E00E9481300E948D306AE872E080EF66
:102540009BE00C9496386F927F928F929F92AF92FD
:10255000BF92CF92DF92EF92FF920F931F93CF9390
:10256000DF9300D000D01F92CDB7DEB7ADB6BEB6B8
:102570006BE673E00E94AC447C01009709F428C22A
:10258000FC0101900020E9F78F0101501109081B9F
:10259000190B0430110508F41BC2F7018081980162
:1025A0002450310969018DB69EB6833209F0ADC160
:1025B00044E050E0B701CE0101960E94C9441D825B
:1025C000380135E0631A71088DB79EB78C199D09E3
:1025D0000FB6F8949EBF0FBE8DBF0DB71EB70F5F2D
:1025E0001F4FB7016B5F7F4FA301C8010E94B0442A
:1025F000F801E60DF71D108269E172E0CE01019647
:102600000E94B944892BB1F4C8010E94674461E07B
:10261000892B09F460E08CED99E00E946D0FC801F0
:102620000E946744019709F0CEC18BE894E00E94B4
:10263000E607C9C16EE172E0CE0101960E94B9447D
:10264000892BB1F48CED99E00E94530D6B017C0154
:10265000C8010E9463449B01AC01C701B6010E94FE
:10266000F53EAB01BC018CED99E00E949D0FABC122
:1026700063E272E0CE0101960E94B944892B51F4C5
:10268000C8010E946344AB01BC018CED99E00E943B
:10269000810F99C168E272E0CE0101960E94B944AF
:1026A000892B51F4C8010E946344AB01BC018CED3D
:1026B00099E00E94890F87C16DE272E0CE01019618
:1026C0000E94B944892B61F4C8010E94674461E00B
:1026D000892B09F460E08CED99E00E94D21069C169
:1026E00062E372E0CE0101960E94B944892BC1F4E5
:1026F0008CED99E00E94730D6B017C01C8010E9472
:1027000085440E945D409B01AC01C701B6010E9457
:10271000F53EAB01BC018CED99E00E94EC0F49C184
:1027200067E372E0CE0101960E94B944892B39F427
:10273000F80160818CED99E00E94B70F3AC16CE31B
:1027400072E0CE0101960E94B944892B61F4C80160
:102750000E94674461E0892B09F460E08CED99E008
:102760000E94811030C161E472E0CE0101960E94A6
:10277000B944892B49F4C8010E946744BC018CED1F
:1027800099E00E9486101FC166E472E0CE010196B6
:102790000E94B944892B49F4C8010E946744BC01D6
:1027A0008CED99E00E947B100EC16BE472E0CE01CB
:1027B00001960E94B944892B49F4C8010E946744DC
:1027C000BC018CED99E00E94FA0EFDC060E572E05C
:1027D000CE0101960E94B944892B49F4C8010E9498
:1027E0006744BC018CED99E00E940C0FECC065E5DC
:1027F00072E0CE0101960E94B944892B49F4C801C8
:102800000E946744BC018CED99E00E941E0FDBC062
:102810006AE572E0CE0101960E94B944892B39F431
:1028200060EF7BE08CED99E00E94C60BC2C06FE5C3
:1028300072E0CE0101960E94B944892B49F4C80187
:102840000E946744BC018CED99E00E94F010BBC06F
:1028500064E672E0CE0101960E94B944892B51F4DE
:10286000C8010E948544AB01BC018CED99E00E9437
:10287000FE10A9C069E672E0CE0101960E94B9443B
:10288000892B51F4C8010E948544AB01BC018CED39
:1028900099E00E940E1197C06EE672E0CE0101969B
:1028A0000E94B944892B51F4C8010E948544AB01B0
:1028B000BC018CED99E00E941E1185C063E772E0B7
:1028C000CE0101960E94B944892B51F4C8010E949F
:1028D0008544AB01BC018CED99E00E942E1173C0C0
:1028E00068E772E0CE0101960E94B944892B09F095
:1028F00060C0C8010E94674461E0892B09F460E070
:102900008CED99E00E9453115EC043E050E0B701A6
:10291000CE0101960E94C9441C82035011092DB7B3
:102920003EB7201B310B0FB6F8943EBF0FBE2DBF34
:102930000DB71EB70F5F1F4FB7016C5F7F4FA6012A
:10294000C8010E94B044F801EC0DFD1D10826DE736
:1029500072E0CE0101960E94B944892B49F4C80166
:102960000E946344AB01BC018CED99E00E944210CF
:1029700061E872E0CE0101960E94B944892B49F4C6
:10298000C8010E946344AB01BC018CED99E00E9438
:10299000481065E872E0CE0101960E94B944892B87
:1029A00041F4C8010E946744BC018CED99E00E948B
:1029B00092100FB6F8949EBE0FBE8DBE6BE673E00C
:1029C00080E090E0D7CD8CED99E00E94AD0CF1CF86
:1029D0000FB6F894BEBE0FBEADBE0F900F900F9015
:1029E0000F900F90DF91CF911F910F91FF90EF907B
:1029F000DF90CF90BF90AF909F908F907F906F901F
:102A00000895CF93DF93DC01FC0101900020E9F7EA
:102A1000E81BF90B3297EC01219680E09E012A1BFE
:102A20003B0B2E173F0718F499918927F7CFDF91B9
:102A3000CF9108951F93CF93DF93CDE0D4E014E6B8
:102A400080EF9BE00E947933892B61F180EF9BE05E
:102A50000E94943320910B0430910C04F901E35F40
:102A6000FB4F80832F5F3F4F30930C0420930B0468
:102A70008A3029F08D3019F0233631050CF3F90135
:102A8000E35FFB4F10826CE28DE094E00E94A312A2
:102A900010920C0410920B04FE01812F11928A9562
:102AA000E9F7CECFDF91CF911F9108958DE89CE09B
:102AB0000E947933892BF9F08DE89CE00E949433D1
:102AC000682F85EF94E00E94CC1880930A04882335
:102AD00069F382E398E00E941E25BC018BE999E02E
:102AE0000E945D1B82E398E00E941E25BC0180EFDE
:102AF0009BE00C94A83808958AE29DE00E94793307
:102B0000892B79F18CED99E00E944E11882351F0C8
:102B10008AE29DE00E949433682F81E794E00E944E
:102B20007E1CEACF8AE29DE00E949433682F8AE9F6
:102B300096E00E94B41A809309048823E9F28AE996
:102B400096E00E942C1BBC018BE999E00E945D1B62
:102B50008AE996E00E942C1BBC0180EF9BE00C945C
:102B6000A838089587EC9DE00E947933892BF9F00D
:102B700087EC9DE00E949433682F8EEC95E00E94D4
:102B8000B41A80930804882369F38EEC95E00E94C0
:102B90002C1BBC018BE999E00E945D1B8EEC95E03B
:102BA0000E942C1BBC0180EF9BE00C94A838089578
:102BB00087EE94E00E945E29892BF9F087EE94E07D
:102BC0000E945929682F82E095E00E94B41A8093F0
:102BD0000704882369F382E095E00E942C1BBC0166
:102BE0008BE999E00E945D1B82E095E00E942C1B1E
:102BF000BC0180EF9BE00C94A83808958091B00A46
:102C0000882309F444C08FE894E00E942B09809146
:102C1000AE0A9091AF0A8091AE0A9091AF0A65E03A
:102C200070E00E94AF42892BB1F48BEF94E00E94D8
:102C3000751E8BEF94E00E94041F8BE999E00E94BF
:102C40005F1B8DEF94E00E942F0460EF7BE08CED22
:102C500099E00E948E0D8091AE0A9091AF0A6AE0D1
:102C600070E00E94AF42892B81F48BE894E00E94CF
:102C7000E2068DEF94E00E948C048DEF94E00E94B8
:102C8000C6048BE999E00E94D51B1092B00A0C94FF
:102C9000D8158CED99E00E94560A10929E09109268
:102CA0009D0988EE93E0A0E0B0E080939F099093A7
:102CB000A009A093A109B093A20987E992E090939B
:102CC0009C0980939B098CED99E09093A8098093CF
:102CD000A70960E070E082E398E00E94942460E03D
:102CE00070E086E697E00E94AB1A60E070E08AE947
:102CF00096E00E94AB1A60E070E08EEC95E00E94D6
:102D0000AB1A60E070E082E095E00E94AB1A6CEDD7
:102D100079E08DEF94E00E94E7036CED79E08BEFB2
:102D200094E00E948F1C4CED59E062E378E085EF5F
:102D300094E00E94D61641E063E487EE94E00E949E
:102D4000A0286CED79E08FE894E00E9406086CED15
:102D500079E08BE894E00E94BA064CED59E06AE213
:102D60007DE081E794E00C94761C8BE894E00E946F
:102D70001A058FE894E00E94DB0885EF94E00E943A
:102D8000C9168DEF94E00E94DA038BE999E00C9468
:102D9000371B2FE832E0FC013183208308952FE8B0
:102DA00032E0FC01318320830C94813CFC018FE8EC
:102DB00092E0918380835583448373836283089573
:102DC000CF92DF92EF92FF921F93CF93DF93162F54
:102DD00060E0812F0E94FF3D61E0812F0E94383E1C
:102DE000C0E0D4E080E1C82E87E2D82EE12CF12C9F
:102DF00028E438EE41E050E060E0812F0E946E3E12
:102E000016161706180619063CF46C157D058E0576
:102E10009F0514F46B017C01219751F76AE675E078
:102E200080EF9BE00E9454382AE030E0B701A60111
:102E300080EF9BE00E9465398CE0C816D104E10464
:102E4000F104F4F184E1C816D104E104F104ECF1D9
:102E50008EE1C816D104E104F104E4F188E2C81659
:102E6000D104E104F104DCF18CE3C816D104E104DF
:102E7000F104D4F180E5C816D104E104F104CCF1E9
:102E800086E9C816D104E104F104C4F18CE2C81645
:102E900081E0D806E104F104B4F188E5C81682E0C7
:102EA000D806E104F104A4F180EBC81684E0D8064A
:102EB000E104F10494F560EB74E080E090E030C050
:102EC00060E072EC81E090E02BC060E071EE80E0A9
:102ED00090E026C060E076E980E090E021C060E804
:102EE00070E780E090E01CC060E07BE480E090E070
:102EF00017C060E478E380E090E012C060E875E21B
:102F000080E090E00DC060EC72E180E090E008C0ED
:102F100060E679E080E090E003C060E070E0CB0123
:102F2000DF91CF911F91FF90EF90DF90CF900895A8
:102F3000CF92DF92EF92FF927C0166E575E080EF21
:102F40009BE00E94543863E170E0C7010E94E016E4
:102F50006B017C011616170618061906C4F46FE4F7
:102F600075E080EF9BE00E9454382AE030E0B70122
:102F7000A60180EF9BE00E94653926E0B701A6011B
:102F80008DE89CE00E94E434B601C70119C068E4F2
:102F900075E080EF9BE00E94543863E375E080EFBA
:102FA0009BE00E94963826E040EC52E160E070E041
:102FB0008DE89CE00E94E43460EC72E180E090E0F7
:102FC000FF90EF90DF90CF9008954F925F926F92B5
:102FD0007F928F929F92AF92BF92CF92DF92EF92A9
:102FE000FF920F931F93CF93DF93CDB7DEB7609718
:102FF0000FB6F894DEBF0FBECDBF69837A838B8393
:103000009C83CA01B90127013801A60195010E94DC
:10301000F43E25E33AEF4EE85CE30E94C9416B01C0
:103020007C010E942C426D877E878F87988BC70119
:10303000B6010E94BF3F6D837E838F83988725E30F
:103040003AEF4EE85CE369817A818B819C810E9432
:10305000C9416B017C0125E33AEF4EE85CE3C30113
:10306000B2010E94C9412B013C01C701B6010E9477
:103070002C424B015C01C701B6010E94BF3F69832E
:103080007A838B839C83C301B2010E942C4269879F
:103090007A878B879C87C301B2010E94BF3F6B0177
:1030A0007C0129853A854B855C8569817A818B8194
:1030B0009C810E94C9412B013C01A7019601C501D9
:1030C000B4010E94C9412D813E814F8158850E94E3
:1030D000C9419B01AC01C301B2010E94F43E9B01B6
:1030E000AC010E94C9412B013C012D853E854F85D5
:1030F0005889C701B6010E94C9419B01AC010E94D9
:10310000C9419B01AC01C301B2010E94F53E0E947E
:1031100036422B013C0129853A854B855C85C501EA
:10312000B4010E94C9414B015C01A701960169816C
:103130007A818B819C810E94C9412D813E814F8182
:1031400058850E94C9419B01AC01C501B4010E9490
:10315000F53E9B01AC01C301B2010E94683F26E726
:103160003BE742EC5AE40E94C94160960FB6F894DE
:10317000DEBF0FBECDBFDF91CF911F910F91FF90AA
:10318000EF90DF90CF90BF90AF909F908F907F9007
:103190006F905F904F900895CF93DF93EC018A81F9
:1031A0009B810E94BD2561E0892B09F460E08C8140
:1031B0009D810E9410108C819D810E94570F882351
:1031C00069F18A819B810E94F524682F8C819D8101
:1031D0000E9435108A819B810E94F5248134F1F48C
:1031E00060E070E08A819B810E942025FC01828141
:1031F0008235A1F060E070E08A819B810E942025E9
:10320000FC0183818D3451F060E070E08A819B8104
:103210000E942025FC018481833431F48C819D81BE
:10322000DF91CF910C94570F0E94CD3CAB01BC01B4
:103230008C819D810E9415108A819B810E94182596
:10324000AB01BC018C819D810E9408108A819B8109
:103250000E94F824AB01BC018C819D810E941D104D
:103260008A819B810E94FE24AB01BC018C819D81DF
:103270000E9425108C819D810E94DB0EAB01BC0158
:103280008A819B810E940425AB01BC018C819D81B8
:103290000E942D108A819B810E94EF24AB01BC010A
:1032A0008C819D810E943A10B9CFDF92EF92FF92FC
:1032B0000F931F93CF93DF93CDB7DEB7A8970FB6C9
:1032C000F894DEBF0FBECDBF8C016DE175E080EFDD
:1032D0009BE00E949638F801848195810E94EA1053
:1032E000892B31F466E075E080EF9BE00E94963810
:1032F000F801848195810E94EA10019709F07FC04E
:103300006FEE74E080EF9BE00E94963861EE74E00F
:103310008DE89CE00E94963869EC74E08DE89CE0B2
:103320000E94963861EB74E08DE89CE00E9496382C
:1033300069E974E08DE89CE00E94963861E874E0E9
:103340008DE89CE00E94963869E674E08DE89CE088
:103350000E94963861E574E08DE89CE00E94963802
:1033600063E474E08DE89CE00E9496381AA219A2EA
:1033700081E693E098A38F8FCE0101967C019CA3F8
:103380008BA38EE190E098A78FA3CE014F960E9469
:10339000D82067E374E0CE014F960E945438F801BC
:1033A000848195810E940611AB01BC012AE030E0C6
:1033B000CE014F960E9413396FE274E0CE014F9612
:1033C0000E945438C7010E940115D82EFFE0F8175B
:1033D00028F060E3CE014F960E947B3840E150E038
:1033E0006D2DCE014F960E948439B7018DE89CE087
:1033F0000E94A838B70180EF9BE00E94A838F8012E
:10340000848195810E94EA10029709F055C066E117
:1034100074E080EF9BE00E94963865E074E08DE8F0
:103420009CE00E94963863ED73E08DE89CE00E947A
:1034300096381AA219A281E693E098A38F8FCE0145
:1034400001967C019CA38BA38EE190E098A78FA3AB
:10345000CE014F960E94D82069EC73E0CE014F96C2
:103460000E945438F801848195810E940611AB01B5
:10347000BC012AE030E0CE014F960E94133969E882
:1034800072E0CE014F960E947938C7010E94011563
:10349000182F803128F460E3CE014F960E947B38CC
:1034A00040E150E0612FCE014F960E948439B70170
:1034B0008DE89CE00E94A838A8960FB6F894DEBF6D
:1034C0000FBECDBFDF91CF911F910F91FF90EF9075
:1034D000DF9008951092B40A1092B30A81E693E047
:1034E0009093B20A8093B10A8BEB9AE09093B60A5C
:1034F0008093B50A88E290E09093BA0A8093B90A63
:1035000081EB9AE00C94D820CF93DF93EC010E94DA
:103510009817AB01BC018C819D810E940E118C819A
:103520009D810E94AD0CCE010E9455198DE89CE052
:103530000E9406348DE89CE00E9446358C819D8176
:103540000E940611AB01BC0126E08DE89CE0DF91F2
:10355000CF910C94E434FC01E853FF4F11821082A8
:1035600032961182108208950F931F93CF93DF93A9
:10357000DC01A853BF4F4D915C911197FC01E653BC
:10358000FF4F4236510514F0118210826A3011F05B
:103590006D3011F411821082643261F424E6EC0182
:1035A00019922A95E9F7EC01688381E090E08D9308
:1035B0009C9345C02081318121303105E9F02CF404
:1035C0002115310509F442C03DC02230310561F1B9
:1035D00023303105B9F5FC01E40FF51F60834E5F20
:1035E0005F4F4D935C931182BC018C599F4F0E9499
:1035F000C24421E030E02AC08A010F5F1F4F1196BC
:103600001C930E939C01240F351FE90168834E5FC4
:103610005F4FE801C80FD91F4D935C9368836A32EE
:1036200099F482E090E00BC09A012F5F3F4F2D93F9
:103630003C93DC01A40FB51F6C9383E090E0918371
:10364000808302C01182108220E030E0C901DF9146
:10365000CF911F910F9108958C599F4F0895862FF8
:103660000E94A93181E090E008950C946C3223E827
:1036700033E0FC01318320830C946533CF93DF93D7
:10368000EC0183E893E0998388830E946533CE013F
:10369000DF91CF910C94813C9A01AB01CA01B90131
:1036A00096958795779567957C5D8B409F4F0E9497
:1036B000C342CA01B9010C9457310C94A838EF9257
:1036C000FF920F931F93CF93DF93CDB7DEB72A9767
:1036D0000FB6F894DEBF0FBECDBF8C017C018EE02B
:1036E000E80EF11C1C821B8281E693E09A83898399
:1036F000FE82ED828EE190E09A878987CE01019665
:103700000E94D8206BE975E0CE0101960E945438E2
:10371000F801848595850E94360F4AE050E0BC018F
:10372000CE0101960E945D3965E975E0CE010196F2
:103730000E945438F801848595850E943C0FAB01A6
:10374000BC0122E030E0CE0101960E94763A6FE89B
:1037500075E0CE0101960E945438C7010E94011500
:10376000005C1F4FF8018083803128F460E3CE01B4
:1037700001960E947B3840E150E0F8016081CE0163
:1037800001960E948439B70180EF9BE00E94A8381F
:103790002A960FB6F894DEBF0FBECDBFDF91CF9152
:1037A0001F910F91FF90EF900895AF92BF92CF922B
:1037B000DF92EF92FF920F931F93CF93DF93CDB7DA
:1037C000DEB72A970FB6F894DEBF0FBECDBF8C01CF
:1037D000FC01848595850E94EE0E20E030E0A90171
:1037E0000E94BB3F882309F470C05801FCE2AF0E71
:1037F000B11C1C821B8281E693E09A838983BE827E
:10380000AD8284E190E09A878987CE0101960E947B
:10381000D82067E875E0CE0101960E945438F8017F
:10382000848595850E94E80E6B017C01F8018485F2
:1038300095850E94EE0E9B01AC01C701B6010E9466
:10384000F43EAB01BC0122E030E0CE0101960E94C3
:10385000763A63E875E0CE0101960E94543878010B
:10386000F0E4EF0EF11CF701108281E090E0F50129
:1038700001900020E9F7EA19FB0932978E179F079C
:1038800050F4F801E80FF91F24A5F7013081232730
:1038900020830196ECCFF7018081803128F460E32A
:1038A000CE0101960E947B3840E150E0F701608133
:1038B000CE0101960E948439B50180EF9BE00E9401
:1038C000A838B501C8010E94A8382A960FB6F89406
:1038D000DEBF0FBECDBFDF91CF911F910F91FF9043
:1038E000EF90DF90CF90BF90AF900895FC01578B81
:1038F000468B718F608F118210820895FC01A08128
:10390000B181A80FB91F12966C9380819181439762
:103910002CF4808191810196918380830895CF93C7
:10392000DF93EB01FC01718360830E94D93C6093BB
:10393000150B7093160B8093170B9093180B4091F7
:10394000150B5091160B6091170B7091180B40934B
:10395000110B5093120B6093130B7093140B109276
:10396000FD0A1092FE0A1092FF0A1092000B81E0ED
:103970008093FC0A1092E60A1092E70A8091E30A0B
:103980009091E40A20E03091E50A231760F4FC01ED
:1039900034E0239FE00DF11D112410821182128268
:1039A00013822F5FF0CFCE010E94300F8436910535
:1039B0003CF063E670E0CE01DF91CF910C9486106D
:1039C000DF91CF910895CF92DF92EF92FF920F9304
:1039D0001F93CF93CB01BA0197FF09C090958095B3
:1039E000709561957F4F8F4F9F4FC0E001C0C1E040
:1039F000683621E072078105910534F028E631E050
:103A000040E050E00E94E542653B7105810591056B
:103A100034F0645B71098109910921E0C2276B359B
:103A200071058105910564F004EB10E020E030E0C1
:103A300068017901C61AD70AE80AF90AC701B6016E
:103A4000660F771FFB01E955FD4F60817181CC2323
:103A500019F080E090E00CC0CB01A0E0B0E09C0148
:103A6000AD0166277727CB01621B730B840B950B87
:103A7000CF911F910F91FF90EF90DF90CF9008951D
:103A8000465A5F4F6F4F7F4F0C94E31C4F925F92EB
:103A90006F927F928F929F92AF92BF92CF92DF925E
:103AA000EF92FF920F931F93CF93DF938C0160905F
:103AB000E60AC091E30AD091E40A712CC12CD12C02
:103AC0007601812C912C54017614C1F048815981E2
:103AD0006A817B81C8010E94401D860E971EA81E28
:103AE000B91E4991599169917991C8010E94E31CCD
:103AF000C60ED71EE81EF91E7394E6CF81149104FA
:103B0000A104B10429F4C114D104E104F104A1F128
:103B1000662D70E080E090E00E945D402B013C014A
:103B2000C501B4010E945D4020E830E040E857E361
:103B30000E94C941A30192010E94C23F4B015C0156
:103B4000C701B6010E945D4020E830E040E857E33D
:103B50000E94C941A30192010E94C23FA5019401A4
:103B60000E94683F21EE3EE245E652E40E94C941D0
:103B70000E942A40CB0102C080E090E0DF91CF910B
:103B80001F910F91FF90EF90DF90CF90BF90AF907B
:103B90009F908F907F906F905F904F9008950F93BC
:103BA0001F930E94CD3C00911D0B10911E0B209184
:103BB0001F0B3091200B601B710B820B930B60313C
:103BC00071058105910550F18091FC0A8823E1F08F
:103BD0008091150B9091160BA091170BB091180BBB
:103BE0008093110B9093120BA093130BB093140BB3
:103BF0000E94D93C6093150B7093160B8093170BA2
:103C00009093180B1092FC0A0E94CD3C60931D0B00
:103C100070931E0B80931F0B9093200B1F910F919D
:103C200008950F931F930E94CD3C0091190B1091A2
:103C30001A0B20911B0B30911C0B601B710B820B1C
:103C4000930B603171058105910508F44BC080919B
:103C5000FC0A81113DC08091050B9091060BA0914B
:103C6000070BB091080B8093010B9093020BA0936C
:103C7000030BB093040B0E94D93C6093050B709327
:103C8000060B8093070B9093080B8091110B90917A
:103C9000120BA091130BB091140B80930D0B90930A
:103CA0000E0BA0930F0BB093100B8091150B9091FE
:103CB000160BA091170BB091180B8093090B9093E2
:103CC0000A0BA0930B0BB0930C0B81E08093FC0AC2
:103CD0000E94CD3C6093190B70931A0B80931B0BC1
:103CE00090931C0B1F910F910895CF92DF92EF924A
:103CF000FF92F89480910D0B90910E0BA0910F0BF9
:103D0000B091100BC090090BD0900A0BE0900B0BF8
:103D1000F0900C0B4091010B5091020B6091030B42
:103D20007091040B78948C159D05AE05BF0508F0C5
:103D300066C0C81AD90AEA0AFB0A28E9C2162AE3A9
:103D4000D206E104F10408F45AC0C092FD0AD092F0
:103D5000FE0AE092FF0AF092000B9A01AB01281BC9
:103D6000390B4A0B5B0B233331054105510508F430
:103D700046C02C153D054E055F0508F040C0A8E67D
:103D8000B1E00E940A43A70196010E94C34228366F
:103D900081E038074105510590F58091E70A8F5F72
:103DA0008093E70A9091E60A6091E50AE091E30AC0
:103DB000F091E40A9617B0F481E0890F8093E60A47
:103DC00084E0989FE00DF11D11242083318342830C
:103DD00053838091E70A6091E60A0E94A342909380
:103DE000E70A0DC00E94A3429093E70A84E0989FDF
:103DF000E00DF11D11242083318342835383FF9012
:103E0000EF90DF90CF9008954F925F926F927F92E4
:103E10008F929F92AF92BF92CF92DF92EF92FF92DA
:103E2000CF93DF93EC010E94CD3CC0901D0BD0904E
:103E30001E0BE0901F0BF090200B6C157D058E057E
:103E40009F0550F40E94CD3C60931D0B70931E0B98
:103E500080931F0B9093200B0E94CD3CC090190BB8
:103E6000D0901A0BE0901B0BF0901C0B6C157D058D
:103E70008E059F0550F40E94CD3C6093190B709302
:103E80001A0B80931B0B90931C0B0E94CD3CAB0133
:103E9000BC01888199810E94A0100E94CD3CC090F5
:103EA0001D0BD0901E0BE0901F0BF090200B6C1997
:103EB0007D098E099F09A880B980693B7B408105F7
:103EC0009105A0F040E050E0BA01C501DF91CF912B
:103ED000FF90EF90DF90CF90BF90AF909F908F902A
:103EE0007F906F905F904F900C9498102091FD0AF6
:103EF0003091FE0A4091FF0A5091000B21153105C7
:103F00004105510509F4B4C060E071EE85EF95E01C
:103F10000E94C34269017A01233481E038074105D8
:103F20005105F4F5AAE0B0E00E940A432B013C01E0
:103F3000C5010E94440F4B015C01A3019201C30122
:103F4000B2010E94934227E93FEF4FEF5FEF0E94DB
:103F5000E54229013A01A701960168E273EE83E088
:103F600090E00E94934224E630E040E050E00E945E
:103F7000E542420E531E641E751E24EE421A2FE2C5
:103F8000520A61087108C301B2010E945D40A50197
:103F900094010E94C23F20E030E040E251E460C062
:103FA0002C3385E138074105510554F5C5010E94C0
:103FB000440F2B013C01A7019601C701B6010E94E5
:103FC00093422EEA38E040E050E00E94E542490189
:103FD0005A01ABE9BAE4A70196010E940A4324E61C
:103FE00030E040E050E00E94E542820E931EA41EA5
:103FF000B51E26EA820E25E2921EA11CB11C2AC023
:10400000C5010E94440F2B013C01A7019601C70185
:10401000B6010E94934222E134E040E050E00E9469
:10402000E542A4E6B0E00E940A434B015C01A7010F
:10403000960164EB70E281E89FEF0E949342860E46
:10404000971EA81EB91E84E4880E8DEB981E8BE285
:10405000A81EB11CC501B4010E945D40A3019201DC
:104060000E94C23FAB01BC01888199810E949810D7
:10407000888199810E943C0F6B017C018881998124
:104080000E944C0FBC01882777FD8095982F0E94D5
:104090005D409B01AC01C701B6010E94BE411816EC
:1040A00054F4888199810E943C0F0E942A408881A3
:1040B00099810E94DF10CE010E94461D7C018881FB
:1040C00099810E942A0FB701680F791F77FF02C0FC
:1040D00068597E4F88819981DF91CF91FF90EF9051
:1040E000DF90CF90BF90AF909F908F907F906F9018
:1040F0005F904F900C948C1088EE9AE09093E40AB5
:104100008093E30A85E08093E50A1092E60A109214
:10411000E70A089561E085E30E94383E61E085E3A7
:104120000E94FF3D8CB580618CBD8CB580648CBDD8
:1041300061E084E30E94FF3D61E083E30C94FF3D76
:10414000811103C08CB5806202C08CB58F7D8CBD9F
:1041500008959CB5937F982B9CBD08952CB5982FFE
:1041600093702C7F922B9CBD9DB582FB882780F994
:104170009E7F982B9DBD0895FC01A681B7819D016E
:104180002F5F3F4F8481958140855185840F951F16
:104190002817390750F4378326836C930680F781FC
:1041A000E02D108281E090E0089580E090E0089595
:1041B000FC01A481B581B783A68380859185892B75
:1041C00009F01C92089508952F923F924F925F92AA
:1041D0006F927F928F929F92AF92BF92CF92DF9217
:1041E000EF92FF920F931F93CF93DF93CDB7DEB77C
:1041F0002A970FB6F894DEBF0FBECDBF9A87898786
:10420000DC01D6968C91882309F4E5C00E94CD3C50
:1042100069837A838B839C83E985FA8580A191A148
:1042200029813A81281B390B84A595A528173907C0
:104230000CF4D1C0028CF38DE02D80809180A2809F
:10424000B380A985BA855E96ED91FC915F97A50133
:10425000940160817181828193810E94F43E2B01DF
:104260003C01E985FA8520893189428953890E9478
:10427000C941A985BA8594962D913D914D915C9146
:1042800097970E94F53E6B017C01E985FA8564A34E
:1042900075A386A397A312A903A934A825A8212F43
:1042A000302F432D522D0E94BE4118162CF4812F21
:1042B000902FA32DB22D18C0A985BA859E968D91F9
:1042C0009D910D90BC91A02D8D839E83AF83B88767
:1042D0009C01AD01C701B6010E94BB3F87FF0AC028
:1042E0008D819E81AF81B885E985FA8584A395A3E8
:1042F000A6A3B7A3A985BA851C962D913D914D9192
:104300005C911F97C301B2010E94C941E985FA85FA
:1043100024A135A146A157A10E94F53E6B017C0165
:10432000A985BA8598962D913D914D915C919B9769
:10433000C501B4010E94F43EE985FA8524893589D6
:10434000468957890E94C9419B01AC01C701B6014A
:104350000E94F43E6B017C01212F302F432D522D02
:104360000E94BE411816DCF0A985BA859E961C9164
:104370009E979F960C919F97D0963C90D097D19600
:104380002C90212F302F432D522DB601C7010E94B2
:10439000BB3F87FD04C01C2D0D2D3E2C2F2CA98565
:1043A000BA855C96ED91FC915D97812F902FA32D9E
:1043B000B22D80839183A283B383E985FA8580A699
:1043C00091A6A2A6B3A689819A81AB81BC8180A364
:1043D00091A3A2A3B3A32A960FB6F894DEBF0FBE93
:1043E000CDBFDF91CF911F910F91FF90EF90DF90A4
:1043F000CF90BF90AF909F908F907F906F905F9085
:104400004F903F902F9008952F923F924F925F923E
:104410006F927F928F929F92AF92BF92CF92DF92D4
:10442000EF92FF920F931F93CF93DF9300D000D0B2
:10443000CDB7DEB71C012A013B014801590120E03C
:1044400030E0A901C301B2010E94BB3F87FD7AC0E1
:1044500020E030E0A901C501B4010E94BB3F87FD07
:1044600071C020E030E0A901C701B6010E94BB3F46
:1044700087FD68C0F101408251826282738284822A
:104480009582A682B782C086D186E286F38664A52D
:1044900075A5882777FD8095982F0E945D4020E0C4
:1044A00030E04AE754E40E94C23F69837A838B83F9
:1044B0009C83F10144865586668677869B01AC0114
:1044C000C501B4010E94C9414B015C01F101608B3F
:1044D000718B828B938B29813A814B815C81C701DF
:1044E000B6010E94C23F6B017C01F101648B758BA8
:1044F000868B978B808D918D019721F5A301920179
:1045000060E070E0CB010E94F43EF10164877587A2
:1045100086879787A501940160E070E0CB010E9437
:10452000F43EF101608B718B828B938BA701960116
:1045300060E070E0CB010E94F43EF101648B758B6A
:10454000868B978B0F900F900F900F90DF91CF91EC
:104550001F910F91FF90EF90DF90CF90BF90AF90A1
:104560009F908F907F906F905F904F903F902F9093
:104570000895CF92DF92EF92FF920F931F93CF9304
:10458000DF93EC018B011616170694F5882777FD4B
:104590008095982F0E945D406B017C016CA57DA5E4
:1045A000882777FD8095982F0E945D409B01AC0184
:1045B000C701B6010E94C23F6B017C019B01AC01A7
:1045C000688979898A899B890E94C941688B798B1E
:1045D0008A8B9B8BA70196016C897D898E899F8927
:1045E0000E94C23F6C8B7D8B8E8B9F8B1DA70CA76F
:1045F000DF91CF911F910F91FF90EF90DF90CF90BF
:1046000008952F923F924F925F926F927F928F9276
:104610009F92AF92BF92CF92DF92EF92FF920F9351
:104620001F93CF93DF93EC016A017B01480159018D
:10463000A9019801C701B6010E94BE4187FF4EC083
:10464000CEA6DFA6E8AAF9AA8AAA9BAAACAABDAA06
:104650008EA9882309F442C02C8C3D8CF101408046
:10466000518062807380A5019401C301B2010E9450
:10467000BE41181634F4F10180829182A282B38285
:104680000DC0A7019601C301B2010E94BB3F87FF85
:1046900005C0F101C082D182E282F3828CA09DA08C
:1046A000AEA0BFA0CAA8DBA8ECA8FDA8A7019601F0
:1046B000C501B4010E94BE41181664F0CEA4DFA467
:1046C000E8A8F9A8A7019601C501B4010E94BB3F63
:1046D00087FF04C0CCA2DDA2EEA2FFA2DF91CF91A2
:1046E0001F910F91FF90EF90DF90CF90BF90AF9010
:1046F0009F908F907F906F905F904F903F902F9002
:1047000008958F929F92AF92BF92CF92DF92EF92D5
:10471000FF92CF93DF93EC01EC8DFD8DC080D180B3
:10472000E280F380CCA2DDA2EEA2FFA2EA8DFB8D97
:1047300080819181A281B38188A799A7AAA7BBA7ED
:104740008AA89BA8ACA8BDA8A5019401C701B60181
:104750000E94BE41181664F08EA49FA4A8A8B9A810
:10476000A5019401C701B6010E94BB3F87FF04C0A9
:104770008CA29DA2AEA2BFA2DF91CF91FF90EF903D
:10478000DF90CF90BF90AF909F908F9008951F9330
:10479000CF93DF93EC0111E06130710509F010E077
:1047A0008EA991E08927181303C0CE010E948123AE
:1047B0001EABDF91CF911F9108950F931F93CF935D
:1047C000DF93EC018B018EA9882361F1888D998D8F
:1047D0006817790739F12C853D854E855F8560E046
:1047E00070E0CB010E94F43E6C877D878E879F87A7
:1047F000288939894A895B8960E070E0CB010E9491
:10480000F43E688B798B8A8B9B8B2C893D894E89F2
:104810005F8960E070E0CB010E94F43E6C8B7D8B81
:104820008E8B9F8B198F088FDF91CF911F910F91E6
:1048300008952F923F924F925F926F927F928F9244
:104840009F92AF92BF92CF92DF92EF92FF920F931F
:104850001F93CF93DF93CDB7DEB728970FB6F894A9
:10486000DEBF0FBECDBF4C017A8369831A013C8342
:104870002B8327013801AD82BE82CF82D88600E02B
:1048800010E02FE733E440E050E0BA010E9401233A
:1048900084E690E0F40195A784A769A17AA1C401F8
:1048A0000E94DD23CD8CDE8CEF8CF8A00D811E8163
:1048B0002F813885B301A201C4010E9404220E9405
:1048C000CD3CF40144A455A4662457FC6094762C96
:1048D000641975098609970960A371A382A393A33C
:1048E00016AA358E248E89819A81938F828F8B812F
:1048F0009C81978F868F28960FB6F894DEBF0FBEE7
:10490000CDBFDF91CF911F910F91FF90EF90DF907E
:10491000CF90BF90AF909F908F907F906F905F905F
:104920004F903F902F9008950F931F93CF93DF9355
:10493000FC0171836083128213821482158286E5E2
:104940008683178210861186128613861486158632
:1049500016861786108A118A128A138A148A158A73
:10496000168ADF01A754BF4F11961C921E92AE55B6
:10497000BF4F11961C921E92149611961C921E9275
:10498000129611961C921E92129611961C921E92CD
:10499000178AAC5AB1091D921C92EF0104E110E094
:1049A0008FE090E00E943C43FE01E15EFE4F918368
:1049B00080838FE090E00E943C43FE01E558FF4F6A
:1049C00091838083FC011082015011092296011508
:1049D000110531F7DF91CF911F910F910895FC01DF
:1049E00062817381848195810895FC018681089597
:1049F000FC0167817085818592850895FC0163853E
:104A00007485858596850895CF92DF92EF92FF9207
:104A10006A017B01FC012785308941895289C701E0
:104A2000B6010E94C941FF90EF90DF90CF900895AA
:104A3000FC0163897489858996890895479608954C
:104A4000660F771F680F791FFB01E558FF4F8081C4
:104A5000918108954F925F926F927F928F929F9271
:104A6000AF92BF92CF92DF92EF92FF920F931F937C
:104A7000CF93DF93FB0110811D3241F031E020E044
:104A80001B3209F030E0832F922F02C081E090E0CA
:104A9000EB01C80FD91F00E03DEC432E3CEC532E38
:104AA000652C3DE3732E812C912C5401C12CD12C0B
:104AB0007601E991EE23E9F1EE32C9F1FF27E7FD36
:104AC000F095011113C0AAE0B0E0A70196010E9481
:104AD0000A436B017C01CF01C097AA2797FDA095DF
:104AE000BA2FC80ED91EEA1EFB1EE3CFBF016053CA
:104AF0007109882777FD8095982F0E945D409B0162
:104B0000AC01C301B2010E94C9419B01AC01C501C6
:104B1000B4010E94F53E4B015C0120E030E040E230
:104B200051E4C301B2010E94C23F2B013C0101E0EC
:104B3000C0CFC701B6010E945D409B01AC01C50119
:104B4000B4010E94F53E1D3239F49B01AC0160E0D6
:104B500070E0CB010E94F43EDF91CF911F910F9145
:104B6000FF90EF90DF90CF90BF90AF909F908F908D
:104B70007F906F905F904F9008958F929F92AF9229
:104B8000BF92CF92DF92EF92FF920F931F93CF933A
:104B9000DF93EC01AC01455A5E4FDA012D913C9157
:104BA0001197FC01E15AFE4F243631056CF4A25AEC
:104BB000B1098D919C911197449734F4A655BF4F3C
:104BC0008D919C910F9714F0118210826A3011F030
:104BD0006D3011F4118210826432E1F4DE01A35AC7
:104BE000BE4F11961C921E92149611961C921E9204
:104BF000A85AB10911961C921E92A655BF4F1D923C
:104C00001C92C554DF4F688381E090E0DA018D93F8
:104C10009C93E4C0808191818130910569F024F4F6
:104C2000009709F47AC272C28230910509F492C0E9
:104C3000039709F4D6C06AC2273031057CF4D90144
:104C4000AB59BC4F8C91681309C0DE01A35ABE4F0B
:104C50008D919C91119701968D939C93C90101961A
:104C6000DA018D939C932C0F3D1FD901A554BF4FA2
:104C70006C93CE0187549F4F8E010D591E4F6A329F
:104C800049F1DE01AF59BE4FFC016C3209F040C062
:104C900020813181A9014F5F5F4F51834083C9015A
:104CA000880F991F8C0F9D1FEC01C15EDE4F09908C
:104CB000D881C02DF80180819181C80FD91F188239
:104CC000118210828D919C911197FCE28F278D9318
:104CD0009C931EC2DC012D913C911197A9014F5F5D
:104CE0005F4F4D935C93C901880F991F8C0F9D1FD7
:104CF000EC01C15EDE4F0990D881C02DD8018D91A5
:104D00009C911197C80FD91F18821D921C9263C0E5
:104D100080819181880F991F8C0F9D1FEC01C15ECE
:104D2000DE4F0990D881C02DF801808191819C01CE
:104D30002F5F3F4F31832083C80FD91F68837727A8
:104D400067FD70958D919C911197682779276D93D8
:104D50007C93DEC1C9010196DA018D939C932C0FDF
:104D60003D1FD901A554BF4F6C93DE01A754BF4F1F
:104D70008D919C91880F991F8C0F9D1FDC01A15E66
:104D8000BE4F0D911C919E012D593E4FD9018D9121
:104D90009C911197AC014F5F5F4F4D935C93080F4F
:104DA000191FD8016C93CF59DE4F48815981862F46
:104DB000992787FD9095613414F0C79701C0C0977B
:104DC0009C01B4E0220F331FBA95E1F7CA01821BA0
:104DD000930B99838883808191810196918380834D
:104DE00097C1CE01820F931FDC01A554BF4F6C9376
:104DF0002E5F3F4FDA012D933C93DC01A454BF4F4B
:104E00001C929E0127543F4FD9018D919C91880F90
:104E1000991F8C0F9D1FDC01A15EBE4F8D919C914F
:104E20006E01BDE9CB1ABEEFDB0AD6010D911C91D4
:104E30007801BFEFEB1AFB0AD601ED92FC92800FCE
:104E4000911FDC016C93D9018D919C9111978C017C
:104E50000F5F1F4F0D931C93880F991F8C0F9D1F81
:104E6000815E9E4FDC018D919C91D6010D911C912C
:104E7000800F911FDC011C9211821082FE01EF59FC
:104E8000FE4F80819181062F112707FD1095613417
:104E900024F0B8016753710903C0B8016053710968
:104EA000861B970B91838083009709F031C168813D
:104EB0007981672B29F4FA0160817181CB010AC0E5
:104EC000FE01E35AFE4F608171816630710509F081
:104ED00024C1F1CF019797FD0AC0FE01E80FF91F29
:104EE0008F0105541F4FD8011C91178BF3CFFB0185
:104EF0003197CB0177FF02C080E090E0BF01681BD3
:104F0000790BDA016D937C93FE01E954FF4F118216
:104F1000108240815181D9018D919C914817590788
:104F200084F5D6011D921C9280819181D6014D910C
:104F30005C91880F991F8C0F9D1FBC01615E7E4F95
:104F4000DB016D917C91640F751FDB016C918558BD
:104F50009F4FDC018D919C91840F951FDC0166238E
:104F600049F06C93D6018D919C91119701968D9388
:104F70009C93DACF1C9280819181019691838083EA
:104F8000C8CFFE01E35AFE4F80819181069709F058
:104F9000C2C0FC9760817181CE010E942A256A837C
:104FA0007B838C839D83FE01ED5DFE4F0190F0813C
:104FB000E02D80818E83FE01EB5DFE4F608171816B
:104FC000CE010E942A2520E030E048EC52E40E9405
:104FD000C23F4B015C010E9498406B017C018E0135
:104FE0000B591E4FF80160837183828393839B0169
:104FF000AC01C501B4010E94F43E20E030E048EC71
:1050000052E40E94C94120E030E040E752E40E94AF
:10501000C23FA70196010E94F53E9B01AC016F8340
:10502000788789879A87FE01E95DFE4F0190F081BC
:10503000E02D8081833549F460E070E0CB010E946F
:10504000F43E6F83788789879A87FE01E75DFE4F7C
:1050500060817181CE010E942A2520E030E048EC79
:1050600052E40E94C23F4B015C010E9498406B01D8
:105070007C01D8016D937D938D939C9313979B0135
:10508000AC01C501B4010E94F43E20E030E048ECE0
:1050900052E40E94C94120E030E040E752E40E941F
:1050A000C23FA70196010E94F53E9B01AC016B87B0
:1050B0007C878D879E87FE01E55DFE4F0190F08124
:1050C000E02D8081873549F460E070E0CB010E94DB
:1050D000F43E6B877C878D879E87FE01E35DFE4FE4
:1050E00060817181CE010E942A256F87788B898B20
:1050F0009A8BFE01E15DFE4F60817181CE010E94BD
:105100002A256B8B7C8B8D8B9E8B05C01182108228
:1051100080E090E002C081E090E0DF91CF911F91AC
:105120000F91FF90EF90DF90CF90BF90AF909F9046
:105130008F9008958EBD0DB407FEFDCF8EB50895F6
:105140000F931F93FC011382128208EE13E020E0FC
:1051500030E0048315832683378381E793E09183CE
:105160008083648745871F910F910895EF92FF9286
:105170001F93CF93DF931F92CDB7DEB77C01162F1D
:1051800060E0FC01848549830E94383EF8E01F9F5F
:10519000B0011124F7018585880F862B0E949A287B
:1051A0004981842F0E949A2862E070E080E090E0BC
:1051B0000E94FC3C61E0F70184850F90DF91CF9164
:1051C0001F91FF90EF900C94383E462F60E00E94B4
:1051D000B62881E090E0089546E062E00C94B6289D
:1051E000CF92DF92EF92FF920F931F93CF93DF93B3
:1051F00000D0CDB7DEB78C01F22E60E0FC018485D3
:1052000049835A830E94383E4981E42EC42E5A8134
:10521000D52E8C2D8E198F1530F4F60181916F01EA
:105220000E949A28F6CF62E070E080E090E00E9451
:10523000FC3C61E0F80184850F900F90DF91CF91E5
:105240001F910F91FF90EF90DF90CF900C94383E1C
:10525000242FAB0160E00C94F0281F93CF93DF93D1
:10526000EC01162F60E08C850E94383E62E070E011
:1052700080E090E00E94FC3C88E0189FB00111247F
:105280008D85880F862B80680E949A2880E00E9476
:105290009A28182F62E070E080E090E00E94FC3CC9
:1052A00061E08C850E94383E812FDF91CF911F9164
:1052B000089560E00E942D2990E0089569E00E9421
:1052C0002D2990E0089569E00E942D298FEF9FEF2E
:1052D00008951F93CF93DF93EC01162F63E00E9494
:1052E0002D29482F4C7F6BEF610F6370462B63E0D5
:1052F000CE01DF91CF911F910C94B6288F929F928F
:10530000AF92BF92CF92DF92EF92FF920F931F93D3
:10531000CF93DF93EC016A017B014801590160EDF5
:1053200075E080EF9BE00E9496380E948A206AE038
:1053300070E080E090E00E94FC3C81E00E94A020B0
:1053400081E00E94AE2080E00E94A92064EC75E01C
:1053500080EF9BE00E9496388091060290910702B0
:10536000019779F448E06EE0CE010E94B6281092D1
:1053700007021092060265EB75E080EF9BE00E9449
:10538000963864E670E080E090E00E94FC3C40E8E3
:1053900063E0CE010E94B628C701B60123E0660F84
:1053A000771F881F991F2A95D1F7680D791D8A1DCF
:1053B0009B1DA7019601E4E0220F331F441F551FD8
:1053C000EA95D1F70E94C34269017A01422F60E059
:1053D000CE010E94B6284D2D552761E0CE010E94D6
:1053E000B62840E063E0CE010E94B62868E0CE0116
:1053F0000E94692947E062E0CE010E94B62863EA74
:1054000075E080EF9BE0DF91CF911F910F91FF90AE
:10541000EF90DF90CF90BF90AF909F908F900C94C3
:1054200096380F931F9300E010E820E730E00E94C9
:105430007E291F910F910895FC016F7780819181E2
:1054400086279183808347E020813181C901969529
:10545000879520FF04C020EF822722E292279183C4
:105460008083415089F70895EF92FF920F931F9325
:10547000CF93DF937C018A01EB01060F171FC01742
:10548000D10729F06991C7010E941C2AF8CFDF914A
:10549000CF911F910F91FF90EF900895CF93DF93DD
:1054A00000D0CDB7DEB7AB012FEF3FE33A832983BE
:1054B000BC01CE0101960E94342A89819A8180958F
:1054C0002FE392270F900F90DF91CF9108950F93C4
:1054D0001F93CF93DF931F92CDB7DEB78C01FC01F2
:1054E000718360831282238314861586168617863D
:1054F000108A459649830E94222FF801178E10A228
:1055000049818FE9840F8A3108F440528FEB840F70
:105510008A3120F080ED840F8A3010F4F801428344
:1055200044E650E060E070E0F80144835583668310
:1055300077834FEF5FEFBA014087518762877387A8
:1055400011A20F90DF91CF911F910F9108950895AF
:105550009F92AF92BF92CF92DF92EF92FF920F9302
:105560001F93CF93DF93CDB7DEB7A7970FB6F8940D
:10557000DEBF0FBECDBF6C017B01942E5901DB0154
:1055800014964D915D916D917C911797CE01809607
:105590000E941B30CE0180960E94F12F6894A4F8DF
:1055A000C8010E94C92F882321F0C6010E94242F20
:1055B0006CC0CE0180960E94C92F8823A9F1CE012C
:1055C00080960E940F30F70184858F5F87FD81E010
:1055D000D7011C968C93CE0101960E94512DF701A4
:1055E0006281CE0101960E94552D6A2DCE01019651
:1055F0000E94552DD7011C966C91CE0101960E94F8
:10560000552D692DCE0101960E94552DD701ED91A2
:10561000FC91119763A174A123E230E013964C91A1
:10562000CE0101960E942D2EF701808191810E946A
:10563000FB2E882309F4B4CFD701ED91FC9111978B
:10564000938113968C919813ABCF8481833409F0A6
:10565000A7CF4081518145505109BF016A5F7F4FFB
:10566000CE0101960E949A2F8981882309F498CF50
:105670009C81F7018485981393CF8AE0FE013196CF
:10568000D60101900D928A95E1F7C601A7960FB653
:10569000F894DEBF0FBECDBFDF91CF911F910F9168
:1056A000FF90EF90DF90CF90BF90AF909F900895C4
:1056B0009F92AF92BF92CF92DF92EF92FF920F93A1
:1056C0001F93CF93DF93CDB7DEB76F970FB6F894E4
:1056D000DEBF0FBECDBF8C015B017A01922EDC01D3
:1056E000ED91FC91C3A0D4A0CE0101960E94512D52
:1056F000F8016281CE0101960E94552D692DCE01DF
:1057000001960E94552D96FE07C0D8015F966C91B8
:10571000CE0101960E94552DF70142815381B701B8
:105720006C5F7F4FCE0101960E94612D9501D801DB
:1057300013964C91B601CE0101960E942D2E6F96C4
:105740000FB6F894DEBF0FBECDBFDF91CF911F9192
:105750000F91FF90EF90DF90CF90BF90AF909F9010
:105760000895CF92DF92EF92FF920F931F93CF9302
:10577000DF93CDB7DEB72A970FB6F894DEBF0FBE22
:10578000CDBF7C016A01FC0180A1811123C08B0186
:1057900020E430E041E050E0B701CE0101960E94E4
:1057A000A82A8AE0FE013196D60101900D928A95D1
:1057B000E1F7F601828180FF04C08681978197FD21
:1057C00007C0F6018481F701878F81E080A302C0C2
:1057D00081E001C080E02A960FB6F894DEBF0FBECC
:1057E000CDBFDF91CF911F910F91FF90EF90DF9090
:1057F000CF900895DF92EF92FF920F931F93CF9374
:10580000DF93CDB7DEB72A970FB6F894DEBF0FBE91
:10581000CDBF7C01D42EFC01238934894189528972
:105820008B01BC01CE0101960E94A82A8AE0FE01EC
:105830003196D701559601900D928A95E1F7F701BF
:10584000878980FF04C0838D948D97FD0BC0F7017D
:10585000818D978D891731F0811106C081E0D110BB
:1058600004C002C081E001C080E02A960FB6F8941F
:10587000DEBF0FBECDBFDF91CF911F910F91FF9083
:10588000EF90DF9008958F929F92AF92BF92CF9248
:10589000DF92EF92FF920F931F93CF93DF93CDB7D9
:1058A000DEB72E970FB6F894DEBF0FBECDBF7C01DA
:1058B0006B015A014901FC012585368547855089D0
:1058C0002F5F3F4F4F4F5F4F258736874787508B5E
:1058D000BC01CE0109960E943D2EF70181A18823CB
:1058E00039F09401A501B601C7010E94582B30C0C0
:1058F000F7014085518562857385CE0101960E942E
:105900001B30A7014B5E5F4FBE016F5F7F4FC7012A
:105910000E94B12B81111CC0689486F8F701128B8C
:10592000018B948A838A878D8F5F87FD81E0F701E1
:10593000878F9401A501B601C7010E94582B40E052
:10594000BE016F5F7F4FC7010E94FA2B882389F346
:1059500086E0FE013996DE01119601900D928A953E
:10596000E1F729813A814B815C816D817E8180E004
:1059700090E02E960FB6F894DEBF0FBECDBFDF913C
:10598000CF911F910F91FF90EF90DF90CF90BF903C
:10599000AF909F908F9008958F929F92AF92BF92F9
:1059A000CF92DF92EF92FF920F931F93CF93DF93EB
:1059B000CDB7DEB7AA970FB6F894DEBF0FBECDBF46
:1059C0004C01CE0101962FA338A749A75AA76EA371
:1059D0000E94512D6EA1CE0101960E94552D2FA13E
:1059E00038A549A55AA5BA01A901CE0101960E9480
:1059F000792DF7FC0BC0602FCE0101960E94552D2A
:105A0000B701A601CE0101960E94792D01E010E0B8
:105A10009501AE014F5F5F4F64E270E0C4010E94E8
:105A2000432C80E090E0AA960FB6F894DEBF0FBE3C
:105A3000CDBFDF91CF911F910F91FF90EF90DF903D
:105A4000CF90BF90AF909F908F900895AF92BF92EC
:105A5000CF92DF92EF92FF920F931F93CF93DF933A
:105A600000D000D000D0CDB7DEB757016801790172
:105A700002E09A01AB0161E00E94CC2C80E090E052
:105A800026960FB6F894DEBF0FBECDBFDF91CF9143
:105A90001F910F91FF90EF90DF90CF90BF90AF904C
:105AA0000895FC01138212820895FC012281338142
:105AB000A9014F5F5F4F53834283E20FF31F64835B
:105AC0000895CF93DF93FB01460F571FE417F507A7
:105AD00069F0A191EC012A813B81B9016F5F7F4F91
