:100000000C94A9030C943D3B0C946E3B0C949F3BC9
:100010000C94D03B0C94013C0C94323C0C94633C0B
:100020000C94943C0C94D8030C94D8030C94D803EF
:100030000C94D8030C94D8030C94D8030C9442313C
:100040000C94D8030C94D8030C94D8030C94D803C4
:100050000C94D8030C94D8030C94D8030C94D73C7C
:100060000C94D8030C94B6350C94EC350C94D8034E
:100070000C94D8030C94D8030C94D8030C94D80394
:100080000C94D8030C94D8030C94D8030C94D80384
:100090000C9463360C9499360C94D8030C94D803C2
:1000A0000C94D8030C94D8030C94D8030C94D80364
:1000B0000C94D8030C94D8030C94C5320C943432AD
:1000C0000C9427330C94D8030C94D8030C94103759
:1000D0000C9446370C94D8030C94BD370C94F3372A
:1000E0000C94D803173BE13AE93AF53A023B233B3B
:1000F000303B183E1B3E0A3E0E3E143E523E1F3E13
:10010000233E293E2D3E313E373E3B3E3F3E523E52
:10011000453E493E4D3E084AD73B3BCE016E84BC2E
:10012000BFFDC12F3D6C74319ABD56833DDA3D0051
:10013000C77F11BED9E4BB4C3E916BAAAABE00009A
:1001400000803F05A84CCDB2D44EB93836A9020C78
:1001500050B9918688083CA6AAAA2ABE0000008051
:100160003F00496E6974206175746F70696C6F74BB
:1001700020636F6D706C65746500496E69742061F1
:1001800075746F70696C6F742E2E736574206C6952
:100190006D6974732E2E00496E6974206175746FD9
:1001A00070696C6F742E2E737461727420504944A0
:1001B0002E2E00496E6974206175746F70696C6FC2
:1001C000742E2E002C002C4C4C333A002C4C553302
:1001D0003A002C4C4C323A002C4C55323A002C4C04
:1001E0004C313A002C4C55313A002C53544B3A00C8
:1001F0002C5342333A002C5342323A002C534231B2
:100200003A002C5342303A002C4750533A002C57B6
:100210005A4A3A005549443A4D4547412C415058B5
:100220003A0021215645523A312E392C002C002C0F
:1002300057534B3A002C5753583A002C4141443AFB
:10024000002C4141453A002C41414E3A002C41419D
:10025000523A002C4141583A002C4150523A002C5D
:100260004150433A002C4150543A002C4150533AEB
:10027000005549443A4D4547412C4150583A0021D8
:10028000215645523A312E392C0053657475702031
:10029000636F6D706C6574652E2E0053746172749B
:1002A0002074696D65722E2E00537461727420770C
:1002B000696E642E2E005374617274206E6D6561D8
:1002C000205478202D206F6E2070696E7320343694
:1002D0002054782C20343820527820617420005328
:1002E00074617274206E6D65612054782E2E0053F7
:1002F00074617274206E6D6561205278202D2073B8
:10030000657269616C34206174200043535F504909
:100310004E204F5554505554203D204849474800E1
:1003200043535F50494E2073657420746F204F55BE
:1003300054505554005374617274205350492075C1
:10034000617274732E2E005374617274206E6D6529
:1003500061205278202D2073657269616C332061B1
:100360007420005374617274206E6D656120527840
:10037000202D2073657269616C32206174200053F6
:10038000746172742073656174616C6B202D2073CD
:10039000657269616C3220617420343830300053EA
:1003A0007461727420475053205278202D20736559
:1003B0007269616C312061742000496E69746961F1
:1003C0006C697A696E672E2E0024504D544B32357D
:1003D000312C0024504D544B3331342C302C312CE3
:1003E000302C312C312C312C302C302C302C302C2A
:1003F000302C302C302C302C302C302C302C302C1D
:10040000302A32380024504D544B3232302C3130A7
:1004100030302A31460053657474696E6720475046
:100420005320746F204D54454B5F33333239002CC9
:10043000382C312C302A0024505352463130302C85
:10044000312C0024505352463130352C302A33465B
:100450000024505352463130332C30342C30302C61
:1004600030312C30312A3231002450535246313051
:10047000332C30332C30302C32302C30312A323582
:100480000024505352463130332C30322C30302C33
:1004900030352C30312A323300245053524631301B
:1004A000332C30302C30302C30352C30312A323156
:1004B0000024505352463130332C30312C30302C04
:1004C00030302C30312A32350024505352463130EE
:1004D000332C30352C30302C30302C30312A323126
:1004E0000024505352463130352C312A33450053C5
:1004F000657474696E672047505320746F20454DB2
:100500005F343036410053657474696E672047501C
:100510005320746F2047454E45524943005365743C
:1005200074696E672047505320636F6E6669672E4B
:100530002E2E0020202064656661756C7420746F17
:1005400020343830302E2E004641494C4544004F6F
:100550004B20617420002020207472792061757412
:100560006F62617564202E2E200020206465746502
:10057000637465642070756C7365207261746520A6
:100580003D20002C542A002448434844542C002C7D
:100590004E2C412A002E302C522C002457494D5706
:1005A000562C0053504920696E697420636F6D703A
:1005B0006C65746500535049205541525420726552
:1005C00073657400535049207374617274656400DC
:1005D0004D756C746953657269616C3A3A6265670E
:1005E000696E0000000A0B02090C0D0E08070304D7
:1005F00001000000000000000000000000000000FA
:1006000000000000000000000000000000000012D8
:1006100011100000000000000000000000000000B9
:100620000000000000000000000102102020080867
:100630001020401020408002010201080402010144
:10064000020408102040808040201008040201802D
:100650000402018040201008040201080402010184
:100660000204081020408001020408102040800588
:10067000050505070508080808020202020A0A081B
:100680000804040404010101010101010103030341
:100690000303030303040707070C0C0C0C0C0C0CDE
:1006A0000C0202020206060606060606060B0B0BE5
:1006B0000B0B0B0B0B000020002300260029002C45
:1006C000002F0032000001000003010601090100B3
:1006D000002200250028002B002E003100340002EB
:1006E000010000050108010B010000210024002782
:1006F000002A002D00300033000101000004010732
:10070000010A014E414E494E495459494E46CDCCFD
:10071000CC3D0AD7233C17B7D13877CC2B329595EF
:10072000E6241FB14F0A000020410000C8420040EB
:100730001C4620BCBE4CCA1B0E5AAEC59D74DC08BC
:100740004016511AD0202036CD367A372738F00897
:10075000AC1611241FBECFEFD1E2DEBFCDBF14E037
:10076000A0E0B2E0E8E5FEE800E00BBF02C00790C1
:100770000D92A43CB107D9F72FE0A4ECB4E001C07E
:100780001D92A339B207E1F717E0CEE4D7E000E00D
:1007900006C022970109FE010BBF0E946943CE33B8
:1007A000D10780E00807A9F70E94C63C0C941A47BD
:1007B0000C9400002DE032E0FC0131832083089589
:1007C0002DE032E0FC01318320830C94D53CFC0108
:1007D000CB012DE032E03183208373836283148266
:1007E00040E050E0BA010E94630F61E088E10E949E
:1007F000533E61E08AE10E94533E61E08CE10E9439
:10080000533E61E08EE10E94533E60E082E40C942E
:10081000533ECF92DF92EF92FF92CF93DF93EC01A2
:100820008A819B810E94AA10882389F08A819B81FA
:100830000E94270D6B017C010E94213D21E0C6161C
:10084000D706E806F90608F020E0822F01C080E014
:10085000DF91CF91FF90EF90DF90CF900895CF92EE
:10086000DF92EF92FF92CF93DF93EC010E94090495
:100870008823A9F10E94213D6B017C018A819B8123
:100880000E94210DC61AD70AE80AF90A89EEC8168D
:1008900083E0D806E104F104C0F16C8188E10E9494
:1008A0008C3E6C818AE10E948C3E6C818CE10E94BE
:1008B0008C3E6C818EE10E948C3E8C8191E0892778
:1008C0008C830E94213DAB01BC018A819B81DF9119
:1008D000CF91FF90EF90DF90CF900C94630F60E08A
:1008E00088E10E948C3E60E08AE10E948C3E60E0DC
:1008F0008CE10E948C3E60E08EE1DF91CF91FF9011
:10090000EF90DF90CF900C948C3EDF91CF91FF90D1
:10091000EF90DF90CF900895CF92DF92EF92FF9209
:10092000CF93DF93EC018A819B810E945E0F882325
:1009300011F18A819B810E94320F18161906DCF48E
:100940008A819B810E943E0F6B017C018A819B8181
:100950000E94320FBC01882777FD8095982F0E9456
:10096000B1409B01AC01C701B6010E9412421816AA
:1009700014F461E001C060E08A819B81DF91CF9136
:10098000FF90EF90DF90CF900C94E7100F931F93A0
:10099000CF93DF93EC0180E40E94DA3D8C018A81E1
:1009A0009B810E94020F081719074CF08A819B81D6
:1009B0000E94F60E8017910714F060E001C061E01C
:1009C0008A819B810E94501081E40E94DA3D8C0153
:1009D0008A819B810E94140F081719073CF08A81B5
:1009E0009B810E94080F8017910714F461E001C0F9
:1009F00060E08A819B810E945F1082E40E94DA3D60
:100A00008C018A819B810E94260F081719073CF0F0
:100A10008A819B810E941A0F8017910714F461E06C
:100A200001C060E08A819B81DF91CF911F910F917E
:100A30000C946E1025E132E0FC013183208308958F
:100A400025E132E0FC01318320830C94D53C2F92C8
:100A50003F924F925F926F927F928F929F92AF924E
:100A6000BF92CF92DF92EF92FF920F931F93CF939B
:100A7000DF93CDB7DEB728970FB6F894DEBF0FBE71
:100A8000CDBF1C016A017B0109831A832B833C8340
:100A9000FC01828193810E945D0D9B01AC01C70125
:100AA000B6010E94493F2B013C01F10182819381F3
:100AB0000E945D0D9B01AC01C701B6010E94483F39
:100AC0004B015C01F101828193810E945D0D9B01CC
:100AD000AC0169817A818B819C810E94493F6B01C5
:100AE0007C01F101828193810E945D0D9B01AC012B
:100AF00069817A818B819C810E94483F69837A83D6
:100B00008B839C83F101828193810E94630D6D83AD
:100B10007E838F83988724E83AEB4CE358E3C30144
:100B2000B2010E94483F2D813E814F8158850E942D
:100B3000124218166CF4F101828193810E944F0DCC
:100B40009B01AC01C301B2010E940F4087FD8CC024
:100B5000F101828193810E944F0D2B013C0124E819
:100B60003AEB4CE358E3C501B4010E94493FA301AD
:100B700092010E940F4087FF0EC0F1018281938194
:100B80000E94630D9B01AC01C501B4010E94124299
:100B900018160CF471C0F101828193810E94690DD5
:100BA0004B015C0124E83AEB4CE358E3C701B60182
:100BB0000E94483FA50194010E94124218166CF44D
:100BC000F101828193810E94330D9B01AC01C70129
:100BD000B6010E940F4087FD57C0F10182819381C9
:100BE0000E94330D6B017C0124E83AEB4CE358E39F
:100BF00069817A818B819C810E94493FA70196017E
:100C00000E940F4087FF48C0F101828193810E94BA
:100C1000690D9B01AC0169817A818B819C810E9465
:100C200012421816CCF549815A816B817C81F10101
:100C30008281938128960FB6F894DEBF0FBECDBF98
:100C4000DF91CF911F910F91FF90EF90DF90CF90A8
:100C5000BF90AF909F908F907F906F905F904F90DC
:100C60003F902F900C94B30FB301A201F101828148
:100C700093810E94990F6CCFB501A401F10182818B
:100C800093810E94AD0F87CFB701A601F101828148
:100C900093810E947D0FA1CF28960FB6F894DEBFF6
:100CA0000FBECDBFDF91CF911F910F91FF90EF90BD
:100CB000DF90CF90BF90AF909F908F907F906F907C
:100CC0005F904F903F902F9008958F929F92AF9298
:100CD000BF92CF92DF92EF92FF920F931F93CF9329
:100CE000DF93EC016A017B014801590140E050E0CB
:100CF00064EB72E48A819B810E94990F40E050E08E
:100D000064EB72EC8A819B810E94AD0F40E050E061
:100D100064E373E48A819B810E947D0F40E050E090
:100D200064E373EC8A819B810E94B30F8A819B816B
:100D30000E94550D2DE93BEF46E157E30E941D420D
:100D4000AB01BC018A819B810E94A70F95018401A0
:100D5000B701A601CE010E942705DF91CF911F9117
:100D60000F91FF90EF90DF90CF90BF90AF909F904A
:100D70008F900895CF92DF92EF92FF920F931F937F
:100D8000CF93DF93EC018B0185E192E09983888317
:100D90007B836A83CB010E94410D6B017C01C801FA
:100DA0000E94390DAB01BC0197018601CE010E9462
:100DB0006506DF91CF911F910F91FF90EF90DF902B
:100DC000CF9008954F925F926F927F928F929F92F1
:100DD000AF92BF92CF92DF92EF92FF920F931F9349
:100DE000CF93DF9300D000D0CDB7DEB74C01FC012C
:100DF000828193810E94540F882309F4D2C00E94FB
:100E0000213D2B013C01F401828193810E94C50E9A
:100E1000461A570A680A790AF1EE4F16F3E95F0697
:100E2000F4E06F06710438F0F401828193810E942E
:100E3000540F81118DC0F401828193810E94E50ECF
:100E4000882309F4AEC0F401828193810E94D50EFB
:100E50005B016C01F401828193810E94CD0E2B0114
:100E60003C01F401828193810E94410D9B01AC0100
:100E7000F4018281938129833A834B835C830E94AE
:100E8000390D8301720129813A814B815C810E9475
:100E9000CC17AB01BC01F401828193810E94770FD2
:100EA000F401828193810E942D0D2B013C01F401FC
:100EB000828193810E94490D9B01AC01C301B20163
:100EC0000E941242181664F4F401828193810E94F8
:100ED0002D0DAB01BC01F401828193810E94930F1F
:100EE000F401828193810E94D50E2B013C01F40113
:100EF000828193810E94CD0EAB01BC0193018201DE
:100F0000C4010E942705F401828193810E94540F3D
:100F1000882369F1F401828193810E942D0D2B01B8
:100F20003C01F401828193810E94550D9B01AC012B
:100F3000C301B2010E9412421816CCF440E050E006
:100F4000BA01F401828193810E94690F61E010C0AF
:100F500040E050E0BA01F401828193810E94690F60
:100F600061E0F401828193810E94740F64CF60E09C
:100F7000F401828193810F900F900F900F90DF9179
:100F8000CF911F910F91FF90EF90DF90CF90BF9086
:100F9000AF909F908F907F906F905F904F900C9448
:100FA000740F0F900F900F900F90DF91CF911F91C2
:100FB0000F91FF90EF90DF90CF90BF90AF909F90F8
:100FC0008F907F906F905F904F900895CF93DF93B5
:100FD000EC018A819B810E94CD0EAB01BC018A810C
:100FE0009B810E94830F8A819B810E94D50EAB0159
:100FF000BC018A819B810E948B0F40E050E0BA01C6
:101000008A819B81DF91CF910C94930F0F931F9353
:10101000CF93DF93EC018B0181960E94372118A3B7
:101020000F8FDF91CF911F910F9108958F929F9213
:10103000AF92BF92CF92DF92EF92FF920F931F93E6
:10104000CF93DF93CDB7DEB7E7970FB6F894DEBF47
:101050000FBECDBF4C01FC01168E158E148E138E63
:1010600063EB71E080E09DE00E94EA38F401878D37
:1010700090A10E944811AB01BC018DE095E00E9457
:10108000652A64E670E080E090E00E94503DF40143
:10109000878D90A10E94750D20E030E044E354E478
:1010A0000E94493F6B017C01F4016083718382835C
:1010B0009383878D90A10E94700E9B01AC01C701A4
:1010C000B6010E94493FF401648375838683978348
:1010D000878D90A10E946F0DF401608771878287D0
:1010E000938711E0108B67E971E080E09DE00E943A
:1010F000EA38A401485F5F4FB4016C5F7F4F1F92D5
:101100001F938FE38F9385E08F938EE18F9388EB0E
:101110008F938AE0A82E87EDB82E83EAC82E8DE340
:10112000D82E16E6E12EFE2C06EE1EE39401CE012B
:1011300001960E946D2487E3FE013196D4019196B9
:1011400001900D928A95E1F76AE771E080E09DE0F9
:101150000E94EA38F1E28F0E911C00E010E024E8D2
:1011600032E440E050E0BA01C4010E94552364E635
:1011700070E0C4010E940D2362E671E080E09DE012
:101180000E94EA380F900F900F900F900F900F90E1
:10119000E7960FB6F894DEBF0FBECDBFDF91CF91BB
:1011A0001F910F91FF90EF90DF90CF90BF90AF9085
:1011B0009F908F900895089540E063E48DE095E05E
:1011C0000E94F4286DE075E088EE94E00E94402FC4
:1011D00020E841E368EE74E086EC94E00C94BB2ACE
:1011E00086EC94E00C94FB2A0F931F93CF93DF932C
:1011F000EC018C010F5E1F4F8DE095E00E94B2293B
:10120000892B21F18DE095E00E94AD292D8D3E8D39
:10121000FE01E20FF31F818B2F5F3F4F3E8F2D8F1B
:101220008A3029F08D3019F0213331052CF3FE017D
:10123000E20FF31F118AB80180E09DE00E94FC38A4
:101240001E8E1D8EF80111821082D6CFDF91CF91B4
:101250001F910F9108954F925F926F927F92AF927C
:10126000BF92CF92DF92EF92FF920F931F93CF9393
:10127000DF9300D000D000D0CDB7DEB75C01FC0119
:10128000878D90A10E94D11085010F5D1F4F88238B
:1012900009F4DEC0C5010E94F40861E070E0C801F5
:1012A0000E941B24F501878D90A10E94750D20E0FE
:1012B00030E044E354E40E94493F6B017C01F501B6
:1012C0006083718382839383878D90A10E94700EC7
:1012D0009B01AC01C701B6010E94493FF50164833F
:1012E000758386839783C8010E943821F501248580
:1012F00035854685578560857185828593850E94F1
:10130000483F6B017C0120E030E0A9010E941242BD
:10131000181624F0F7FAF094F7F8F094F501878D99
:1013200090A10E94B10EBC01882777FD8095982F6F
:101330000E94B1409B01AC01C701B6010E9412425C
:1013400018160CF09EC0F5018089078D10A1C0848D
:10135000D184E284F3844484558466847784A30131
:101360009201882309F1C701B6010E9412421816A2
:101370000CF1A3019201C701B6010E940F4087FF43
:101380003FC0F501108AC8010E94B70EBC01882732
:1013900077FD8095982F0E94B1409B01AC01C70159
:1013A000B6010E94483F27C0C701B6010E940F4006
:1013B00087FF06C0F501C486D586E686F78620C07D
:1013C000A3019201C701B6010E9412421816C4F48B
:1013D00081E0F501808BC8010E94B70EBC0188270F
:1013E00077FD8095982F0E94B1409B01AC01C70109
:1013F000B6010E94493FF501648775878687978704
:10140000F5014485558566857785878D90A10E9475
:10141000E80FF501878D90A10E94BD0E2B013C01C4
:1014200020E030E048EC52E4F5016485758586855E
:1014300097850E941D420E947E40AB01BC01E12CB9
:10144000F12C9301820186EC94E00E947A2D19C060
:1014500060E070E0C80126960FB6F894DEBF0FBEBC
:10146000CDBFDF91CF911F910F91FF90EF90DF9053
:10147000CF90BF90AF907F906F905F904F900C9403
:101480001B2426960FB6F894DEBF0FBECDBFDF91AA
:10149000CF911F910F91FF90EF90DF90CF90BF9071
:1014A000AF907F906F905F904F900895FC011082F5
:1014B0001182128213821482158216821782108A78
:1014C000118A128A138A148A158A168A178A108E2C
:1014D000118E128E138E148E40E050E064EB72E495
:1014E000458F568F678F70A340E050E064EB72EC3D
:1014F00041A352A363A374A340E050E064E373E408
:1015000045A356A367A370A740E050E064E373ECE3
:1015100041A752A763A774A715A683E482AB13AAB9
:1015200014AA15AA16AA40E050E064E072E447ABA2
:1015300050AF61AF72AF13AE40E050E068EC72E4C0
:1015400044AF55AF66AF77AFDF01A05CBF4F40E05F
:1015500050E060E271E44D935D936D937C9313973B
:1015600014964D935D936D937C931397149640E876
:1015700050E060E070E04D935D936D937C93139722
:10158000108611861286138614861586168617868F
:1015900014961C9211961D921D921D921C921397E7
:1015A00014961D921D921D921C921397149686E517
:1015B0008C9311961D921D921D921C921397149656
:1015C0001D921D921D921C92139714961D921D92AE
:1015D0001D921C92139714961D921D921D921C929F
:1015E000139714961C9211961C9211961C921196A8
:1015F0001C92A55ABF4F21E034E011963C932E93E4
:1016000012968FEF9FEF11969C938E93AC55B10974
:101610001C92A25ABF4F11963C932E93129611968C
:101620009C938E93AF55B1091C92AF59BF4F119641
:101630003C932E93129611969C938E93A256B109C9
:101640001D921D921D921C92139714961D921D922D
:101650001D921C921397149611961C921E9212962C
:1016600011961C921E92129611961C921E92129620
:101670001C9211961D921D921D921C921397149606
:101680001D921D921D921C921397149640E050E0FB
:1016900060E272E44D935D936D937C93139714967F
:1016A0001C9211961C92119611961C921E921296E3
:1016B00011961C921E92169640E050E060E87FE37F
:1016C0004D935D936D937C93139714961C92119692
:1016D00040EE53E964E070E04D935D936D937C932D
:1016E000139714961C9211961C92119683E690E023
:1016F00011969C938E9312961C92119640E050E4A2
:101700006CE176E44D935D936D937C9313971496FF
:1017100011961C921E92129611961C921E9212966F
:1017200040E056E960E070E04D935D936D937C93EB
:101730001397149640EC52E160E070E04D935D9396
:101740006D937C931397149640E855E260E070E047
:101750004D935D936D937C93139714964D935D9386
:101760006D937C93139714964D935D936D937C9337
:10177000139718964D935D936D937C9313971496DE
:101780001C92E053FF4F8DE090E091838083089599
:101790000F931F93CF93DF938C01EB0162E272E012
:1017A000CE010E94A83864E172E0CE010E94A83800
:1017B0006EE072E0CE010E94A838F801ED55FF4FAF
:1017C000608171814AE050E0CE010E94B13968E049
:1017D00072E0CE010E94A838F801EB55FF4F6081FE
:1017E00071814AE050E0CE010E94B13962E072E0BE
:1017F000CE010E94A838F801E955FF4F4081518180
:10180000628173812AE030E0CE010E9467396CEF7B
:1018100071E0CE010E94A838F801E555FF4F4081E4
:101820005181628173812AE030E0CE010E946739E4
:1018300066EF71E0CE010E94A838F801E155FF4F34
:1018400040815181628173812AE030E0CE010E94A3
:10185000673960EF71E0CE010E94A838F801ED54BD
:10186000FF4F40815181628173812AE030E0CE01D7
:101870000E9467396AEE71E0CE010E94A838F80133
:10188000ED53FF4F608170E04AE050E0CE010E94CE
:10189000B13964EE71E0CE010E94A838F801EC5332
:1018A000FF4F608171814AE050E0CE010E94B13962
:1018B0006EED71E0CE010E94A838F801EA53FF4FA7
:1018C000608171814AE050E0CE010E94B13968ED3B
:1018D00071E0CE010E94A838F801E853FF4F608103
:1018E00071814AE050E0CE010E94B13962ED71E0B1
:1018F000CE010E94A838F801E653FF4F6081718144
:101900004AE050E0CE010E94B1396CEC71E0CE01AA
:101910000E94A838F801E453FF4F608171814AE0CA
:1019200050E0CE010E94B13966EC71E0CE010E9418
:10193000A838F801E253FF4F608171814AE050E01E
:10194000CE010E94B13964EC71E0CE010E94EA3808
:1019500080E090E0DF91CF911F910F9108950F9358
:101960001F93CF93DF93EC01FC01E053FF4F4081C5
:1019700060E070E08EE39CE00E947331FE01EF5264
:10198000FF4F408161E070E08EE39CE00E94733184
:10199000C558DF4F64E070E049918B010F5F1F4F26
:1019A0008EE39CE00E9473310935110511F0B801F6
:1019B000F3CFDF91CF911F910F910895EF92FF9296
:1019C0000F931F93CF93DF9300D0CDB7DEB78C0179
:1019D00060E070E08EE39CE00E947031898361E0FA
:1019E00070E08EE39CE00E9470318A83F801E0533E
:1019F000FF4F29813A81808191812817390719F099
:101A0000C8010E94AF0C05581F4F64E070E07B01D5
:101A10008FEFE81AF80A8EE39CE00E947031F8011B
:101A200081938F01F9E5EF16F10411F0B701EFCFC3
:101A30000F900F90DF91CF911F910F91FF90EF903A
:101A40000895FC0160817181828193810895FC0178
:101A500064817581868197810895FC016489758907
:101A6000868997890895FC0165A176A187A190A533
:101A7000089585589F4FFC01608171818281938117
:101A8000089581589F4FFC0160817181828193810B
:101A90000895FC01608D718D828D938D0895FC01F8
:101AA000658D768D878D90A108958D579F4FFC0190
:101AB00060817181828193810895FC0160897189BF
:101AC000828993890895FC0161A172A183A194A1E7
:101AD0000895FC0161A572A583A594A50895FC0154
:101AE00067A970AD81AD92AD0895FC0163A974A999
:101AF00085A996A90895FC0122A9273559F4EA5829
:101B0000FF4F60817181882777FD8095982F0E9413
:101B1000B1400895FC0160857185828593850895A3
:101B2000EF92FF920F931F93CF93DF938C01EB0102
:101B30006FE772E0CE010E94A83861E772E0CE0143
:101B40000E94A838F80165A570E04AE050E0CE0197
:101B50000E94B1396BE672E0CE010E94A838F8010C
:101B600062A9CE010E94CF38F80185A58823A9F18A
:101B700065E672E0CE010E94A838F80143A954A995
:101B800065A976A922E030E0CE010E94CA3A6FE54D
:101B900072E0CE010E94A838C8010E947B0DAB0103
:101BA000BC0122E030E0CE010E94CA3A69E572E051
:101BB000CE010E94A83820E030E044E052E4F80171
:101BC00067A970AD81AD92AD0E94483FAB01BC01E9
:101BD00022E030E0CE010E94CA3A63E572E0CE0115
:101BE0000E94A8387801F7E8EF0EF11CF701608138
:101BF00070E04AE050E0CE010E94B1396DE472E03D
:101C0000CE010E94A838F801ED57FF4F4081518165
:101C10006281738122E030E0CE010E94CA3AF7016E
:101C20008081882389F167E472E0CE010E94A838A0
:101C3000F801E558FF4F408151816281738122E0B4
:101C400030E0CE010E94CA3A61E472E0CE010E9407
:101C5000A838F801E158FF4F4081518162817381BA
:101C600022E030E0CE010E94CA3A6BE372E0CE017E
:101C70000E94A838F801448955896689778922E04D
:101C800030E0CE010E94CA3A65E372E0CE010E94C4
:101C9000A838F801E256FF4F608170E04AE050E05A
:101CA000CE010E94B1396FE272E0CE010E94A838E5
:101CB000F801E456FF4F608171814AE050E0CE01A7
:101CC0000E94B1396DE272E0CE010E94EA3880E0F4
:101CD00090E0DF91CF911F910F91FF90EF900895C9
:101CE000CF92DF92EF92FF92CF93DF93EC010E94AD
:101CF0007B0D9B01AC016BA97CA98DA99EA90E94BB
:101D0000483F6B017C0120E030E044E353E40E9453
:101D1000124218167CF020E030E044E353ECC70197
:101D2000B6010E940F4087FF0AC020E030E044EB7C
:101D300053E408C020E030E044EB53EC03C020E063
:101D400030E0A901C701B6010E94493F6EA77FA7F5
:101D500088AB99ABDF91CF91FF90EF90DF90CF9060
:101D6000089587579F4FFC01808191810895855781
:101D70009F4FFC0180819181089583579F4FFC0103
:101D800060817181828193810895835B9F4FFC0103
:101D9000608171818281938108958A5A9F4FFC01ED
:101DA00060817181828193810895865A9F4FFC01E1
:101DB000608171818281938108958F569F4FFC01CC
:101DC000608171818281938108958B5A9F4FFC01BC
:101DD00080810895FC0160857185828593850895D1
:101DE000FC01648575858685978508958C539F4F82
:101DF000FC018081918108958C539F4FFC01718378
:101E0000608308958A539F4FFC01808191810895DA
:101E100088539F4FFC0180819181089588539F4F83
:101E2000FC0171836083089586539F4FFC0180817C
:101E30009181089584539F4FFC0180819181089581
:101E400084539F4FFC0171836083089582539F4F99
:101E5000FC018081918108958D559F4FFC01808107
:101E60009181089584569F4FFC018081918108954E
:101E70008A589F4FFC0180819181089580599F4F1E
:101E8000FC016081718182819381089581569F4F09
:101E9000FC01608171818281938108958C589F4FEC
:101EA000FC0180819181089589579F4FFC018081B9
:101EB0000895845B9F4FFC018081089582569F4F57
:101EC000FC0180810895FC01408351836283738308
:101ED0000895FC0144835583668377830895895769
:101EE0009F4FFC0160830895FC01648F0895FC01FD
:101EF000448B558B668B778B0895FC0145A356A3C5
:101F000067A370A7089585589F4FFC0140835183B4
:101F100062837383089581589F4FFC0140835183EE
:101F2000628373830895FC01408F518F628F738F9A
:101F30000895FC01458F568F678F70A308958D57C4
:101F40009F4FFC0140835183628373830895FC019A
:101F5000408B518B628B738B0895FC0141A352A37C
:101F600063A374A30895FC0141A752A763A774A7B4
:101F70000895CF93DF93EC01673511F0633429F5B1
:101F80006AAB673581F4FE01EA58FF4F60817181C9
:101F9000882777FD8095982F0E94B1406BAB7CAB72
:101FA0008DAB9EAB0AC0633441F4488559856A8580
:101FB0007B854BAB5CAB6DAB7EAB40E050E064E04F
:101FC00072E44FAB58AF69AF7AAFDF91CF9108950C
:101FD000FC0147AB50AF61AF72AF0895CF93DF9371
:101FE000EC01CB01BA010E947E40CB0188599E4F83
:101FF00068E671E00E940343BC01882777FD809565
:10200000982F0E94B1406BAB7CAB8DAB9EABDF9148
:10201000CF9108958E599F4FFC0140835183628375
:1020200073830895845B9F4FFC0160830895835BF5
:102030009F4FFC01408351836283738308958A5AC2
:102040009F4FFC0140835183628373830895865AB6
:102050009F4FFC0140835183628373830895825AAA
:102060009F4FFC01408351836283738308958B5A91
:102070009F4FFC01608308958F5A9F4FFC0140835E
:102080005183628373830895FC014087518762877F
:1020900073870895FC01448755876687778708957D
:1020A000CF93DF931F92CDB7DEB76983298187591C
:1020B0009F4FFC0120830F90DF91CF910895CF9324
:1020C000DF931F92CDB7DEB76983298186599F4F71
:1020D000FC0120830F90DF91CF910895CF93DF9380
:1020E0001F92CDB7DEB76983298185599F4FFC01C7
:1020F00020830F90DF91CF9108958D559F4FFC0164
:1021000071836083089582569F4FFC016083089518
:1021100084569F4FFC017183608308958A589F4FB6
:10212000FC0171836083089588589F4FFC0171837F
:102130006083089580599F4FFC01408351836283DF
:102140007383089584599F4FFC01408351836283B8
:1021500073830895FC01E658FF4F20812223F9F094
:10216000739720812223D9F0319720812223B9F05F
:10217000FC01248D222399F023AD222381F0E8591C
:10218000FF4F2081222359F031962081222339F0FC
:1021900031962081222319F031968081089580E0C4
:1021A0000895FC0185A508951F93CF93DF93EC015B
:1021B000162F6AA90E94B90F1DA7DF91CF911F9119
:1021C00008958C589F4FFC01718360830895865851
:1021D0009F4FFC01608308958B559F4FFC018081C8
:1021E000918108958B559F4FFC0171836083089501
:1021F00089559F4FFC01608171818281938108958F
:1022000089559F4FFC0140835183628373830895F6
:1022100085559F4FFC016081718182819381089572
:1022200085559F4FFC0140835183628373830895DA
:1022300081559F4FFC016081718182819381089556
:1022400081559F4FFC0140835183628373830895BE
:102250008D549F4FFC01608171818281938108952B
:102260008D549F4FFC014083518362837383089593
:1022700089549F4FFC01608171818281938108950F
:1022800085549F4FFC016081718182819381089503
:1022900081549F4FFC0160817181828193810895F7
:1022A0008D539F4FFC01808108958D539F4FFC01FA
:1022B0006083089581E08093C40B8091C20B90915C
:1022C000C30B01969093C30B8093C20B8091C20BFA
:1022D0009091C30B64E170E00E9403439093C30BA1
:1022E0008093C20B08958FE096E00C94B81D8FE0A8
:1022F00096E00C94F41D80EF9AE00E94DE0C80EFD3
:102300009AE00E94F810AB01BC0126E080E09DE05D
:102310000E9438356AEB73E080E09DE00E94EA3865
:1023200089E096E00E946B1A6FE973E080E09DE01F
:102330000E94A83880EF9AE00E940811AB01BC010E
:102340002AE030E080E09DE00E94B93980EF9AE019
:102350000E945011882361F06FE773E080E09DE0F8
:102360000E94EA3827E040EC52E160E070E019C0DA
:1023700063E673E080E09DE00E94A83880EF9AE079
:102380000E941811AB01BC012AE030E080E09DE022
:102390000E94B93980EF9AE00E941811AB01BC018C
:1023A00026E08AE39EE00E94383567E473E080E02F
:1023B0009DE00E94A83880EF9AE00E942811AB01AE
:1023C000BC012AE030E080E09DE00E94B93980EF56
:1023D0009AE00E942811AB01BC0126E087ED9EE047
:1023E0000E94383565E373E080E09DE00E94EA38A2
:1023F00068EE73E080E090E00E94503D61E083E48D
:102400000E94533E60E273E080E09DE00E94EA3863
:1024100064E670E080E090E00E94503D61E083E47B
:102420000E948C3E6BE073E080E09DE00E94EA3801
:102430006FEE72E080E09DE00E94A83880EF9AE0A5
:102440000E943811AB01BC012AE030E080E09DE041
:102450000E94B93980EF9AE00E943811AB01BC01AB
:102460008BEF95E00E94652A64E670E080E090E0E2
:102470000E94503D6FED72E080E09DE00E94EA38DE
:1024800060E080E30E94533E61E08EE20E94533E92
:1024900066EB72E080E09DE00E94A83880EF9AE051
:1024A0000E944011AB01BC012AE030E080E09DE0D9
:1024B0000E94B93980EF9AE00E944011AB01BC0143
:1024C0008FEA9AE00E94351B83EA95E00E94160885
:1024D00069EA72E080E09DE00E94EA3860E083E013
:1024E0000E94533E43E050E063E771E181E00E94C7
:1024F000CC3A60E082E00E94533E43E050E067E760
:1025000071E180E00E94CC3A6BE972E080E09DE0EE
:102510000E94EA384AE551E164E670E080E090E02C
:102520000E94D5300E94E1306AE872E080E09DE0D0
:102530000C94EA386F927F928F929F92AF92BF92E3
:10254000CF92DF92EF92FF920F931F93CF93DF937F
:1025500000D000D01F92CDB7DEB7ADB6BEB66FE7E4
:1025600074E00E9400457C01009709F428C2FC0138
:1025700001900020E9F78F0101501109081B190B88
:102580000430110508F41BC2F70180819801245022
:10259000310969018DB69EB6833209F0ADC144E0C0
:1025A00050E0B701CE0101960E941D451D82380101
:1025B00035E0631A71088DB79EB78C199D090FB667
:1025C000F8949EBF0FBE8DBF0DB71EB70F5F1F4F94
:1025D000B7016B5F7F4FA301C8010E940445F8015A
:1025E000E60DF71D108269E172E0CE0101960E94AE
:1025F0000D45892BB1F4C8010E94BB4461E0892BD1
:1026000009F460E080EF9AE00E946F0FC8010E9419
:10261000BB44019709F0CEC18FE995E00E94E6071F
:10262000C9C16EE172E0CE0101960E940D45892B71
:10263000B1F480EF9AE00E94550D6B017C01C80156
:102640000E94B7449B01AC01C701B6010E94493FFB
:10265000AB01BC0180EF9AE00E949F0FABC163E227
:1026600072E0CE0101960E940D45892B51F4C801FC
:102670000E94B744AB01BC0180EF9AE00E94830F37
:1026800099C168E272E0CE0101960E940D45892B46
:1026900051F4C8010E94B744AB01BC0180EF9AE03D
:1026A0000E948B0F87C16DE272E0CE0101960E94FD
:1026B0000D45892B61F4C8010E94BB4461E0892B60
:1026C00009F460E080EF9AE00E94D41069C162E3EF
:1026D00072E0CE0101960E940D45892BC1F480EF76
:1026E0009AE00E94750D6B017C01C8010E94D944DB
:1026F0000E94B1409B01AC01C701B6010E94493F55
:10270000AB01BC0180EF9AE00E94EE0F49C167E384
:1027100072E0CE0101960E940D45892B39F4F80133
:10272000608180EF9AE00E94B90F3AC16CE372E0D9
:10273000CE0101960E940D45892B61F4C8010E94CB
:10274000BB4461E0892B09F460E080EF9AE00E94CD
:10275000831030C161E472E0CE0101960E940D4504
:10276000892B49F4C8010E94BB44BC0180EF9AE068
:102770000E9488101FC166E472E0CE0101960E949B
:102780000D45892B49F4C8010E94BB44BC0180EF70
:102790009AE00E947D100EC16BE472E0CE010196BA
:1027A0000E940D45892B49F4C8010E94BB44BC011D
:1027B00080EF9AE00E94FC0EFDC060E572E0CE0161
:1027C00001960E940D45892B49F4C8010E94BB4423
:1027D000BC0180EF9AE00E940E0FECC065E572E04C
:1027E000CE0101960E940D45892B49F4C8010E9433
:1027F000BB44BC0180EF9AE00E94200FDBC06AE579
:1028000072E0CE0101960E940D45892B39F460E0FB
:102810007DE080EF9AE00E94C80BC2C06FE572E0D5
:10282000CE0101960E940D45892B49F4C8010E94F2
:10283000BB44BC0180EF9AE00E94F210BBC064E68A
:1028400072E0CE0101960E940D45892B51F4C8011A
:102850000E94D944AB01BC0180EF9AE00E940011B4
:10286000A9C069E672E0CE0101960E940D45892B50
:1028700051F4C8010E94D944AB01BC0180EF9AE039
:102880000E94101197C06EE672E0CE0101960E9480
:102890000D45892B51F4C8010E94D944AB01BC01FC
:1028A00080EF9AE00E94201185C063E772E0CE01BC
:1028B00001960E940D45892B51F4C8010E94D9440C
:1028C000AB01BC0180EF9AE00E94301173C068E751
:1028D00072E0CE0101960E940D45892B09F060C07F
:1028E000C8010E94BB4461E0892B09F460E080EFDD
:1028F0009AE00E9455115EC043E050E0B701CE015E
:1029000001960E941D451C82035011092DB73EB748
:10291000201B310B0FB6F8943EBF0FBE2DBF0DB775
:102920001EB70F5F1F4FB7016C5F7F4FA601C80135
:102930000E940445F801EC0DFD1D10826DE772E068
:10294000CE0101960E940D45892B49F4C8010E94D1
:10295000B744AB01BC0180EF9AE00E94441061E8EB
:1029600072E0CE0101960E940D45892B49F4C80101
:102970000E94B744AB01BC0180EF9AE00E944A106C
:1029800065E872E0CE0101960E940D45892B41F465
:10299000C8010E94BB44BC0180EF9AE00E949410E1
:1029A0000FB6F8949EBE0FBE8DBE6FE774E080E058
:1029B00090E0D7CD80EF9AE00E94AF0CF1CF0FB638
:1029C000F894BEBE0FBEADBE0F900F900F900F904B
:1029D0000F90DF91CF911F910F91FF90EF90DF90BB
:1029E000CF90BF90AF909F908F907F906F90089501
:1029F000CF93DF93DC01FC0101900020E9F7E81B95
:102A0000F90B3297EC01219680E09E012A1B3B0BCB
:102A10002E173F0718F499918927F7CFDF91CF91AF
:102A200008951F93CF93DF93C1E2D5E014E680E0D1
:102A30009DE00E94CD33892B61F180E09DE00E94F2
:102A4000E83320911F0530912005F901EF5DFA4F21
:102A500080832F5F3F4F3093200520931F058A30DE
:102A600029F08D3019F0233631050CF3F901EF5DB3
:102A7000FA4F10826CE281E295E00E949A12109265
:102A8000200510921F05FE01812F11928A95E9F70A
:102A9000CECFDF91CF911F9108958DE99DE00E94E7
:102AA000CD33892BF9F08DE99DE00E94E833682F42
:102AB00089E096E00E94B31880931E05882369F38D
:102AC00086E499E00E947225BC018FEA9AE00E9498
:102AD000461B86E499E00E947225BC0180E09DE0DF
:102AE0000C94FC3808958AE39EE00E94CD33892B34
:102AF00079F180EF9AE00E945011882351F08AE327
:102B00009EE00E94E833682F85E895E00E94671CEC
:102B1000EACF8AE39EE00E94E833682F8EEA97E0CE
:102B20000E94AC1A80931D058823E9F28EEA97E093
:102B30000E94151BBC018FEA9AE00E94461B8EEA98
:102B400097E00E94151BBC0180E09DE00C94FC38CE
:102B5000089587ED9EE00E94CD33892BF9F087ED33
:102B60009EE00E94E833682F82EE96E00E94AC1A45
:102B700080931C05882369F382EE96E00E94151B62
:102B8000BC018FEA9AE00E94461B82EE96E00E940A
:102B9000151BBC0180E09DE00C94FC3808958BEF80
:102BA00095E00E94B229892BF9F08BEF95E00E9405
:102BB000AD29682F86E196E00E94AC1A80931B0530
:102BC000882369F386E196E00E94151BBC018FEA19
:102BD0009AE00E94461B86E196E00E94151BBC010C
:102BE00080E09DE00C94FC3808958091C40B88230C
:102BF00009F444C083EA95E00E942B098091C20B3E
:102C00009091C30B8091C20B9091C30B65E070E073
:102C10000E940343892B71F48FE096E00E94511EBD
:102C200081E196E00E942F0460E07DE080EF9AE071
:102C30000E94900D8091C20B9091C30B6AE070E0EE
:102C40000E940343892BC1F48FE096E00E94561F37
:102C50008FEA9AE00E94481B8FE995E00E94E20605
:102C600081E196E00E948C0481E196E00E94C60416
:102C70008FEA9AE00E94BE1B1092C40B0C94CF15F1
:102C800080EF9AE00E94560A1092B20A1092B10A9E
:102C900088EE93E0A0E0B0E08093B30A9093B40A8A
:102CA000A093B50AB093B60A87E992E09093B00A70
:102CB0008093AF0A80EF9AE09093BC0A8093BB0A9E
:102CC00060E070E086E499E00E94E82460E070E053
:102CD0008AE798E00E94A31A60E070E08EEA97E02D
:102CE0000E94A31A60E070E082EE96E00E94A31AB0
:102CF00060E070E086E196E00E94A31A60EF7AE05F
:102D000081E196E00E94E70360EF7AE08FE096E0D1
:102D10000E94781C40EF5AE066E479E089E096E092
:102D20000E94CD1641E063E48BEF95E00E94F42809
:102D300060EF7AE083EA95E00E94060860EF7AE0AF
:102D40008FE995E00E94BA0640EF5AE06AE37EE020
:102D500085E895E00C945F1C8FE995E00E941A05C8
:102D600083EA95E00E94DB0889E096E00E94C016A5
:102D700081E196E00E94DA038FEA9AE00C94201B2E
:102D80002FE832E0FC013183208308952FE832E000
:102D9000FC01318320830C94D53CFC018FE892E048
:102DA0009183808355834483738362830895CF9294
:102DB000DF92EF92FF921F93CF93DF93162F60E085
:102DC000812F0E94533E61E0812F0E948C3EC0E023
:102DD000D4E080E1C82E87E2D82EE12CF12C28E443
:102DE00038EE41E050E060E0812F0E94C23E1616AE
:102DF0001706180619063CF46C157D058E059F050F
:102E000014F46B017C01219751F76AE675E080E0CC
:102E10009DE00E94A8382AE030E0B701A60180E0DA
:102E20009DE00E94B9398CE0C816D104E104F10498
:102E3000F4F184E1C816D104E104F104ECF18EE16F
:102E4000C816D104E104F104E4F188E2C816D10403
:102E5000E104F104DCF18CE3C816D104E104F104CF
:102E6000D4F180E5C816D104E104F104CCF186E97F
:102E7000C816D104E104F104C4F18CE2C81681E063
:102E8000D806E104F104B4F188E5C81682E0D8065A
:102E9000E104F104A4F180EBC81684E0D806E10453
:102EA000F10494F560EB74E080E090E030C060E005
:102EB00072EC81E090E02BC060E071EE80E090E089
:102EC00026C060E076E980E090E021C060E870E72D
:102ED00080E090E01CC060E07BE480E090E017C000
:102EE00060E478E380E090E012C060E875E280E0A2
:102EF00090E00DC060EC72E180E090E008C060E618
:102F000079E080E090E003C060E070E0CB01DF9109
:102F1000CF911F91FF90EF90DF90CF900895CF92C7
:102F2000DF92EF92FF927C0166E575E080E09DE024
:102F30000E94A83863E170E0C7010E94D7166B01B8
:102F40007C0116161706180619068CF46FE475E056
:102F500080E09DE00E94A8382AE030E0B701A60199
:102F600080E09DE00E94B939B601C70110C068E455
:102F700075E080E09DE00E94A83863E375E080E0A2
:102F80009DE00E94EA3860EC72E180E090E0FF9002
:102F9000EF90DF90CF9008954F925F926F927F9263
:102FA0008F929F92AF92BF92CF92DF92EF92FF9259
:102FB0000F931F93CF93DF93CDB7DEB760970FB614
:102FC000F894DEBF0FBECDBF69837A838B839C8369
:102FD000CA01B90127013801A60195010E94483FA5
:102FE00025E33AEF4EE85CE30E941D426B017C0151
:102FF0000E9480426D877E878F87988BC701B601BC
:103000000E9413406D837E838F83988725E33AEF78
:103010004EE85CE369817A818B819C810E941D422C
:103020006B017C0125E33AEF4EE85CE3C301B2019A
:103030000E941D422B013C01C701B6010E94804243
:103040004B015C01C701B6010E94134069837A837A
:103050008B839C83C301B2010E94804269877A8777
:103060008B879C87C301B2010E9413406B017C01D6
:1030700029853A854B855C8569817A818B819C8124
:103080000E941D422B013C01A7019601C501B4011C
:103090000E941D422D813E814F8158850E941D4214
:1030A0009B01AC01C301B2010E94483F9B01AC01EE
:1030B0000E941D422B013C012D853E854F8558897C
:1030C000C701B6010E941D429B01AC010E941D4236
:1030D0009B01AC01C301B2010E94493F0E948A4298
:1030E0002B013C0129853A854B855C85C501B401DE
:1030F0000E941D424B015C01A701960169817A8102
:103100008B819C810E941D422D813E814F8158857B
:103110000E941D429B01AC01C501B4010E94493FC0
:103120009B01AC01C301B2010E94BC3F26E73BE713
:1031300042EC5AE40E941D4260960FB6F894DEBF3E
:103140000FBECDBFDF91CF911F910F91FF90EF90F8
:10315000DF90CF90BF90AF909F908F907F906F90B7
:103160005F904F900895CF93DF93EC018A819B810C
:103170000E94112661E0892B09F460E08C819D8119
:103180000E9412108C819D810E94590F882369F141
:103190008A819B810E944925682F8C819D810E9494
:1031A00037108A819B810E9449258134F1F460E0C7
:1031B00070E08A819B810E947425FC0182818235A6
:1031C000A1F060E070E08A819B810E947425FC017F
:1031D00083818D3451F060E070E08A819B810E9490
:1031E0007425FC018481833431F48C819D81DF91CD
:1031F000CF910C94590F0E94213DAB01BC018C81F1
:103200009D810E9417108A819B810E946C25AB01D1
:10321000BC018C819D810E940A108A819B810E9441
:103220004C25AB01BC018C819D810E941F108A81BD
:103230009B810E945225AB01BC018C819D810E9423
:1032400027108C819D810E94DD0EAB01BC018A811B
:103250009B810E945825AB01BC018C819D810E94FD
:103260002F108A819B810E944325AB01BC018C8178
:103270009D810E943C10B9CFDF92EF92FF920F9395
:103280001F93CF93DF93CDB7DEB7A8970FB6F8940F
:10329000DEBF0FBECDBF8C016DE175E080E09DE02B
:1032A0000E94EA38F801848195810E94EC10892BF4
:1032B00031F466E075E080E09DE00E94EA38F801B4
:1032C000848195810E94EC10019709F07FC06FEE18
:1032D00074E080E09DE00E94EA3861EE74E08DE9E0
:1032E0009DE00E94EA3869EC74E08DE99DE00E945F
:1032F000EA3861EB74E08DE99DE00E94EA3869E903
:1033000074E08DE99DE00E94EA3861E874E08DE99F
:103310009DE00E94EA3869E674E08DE99DE00E9434
:10332000EA3861E574E08DE99DE00E94EA3863E4E3
:1033300074E08DE99DE00E94EA381AA219A285E79F
:1033400094E098A38F8FCE0101967C019CA38BA360
:103350008EE190E098A78FA3CE014F960E942C217A
:1033600067E374E0CE014F960E94A838F80184818B
:1033700095810E940811AB01BC012AE030E0CE012A
:103380004F960E9467396FE274E0CE014F960E941B
:10339000A838C7010E94F814D82EFFE0F81728F0CB
:1033A00060E3CE014F960E94CF3840E150E06D2D92
:1033B000CE014F960E94D839B7018DE99DE00E9459
:1033C000FC38B70180E09DE00E94FC38F801848160
:1033D00095810E94EC10029709F055C066E174E0F7
:1033E00080E09DE00E94EA3865E074E08DE99DE0B0
:1033F0000E94EA3863ED73E08DE99DE00E94EA38AF
:103400001AA219A285E794E098A38F8FCE010196A6
:103410007C019CA38BA38EE190E098A78FA3CE01A3
:103420004F960E942C2169EC73E0CE014F960E94CA
:10343000A838F801848195810E940811AB01BC0174
:103440002AE030E0CE014F960E94673969E872E0C9
:10345000CE014F960E94CD38C7010E94F814182F54
:10346000803128F460E3CE014F960E94CF3840E1CE
:1034700050E0612FCE014F960E94D839B7018DE9F7
:103480009DE00E94FC38A8960FB6F894DEBF0FBEF0
:10349000CDBFDF91CF911F910F91FF90EF90DF9003
:1034A00008951092C80B1092C70B85E794E0909393
:1034B000C60B8093C50B8FEC9BE09093CA0B809357
:1034C000C90B88E290E09093CE0B8093CD0B85ECF6
:1034D0009BE00C942C21CF92DF92EF92FF92CF933E
:1034E000DF93EC010E948F176B017C01AB01BC01E3
:1034F0008C819D810E9410118C819D810E94AF0C56
:1035000026E0B701A6018DE99DE00E943835CE0185
:103510000E943C198DE99DE00E945A348DE99DE09E
:103520000E949A358C819D810E940811AB01BC01DB
:1035300026E08DE99DE0DF91CF91FF90EF90DF9045
:10354000CF900C943835FC01E853FF4F1182108264
:103550003296118210820895CF93DF93DC01A85335
:10356000BF4F4D915C911197FC01E653FF4F4236DE
:10357000510514F0118210826A3011F06D3011F48F
:1035800011821082643261F424E6EC0119922A95CA
:10359000E9F7EC01688381E090E08D939C933AC059
:1035A0002081318121303105E1F024F421153105EC
:1035B000C1F133C02230310511F12330310569F5F5
:1035C000FC01E40FF51F60834E5F5F4F4D935C93EA
:1035D0001182BC018C599F4F0E94164521E030E0BA
:1035E00020C09A012F5F3F4FEC01C40FD51F2D93D0
:1035F0003C9368836A3299F482E090E00BC09A01B0
:103600002F5F3F4F2D933C93DC01A40FB51F6C93AC
:1036100083E090E09183808302C01182108220E0D9
:1036200030E0C901DF91CF9108958C599F4F0895E3
:10363000862F0E94FD3181E090E008950C94C03205
:1036400027E934E0FC01318320830C94B933CF9314
:10365000DF93EC0187E994E0998388830E94B93372
:10366000CE01DF91CF910C94D53C9A01AB01CA01F8
:10367000B90196958795779567957C5D8B409F4FAF
:103680000E941743CA01B9010C94AB310C94FC3869
:10369000EF92FF920F931F93CF93DF93CDB7DEB7D7
:1036A0002A970FB6F894DEBF0FBECDBF8C017C0108
:1036B0008EE0E80EF11C1C821B8285E794E09A8361
:1036C0008983FE82ED828EE190E09A878987CE0120
:1036D00001960E942C216BE975E0CE0101960E94B3
:1036E000A838F801848595850E94380F4AE050E09B
:1036F000BC01CE0101960E94B13965E975E0CE01A9
:1037000001960E94A838F801848595850E943E0F95
:10371000AB01BC0122E030E0CE0101960E94CA3A22
:103720006FE875E0CE0101960E94A838C7010E949B
:10373000F814005C1F4FF8018083803128F460E3A7
:10374000CE0101960E94CF3840E150E0F80160813F
:10375000CE0101960E94D839B70180E09DE00E9419
:10376000FC382A960FB6F894DEBF0FBECDBFDF91AE
:10377000CF911F910F91FF90EF900895AF92BF925C
:10378000CF92DF92EF92FF920F931F93CF93DF932D
:10379000CDB7DEB72A970FB6F894DEBF0FBECDBF08
:1037A0008C01FC01848595850E94F00E20E030E0BC
:1037B000A9010E940F40882309F470C05801FCE25F
:1037C000AF0EB11C1C821B8285E794E09A8389832B
:1037D000BE82AD8284E190E09A878987CE0101960E
:1037E0000E942C2167E875E0CE0101960E94A8385E
:1037F000F801848595850E94EA0E6B017C01F80131
:10380000848595850E94F00E9B01AC01C701B6012D
:103810000E94483FAB01BC0122E030E0CE0101969E
:103820000E94CA3A63E875E0CE0101960E94A8386A
:103830007801F0E4EF0EF11CF701108281E090E0D6
:10384000F50101900020E9F7EA19FB0932978E177C
:103850009F0750F4F801E80FF91F24A5F701308104
:10386000232720830196ECCFF7018081803128F453
:1038700060E3CE0101960E94CF3840E150E0F701AD
:103880006081CE0101960E94D839B50180E09DE0AB
:103890000E94FC38B501C8010E94FC382A960FB678
:1038A000F894DEBF0FBECDBFDF91CF911F910F9176
:1038B000FF90EF90DF90CF90BF90AF900895FC0104
:1038C000578B468B718F608F118210820895FC0197
:1038D000A081B181A80FB91F12966C93808191814C
:1038E00043972CF480819181019691838083089580
:1038F000CF93DF93EB01FC01718360830E942D3D28
:103900006093250C7093260C8093270C9093280CC1
:103910004091250C5091260C6091270C7091280C39
:103920004093210C5093220C6093230C7093240C31
:1039300010920D0C10920E0C10920F0C1092100C95
:1039400081E08093080C1092FA0B1092FB0B80918F
:10395000F70B9091F80B20E03091F90B231760F4EE
:10396000FC0134E0239FE00DF11D1124108211822F
:10397000128213822F5FF0CFCE010E94320F843665
:1039800091053CF063E670E0CE01DF91CF910C949D
:103990008810DF91CF910895CF92DF92EF92FF923E
:1039A0000F931F93CF93CB01BA0197FF09C0909556
:1039B0008095709561957F4F8F4F9F4FC0E001C0FC
:1039C000C1E0683621E072078105910534F028E6F0
:1039D00031E040E050E00E943943653B71058105CC
:1039E000910534F0645B71098109910921E0C227D6
:1039F0006B3571058105910564F004EB10E020E062
:103A000030E068017901C61AD70AE80AF90AC70145
:103A1000B601660F771FFB01E554FC4F6081718191
:103A2000CC2319F080E090E00CC0CB01A0E0B0E026
:103A30009C01AD0166277727CB01621B730B840BBA
:103A4000950BCF911F910F91FF90EF90DF90CF904A
:103A50000895465A5F4F6F4F7F4F0C94CC1C4F9286
:103A60005F926F927F928F929F92AF92BF92CF920E
:103A7000DF92EF92FF920F931F93CF93DF938C010E
:103A80006090FA0BC091F70BD091F80B712CC12C00
:103A9000D12C7601812C912C54017614C1F04881EF
:103AA00059816A817B81C8010E94291D860E971E5B
:103AB000A81EB91E4991599169917991C8010E9436
:103AC000CC1CC60ED71EE81EF91E7394E6CF8114D7
:103AD0009104A104B10429F4C114D104E104F10456
:103AE000A1F1662D70E080E090E00E94B1402B01D2
:103AF0003C01C501B4010E94B14020E830E040E83B
:103B000057E30E941D42A30192010E9416404B01FF
:103B10005C01C701B6010E94B14020E830E040E8F6
:103B200057E30E941D42A30192010E941640A50185
:103B300094010E94BC3F21EE3EE245E652E40E9421
:103B40001D420E947E40CB0102C080E090E0DF91E8
:103B5000CF911F910F91FF90EF90DF90CF90BF908A
:103B6000AF909F908F907F906F905F904F9008954F
:103B70000F931F930E94213D00912D0C10912E0C4C
:103B800020912F0C3091300C601B710B820B930B2A
:103B9000653171058105910520F18091250C909189
:103BA000260CA091270CB091280C8093210C9093A7
:103BB000220CA093230CB093240C0E942D3D609303
:103BC000250C7093260C8093270C9093280C0E9450
:103BD000213D60932D0C70932E0C80932F0C9093AD
:103BE000300C1F910F9108950F931F930E94213D58
:103BF0000091290C10912A0C20912B0C30912C0C47
:103C0000601B710B820B930B65317105810591056A
:103C100008F444C08091150C9091160CA091170CDB
:103C2000B091180C8093110C9093120CA093130C6C
:103C3000B093140C0E942D3D6093150C7093160CDC
:103C40008093170C9093180C8091210C9091220C6A
:103C5000A091230CB091240C80931D0C90931E0C0A
:103C6000A0931F0CB093200C8091250C9091260CF2
:103C7000A091270CB091280C8093190C90931A0CEA
:103C8000A0931B0CB0931C0C0E94213D6093290C47
:103C900070932A0C80932B0C90932C0C1F910F91F6
:103CA00008954F925F926F927F928F929F92AF9200
:103CB000BF92CF92DF92EF92FF920F931F93F894EF
:103CC00080901D0C90901E0CA0901F0CB090200CAA
:103CD0008091190C90911A0CA0911B0CB0911C0CA6
:103CE0004091110C5091120C6091130C7091140CB6
:103CF0000091150C1091160C2091170C3091180C96
:103D0000789488169906AA06BB0668F46C017D01B2
:103D1000C818D908EA08FB08E0E2CE16EEE4DE0691
:103D2000E104F10418F467EA72E034C04017510767
:103D30006207730768F428013901441A550A660AB4
:103D4000770AE0E24E16EEE45E066104710418F4B0
:103D500063EF72E01FC00115110521053105C1F0A7
:103D6000411551056105710599F00097A105B1054F
:103D700079F081149104A104B10451F084169506E0
:103D8000A606B70628F4081719072A073B0738F4D0
:103D90006FE373E080E09DE00E94FC3878C0C40CC3
:103DA000D51CE61CF71CF694E794D794C794C092F0
:103DB0000D0CD0920E0CE0920F0CF092100C28011A
:103DC0003901440E551E661E771EA3019201281963
:103DD00039094A095B09281B390B4A0B5B0B5695BD
:103DE0004795379527952093090C30930A0C4093FB
:103DF0000B0C50930C0C211531054105510509F4AC
:103E000046C02C153D054E055F0508F040C0A8E6EC
:103E1000B1E00E945E43A70196010E941743283635
:103E200081E038074105510590F58091FB0B8F5FCC
:103E30008093FB0B9091FA0B6091F90BE091F70BDB
:103E4000F091F80B9617B0F481E0890F8093FA0B8C
:103E500084E0989FE00DF11D11242083318342837B
:103E600053838091FB0B6091FA0B0E94F742909371
:103E7000FB0B0DC00E94F7429093FB0B84E0989FD0
:103E8000E00DF11D112420833183428353831F9160
:103E90000F91FF90EF90DF90CF90BF90AF909F90E9
:103EA0008F907F906F905F904F9008954F925F92A8
:103EB0006F927F928F929F92AF92BF92CF92DF923A
:103EC000EF92FF92CF93DF93EC010E94213DC090CF
:103ED0002D0CD0902E0CE0902F0CF090300C6C1527
:103EE0007D058E059F0550F40E94213D60932D0CA9
:103EF00070932E0C80932F0C9093300C0E94213DD8
:103F0000C090290CD0902A0CE0902B0CF0902C0C37
:103F10006C157D058E059F0550F40E94213D609330
:103F2000290C70932A0C80932B0C90932C0C0E94DC
:103F3000213DAB01BC01888199810E94A2100E94A1
:103F4000213DC0902D0CD0902E0CE0902F0CF090C5
:103F5000300C6C197D098E099F09A880B980693BD6
:103F60007B4081059105A0F040E050E0BA01C50119
:103F7000DF91CF91FF90EF90DF90CF90BF90AF9007
:103F80009F908F907F906F905F904F900C949A10BD
:103F900020910D0C30910E0C40910F0C5091100C93
:103FA000211531054105510509F4B4C060E071EEF9
:103FB00085EF95E00E94174369017A01233481E07F
:103FC000380741055105F4F5AAE0B0E00E945E43D0
:103FD0002B013C01C5010E94460F4B015C01A3016E
:103FE0009201C301B2010E94E74227E93FEF4FEF80
:103FF0005FEF0E94394329013A01A701960168E267
:1040000073EE83E090E00E94E74224E630E040E077
:1040100050E00E943943420E531E641E751E24EE6A
:10402000421A2FE2520A61087108C301B2010E94CC
:10403000B140A50194010E94164020E030E040E22A
:1040400051E460C02C3385E138074105510554F532
:10405000C5010E94460F2B013C01A7019601C70133
:10406000B6010E94E7422EEA38E040E050E00E94AC
:10407000394349015A01ABE9BAE4A70196010E940C
:104080005E4324E630E040E050E00E943943820E77
:10409000931EA41EB51E26EA820E25E2921EA11CC6
:1040A000B11C2AC0C5010E94460F2B013C01A7018B
:1040B0009601C701B6010E94E74222E134E040E0E8
:1040C00050E00E943943A4E6B0E00E945E434B01F9
:1040D0005C01A701960164EB70E281E89FEF0E940A
:1040E000E742860E971EA81EB91E84E4880E8DEB4B
:1040F000981E8BE2A81EB11CC501B4010E94B140FC
:10410000A30192010E941640AB01BC0188819981F4
:104110000E949A10888199810E943E0F6B017C0158
:10412000888199810E944E0FBC01882777FD809578
:10413000982F0E94B1409B01AC01C701B6010E94BB
:104140001242181654F4888199810E943E0F0E94F1
:104150007E40888199810E94E110CE010E942F1D2E
:104160008A5591097C01888199810E942C0FB701A1
:10417000680F791F77FF02C068597E4F8881998147
:10418000DF91CF91FF90EF90DF90CF90BF90AF90F5
:104190009F908F907F906F905F904F900C948E10B7
:1041A0008CEF9BE09093F80B8093F70B83E0809368
:1041B000F90B1092FA0B1092FB0B089561E085E366
:1041C0000E948C3E61E085E30E94533E8CB5806185
:1041D0008CBD8CB580648CBD61E084E30E94533E4D
:1041E00061E083E30C94533E811103C08CB580627F
:1041F00002C08CB58F7D8CBD08959CB5937F982BA4
:104200009CBD08952CB5982F93702C7F922B9CBD4C
:104210009DB582FB882780F99E7F982B9DBD0895D0
:10422000FC01A681B7819D012F5F3F4F848195815D
:1042300040855185840F951F2817390750F437831F
:1042400026836C930680F781E02D108281E090E058
:10425000089580E090E00895FC01A481B581B783C2
:10426000A68380859185892B09F01C920895089575
:104270002F923F924F925F926F927F928F929F9276
:10428000AF92BF92CF92DF92EF92FF920F931F9364
:10429000CF93DF93CDB7DEB72A970FB6F894DEBF82
:1042A0000FBECDBF9A878987DC01D6968C91882373
:1042B00009F4E5C00E94213D69837A838B839C8346
:1042C000E985FA8580A191A129813A81281B390BC2
:1042D00084A595A5281739070CF4D1C0028CF38D5D
:1042E000E02D80809180A280B380A985BA855E96FA
:1042F000ED91FC915F97A5019401608171818281AC
:1043000093810E94483F2B013C01E985FA85208971
:104310003189428953890E941D42A985BA859496A4
:104320002D913D914D915C9197970E94493F6B0172
:104330007C01E985FA8564A375A386A397A312A9D6
:1043400003A934A825A8212F302F432D522D0E94D8
:10435000124218162CF4812F902FA32DB22D18C0C5
:10436000A985BA859E968D919D910D90BC91A02DA9
:104370008D839E83AF83B8879C01AD01C701B601D1
:104380000E940F4087FF0AC08D819E81AF81B88552
:10439000E985FA8584A395A3A6A3B7A3A985BA85C1
:1043A0001C962D913D914D915C911F97C301B201D7
:1043B0000E941D42E985FA8524A135A146A157A195
:1043C0000E94493F6B017C01A985BA8598962D9181
:1043D0003D914D915C919B97C501B4010E94483F6E
:1043E000E985FA8524893589468957890E941D42C5
:1043F0009B01AC01C701B6010E94483F6B017C01E3
:10440000212F302F432D522D0E9412421816DCF01E
:10441000A985BA859E961C919E979F960C919F9711
:10442000D0963C90D097D1962C90212F302F432DB1
:10443000522DB601C7010E940F4087FD04C01C2DFC
:104440000D2D3E2C2F2CA985BA855C96ED91FC9103
:104450005D97812F902FA32DB22D80839183A2830E
:10446000B383E985FA8580A691A6A2A6B3A6898121
:104470009A81AB81BC8180A391A3A2A3B3A32A9606
:104480000FB6F894DEBF0FBECDBFDF91CF911F9165
:104490000F91FF90EF90DF90CF90BF90AF909F90E3
:1044A0008F907F906F905F904F903F902F900895E6
:1044B0002F923F924F925F926F927F928F929F9234
:1044C000AF92BF92CF92DF92EF92FF920F931F9322
:1044D000CF93DF9300D000D0CDB7DEB71C012A0107
:1044E0003B014801590120E030E0A901C301B201BC
:1044F0000E940F4087FD7AC020E030E0A901C5018D
:10450000B4010E940F4087FD71C020E030E0A90196
:10451000C701B6010E940F4087FD68C0F1014082CB
:1045200051826282738284829582A682B782C0861B
:10453000D186E286F38664A575A5882777FD8095E8
:10454000982F0E94B14020E030E04AE754E40E94F6
:10455000164069837A838B839C83F1014486558658
:10456000668677869B01AC01C501B4010E941D429D
:104570004B015C01F101608B718B828B938B2981E4
:104580003A814B815C81C701B6010E9416406B01E4
:104590007C01F101648B758B868B978B808D918D5F
:1045A000019721F5A301920160E070E0CB010E9428
:1045B000483FF1016487758786879787A501940135
:1045C00060E070E0CB010E94483FF101608B718B8D
:1045D000828B938BA701960160E070E0CB010E9473
:1045E000483FF101648B758B868B978B0F900F90F2
:1045F0000F900F90DF91CF911F910F91FF90EF904F
:10460000DF90CF90BF90AF909F908F907F906F90F2
:104610005F904F903F902F900895CF92DF92EF924E
:10462000FF920F931F93CF93DF93EC018B0116162C
:10463000170694F5882777FD8095982F0E94B14042
:104640006B017C016CA57DA5882777FD8095982F4F
:104650000E94B1409B01AC01C701B6010E94164007
:104660006B017C019B01AC01688979898A899B89EE
:104670000E941D42688B798B8A8B9B8BA7019601C8
:104680006C897D898E899F890E9416406C8B7D8BF9
:104690008E8B9F8B1DA70CA7DF91CF911F910F9140
:1046A000FF90EF90DF90CF9008952F923F924F921E
:1046B0005F926F927F928F929F92AF92BF92CF92B2
:1046C000DF92EF92FF920F931F93CF93DF93EC0152
:1046D0006A017B0148015901A9019801C701B6018E
:1046E0000E94124287FF4EC0CEA6DFA6E8AAF9AA12
:1046F0008AAA9BAAACAABDAA8EA9882309F442C0A3
:104700002C8C3D8CF1014080518062807380A5012A
:104710009401C301B2010E941242181634F4F1014F
:1047200080829182A282B3820DC0A7019601C3014B
:10473000B2010E940F4087FF05C0F101C082D18203
:10474000E282F3828CA09DA0AEA0BFA0CAA8DBA885
:10475000ECA8FDA8A7019601C501B4010E94124270
:10476000181664F0CEA4DFA4E8A8F9A8A701960162
:10477000C501B4010E940F4087FF04C0CCA2DDA296
:10478000EEA2FFA2DF91CF911F910F91FF90EF90CA
:10479000DF90CF90BF90AF909F908F907F906F9061
:1047A0005F904F903F902F9008958F929F92AF927D
:1047B000BF92CF92DF92EF92FF92CF93DF93EC0103
:1047C000EC8DFD8DC080D180E280F380CCA2DDA293
:1047D000EEA2FFA2EA8DFB8D80819181A281B3813F
:1047E00088A799A7AAA7BBA78AA89BA8ACA8BDA879
:1047F000A5019401C701B6010E941242181664F087
:104800008EA49FA4A8A8B9A8A5019401C701B601C8
:104810000E940F4087FF04C08CA29DA2AEA2BFA23F
:10482000DF91CF91FF90EF90DF90CF90BF90AF904E
:104830009F908F9008951F93CF93DF93EC0111E029
:104840006130710509F010E08EA991E089271813F5
:1048500003C0CE010E94D5231EABDF91CF911F91E3
:1048600008950F931F93CF93DF93EC018B018EA9D3
:10487000882361F1888D998D6817790739F12C8526
:104880003D854E855F8560E070E0CB010E94483F2A
:104890006C877D878E879F87288939894A895B89BC
:1048A00060E070E0CB010E94483F688B798B8A8B77
:1048B0009B8B2C893D894E895F8960E070E0CB013C
:1048C0000E94483F6C8B7D8B8E8B9F8B198F088F3E
:1048D000DF91CF911F910F9108952F923F924F92A8
:1048E0005F926F927F928F929F92AF92BF92CF9280
:1048F000DF92EF92FF920F931F93CF93DF93CDB789
:10490000DEB728970FB6F894DEBF0FBECDBF4C01BF
:104910007A8369831A013C832B8327013801AD8296
:10492000BE82CF82D88600E010E02FE733E440E07B
:1049300050E0BA010E94552384E690E0F40195A767
:1049400084A769A17AA1C4010E943124CD8CDE8C98
:10495000EF8CF8A00D811E812F813885B301A20153
:10496000C4010E9458220E94213DF40144A455A490
:10497000662457FC6094762C64197509860997099A
:1049800060A371A382A393A316AA358E248E898176
:104990009A81938F828F8B819C81978F868F2896A7
:1049A0000FB6F894DEBF0FBECDBFDF91CF911F9140
:1049B0000F91FF90EF90DF90CF90BF90AF909F90BE
:1049C0008F907F906F905F904F903F902F900895C1
:1049D0000F931F93CF93DF93FC0171836083128247
:1049E00013821482158286E58683178210861186CB
:1049F000128613861486158616861786108A118AE3
:104A0000128A138A148A158A168ADF01A754BF4FA7
:104A100011961C921E92AE55BF4F11961C921E927B
:104A2000149611961C921E92129611961C921E922A
:104A3000129611961C921E92178AAC5AB1091D92B9
:104A40001C92EF0104E110E08FE090E00E9490439F
:104A5000FE01E15EFE4F918380838FE090E00E9433
:104A60009043FE01E558FF4F91838083FC01108243
:104A70000150110922960115110531F7DF91CF91EF
:104A80001F910F910895FC0162817381848195814A
:104A90000895FC0186810895FC01678170858185F8
:104AA00092850895FC0163857485858596850895B2
:104AB000CF92DF92EF92FF926A017B01FC01278582
:104AC000308941895289C701B6010E941D42FF9079
:104AD000EF90DF90CF900895FC01638974898589F8
:104AE0009689089547960895660F771F680F791F76
:104AF000FB01E558FF4F8081918108954F925F92AD
:104B00006F927F928F929F92AF92BF92CF92DF92DD
:104B1000EF92FF920F931F93CF93DF93FB011081CE
:104B20001D3241F031E020E01B3209F030E0832FEC
:104B3000922F02C081E090E0EB01C80FD91F00E086
:104B40003DEC432E3CEC532E652C3DE3732E812C23
:104B5000912C5401C12CD12C7601E991EE23E9F17D
:104B6000EE32C9F1FF27E7FDF095011113C0AAE06D
:104B7000B0E0A70196010E945E436B017C01CF016A
:104B8000C097AA2797FDA095BA2FC80ED91EEA1E76
:104B9000FB1EE3CFBF0160537109882777FD809525
:104BA000982F0E94B1409B01AC01C301B2010E9449
:104BB0001D429B01AC01C501B4010E94493F4B015C
:104BC0005C0120E030E040E251E4C301B2010E9408
:104BD00016402B013C0101E0C0CFC701B6010E9485
:104BE000B1409B01AC01C501B4010E94493F1D3297
:104BF00039F49B01AC0160E070E0CB010E94483FBA
:104C0000DF91CF911F910F91FF90EF90DF90CF90A8
:104C1000BF90AF909F908F907F906F905F904F90DC
:104C200008958F929F92AF92BF92CF92DF92EF92B0
:104C3000FF920F931F93CF93DF93EC01AC01455A82
:104C40005E4FDA012D913C911197FC01E15AFE4F24
:104C5000243631056CF4A25AB1098D919C911197BB
:104C6000449734F4A655BF4F8D919C910F9714F043
:104C7000118210826A3011F06D3011F411821082AD
:104C80006432E1F4DE01A35ABE4F11961C921E92CB
:104C9000149611961C921E92A85AB10911961C9254
:104CA0001E92A655BF4F1D921C92C554DF4F6883BC
:104CB00081E090E0DA018D939C93E4C08081918142
:104CC0008130910569F024F4009709F47AC272C228
:104CD0008230910509F492C0039709F4D6C06AC2E4
:104CE000273031057CF4D901A758BB4F8C9168134C
:104CF00009C0DE01A35ABE4F8D919C911197019678
:104D00008D939C93C9010196DA018D939C932C0F8E
:104D10003D1FD901A554BF4F6C93CE0187549F4FBF
:104D20008E010D591E4F6A3249F1DE01AF59BE4F57
:104D3000FC016C3209F040C020813181A9014F5F34
:104D40005F4F51834083C901880F991F8C0F9D1FAE
:104D5000EC01C15EDE4F0990D881C02DF801808141
:104D60009181C80FD91F1882118210828D919C9158
:104D70001197FCE28F278D939C931EC2DC012D912D
:104D80003C911197A9014F5F5F4F4D935C93C9010F
:104D9000880F991F8C0F9D1FEC01C15EDE4F09909B
:104DA000D881C02DD8018D919C911197C80FD91F22
:104DB00018821D921C9263C080819181880F991F77
:104DC0008C0F9D1FEC01C15EDE4F0990D881C02D74
:104DD000F801808191819C012F5F3F4F31832083B7
:104DE000C80FD91F6883772767FD70958D919C91B7
:104DF0001197682779276D937C93DEC1C9010196CD
:104E0000DA018D939C932C0F3D1FD901A554BF4F00
:104E10006C93DE01A754BF4F8D919C91880F991F11
:104E20008C0F9D1FDC01A15EBE4F0D911C919E0158
:104E30002D593E4FD9018D919C911197AC014F5F37
:104E40005F4F4D935C93080F191FD8016C93CF5996
:104E5000DE4F48815981862F992787FD90956134CF
:104E600014F0C79701C0C0979C01B4E0220F331F14
:104E7000BA95E1F7CA01821B930B998388838081DD
:104E8000918101969183808397C1CE01820F931FF8
:104E9000DC01A554BF4F6C932E5F3F4FDA012D9379
:104EA0003C93DC01A454BF4F1C929E0127543F4FFA
:104EB000D9018D919C91880F991F8C0F9D1FDC014A
:104EC000A15EBE4F8D919C916E01BDE9CB1ABEEFE4
:104ED000DB0AD6010D911C917801BFEFEB1AFB0A9A
:104EE000D601ED92FC92800F911FDC016C93D901E9
:104EF0008D919C9111978C010F5F1F4F0D931C9307
:104F0000880F991F8C0F9D1F815E9E4FDC018D9134
:104F10009C91D6010D911C91800F911FDC011C9278
:104F200011821082FE01EF59FE4F80819181062F80
:104F3000112707FD1095613424F0B80167537109FA
:104F400003C0B80160537109861B970B918380835E
:104F5000009709F031C168817981672B29F4FA0142
:104F600060817181CB010AC0FE01E35AFE4F60816E
:104F700071816630710509F024C1F1CF019797FD69
:104F80000AC0FE01E80FF91F8F0105541F4FD80119
:104F90001C91178BF3CFFB013197CB0177FF02C038
:104FA00080E090E0BF01681B790BDA016D937C9380
:104FB000FE01E954FF4F1182108240815181D901D5
:104FC0008D919C914817590784F5D6011D921C922A
:104FD00080819181D6014D915C91880F991F8C0F32
:104FE0009D1FBC01615E7E4FDB016D917C91640F62
:104FF000751FDB016C9185589F4FDC018D919C9151
:10500000840F951FDC01662349F06C93D6018D91C6
:105010009C91119701968D939C93DACF1C9280817D
:105020009181019691838083C8CFFE01E35AFE4FA0
:1050300080819181069709F0C2C0FC9760817181DF
:10504000CE010E947E256A837B838C839D83FE0133
:10505000ED5DFE4F0190F081E02D80818E83FE0199
:10506000EB5DFE4F60817181CE010E947E2520E0C4
:1050700030E048EC52E40E9416404B015C010E9473
:10508000EC406B017C018E010B591E4FF8016083CF
:105090007183828393839B01AC01C501B4010E949B
:1050A000483F20E030E048EC52E40E941D4220E0FE
:1050B00030E040E752E40E941640A70196010E94AA
:1050C000493F9B01AC016F83788789879A87FE01EE
:1050D000E95DFE4F0190F081E02D8081833549F438
:1050E00060E070E0CB010E94483F6F83788789873A
:1050F0009A87FE01E75DFE4F60817181CE010E94BB
:105100007E2520E030E048EC52E40E9416404B013E
:105110005C010E94EC406B017C01D8016D937D9392
:105120008D939C9313979B01AC01C501B4010E9420
:10513000483F20E030E048EC52E40E941D4220E06D
:1051400030E040E752E40E941640A70196010E9419
:10515000493F9B01AC016B877C878D879E87FE0151
:10516000E55DFE4F0190F081E02D8081873549F4A7
:1051700060E070E0CB010E94483F6B877C878D87A1
:105180009E87FE01E35DFE4F60817181CE010E942A
:105190007E256F87788B898B9A8BFE01E15DFE4FB0
:1051A00060817181CE010E947E256B8B7C8B8D8B03
:1051B0009E8B05C01182108280E090E002C081E0E9
:1051C00090E0DF91CF911F910F91FF90EF90DF90D2
:1051D000CF90BF90AF909F908F9008958EBD0DB4EB
:1051E00007FEFDCF8EB508950F931F93FC01138228
:1051F000128208EE13E020E030E00483158326835A
:10520000378385E894E091838083648745871F9185
:105210000F910895EF92FF921F93CF93DF931F9208
:10522000CDB7DEB77C01162F60E0FC018485498391
:105230000E948C3EF8E01F9FB0011124F701858584
:10524000880F862B0E94EE284981842F0E94EE2829
:1052500062E070E080E090E00E94503D61E0F70184
:1052600084850F90DF91CF911F91FF90EF900C9468
:105270008C3E462F60E00E940A2981E090E008956C
:1052800046E062E00C940A29CF92DF92EF92FF92FF
:105290000F931F93CF93DF9300D0CDB7DEB78C0170
:1052A000F22E60E0FC01848549835A830E948C3E83
:1052B0004981E42EC42E5A81D52E8C2D8E198F153E
:1052C00030F4F60181916F010E94EE28F6CF62E082
:1052D00070E080E090E00E94503D61E0F80184853C
:1052E0000F900F90DF91CF911F910F91FF90EF9052
:1052F000DF90CF900C948C3E242FAB0160E00C9497
:1053000044291F93CF93DF93EC01162F60E08C8527
:105310000E948C3E62E070E080E090E00E94503D90
:1053200088E0189FB00111248D85880F862B806836
:105330000E94EE2880E00E94EE28182F62E070E0C4
:1053400080E090E00E94503D61E08C850E948C3EA0
:10535000812FDF91CF911F91089560E00E948129F4
:1053600090E0089569E00E94812990E0089569E045
:105370000E9481298FEF9FEF08951F93CF93DF93B2
:10538000EC01162F63E00E948129482F4C7F6BEFC0
:10539000610F6370462B63E0CE01DF91CF911F91C7
:1053A0000C940A298F929F92AF92BF92CF92DF9274
:1053B000EF92FF920F931F93CF93DF93EC016A015B
:1053C0007B014801590160ED75E080E09DE00E949D
:1053D000EA380E94DE206AE070E080E090E00E94FF
:1053E000503D81E00E94F42081E00E94022180E093
:1053F0000E94FD2064EC75E080E09DE00E94EA38A8
:105400008091060290910702019779F448E06EE0DE
:10541000CE010E940A29109207021092060265EB43
:1054200075E080E09DE00E94EA3864E670E080E08C
:1054300090E00E94503D40E863E0CE010E940A29BE
:10544000C701B60123E0660F771F881F991F2A95B1
:10545000D1F7680D791D8A1D9B1DA7019601E4E017
:10546000220F331F441F551FEA95D1F70E9417439F
:1054700069017A01422F60E0CE010E940A294D2D78
:10548000552761E0CE010E940A2940E063E0CE0189
:105490000E940A2968E0CE010E94BD2947E062E02F
:1054A000CE010E940A2963EA75E080E09DE0DF9169
:1054B000CF911F910F91FF90EF90DF90CF90BF9011
:1054C000AF909F908F900C94EA380F931F9300E059
:1054D00010E820E730E00E94D2291F910F91089533
:1054E000FC016F778081918186279183808347E0DB
:1054F00020813181C9019695879520FF04C020EF56
:10550000822722E2922791838083415089F7089570
:10551000EF92FF920F931F93CF93DF937C018A0149
:10552000EB01060F171FC017D10729F06991C701BA
:105530000E94702AF8CFDF91CF911F910F91FF90B9
:10554000EF900895CF93DF9300D0CDB7DEB7AB01D6
:105550002FEF3FE33A832983BC01CE0101960E94DD
:10556000882A89819A8180952FE392270F900F9046
:10557000DF91CF9108950F931F93CF93DF931F92E5
:10558000CDB7DEB78C01FC01718360831282238367
:105590001486158616861786108A459649830E94BA
:1055A000762FF801178E10A249818FE9840F8A3176
:1055B00008F440528FEB840F8A3120F080ED840F85
:1055C0008A3010F4F801428344E650E060E070E075
:1055D000F80144835583668377834FEF5FEFBA0109
:1055E000408751876287738711A20F90DF91CF9117
:1055F0001F910F91089508959F92AF92BF92CF92FD
:10560000DF92EF92FF920F931F93CF93DF93CDB76B
:10561000DEB7A7970FB6F894DEBF0FBECDBF6C0103
:105620007B01942E5901DB0114964D915D916D9192
:105630007C911797CE0180960E946F30CE018096A4
:105640000E9445306894A4F8C8010E941D30882348
:1056500021F0C6010E94782F6CC0CE0180960E9476
:105660001D308823A9F1CE0180960E946330F70196
:1056700084858F5F87FD81E0D7011C968C93CE01D6
:1056800001960E94A52DF7016281CE0101960E942C
:10569000A92D6A2DCE0101960E94A92DD7011C9635
:1056A0006C91CE0101960E94A92D692DCE01019623
:1056B0000E94A92DD701ED91FC91119763A174A1CE
:1056C00023E230E013964C91CE0101960E94812E88
:1056D000F701808191810E944F2F882309F4B4CF74
:1056E000D701ED91FC911197938113968C919813AA
:1056F000ABCF8481833409F0A7CF408151814550DD
:105700005109BF016A5F7F4FCE0101960E94EE2FC3
:105710008981882309F498CF9C81F70184859813A7
:1057200093CF8AE0FE013196D60101900D928A95C1
:10573000E1F7C601A7960FB6F894DEBF0FBECDBF46
:10574000DF91CF911F910F91FF90EF90DF90CF905D
:10575000BF90AF909F9008959F92AF92BF92CF92CB
:10576000DF92EF92FF920F931F93CF93DF93CDB70A
:10577000DEB76F970FB6F894DEBF0FBECDBF8C01BA
:105780005B017A01922EDC01ED91FC91C3A0D4A0C3
:10579000CE0101960E94A52DF8016281CE010196ED
:1057A0000E94A92D692DCE0101960E94A92D96FE79
:1057B00007C0D8015F966C91CE0101960E94A92D79
:1057C000F70142815381B7016C5F7F4FCE01019693
:1057D0000E94B52D9501D80113964C91B601CE01CA
:1057E00001960E94812E6F960FB6F894DEBF0FBE11
:1057F000CDBFDF91CF911F910F91FF90EF90DF9080
:10580000CF90BF90AF909F900895CF92DF92EF928C
:10581000FF920F931F93CF93DF93CDB7DEB72A97F5
:105820000FB6F894DEBF0FBECDBF7C016A01FC014C
:1058300080A1811123C08B0120E430E041E050E0E1
:10584000B701CE0101960E94FC2A8AE0FE01319642
:10585000D60101900D928A95E1F7F601828180FFD1
:1058600004C08681978197FD07C0F6018481F70106
:10587000878F81E080A302C081E001C080E02A968A
:105880000FB6F894DEBF0FBECDBFDF91CF911F9151
:105890000F91FF90EF90DF90CF900895DF92EF92FD
:1058A000FF920F931F93CF93DF93CDB7DEB72A9765
:1058B0000FB6F894DEBF0FBECDBF7C01D42EFC0125
:1058C00023893489418952898B01BC01CE0101961B
:1058D0000E94FC2A8AE0FE013196D701559601907C
:1058E0000D928A95E1F7F701878980FF04C0838DC7
:1058F000948D97FD0BC0F701818D978D891731F03D
:10590000811106C081E0D11004C002C081E001C055
:1059100080E02A960FB6F894DEBF0FBECDBFDF91B0
:10592000CF911F910F91FF90EF90DF9008958F928C
:105930009F92AF92BF92CF92DF92EF92FF920F931E
:105940001F93CF93DF93CDB7DEB72E970FB6F894A2
:10595000DEBF0FBECDBF7C016B015A014901FC01C6
:1059600025853685478550892F5F3F4F4F4F5F4FC5
:10597000258736874787508BBC01CE0109960E9448
:10598000912EF70181A1882339F09401A501B60178
:10599000C7010E94AC2B30C0F7014085518562855C
:1059A0007385CE0101960E946F30A7014B5E5F4F59
:1059B000BE016F5F7F4FC7010E94052C81111CC083
:1059C000689486F8F701128B018B948A838A878DFD
:1059D0008F5F87FD81E0F701878F9401A501B601F4
:1059E000C7010E94AC2B40E0BE016F5F7F4FC70133
:1059F0000E944E2C882389F386E0FE013996DE0151
:105A0000119601900D928A95E1F729813A814B8197
:105A10005C816D817E8180E090E02E960FB6F894D7
:105A2000DEBF0FBECDBFDF91CF911F910F91FF90D1
:105A3000EF90DF90CF90BF90AF909F908F900895A0
:105A40008F929F92AF92BF92CF92DF92EF92FF928E
:105A50000F931F93CF93DF93CDB7DEB7AA970FB6FF
:105A6000F894DEBF0FBECDBF4C01CE0101962FA32F
:105A700038A749A75AA76EA30E94A52D6EA1CE01F3
:105A800001960E94A92D2FA138A549A55AA5BA01B2
:105A9000A901CE0101960E94CD2DF7FC0BC0602F0D
:105AA000CE0101960E94A92DB701A601CE01019653
:105AB0000E94CD2D01E010E09501AE014F5F5F4FD8
:105AC00064E270E0C4010E94972C80E090E0AA9606
:105AD0000FB6F894DEBF0FBECDBFDF91CF911F91FF
